:100000000C9474010C94A5010C94A5010C94A50109
:100010000C94A5010C94A5010C94A5010C94A501C8
:100020000C94A5010C94C51D0C94EE1D0C94181E87
:100030000C94A5010C94A5010C94A5010C94A501A8
:100040000C94A5010C94A5010C94A5010C94A50198
:100050000C94A5010C94A5010C94A5010C9489267F
:100060000C94A5010C94FD230C9433240C94A5014D
:100070000C94A5010C94A5010C94A5010C94A50168
:100080000C94A5010C94A5010C94A5010C94A50158
:100090000C94421E0C946C1E0C94A5010C94A501AA
:1000A0000C94A5010C94A5010C94A5010C94A50138
:1000B0000C94A5010C94A5010C9482210C94DE20D3
:1000C0000C9430220C94A5010C94A5010C94B51E3F
:1000D0000C94DF1E0C94A5010C9494240C94CA2457
:1000E0000C94A501B127B427A327A727AD27EB2799
:1000F000B827BC27C227C627CA27D027D427D82786
:10010000EB27DE27E227E6270C94091F0C94D8275B
:100110000C94C2220C944F1D0C94AE220C94A91A7C
:100120000C94B4270C9494220C94AD270C94A32720
:100130000C94D8200C94A61A0C947F120C94E227ED
:100140000C94AA1A0C94C6270C9420230C94B12763
:100150000C94961E0C94C2270C94CA270C945D2410
:100160000C94E6270C94FE240C9419200C94EE2396
:100170000C9480210C94381D0C94B8270C94A02268
:100180000C9467240C94EB270C94D4270C94D02760
:100190000C9467230C942B250C94DE270C940620DA
:1001A0000C942E0F0C94F4240C9428200C94BC274F
:1001B0000C94F01F0C94AB110C94A72700000B0CAF
:1001C000030A0D0E0F0908040502000000000000DC
:1001D000000000000000000000000000000000001F
:1001E00000000000000000001312110000000000D9
:1001F00000000000000000000000000000000000FF
:10020000000001021020200808102040102040802B
:1002100002010201080402010102040810204080CA
:100220008040201008040201800402018040201058
:1002300008040201080402010102040810204080A1
:10024000010204081020408005050505070508087F
:100250000808020202020A0A080804040404010150
:100260000101010101010303030303030303040765
:1002700007070C0C0C0C0C0C0C0C020202020606FC
:100280000606060606060B0B0B0B0B0B0B0B0000F2
:1002900020002300260029002C002F00320000013E
:1002A00000000301060109010000220025002800CA
:1002B0002B002E003100340002010000050108016E
:1002C0000B0100002100240027002A002D0030002F
:1002D000330001010000040107010A01AB11961E61
:1002E000091F6724FE247F1211241FBECFEFD1E225
:1002F000DEBFCDBF00E00CBF15E0A0E0B2E0EEEF46
:10030000FFE500E00BBF02C007900D92AC3BB107C8
:10031000D9F72CE0ACEBB5E001C01D92A03BB207D1
:10032000E1F711E0C3E7D1E000E006C02197010941
:10033000802FFE010E94C128CE36D10780E0080739
:10034000A9F70E9476260C94ED2F0C9400002F92B2
:100350003F924F925F926F927F928F929F92AF9255
:10036000BF92CF92DF92EF92FF920F931F93CF93A2
:10037000DF93CDB7DEB7C856D1090FB6F894DEBF0C
:100380000FBECDBF5C018C01065A1F4FF801808162
:10039000918118161906DCF4F501408151816281C2
:1003A0007381CE0101960E944109CE0101960E94FF
:1003B000F2050E941D11F80180819181019797FD3E
:1003C00003C09183808303C0F801118210828501EC
:1003D0000A581F4FF801808191811816190614F4EC
:1003E000B4970AC085010C581F4FF8018081918194
:1003F00018161906DCF4B697408151816281738129
:10040000CE0101960E942D06CE0101960E94F205B2
:100410000E941D11F80180819181019797FD03C011
:100420009183808303C0F801118210821501F2E6E6
:100430002F0E311CF1018081918118161906ACF53F
:100440007501F0E6EF0EF11CF7018081918118161D
:1004500019065CF5F50102891389248935894689D5
:100460005789608D718DCE0101960E94F305CE01F2
:1004700001960E94F2050E941D11F1018081918177
:10048000019797FD03C09183808303C0F10111821E
:100490001082F70180819181019797FD03C09183BC
:1004A000808303C0F701118210827501F4E6EF0E1C
:1004B000F11CF7018081918118161906B4F4CE0160
:1004C00001960E944307CE0101960E94F2050E9408
:1004D0001D11F70180819181019797FD03C09183E0
:1004E000808303C0F70111821082850108581F4FD5
:1004F000F8018081918118161906CCF4B0976081BB
:100500007181CE0101960E948707CE0101960E945B
:10051000F2050E941D11F80180819181019797FDDC
:1005200003C09183808303C0F801118210823501DA
:10053000F6E66F0E711CF301808191811816190681
:10054000FCF4F501068517852089318940A551A560
:1005500062A573A5CE0101960E941B0ACE010196E9
:100560000E94F2050E941D11F30180819181019783
:1005700097FD03C09183808303C0F3011182108231
:10058000F3018081918118161906DCF4F50140A56C
:1005900051A562A573A5CE0101960E94590ACE010C
:1005A00001960E94F2050E941D11F3018081918144
:1005B000019797FD03C09183808303C0F3011182EB
:1005C0001082F3018081918118161906D4F58501F6
:1005D00004591F4FF80180819181181619068CF576
:1005E000F50166857785808991890E94C729DC019C
:1005F000CB01F50140A551A562A573A59C01CE01D3
:1006000001960E94850ACE0101960E94F2050E9481
:100610001D11F30180819181019797FD03C09183A2
:10062000808303C0F30111821082F80180819181DF
:10063000019797FD03C09183808303C0F801118265
:100640001082950120593F4FA7963FAF2EAFA79735
:10065000F9018081918128503109290136974F0194
:10066000181619060CF0B9C085010E581F4FF80175
:1006700080819181181619060CF0AFC0F9018081B4
:100680009181181619060CF06DC0F40180819181DA
:10069000181619060CF066C0F701808191811816B2
:1006A00019060CF05FC06501FCE6CF0ED11CF60107
:1006B00080819181181619060CF054C0CE01019664
:1006C0000E949F08CE0101960E94F2050E941D1112
:1006D000A796EEADFFADA79780819181019797FD19
:1006E00003C09183808306C0A796EEADFFADA797A8
:1006F00011821082F80180819181019797FD03C0DA
:100700009183808303C0F80111821082F2018081FD
:100710009181019797FD03C09183808303C0F2010B
:1007200011821082F40180819181019797FD03C0AD
:100730009183808303C0F40111821082F7018081CC
:100740009181019797FD03C09183808303C0F701D6
:1007500011821082F60180819181019797FF97C0E5
:10076000F60199C0F2018081918118161906ACF545
:10077000F40180819181181619067CF5F7018081BA
:100780009181181619064CF5CE0101960E943B087E
:10079000CE0101960E94F2050E941D11A796EEADB2
:1007A000FFADA79780819181019797FD03C0918349
:1007B000808306C0A796EEADFFADA7971182108289
:1007C000F80180819181019797FD03C09183808317
:1007D00022C0F801118210821EC0F2018081918135
:1007E000181619060CF059C0F40180819181181671
:1007F00019060CF052C0F701808191811816190674
:1008000054F5CE0101960E94DF07CE0101960E94A9
:10081000F2050E941D11F20180819181019797FDDF
:1008200003C09183808303C0F20111821082F4011E
:1008300080819181019797FD03C09183808303C0DC
:10084000F40111821082F70180819181019797FF55
:100850001EC0F70120C0CE0101960E94A907CE015B
:1008600001960E94F2050E941D11F2018081918182
:10087000019797FD03C09183808303C0F201118229
:100880001082F40180819181019797FD03C09183CB
:10089000808303C0F401118210828501045A1F4F26
:1008A000F8018081918118161906ECF4F501208574
:1008B00031854681578164817581CE0101960E9400
:1008C0000D09CE0101960E94F2050E941D11F8014A
:1008D00080819181019797FD03C09183808303C03C
:1008E000F80111821082850102591F4FF8018081A1
:1008F000918118161906FCF4F50164A975A9CE01B9
:1009000001960E94C00ACE0101960E94F2050E9443
:100910001D11F80180819181019797FD03C091839A
:10092000808303C0F80111821082CE0101960E94DB
:10093000F2050E940311F3018081918118161906B6
:100940000CF042C09501225A3F4FA9963FAF2EAFFF
:10095000A997F9018081918118161906ACF5F50166
:10096000C684D784E088F18804A515A526A537A5F7
:100970004285538564857585CE0101960E9499094B
:10098000CE0101960E94F2050E941D11F3018081A3
:100990009181019797FD03C09183808303C0F30188
:1009A00011821082A996EEADFFADA9978081918149
:1009B000019797FD03C09183808306C0A996EEAD91
:1009C000FFADA99711821082F401808191811816E0
:1009D0001906B4F5F201808191811816190684F583
:1009E000F501C0A8D1A8E2A8F3A80685178520893B
:1009F000318944A555A566A577A5CE0101960E942B
:100A00005906CE0101960E94F2050E941D11F101C6
:100A100080819181019797FD03C09183808303C0FA
:100A2000F10111821082F501E05AFF4F808191811E
:100A3000019797FD03C09183808302C011821082C9
:100A4000F1018081918118161906ACF57501F0E667
:100A5000EF0EF11CF70180819181181619065CF5E3
:100A6000F501028913892489358946895789608D62
:100A7000718DCE0101960E94BB06CE0101960E94A7
:100A8000F2050E941D11F10180819181019797FD6E
:100A900003C09183808303C0F10111821082F701AA
:100AA00080819181019797FD03C09183808303C06A
:100AB000F70111821082A796EEADFFADA797808156
:100AC000918118161906BCF585010E581F4FF801C3
:100AD000808191811816190674F5A5014E5B5F4F50
:100AE000B5016A5C7F4FCE0101960E94E20ACE01F9
:100AF00001960E94F2050E941D11A796EEADFFAD72
:100B0000A79780819181019797FD03C0918380838E
:100B100006C0A796EEADFFADA79711821082F8012F
:100B200080819181019797FD03C09183808303C0E9
:100B3000F80111821082C859DF4F0FB6F894DEBF5A
:100B40000FBECDBFDF91CF911F910F91FF90EF901E
:100B5000DF90CF90BF90AF909F908F907F906F90DD
:100B60005F904F903F902F9008950F931F93CF93D6
:100B7000DF938C01EC0109900020E9F72197C81B55
:100B8000D90BBE016150710901960E94820DF801D6
:100B9000EC0FFD1F2AE220839F938F938FE794E051
:100BA0009F938F93CE010196800F911F9F938F93F8
:100BB0000E94FC2C0F900F900F900F900F900F90B1
:100BC000CE0103966DE072E0800F911FDF91CF910F
:100BD0001F910F910C94F52C24E6FC0111922A959B
:100BE000E9F708950895AF92BF92CF92DF92EF9206
:100BF000FF920F931F93CF93DF93D82FC92FF42E1B
:100C0000E52ED62EC72EB22EA32E0E94EC05AF9253
:100C1000BF921F930F93CF92DF92EF92FF9280E1EA
:100C200092E09F938F93CF93DF930E94FC2C8DB71C
:100C30009EB70C960FB6F8949EBF0FBE8DBF8D2F3A
:100C40009C2FDF91CF911F910F91FF90EF90DF903C
:100C5000CF90BF90AF900C94B505EF92FF920F9399
:100C60001F93CF93DF93D82FC92F142F052FF62E64
:100C7000E72E0E94EC05EF92FF920F931F938DE4F5
:100C800092E09F938F93CF93DF930E94FC2C8DB7BC
:100C90009EB708960FB6F8949EBF0FBE8DBF8D2FDE
:100CA0009C2FDF91CF911F910F91FF90EF900C94AB
:100CB000B5052F923F924F925F926F927F928F92E3
:100CC0009F92AF92BF92CF92DF92EF92FF920F93DB
:100CD0001F93CF93DF93D82FC92F4A015B012801BF
:100CE00039010E94EC0526E53EE04DEE5FE36C2DF8
:100CF0007D2D8E2D9F2D0E94B42A9F938F937F93DD
:100D00006F93FF92EF92DF92CF92BF92AF929F923A
:100D10008F92A3019201682D792D8A2D9B2D0E941F
:100D2000E3289F938F937F936F938BE592E09F933C
:100D30008F93CF93DF930E94FC2C8DB79EB7449680
:100D40000FB6F8949EBF0FBE8DBF8D2F9C2FDF91E5
:100D5000CF911F910F91FF90EF90DF90CF90BF90B8
:100D6000AF909F908F907F906F905F904F903F904B
:100D70002F900C94B5055F926F927F928F929F9205
:100D8000AF92BF92CF92DF92EF92FF920F931F9399
:100D9000CF93DF936C01EA01F62EE72EB12EA22E3F
:100DA000932E0E94EC0526E53EE04DEE5FE3602FBA
:100DB000712F8A2D992D0E94B42A562E672E782ED7
:100DC000892E20E030E044E353E4F7016C2F7D2FBF
:100DD0008F2F9E2F0E94AF2A181684F4C7012C2F44
:100DE0003D2F492F582F60E070E084EB93E40E9480
:100DF000E328EB01F82EE92E1CE401C012E58F92E6
:100E00007F926F925F9220E030E04AE754E4652DD4
:100E1000762D872D982D0E94B42A20E030E041E6FF
:100E200055E40E9455299F938F937F936F939F92D0
:100E3000AF92BF920F931F921F93EF92FF92DF9397
:100E4000CF938EE792E09F938F93DF92CF920E9491
:100E5000FC2C8DB79EB746960FB6F8949EBF0FBE7A
:100E60008DBFC601DF91CF911F910F91FF90EF9041
:100E7000DF90CF90BF90AF909F908F907F906F90BA
:100E80005F900C94B505CF93DF93D82FC92F0E94A4
:100E9000EC05E4ECF5E087A1282F082E000C330BBD
:100EA0003F938F9386A18F9385A18F9384A18F9376
:100EB00083A18F9382A18F9381A18F9380A1282FEB
:100EC000082E000C330B3F938F93878D8F93868D65
:100ED0008F93858D8F93848D8F93838D8F93828D48
:100EE0008F9382EA92E09F938F93CF93DF930E9438
:100EF000FC2C8DB79EB744960FB6F8949EBF0FBEDC
:100F00008DBF8D2F9C2FDF91CF910C94B5050F9342
:100F10001F93CF93DF93D82FC92F162F072F0E942F
:100F2000EC050F931F938CEC92E09F938F93CF93DC
:100F3000DF930E94FC2C0F900F900F900F900F905A
:100F40000F908D2F9C2FDF91CF911F910F910C94BB
:100F5000B5050F931F93CF93DF938C010E94EC058F
:100F6000C4ECD5E02E853F85488959896CA57DA5BF
:100F70008EA59FA50E94E3289F938F937F936F93E5
:100F80008BA98F938AA98F9389A98F9388A98F930F
:100F900085EE92E09F938F931F930F930E94FC2CFA
:100FA0008DB79EB70C960FB6F8949EBF0FBE8DBF3F
:100FB000C801DF91CF911F910F910C94B5050F934C
:100FC0001F93CF93DF938C010E94EC05C4ECD5E016
:100FD0002E853F85488959896CA57DA58EA59FA53D
:100FE0000E94E3289F938F937F936F938BA98F9396
:100FF0008AA98F9389A98F9388A98F938FA1282F6E
:10100000082E000C330B3F938F938EA18F938DA1ED
:101010008F938CA18F938BA18F938AA18F9389A19A
:101020008F9388A1282F082E000C330B3F938F93AA
:101030008F8D8F938E8D8F938D8D8F938C8D8F93BE
:101040008B8D8F938A8D8F9386E093E09F938F9300
:101050001F930F930E94FC2C8DB79EB74C960FB632
:10106000F8949EBF0FBE8DBFC801DF91CF911F9135
:101070000F910C94B5050F931F93CF93DF938C01C1
:101080000E94EC058AEF95E09F938F93C4ECD5E026
:101090002E853F85488959896CA57DA58EA59FA57C
:1010A0000E94E3289F938F937F936F938BA98F93D5
:1010B0008AA98F9389A98F9388A98F938FA1282FAD
:1010C000082E000C330B3F938F938EA18F938DA12D
:1010D0008F938CA18F938BA18F938AA18F9389A1DA
:1010E0008F9388A1282F082E000C330B3F938F93EA
:1010F0008F8D8F938E8D8F938D8D8F938C8D8F93FE
:101100008B8D8F938A8D8F9386E096E09F938F933C
:101110008EE393E09F938F931F930F930E94FC2C79
:101120008DB79EB780960FB6F8949EBF0FBE8DBF49
:10113000C801DF91CF911F910F910C94B5050F93CA
:101140001F93CF93DF938C010E94EC05C4ECD5E094
:101150005E854F85388929892F933F934F935F93FD
:101160008AEF95E09F938F93BA01C901272F362FFD
:10117000492F582F6CA57DA58EA59FA50E94E32819
:101180009F938F937F936F938BA98F938AA98F934C
:1011900089A98F9388A98F938FA1282F082E000CDF
:1011A000330B3F938F938EA18F938DA18F938CA13F
:1011B0008F938BA18F938AA18F9389A18F9388A1FD
:1011C000282F082E000C330B3F938F938F8D8F9316
:1011D0008E8D8F938D8D8F938C8D8F938B8D8F9321
:1011E0008A8D8F9386E096E09F938F938CE793E0B0
:1011F0009F938F931F930F930E94FC2C8DB79EB7E4
:1012000084960FB6F8949EBF0FBE8DBFC801DF91C4
:10121000CF911F910F910C94B505CF92DF92EF9271
:10122000FF920F931F93CF93DF93D82FC92F162FC1
:10123000072FF42EE52ED22EC32E0E94EC05CF925E
:10124000DF92EF92FF920F931F938EEB93E09F93A9
:101250008F93CF93DF930E94FC2C8DB79EB70A9695
:101260000FB6F8949EBF0FBE8DBF8D2F9C2FDF91C0
:10127000CF911F910F91FF90EF90DF90CF900C9442
:10128000B505AF92BF92CF92DF92EF92FF920F938C
:101290001F93CF93DF93D82FC92F5A016B010E9460
:1012A000EC052FEB3EE04CE95EE31A2D0B2DFC2CF8
:1012B000ED2C6A2D7B2D8C2D9D2D0E94B42AD62ECF
:1012C000C72EB82EA92E2EE136E14AEE5FE3D601F5
:1012D000F5016B2F7A2F8F2F9E2F0E9455299F93F8
:1012E0008F937F936F93AF92BF92CF92DF92EF92E3
:1012F000FF920F931F9386ED93E09F938F93CF936D
:10130000DF930E94FC2C8DB79EB740960FB6F894E1
:101310009EBF0FBE8DBF8D2F9C2FDF91CF911F9150
:101320000F91FF90EF90DF90CF90BF90AF900C9413
:10133000B5052F923F924F925F926F927F928F925C
:101340009F92AF92BF92CF92DF92EF92FF920F9354
:101350001F93CF93DF93D82FC92F742E852E962EEF
:10136000A72EB22E632E0E94EC05A7019601602FD6
:10137000712F8B2D962D0E94E3281B012C01F62E38
:10138000E32CD82EC52C20E030E0A901732D842D4C
:10139000952D0E94AF2A87FF0EC020E030E044EB7D
:1013A00053E4622D732D842D952D0E94E428F62E92
:1013B000E72ED82EC92E26E53EE04DEE5FE3672DE1
:1013C000782D892D9A2D0E94B42A9F938F937F9315
:1013D0006F93AF929F928F927F926F92BF921F9363
:1013E0000F93CF92DF92EF92FF9282EF93E09F9361
:1013F0008F93CF93DF930E94FC2C8DB79EB74496BA
:101400000FB6F8949EBF0FBE8DBF8D2F9C2FDF911E
:10141000CF911F910F91FF90EF90DF90CF90BF90F1
:10142000AF909F908F907F906F905F904F903F9084
:101430002F900C94B505AF92BF92CF92DF92EF92AE
:10144000FF920F931F93CF93DF93D82FC92FF42EC2
:10145000E52ED62EC72EB22EA32E0E94EC05AF92FB
:10146000BF921F930F931F921F921F921F92CF92B2
:10147000DF92EF92FF9285E194E09F938F93CF9359
:10148000DF930E94FC2C8DB79EB740960FB6F89460
:101490009EBF0FBE8DBF8D2F9C2FDF91CF911F91CF
:1014A0000F91FF90EF90DF90CF90BF90AF900C9492
:1014B000B505EF92FF920F931F93CF93DF93D82F31
:1014C000C92F142F052FF62EE72E0E94EC05EF9260
:1014D000FF920F931F938FE294E09F938F93CF938C
:1014E000DF930E94FC2C8DB79EB708960FB6F89438
:1014F0009EBF0FBE8DBF8D2F9C2FDF91CF911F916F
:101500000F91FF90EF900C94B505CF92DF92EF9280
:10151000FF920F931F93CF93DF93D82FC92F6A01A8
:101520007B0189010E94EC05B801110F880B990B12
:101530000E94FF299B01AC01C701B6010E94E3286C
:101540009F938F937F936F938DE394E09F938F93FB
:10155000CF93DF930E94FC2C8DB79EB708960FB6F1
:10156000F8949EBF0FBE8DBF8D2F9C2FDF91CF9122
:101570001F910F91FF90EF90DF90CF900C94B505E5
:101580000F931F93CF93DF93D82FC92F162F072FB9
:101590000E94EC050F931F938BE494E09F938F932D
:1015A000CF93DF930E94FC2C0F900F900F900F9021
:1015B0000F900F908D2F9C2FDF91CF911F910F9146
:1015C0000C94B505EF92FF920F931F93CF93DF9387
:1015D0008C01EB01F42EE52E0E94EC05FE0101903A
:1015E0000020E9F7CF0107978C179D0709F445C044
:1015F0008D81282F082E000C330B3F938F938C8105
:10160000282F082E000C330B3F938F938B81282FAC
:10161000082E000C330B3F938F938A81282F082EBE
:10162000000C330B3F938F938981282F082E000CD9
:10163000330B3F938F938881282F082E000C330B98
:101640003F938F93EF92FF9289E594E09F938F935E
:101650001F930F930E94FC2C8DB79EB742960FB636
:10166000F8949EBF0FBE8DBFC801DF91CF911F912F
:101670000F91FF90EF900C94B505DF91CF911F91E2
:101680000F91FF90EF9008959F92AF92BF92CF92EB
:10169000DF92EF92FF920F931F93CF93DF93CDB71B
:1016A000DEB7E2970FB6F894DEBF0FBECDBF8C0158
:1016B0007B010E94EC051AAA19AAF70101900020EB
:1016C000E9F73197BF016E197F099E012F5C3F4FEB
:1016D000AE014F5F5F4FC7010E94920D29A9FF2401
:1016E000FA94F20E680186E7C80ED11CD601FC926E
:1016F000B2E0BF1508F053C0ED81FE81DF010D900F
:101700000020E9F7CD0103978E179F0709F047C026
:1017100081810E941A0E2F2D30E08F7090E0039689
:1017200028173907E1F5FE0131967F010C591F4F4B
:10173000A12CB12CD6018C9190E0A816B9068CF59D
:10174000BFEFAB1ABB0AD7011296ED91FC9113972C
:10175000DF010D900020E9F7CD0103978E179F0759
:10176000C1F480810E941A0E982ED7011296ED9135
:10177000FC91139781810E941A0EB0E19B9E800D0F
:101780001124F8018083F2E0EF0EF11C0F5F1F4F70
:10179000D1CF80810E941A0ED8018C93F4CFF6012C
:1017A00010828E010F5F1F4FE12CF12C89A99AA99D
:1017B000E816F90664F4D8018D919D918D0100978A
:1017C00011F00E94B92BBFEFEB1AFB0AEFCFE296A4
:1017D0000FB6F894DEBF0FBECDBFDF91CF911F9142
:1017E0000F91FF90EF90DF90CF90BF90AF909F90C0
:1017F00008958F929F92AF92BF92CF92DF92EF9215
:10180000FF920F931F93CF93DF93EC017B01142F73
:101810000E94EC05A12EB12CA501B701CE018C5977
:101820009F4F0E94EC2CFE01EA58FF4F108367E7A0
:1018300074E0CE010E94F52C8E010A5F1F4F470114
:101840008EE7C82E84E0D82EC4018E199F098A1510
:101850009B05A4F4F40181914F011F928F93DF92B5
:10186000CF921F930F930E94FC2C0D5F1F4F0F9080
:101870000F900F900F900F900F90E6CFCE01DF9159
:10188000CF911F910F91FF90EF90DF90CF90BF907D
:10189000AF909F908F900C94B505082E000C990B7B
:1018A0000E94E42C282F082E000C990B213414F0F0
:1018B000C7970895C0970895FC01EA57FF4F11821A
:1018C00010823297118210823496118210823296E1
:1018D0001182108208954F925F926F927F928F9241
:1018E0009F92AF92BF92CF92DF92EF92FF920F93AF
:1018F0001F93CF93DF93CDB7DEB7DA950FB6F89489
:10190000DEBF0FBECDBF3C0126E8620E711CF301A5
:1019100020813181AC014C575F4F7A01243631056B
:101920001CF0FA01118210826A3011F06D3019F446
:10193000F70111821082643211F0613281F420E8E3
:10194000FC0111922A95E9F7FC01608381E090E0A7
:10195000F30191838083F70191838083B0C0F70105
:10196000408151814130510521F042305105D9F07B
:10197000A3C0FC01E20FF31F6083A9014F5F5F4F1B
:10198000F301518340836A3209F099C042E050E08C
:10199000F70151834083FC01EE57FF4F215031097D
:1019A000318320838CC0FC01E20FF31F60832F5F23
:1019B0003F4FF30131832083FC01EE57FF4F6081DD
:1019C0007181261B370B243031050CF478C08C0153
:1019D00001960E94820D2C01F301C080D180580134
:1019E000AC0CBD1CF501329780810E944D0C4C015E
:1019F00084E0880C991C8A95E1F7F5013197808184
:101A00000E944D0C880E991E8DE0F5018083C60161
:101A100002962AE02183F801E058FF4F91838083EA
:101A2000F3E0CF0ED11CF301D182C082F801E80FA0
:101A3000F91F10824814590481F184E894E00E944F
:101A400003119F928F925F924F9282EA94E09F934C
:101A50008F93AE014F5F5F4F6A015F934F930E9478
:101A6000FC2CC6010E94031182EC94E00E94031139
:101A7000C8010E940411F70111821082F801E85791
:101A8000FF4F208131812F5F3F4F318320830FB67D
:101A9000F894DEBF0FBECDBF12C0F801E657FF4F6E
:101AA0008081918101969183808383E090E0F701AA
:101AB0009183808381E004C0F7011182108280E06D
:101AC000D3950FB6F894DEBF0FBECDBFDF91CF9197
:101AD0001F910F91FF90EF90DF90CF90BF90AF904C
:101AE0009F908F907F906F905F904F900895FC0132
:101AF000EC57FF4F208131812330310511F080E018
:101B000090E00895FC01680F791F80E090E0E617EF
:101B1000F70739F02191022E000C330B822793270F
:101B2000F6CF08952F923F924F925F926F927F92DD
:101B30008F929F92AF92BF92CF92DF92EF92FF92DD
:101B40000F931F93CF93DF9300D01F92CDB7DEB7D3
:101B50004C011B012A015901F901118210826C010B
:101B600000E010E0612C712C1C830B83021513051F
:101B70000CF049C0DA82C982F60180810F5F1F4FE5
:101B80008C3211F08A32B1F58B819C8186199709CC
:101B90009C838B83181619068CF401960E94212BC6
:101BA0007C01B401660D771D4B815C810E94EC2C99
:101BB000EB81FC81EE0DFF1D108209C082E090E0F8
:101BC0000E94212B7C016FE072E00E94F52CF50150
:101BD000808191819C012F5F3F4F31832083880F4B
:101BE000991FF201E80FF91FF182E08238012831D4
:101BF00031054CF4FFEFCF1ADF0AE981FA818081C9
:101C00008A3209F0B1CF0F900F900F900F90DF91B3
:101C1000CF911F910F91FF90EF90DF90CF90BF90E9
:101C2000AF909F908F907F906F905F904F903F907C
:101C30002F90089590ED980F9A3060F09FEB980FD9
:101C4000963010F4875308959FE9980F963020F44A
:101C500087550895892F089580E00895FC014193E8
:101C60005193CF010C94EC2C02960895FC018281D3
:101C700090E00895EF92FF920F931F93CF93DF931D
:101C80008C017B01FC018081823509F44DC0A8F4F0
:101C9000803209F449C048F4803109F445C08131EB
:101CA00009F442C081114EC02DC0863211F1873235
:101CB000D9F1833209F046C037C0873561F130F47D
:101CC000843591F140F1863579F13CC08938D1F005
:101CD00058F48835B9F584E190E00E948526D82F24
:101CE000C92F48E050E028C08939A9F08C39E1F0CB
:101CF00029C084E190E00E948526D82FC92F47E0B3
:101D000050E01AC084E190E00E948526D82FC92FA8
:101D100045E050E011C084E190E00E948526D82F74
:101D2000C92F43E050E008C084E190E00E9485267E
:101D3000D82FC92F44E050E0B8018D2F9C2F0E946E
:101D40002E0E0AC084E190E00E948526D82FC92F6C
:101D5000A701B8010E942E0E8D2F9C2FDF91CF91ED
:101D60001F910F91FF90EF900895FC01108E178A3C
:101D7000168A158A128E118E148E138E0895FC0108
:101D80008789908D8331910514F0168A158A70FF2A
:101D90000DC083E1DF011D928A95E9F76083148A03
:101DA000138A81E090E0908F878B27C02589368940
:101DB0002230310529F123303105C1F121303105BF
:101DC00099F58130910539F49B012F7033272D5FF0
:101DD0003F4F348B238B9C012F5F3F4F308F278BDE
:101DE000DF01A80FB91F6C9323303105FCF0838904
:101DF000948904979CF082E090E0968B858B16C0C6
:101E00009C012F5F3F4F308F278BDF01A80FB91F39
:101E10006C93838994892817390744F083E090E014
:101E2000968B858B81E00895168A158A80E0089547
:101E3000FC0185899689039711F4CF01089580E00C
:101E400090E00895FC01258936892330310519F485
:101E500083899489089580E090E0089580E090E07F
:101E600008952F923F924F925F926F927F928F923E
:101E70009F92AF92BF92CF92DF92EF92FF920F9319
:101E80001F93CF93DF93CDB7DEB72C970FB6F8949F
:101E9000DEBF0FBECDBF98878F83FC018481282FC2
:101EA00030E03C832B83A580B12CBA2CAA248681F8
:101EB000A82AB50180E090E00E94FD2920E030E0F2
:101EC0004AE754E40E9455290E94C7296B017C010E
:101ED000C50168EE73E00E9458281C01EF81F88567
:101EE000F381F983F4FD03C02EE42A8302C033E5B5
:101EF0003A83B101032C000C880B990B0E94FF2937
:101F000020E030E04AE754E40E9455292B013C01CF
:101F1000B6010D2C000C880B990B0E94FF299B0128
:101F2000AC01C301B2010E94E42820E030E040E7A8
:101F300052E40E9455292B013C01EB81FC81BF0139
:101F4000FF0F880B990B0E94FF299B01AC01C30175
:101F5000B2010E94E4282B013C019F772FE632E179
:101F600043E85AE30E94502987FD34C12091280696
:101F7000309129063E832D83232B09F44AC06091BA
:101F8000E2057091E305072E000C880B990B0E9467
:101F9000FF2920E030E04AE754E40E9455294B0134
:101FA0005C016091E0057091E105072E000C880B43
:101FB000990B0E94FF299B01AC01C501B4010E944D
:101FC000E42820E030E040E752E40E9455294B012C
:101FD0005C016091DE057091DF05072E000C880B17
:101FE000990B0E94FF299B01AC01C501B4010E941D
:101FF000E4289B01AC01C301B2010E94E3289F7752
:1020000020E030E040E05FE30E94AF2A18160CF4B5
:10201000E1C0EF81F8858781082F10E0A084B12C02
:10202000BA2CAA248185A82AB50180E090E00E94FC
:10203000FD2920E030E04AE754E40E9455290E943F
:10204000C7296F83788789879A87C50168EE73E00F
:102050000E9458289C878B87F981F5FD03C027E5EE
:10206000298302C035E43983EB85FC85BF01FF0F6E
:10207000880B990B0E94FF2920E030E04AE754E4E6
:102080000E9455294B015C012F813885B901330F1E
:10209000880B990B0E94FF299B01AC01C501B4017B
:1020A0000E94E42820E030E040E752E40E945529F5
:1020B0004B015C01B801012E000C880B990B0E94AA
:1020C000FF299B01AC01C501B4010E94E4284B012A
:1020D0005C019F772FE632E143E85AE30E945029E2
:1020E00087FD78C08D819E81892B09F449C060915C
:1020F000E9057091EA05072E000C880B990B0E94E8
:10210000FF2920E030E04AE754E40E9455292B01E2
:102110003C016091E7057091E805072E000C880BE3
:10212000990B0E94FF299B01AC01C301B2010E94DF
:10213000E42820E030E040E752E40E9455292B01DA
:102140003C016091E5057091E605072E000C880BB7
:10215000990B0E94FF299B01AC01C301B2010E94AF
:10216000E4289B01AC01C501B4010E94E3289F77DC
:1021700020E030E040E05FE30E94AF2A181654F1FF
:10218000EB81FC81F093DF05E093DE05D092E10561
:10219000C092E0053092E3052092E205FA81F093C7
:1021A000E4051093E6050093E5052F81388530930B
:1021B000E8052093E7058B859C859093EA0580933D
:1021C000E90599819093EB0586E090E090932906CC
:1021D000809328062C960FB6F894DEBF0FBECDBFB5
:1021E000DF91CF911F910F91FF90EF90DF90CF90F3
:1021F000BF90AF909F908F907F906F905F904F9027
:102200003F902F90089508950895FC01DB0180818F
:10221000843211F0813279F493818C9198130BC040
:10222000948111968C911197981305C081E02581B6
:1022300012969C91291380E008950F931F93CF93DA
:10224000DF93EC01FC0101900020E9F731978F0149
:10225000081B190B8881843211F0813239F567ED42
:1022600074E0CE010E940511882319F00331110595
:10227000ECF06BED74E0CE010E940511882319F09B
:102280000D3111059CF06FED74E0CE010E94051137
:10229000882319F0063211054CF0BE0186E09CE05F
:1022A000DF91CF911F910F910C946A25DF91CF910F
:1022B0001F910F910895CF93DF93EC0163EE74E0CB
:1022C00089E69BE00E946A254AE050E060E070E009
:1022D00089E69BE00E941A2662E075E089E69BE0B1
:1022E0000E946A254AE050E06CE070E089E69BE0DD
:1022F0000E941A266EEE74E089E69BE00E946A2531
:102300004AE050E0BE0189E69BE00E941A266DEF8C
:1023100074E089E69BE0DF91CF910C94772564E02F
:1023200075E089E69BE00E946A254AE050E060E0A3
:1023300070E089E69BE00E941A2662E075E089E67B
:102340009BE00E946A254AE050E06CE070E089E67C
:102350009BE00C942126E0E3F8E01382128288EEE1
:1023600093E0A0E0B0E084839583A683B78321E95E
:1023700035E031832083ECE1F8E01382128284831C
:102380009583A683B7838DE695E09183808384E36C
:10239000848785E38587138A128A8FEF97E00E94EE
:1023A000B50E82EE97E00E94B50E86E597E00E949A
:1023B0005C0C8AEC96E00E945C0C8EE396E00E9436
:1023C0005C0CE4ECF5E010921F0610921E061092D1
:1023D00021061092200610922306109222061092D7
:1023E00025061092240610922706109226061092B7
:1023F00029061092280610922B0610922A06109297
:102400002D0610922C0610922F0610922E06109276
:102410003106109230061092330610923206109256
:102420003506109234061092370610923606109236
:1024300039061092380610923B0610923A06109216
:102440003D0610923C061082118212821382158280
:1024500014821782168211861086128613861486BD
:10246000158616861786108A118A128A138A148A8C
:10247000158A168A178A108E118E138E128E158E5B
:10248000148E178E168E80E480A312A211A214A2BD
:1024900013A216A215A287A310A611A612A613A610
:1024A00014A615A616A617A610AA11AA12AA13AA50
:1024B00015AA14AA6FE072E08AEF95E00E94F52C4D
:1024C0006FE072E086E096E00E94F52C1092120612
:1024D000109213061092140610921506109216060A
:1024E00010921706109218061092190610921B06E9
:1024F00010921A0610921D0610921C06089581E98A
:1025000095E090933108809330080C9480228F924C
:102510009F92AF92BF92CF92DF92EF92FF920F9372
:102520001F93CF93DF934C01FC01C181CF70D0E0AA
:10253000239685E0C82ED12C8BE898E00E94942247
:10254000892B59F08BE898E00E94621F63E070E0ED
:1025500080E090E00E94F826EFCF540121E0E12CCA
:10256000F12C11E0EC16FD060CF010E0122331F115
:10257000F50101915F0110E0E114F10409F411602B
:10258000B8018BE898E00E94871F63E070E080E06C
:1025900090E00E94F8268BE898E00E949422892B14
:1025A00041F08BE898E00E94621F21E080179107BC
:1025B00009F020E0FFEFEF1AFF0AD3CF211112C07C
:1025C00022E330E040E050E062E070E080E090E044
:1025D0000E9453260E94F82681E0C81AD10809F00B
:1025E000ABCF01C011E0812FDF91CF911F910F91EF
:1025F000FF90EF90DF90CF90BF90AF909F908F9023
:102600000895CF93DF9384B790E09093BF058093B4
:10261000BE0514BE61E08DE00E94EC2761E087E01A
:102620000E94EC2761E08DE00E94282861E088E2AA
:102630000E94EC2761E089E20E94EC2761E08BE2D6
:102640000E94EC2761E08AE20E94EC2726E040E04D
:1026500052EC61E070E089E69BE00E94892340EC47
:1026600052E160E070E08BE898E00E94541F45E082
:1026700050E060E070E08BE898E00E94332640EC88
:1026800052E160E070E088EA99E00E94541F45E062
:1026900050E060E070E088EA99E00E94332660E054
:1026A00076E98CE198E00E945F1C26E040E056E964
:1026B00060E070E086E09CE00E94892365E07DE0B8
:1026C00080E090E00E9437208AE092E00E9487122A
:1026D00064E175E089E69BE00E946A256091BE0591
:1026E0007091BF054AE050E089E69BE00E942126F8
:1026F000C6E0D0E00E948F1164E670E080E090E0D8
:102700000E94F8262197B1F7DF91CF9108958F921B
:102710009F92AF92BF92CF92DF92EF92FF920F9370
:102720001F93CF93DF93CDB7DEB7C757D1400FB616
:10273000F894DEBF0FBECDBF14BE88EA99E00E94B8
:102740009422892B29F188EA99E00E94621FBC013A
:1027500082EE97E00E94BF0E8823D1F061E089E20B
:102760000E94282882EE97E00E94220F8C0182EEC0
:1027700097E00E94180FB8010E943A0EFC011081E8
:102780000E94340E412FBC01CE0101960E94F90B2C
:102790008BE898E00E949422892B09F4B0C38BE85F
:1027A00098E00E94621FBC018FEF97E00E94BF0E6D
:1027B000882309F4A4C361E088E20E9428288FEFEF
:1027C00097E00E94220F8C018FEF97E00E94180F74
:1027D000B8010E943A0E8C010E94360E7C018FEFE8
:1027E00097E00E94220F6C01F801B080C8010E949E
:1027F000340E4B2DBC01CE018F5F9E4F0E94F90B12
:10280000CE018F5F9E4F0E94F2050E941D11CE01E6
:102810008F5F9E4F0E94F20566E275E089E69BE0BD
:102820000E946A25CE018F5F9E4F0E94F205BC0177
:1028300089E69BE00E946A25E114F10471F5F5E058
:10284000CF16D10409F055C3F801668170E0762FE8
:1028500066278581680F711D072E000C880B990B68
:102860000E94FF2920E030E040E251E40E94552917
:102870006B017C0120E030E0A9010E94AF2A18160C
:102880000CF037C320E030E84BE355E4C701B60154
:102890000E94502987FDB3C42CC3F5E0EF16F10464
:1028A00089F526E0C216D10409F078C2F8018481C6
:1028B0008F7090E09093C9058093C805858190E062
:1028C000982F88272681820F911D9093CB058093A6
:1028D000CA05878190E0803891050CF09A95909315
:1028E000CD058093CC058091200690912106049619
:1028F0008530910514F084E090E090932106809358
:1029000020064CC2F0E1EF16F10471F524E0C21686
:10291000D10409F0EEC2F801648170E0762F6627D9
:10292000CB01770FAA0BBB0B2581BC01CD01622B1C
:102930000E94FD2920E030E040E05FE30E94B42ADD
:102940004B015C0120E030E0A9010E94AF2A87FD25
:10295000D0C22DEC3CE044EB53E4C501B4010E942D
:10296000502987FDB1C2C5C2F1E1EF16F10409F0AB
:1029700043C024E0C216D10409F0BBC2F801B48000
:1029800065816F7070E080E090E00E94FF2920E098
:1029900030E040E251E40E9455296B017C016B2D2F
:1029A0006F7770E080E090E00E94FF299B01AC010E
:1029B000C701B6010E94E4286B017C01B7FE08C084
:1029C00022EA32EB43E05FE30E9455296B017C0170
:1029D00020E030E0A901B601C7010E94AF2A87FDBF
:1029E00088C220E030E040EA52E4B601C7010E940C
:1029F000502987FD20C47DC2F0E2EF16F104D1F426
:102A000024E0C216D10409F074C2F801648170E0B8
:102A1000762F66278581680F711D072E000C880BA5
:102A2000990B0E94FF2920E030E040E251E40E942F
:102A3000552930C0F3E2EF16F10481F424E0C21608
:102A4000D10409F056C2F801838186FD52C2648127
:102A50008FEF860F833608F407C44BC2F4E2EF16FB
:102A6000F10409F446C226E2E216F10439F537E032
:102A7000C316D10409F03DC2F801648170E0762FDD
:102A800066278581680F711D072E000C880B990B36
:102A90000E94FF296B017C0120E030E0A9010E9427
:102AA000AF2A87FD26C220E030E048EC52E4C7019F
:102AB000B6010E94502987FDF3C31BC2F7E2EF164F
:102AC000F10481F524E0C216D10409F012C2F80124
:102AD000658170E0762F66278481680F711D6456CA
:102AE0007109072E000C880B990B0E94FF2920E02A
:102AF00030E040E251E40E9455296B017C0120E066
:102B000030E0A9010E94AF2A18160CF0F2C120E0B3
:102B100030E048EC52E4C701B6010E94502987FD1D
:102B2000DAC3E7C1C70180559109029708F4E1C1F2
:102B3000F2E5EF16F10479F524E0C216D10409F0AC
:102B4000D8C1F801658170E0762F66278481680F0F
:102B5000711D072E000C880B990B0E94FF2920E0A5
:102B600030E040E251E40E9455296B017C012CEADF
:102B700035EC47E257EB0E94AF2A18160CF0B9C1AA
:102B800020E030E048EC52E4C701B6010E94502931
:102B900087FDB8C3AEC1F3E5EF16F10409F06FC0CD
:102BA00023E0C216D10409F0A4C1F801B3806B2D53
:102BB000607370E084E0759567958A95E1F7072E5C
:102BC000000C880B990B0E94FF2920E030E044EBB9
:102BD00052E40E94B42A6B017C01F80164816F7396
:102BE00070E080E090E00E94FF299B01AC010E9410
:102BF000E4289B01AC01C701B6010E94E4286B01E7
:102C00007C016B2D70E094E0759567959A95E1F7DE
:102C10006C707727072E000C880B990B0E94FF29F8
:102C200020E030E040E05EE30E94B42A9B01AC016A
:102C3000C701B6010E94E4286B017C019B01AC0135
:102C40006091F0057091F1058091F2059091F30586
:102C50000E94E3289F7720E030E044E354E40E94A0
:102C6000502987FF46C120E030E044EB53E4C70120
:102C7000B6019F770E94502987FD5FC33AC1F4E5F2
:102C8000EF16F10449F524E0C216D10409F031C170
:102C9000F8015581852F90E048970CF02AC1848176
:102CA000282F2C7F30E035952795359527952C33A7
:102CB00031050CF01EC1F0E18F9FC001112499274E
:102CC000F801438142954F70842B8F7399278C3381
:102CD00091050CF44DC30DC1F6E5EF16F104E1F4D6
:102CE00024E0C216D10409F004C1F80194818FEFE9
:102CF000890F8F3108F0FDC0838182958F702FEF8F
:102D0000280F2C3008F0F5C02581422F50E04331C8
:102D100051050CF055C3EDC0F7E5EF16F10469F568
:102D200023E0C216D10409F0E4C0F801838190E0E9
:102D3000A4E095958795AA95E1F7009709F4D9C085
:102D400090931B0680931A06848190E090931D0651
:102D500080931C0680913C0690913D0602969093CC
:102D60003D0680933C0603970CF4C3C082E090E0DC
:102D700090933D0680933C06BCC0F8E5EF16F10445
:102D800049F428E0C216D10409F0B3C0C8010E947A
:102D9000310FAFC039E5E316F10441F4CE018F5F86
:102DA0009E4F0E94F2050E941D11A3C042E8E41646
:102DB000F10409F49EC0C70184589109029770F389
:102DC00086E8E816F104B1F4F801F080C8010E9429
:102DD000340E4F2DBC01CE0101960E94F90BCE019D
:102DE00001960E94F2050E941D11CE0101960E94DB
:102DF000F2057FC0F9E8EF16F10449F525E0C216A7
:102E0000D10409F076C0F801838190E044E0959503
:102E100087954A95E1F79C01237033274DE2429F45
:102E2000B001439F700D112424812F73620F711D17
:102E3000660F771FE3E096958795EA95E1F7680FAF
:102E4000791F6836F1E07F070CF4E2C252C020E936
:102E5000E216F10409F44DC039E9E316F10469F40E
:102E600043E0C416D10409F044C0F801648170E065
:102E70006A3571050CF4EDC23CC0FCE9EF16F104B3
:102E8000C1F524E0C216D104A1F5F8012381822FF7
:102E9000807390E034E0959587953A95E1F73AE5AF
:102EA000389FB001399F700D112484818F73680F92
:102EB000711D680F711D220F611D711D6836F1E0D3
:102EC0007F070CF4E9C215C08092DA059092DB0509
:102ED000A092DC05B092DD05809126069091270630
:102EE0000496853091050CF4A1C1D0922706C092BA
:102EF00026060115110519F0C8010E94872686E0F3
:102F00009CE00E949422892BA9F186E09CE00E941B
:102F1000AE22682F86E597E00E946B0C882351F162
:102F200086E597E00E94770D182F092F6AE774E075
:102F30000E9405119E012F5F3F4F882359F0612F9A
:102F4000702FC9010E94440BCE018B599F4F0E94E4
:102F5000871210C00F931F938DE295E09F938F937C
:102F60003F932F930E94FC2C0F900F900F900F9087
:102F70000F900F908CE198E00E94381D892B09F486
:102F800069C08CE198E00E94AA1A682F8AEC96E04A
:102F90000E946B0C882309F45DC061E08AE20E9404
:102FA00028288AEC96E00E94770D8C0167ED74E08A
:102FB0000E940511882331F08EEF9FEF90931F063A
:102FC00080931E066BED74E0C8010E9405118823F2
:102FD00031F08EEF9FEF90933D0680933C0665E4C1
:102FE00075E0C8010E940511882331F08EEF9FEF34
:102FF00090932B0680932A0669E475E0C8010E942D
:103000000511882331F08EEF9FEF90932B0680936C
:103010002A066DE475E0C8010E940511882331F08D
:103020008EEF9FEF90932B0680932A0661E575E063
:10303000C8010E940511882351F08FEF9FEF9093F4
:1030400039068093380690933B0680933A06C80170
:103050000E941D1180E398E00E941920892B09F439
:1030600088C080E398E00E94F01F682F8EE396E00E
:103070000E946B0C882309F47CC061E08BE20E9403
:1030800028288EE396E00E94770D8C0165E575E0B7
:1030900089E69BE00E946A25B80189E69BE00E94D0
:1030A0006A2567ED74E0C8010E940511882331F09C
:1030B0008EEF9FEF90931F0680931E066BED74E0DA
:1030C000C8010E940511882331F08EEF9FEF909385
:1030D0003D0680933C0665E475E0C8010E94051139
:1030E000882331F08EEF9FEF90932B0680932A0672
:1030F00069E475E0C8010E940511882331F08EEF64
:103100009FEF90932B0680932A066DE475E0C8012B
:103110000E940511882331F08EEF9FEF90932B06CC
:1031200080932A0661E575E0C8010E940511882395
:1031300051F08FEF9FEF909339068093380690936C
:103140003B0680933A066AE774E0C8010E940511C5
:10315000882361F0B801CE018F5F9E4F0E94440B1F
:10316000CE018B599E4F0E94871203C0C8010E9456
:103170001D118091BC059091BD058138FEE39F072C
:10318000D4F084EC95E00E94A7011092BD05109246
:10319000BC058091C2059091C30501969093C3052B
:1031A0008093C20580FF02C061E001C060E08DE055
:1031B0000E94282805C001969093BD058093BC0508
:1031C0008091C2059091C305C3970CF4ABC18AE00E
:1031D00092E00E9487128091C0059091C1050E94E3
:1031E0005B118091C0059091C10501969093C10536
:1031F0008093C0051092C3051092C20593C1C0927E
:10320000C405D092C505E092C605F092C70580912D
:103210001E0690911F0602968330910514F082E0FD
:1032200090E090931F0680931E0663CE909327062E
:10323000809326065ECEC601D7018093D605909373
:10324000D705A093D805B093D90580912406909115
:10325000250604968530910514F084E090E0909363
:1032600025068093240645CE70E080E090E00E9421
:10327000FF296093120670931306809314069093AF
:103280001506809138069091390601968230910595
:1032900014F081E090E0909339068093380629CEAF
:1032A000C092CE05D092CF05E092D005F092D10524
:1032B0008091220690912306069690932306809390
:1032C000220607970CF415CE86E090E09093230633
:1032D000809322060ECEC0921606D0921706E09278
:1032E0001806F092190680913A0690913B060196D5
:1032F0008230910514F081E090E090933B0680933A
:103300003A06F7CDC092F405D092F505E092F605A5
:10331000F092F70580912C0690912D0606969093D9
:103320002D0680932C0607970CF4E3CD86E090E001
:1033300090932D0680932C06DCCDC092F005D092A0
:10334000F105E092F205F092F30580912E0690913E
:103350002F06069690932F0680932E0607970CF45F
:10336000C8CD86E090E090932F0680932E06C1CDC5
:103370009F938F933F932F931F925F938CE595E0DC
:103380009F938F9386E096E09F938F930E94FC2CEF
:103390008091360690913706069690933706809373
:1033A00036060FB6F894DEBF0FBECDBF07970CF4FC
:1033B000A0CD86E090E0909337068093360699CDB5
:1033C0001F922F931F928F931F929F938CE595E0EE
:1033D0009F938F938AEF95E09F938F930E94FC2C8D
:1033E00080913406909135064496909335068093EB
:1033F00034060FB6F894DEBF0FBECDBF45970CF470
:1034000078CD84E190E0909335068093340671CDB9
:10341000072E000C880B990B0E94FF296093EC0586
:103420007093ED058093EE059093EF0580912A0649
:1034300090912B06029690932B0680932A06039771
:103440000CF457CD82E090E090932B0680932A06EF
:1034500050CD072E000C880B990B0E94FF2960931A
:10346000D2057093D3058093D4059093D5058091B0
:1034700030069091310688519C4F9093310680938D
:103480003006893E93400CF434CD88EE93E090935F
:103490003106809330062DCD072E000C880B990B3A
:1034A0000E94FF296093EC057093ED058093EE0573
:1034B0009093EF0580912A0690912B0602969093A7
:1034C0002B0680932A06039734F082E090E09093D5
:1034D0002B0680932A06F801858190E080389105BB
:1034E00034F0873A91050CF404CD9A9504C08A35DE
:1034F00091050CF0FECC9093F9058093F80580912E
:1035000032069091330606969093330680933206E6
:1035100007970CF4EECC86E090E09093330680930E
:103520003206E7CCC958DE4F0FB6F894DEBF0FBEA7
:10353000CDBFDF91CF911F910F91FF90EF90DF9062
:10354000CF90BF90AF909F908F90089580E090E0D3
:10355000089508952091400880914108821769F0EC
:1035600030E0F901EE5BF74F80812F5F3F4F2F7303
:1035700033272093400890E008958FEF9FEF089540
:10358000CF93DF939C018091890890918A08892BC1
:1035900009F475C0D9011C969C9186EF890F84307F
:1035A00050F08EEC890F843030F09E53983030F01C
:1035B000E0E0F0E005C0EBE6F0E002C0EDE6F0E0B0
:1035C0005FB7F89410928A0810928908309709F42E
:1035D0004DC0D9011C969C9146EF490F443060F0D4
:1035E0008EEC890F843040F082EC890F883008F02F
:1035F0003FC0C8E6D0E03EC0C8E6D0E0A8E6B0E0F4
:103600008C91443048F04EEC490F443028F09E53E2
:10361000983010F49BEF01C09EEF9823988340816F
:10362000D9011C969C9186EF890F843018F42AEFFB
:10363000290F0BC0923389F0933389F0943389F0CA
:1036400082EC890F883078F4282F81E090E001C067
:10365000880F2A95EAF7809507C087EF05C08BEFA2
:1036600003C08DEF01C08EEF842380835FBF07C04E
:10367000C0E0D0E0883010F2A0E0B0E0C1CFDF9130
:10368000CF9108950F931F93CF93DF93EC01809117
:10369000890890918A08009711F00E94C01A60E092
:1036A0008C850E94EC278C8590E0FC01EE5FFD4F3D
:1036B000E491E0933F08FC01E85BFD4FE491F0E00A
:1036C000EE0FFF1FE257FD4F859194919F878E87E4
:1036D0008D8590E0FC01EE5FFD4F249120933E0824
:1036E000FC01E85BFD4FE491F0E0EE0FFF1FE855B1
:1036F000FD4FA591B491B0933D08A0933C0810975D
:1037000019F0EC91E22BEC9361E08D850E94EC279F
:103710008C8596EF980F943058F09EEC980F94306B
:1037200038F08E53883008F0A3C00DE610E002C0D8
:103730000BE610E08FEF80938508109240081092FE
:103740004108E881F9810680F781E02DCE011995C5
:10375000888999898115FBE49F0709F059C08DE09C
:10376000809388088EE48093860886E0809387089B
:103770003FB7F894F80120819C8586EF890F84304B
:1037800010F496500BC0923379F0933379F0943360
:1037900079F082EC890F883068F4982F81E001C0BD
:1037A000880F9A95EAF707C088E005C084E003C057
:1037B00082E001C081E0822BF80180838C8526EFB6
:1037C000280F243060F09EEC980F943040F092EC7B
:1037D000980F983008F044C0A8E6B0E043C0A8E6CF
:1037E000B0E0E8E6F0E09081243048F02EEC280FBD
:1037F000243028F08E53883010F484E001C081E03A
:10380000892B8C93D0938A08C09389083FBF30C01E
:1038100081302BE4920760F48038954209F0A8CFFC
:103820008AE18093880887E2809386088AE09ECFA9
:103830008231FAE79F0741F488E08093880880E8A6
:103840008093860885E092CF8115964909F090CF44
:1038500086E0809388088DE98093860884E086CF8F
:10386000A0E0B0E0983008F4BCCFE0E0F0E0BBCFDF
:10387000DF91CF911F910F910895603825E2720773
:1038800061F06115EBE47E0741F06231FAE77F07F2
:1038900021F0611526E9720789F4FC01208931893C
:1038A0006217730759F0718B608B209189083091F2
:1038B0008A088217930711F40C94421B0895CF9342
:1038C000DF93EC010E943D1CCE01DF91CF910C945F
:1038D000421B1092850881E0809383081092820831
:1038E0000895E0918908F0918A083097C1F0028824
:1038F000F389E02D309709F019942091410830E0C8
:10390000A9014F5F5F4F4F7355279091400894175F
:1039100031F0F901EE5BF74F808340934108089541
:10392000EF92FF920F931F93CF93DF93F6B4E09043
:103930003F08E822509185085F3F29F4E11051C00B
:103940000E94691C48C080918608C0918708CF0DED
:1039500090918408C91BC89FE0011124CD2FDD2759
:10396000C695C69549E0451B042F10E00C171D07AE
:1039700008F04C2F540F5093850880918208909145
:103980008308292FE1100FC04150922F990F4F3F0C
:1039900019F0822B292FF8CF809382089093830807
:1039A0005830C8F01BC0415001C0220F4A95EAF7B9
:1039B00020938308822B80938208583060F00E9405
:1039C000711C81E0E81621F00C171D0708F4B8CF30
:1039D0008FEF80938508F092840803C00E94711CC9
:1039E000F3CFDF91CF911F910F91FF90EF9008954A
:1039F000CF93DF93FC01309185083F3FA9F1A68565
:103A0000B7859C9180913F08892371F126B58091FB
:103A1000860890918708290F90918408291B99E0C6
:103A2000931B492F50E0289F90011124232F332707
:103A30002695269542175307B8F480918208209165
:103A40008308915018F0822B220FFBCFEF01809357
:103A5000820820938308909385080E94711C81E05E
:103A60002A893B89232B09F080E0DF91CF910895CB
:103A70009C018091410890E040914008841B91098D
:103A8000805C9F4F60E470E00E946C28811105C04B
:103A9000C901F8940E94F81C789490E00895CF92A0
:103AA000DF92EF92FF920F931F93CF93DF938C01DE
:103AB000D62E80913C0890913D08892B09F457C07F
:103AC000D8011C968C9196EF980F943048F09EEC9C
:103AD000980F943028F08E53883010F4D4E001C051
:103AE000D1E0CFB6F894F6B490E0E12CE394E09105
:103AF0003C08F0913D0880913E08BAE0EB1659F180
:103B0000992319F09081892B03C090818095892396
:103B10008083C0918808C63011F4E0FCC7E086B508
:103B20008F198C1798F48BB38D2361F08BB38D2B89
:103B30008BBBD8011E96ED91FC911F9780810E944E
:103B4000901CEDCFC8010E94F81CE9CFFC0E9D2D02
:103B50009170D694CBCF9081892B8083CFBE86B5D0
:103B60008F198C1738F4C8010E94F81CF8CF80E038
:103B700090E002C081E090E0DF91CF911F910F9122
:103B8000FF90EF90DF90CF9008951F920F920FB6A5
:103B90000F9211240BB60F922F933F934F935F9385
:103BA0006F937F938F939F93AF93BF93EF93FF9305
:103BB00083B10E94901CFF91EF91BF91AF919F91B3
:103BC0008F917F916F915F914F913F912F910F90C6
:103BD0000BBE0F900FBE0F901F9018951F920F9263
:103BE0000FB60F9211240BB60F922F933F934F9362
:103BF0005F936F937F938F939F93AF93BF93EF9355
:103C0000FF93809103010E94901CFF91EF91BF915F
:103C1000AF919F918F917F916F915F914F913F9164
:103C20002F910F900BBE0F900FBE0F901F90189505
:103C30001F920F920FB60F9211240BB60F922F9373
:103C40003F934F935F936F937F938F939F93AF9324
:103C5000BF93EF93FF93809106010E94901CFF9108
:103C6000EF91BF91AF919F918F917F916F915F91F4
:103C70004F913F912F910F900BBE0F900FBE0F9061
:103C80001F9018951F920F920FB60F9211240BB62A
:103C90000F922F933F934F935F936F937F938F93E5
:103CA0009F93AF93BF93EF93FF938BE898E00E94AD
:103CB000C71FFF91EF91BF91AF919F918F917F911E
:103CC0006F915F914F913F912F910F900BBE0F908D
:103CD0000FBE0F901F9018951F920F920FB60F9264
:103CE00011240BB60F922F933F934F935F936F93D3
:103CF0007F938F939F93AF93BF93EF93FF938BE843
:103D000098E00E94AF1FFF91EF91BF91AF919F91FB
:103D10008F917F916F915F914F913F912F910F9074
:103D20000BBE0F900FBE0F901F901895CF92DF9291
:103D3000EF92FF920F931F938EECC82ED12C9AEC2A
:103D4000E92EF12C09EC10E028EC30E04CEC50E0CE
:103D50006DEC70E08BE898E00E94281F1F910F9196
:103D6000FF90EF90DF90CF9008951F920F920FB6C3
:103D70000F9211240BB60F922F933F934F935F93A3
:103D80006F937F938F939F93AF93BF93EF93FF9323
:103D900088EA99E00E94C71FFF91EF91BF91AF9110
:103DA0009F918F917F916F915F914F913F912F9153
:103DB0000F900BBE0F900FBE0F901F9018951F9283
:103DC0000F920FB60F9211240BB60F922F933F93C1
:103DD0004F935F936F937F938F939F93AF93BF9313
:103DE000EF93FF9388EA99E00E94AF1FFF91EF9154
:103DF000BF91AF919F918F917F916F915F914F9103
:103E00003F912F910F900BBE0F900FBE0F901F9000
:103E10001895CF92DF92EF92FF920F931F9386ED4A
:103E2000C82ED12C92EDE92EF12C01ED10E020ED01
:103E300030E044ED50E065ED70E088EA99E00E94E2
:103E4000281F1F910F91FF90EF90DF90CF90089562
:103E5000CF92DF92EF92FF920F931F93FC01138298
:103E6000128288EE93E0A0E0B0E084839583A6837D
:103E7000B7837587648757874687318B208B138B71
:103E8000028BF58AE48AD78AC68A118E128E138E27
:103E9000148E8FE795E0918380831F910F91FF909F
:103EA000EF90DF90CF900895CF93DF93EC0126E061
:103EB0000E948923EA89FB89808184608083DF9165
:103EC000CF910895FC01918D828D9817E9F0828D34
:103ED000DF01A80FB11D5D968C91282F30E0828DF7
:103EE000DF01A80FB11DA356BF4F81E09C91911136
:103EF00001C080E0928D9F5F9F73928F90E0982F1A
:103F00008827822B932B08958FEF9FEF0895DC0174
:103F10005B969C915B975C968C915C97981310C014
:103F20005096ED91FC915197808185FF09C070FFFB
:103F30000FC05296ED91FC915397808181608083F0
:103F4000ED91FC9111970190F081E02DCD01199434
:103F50005296ED91FC91539780818E7FF0CFDC01DA
:103F60005C962C915C97FC01E20FF11DE352FF4F30
:103F700020815296ED91FC915397222319F02081D4
:103F8000216002C020812E7F20830C94FF22CF93DA
:103F9000DF93FC01A089B1898C91A689B78982FD44
:103FA0001BC0C289D38998812C91818D8F5F8F73BB
:103FB000328D831791F0318DDF01A30FB11D5D9616
:103FC0002C93218DDF01A20FB11DA356BF4F9695F3
:103FD00091709C93818F01C08C91DF91CF91089556
:103FE00080915F0B90915E0B891769F09F5F903510
:103FF00008F090E0E92FF0E0E25FF44F80819093C9
:104000005E0B90E008958FEF9FEF089580915F0B16
:10401000E0915E0B8E1751F0EF5FE03508F0E0E0C5
:10402000F0E0E25FF44F808190E008958FEF9FEF22
:10403000089550915F0B40915E0B852F90E0242FE7
:1040400030E0541710F4805B9F4F821B930B089550
:1040500050910A0B4091090B842F90E0252F30E0FE
:10406000541710F08C5B9F4F821B930B08959B019C
:10407000AC01213668E136074105510530F4109254
:1040800073001092200181E828C0DA01C90173E0B1
:10409000B695A795979587957A95D1F7813668E17A
:1040A0009607A105B10550F41092730010922001FB
:1040B00022E8209321019C01AD0111C0232F342F50
:1040C000452F5527213688E1380741055105C0F5B0
:1040D000109273001092200184E8809321013093A4
:1040E000680B2093670BA5E2B0E00E94C928DC01B1
:1040F000CB0122E0B695A795979587952A95D1F79C
:104100009093610B8093600B62E080E30E94EC2748
:1041100061E08EE20E94282861E08EE20E94EC2796
:104120001092660B10925F0B10925E0B10920D0BAB
:1041300010920A0B1092090B80E28ABB80937300E5
:10414000089590910A0B9F5F943408F090E02091BD
:10415000090B2917E1F32FB7F89430910D0B332396
:1041600041F0E92FF0E0EB53F54F808390930A0B79
:104170001DC091E090930D0B80930C0B10920B0BD4
:1041800082E08ABB8091730082608093730080918B
:1041900020018F7B80688093200180912401909181
:1041A0002501409690932901809328012FBF0895FF
:1041B000862F0E94A12081E090E008951F920F9227
:1041C0000FB60F9211240BB60F922F933F934F937C
:1041D0005F936F937F938F939F93EF93FF93809160
:1041E0000D0B60910C0B2091280130912901409119
:1041F000670B5091680B90910B0B8A30F8F4240FE9
:10420000351F893019F0762F717001C071E0669505
:104210008F5F791791F390912001772311F0906CC3
:1042200002C09F7B906890932001309329012093D6
:10423000280170930B0B60930C0B4AC090910A0BF2
:10424000E091090B9E1319C08A3051F48BE08093E2
:104250000D0B240F351F30932901209328013AC0FC
:1042600010920D0B809120018F738093200180911B
:1042700073008D7F809373002DC0EF5FE43408F0EE
:10428000E0E0E093090BF0E0EB53F54F9081909361
:104290000C0B10920B0B909120019F7B90689093D8
:1042A00020018A3059F48091670B9091680B280F98
:1042B000391F309329012093280109C080912401DE
:1042C000909125014096909329018093280181E0E7
:1042D00080930D0BFF91EF919F918F917F916F9143
:1042E0005F914F913F912F910F900BBE0F900FBE9A
:1042F0000F901F90189580910D0B8111FCCF0895A0
:104300000C947B211F920F920FB60F9211240BB6C3
:104310000F922F933F934F935F936F937F938F935E
:104320009F93AF93BF93EF93FF938091260190915A
:1043300027014091640B20912101442331F02F7B10
:10434000209321011092640B06C020642093210168
:1043500020E82093640B3091660B311125C0411188
:104360006CC02091600B3091610B280F391F309386
:104370002B0120932A0124E02ABB209173002460A2
:10438000209373002091670B3091680B820F931F6D
:1043900036952795820F931F9093630B8093620B42
:1043A00081E08093660B49C04091620B5091630B92
:1043B0006091670B7091680BDB01A095B09520911F
:1043C000650BE091640B841B950BA817B90768F186
:1043D00026952E2B460F571F3F5F861B970B3930B4
:1043E000A0F32093650B809173008B7F8093730003
:1043F00080915F0B8F5F803508F080E090915E0BBD
:10440000891749F0E82FF0E09091650BE25FF44FD7
:10441000908380935F0B809121018F7B809321019A
:104420001092640B1092660B08C02093650B50939A
:10443000630B4093620B3093660BFF91EF91BF913A
:10444000AF919F918F917F916F915F914F913F912C
:104450002F910F900BBE0F900FBE0F901F901895CD
:104460001F920F920FB60F9211240BB60F922F933B
:104470008F939F93EF93FF93809173008B7F809333
:104480007300809121018F7B809321018091660BC5
:104490002091640B20589091650B893020F49695FB
:1044A000922B8F5FFACF9093650B80915F0B8F5F9C
:1044B000803508F080E020915E0B821739F0E82FFC
:1044C000F0E0E25FF44F908380935F0B1092660BF5
:1044D000809121018F7B809321011092640BFF91C9
:1044E000EF919F918F912F910F900BBE0F900FBE68
:1044F0000F901F90189580915E0B80935F0B08952D
:10450000CF93DF93C3E7D0E088818B7F8883888156
:104510008F7D88830E947B220E947B2188818D7FF2
:104520008883DF91CF910895FC01918D228D892F91
:1045300090E0805C9F4F821B91098F7399270895AB
:10454000FC01918D828D981731F0828DE80FF11D5D
:10455000858D90E008958FEF9FEF0895FC01918D78
:10456000828D981761F0828DDF01A80FB11D5D96D5
:104570008C91928D9F5F9F73928F90E008958FEF43
:104580009FEF08958DE594E2892B41F080E090E063
:10459000892B21F00E945D24811125C080E090E0EC
:1045A000892B41F080E090E0892B21F00E940000EF
:1045B00081111CC080E090E0892B41F080E090E008
:1045C000892B21F00E940000811113C084EF94E236
:1045D000892BA1F080E090E0892B81F00E94F424E7
:1045E00081110AC008950E940000D8CF0E940000E7
:1045F000E1CF0E940000EACF0C9400000895FC0176
:10460000848DDF01A80FB11DA35ABF4F2C91848D5B
:1046100090E001968F739927848FA689B7892C9390
:10462000A089B1898C9180648C93938D848D98132B
:1046300006C00288F389E02D80818F7D80830895F4
:10464000EF92FF920F931F93CF93DF93EC0181E0E2
:10465000888F9B8D8C8D981305C0E889F98980819E
:1046600085FD24C0F62E0B8D10E00F5F1F4F0F73DA
:104670001127E02E8C8DE8120CC00FB607FCFACF84
:10468000E889F989808185FFF5CFCE010E94FF225C
:10469000F1CF8B8DFE01E80FF11DE35AFF4FF08241
:1046A0000B8FEA89FB898081806207C0EE89FF89D0
:1046B0006083E889F98980818064808381E090E06B
:1046C000DF91CF911F910F91FF90EF900895CF93BD
:1046D000DF93EC01888D8823C9F0EA89FB8980810A
:1046E00085FD05C0A889B9898C9186FD0FC00FB6DC
:1046F00007FCF5CF808185FFF2CFA889B9898C911D
:1047000085FFEDCFCE010E94FF22E7CFDF91CF9151
:104710000895CF92DF92EF92FF921F93CF93DF9392
:10472000EC016A017B01122FE889F98982E080831C
:104730004115514E61057105B1F060E079E08DE3FE
:1047400090E0A70196010E948028DA01C901019733
:10475000A109B109B695A795979587959C01211553
:1047600080E13807A8F0E889F989108260E874E8E8
:104770008EE190E0A70196010E948028DA01C9012C
:104780000197A109B109B695A795979587959C01C1
:10479000EC85FD853083EE85FF852083188EEC89BE
:1047A000FD891083EA89FB89808180618083EA89A1
:1047B000FB89808188608083EA89FB8980818068A9
:1047C0008083EA89FB8980818F7D8083DF91CF910F
:1047D0001F91FF90EF90DF90CF900895FC01538DD3
:1047E000448D252F30E0842F90E0821B930B5417CB
:1047F00010F0CF960895019708951F920F920FB66B
:104800000F9211240BB60F922F938F939F93EF93D8
:10481000FF93E091790BF0917A0B8081E0917F0B0F
:10482000F091800B82FD12C090818091820B8F5F8E
:104830008F732091830B821751F0E091820BF0E08F
:10484000E759F44F958F8093820B01C08081FF91CF
:10485000EF919F918F912F910F900BBE0F900FBEF4
:104860000F901F9018951F920F920FB60F92112460
:104870000BB60F922F933F934F935F936F937F935A
:104880008F939F93AF93BF93EF93FF9389E69BE042
:104890000E94FF22FF91EF91BF91AF919F918F9165
:1048A0007F916F915F914F913F912F910F900BBE30
:1048B0000F900FBE0F901F90189589E69BE00E9405
:1048C000942221E0892B09F420E0822F0895E9E663
:1048D000FBE01382128288EE93E0A0E0B0E08483D4
:1048E0009583A683B78383EA95E09183808385ECE3
:1048F00090E09587848784EC90E09787868780ECAA
:1049000090E0918B808B81EC90E0938B828B82EC9A
:1049100090E0958B848B86EC90E0978B868B118E44
:10492000128E138E148E08951F920F920FB60F924F
:1049300011240BB60F922F938F939F93EF93FF93B6
:10494000E091160CF091170C8081E0911C0CF09115
:104950001D0C82FD12C0908180911F0C8F5F8F73A0
:104960002091200C821751F0E0911F0CF0E0EA5FDB
:10497000F34F958F80931F0C01C08081FF91EF91C1
:104980009F918F912F910F900BBE0F900FBE0F90A4
:104990001F9018951F920F920FB60F9211240BB60D
:1049A0000F922F933F934F935F936F937F938F93C8
:1049B0009F93AF93BF93EF93FF9386E09CE00E9499
:1049C000FF22FF91EF91BF91AF919F918F917F91C6
:1049D0006F915F914F913F912F910F900BBE0F9070
:1049E0000FBE0F901F90189586E09CE00E949422C5
:1049F00021E0892B09F420E0822F0895E6E0FCE015
:104A00001382128288EE93E0A0E0B0E08483958365
:104A1000A683B78383EA95E09183808385E391E061
:104A20009587848784E391E09787868780E391E088
:104A3000918B808B81E391E0938B828B82E391E079
:104A4000958B848B86E391E0978B868B118E128EEB
:104A5000138E148E0895CF92DF92EF92FF920F93F0
:104A60001F93CF93DF936C017A018B01C0E0D0E0FC
:104A7000CE15DF0581F0D8016D918D01D601ED9144
:104A8000FC910190F081E02DC6011995892B11F060
:104A90002196EECF7E01C701DF91CF911F910F913B
:104AA000FF90EF90DF90CF9008956115710579F038
:104AB000FB0101900020E9F73197AF01461B570B2E
:104AC000DC01ED91FC910280F381E02D199480E0EE
:104AD00090E008950C945525DC01ED91FC91019036
:104AE000F081E02D19946DE072E00C9455250F9340
:104AF0001F93CF93DF93EC010E9455258C01CE01CB
:104B00000E947325800F911FDF91CF911F910F910C
:104B100008958F929F92AF92BF92EF92FF920F9360
:104B20001F93CF93DF93CDB7DEB7A1970FB6F8945D
:104B3000DEBF0FBECDBF7C01FA01CB0119A222302E
:104B400008F42AE08E010F5D1F4F822E912CA12CBC
:104B5000B12CBF01A50194010E948028F901CA016E
:104B6000015011096A3014F4605D01C0695CD8011C
:104B70006C93232B242B252B61F7B801C7010E94CE
:104B80005525A1960FB6F894DEBF0FBECDBFDF91BD
:104B9000CF911F910F91FF90EF90BF90AF909F909A
:104BA0008F900895CF92DF92EF92FF920F931F9311
:104BB000CF93DF932115310581F4DC01ED91FC9158
:104BC0000190F081E02D642FDF91CF911F910F9123
:104BD000FF90EF90DF90CF9019942A30310501F5C6
:104BE00077FF1DC06A017B01EC016DE20E946C251C
:104BF0008C0144275527BA014C195D096E097F09BC
:104C00002AE0CE010E948925800F911FDF91CF916C
:104C10001F910F91FF90EF90DF90CF9008952AE0C1
:104C2000DF91CF911F910F91FF90EF90DF90CF9088
:104C30000C9489259A01AB01770F660B770B0C94C6
:104C4000D2250F931F93CF93DF93EC010E941A2676
:104C50008C01CE010E947325800F911FDF91CF91AF
:104C60001F910F910895FC014483558366837783D8
:104C70000895CF92DF92EF92FF9261157105810541
:104C8000910549F06B017C010E948D2CA7019601D2
:104C90000E94A22803C060E070E0CB01FF90EF907B
:104CA000DF90CF900895CF92DF92EF92FF920F9313
:104CB0001F93621773078407950784F489019A018B
:104CC0006B017C01C901B8016C197D098E099F092E
:104CD0000E9439266C0D7D1D8E1D9F1D1F910F9109
:104CE000FF90EF90DF90CF90089508950E943427B1
:104CF0000E9475260E940113C2ECD2E20E94871323
:104D00002097E1F30E94C222F9CF0C94212B0C943E
:104D1000B92B1F920F920FB60F9211242F933F932E
:104D20008F939F93AF93BF938091A40C9091A50C08
:104D3000A091A60CB091A70C3091A30C23E0230FF7
:104D40002D3720F40196A11DB11D05C026E8230FC3
:104D50000296A11DB11D2093A30C8093A40C9093E7
:104D6000A50CA093A60CB093A70C8091A80C9091D1
:104D7000A90CA091AA0CB091AB0C0196A11DB11D7C
:104D80008093A80C9093A90CA093AA0CB093AB0CA1
:104D9000BF91AF919F918F913F912F910F900FBE37
:104DA0000F901F9018953FB7F8948091A80C9091A0
:104DB000A90CA091AA0CB091AB0C26B5A89B05C07C
:104DC0002F3F19F00196A11DB11D3FBFBA2FA92F8A
:104DD000982F8827820F911DA11DB11DBC01CD0107
:104DE00042E0660F771F881F991F4A95D1F70895F3
:104DF0008F929F92AF92BF92CF92DF92EF92FF92EB
:104E00006B017C010E94D3264B015C01C114D104CB
:104E1000E104F10401F10E9457280E94D326DC012D
:104E2000CB0188199909AA09BB09883E9340A105BD
:104E3000B10560F321E0C21AD108E108F10888EE5B
:104E4000880E83E0981EA11CB11CC114D104E1049A
:104E5000F10419F7DBCFFF90EF90DF90CF90BF9078
:104E6000AF909F908F900895789484B5826084BDB0
:104E700084B5816084BD85B5826085BD85B581605E
:104E800085BDEEE6F0E0808181608083E1E8F0E0BE
:104E90001082808182608083808181608083E0E8ED
:104EA000F0E0808181608083E1EBF0E080818460CC
:104EB0008083E0EBF0E0808181608083E1E9F0E0D5
:104EC000808182608083808181608083E0E9F0E07E
:104ED000808181608083E1EAF0E08081826080836C
:104EE000808181608083E0EAF0E08081816080835E
:104EF000E1E2F1E080818260808380818160808353
:104F0000E0E2F1E0808181608083EAE7F0E0808187
:104F100084608083808182608083808181608083DF
:104F20008081806880831092C100089590E0FC0128
:104F30003297E231F10508F04EC08827EE58FF4F56
:104F40008F4F0C94C128809180008F7703C080918F
:104F500080008F7D80938000089580918000877FFE
:104F6000F9CF84B58F7702C084B58F7D84BD089555
:104F70008091B0008F7703C08091B0008F7D8093C7
:104F8000B0000895809190008F7707C080919000C5
:104F90008F7D03C080919000877F8093900008955B
:104FA0008091A0008F7707C08091A0008F7D03C003
:104FB0008091A000877F8093A000089580912001B8
:104FC0008F7707C0809120018F7D03C080912001E1
:104FD000877F809320010895CF93DF9390E0FC01B9
:104FE000EE5FFD4F2491FC01E85BFD4F8491882327
:104FF00061F190E0880F991FFC01EE53FD4FC591C0
:10500000D491FC01E855FD4FA591B491611109C0FF
:105010009FB7F8948881209582238883EC912E2372
:105020000BC0623061F49FB7F8948881322F3095BD
:1050300083238883EC912E2B2C939FBF06C08FB7C0
:10504000F894E8812E2B28838FBFDF91CF910895AC
:105050001F93CF93DF93282F30E0F901E454FE4FE4
:105060008491F901EE5FFD4FD491F901E85BFD4FAA
:10507000C491CC23C1F0162F81110E949627EC2FEA
:10508000F0E0EE0FFF1FE855FD4FA591B4919FB7DB
:10509000F894111104C08C91D095D82302C0EC91E2
:1050A000DE2BDC939FBFDF91CF911F910895089570
:1050B000AA1BBB1B51E107C0AA1FBB1FA617B7073E
:1050C00010F0A61BB70B881F991F5A95A9F780955A
:1050D0009095BC01CD01089597FB072E16F400941E
:1050E00007D077FD09D00E94582807FC05D03EF470
:1050F000909581959F4F0895709561957F4F089584
:10510000A1E21A2EAA1BBB1BFD010DC0AA1FBB1FCB
:10511000EE1FFF1FA217B307E407F50720F0A21B3D
:10512000B30BE40BF50B661F771F881F991F1A94AA
:1051300069F760957095809590959B01AC01BD01D4
:10514000CF010895052E97FB1EF400940E94B92804
:1051500057FD07D00E94802807FC03D04EF40C9422
:10516000B92850954095309521953F4F4F4F5F4F4F
:10517000089590958095709561957F4F8F4F9F4FC3
:105180000895EE0FFF1F881F8BBF0790F691E02D4B
:1051900019940E94D428A59F900DB49F900DA49FB0
:1051A000800D911D11240895A29FB001B39FC001ED
:1051B000A39F700D811D1124911DB29F700D811D43
:1051C0001124911D08955058BB27AA270E94FB283F
:1051D0000C94752A0E94672A38F00E946E2A20F0EB
:1051E00039F49F3F19F426F40C94642A0EF4E095E8
:1051F000E7FB0C945E2AE92F0E94862A58F3BA171F
:10520000620773078407950720F079F4A6F50C94DC
:10521000A82A0EF4E0950B2EBA2FA02D0B01B90190
:1052200090010C01CA01A0011124FF27591B99F01C
:10523000593F50F4503E68F11A16F040A22F232F28
:10524000342F4427585FF3CF469537952795A79578
:10525000F0405395C9F77EF41F16BA0B620B730B1F
:10526000840BBAF09150A1F0FF0FBB1F661F771F90
:10527000881FC2F70EC0BA0F621F731F841F48F445
:10528000879577956795B795F7959E3F08F0B0CFCE
:105290009395880F08F09927EE0F979587950895B5
:1052A0000E943A2A08F481E008950E9469290C942A
:1052B000752A0E946E2A58F00E94672A40F029F44D
:1052C0005F3F29F00C945E2A51110C94A92A0C948A
:1052D000642A0E94862A68F39923B1F3552391F337
:1052E000951B550BBB27AA2762177307840738F055
:1052F0009F5F5F4F220F331F441FAA1FA9F335D0B2
:105300000E2E3AF0E0E832D091505040E695001C65
:10531000CAF72BD0FE2F29D0660F771F881FBB1F1F
:10532000261737074807AB07B0E809F0BB0B802DFD
:10533000BF01FF2793585F4F3AF09E3F510578F029
:105340000C945E2A0C94A92A5F3FE4F3983ED4F3B0
:10535000869577956795B795F7959F5FC9F7880FFD
:10536000911D9695879597F90895E1E0660F771F4F
:10537000881FBB1F621773078407BA0720F0621BE0
:10538000730B840BBA0BEE1F88F7E09508950E940B
:10539000CE296894B1110C94A92A08950E948E2AEE
:1053A00088F09F5798F0B92F9927B751B0F0E1F0E6
:1053B000660F771F881F991F1AF0BA95C9F714C096
:1053C000B13091F00E94A82AB1E008950C94A82A67
:1053D000672F782F8827B85F39F0B93FCCF38695CF
:1053E00077956795B395D9F73EF49095809570952C
:1053F00061957F4F8F4F9F4F0895E89409C097FBA9
:105400003EF490958095709561957F4F8F4F9F4F9B
:105410009923A9F0F92F96E9BB279395F6958795DF
:1054200077956795B795F111F8CFFAF4BB0F11F4A2
:1054300060FF1BC06F5F7F4F8F4F9F4F16C0882349
:1054400011F096E911C0772321F09EE8872F762F7F
:1054500005C0662371F096E8862F70E060E02AF0C0
:105460009A95660F771F881FDAF7880F96958795AC
:1054700097F90895990F0008550FAA0BE0E8FEEF81
:1054800016161706E807F907C0F012161306E40708
:10549000F50798F0621B730B840B950B39F40A2601
:1054A00061F0232B242B252B21F408950A2609F4DF
:1054B000A140A6958FEF811D811D089597F99F67E3
:1054C00080E870E060E008959FEF80EC089500248C
:1054D0000A941616170618060906089500240A9459
:1054E00012161306140605060895092E0394000CDF
:1054F00011F4882352F0BB0F40F4BF2B11F460FF6E
:1055000004C06F5F7F4F8F4F9F4F089557FD905896
:10551000440F551F59F05F3F71F04795880F97FB77
:10552000991F61F09F3F79F0879508951216130631
:105530001406551FF2CF4695F1DF08C01616170660
:105540001806991FF1CF8695710561050894089595
:10555000E894BB2766277727CB0197F908950E9427
:105560003A2A08F48FEF08950E94C72A0C94752AEE
:105570000E94672A38F00E946E2A20F0952311F0CD
:105580000C945E2A0C94642A11240C94A92A0E947B
:10559000862A70F3959FC1F3950F50E0551F629FC7
:1055A000F001729FBB27F00DB11D639FAA27F00D7C
:1055B000B11DAA1F649F6627B00DA11D661F829FA3
:1055C0002227B00DA11D621F739FB00DA11D621F88
:1055D000839FA00D611D221F749F3327A00D611DA5
:1055E000231F849F600D211D822F762F6A2F112487
:1055F0009F5750409AF0F1F088234AF0EE0FFF1FBA
:10560000BB1F661F771F881F91505040A9F79E3F10
:10561000510580F00C945E2A0C94A92A5F3FE4F3B4
:10562000983ED4F3869577956795B795F795E79566
:105630009F5FC1F7FE2B880F911D9695879597F96F
:1056400008950F931F93CF93DF938230910510F449
:1056500082E090E0E091AE0CF091AF0C20E030E001
:10566000A0E0B0E0309719F14081518102811381AF
:1056700048175907C8F08417950769F4109731F057
:1056800012960C93129713961C9327C00093AE0C9E
:105690001093AF0C22C02115310519F042175307A2
:1056A00018F49A01BD01EF01DF01F801DBCF2115EC
:1056B0003105F9F0281B390B2430310580F48A813B
:1056C0009B816115710521F0FB019383828304C0E6
:1056D0009093AF0C8093AE0CFE01329644C0FE0155
:1056E000E20FF31F8193919322503109398328836C
:1056F0003AC02091AC0C3091AD0C232B41F4209199
:105700000202309103023093AD0C2093AC0C209137
:105710000002309101022115310541F42DB73EB749
:105720004091040250910502241B350BE091AC0C12
:10573000F091AD0CE217F307A0F42E1B3F0B2817D6
:10574000390778F0AC014E5F5F4F2417350748F0FA
:105750004E0F5F1F5093AD0C4093AC0C819391930F
:1057600002C0E0E0F0E0CF01DF91CF911F910F91F7
:105770000895CF93DF93009709F481C0FC0132971D
:1057800013821282A091AE0CB091AF0C109781F4ED
:1057900020813181820F931F2091AC0C3091AD0C90
:1057A0002817390751F5F093AD0CE093AC0C67C0A6
:1057B000ED0120E030E0CE17DF0740F44A815B8145
:1057C0009E0141155105F1F0EA01F5CFD383C28363
:1057D00040815181840F951FC817D90759F48881DA
:1057E0009981840F951F0296918380838A819B8182
:1057F000938382832115310529F4F093AF0CE09354
:10580000AE0C3DC0E901FB83EA8349915991C40F75
:10581000D51FEC17FD0761F480819181840F951FDE
:105820000296E90199838883828193819B838A838D
:10583000E0E0F0E012968D919C911397009719F09B
:10584000FD01DC01F7CF8D919C9111979D012E5F99
:105850003F4F820F931F2091AC0C3091AD0C281755
:10586000390769F4309729F41092AF0C1092AE0CFE
:1058700002C013821282B093AD0CA093AC0CDF91E6
:10588000CF9108958F929F92AF92BF92CF92DF9265
:10589000EF92FF92CF93DF93EC01688179818A8147
:1058A0009B81611571058105910521F464E279ED13
:1058B0008BE597E02DE133EF41E050E00E94A22814
:1058C00049015A019B01AC01A7EAB1E40E94C92831
:1058D0006B017C01ACEEB4EFA50194010E94E82FAE
:1058E000DC01CB018C0D9D1DAE1DBF1DB7FF03C09C
:1058F0000197A109B04888839983AA83BB83BC011F
:10590000CD019F77DF91CF91FF90EF90DF90CF9007
:10591000BF90AF909F908F9008958F929F92AF927B
:10592000BF92CF92DF92EF92FF9260910602709148
:1059300007028091080290910902611571058105A5
:10594000910521F464E279ED8BE597E02DE133EFE9
:1059500041E050E00E94A22849015A019B01AC019C
:10596000A7EAB1E40E94C9286B017C01ACEEB4EF58
:10597000A50194010E94E82FDC01CB018C0D9D1D37
:10598000AE1DBF1DB7FF03C00197A109B0488093AA
:10599000060290930702A0930802B0930902BC018B
:1059A000CD019F77FF90EF90DF90CF90BF90AF90A9
:1059B0009F908F90089560930602709307028093E2
:1059C00008029093090208959111089581568A5111
:1059D00008F4805285580895FB01DC0102C0019053
:1059E0000D9241505040D8F70895FB01DC01019021
:1059F0000D920020E1F708950F931F93CF93DF934B
:105A0000CDB7DEB72E970FB6F894DEBF0FBECDBF71
:105A10000E891F8986E08C831A8309838FEF9FE7A5
:105A20009E838D83AE01465E5F4F688D798DCE017A
:105A300001960E942B2DEF81F885E00FF11F108257
:105A40002E960FB6F894DEBF0FBECDBFDF91CF917B
:105A50001F910F9108952F923F924F925F926F92F4
:105A60007F928F929F92AF92BF92CF92DF92EF92EE
:105A7000FF920F931F93CF93DF93CDB7DEB72B9792
:105A80000FB6F894DEBF0FBECDBF6C017B018A015B
:105A9000FC0117821682838181FFCCC1CE01019661
:105AA0003C01F6019381F70193FD859193FF81916C
:105AB0007F01882309F4BAC1853239F493FD8591B9
:105AC00093FF81917F01853229F4B60190E00E9415
:105AD0004B2FE7CF912C212C312CFFE1F315D8F07F
