:100000000C9433040C9434AA0C945FAA0C948AAA1E
:100010000C94B5AA0C94E0AA0C940BAB0C9436ABE0
:100020000C9461AB0C9464040C9464040C9464040C
:100030000C9464040C9464040C9464040C946404A0
:100040000C9464040C9464040C9464040C94640490
:100050000C9464040C9464040C9464040C94DCAB61
:100060000C9464040C9408A60C943EA60C946404AE
:100070000C9464040C9464040C9464040C94640460
:100080000C9464040C9464040C9464040C94640450
:100090000C942E510C9458510C9464040C946404E8
:1000A0000C9464040C9464040C9464040C94640430
:1000B0000C9464040C9464040C941B500C947A4FBC
:1000C0000C94CA500C9464040C9464040C94A151D4
:1000D0000C94CB510C9464040C949FA60C94D5A65C
:1000E0000C9464040C94D2980C9468A60C9469A5A2
:1000F0000C9427AA0C949B940C9402B00C9432ADEF
:100100000C941AAD0C94FFAF0C948C4E0C94229F5F
:100110000C94E42A0C94FAAC0C94926A0C94A24EBF
:100120000C940DB00C94D8A90C9424AD0C944F9B56
:100130000C94C4AB0C94F0AF0C9402AD0C94B4AF1F
:100140000C9472A60C94B6A40C9409A70C94409D30
:100150000C94BCAF0C94E29E0C94389F0C94E4A4D5
:100160000C9419500C94F6AF0C941AAA0C94329774
:100170000C94B54E0C9491940C94A09A0C94C2A437
:100180000C9405B00C94C54E0C94F2A00C943AADAE
:100190000C94B9A90C94F4AC0C94ABAF0C94DE9B0A
:1001A0000C94FB530C941EA10C940CAD0C94E452D3
:1001B0000C947F2A0C94E4AF0C9408AD0C94A8AF77
:1001C0000C9449A50C94ECA90C94EDAF0C9412ADD1
:1001D0000C9480AF0C9436A70C945DAF0C94989E51
:1001E0000C94962A0C94BB990C94DC520C94B8AFE6
:1001F0000C94EAAF0C9494960C94E7AF0C9486AFF1
:100200000C9483AF0C9405970C94B1AF0C949F2A77
:100210000C945D960C947CAF0C9410A10C948D986A
:100220000C94FEAC0C948F2A0C94FAA00C941C999C
:100230000C9449530C9426A10C94D22D0C94C0AF6D
:100240000C94F3AF0C940A9F0C9439AD0C94D92CF8
:100250000C94FFA60C94A4AF0C94AA2A0C94F9A9B0
:100260000C9428AD0C94AEAF0C94744F0C946C5657
:100270000C942EAD0C940EAA0C94FCAF0C9420ADF3
:100280000C94F9AF0C94F5510C9436AD0C948A5F34
:100290000C949DAF0C94C3AF0C94662A0C94A1AF40
:1002A0000C94E7960C94549F0C9410B00C94B5A049
:1002B0000C942B980C9466560C94D0A40C94CA966B
:1002C0000C94DEA00C94F3A40C9416AD0C94005680
:1002D0000C9434A10C94DB9E0C949D940C9408A176
:1002E0000C9482510C9409B00C9457970C94E0A98B
:1002F0006364696E6F70737578585B004E414E4948
:100300004E495459494E46CDCCCC3D0AD7233C17D3
:10031000B7D13877CC2B329595E6241FB14F0A0020
:100320000020410000C84200401C4620BCBE4CCA10
:100330001B0E5AAEC59D743D3D3D204B4559205383
:1003400054524F4B45203D3D3D00404247425055A1
:100350002C436F757273652C004042474250552CF8
:10036000547261636B2C46616C7365004042474276
:1003700050552C547261636B2C5472756500404269
:10038000474250552C56616E652C46616C73650072
:100390004042474250552C56616E652C547275652B
:1003A0000052656A656374206D7973656C662050D0
:1003B000474E3A004042474250552C547261636B9D
:1003C0002C46616C7365004042474250552C547274
:1003D00061636B2C54727565004042474250552C46
:1003E00056616E652C46616C736500404247425011
:1003F000552C56616E652C5472756500244E47422B
:1004000050552A3445004E4D45415F5041525345A9
:10041000525F4E4F54434F4D504C4554452C206E27
:100420006F7420636F6D706C657465207E7E002430
:100430004E474250552A3445004E4D45415F50418C
:10044000525345525F434845434B53554D455252D5
:100450002C204552524F522021210009000954728C
:10046000616E736C61746553656174616C6B417529
:1004700070696C6F74436F6D6D616E64546F4E453F
:100480004D413230303028293A200020556E6B6EB5
:100490006F776E0020506F7765724F6E0020457841
:1004A0007465726E616C002042726F776E6F757446
:1004B00000205761746368646F67004661696C006F
:1004C0004F70656E004042474250552C43414E2CC0
:1004D000004042474250552C424F4F5420566572BF
:1004E000002066696E652E002C2048656C6C6F2CB0
:1004F000204920616D20004042474250552C5665EE
:1005000072004042474250552C4D4F422C00404211
:10051000474250552C53746565722C004042474247
:1005200050552C436F757273652C00404247425002
:10053000552C4175746F2C46616C736500404247C1
:100540004250552C4175746F2C5374656572004090
:1005500042474250552C4175746F2C54727565009A
:100560009000A49000A30020446174613A00204CE4
:10057000656E3A0020446573743A0020536F7572BB
:1005800063653A002050474E3A005072693A0020A5
:100590003A2000002C00537461727420616464720C
:1005A00065737320636C61696D20666F722064658A
:1005B0007669636520002073656E64206661696CEE
:1005C0006564002F002C206672616D653A0050470B
:1005D0004E20002073656E64206661696C6564005E
:1005E00050474E200043414E206465766963652084
:1005F0006661696C656420746F206F70656E00437E
:10060000414E206465766963652072656164790096
:1006100000004E4D454132303030206C69627261CD
:1006200072792C2068747470733A2F2F676974681C
:1006300075622E636F6D2F74746C617070616C6184
:10064000696E656E2F4E4D454132303030003508B1
:100650009A0241726475696E6F204E326B2D3E5066
:100660004300000000000000000000000000000047
:10067000000000312E302E302E300000000000002F
:10068000000000000000000000000000000000006A
:1006900000000000312E302E30000000000000006D
:1006A000000000000000000000000000000000004A
:1006B00000000000003030303030303031000000B9
:1006C000000000000000000000000000000000002A
:1006D000000000000000000100E8000000EA000047
:1006E00000EB000000EC000000EE0000D8FE00006F
:1006F00000ED01000000000000E8000000EA00003A
:1007000000EB000000EC000000EE000000ED010036
:1007100000EE010011F0010014F0010016F00100DC
:100720000000000000000B0C030A0D0E0F09080466
:1007300005020000000000000000000000000000B2
:1007400000000000000000000000000000000000A9
:100750001312110000000000000000000000000063
:100760000000000000000000000000000000000089
:10077000000000000000000000000102102020081E
:1007800008102040102040800201020108040201EC
:10079000010204081020408080402010080402015B
:1007A00080040201804020100804020108040201B4
:1007B000010204081020408001020408102040803B
:1007C000044080048008101020400408102040805D
:1007D00005050505070508080808020202020A0ABD
:1007E00008080404040401010101010101010303DB
:1007F000030303030303040707070C0C0C0C0C0C86
:100800000C0C0202020206060606060606060B0B82
:100810000B0B0B0B0B0B050505080807070404045D
:100820000A0A0A0A0A0A00002200250028002B00F2
:100830002E003100340002010000050108010B0107
:1008400000002100240027002A002D003000330082
:1008500001010000040107010A01E42A8251F55157
:1008600072A609A7D92C11241FBECFEFD1E2DEBF9B
:10087000CDBF00E00CBF19E0A0E0B2E0E0EEF3E88D
:1008800001E00BBF02C007900D92A236B107D9F765
:1008900021E1A2E6B9E001C01D92AA34B207E1F756
:1008A00014E0C2E3D4E000E006C021970109802FE4
:1008B000FE010E9485B4CD32D10780E00807A9F778
:1008C0000E94C7AB0C94DEC10C9400000F931F93E1
:1008D000CF93DF93CDB7DEB7C654D1400FB6F894AF
:1008E000DEBF0FBECDBF8C01CE0101960E945A37EC
:1008F000C75CDE4F19821882C953D140C55CDE4FF8
:1009000019821882CB53D140C35CDE4F1982188202
:10091000CD53D140C15CDE4F188219821A821B82EE
:10092000CF53D140CD5BDE4F188219821A821B82D1
:10093000C354D140CE0101960E94233FCE010196BF
:100940000E9474370E94AE0FF801EB56FE4F808173
:100950009181019797FD0EC091838083CA5BDE4F22
:100960000FB6F894DEBF0FBECDBFDF91CF911F91C0
:100970000F91089511821082F1CFCF92DF92EF9202
:10098000FF92CF93DF93EC016A017B012FE632E106
:1009900043E85AEBCB01B6010E946CB718161CF560
:1009A00020E030E84BE355E4C701B6010E947DB575
:1009B00087FF19C0C882D982EA82FB82C557DE4F01
:1009C0008881998106968730910554F499838883AC
:1009D00081E0DF91CF91FF90EF90DF90CF9008956D
:1009E00086E090E0F3CF80E0F4CF0F931F93CF9396
:1009F000DF93CDB7DEB7C853D1400FB6F894DEBF52
:100A00000FBECDBF8C01CE0101960E945A3705570B
:100A10001E4FF8018081918118161906D4F4409177
:100A200088095091890960918A0970918B09CE01DA
:100A300001960E94A744CE0101960E9474370E943D
:100A4000AE0FF80180819181019797FD0EC09183CF
:100A50008083C85CDE4F0FB6F894DEBF0FBECDBFFB
:100A6000DF91CF911F910F91089511821082F1CFE4
:100A7000CF92DF92EF92FF92CF93DF93EC016A0166
:100A80007B0120E030E0A901CB01B6010E946CB7E8
:100A900087FD23C02DEC3CE044EB53E4C701B601D5
:100AA0000E947DB587FF19C0C88AD98AEA8AFB8A65
:100AB000CD56DE4F8881998104968530910554F496
:100AC0009983888381E0DF91CF91FF90EF90DF9051
:100AD000CF90089584E090E0F3CF80E0F4CFAF9220
:100AE000BF92CF92DF92EF92FF920F931F93CF931B
:100AF000DF93CDB7DEB7C853D1400FB6F894DEBF51
:100B00000FBECDBF5C01CE0101960E945A37650130
:100B10008DE6C81A8EEFD80AF601808191811816E9
:100B2000190674F57501FFE6EF1AFEEFFF0AF701EB
:100B300080819181181619061CF5F501048515852B
:100B4000268537854089518962897389CE0101964E
:100B50000E94323CCE0101960E9474370E94AE0F73
:100B6000F60180819181019797FD1CC0918380835C
:100B7000F70180819181019797FD17C09183808350
:100B8000C85CDE4F0FB6F894DEBF0FBECDBFDF915D
:100B9000CF911F910F91FF90EF90DF90CF90BF907A
:100BA000AF90089511821082E3CF11821082E8CFB6
:100BB000AF92BF92CF92DF92EF92FF920F931F936B
:100BC000CF93DF93CDB7DEB7C853D1400FB6F894BB
:100BD000DEBF0FBECDBF5C01CE0101960E945A3729
:100BE00065018DE6C81A8EEFD80AF60180819181E1
:100BF0001816190674F57501FFE6EF1AFEEFFF0AE5
:100C0000F70180819181181619061CF5F5010485FC
:100C10001585268537854089518962897389CE017A
:100C200001960E941F3BCE0101960E9474370E94DC
:100C3000AE0FF60180819181019797FD1CC09183D1
:100C40008083F70180819181019797FD17C091837F
:100C50008083C85CDE4F0FB6F894DEBF0FBECDBFF9
:100C6000DF91CF911F910F91FF90EF90DF90CF9088
:100C7000BF90AF90089511821082E3CF118210824D
:100C8000E8CFCF92DF92EF92FF92CF93DF93EC0108
:100C90006A017B0120E030E0A901CB01B6010E948E
:100CA0006CB787FD23C020E030E040EA52E4C70182
:100CB000B6010E947DB587FF19C0CC86DD86EE8621
:100CC000FF86CF56DE4F8881998104968530910545
:100CD00054F49983888381E0DF91CF91FF90EF9066
:100CE000DF90CF90089584E090E0F3CF80E0F4CFE0
:100CF0004F925F926F927F928F929F92AF92BF922C
:100D0000CF92DF92EF92FF920F931F93CF93DF93D7
:100D100000D000D01F921F92CDB7DEB74A015B0111
:100D20006801790180929C0990929D09A0929E0988
:100D3000B0929F09C092A909D092AA09E092AB098A
:100D4000F092AC092A013B01E89477F8C301B201A3
:100D50000E9430B669837A838B839C8329813A8190
:100D6000B901330F880B990B0E946EB69B01AC0141
:100D7000C301B2010E9410B520E030E040E752E428
:100D80000E9471B72B013C010E9430B66D837E83B7
:100D90008F8398872D813E81B901330F880B990B82
:100DA0000E946EB69B01AC01C301B2010E9410B556
:100DB00020E030E040E752E40E9471B72B013C0193
:100DC00020E030E0A901C501B4010E947DB587FD96
:100DD0008CC08EE429813A813093A1092093A00927
:100DE0002D813E813093A3092093A2094092A4094A
:100DF0005092A5096092A6097092A7098093A8094C
:100E000026013701E89477F8C301B2010E9430B699
:100E10004B01072E000C880B990B0E946EB69B01AC
:100E2000AC01C301B2010E9410B520E030E040E700
:100E300052E40E9471B72B013C010E9430B66983D5
:100E40007A838B839C8329813A81B901330F880B84
:100E5000990B0E946EB69B01AC01C301B2010E94C6
:100E600010B520E030E040E752E40E9471B72B015A
:100E70003C0120E030E0A901C701B6010E947DB528
:100E800087FD35C085E49092AE098092AD09298135
:100E90003A813093B0092093AF094092B109509242
:100EA000B2096092B3097092B4098093B50986E0E3
:100EB00090E090931E0B80931D0B81E028960FB657
:100EC000F894DEBF0FBECDBFDF91CF911F910F9180
:100ED000FF90EF90DF90CF90BF90AF909F908F905A
:100EE0007F906F905F904F90089583E573CF87E573
:100EF000CACFFC01EB56FE4F20813181121613063A
:100F000014F40C9466040895CF92DF92EF92FF924E
:100F1000CF93DF93EC016A017B0120E030E0A9016F
:100F2000CB01B6010E946CB787FD23C02DEC3CE0DD
:100F300044EB53E4C701B6010E947DB587FF19C099
:100F4000CEA6DFA6E8AAF9AAC956DE4F8881998104
:100F500002968330910554F49983888381E0DF9170
:100F6000CF91FF90EF90DF90CF90089582E090E0D6
:100F7000F3CF80E0F4CFDF92EF92FF920F931F93B5
:100F8000CF93DF93CDB7DEB7C853D1400FB6F894F7
:100F9000DEBF0FBECDBF8C01D62ECE0101960E94C2
:100FA0005A37780189E6E81A8EEFF80AF70180814E
:100FB00091811816190624F5F80146A557A560A9D0
:100FC00071A9DD2061F1CE0101960E949545CE0107
:100FD00001960E9474370E94AE0FDD2049F0CE01C9
:100FE00001960E947437BC0189E990E10E9496A79E
:100FF000F70180819181019797FD1AC091838083C9
:10100000C85CDE4F0FB6F894DEBF0FBECDBFDF91D8
:10101000CF911F910F91FF90EF90DF900895008581
:10102000118522853385CE0101960E943145CFCFAF
:1010300011821082E5CF60E00C94BB07CF92DF9263
:10104000FF920F931F93CF93DF93CDB7DEB7C853B3
:10105000D1400FB6F894DEBF0FBECDBF6C01F62EA7
:10106000CE0101960E945A37860109561E4FF8019B
:10107000808191811816190624F5F60146A557A519
:1010800060A971A9CE010196FF2051F10E940B4683
:10109000CE0101960E9474370E94AE0FFF2049F0E6
:1010A000CE0101960E947437BC0189E990E10E944B
:1010B00096A7F80180819181019797FD14C09183D3
:1010C0008083C85CDE4F0FB6F894DEBF0FBECDBF85
:1010D000DF91CF911F910F91FF90DF90CF900895F6
:1010E0000E94D045D5CF11821082EBCF60E00C94E6
:1010F0001E08DF92EF92FF920F931F93CF93DF931F
:10110000CDB7DEB7C853D1400FB6F894DEBF0FBEDF
:10111000CDBF7C01D62ECE0101960E945A378701A1
:1011200009561E4FF80180819181181619066CF539
:10113000F70160857185828593850E9430B6CB0169
:10114000F70146A557A560A971A99C01CE0101969A
:10115000DD2051F10E948D46CE0101960E94743728
:101160000E94AE0FDD2049F0CE0101960E94743737
:10117000BC0189E990E10E9496A7F80180819181E4
:10118000019797FD14C091838083C85CDE4F0FB632
:10119000F894DEBF0FBECDBFDF91CF911F910F91AD
:1011A000FF90EF90DF9008950E944646D5CF1182C0
:1011B0001082EBCF60E00C947908CF92DF92EF922F
:1011C000FF92CF93DF93EC016A017B01CB01BA015F
:1011D0009F772DEC3CE044EB53E40E947DB587FF04
:1011E00019C0CAAADBAAECAAFDAAC556DE4F88819F
:1011F000998106968730910554F49983888381E01C
:10120000DF91CF91FF90EF90DF90CF90089586E02F
:1012100090E0F3CF80E0F4CFCF92DF92EF92FF9295
:10122000CF93DF93EC016A017B012CEA35EC47E2B6
:1012300057EBCB01B6010E946CB718161CF520E0E5
:1012400030E048EC52E4C701B6010E947DB587FF4B
:1012500019C0CEAADFAAE8AEF9AEC756DE4F888124
:10126000998106968730910554F49983888381E0AB
:10127000DF91CF91FF90EF90DF90CF90089586E0BF
:1012800090E0F3CF80E0F4CF6F927F928F929F92A5
:10129000AF92BF92CF92DF92EF92FF920F931F9384
:1012A000CF93DF93CDB7DEB7C853D1400FB6F894D4
:1012B000DEBF0FBECDBF3C01CE0101960E945A3762
:1012C000430185E6881A8EEF980AF40180819181A6
:1012D0001816190694F55301F7E6AF1AFEEFBF0A88
:1012E000F50180819181181619063CF5F301C6A815
:1012F000D7A8E0ACF1AC008511852285338542A9E1
:1013000053A964A975A9CE0101960E947F3BCE0125
:1013100001960E9474370E94AE0FF4018081918182
:10132000019797FD20C091838083F5018081918191
:10133000019797FD1BC091838083C85CDE4F0FB679
:10134000F894DEBF0FBECDBFDF91CF911F910F91FB
:10135000FF90EF90DF90CF90BF90AF909F908F90D5
:101360007F906F90089511821082DFCF11821082DA
:10137000E4CF8F929F92AF92BF92CF92DF92EF9283
:10138000FF920F931F93CF93DF93CDB7DEB7CC556A
:10139000D1400FB6F894DEBF0FBECDBF8C0107560B
:1013A0001E4FF801208131814C01FFE58F1AFEEFBD
:1013B0009F0AF40140815181141615060CF074C087
:1013C0005C01FDE5AF1AFEEFBF0AF50140815181D6
:1013D000141615060CF068C0121613060CF04AC05D
:1013E0006C01F5E6CF1AFEEFDF0AF60120813181AC
:1013F000121613060CF05BC07C01FBE6EF1AFEEF41
:10140000FF0AF70120813181121613060CF04FC03C
:10141000CE0101960E942E43CE0101960E947437A0
:101420000E94AE0FF40180819181019797FD36C033
:1014300091838083F50180819181019797FD31C06F
:1014400091838083F80180819181019797FDADC0E0
:1014500091838083F60180819181019797FDA8C0D7
:1014600091838083F70180819181019797FDA3C0CB
:1014700091838083C45ADE4F0FB6F894DEBF0FBE4F
:10148000CDBFDF91CF911F910F91FF90EF90DF9033
:10149000CF90BF90AF909F908F900895118210824F
:1014A000C9CF11821082CECF121613061CF76C0121
:1014B000F5E6CF1AFEEFDF0AF60120813181121620
:1014C0001306C4F67C01FBE6EF1AFEEFFF0AF701F4
:1014D00080819181181619066CF6CE0101960E9442
:1014E0005A37C75CDE4F19821882C953D140C55C98
:1014F000DE4F19821882CB53D140C35CDE4F198274
:101500001882CD53D140C15CDE4F19821882CF536F
:10151000D140CF5BDE4F188219821A821B82C154E0
:10152000D140CB5BDE4F188219821A821B82C554D0
:10153000D140C75BDE4F188219821A821B82C954C0
:10154000D140C35BDE4F188219821A821B82CD54B0
:10155000D14084E5CF5ADE4F8883C155D140CE5A61
:10156000DE4F19821882C255D140CC5ADE4F198203
:101570001882C455D140CA5ADE4F19821882C65506
:10158000D140C85ADE4F188219821A821B82C85570
:10159000D140C45ADE4F1882CC55D140CE010196BD
:1015A0000E9474370E94AE0F4DCF1182108252CF2D
:1015B0001182108257CF118210825CCF9B01275A73
:1015C0003F4F233B310590F4FC0173AF62AFE1560E
:1015D000FE4F8081918106968730910524F4918396
:1015E000808381E0089586E090E0F9CF80E008955F
:1015F000EF92FF920F931F93CF93DF93CDB7DEB798
:10160000C853D1400FB6F894DEBF0FBECDBF7C01EA
:10161000CE0101960E945A37870101561E4FF801EC
:101620008081918118161906ACF4F70162AD73AD93
:10163000CE0101960E94D446CE0101960E947437D5
:101640000E94AE0FF80180819181019797FD10C033
:1016500091838083C85CDE4F0FB6F894DEBF0FBE67
:10166000CDBFDF91CF911F910F91FF90EF90089523
:1016700011821082EFCF0C94F80ACF93DF93EC0124
:101680000E94F504CE010E94D805CE010E94790780
:10169000CE010E941B08CE010E947608CE010E9456
:1016A000DA08CE010E94B909CE010E94F80ACE01E3
:1016B0000E944409CE01DF91CF910C946F052F92C7
:1016C0003F924F925F926F927F928F929F92AF92D2
:1016D000BF92CF92DF92EF92FF920F931F93CF931F
:1016E000DF93CDB7DEB762970FB6F894DEBF0FBEBB
:1016F000CDBF9D878C87DC0114968C911497E82FC1
:10170000F0E0FF83EE8315960C91159716968C9159
:10171000102F082FB80190E080E00E946CB620E006
:1017200030E04AE754E40E9482B50E9430B66887F0
:1017300079878A879B87C80168EE73E00E941CB492
:101740008C01AC85BD851396BC91B983B4FDA6C14F
:10175000EEE4ED832E813F81B901330F880B990BA5
:101760000E946EB66B017C01A885B985BD01BB0FD7
:10177000880B990B0E946EB64B015C01B801110FEA
:10178000880B990B0E946EB62B013C0120E030E0E3
:101790004AE754E40E9482B5A50194010E9411B564
:1017A00020E030E040E752E40E9482B5A7019601B4
:1017B0000E9411B59F772FE632E143E85AE30E9479
:1017C0007DB587FD52C100911D0B10911E0B0115B7
:1017D000110509F460C020E030E040E752E4C301A5
:1017E000B2010E9482B5A50194010E9411B520E0CA
:1017F00030E040E752E40E9482B5A70196010E94C2
:1018000011B56B017C0120E030E040E752E46091CB
:10181000A4097091A5098091A6099091A7090E9439
:1018200082B54B015C016091A2097091A309072E5A
:10183000000C880B990B0E946EB69B01AC01C50190
:10184000B4010E9411B520E030E040E752E40E946C
:1018500082B54B015C016091A0097091A109072E2E
:10186000000C880B990B0E946EB69B01AC01C50160
:10187000B4010E9411B59B01AC01C701B6010E94E1
:1018800010B59F7720E030E040E05FE30E946CB746
:1018900018160CF4EAC0EC85FD858781282E312CC2
:1018A000908581859C013A8B298BB90190E080E07D
:1018B0000E946CB620E030E04AE754E40E9482B512
:1018C0000E9430B66C877D878E879F8789899A8929
:1018D00068EE73E00E941CB4398135FDE2C0A7E5D3
:1018E000A88BBC01990F880B990B0E946EB6698377
:1018F0007A838B839C83EC85FD85BF01FF0F880B6A
:10190000990B0E946EB66B017C0120E030E04AE743
:1019100054E469817A818B819C810E9482B59B010C
:10192000AC01C701B6010E9411B520E030E040E7EC
:1019300052E40E9482B56B017C01B101032C000CC2
:10194000880B990B0E946EB69B01AC01C701B601D2
:101950000E9411B56B017C019F772FE632E143E8CD
:101960005AE30E947DB587FD80C0012B09F447C072
:1019700020E030E040E752E46091B1097091B20993
:101980008091B3099091B4090E9482B54B015C012A
:101990006091AF097091B009072E000C880B990B6C
:1019A0000E946EB69B01AC01C501B4010E9411B545
:1019B00020E030E040E752E40E9482B54B015C0138
:1019C0006091AD097091AE09072E000C880B990B40
:1019D0000E946EB69B01AC01C501B4010E9411B515
:1019E0009B01AC01C701B6010E9410B59F7720E0B2
:1019F00030E040E05FE30E946CB71816B4F12E812E
:101A00003F813093A1092093A009888599859093FF
:101A1000A3098093A2094092A4095092A50960925B
:101A2000A6097092A7099D819093A8093092AE09EA
:101A30002092AD09AC85BD85B093B009A093AF09E4
:101A400089819A81AB81BC818093B1099093B2095D
:101A5000A093B309B093B40998899093B50986E02F
:101A600090E090931E0B80931D0B62960FB6F89436
:101A7000DEBF0FBECDBFDF91CF911F910F91FF90C1
:101A8000EF90DF90CF90BF90AF909F908F907F901E
:101A90006F905F904F903F902F900895F3E5FD83F6
:101AA00059CEB5E4B88B1DCFCF93DF93EC0161E045
:101AB00088810E943DAD1B861A861C861D861E8667
:101AC0001F8660E08881DF91CF910C9479ADCF9231
:101AD000DF92EF92FF920F931F93CF93DF93EC016E
:101AE0000E9426AC2A853B852130310529F50C85DD
:101AF0001D852E853F856B017C01C01AD10AE20A43
:101B0000F30A0A811B812C813D81C016D106E206B1
:101B1000F30688F11B861A866C877D878E879F87E0
:101B200060E08881DF91CF911F910F91FF90EF903E
:101B3000DF90CF900C9479AD232BE9F40C851D85B3
:101B40002E853F856B017C01C01AD10AE20AF30A97
:101B50000E811F8128853985C016D106E206F3065D
:101B600050F021E030E03B872A876C877D878E87A5
:101B70009F8761E0D6CFDF91CF911F910F91FF90AA
:101B8000EF90DF90CF9008950F931F93CF93DF9343
:101B9000CDB7DEB7CB54D1400FB6F894DEBF0FBE41
:101BA000CDBF88EC9CE00E94670D809172099091F6
:101BB00073098A30910528F40196909373098093F4
:101BC00072098AE69CE00E94804E8C018AE69CE0C5
:101BD0000E94764EB8010E94A44DFC0110810E9423
:101BE0009E4D412FBC01CE0101960E943C4A60E708
:101BF00072E08CEF9FE00E9496A7CE0101960E94B2
:101C00007437BC018CEF9FE00E94BBA7C55BDE4F21
:101C10000FB6F894DEBF0FBECDBFDF91CF911F91FD
:101C20000F9108951F93CF93DF93182FC6E4D0E050
:101C3000612F8CEF9FE00E949EA72197C9F7612F2B
:101C40008CEF9FE0DF91CF911F910C94D2A78DE391
:101C50000C94120EFC01DB018081843211F0813280
:101C600079F493818C9198130BC0948111968C9187
:101C70001197981305C081E0258112969C91291334
:101C800080E00895FC01DB018081843211F0813213
:101C9000D9F491818C91981317C0928111968C91EF
:101CA0001197981311C0938112968C9112979813E3
:101CB0000BC0948113968C911397981305C081E003
:101CC000258114969C91291380E008954F925F928C
:101CD0006F927F928F929F92AF92BF92CF92DF923C
:101CE000EF92FF920F931F93CF93DF93CDB7DEB7A1
:101CF000C054D1090FB6F894DEBF0FBECDBF6B0143
:101D00007C0129013A01809179098F9380917809AA
:101D10008F931F930F9320E034E244E759E4C3010B
:101D2000B2010E9471B70E9430B620E4822E22E4F4
:101D3000922E2FE0A22EB12CA50194010E9466B430
:101D40009F938F937F936F93C301B2010E9430B62C
:101D50007F936F9320E034E244E759E4C701B60172
:101D60000E9471B70E9430B6A50194010E9466B42A
:101D70009F938F937F936F93C701B6010E9430B6F4
:101D80007F936F9389E792E09F938F938E010F5F0C
:101D90001F4F1F930F930E944BBAB8018CEF9FE027
:101DA0000E94BBA70FB6F894DEBF0FBECDBFC05CCC
:101DB000DF4F0FB6F894DEBF0FBECDBFDF91CF91DE
:101DC0001F910F91FF90EF90DF90CF90BF90AF9059
:101DD0009F908F907F906F905F904F9008956CE9E7
:101DE00072E08CEF9FE00C94BBA70F931F93CF93EF
:101DF000DF93CDB7DEB7C054D1090FB6F894DEBF7C
:101E00000FBECDBF9F938F938EEA92E09F938F93E7
:101E10008E010F5F1F4F1F930F930E944BBAB801A3
:101E20008CEF9FE00E94BBA70F900F900F900F9038
:101E30000F900F90C05CDF4F0FB6F894DEBF0FBE5F
:101E4000CDBFDF91CF911F910F910895CF93DF9375
:101E50002091160D211110C0EC016CE175E08CEFA2
:101E60009FE00E9472A74AE050E0BE018CEF9FE025
:101E7000DF91CF910C947FA8DF91CF910895CF93FC
:101E8000DF932091160D211110C0EC016EE075E07A
:101E90008CEF9FE00E9472A74AE050E0BE018CEFF9
:101EA0009FE0DF91CF910C947FA8DF91CF910895AF
:101EB0008F929F92AF92BF92CF92DF92EF92FF925A
:101EC0000F931F93CF93DF93E091160DE11139C06B
:101ED00079014A015B01EC0162E075E08CEF9FE063
:101EE0000E9472A74AE050E0BE018CEF9FE00E9482
:101EF00078A86BE377E08CEF9FE00E9496A72AE03A
:101F000030E0B501A4018CEF9FE00E9491A86BE343
:101F100077E08CEF9FE00E9496A72AE030E0B701BF
:101F2000A8018CEF9FE0DF91CF911F910F91FF905F
:101F3000EF90DF90CF90BF90AF909F908F900C94D8
:101F4000ABA8DF91CF911F910F91FF90EF90DF90A1
:101F5000CF90BF90AF909F908F900895CF93DF93D5
:101F6000EC01FC0101900020E9F73197E81BF90B27
:101F70008881843221F0813211F0803409F537975D
:101F8000F8F09091160D91111BC09091FC0C8034CB
:101F900049F49923A9F0BE0189E990E1DF91CF913D
:101FA0000C94BBA7992329F0BE0189E990E10E9416
:101FB00096A7BE018CEF9FE0DF91CF910C9496A77E
:101FC000DF91CF910895CF93DF932091160D2111CA
:101FD00022C0EC0167EF74E08CEF9FE00E9472A7D3
:101FE0006EEF7CE08CEF9FE00E9496A768EE74E0B5
:101FF0008CEF9FE00E9472A74AE050E0BE018CEF98
:102000009FE00E94A5A861EE74E08CEF9FE0DF9155
:10201000CF910C94A9A7DF91CF9108958091160DCF
:1020200081110CC061ED74E08CEF9FE00E9472A7FB
:102030006EEF7CE08CEF9FE00C94BBA708958F922D
:10204000AF92BF92CF92EF92FF920F931F93CF93D5
:102050001F921F9288248A94AA24AA94BA2CCC2472
:10206000CA949EEBE92E92E0F92E04EC12E026EDE4
:1020700032E044E650E067EE72E08091A50C90916A
:10208000A60C0E940972B12CA12C24E0C22E38EFBC
:10209000E32E37E0F32E0BE422E849E656EB61E04D
:1020A00070E08091A50C9091A60C0E945B7046E1B7
:1020B00061E070E08091A50C9091A60C0E94C17225
:1020C00060EF72E08CEF9FE00E94BBA762ED7DE2C3
:1020D0008091A50C9091A60C0E94C57A8091A50CC8
:1020E0009091A60C0E948686C82F65EC74E08CEF58
:1020F0009FE00E9472A70F900F90CC23D1F060EC6C
:1021000074E08CEF9FE00E94A9A762EE72E08EEF70
:102110009CE00E94F4B981E08093FD0C8C2FCF915C
:102120001F910F91FF90EF90CF90BF90AF908F9045
:1021300008956BEB74E08CEF9FE00E94A9A71092CA
:10214000FD0CECCFCF93C62FBC018CEF9FE00E941B
:1021500096A74AE050E06C2F8CEF9FE00E949EA86B
:10216000C3FF07C061EB74E08CEF9FE00E9472A791
:10217000C77FC2FF07C067EA74E08CEF9FE00E9450
:1021800072A7CB7FC1FF07C06DE974E08CEF9FE0C1
:102190000E9472A7CD7FC0FF07C064E974E08CEF96
:1021A0009FE00E9472A7CE7FCC2331F06BE874E0F1
:1021B0008CEF9FE00E9472A76BE775E08CEF9FE0C9
:1021C000CF910C94BBA7CF93DF930FB6F894A8954B
:1021D00080916000886180936000109260000FBE63
:1021E00087EF84BF88E19EE00FB6F894A8958093AE
:1021F00060000FBE909360006EEE72E08EEF9CE088
:102200000E9413BA64E173E08EEF9CE00E94F4B97F
:1022100061EC72E08EEF9CE00E94F4B961E08DE029
:102220000E943DAD61E087E00E943DAD61E08DE040
:102230000E9479AD88ED9CE00E94540D88EC9CE0F2
:102240000E94540D88EB9CE00E94540D88EA9CE0AB
:102250000E94540D26E040E052EC61E070E08CEF0B
:102260009FE00E94B0A540EC52E160E070E08FEB8F
:102270009DE00E94405245E050E060E070E08FEB4E
:102280009DE00E94B3A940EC52E160E070E08CED6B
:102290009EE00E94405245E050E060E070E08CED2E
:1022A0009EE00E94B3A926E040EC52E160E070E0BD
:1022B00089E990E10E94B0A561EA71E080E090E0D8
:1022C0000E94D54E64B786E193E00E94A210A895C3
:1022D00087EA9CE00E9453A30E941F108093A40CE5
:1022E000A895C6E0D0E00E940E1064E670E080E0A1
:1022F00090E00E9457AC2197B1F7A895A89581E08E
:1023000090E09093E30C8093E20C61E08091D80C14
:102310000E9479AD80918409909185099C012F5F7D
:102320003F4F30938509209384090E94E30F84E195
:1023300090E09093870980938609DF91CF9108956B
:10234000FC01DC010D900020E9F71197A81BB90BE7
:102350001D97D0F180818132A9F581818134A1F569
:102360008281893489F58381863571F5848184344D
:1023700059F585818D7F8D3439F586818C3221F533
:102380008781082E000C990BC0970A97E8F4808586
:102390008C32D1F48185082E000C990BC0970A97D6
:1023A00098F482858C3281F483858C3231F0082E4A
:1023B000000C990BC0970A9738F4BF018CEF9FE08F
:1023C0000C94BBA78432C9F308958F929F92AF9269
:1023D000BF92CF92DF92EF92FF920F931F93CF9312
:1023E000DF93EC014A015B016901E881F981019009
:1023F000F081E02D19958B829C82AD82BE82DA86B7
:10240000C986DE011B96F801CF01801B910B8E154A
:102410009F0564F0FE01EE0DFF1DCF018C1B9D0B8F
:102420008C159D0534F413863196F7CF81918D93E9
:10243000EBCFDF91CF911F910F91FF90EF90DF9045
:10244000CF90BF90AF909F908F900895CF92DF92E2
:10245000EF92FF920F931F93CF93DF93CDB7DEB729
:10246000C95FD1090FB6F894DEBF0FBECDBF6C01B6
:10247000F12CE12C00E010E0980146E06FE0CE0185
:1024800001960E94E65F8AE0EFE1F2E0DE01A051F2
:10249000BF4F01900D928A95E1F7B601DD0C880BD4
:1024A000990B0E946EB62BED3FE049E450E40E9488
:1024B00071B70E9430B6AB01161617060CF04AC071
:1024C0004F5F5F4F942F342F32953F702FE0231BC7
:1024D000842F8F70843008F043C0845FCA50DF4F70
:1024E0009883C65FD04090E1299F90011124820F0C
:1024F000932F911DC750DF4F8883C95FD0408AE07A
:10250000E82EF12C8E0100511F4F2AE030E040E010
:102510005FEE61E070E0CE0101960E94E51150E0AF
:1025200040E0BE016F5F7F4F8091A50C9091A60C9B
:102530000E94887EC750DF4F0FB6F894DEBF0FBEF3
:10254000CDBFDF91CF911F910F91FF90EF90DF9062
:10255000CF900895672B09F4B5CF41505109B2CF00
:10256000883010F48C5FBACF8C3010F48450B6CF22
:102570008C50B4CFBF92CF92DF92EF92FF920F9325
:102580001F93CF93DF93CDB7DEB7C75FD1090FB6E7
:10259000F894DEBF0FBECDBFB82EC62ED42EF12CC0
:1025A000E12C00E010E0980146E06FE0CE010196DA
:1025B0000E94E65F88E0E9E2F2E0DE01A051BF4F51
:1025C00001900D928A95E1F7CB50DF4FB882C55F3D
:1025D000D040CA50DF4FC882C65FD040C950DF4FDD
:1025E000D882C75FD04088E0E82EF12C8E010051E0
:1025F0001F4F26E130E040E05FEE61E070E0CE0189
:1026000001960E94E51150E040E0BE016F5F7F4FF0
:102610008091A50C9091A60C0E94887EC950DF4F36
:102620000FB6F894DEBF0FBECDBFDF91CF911F91E3
:102630000F91FF90EF90DF90CF90BF900895DF92C1
:10264000EF92FF920F931F93CF93DF93CDB7DEB737
:10265000C75FD1090FB6F894DEBF0FBECDBFD82E2D
:10266000F12CE12C00E010E0980146E06FE0CE0193
:1026700001960E94E65F88E0E1E3F2E0DE01A0510E
:10268000BF4F01900D928A95E1F7CD50DF4FD88270
:10269000C35FD04088E0E82EF12C8E0100511F4F1F
:1026A00028E030E048E05FEF60E070E0CE010196A6
:1026B0000E94E51150E040E0BE016F5F7F4F8091C6
:1026C000A50C9091A60C0E94887EC950DF4F0FB6D2
:1026D000F894DEBF0FBECDBFDF91CF911F910F9158
:1026E000FF90EF90DF90089581E00C941F1380E03D
:1026F0000C941F1381E090E09093F70C8093F60CFC
:102700004DEF62E081E40C94BA1282E090E0909385
:10271000F70C8093F60C4EEF61E081E40C94BA1252
:1027200082E090E09093F70C8093F60C4CED63E21E
:1027300081E40C94BA1282E090E09093F70C8093BD
:10274000F60C4CEF63E081E40C94BA1247EF68E0BA
:1027500081E40C94BA1249EF66E081E40C94BA1259
:1027600048EF67E081E40C94BA124AEF65E081E437
:102770000C94BA124DED62E281E40C94BA124EED63
:1027800061E281E40C94BA1283E090E09093F70C3C
:102790008093F60C4EEE61E181EB0C94BA12CF936C
:1027A00090937F0980937E09BC01990F880B990B48
:1027B0000E946EB6C1E020917A0930917B09409168
:1027C0007C0950917D090E946CB718160CF0C0E08E
:1027D000C0930C0280E0CF91089590E080E00C94CB
:1027E000CF138DED9FEF0C94CF1383E290E00C9408
:1027F000CF13FC01DC010D900020E9F71197A81B15
:10280000B90B1A9708F186818C32F1F481858A32EE
:10281000D9F48781082E000C990BC0974AE0489F95
:102820009001499F300D11248085082E000C990BD2
:10283000C097280F391FC9018897255031092734BF
:10284000310510F40C94CF1380E008950F931F937B
:10285000CF93DF93683071050CF4E6C08B01EC0177
:102860008B81833509F083C06EE173E0CE010E9455
:1028700029BA892B31F0DF91CF911F910F910C94E0
:10288000851364E373E0CE010E9429BA892B31F0ED
:10289000DF91CF911F910F910C9490136AE473E034
:1028A000CE010E9429BA892B31F0DF91CF911F917F
:1028B0000F910C949B1360E673E0CE010E9429BA3D
:1028C000892B31F0DF91CF911F910F910C947A13E6
:1028D00066E773E0CE010E9429BA892B31F0DF91BF
:1028E000CF911F910F910C94A6136CE873E0CE0169
:1028F0000E9429BA892B31F0DF91CF911F910F915E
:102900000C94AB1362EA73E0CE010E9429BA892BC2
:1029100031F0DF91CF911F910F910C94B01368EBC0
:1029200073E0CE010E9429BA892B31F0DF91CF915B
:102930001F910F910C94B5136EEC73E0CE010E94C1
:1029400029BA892B31F0DF91CF911F910F910C940F
:10295000BA1364EE73E0CE010E9429BA892B09F400
:1029600063C0DF91CF911F910F910C94BF138035FD
:1029700009F042C06AEF73E0CE010E9429BA892BA8
:1029800031F0DF91CF911F910F910C94C41360E14E
:1029900074E0CE010E9429BA892B31F0DF91CF91EA
:1029A0001F910F910C94ED1366E274E0CE010E942A
:1029B00029BA892B31F0DF91CF911F910F910C949F
:1029C000F1136CE374E0CE010E9429BA892B31F037
:1029D000DF91CF911F910F910C94F51362E574E094
:1029E000CE010E9429BA892BF9F0CE01DF91CF9157
:1029F0001F910F910C94F9136DE574E08CEF9FE03B
:102A00000E9472A74AE050E0B8018CEF9FE00E945C
:102A100078A86BE574E08CEF9FE00E9472A7BE017E
:102A20008CEF9FE00E94BBA780E0DF91CF911F91C8
:102A30000F910895CF93DF9368307105ECF0EC01AE
:102A40006AE574E00E9429BA892BB1F460E774E06A
:102A5000CE010E9429BA892B21F0DF91CF910C94ED
:102A6000741362E974E0CE010E9429BA892B21F027
:102A7000DF91CF910C94771380E0DF91CF9108958F
:102A8000FC01DC010D900020E9F71197A81BB90BA0
:102A9000189798F08081843281F48181833569F4BC
:102AA0008281843551F48381833549F4848185346E
:102AB00021F481E09581913459F080E009C080359E
:102AC000E1F784818735C9F781E095819235A9F7CF
:102AD00008950F931F93CF93DF93CDB7DEB7C25AFC
:102AE000D2400FB6F894DEBF0FBECDBF8C01CE0131
:102AF00085599E4F0E945A3765EA74E0C8010E94CA
:102B00002A0E882309F4E6C0CE0101960E945A37A6
:102B1000C75CDE4F1882C953D140C65CDE4F1882B5
:102B2000CA53D140C55CDE4F188219821A821B82BB
:102B3000CB53D140C15CDE4F19821882CF53D140B4
:102B40008EE4CF5BDE4F8883C154D140CE5BDE4F35
:102B50001882C254D140CD5BDE4F1882C354D1409D
:102B6000CC5BDE4F188219821A821B82C454D1407A
:102B700084E5C85BDE4F8883C854D140FE01E75B23
:102B8000FE4F1192119292E1DF011D929A95E9F7A1
:102B9000C35ADE4F188219821A821B82CD55D1404A
:102BA000CF59DE4F8883C156D140CE59DE4F1882AF
:102BB00019821A821B82C256D140CA59DE4F8883BD
:102BC000C656D140C959DE4F1882C756D140B80108
:102BD000CE0101960E94EE4680910F0B9091100B52
:102BE000892B09F05CC080919C0990919D09A0916E
:102BF0009E09B0919F098093070B9093080BA093B7
:102C0000090BB0930A0B8091A9099091AA09A09190
:102C1000AB09B091AC0980930B0B90930C0BA09374
:102C20000D0BB0930E0B69EA74E08CEF9FE00E94ED
:102C300096A70E94270E69EA74E08CEF9FE00E943D
:102C400096A76CEA74E08CEF9FE00E94BBA766EB4E
:102C500074E08CEF9FE00E9496A74091070B509183
:102C6000080B6091090B70910A0B22E030E08CEFA9
:102C70009FE00E94A1A96BEC74E08CEF9FE00E94A2
:102C800096A740910B0B50910C0B60910D0B70911E
:102C90000E0B22E030E08CEF9FE00E94A1A9809112
:102CA0000F0B9091100B07968830910584F4909348
:102CB000100B80930F0BCE55DD4F0FB6F894DEBF8F
:102CC0000FBECDBFDF91CF911F910F91089587E087
:102CD00090E0EDCF61EE74E0C8010E942A0E8111F0
:102CE00008C065EE74E0C8010E942A0E882309F42A
:102CF00065C0CE0101960E945A37C75CDE4F19822B
:102D00001882C953D140C55CDE4F19821882CB535B
:102D1000D140C35CDE4F19821882CD53D140C15CD3
:102D2000DE4F188219821A821B82CF53D140CD5BAD
:102D3000DE4F188219821A821B82C354D140C95BAC
:102D4000DE4F188219821A821B82C754D14084E553
:102D5000C55BDE4F8883CB54D140C45BDE4F188205
:102D600019821A821B82CC54D1408DE4C05BDE4FA5
:102D70008883C055D140CF5ADE4F188219821A82FB
:102D80001B82C155D1408EE4CB5ADE4F8883C55596
:102D9000D140FE01EA5AFE4F1192119282E1DF0109
:102DA0001D928A95E9F7C659DE4F1882CA56D1405E
:102DB000B801CE0101960E9413397DCF69EE74E00F
:102DC000C8010E942A0E8823D1F1CE0101960E94EB
:102DD0005A37C75CDE4F188219821A821B82C95388
:102DE000D14084E5C35CDE4F8883CD53D140C25CC3
:102DF000DE4F188219821A821B82CE53D1408DE495
:102E0000CE5BDE4F8883C254D140FE01ED5BFE4FA6
:102E10001192119282E1DF01982F1D929A95E9F7A4
:102E2000FE01E95AFE4F11921192DF011D928A951F
:102E3000E9F7B801CE0101960E943E383CCF6DEE15
:102E400074E0C8010E942A0E882309F460C0CE01F4
:102E500001960E945A37C75CDE4F19821882C95307
:102E6000D140C55CDE4F19821882CB53D140C35C80
:102E7000DE4F19821882CD53D140C15CDE4F1882DB
:102E800019821A821B82CF53D140CD5BDE4F18824C
:102E900019821A821B82C354D14081E090E0C95B41
:102EA000DE4F99838883C754D140C75BDE4F1982B8
:102EB0001882C954D140C55BDE4F188219821A822C
:102EC0001B82CB54D140C15BDE4F188219821A821B
:102ED0001B82CF54D140CD5ADE4F188219821A82FC
:102EE0001B82C355D140C95ADE4F188219821A82FB
:102EF0001B82C755D140C55ADE4F19821882CB5567
:102F0000D140B801CE0101960E94073DD4CE61EFB9
:102F100074E0C8010E942A0E882361F1CE01019657
:102F20000E945A37C75CDE4F19821882C953D140BC
:102F3000C55CDE4F19821882CB53D140C35CDE4F93
:102F400019821882CD53D140C15CDE4F188219829C
:102F50001A821B82CF53D140CD5BDE4F188219827B
:102F60001A821B82C354D140B801CE0101960E943F
:102F70001040A1CE65EF74E0C8010E942A0E8111B5
:102F80009ACE69EF74E0C8010E942A0E882309F4E2
:102F900067C0CE0101960E945A37C75CDE4F198286
:102FA0001882C953D140C55CDE4F19821882CB53B9
:102FB000D140C35CDE4F19821882CD53D140C15C31
:102FC000DE4F19821882CF53D140CF5BDE4F18827B
:102FD00019821A821B82C154D140CB5BDE4F18820A
:102FE00019821A821B82C554D140C75BDE4F1882FA
:102FF00019821A821B82C954D140C35BDE4F1882EA
:1030000019821A821B82CD54D14084E5CF5ADE4FFB
:103010008883C155D140CE5ADE4F19821882C255DD
:10302000D140CC5ADE4F19821882C455D140CA5AB9
:10303000DE4F19821882C655D140C85ADE4F188219
:1030400019821A821B82C855D140C45ADE4F188299
:10305000CC55D140B801CE0101960E94EB402BCE59
:103060006DEF74E0C8010E942A0E882309F423CE74
:10307000CE0101960E945A37C75CDE4F1882C953B1
:10308000D140C65CDE4F1882CA53D140C55CDE4FCA
:10309000188219821A821B82CB53D140C15CDE4F49
:1030A00019821882CF53D1408EE4CF5BDE4F8883E4
:1030B000C154D140CE5BDE4F1882C254D140CD5BAB
:1030C000DE4F1882C354D140B801CE0101960E9450
:1030D0002B49F1CDCF92DF92EF92FF920F931F9386
:1030E0008B019C011D7F0115184E2105310509F446
:1030F000E2C08B019C011E7F01154EEE14072105D5
:10310000310509F4D8C0663B4EEF7407810591057F
:1031100009F4D1C06B017C01E894E0F84AE1C416DF
:103120004FEFD406E104F10409F4C5C06F314FEF4D
:1031300074078105910509F4BEC063364FEF74072B
:103140008105910509F4B7C065364FEF7407810515
:10315000910509F4B0C06F3F4FEF740781059105E9
:1031600009F4A9C064374FEF74078105910509F48C
:10317000A2C061154EEE740741E08407910509F481
:103180009AC0613140EF740741E08407910509F46A
:1031900092C06B017C01E894C1F844E1C41640EF91
:1031A000D40641E0E406F10409F485C0633145EF3B
:1031B000740741E08407910509F47DC0643148EF4C
:1031C000740741E08407910509F475C06B3049EF3D
:1031D000740741E08407910509F46DC06B017C011F
:1031E00043E0C41A4AEFD40A41E0E40AF10842E09D
:1031F000C416D104E104F10408F45DC006301A4F8E
:103200002140310509F457C06B302AEF720721E0E5
:103210008207910509F44FC08B019C0106501D4F98
:1032200021403109033011052105310508F443C05F
:1032300064364FEF740741E084079105E1F16115B1
:103240002FEF720781059105B1F161324FEF7407DD
:103250008105910581F1653029EF720721E0820730
:10326000910549F166304FEF740741E084079105FD
:1032700011F16D302FEF720721E082079105D9F02F
:1032800060324FEF740741E084079105A1F06F7E33
:1032900066567F4F8140910921E0623071058105BA
:1032A000910508F020E0822F1F910F91FF90EF9081
:1032B000DF90CF90089521E0F6CF6F342FEF7207A3
:1032C0008105910509F458C068363FEF7307810501
:1032D000910509F451C061152DEE720721E08207B6
:1032E000910509F449C0603130EF730731E083077D
:1032F000910509F441C0653021EF720721E0820792
:103300009105D1F1633131EF730731E08307910506
:1033100099F1693121EF720721E08207910561F18E
:10332000633035EF730731E08307910529F1693088
:1033300028EF720721E082079105F1F0633039EF41
:10334000730731E083079105B9F061302BEF720705
:1033500021E08207910581F021E064363FEF730799
:1033600031E08307910531F061317E4F8140910555
:1033700009F020E0822F089521E0FCCFEF92FF9228
:103380000F931F93CF93DF93CDB7DEB7DA950FB6C8
:10339000F894DEBF0FBECDBF7C010E9426ACAB010E
:1033A000BC0100E011E09E012F5F3F4FC7010E946A
:1033B000F5938C01089738F0BE016F5F7F4F8CEF5B
:1033C0009FE00E94BBA7C801D3950FB6F894DEBF5B
:1033D0000FBECDBFDF91CF911F910F91FF90EF9066
:1033E00008954F925F926F927F928F929F92AF92C9
:1033F000BF92CF92DF92EF92FF92CF93DF9300D0F4
:1034000000D01F921F92CDB7DEB72A013B01BC014D
:10341000990F880B990B0E946EB669837A838B8310
:103420009C83A30192010E9410B56B017C0120E0F6
:1034300030E0A9010E946CB746015701181624F02C
:10344000B7FAB094B7F8B09420E030E048E151E426
:10345000C701B6010E9471B76B017C0120E030E02A
:103460004CE052E40E946CB718160CF442C020E005
:1034700030E04CE052ECC701B6010E947DB587FFF9
:1034800006C0C12CD12C7CE0E72E72ECF72E809187
:10349000800990918109A0918209B09183098D835F
:1034A0009E83AF83B88720E030E040E05FE3BC015B
:1034B000CD010E9411B5A50194010E946CB71816A8
:1034C000FCF490E080E028960FB6F894DEBF0FBEC3
:1034D000CDBFDF91CF91FF90EF90DF90CF90BF9065
:1034E000AF909F908F907F906F905F904F900C94D3
:1034F0002612C12CD12C6CE0E62E62E4F62EC7CF4A
:103500002AE939E949E95FE36D817E818F819885F8
:103510000E9411B5A50194010E946CB718160CF019
:103520004AC020E030E040EC50E4C701B6010E9400
:103530006CB718160CF120E030E040EC50ECC701FD
:10354000B6010E947DB5A301920187FD97C06981F4
:103550007A818B819C810E946CB718169CF420E0C4
:1035600030E0A901C701B6010E947DB587FF0AC0FE
:10357000C12CD12C760119C0C12CD12C50ECE52ED8
:1035800050E4F52EA301920169817A818B819C819F
:103590000E947DB587FF09C020E030E0A901C70186
:1035A000B6010E946CB718161CF3C701B6010E9441
:1035B00030B6CB0188CF26E636E646EE5FE36D8176
:1035C0007E818F8198850E9411B5A50194010E948A
:1035D0006CB7181614F520E030E040E951E4C7015B
:1035E000B6010E946CB718168CF020E030E040E97C
:1035F00051ECC701B6010E947DB587FFD6CFC12C23
:10360000D12C40E9E42E41ECF42ECFCFC12CD12CAB
:1036100030E9E32E31E4F32EC8CF2AE939E949E154
:1036200050E46D817E818F8198850E9411B5A5013E
:1036300094010E946CB718160CF4B7CF20E030E06C
:10364000A901C701B6010E946CB7181684F020E0EA
:1036500030E0A901C701B6010E947DB587FFA5CF63
:10366000C12CD12C2CE0E22E22ECF22E9ECFC12CCC
:10367000D12C9CE0E92E92E4F92E97CF69817A81D2
:103680008B819C810E946CB718160CF471CFC12CF1
:10369000D12C80ECE82EFE2C88CFCF92DF92EF92D7
:1036A000FF920F931F93CF93DF9300D000D000D0F1
:1036B0001F921F92CDB7DEB78E010F5F1F4F9E0185
:1036C000275F3F4FAE01455F5F4FBE016B5F7F4F8E
:1036D0000E941957882309F489C0CD80DE80EF80CD
:1036E000F88428E23BE64EE65EECC701B6010E9494
:1036F0007DB5882381F020E030E044E353E4C70146
:10370000B6010E9471B72BED3FE049E450E40E94FE
:1037100082B56B017C01C0927A09D0927B09E0925C
:103720007C09F0927D09C701B6010E9430B688E895
:1037300099E00E94DE0A882309F458C08091F40CB5
:103740009091F50C039709F051C08091F60C90917F
:10375000F70C039709F04AC040917A0950917B0910
:1037600060917C0970917D0920910C0280917E0905
:1037700090917F090E94F11920917A0930917B097B
:1037800040917C0950917D096091680970916909A7
:1037900080916A0990916B090E9410B56B017C01C0
:1037A00020E030E040E05FE30E946CB7181654F070
:1037B00020E030E040E05FEBC701B6010E947DB53C
:1037C00087FF14C088E899E00E94F80A80917A097E
:1037D00090917B09A0917C09B0917D098093680943
:1037E00090936909A0936A09B0936B092B960FB661
:1037F000F894DEBF0FBECDBFDF91CF911F910F9127
:10380000FF90EF90DF90CF900895CF92DF92EF92EC
:10381000FF920F931F93CF93DF9300D000D000D07F
:10382000CDB7DEB719861E821D8219821A821B82CD
:103830001C828E010F5F1F4F9E012B5F3F4FAE0119
:10384000495F5F4FBE01675F7F4F0E9458588823D2
:10385000F1F1C980DA80EB80FC8028E23BE64EE69D
:103860005EECC701B6010E947DB5882381F120E09E
:1038700030E044E353E4C701B6010E9471B72BED79
:103880003FE049E450E40E9482B56B017C0120E0F6
:1038900030E044EB52EC0E946CB787FD18C020E08A
:1038A00030E044EB52E4C701B6010E947DB587FFCA
:1038B0000EC0C0929009D0929109E0929209F092C4
:1038C00093098FEF9FE79093260B8093250B299602
:1038D0000FB6F894DEBF0FBECDBFDF91CF911F9121
:1038E0000F91FF90EF90DF90CF900895CF92DF92ED
:1038F000EF92FF920F931F93CF93DF93CDB7DEB775
:103900002F970FB6F894DEBF0FBECDBF1F86198666
:103910001A861B861C861D821E821F8218861982AB
:103920001A821B821C829E01235F3F4F79018E0108
:103930000F5F1F4F28503109AE01475F5F4FBE0137
:10394000615F7F4F0E948657882321F1C984DA8402
:10395000EB84FC8428E23BE64EE65EECC701B60150
:103960000E947DB5882381F020E030E044E353E4F9
:10397000C701B6010E9471B72BED3FE049E450E466
:103980000E9482B56B017C01B701A60188E899E02D
:103990000E9484072F960FB6F894DEBF0FBECDBFEE
:1039A000DF91CF911F910F91FF90EF90DF90CF901B
:1039B0000895CF92DF92EF92FF92CF93DF93EC01C5
:1039C00089859A85089709F05AC08B858B3309F051
:1039D00056C08C858F3909F052C08D858F3F09F014
:1039E0004EC08E858F3F09F04AC08F858F3F09F00A
:1039F00046C0698970E090E080E00E946CB620E0EB
:103A000030E040E853E40E9471B76B017C016889A3
:103A100070E090E080E00E946CB69B01AC01C701B1
:103A2000B6010E9411B520E030E044EB53E40E945F
:103A300071B729EF3FE049E450E40E9482B520E0ED
:103A400030E44CE956E40E9482B520E030E040E0EA
:103A50005FE30E9411B50E9430B66B018091F40CB7
:103A60009091F50C029791F4C6010E94260F1092D6
:103A7000670910926609D0926509C0926409DF91C6
:103A8000CF91FF90EF90DF90CF90089580916409DF
:103A900090916509C816D90639F780916609909109
:103AA00067098630910504F7019690936709809322
:103AB0006609E1CF8F929F92AF92BF92CF92DF9231
:103AC000EF92FF920F931F93CF93DF93CDB7DEB7A3
:103AD0002D970FB6F894DEBF0FBECDBF1D86198699
:103AE0001A861B861C861D821E821F8218868E01E6
:103AF0000F5F1F4F9E012B5F3F4FAE01475F5F4F30
:103B0000BE01635F7F4F0E94C158882309F448C0FB
:103B10008D809E80AF80B884C984DA84EB84FC8475
:103B200028E23BE64EE65EECC501B4010E947DB59D
:103B30008823F1F020E030E0A901C501B4010E9422
:103B40007DB58823A9F028E23BE64EE65EECC7018E
:103B5000B6010E947DB5882319F1A7019601C50120
:103B6000B4010E9411B52FEB3EE04CE95EE310C0BA
:103B700028E23BE64EE65EECC701B6010E947DB549
:103B8000882371F02FEB3EE04CE95EE3C701B601FC
:103B90000E9482B5AB01BC0188E899E00E94BD0497
:103BA0002D960FB6F894DEBF0FBECDBFDF91CF913B
:103BB0001F910F91FF90EF90DF90CF90BF90AF904B
:103BC0009F908F900895CF92DF92EF92FF920F9384
:103BD0001F93CF93DF9300D000D000D01F921F928D
:103BE000CDB7DEB71B861D821E821F821886198202
:103BF0001A821B821C828E010F5F1F4F9E012B5F5A
:103C00003F4FAE01475F5F4FBE01655F7F4F0E9430
:103C1000345A8823B1F1CD80DE80EF80F88428E229
:103C20003BE64EE65EECC701B6010E947DB58823F7
:103C300081F020E030E044E353E4C701B6010E9484
:103C400071B72BED3FE049E450E40E9482B56B016F
:103C50007C01B701A60188E899E00E94DD0888236D
:103C600081F021EA32EB43E05FE369817A818B8165
:103C70009C810E9482B5AB01BC0188E899E00E945A
:103C80000C092B960FB6F894DEBF0FBECDBFDF91A7
:103C9000CF911F910F91FF90EF90DF90CF900895FB
:103CA000CF92DF92EF92FF920F931F93CF93DF9308
:103CB00000D000D000D01F921F92CDB7DEB71D827A
:103CC0001E821F82188619821A821B821C828E0114
:103CD000075F1F4F9E012F5F3F4FAE014B5F5F4F4E
:103CE000BE01655F7F4F0E94195F8823A1F125EE19
:103CF0003FEC48EF5FE36D817E818F8198850E9464
:103D000071B7AB01BC0188E899E00E944106C98007
:103D1000DA80EB80FC8028E23BE64EE65EECC701F1
:103D2000B6010E947DB5882381F020E030E044E3B5
:103D300053E4C701B6010E9471B72BED3FE049E49F
:103D400050E40E9482B56B017C01B701A60188E8AE
:103D500099E00E9438052B960FB6F894DEBF0FBE8F
:103D6000CDBFDF91CF911F910F91FF90EF90DF902A
:103D7000CF9008950F931F93CF93DF9300D000D07F
:103D80001F921F92CDB7DEB71D821E821F8218863A
:103D900019821A821B821C82AE014F5F5F4FBE01E7
:103DA0006B5F7F4F0E947E59882361F009811A81E1
:103DB0002B813C814D815E816F81788588E899E017
:103DC0000E94780628960FB6F894DEBF0FBECDBFCE
:103DD000DF91CF911F910F9108958F929F92AF9293
:103DE000BF92CF92DF92EF92FF920F931F93CF93E8
:103DF000DF93CDB7DEB7AD970FB6F894DEBF0FBE39
:103E0000CDBF1DA61AA619A61D8E1E8E1F8E18A226
:103E1000198E1A8E1B8E1C8E1D8A1E8A1F8A188E62
:103E2000198A1A8A1B8A1C8A1D861E861F86188A72
:103E300019861A861B861C861D821E821F82188682
:103E40001BA61AA219A219821A821B821C829E0129
:103E50002F5F3F4F3F932F93205E3F4F3F932F9312
:103E60002E5F3F4F3F932F93285F3F4F3F932F93FA
:103E7000265231093F932F932C5F3F4F3F932F934F
:103E80002C5F3F4F3F932F93215E3F4F3F932F93E4
:103E90002750310949012E5F3F4F59012651310901
:103EA00069012C5F3F4F79018E01075E1F4F285F2C
:103EB0003F4FAE01475D5F4FBE01635D7F4F0E9484
:103EC000DC5B0FB6F894DEBF0FBECDBF882321F1B7
:103ED000C98CDA8CEB8CFC8C20E034E244E759ECA2
:103EE000C701B6010E947DB587FD16C08D889E88EA
:103EF000AF88B88C20E034E244E759ECC501B40146
:103F00000E947DB587FD08C095018401B701A60117
:103F100088E899E00E947806AD960FB6F894DEBF67
:103F20000FBECDBFDF91CF911F910F91FF90EF900A
:103F3000DF90CF90BF90AF909F908F9008952F9279
:103F40003F924F925F926F927F928F929F92AF9229
:103F5000BF92CF92DF92EF92FF920F931F93CF9376
:103F6000DF9300D000D0CDB7DEB7FC014380548092
:103F700065807680F4E04F16F9EF5F06F1E06F069A
:103F8000710409F0FBC0160127011E830D833C83D9
:103F90002B833A018B016C011A821982BE016F5F7B
:103FA0007F4F0E942D60F801808318E2E12E1BE60E
:103FB000F12E0EE61EEC9E012F5F3F4F4AE057EDBB
:103FC00063E27CE3C6010E945669F301608371835A
:103FD00082839383BE016F5F7F4FC6010E942D6075
:103FE000282F30E0482F437050E0EB81FC81518353
:103FF0004083A90155954795559547954370552799
:1040000091E0452B09F490E0ED81FE81908394E0EE
:10401000359527959A95E1F72370332791E0232B67
:1040200009F490E0F20190838295869586958370DD
:1040300090E0F1019183808318E2E12E1BE6F12EDE
:104040000EE61EEC9E012F5F3F4F47E157EB61EDFF
:1040500078E3C6010E945669F5016083718382830B
:1040600093834FEF5FEFBE016F5F7F4FC6010E94EA
:104070007668F401918380839E012F5F3F4F47E173
:1040800057EB61ED78E3C6010E948A68EC8DFD8DE7
:1040900060837183828393839E012F5F3F4F47E14B
:1040A00057EB61ED78E3C6010E948A68EE8DFF8DC3
:1040B00060837183828393832FEF3FEFA901BE0159
:1040C0006F5F7F4FC6010E941369E8A1F9A1608369
:1040D0002FEF3FEFA901BE016F5F7F4FC6010E9426
:1040E0001369EAA1FBA160839E012F5F3F4F45E961
:1040F0005FEB66ED73E3C6010E94726AECA1FDA15D
:1041000060837183828393839E012F5F3F4F45E9D4
:104110005FEB66ED73E3C6010E94726AEEA1FFA138
:1041200060837183828393839E012F5F3F4F4AE0B8
:1041300057ED63E27CE3C6010E940B68E8A5F9A590
:10414000608371838283938381E026960FB6F8940F
:10415000DEBF0FBECDBFDF91CF911F910F91FF90BA
:10416000EF90DF90CF90BF90AF909F908F907F9017
:104170006F905F904F903F902F90089580E0E5CF33
:104180008F929F92AF92BF92CF92DF92EF92FF9267
:104190000F931F93CF93DF93CDB7DEB7A7970FB6DB
:1041A000F894DEBF0FBECDBF1FA2198E1A8E1B8ED4
:1041B0001C8E1EA21DA21D8A1E8A1F8A188E1E8E8C
:1041C0001D8E198A1A8A1B8A1C8A1D861E861F86C6
:1041D000188A1CA21BA219861A861B861C861D82A1
:1041E0001E821F82188619821A821B821C829E01DF
:1041F0002F5F3F4F3F932F932C5F3F4F3F932F9362
:104200002C5F3F4F3F932F93265E3F4F3F932F935B
:104210002F5F3F4F3F932F93275131093F932F93A8
:104220002C5F3F4F3F932F93245F3F4F490128500E
:1042300031095901265F3F4F69012A5F3F4F7901DC
:104240008E010A5D1F4F24503109AE01475E5F4F5A
:10425000BE01695D7F4F0E949F1F0FB6F894DEBFBD
:104260000FBECDBF882361F02D813E814F815885DF
:1042700069857A858B859C850AEB15E00E94660E20
:10428000A7960FB6F894DEBF0FBECDBFDF91CF91DA
:104290001F910F91FF90EF90DF90CF90BF90AF9064
:1042A0009F908F900895CF93DF93EC018B819C8139
:1042B000AD81BE8188309F4FA105B105F1F489859C
:1042C0009A850697D4F08B858B33B9F48C858F391A
:1042D000A1F48D858F3F89F48F858A3321F48FEF88
:1042E0009FEF0E94F50E8E85811113C08F858D3151
:1042F00039F41092790910927809DF91CF910895DD
:104300008035D9F781E090E090937909809378091E
:10431000F4CF813091F78F858D3179F782E090E08D
:10432000F3CFCF92DF92EF92FF92CF93DF93EC0126
:1043300090E080E00E946CB620E030E040E853E47A
:104340000E9471B76B017C01BE0190E080E00E9489
:104350006CB69B01AC01C701B6010E9411B520E00B
:1043600030E044EB53E40E9471B729EF3FE049E4A9
:1043700050E40E9482B520E030E44CE956E40E940B
:1043800082B520E030E040E05FE30E9411B50E947A
:1043900030B6CB01DF91CF91FF90EF90DF90CF90BF
:1043A00008954F925F926F927F928F929F92AF92F9
:1043B000BF92CF92DF92EF92FF920F931F93CF9312
:1043C000DF931F921F92CDB7DEB7FC0183819481EA
:1043D000A581B68180339F4FA140B10509F04AC045
:1043E0008185928541970CF445C083858B3309F014
:1043F00041C084858F39F1F56F011A821982BE019F
:104400006F5F7F4FCF010E942D6089819A81059651
:104410009A83898318E2E12E1BE6F12E0EE61EEC4C
:104420009E012F5F3F4F4AE057ED63E27CE3C601F8
:104430000E9456694B015C01F601028D10E0102FBD
:104440000027818D080F111D608D70E0878990E035
:104450000E9491216C012801110F66087708C5019F
:10446000B4010E9437B6AB01BC0193018201C601C1
:104470000E94580F0F900F90DF91CF911F910F91D5
:10448000FF90EF90DF90CF90BF90AF909F908F9074
:104490007F906F905F904F900895CF92DF92EF9250
:1044A000FF920F931F93CF93DF93CDB7DEB7CF5E0D
:1044B000D1090FB6F894DEBF0FBECDBFF12CE12CB1
:1044C00000E010E0980146E06FE0CE0101960E9406
:1044D000E65F80912D0B90912E0B181619060CF0AB
:1044E00046C0019790932E0B80932D0B80912F0B3C
:1044F0009091300B019797FD35C09093300B8093CE
:104500002F0B84EC99E00E94F6A320E831E541E00E
:1045100050E00E9444B469010E946CB69B01AC015A
:1045200010E000E0B601CE0101960E94FF5C50E071
:1045300040E0BE016F5F7F4F8091A50C9091A60C6B
:104540000E94887EC151DF4F0FB6F894DEBF0FBEC8
:10455000CDBFDF91CF911F910F91FF90EF90DF9032
:10456000CF9008951092300B10922F0BCACF80E09D
:10457000E9CF8F929F92AF92BF92CF92DF92EF924C
:10458000FF920F931F93CF93DF93CDB7DEB7CF5E2C
:10459000D1090FB6F894DEBF0FBECDBFF12CE12CD0
:1045A00000E010E0980146E06FE0CE0101960E9425
:1045B000E65F80911D0B90911E0B18161906ACF04A
:1045C00080E0C151DF4F0FB6F894DEBF0FBECDBF04
:1045D000DF91CF911F910F91FF90EF90DF90CF90DF
:1045E000BF90AF909F908F900895019790931E0B6E
:1045F00080931D0BC0909C09D0909D09E0909E096E
:10460000F0909F09C701B6019F772AE037ED43E29A
:104610005CE30E946CB718169CF68090A9099090F4
:10462000AA09A090AB09B090AC09C501B4019F776D
:104630002AE037ED43E25CE30E946CB718160CF0F9
:10464000BFCF95018401B701A601CE0101960E945A
:10465000365950E040E0BE016F5F7F4F8091A50C5E
:104660009091A60C0E94887EACCF8F929F92AF92C1
:10467000BF92CF92DF92EF92FF920F931F93CF934F
:10468000DF93CDB7DEB7CF5ED1090FB6F894DEBFAA
:104690000FBECDBFF12CE12C00E010E0980146E008
:1046A0006FE0CE0101960E94E65F2091210B3091D0
:1046B000220B121613060CF065C08091230B90910B
:1046C000240B181619060CF05DC0215031093093E7
:1046D000220B2093210B01979093240B8093230BA3
:1046E000C090BE09D090BF09E090C009F090C10908
:1046F0008090BA099090BB09A090BC09B090BD0908
:1047000028E23BE64EE65EECC501B4010E947DB5B1
:10471000882381F020E030E044E353E4C501B40194
:104720000E9482B52BED3FE049E450E40E9471B74E
:104730004B015C019501840150E040E061E0CE0155
:1047400001960E94D65950E040E0BE016F5F7F4F56
:104750008091A50C9091A60C0E94887EC151DF4FDC
:104760000FB6F894DEBF0FBECDBFDF91CF911F9182
:104770000F91FF90EF90DF90CF90BF90AF909F9000
:104780008F90089580E0EACF4F925F926F927F9270
:104790008F929F92AF92BF92CF92DF92EF92FF9251
:1047A0000F931F93CF93DF93CDB7DEB7CF5ED109C1
:1047B0000FB6F894DEBF0FBECDBFF12CE12C00E0A8
:1047C00010E0980146E06FE0CE0101960E94E65F9E
:1047D0008091110B9091120B181619060CF09BC0CA
:1047E00001979093120B8093110B84EC99E00E9437
:1047F000F6A38090A9099090AA09A090AB09B09067
:10480000AC09C0909C09D0909D09E0909E09F09061
:104810009F0920E831E541E050E00E9444B42901BD
:104820000E946CB68B019C018091040B8F93809148
:10483000030B8F938091020B8F938091010B8F93C9
:104840008091060B8F938091050B8F931F921F927F
:1048500081E08F938091000B8F938091FF0A8F935B
:104860008091FE0A8F938091FD0A8F931F921F9271
:104870001F921F928091F80A8F938091F70A8F936D
:104880008091F60A8F938091F50A8F938091F30AB5
:104890008F938091F20A8F938091F10A8F931F92E8
:1048A0001F928091FC0A8F938091FB0A8F938091D5
:1048B000FA0A8F938091F90A8F93A20161E0CE01E9
:1048C00001960E94A15A50E040E0BE016F5F7F4F09
:1048D0008091A50C9091A60C0E94887E0FB6F8944A
:1048E000DEBF0FBECDBFC151DF4F0FB6F894DEBFA4
:1048F0000FBECDBFDF91CF911F910F91FF90EF9031
:10490000DF90CF90BF90AF909F908F907F906F90EF
:104910005F904F90089580E0E6CFAF92BF92CF9224
:10492000DF92EF92FF920F931F93CF93DF93CDB758
:10493000DEB7CF5ED1090FB6F894DEBF0FBECDBF94
:104940005C01F12CE12C00E010E0980146E06FE002
:10495000CE0101960E94E65F8091250B9091260B77
:10496000181619060CF04DC01092260B1092250B4C
:10497000C0909009D0909109E0909209F09093092D
:1049800028E23BE64EE65EECC701B6010E947DB52B
:10499000882381F020E030E044E353E4C701B6010E
:1049A0000E9482B52BED3FE049E450E40E9471B7CC
:1049B0006B017C0187017601950141E050E061E0E7
:1049C000CE0101960E940B5850E040E0BE016F5F9F
:1049D0007F4F8091A50C9091A60C0E94887EC151BA
:1049E000DF4F0FB6F894DEBF0FBECDBFDF91CF9182
:1049F0001F910F91FF90EF90DF90CF90BF90AF90FD
:104A0000089580E0ECCF8F929F92AF92BF92EF9289
:104A1000FF920F931F93CF93DF93CDB7DEB7CF5E97
:104A2000D1090FB6F894DEBF0FBECDBFF12CE12C3B
:104A300000E010E0980146E06FE0CE0101960E9490
:104A4000E65F80912D0B90912E0B181619069CF0A5
:104A500080E0C151DF4F0FB6F894DEBF0FBECDBF6F
:104A6000DF91CF911F910F91FF90EF90BF90AF908A
:104A70009F908F900895019790932E0B80932D0B0C
:104A800080912F0B9091300B019797FD2DC0909343
:104A9000300B80932F0B84EC99E00E94F6A320E862
:104AA00031E541E050E00E9444B449010E946CB6F7
:104AB0008B019C01F12CE12CA40161E0CE01019657
:104AC0000E94D55650E040E0BE016F5F7F4F80915D
:104AD000A50C9091A60C0E94887E882309F4B8CF7B
:104AE000C4010E948D24B5CF1092300B10922F0B71
:104AF000D2CFEF92FF920F931F93CF93DF93CDB757
:104B0000DEB7CF5ED1090FB6F894DEBF0FBECDBFC2
:104B1000F12CE12C00E010E0980146E06FE0CE01BE
:104B200001960E94E65F8091310B9091320B18162E
:104B30001906E4F501979093320B8093310B26E52B
:104B40003EE04DEE5FE36091E3097091E4098091EE
:104B5000E5099091E6090E9471B720E030E04AE74C
:104B600054E40E9471B77B018C0120E050E040E0EA
:104B700061E0CE0101960E94415D50E040E0BE013F
:104B80006F5F7F4F8091A50C9091A60C0E94887E4C
:104B9000C151DF4F0FB6F894DEBF0FBECDBFDF911E
:104BA000CF911F910F91FF90EF90089580E0F0CF8B
:104BB0002F923F924F925F926F927F928F929F922D
:104BC000AF92BF92CF92DF92EF92FF920F931F931B
:104BD000CF93DF93CDB7DEB7CF5FD1090FB6F8948F
:104BE000DEBF0FBECDBFF12CE12C00E010E098013C
:104BF00046E06FE0CE0101960E94E65F6091310BC6
:104C00007091320B161617060CF0EBC24091330B65
:104C10005091340B141615060CF0E3C22091350B9D
:104C20003091360B8091370B9091380B121613068A
:104C300024F0181619060CF0D4C261507109709353
:104C4000320B6093310B415051095093340B409318
:104C5000330B2150310937FD40C13093360B20937F
:104C6000350B019797FD3EC19093380B8093370B1E
:104C70008091E7099091E809A091E909B091EA09CA
:104C8000CE50DF4F88839983AA83BB83C25FD04015
:104C90009091EC09C250DF4F9883CE5FD040A09135
:104CA000EB09C150DF4FA883CF5FD04084EC99E07F
:104CB0000E94F6A320E831E541E050E00E9444B4B0
:104CC00019010E946CB63B018C01CA50DF4F68830A
:104CD000C65FD040C950DF4F7882C75FD040C85010
:104CE000DF4F8883C85FD040C750DF4F1883C95F4C
:104CF000D040C051DF4F39822882C05FD0408090C1
:104D0000BE099090BF09A090C009B090C1092DECD8
:104D10003CEC4CEC5DE3C501B4010E946CB7181685
:104D20000CF05CC020E030E0A901CE50DF4F68817C
:104D300079818A819B81C25FD0400E946CB718162E
:104D40000CF04CC0A5019401CE50DF4F68817981F1
:104D50008A819B81C25FD0400E9482B56B017C0139
:104D600020E030E040EC51E40E946CB7181694F457
:104D7000C1010196C051DF4F99838883C05FD04045
:104D800020E030E040EC51E4C701B6010E9410B5CC
:104D90006B017C0120E030E041E655E4C701B6013B
:104DA0000E9471B79B01AC01662D772D802F912F4A
:104DB0000E9411B5CA50DF4F6883C65FD040C9500A
:104DC000DF4F7883C75FD040C850DF4F8883C85F0C
:104DD000D040C750DF4F9883C95FD040C0908E0A43
:104DE000D0908F0AE090900AF090910A20E030E095
:104DF00044EB53ECC701B6010E946CB718160CF0D7
:104E000076C020919009309191094091920950917A
:104E10009309C701B6010E9411B5762E672E582E50
:104E2000492E20E030E044EB53EC0E946CB718169A
:104E30000CF473C0C090B30AD090B40AE090B50AE5
:104E4000F090B60A20E030E044EB53ECC701B60125
:104E50000E946CB718160CF08FC020919009309109
:104E600091094091920950919309C701B6010E949E
:104E700011B5162F072FE82EC92E20E030E044EBA5
:104E800053ECD8016B2F7A2F0E946CB718160CF0D8
:104E9000B8C028E23BE64EE65EECD8016B2F702FDF
:104EA0008E2D9C2D0E947DB5882309F4AAC020E098
:104EB00030E044E353E4D8016B2F702F8E2D9C2DEE
:104EC0000E9482B52BED3FE049E450E40E9471B7A7
:104ED000162F072FE82EC92E94C01092360B109271
:104EE000350BBFCE1092380B1092370BC1CE70909D
:104EF0008A0A60908B0A50908C0A40908D0A20E0BC
:104F000030E044EB53ECD301F2016B2F7A2F8F2F5B
:104F10009E2F0E946CB7181634F528E23BE64EE649
:104F20005EECD301F2016B2F762D8F2F942D0E9412
:104F30007DB5882309F47ECF20E030E044E353E4DC
:104F4000D301F2016B2F762D8F2F942D0E9482B505
:104F50002BED3FE049E450E40E9471B7762E672EB6
:104F6000582E492E67CF28E2722E3BE6632E4EE67E
:104F7000542E5EEC452E5ECF1091AF0A0091B00A20
:104F8000E090B10AC090B20A20E030E044EB53EC6C
:104F9000D8016B2F7A2F8E2D9C2D0E946CB718167E
:104FA0000CF477CFC090690AD0906A0AE0906B0A3F
:104FB000F0906C0A20E030E044EB53ECC701B601FE
:104FC0000E946CB718160CF448CF1091650A009136
:104FD000660AE090670AC090680A20E030E044EB7F
:104FE00053ECD8016B2F7A2F8E2D9C2D0E946CB71D
:104FF00018160CF44ECF18E20BE68EE6E82E9EEC67
:10500000C92E90915D0AC650DF4F9883CA5FD04089
:10501000A0915E0AC550DF4FA883CB5FD04030908F
:105020005F0A2090600AD090610AB091620AC45071
:10503000DF4FB883CC5FD0408091630AC350DF4F0D
:105040008883CD5FD040F090640A26E53EE04DEEC7
:105050005FE3C501B4010E9471B720E030E04AE788
:1050600054E40E9471B720E030E041E655E40E942C
:1050700082B59F938F937F936F93FF92C350DF4FBF
:105080009881CD5FD0409F93C450DF4FA881CC5F03
:10509000D040AF93DF922F923F92C550DF4FB8813F
:1050A000CB5FD040BF93C650DF4F8881CA5FD040EE
:1050B0008F9381E08F938FEF8F93CF92EF920F9327
:1050C0001F934F925F926F927F92CF50DF4F9881E4
:1050D000C15FD0409F93C051DF4FA881C05FD040D7
:1050E000AF93C750DF4FB881C95FD040BF93C8505E
:1050F000DF4F8881C85FD0408F93C950DF4F9881C0
:10510000C75FD0409F93CA50DF4FA881C65FD04091
:10511000AF93B12CA12CC150DF4FC880CF5FD040DE
:10512000C250DF4FE880CE5FD04010E000E0CE50AC
:10513000DF4F288139814A815B81C25FD04061E0C5
:10514000CE0101960E948D5D50E040E0BE016F5F90
:105150007F4F8091A50C9091A60C0E94887EE82E2E
:1051600007EB1AE0C450DF4F6881CC5FD040C350DA
:10517000DF4F9881CD5FD0402D2D362F492F5F2DE9
:10518000C650DF4FB881CA5FD040C550DF4FA881FD
:10519000CB5FD040F1016B2F7A2F8F2F9E2F0E9473
:1051A000660E0FB6F894DEBF0FBECDBF8E2DC15078
:1051B000DF4F0FB6F894DEBF0FBECDBFDF91CF91AA
:1051C0001F910F91FF90EF90DF90CF90BF90AF9025
:1051D0009F908F907F906F905F904F903F902F9017
:1051E0000895E12CE3CF6F927F928F929F92AF92BE
:1051F000BF92CF92DF92EF92FF920F93CF93DF9304
:10520000EC013B014A01590145E059EF61E070E0D2
:105210000E94995F86E08A83B301CE010E94986361
:1052200070E060E0CE010E949863B401CE010E945C
:105230009863B501CE010E949863602F6F70606C17
:1052400080E1E89E700111246E29CE010E94216048
:10525000F601808181111DC063E0CE010E942160B2
:1052600061E0CE010E94216060E0CE010E942160D9
:105270006FEFCE01DF91CF910F91FF90EF90DF9014
:10528000CF90BF90AF909F908F907F906F900C9435
:10529000216001900020E9F76E2F6C196F5FCE013D
:1052A0000E94216061E0CE010E9421605601F6015A
:1052B00001900020E9F73197EC19FD09C5018C191F
:1052C0009D098E179F07A0F6F50161915F01CE0140
:1052D0000E942160ECCF8F929F92AF92BF92CF92AB
:1052E000DF92EF92FF920F931F93CF93DF93CDB78F
:1052F000DEB7CC57D1400FB6F894DEBF0FBECDBF9E
:10530000F12CE12C00E010E0980146E06FE0CE01C6
:1053100001960E94E65F8091310B9091320B181636
:1053200019060CF0BDC08091330B9091340B181608
:1053300019060CF0B5C08091350B9091360B1816FC
:10534000190644F08091370B9091380B1816190606
:105350000CF0A6C086E0E1E0F5E0DE01A958BE4F02
:1053600001900D928A95E1F7CE0189589E4F6C010C
:10537000E12C07E030E020E050E040E070E060E049
:10538000865791400E94F32887E0E7E0F5E0DE01D0
:10539000A059BE4F01900D928A95E1F78090070BBE
:1053A0009090080BA090090BB0900A0BC0900B0BCB
:1053B000D0900C0BE0900D0BF0900E0BC501B401DA
:1053C0009F77A70196015F770E9411B52FE632E122
:1053D00043E85AE30E947DB587FF10C080909C0986
:1053E00090909D09A0909E09B0909F09C090A90936
:1053F000D090AA09E090AB09F090AC099501840126
:10540000AE0140595E4F70E060E0CE0101960E940F
:105410004C5E80905D0A90905E0AA0905F0AB0900A
:10542000600AC090610AD090620AE090630AF0902E
:10543000640A8091B70A67EB7AE0811102C06AEBD7
:1054400075E0CE0180519F4F0E9413BA95018401EF
:10545000AE0140515F4F61E070E0CE0101960E94C5
:105460004C5E50E040E0BE016F5F7F4F8091A50C25
:105470009091A60C0E94887EC458DE4F0FB6F89417
:10548000DEBF0FBECDBFDF91CF911F910F91FF9077
:10549000EF90DF90CF90BF90AF909F908F90089546
:1054A00080E0EACFE0916209F0916309E730F1050D
:1054B000C0F48827E15AF54D8F4F0C9485B4662AC5
:1054C0007F2A8F2A662A962A9F2AAA2A0E94352393
:1054D0008091FA0C882329F061E088E899E00E9425
:1054E000BB0780916209909163090196873091050D
:1054F0000CF065C0909363098093620908950E943F
:10550000032588E899E00E946F058091FA0C8823B2
:1055100041F361E088E899E00E947908E2CF0E94B7
:10552000B92288E899E00E94F504DBCF0E944D2261
:1055300088E899E00E94D8050E94C423D2CF0E9437
:10554000792580910F0B9091100B029754F20E94D5
:105550006B29C7CF80910F0B9091100B8230910572
:1055600074F00E94D82580910F0B9091100B019739
:1055700097FD20C09093100B80930F0BC6CF01971F
:1055800091F70E9485130E94EF0E69EA74E08CEF98
:105590009FE00E9496A70E94270E69EA74E08CEFB4
:1055A0009FE00E9496A76EE075E08CEF9FE00E945E
:1055B000BBA7D9CF1092100B10920F0BA6CF109251
:1055C00063091092620908950F931F93CF93DF939D
:1055D000E8EEFCE01382128288EE93E0A0E0B0E0F7
:1055E00084839583A683B78387EA97E0918380833A
:1055F000E8EDFCE01386128614861586168617865B
:1056000088E290E09183808348EC50E060E070E0B5
:10561000428353836483758380E293E0A0E0B0E02B
:1056200086839783A087B187E8ECFCE01386128617
:10563000148615861686178629E230E0318320838A
:10564000428353836483758386839783A087B1875E
:10565000E8EBFCE0138612861486158616861786FC
:105660002AE230E03183208342835383648375834D
:1056700086839783A087B187E8EAFCE013861286C9
:1056800014861586168617862BE230E03183208338
:10569000428353836483758386839783A087B1870E
:1056A00065E387EA9CE00E94B7A18EE490E00E9447
:1056B000D6ABEC0102E310E025E142E065E30E9495
:1056C0008F54D093A60CC093A50C87E89CE00E9451
:1056D0000B4E8AE69CE00E940B4E89E09CE00E9403
:1056E000A94A88EA9BE00E94A94A87E49BE00E94BD
:1056F000A94AC8E8D9E01092E7091092E809109287
:10570000E9091092EA091092EB091092EC0985E27E
:10571000E9E3F2E0ADEEB9E001900D928A95E1F790
:105720001092120A85E2EDEEF9E0A3E1BAE00190F1
:105730000D928A95E1F785E2EDEEF9E0ACECBAE086
:1057400001900D928A95E1F71092070B1092080BC9
:105750001092090B10920A0B10920B0B10920C0B6B
:1057600010920D0B10920E0B1092100B10920F0B4B
:105770001092120B1092110B1092140B1092130B2B
:105780001092160B1092150B1092180B1092170B0B
:1057900010921A0B1092190B10921C0B10921B0BEB
:1057A00010921E0B10921D0B1092200B10921F0BCB
:1057B0001092220B1092210B1092240B1092230BAB
:1057C0001092260B1092250B1092280B1092270B8B
:1057D00010922A0B1092290B10922C0B10922B0B6B
:1057E00010922E0B10922D0B1092300B10922F0B4B
:1057F0001092320B1092310B1092340B1092330B2B
:105800001092360B1092350B1092380B1092370B0A
:1058100010923A0B1092390B10923C0B10923B0BEA
:1058200010923E0B10923D0B1092400B10923F0BCA
:105830001092420B1092410B1092440B1092430BAA
:105840001092460B1092450B188219821A821B8205
:105850001C821D821E821F8280E090E0A0E4B0ECDA
:1058600088879987AA87BB871C861D861E861F8608
:10587000188A198A1A8A1B8A1C8A1D8A1E8A1F8AFC
:10588000198E188E1B8E1A8E1C8E1D8E1E8E1F8ECC
:1058900080E488A319A21AA21BA21CA21EA21DA208
:1058A00018A61FA219A61AA61BA61CA68DA71EA67F
:1058B0001FA618AA19AA1AAA1BAA1CAA1DAA1EAAC0
:1058C0001FAA18AE19AE1BAE1AAE6BEE78E08BECC9
:1058D00099E00E9413BA6BEE78E087ED99E00E94A0
:1058E00013BA1092CA091092C9091092C8091EAEC3
:1058F0001DAE1CAE1092E3091092E4091092E50966
:105900001092E60985E2EDEEF9E0A8E3BAE0019035
:105910000D928A95E1F785E2EDEEF9E0ADE5BAE0AA
:1059200001900D928A95E1F785E2EDEEF9E0A2E8AB
:10593000BAE001900D928A95E1F785E2EDEEF9E08B
:10594000A7EABAE001900D928A95E1F781E090E034
:105950009093F20A8093F10A1092F40A1092F30ADB
:105960001092F50A1092F60A1092F70A1092F80AAD
:105970001092F90A1092FA0A1092FB0A1092FC0A8D
:105980001092FD0A1092FE0A1092FF0A1092000B6C
:105990001092010B1092020B1092030B1092040B49
:1059A0001092060B1092050BDF91CF911F910F9172
:1059B000089587EA97E09093E90C8093E80C0C94A3
:1059C0001A516FE475E08CEF9FE00E94A9A78CEF5D
:1059D0009FE00C9449A56DE375E08CEF9FE00E9479
:1059E000A9A78CEF9FE00C9449A56BE275E08CEFC2
:1059F0009FE00E94A9A78CEF9FE00C9449A580919D
:105A0000160D81112DC08091F60C9091F70C20910C
:105A1000F40C3091F50C8217930739F085E090E093
:105A200090937709809376090895209176093091B3
:105A3000770921153105A1F02150310930937709FB
:105A4000209376098230910511F40C94E12C833077
:105A5000910511F40C94EB2C019711F40C94F52C96
:105A60000895CF93DF93EC018B819C81AD81BE8142
:105A700081159F4EA140B10519F589859A85089732
:105A8000FCF08B858B33E1F48C858F39C9F48D85DF
:105A9000803FB1F48E85813899F48F85843809F080
:105AA0005BC09B898091160D90FF0DC0811102C0D3
:105AB0000E94EB2C83E090E09093F50C8093F40C23
:105AC000DF91CF91089591FF40C0811102C00E94E3
:105AD000E12C82E090E09093F50C8093F40C80919F
