:100000000C9441040C94CB7E0C94F67E0C94217FCE
:100010000C944C7F0C94777F0C94A27F0C94CD7F32
:100020000C94F87F0C9472040C9472040C94720477
:100030000C9472040C9472040C9472040C94720468
:100040000C9472040C9472040C9472040C94720458
:100050000C9472040C9472040C9472040C947780C7
:100060000C9472040C94CA7B0C94007C0C94720463
:100070000C9472040C9472040C9472040C94720428
:100080000C9472040C9472040C9472040C94720418
:100090000C94AA2E0C94D42E0C9472040C9472041A
:1000A0000C9472040C9472040C9472040C947204F8
:1000B0000C9472040C9472040C94B02C0C94022CCA
:1000C0000C944F2D0C9472040C9472040C941D2FFC
:1000D0000C94472F0C9472040C94617C0C94977CC4
:1000E0000C947204D26CF36C116D2F6D7F6D546D96
:1000F0007F6DB574EA74F1740B75F1740B75D3747C
:1001000032751E77347746774E775C7788776477D9
:1001100072777A778877A57E6F7E777E837E907EF2
:10012000B17EBE7EAB81AE819D81A181A781E5813B
:10013000B281B681BC81C081C481CA81CE81D281A5
:10014000E581D881DC81E081898420848D842384C9
:10015000268429842D8430843384368439843C84F5
:100160003F844284458449844C844F8491845F84D5
:10017000628487846584878469846C8470848784BE
:100180008784738477847A847E848184878484845A
:100190000C94907E0C945F800C941E770C94871ABC
:1001A0000C94D5330C949D810C94F36C0C947C18B6
:1001B0000C94CE810C942F6D0C9472770C94126F6A
:1001C0000C94212B0C9426840C945C6F0C94AE81BF
:1001D0000C948F7A0C94A57E0C94D3740C9439846F
:1001E0000C94FC2B0C94F87C0C9463330C94B17E2F
:1001F0000C94CA6A0C94980A0C946D7A0C94CA8177
:100200000C942D720C94D86A0C94B2810C943F8497
:100210000C946F7E0C949D710C9477840C947A846A
:100220000C944C840C945F840C94C17C0C94848456
:100230000C94D2810C94CD6E0C9434770C94887706
:100240000C94F1740C9473840C94116D0C9492734F
:100250000C940B750C9442840C949D6C0C942D841E
:100260000C9420840C94546D0C94B5740C94B68149
:100270000C94E5810C940B2B0C949E310C946A6EBB
:100280000C9429840C946C840C9460300C94BC30D5
:100290000C94BE7E0C94E0810C94AE2C0C94918452
:1002A0000C94437B0C947F6D0C94777E0C94FE2E03
:1002B0000C9436840C9433840C945C770C947E8478
:1002C0000C94ED700C944E770C9469840C94CB7C58
:1002D0000C9465840C9487840C944F840C949E7ABF
:1002E0000C9462840C94617A0C9489840C944984F3
:1002F0000C947F400C9446770C947B7A0C94A181EB
:100300000C94712F0C946C190C9423840C94583019
:100310000C94DA6A0C94BC810C94A7810C948184AF
:100320000C94D8810C943C840C942A7C0C947A779D
:100330000C94A5750C9464770C94D26C0C94837E09
:100340000C9468380C9470840C94EA740C94458472
:100350000C94C0810C94DC810C94567E0C94C48166
:100360000C9469330C9432750C94FD6F0C948D844D
:100370000C9430840C94FC7A0C94AB810C94342B48
:100380000C94347C4042474250552C436F75727335
:10039000652C004042474250552C547261636B2CCF
:1003A00046616C7365004042474250552C5472615F
:1003B000636B2C54727565004042474250552C5671
:1003C000616E652C46616C73650040424742505532
:1003D0002C56616E652C5472756500404247425040
:1003E000552C547261636B2C46616C7365004042FE
:1003F000474250552C547261636B2C5472756500E2
:100400004042474250552C56616E652C46616C73D4
:1004100065004042474250552C56616E652C54721F
:10042000756500244E474250552A3445004E4D45CF
:10043000415F5041525345525F4E4F54434F4D50D0
:100440004C4554452C206E6F7420636F6D706C6545
:100450007465207E7E00244E474250552A34450064
:100460004E4D45415F5041525345525F43484543CD
:100470004B53554D4552522C204552524F5220213C
:1004800021000900095472616E736C6174655365D3
:100490006174616C6B417570696C6F74436F6D6DE5
:1004A000616E64546F4E454D413230303028293AE8
:1004B000200020556E6B6E6F776E0020506F776551
:1004C000724F6E002045787465726E616C00204238
:1004D000726F776E6F757400205761746368646F14
:1004E00067004661696C004F70656E00404247428C
:1004F00050552C43414E2C004042474250552C420F
:100500004F4F5420566572002066696E652E002C90
:100510002048656C6C6F2C204920616D20004042A2
:10052000474250552C566572004042474250552C68
:1005300053746565722C004042474250552C436FFE
:10054000757273652C004042474250552C417574BA
:100550006F2C46616C7365004042474250552C41F8
:1005600075746F2C53746565720040424742505554
:100570002C4175746F2C54727565009000A4900026
:10058000A30020446174613A00204C656E3A00205B
:10059000446573743A0020536F757263653A0020A6
:1005A00050474E3A005072693A00203A2000002C21
:1005B00000537461727420616464726573732063A4
:1005C0006C61696D20666F72206465766963652071
:1005D000002073656E64206661696C6564002F009D
:1005E0002C206672616D653A0050474E20002073E2
:1005F000656E64206661696C65640050474E20003A
:1006000043414E20646576696365206661696C6567
:100610006420746F206F70656E0043414E206465E6
:10062000766963652072656164790000004E4D450E
:100630004132303030206C6962726172792C2068EE
:10064000747470733A2F2F6769746875622E636FC4
:100650006D2F74746C617070616C61696E656E2F62
:100660004E4D4541323030300035089A02417264B7
:1006700075696E6F204E326B2D3E504300000000B6
:100680000000000000000000000000000000312E0B
:10069000302E302E3000000000000000000000006E
:1006A0000000000000000000000000000000003119
:1006B0002E302E300000000000000000000000007E
:1006C000000000000000000000000000000000002A
:1006D0003030303030303031000000000000000099
:1006E000000000000000000000000000000000000A
:1006F00000000100E8000000EA000000EB0000003C
:10070000EC000000EE0000D8FE000000ED0100004B
:1007100000000000E8000000EA000000EB0000001C
:10072000EC000000EE000000ED010000EE01001101
:10073000F0010014F0010016F001000000000000BC
:10074000000B0C030A0D0E0F09080405020000003F
:100750000000000000000000000000000000000099
:100760000000000000000000000000131211000053
:100770000000000000000000000000000000000079
:100780000000000000000000000000000000000069
:100790000000000000010210202008081020401076
:1007A0002040800201020108040201010204081035
:1007B0002040808040201008040201800402018053
:1007C000402010080402010804020101020408107C
:1007D00020408001020408102040800440800480F2
:1007E000081010204004081020408005050505076A
:1007F0000508080808020202020A0A08080404049C
:1008000004010101010101010103030303030303C7
:1008100003040707070C0C0C0C0C0C0C0C02020256
:100820000206060606060606060B0B0B0B0B0B0B49
:100830000B050505080807070404040A0A0A0A0A42
:100840000A00002200250028002B002E0031003471
:100850000002010000050108010B01000021002435
:100860000027002A002D00300033000101000004A1
:100870000107010A01007C18FE2E712F347CCB7C0D
:100880006C1911241FBECFEFD1E2DEBFCDBF00E057
:100890000CBF19E0A0E0B2E0EEE7F2E201E00BBF2E
:1008A00002C007900D92AA3FB107D9F720E1AAEF45
:1008B000B9E001C01D92A23BB207E1F714E0C0E429
:1008C000D4E000E006C021970109802FFE010E94BC
:1008D0002D89CB33D10780E00807A9F70E946280F9
:1008E0000C942D910C940000CF92DF92EF92FF9226
:1008F000CF93DF93EC016A017B012FE632E143E8FD
:100900005AEBC701B6010E94788B1816ECF420E070
:1009100030E84BE355E4C701B6010E94C58987FF63
:1009200013C0C882D982EA82FB82FE01E85BFF4FD6
:100930008081918106968730910514F086E090E0E1
:100940009183808381E001C080E0DF91CF91FF90AF
:10095000EF90DF90CF9008950F931F93CF93DF9385
:10096000CDB7DEB7C456D1090FB6F894DEBF0FBEBF
:10097000CDBF8C01CE0101960E94CD22085B1F4F96
:10098000F8018081918118161906F4F44091180A33
:100990005091190A60911A0A70911B0ACE010196B2
:1009A0000E946F26CE0101960E94D3220E944B0D19
:1009B000F80180819181019797FD03C09183808325
:1009C00003C0F80111821082CC59DF4F0FB6F894A2
:1009D000DEBF0FBECDBFDF91CF911F910F91089564
:1009E000CF92DF92EF92FF92CF93DF93EC016A01F7
:1009F0007B0120E030E0A901C701B6010E94788B9D
:100A000087FD1DC02DEC3CE044EB53E4C701B6016B
:100A10000E94C58987FF13C0C88AD98AEA8AFB8ADF
:100A2000FE01E25BFF4F8081918104968530910544
:100A300014F084E090E09183808381E001C080E045
:100A4000DF91CF91FF90EF90DF90CF900895AF921C
:100A5000BF92CF92DF92EF92FF920F931F93CF93AB
:100A6000DF93CDB7DEB7C456D1090FB6F894DEBF19
:100A70000FBECDBF5C01CE0101960E94CD22650163
:100A80008EE4C80ED11CF6018081918118161906DA
:100A9000ACF57501FCE4EF0EF11CF701808191814A
:100AA000181619065CF5F501048515852685378528
:100AB0004089518962897389CE0101960E94EF2392
:100AC000CE0101960E94D3220E944B0DF601808137
:100AD0009181019797FD03C09183808303C0F60144
:100AE00011821082F70180819181019797FD03C0E7
:100AF0009183808303C0F70111821082CC59DF4FAC
:100B00000FB6F894DEBF0FBECDBFDF91CF911F911E
:100B10000F91FF90EF90DF90CF90BF90AF9008952E
:100B2000AF92BF92CF92DF92EF92FF920F931F93FB
:100B3000CF93DF93CDB7DEB7C456D1090FB6F89483
:100B4000DEBF0FBECDBF5C01CE0101960E94CD225B
:100B500065018EE4C80ED11CF601808191811816C2
:100B60001906ACF57501FCE4EF0EF11CF70180816C
:100B70009181181619065CF5F50104851585268501
:100B800037854089518962897389CE0101960E9417
:100B9000D422CE0101960E94D3220E944B0DF60171
:100BA00080819181019797FD03C09183808303C069
:100BB000F60111821082F70180819181019797FDE2
:100BC00003C09183808303C0F70111821082CC5946
:100BD000DF4F0FB6F894DEBF0FBECDBFDF91CF91D0
:100BE0001F910F91FF90EF90DF90CF90BF90AF904B
:100BF0000895CF92DF92EF92FF92CF93DF93EC01B3
:100C00006A017B0120E030E0A901C701B6010E9422
:100C1000788B87FD1DC020E030E040EA52E4C70138
:100C2000B6010E94C58987FF13C0CC86DD86EE869B
:100C3000FF86FE01E45BFF4F808191810496853041
:100C4000910514F084E090E09183808381E001C0FD
:100C500080E0DF91CF91FF90EF90DF90CF900895EB
:100C60004F925F926F927F928F929F92AF92BF92BC
:100C7000CF92DF92EF92FF920F931F93CF93DF9368
:100C8000CDB7DEB728970FB6F894DEBF0FBECDBF45
:100C90004A015B01680179012A013B01E89477F878
:100CA000C301B2010E943C8A69837A838B839C834F
:100CB00029813A81B901330F880B990B0E947A8AF6
:100CC0009B01AC01C301B2010E94588920E030E0D1
:100CD00040E752E40E947D8B2B013C010E943C8A3C
:100CE0006D837E838F8398872D813E81B901330F79
:100CF000880B990B0E947A8A9B01AC01C301B20157
:100D00000E94588920E030E040E752E40E947D8B49
:100D10000E943C8A2B013C0120E030E0A901C50182
:100D2000B4010E94C58987FD02C08EE401C083E53D
:100D300029813A8130932D0A20932C0A2D813E81FE
:100D400030932F0A20932E0A5092310A4092300A93
:100D50008093320A26013701E89477F8C301B20183
:100D60000E943C8A4B015C01072E000C880B990BFA
:100D70000E947A8A9B01AC01C301B2010E9458898A
:100D800020E030E040E752E40E947D8B2B013C01E3
:100D90000E943C8A69837A838B839C8329813A8170
:100DA000B901330F880B990B0E947A8A9B01AC0121
:100DB000C301B2010E94588920E030E040E752E4CC
:100DC0000E947D8B0E943C8A2B013C0120E030E098
:100DD000A901C701B6010E94C58987FD02C085E44B
:100DE00001C087E59092340A8092330A29813A81C2
:100DF0003093360A2093350A5092380A4092370AC7
:100E00008093390A86E090E09093690A8093680A9B
:100E100081E028960FB6F894DEBF0FBECDBFDF91FC
:100E2000CF911F910F91FF90EF90DF90CF90BF90E7
:100E3000AF909F908F907F906F905F904F900895AC
:100E40000F931F93CF93DF93CDB7DEB7C456D1096D
:100E50000FB6F894DEBF0FBECDBF8C01005B1F4FF5
:100E6000F8018081918118161906B4F4CE0101961B
:100E70000E94C924CE0101960E94D3220E944B0DEC
:100E8000F80180819181019797FD03C09183808350
:100E900003C0F80111821082CC59DF4F0FB6F894CD
:100EA000DEBF0FBECDBFDF91CF911F910F9108958F
:100EB000CF92DF92EF92FF92CF93DF93EC016A0122
:100EC0007B0120E030E0A901C701B6010E94788BC8
:100ED00087FD1DC02DEC3CE044EB53E4C701B60197
:100EE0000E94C58987FF13C0CAA2DBA2ECA2FDA2A3
:100EF000FE01EE5AFF4F8081918102968330910569
:100F000014F082E090E09183808381E001C080E072
:100F1000DF91CF91FF90EF90DF90CF900895CF9227
:100F2000DF92EF92FF920F931F93CF93DF93CDB792
:100F3000DEB7C456D1090FB6F894DEBF0FBECDBFE1
:100F40006C01CE0101960E94CD22760182E5E80E69
:100F5000F11CF7018081918118161906FCF4F60145
:100F6000008511852285338542A153A164A175A115
:100F7000CE0101960E94FD26CE0101960E94D32249
:100F80000E944B0DF70180819181019797FD03C06D
:100F90009183808303C0F70111821082CC59DF4F07
:100FA0000FB6F894DEBF0FBECDBFDF91CF911F917A
:100FB0000F91FF90EF90DF90CF900895EF92FF9206
:100FC0000F931F93CF93DF93CDB7DEB7C456D109EC
:100FD0000FB6F894DEBF0FBECDBF7C01CE010196E7
:100FE0000E94CD2287010E5A1F4FF8018081918106
:100FF00018161906DCF4F70142A153A164A175A1EA
:10100000CE0101960E946527CE0101960E94D3224F
:101010000E944B0DF80180819181019797FD03C0DB
:101020009183808303C0F80111821082CC59DF4F75
:101030000FB6F894DEBF0FBECDBFDF91CF911F91E9
:101040000F91FF90EF900895EF92FF920F931F93EF
:10105000CF93DF93CDB7DEB7C456D1090FB6F8945E
:10106000DEBF0FBECDBF7C01CE0101960E94CD2216
:1010700087010E5A1F4FF8018081918118161906B9
:101080002CF5F70160857185828593850E943C8AE5
:10109000DC01CB01F70142A153A164A175A19C0120
:1010A000CE0101960E94A427CE0101960E94D32270
:1010B0000E944B0DF80180819181019797FD03C03B
:1010C0009183808303C0F80111821082CC59DF4FD5
:1010D0000FB6F894DEBF0FBECDBFDF91CF911F9149
:1010E0000F91FF90EF900895CF92DF92EF92FF92D1
:1010F000CF93DF93EC016A017B01CB01BA019F77AB
:101100002DEC3CE044EB53E40E94C58987FF13C0FB
:10111000CEA2DFA2E8A6F9A6FE01EA5AFF4F80811F
:10112000918106968730910514F086E090E09183D6
:10113000808381E001C080E0DF91CF91FF90EF904C
:10114000DF90CF900895CF92DF92EF92FF92CF93EE
:10115000DF93EC016A017B012CEA35EC47E257EBA7
:10116000C701B6010E94788B1816ECF420E030E03D
:1011700048EC52E4C701B6010E94C58987FF13C03D
:10118000CAA6DBA6ECA6FDA6FE01EC5AFF4F8081A5
:10119000918106968730910514F086E090E0918366
:1011A000808381E001C080E0DF91CF91FF90EF90DC
:1011B000DF90CF9008956F927F928F929F92AF921F
:1011C000BF92CF92DF92EF92FF920F931F93CF9334
:1011D000DF93CDB7DEB7C456D1090FB6F894DEBFA2
:1011E0000FBECDBF3C01CE0101960E94CD2243012E
:1011F00086E5880E911CF4018081918118161906EC
:10120000CCF55301F4E5AF0EB11CF501808191815D
:10121000181619067CF5F301C2A4D3A4E4A4F5A41E
:10122000008511852285338546A157A160A571A54A
:10123000CE0101960E943823CE0101960E94D3224E
:101240000E944B0DF40180819181019797FD03C0AD
:101250009183808303C0F40111821082F5018081A3
:101260009181019797FD03C09183808303C0F501AD
:1012700011821082CC59DF4F0FB6F894DEBF0FBE3B
:10128000CDBFDF91CF911F910F91FF90EF90DF9035
:10129000CF90BF90AF909F908F907F906F90089568
:1012A0008F929F92AF92BF92CF92DF92EF92FF9276
:1012B0000F931F93CF93DF93CDB7DEB7C456D109F9
:1012C0000FB6F894DEBF0FBECDBF4C012AE5820EEB
:1012D000911CF401208131818C010C5A1F4F121690
:1012E00013060CF047C05C01FCE5AF0EB11CF50124
:1012F0002081318112161306ECF5F801208131812D
:1013000012161306BCF56C01F6E5CF0ED11CF601E2
:1013100020813181121613066CF57C01F0E5EF0E89
:10132000F11CF70120813181121613061CF5CE0144
:1013300001960E94AB25CE0101960E94D3220E9405
:101340004B0DF40180819181019797FD03C091833A
:10135000808303C0F40111821082F50180819181A4
:10136000019797FD03C09183808329C0F501118205
:10137000108225C0F80120813181121613060CF06D
:1013800042C06C01F6E5CF0ED11CF60120813181FF
:1013900012161306C4F57C01F0E5EF0EF11CF701FF
:1013A000808191811816190674F5CE0101960E946C
:1013B0001025CE0101960E94D3220E944B0DF80108
:1013C00080819181019797FD03C09183808303C041
:1013D000F80111821082F60180819181019797FDB9
:1013E00003C09183808303C0F60111821082F7014C
:1013F00080819181019797FD03C09183808303C011
:10140000F70111821082CC59DF4F0FB6F894DEBF7E
:101410000FBECDBFDF91CF911F910F91FF90EF9045
:10142000DF90CF90BF90AF909F908F9008959B01D9
:10143000275A3F4F233B310588F4FC0177A766A765
:10144000E85AFF4F8081918106968730910514F00C
:1014500086E090E09183808381E0089580E00895A4
:10146000EF92FF920F931F93CF93DF93CDB7DEB729
:10147000C456D1090FB6F894DEBF0FBECDBF7C01B4
:10148000CE0101960E94CD228701085A1F4FF80114
:101490008081918118161906CCF4F70166A577A50D
:1014A000CE0101960E94EF27CE0101960E94D32221
:1014B0000E944B0DF80180819181019797FD03C037
:1014C0009183808303C0F80111821082CC59DF4FD1
:1014D0000FB6F894DEBF0FBECDBFDF91CF911F9145
:1014E0000F91FF90EF9008950C94300ACF93DF9303
:1014F000EC010E94AC04CE010E949005CE010E9436
:101500002007CE010E948F07CE010E94DE07CE0188
:101510000E942408CE010E945009CE010E94300A88
:10152000CE010E94DB08CE01DF91CF910C942705FC
:1015300080E090E008952F923F924F925F926F92D9
:101540007F928F929F92AF92BF92CF92DF92EF9253
:10155000FF920F931F93CF93DF93CDB7DEB72C97F6
:101560000FB6F894DEBF0FBECDBF98878F83FC0106
:101570008481282F30E03C832B83A580B12CBA2CAA
:10158000AA248681A82AB50180E090E00E94788A8A
:1015900020E030E04AE754E40E94CA890E943C8A75
:1015A0006B017C01C50168EE73E00E94C4881C01D8
:1015B000EF81F885F381F983F4FD03C02EE42A83DB
:1015C00002C033E53A83B101032C000C880B990B60
:1015D0000E947A8A20E030E04AE754E40E94CA89F7
:1015E0002B013C01B6010D2C000C880B990B0E94BD
:1015F0007A8A9B01AC01C301B2010E94598920E0A3
:1016000030E040E752E40E94CA892B013C01EB81A3
:10161000FC81BF01FF0F880B990B0E947A8A9B0106
:10162000AC01C301B2010E9459892B013C019F7793
:101630002FE632E143E85AE30E94C58987FD34C1B1
:101640002091680A3091690A3E832D83232B09F487
:101650004AC06091300A7091310A072E000C880B45
:10166000990B0E947A8A20E030E04AE754E40E9415
:10167000CA894B015C0160912E0A70912F0A072ED6
:10168000000C880B990B0E947A8A9B01AC01C50162
:10169000B4010E94598920E030E040E752E40E9402
:1016A000CA894B015C0160912C0A70912D0A072EAA
:1016B000000C880B990B0E947A8A9B01AC01C50132
:1016C000B4010E9459899B01AC01C301B2010E947F
:1016D00058899F7720E030E040E05FE30E94788BFC
:1016E00018160CF4E1C0EF81F8858781082F10E00F
:1016F000A084B12CBA2CAA248185A82AB50180E047
:1017000090E00E94788A20E030E04AE754E40E94AA
:10171000CA890E943C8A6F83788789879A87C50126
:1017200068EE73E00E94C4889C878B87F981F5FD81
:1017300003C027E5298302C035E43983EB85FC85A6
:10174000BF01FF0F880B990B0E947A8A20E030E0DE
:101750004AE754E40E94CA894B015C012F81388515
:10176000B901330F880B990B0E947A8A9B01AC0157
:10177000C501B4010E94598920E030E040E752E4FD
:101780000E94CA894B015C01B801012E000C880B34
:10179000990B0E947A8A9B01AC01C501B4010E9499
:1017A00059894B015C019F772FE632E143E85AE308
:1017B0000E94C58987FD78C08D819E81892B09F49F
:1017C00049C06091370A7091380A072E000C880BC7
:1017D000990B0E947A8A20E030E04AE754E40E94A4
:1017E000CA892B013C016091350A7091360A072E97
:1017F000000C880B990B0E947A8A9B01AC01C301F3
:10180000B2010E94598920E030E040E752E40E9492
:10181000CA892B013C016091330A7091340A072E6A
:10182000000C880B990B0E947A8A9B01AC01C301C2
:10183000B2010E9459899B01AC01C501B4010E940B
:1018400058899F7720E030E040E05FE30E94788B8A
:10185000181654F1EB81FC81F0932D0AE0932C0AC9
:10186000D0922F0AC0922E0A3092310A2092300A6A
:10187000FA81F093320A1093340A0093330A2F81CD
:1018800038853093360A2093350A8B859C85909352
:10189000380A8093370A99819093390A86E090E05C
:1018A0009093690A8093680A2C960FB6F894DEBF6D
:1018B0000FBECDBFDF91CF911F910F91FF90EF90A1
:1018C000DF90CF90BF90AF909F908F907F906F9060
:1018D0005F904F903F902F900895CF93DF93EC014E
:1018E00061E088810E94E6811B861A861C861D861F
:1018F0001E861F8660E08881DF91CF910C94228242
:10190000CF92DF92EF92FF920F931F93CF93DF93CB
:10191000EC010E94C1802A853B8521303105D9F434
:101920000C851D852E853F856B017C01C01AD10A6F
:10193000E20AF30A0A811B812C813D81C016D1067F
:10194000E206F30688F11B861A866C877D878E87F0
:101950009F8760E01EC0232B39F50C851D852E85E1
:101960003F856B017C01C01AD10AE20AF30A0E819D
:101970001F8128853985C016D106E206F306A0F03E
:1019800021E030E03B872A876C877D878E879F87A1
:1019900061E08881DF91CF911F910F91FF90EF90CF
:1019A000DF90CF900C942282DF91CF911F910F9105
:1019B000FF90EF90DF90CF900895FC01DB018081D4
:1019C000843211F0813279F493818C9198130BC099
:1019D000948111968C911197981305C081E025810F
:1019E00012969C91291380E00895FC01DB0180810F
:1019F000843211F08132D9F491818C91981317C0FF
:101A0000928111968C911197981311C0938112961F
:101A10008C91129798130BC0948113968C91139705
:101A2000981305C081E0258114969C91291380E0CC
:101A30000895CF93DF932091270C211110C0EC0162
:101A400067E375E086E69FE00E94377D4AE050E05C
:101A5000BE0186E69FE0DF91CF910C943E7EDF9140
:101A6000CF910895CF93DF932091270C211110C0BF
:101A7000EC0169E275E086E69FE00E94377D4AE06E
:101A800050E0BE0186E69FE0DF91CF910C943E7E50
:101A9000DF91CF910895CF93DF93BC01FC010190BA
:101AA0000020E9F73197E81BF90BDC018C918432B7
:101AB00021F0813211F08034D1F43797C4F0909145
:101AC000270C911114C0803431F483E090E1DF9150
:101AD000CF910C947A7DEB0183E090E10E945B7DD5
:101AE000BE0186E69FE0DF91CF910C945B7DDF9194
:101AF000CF910895CF93DF932091270C211122C01D
:101B0000EC016EE175E086E69FE00E94377D69E2B8
:101B10007CE086E69FE00E945B7D6FE075E086E6F4
:101B20009FE00E94377D4AE050E0BE0186E69FE0DC
:101B30000E94E97D68E075E086E69FE0DF91CF9145
:101B40000C94687DDF91CF9108958091270C8111CD
:101B50000CC068EF74E086E69FE00E94377D69E282
:101B60007CE086E69FE00C947A7D08958F92AF9298
:101B7000BF92CF92EF92FF920F931F93CF931F923A
:101B80001F9288248A94AA24AA94BA2CCC24CA949A
:101B900091E5E92E92E0F92E07E512E029E632E020
:101BA00044E650E06AE772E08091D40B9091D50B47
:101BB0000E941D48A12CB12C24E0C22E38EFE32E48
:101BC00037E0F32E0BE422E849E656EB61E070E0E3
:101BD0008091D40B9091D50B0E94754646E161E04F
:101BE00070E08091D40B9091D50B0E94D24867E8A9
:101BF0007AE18091D40B9091D50B0E94DB508091BB
:101C0000D40B9091D50B0E945F5FC82F6CEE74E0EF
:101C100086E69FE00E94377D0F900F90CC2381F0E5
:101C200067EE74E086E69FE00E94687D65E772E0FB
:101C300089E29CE00E94CA8D81E08093280C08C054
:101C400062EE74E086E69FE00E94687D1092280CA8
:101C50008C2FCF911F910F91FF90EF90CF90BF905D
:101C6000AF908F900895CF93C62FBC0186E69FE07A
:101C70000E945B7D4AE050E06C2F86E69FE00E9468
:101C8000E27DC3FF07C068ED74E086E69FE00E9436
:101C9000377DC77FC2FF07C06EEC74E086E69FE029
:101CA0000E94377DCB7FC1FF07C064EC74E086E6FD
:101CB0009FE00E94377DCD7FC0FF07C06BEB74E0D3
:101CC00086E69FE00E94377DCE7FCC2331F062EB29
:101CD00074E086E69FE00E94377D62ED76E086E65E
:101CE0009FE0CF910C947A7DCF93DF930FB6F89459
:101CF000A8958091600088618093600010926000D8
:101D00000FBE87EF84BF9EE088E10FB6F894A895D8
:101D1000809360000FBE9093600069E973E089E2F0
:101D20009CE00E94DE8D63E872E089E29CE00E9404
:101D3000CA8D65E872E089E29CE00E94CA8D61E08C
:101D40008DE00E94E68161E087E00E94E68161E02B
:101D50008DE00E94228287E09CE00E946D0C87EF5C
:101D60009BE00E946D0C87EE9BE00E946D0C87ED5E
:101D70009BE00E946D0C26E040E052EC61E070E0D8
:101D800086E69FE00E94657B40EC52E160E070E0F7
:101D900089E29DE00E94BC2F45E050E060E070E0E9
:101DA00089E29DE00E94507E40EC52E160E070E0EC
:101DB00086E49EE00E94BC2F45E050E060E070E0C9
:101DC00086E49EE00E94507E26E040EC52E160E016
:101DD00070E083E090E10E94657B61EA71E080E061
:101DE00090E00E945C2B64B789E892E00E94330E79
:101DF000A89586ED9BE00E94BA790E94B60D80936B
:101E0000D30BA895C6E0D0E00E94A50D64E670E073
:101E100080E090E00E94F2802197B1F7A895A89504
:101E200081E090E09093120C8093110C61E080911E
:101E3000070CDF91CF910C942282CF93DF93EC01BA
:101E400061E972E00E94DD0C882339F08AEF9FEF90
:101E50009093610A8093600A2DC065E972E0CE011B
:101E60000E94DD0C882339F08EEF9FEF90936B0A70
:101E700080936A0A1FC069E972E0CE010E94DD0CFE
:101E80008111F2CF6DE972E0CE010E94DD0C81116B
:101E9000EBCF61EA72E0CE010E94DD0C882351F0A5
:101EA0008AEF9FEF90936F0A80936E0A90936D0A6A
:101EB00080936C0A65EA72E0CE010E94DD0C8823F3
:101EC00051F08CEF9FEF9093670A8093660A90938E
:101ED000650A8093640ADF91CF9108958F929F9253
:101EE000AF92BF92CF92DF92EF92FF920F931F9328
:101EF000CF93DF93EC014A015B016901E881F9812D
:101F00000190F081E02D19958B829C82AD82BE827A
:101F1000DA86C986DE011B96F801CF01801B910B82
:101F20008E159F051CF481918D93F7CFFE01EE0D68
:101F3000FF1DCF018C1B9D0B8C159D051CF413867A
:101F40003196F7CFDF91CF911F910F91FF90EF90D6
:101F5000DF90CF90BF90AF909F908F900895CF92D9
:101F6000DF92EF92FF920F931F93CF93DF93CDB742
:101F7000DEB7C95FD1090FB6F894DEBF0FBECDBF83
:101F80006C01E12CF12C00E010E0980146E06FE0DC
:101F9000CE0101960E94C3388AE0ECE1F2E0DE0156
:101FA000A051BF4F01900D928A95E1F7B601DD0C6B
:101FB000880B990B0E947A8A2BED3FE049E450E4AC
:101FC0000E947D8B0E943C8AAB01161617061CF4FA
:101FD0004F5F5F4F06C06115710519F0AB014150AD
:101FE0005109942F342F32953F702FE0231B842FFB
:101FF0008F70843010F4845F09C0883010F48C5FD7
:1020000005C08C3010F4845001C08C50CA50DF4F92
:102010009883C65FD04090E030E1239F800D911DF2
:102020001124C750DF4F8883C95FD0408AE0E82E73
:10203000F12C8E0100511F4F2AE030E040E05FEEAE
:1020400061E070E0CE0101960E946E0F40E050E02A
:10205000BE016F5F7F4F8091D40B9091D50B0E9492
:10206000AF54C750DF4F0FB6F894DEBF0FBECDBFE1
:10207000DF91CF911F910F91FF90EF90DF90CF9064
:102080000895BF92CF92DF92EF92FF920F931F932A
:10209000CF93DF93CDB7DEB7C75FD1090FB6F89402
:1020A000DEBF0FBECDBFB82EC62ED42EE12CF12C34
:1020B00000E010E0980146E06FE0CE0101960E943A
:1020C000C33888E0E6E2F2E0DE01A051BF4F0190A4
:1020D0000D928A95E1F7CB50DF4FB882C55FD040B3
:1020E000CA50DF4FC882C65FD040C950DF4FD88288
:1020F000C75FD04088E0E82EF12C8E0100511F4FC1
:1021000026E130E040E05FEE61E070E0CE01019654
:102110000E946E0F40E050E0BE016F5F7F4F8091E4
:10212000D40B9091D50B0E94AF54C950DF4F0FB61E
:10213000F894DEBF0FBECDBFDF91CF911F910F91FD
:10214000FF90EF90DF90CF90BF90089582E090E0F5
:102150009093260C8093250C4EEF61E081E40C9463
:10216000411081E090E09093260C8093250C4DEF78
:1021700062E081E40C94411047EF68E081E40C9444
:10218000411049EF66E081E40C94411048EF67E0AC
:1021900081E40C9441104AEF65E081E40C94411015
:1021A0004DED62E281E40C9441104EED61E281E478
:1021B0000C94411083E090E09093260C8093250CC2
:1021C0004EEE61E181EB0C944110CF939093130A92
:1021D0008093120ABC01990F880B990B0E947A8A8E
:1021E000C1E020910E0A30910F0A4091100A5091DF
:1021F000110A0E94788B18160CF0C0E0C0930A02F6
:1022000080E0CF91089580E090E00C94E5108DED92
:102210009FEF0C94E51083E290E00C94E510FC0134
:10222000DC010D900020E9F71197A81BB90B1A9754
:1022300010F186818C32F9F481858A32E1F487814C
:10224000082E000C990BC0972AE0289FA001299F17
:10225000500D11242085022E000C330B2053310920
:10226000240F351FC90188972550310927343105BE
:1022700010F40C94E51080E008950F931F93CF9312
:10228000DF93EC018B0169EA72E00E94E58D892BF6
:1022900031F0DF91CF911F910F910C94A6106FEB4D
:1022A00072E0CE010E94E58D892B31F0DF91CF9154
:1022B0001F910F910C94B11065ED72E0CE010E9458
:1022C000E58D892B31F0DF91CF911F910F910C9407
:1022D000BC106BEE72E0CE010E94E58D892B31F0CF
:1022E000DF91CF911F910F910C94C11061E073E0C9
:1022F000CE010E94E58D892B31F0DF91CF911F91A6
:102300000F910C94C61067E173E0CE010E94E58D39
:10231000892B31F0DF91CF911F910F910C94CB104D
:102320006DE273E0CE010E94E58D892B31F0DF91E3
:10233000CF911F910F910C94D01063E473E0CE0104
:102340000E94E58D892B31F0DF91CF911F910F9184
:102350000C94D51069E573E0CE010E94E58D892BC0
:1023600031F0DF91CF911F910F910C94DA106FE64D
:1023700073E0CE010E94E58D892B31F0DF91CF9182
:102380001F910F910C94031165E873E0CE010E9438
:10239000E58D892B31F0DF91CF911F910F910C9436
:1023A00007116BE973E0CE010E94E58D892B31F0B6
:1023B000DF91CF911F910F910C940B1161EB73E0A2
:1023C000CE010E94E58D892B39F0CE01DF91CF91AE
:1023D0001F910F910C940F1164E874E086E69FE062
:1023E0000E94377D4AE050E0B80186E69FE00E94F7
:1023F000377E62E874E086E69FE00E94377DBE018A
:1024000086E69FE00E947A7D80E0DF91CF911F9168
:102410000F910895CF93DF93FC0101900020E9F71D
:102420003197E81BF90B369790F0FC01208124329C
:1024300071F4EC016AEA76E00E94F50C811108C0A3
:1024400069EB73E0CE01DF91CF910C94F50C80E045
:10245000DF91CF910895AB01BC01DB01CA019D7FE3
:102460008115984EA105B10509F47FC041158EEE86
:1024700058076105710509F478C0463B9EEF59077E
:102480006105710509F471C048302FEF52076105ED
:10249000710509F46AC0DB01CA01AE7F8A319F4F22
:1024A000A105B10509F461C04F318FEF58076105EF
:1024B000710509F45AC045369FEF5907610571054A
:1024C00009F453C04F3F2FEF52076105710509F41E
:1024D0004CC0413180EF580781E06807710509F46D
:1024E00044C0DB01CA018D7F8431904FA140B1050A
:1024F000E1F1433185EF580781E068077105A9F1E3
:102500004B3099EF590791E06907710571F143303C
:102510002AEF520721E06207710539F1DB01CA0198
:1025200086509D4FA140B1090397A105B105E8F080
:1025300044368FEF580781E068077105B1F04736E0
:102540009FEF590791E06907710579F081E04637FF
:102550002FEF520721E06207710549F047375F4FBF
:102560006140710521F080E0089581E008950895AB
:102570006F342FEF72078105910509F457C0683653
:102580003FEF73078105910509F450C061152DEEE9
:10259000720721E08207910509F448C0603130EFED
:1025A000730731E08307910509F440C0653021EFDE
:1025B000720721E082079105C9F1633131EF73079A
:1025C00031E08307910591F1693121EF720721E034
:1025D0008207910559F1633035EF730731E08307C6
:1025E000910521F1693028EF720721E082079105FA
:1025F000E9F0633039EF730731E083079105B1F0FB
:1026000061302BEF720721E08207910579F021E01C
:1026100064363FEF730731E08307910541F0613184
:102620007E4F8140910519F020E001C021E0822F0A
:102630000895EF92FF920F931F93CF93DF93CDB73F
:10264000DEB7C456D1090FB6F894DEBF0FBECDBFBA
:102650002091270C211119C07C010E94C180AB017F
:10266000BC0104E610E09E012F5F3F4FC7010E94AE
:10267000206A8C01089738F0BE016F5F7F4F86E6B5
:102680009FE00E947A7DC80102C080E090E0CC59B2
:10269000DF4F0FB6F894DEBF0FBECDBFDF91CF91F5
:1026A0001F910F91FF90EF9008958F929F92AF929C
:1026B000BF92CF92DF92EF92FF926A017B01BC0141
:1026C000990F880B990B0E947A8AA70196010E94A4
:1026D00058896B017C0120E030E0A9010E94788BD1
:1026E00046015701181624F0B7FAB094B7F8B09421
:1026F00020E030E048E151E4C701B6010E947D8B43
:102700006B017C0120E030E04CE052E40E94788BC9
:1027100018168CF020E030E04CE052ECC701B60116
:102720000E94C58987FF0DC0C12CD12C7CE0E72E0B
:1027300072ECF72E06C0C12CD12C6CE0E62E62E4C0
:10274000F62E2AE939E949E15FE3C501B4010E94A7
:10275000C58987FF03C080E090E087C020E030E0BB
:1027600040E85FE3C501B4010E94C58987FF21C02D
:1027700020E030E040EC50E4C701B6010E94788BC5
:10278000181684F020E030E040EC50ECC701B601B0
:102790000E94C58987FF64C0C12CD12C50ECE52E66
:1027A000FE2C5EC0C12CD12C40ECE42E40E4F42E73
:1027B00057C020E030E040EC5FE3C501B4010E9467
:1027C000C58987FF22C020E030E040E951E4C7011D
:1027D000B6010E94788B18168CF020E030E040E9BA
:1027E00051ECC701B6010E94C58987FF39C0C12CD1
:1027F000D12C30E9E32E31ECF32E32C0C12CD12C98
:1028000020E9E22E21E4F22E2BC020E030E040E26D
:1028100050E4C501B4010E94C58987FF21C020E0B2
:1028200030E048EC51E4C701B6010E94788B1816DD
:102830008CF020E030E048EC51ECC701B6010E947A
:10284000C58987FF0DC0C12CD12C98ECE92E91ECE5
:10285000F92E06C0C12CD12C88ECE82E81E4F82E8C
:10286000C701B6010E943C8ACB01FF90EF90DF9038
:10287000CF90BF90AF909F908F900C94AF0FCF925E
:10288000DF92EF92FF920F931F93CF93DF93CDB719
:10289000DEB72B970FB6F894DEBF0FBECDBF8E010B
:1028A0000F5F1F4F9E01275F3F4FAE01455F5F4F98
:1028B000BE016B5F7F4F0E943E34882309F489C0BC
:1028C000CD80DE80EF80F88428E23BE64EE65EECC9
:1028D000C701B6010E94C589882381F020E030E05D
:1028E00044E353E4C701B6010E947D8B2BED3FE02A
:1028F00049E450E40E94CA896B017C01C0920E0A2F
:10290000D0920F0AE092100AF092110AC701B601A4
:102910000E943C8A88E19AE00E94170A882309F401
:1029200058C08091230C9091240C039709F051C05A
:102930008091250C9091260C039709F04AC0409194
:102940000E0A50910F0A6091100A7091110A20919D
:102950000A028091120A9091130A0E945513209145
:102960000E0A30910F0A4091100A5091110A60919D
:10297000FE097091FF098091000A9091010A0E945E
:1029800058896B017C0120E030E040E05FE30E9469
:10299000788B181654F020E030E040E05FEBC70180
:1029A000B6010E94C58987FF14C088E19AE00E94A1
:1029B000300A80910E0A90910F0AA091100AB091EE
:1029C000110A8093FE099093FF09A093000AB09327
:1029D000010A2B960FB6F894DEBF0FBECDBFDF9174
:1029E000CF911F910F91FF90EF90DF90CF900895BE
:1029F000CF92DF92EF92FF920F931F93CF93DF93CB
:102A0000CDB7DEB729970FB6F894DEBF0FBECDBFA6
:102A100019861E821D8219821A821B821C828E01D7
:102A20000F5F1F4F9E012B5F3F4FAE01495F5F4F0E
:102A3000BE01675F7F4F0E9430358823F9F0C9805F
:102A4000DA80EB80FC8020E030E0A901C701B6010C
:102A50000E94788B87FD12C020E030E044EB52E406
:102A6000C701B6010E94C58987FF08C0C092200A2D
:102A7000D092210AE092220AF092230A29960FB6F8
:102A8000F894DEBF0FBECDBFDF91CF911F910F91A4
:102A9000FF90EF90DF90CF900895CF92DF92EF926A
:102AA000FF920F931F93CF93DF93CDB7DEB72F978E
:102AB0000FB6F894DEBF0FBECDBF1F8619861A86EB
:102AC0001B861C861D821E821F82188619821A820E
:102AD0001B821C829E01235F3F4F79018E010F5F95
:102AE0001F4F28503109AE01475F5F4FBE01615F44
:102AF0007F4F0E94AB34882321F1C984DA84EB84B0
:102B0000FC8428E23BE64EE65EECC701B6010E947B
:102B1000C589882381F020E030E044E353E4C70115
:102B2000B6010E947D8B2BED3FE049E450E40E940A
:102B3000CA896B017C01B701A60188E19AE00E9475
:102B400058072F960FB6F894DEBF0FBECDBFDF91AA
:102B5000CF911F910F91FF90EF90DF90CF9008954C
:102B6000CF92DF92EF92FF92CF93DF93FC018185AA
:102B70009285089709F070C083858B3309F06CC08B
:102B800084858F3909F068C085858F3F09F064C05E
:102B900086858F3F09F060C087858F3F09F05CC054
:102BA000EF01618970E080E090E00E94788A20E087
:102BB00030E040E853E40E947D8B6B017C01688922
:102BC00070E080E090E00E94788A9B01AC01C70130
:102BD000B6010E94598920E030E044EB53E40E94A2
:102BE0007D8B29EF3FE049E450E40E94CA8920E050
:102BF00030E44CE956E40E94CA8920E030E040E02D
:102C00005FE30E9459890E943C8A6B017C0180919C
:102C1000230C9091240C029739F08091FA0990913D
:102C2000FB09C816D90641F0C6010E94190D109281
:102C3000FD091092FC090CC08091FC099091FD09DE
:102C4000863091058CF701969093FD098093FC09DD
:102C5000D092FB09C092FA09DF91CF91FF90EF90DB
:102C6000DF90CF9008958F929F92AF92BF92CF92B4
:102C7000DF92EF92FF920F931F93CF93DF93CDB725
:102C8000DEB72D970FB6F894DEBF0FBECDBF1D8601
:102C900019861A861B861C861D821E821F82188634
:102CA0008E010F5F1F4F9E012B5F3F4FAE01475FAD
:102CB0005F4FBE01635F7F4F0E949835882309F400
:102CC00048C08D809E80AF80B88428E23BE64EE607
:102CD0005EECC501B4010E94C589C984DA84EB8425
:102CE000FC84882349F020E030E0A901C501B4014B
:102CF0000E94C589811111C028E23BE64EE65EECD8
:102D0000C701B6010E94C589882319F12FEB3EE067
:102D10004CE95EE3C701B60114C028E23BE64EE68B
:102D20005EECC701B6010E94C589882391F0A70116
:102D30009601C501B4010E9459892FEB3EE04CE990
:102D40005EE30E94CA89AB01BC0188E19AE00E945F
:102D500074042D960FB6F894DEBF0FBECDBFDF9181
:102D6000CF911F910F91FF90EF90DF90CF90BF9088
:102D7000AF909F908F900895CF92DF92EF92FF9245
:102D80000F931F93CF93DF93CDB7DEB72B970FB67B
:102D9000F894DEBF0FBECDBF1B861D821E821F8230
:102DA000188619821A821B821C828E010F5F1F4FA8
:102DB0009E012B5F3F4FAE01475F5F4FBE01655FD6
:102DC0007F4F0E9465368823B1F1CD80DE80EF8091
:102DD000F88428E23BE64EE65EECC701B6010E94AD
:102DE000C589882381F020E030E044E353E4C70143
:102DF000B6010E947D8B2BED3FE049E450E40E9438
:102E0000CA896B017C01B701A60188E19AE00E94A2
:102E10007408882381F021EA32EB43E05FE36981A3
:102E20007A818B819C810E94CA89AB01BC0188E1B7
:102E30009AE00E94A3082B960FB6F894DEBF0FBE4F
:102E4000CDBFDF91CF911F910F91FF90EF90DF9059
:102E5000CF900895CF92DF92EF92FF920F931F933E
:102E6000CF93DF93CDB7DEB72B970FB6F894DEBFC5
:102E70000FBECDBF1D821E821F82188619821A8244
:102E80001B821C828E01075F1F4F9E012F5F3F4FE9
:102E9000AE014B5F5F4FBE01655F7F4F0E94F7370A
:102EA0008823A1F125EE3FEC48EF5FE36D817E8141
:102EB0008F8198850E947D8BAB01BC0188E19AE0EF
:102EC0000E94F905C980DA80EB80FC8028E23BE6AD
:102ED0004EE65EECC701B6010E94C589882381F0E9
:102EE00020E030E044E353E4C701B6010E947D8B4B
:102EF0002BED3FE049E450E40E94CA896B017C015C
:102F0000B701A60188E19AE00E94F0042B960FB663
:102F1000F894DEBF0FBECDBFDF91CF911F910F910F
:102F2000FF90EF90DF90CF9008950F931F93CF9372
:102F3000DF93CDB7DEB728970FB6F894DEBF0FBE8C
:102F4000CDBF1D821E821F82188619821A821B82A3
:102F50001C82AE014F5F5F4FBE016B5F7F4F0E94CF
:102F60000D36882361F009811A812B813C814D81C6
:102F70005E816F81788588E19AE00E94300628960C
:102F80000FB6F894DEBF0FBECDBFDF91CF911F917A
:102F90000F9108958F929F92AF92BF92CF92DF923E
:102FA000EF92FF920F931F93CF93DF93CDB7DEB7CE
:102FB000AD970FB6F894DEBF0FBECDBF1DA61AA603
:102FC00019A61D8E1E8E1F8E18A2198E1A8E1B8E8C
:102FD0001C8E1D8A1E8A1F8A188E198A1A8A1B8ABD
:102FE0001C8A1D861E861F86188A19861A861B86CD
:102FF0001C861D821E821F8218861BA61AA219A279
:1030000019821A821B821C829E012F5F3F4F3F93C1
:103010002F93205E3F4F3F932F932E5F3F4F3F9361
:103020002F93285F3F4F3F932F93265231093F93B1
:103030002F932C5F3F4F3F932F932C5F3F4F3F9336
:103040002F93215E3F4F3F932F9327503109490122
:103050002E5F3F4F59012651310969012C5F3F4FC7
:1030600079018E01075E1F4F285F3F4FAE01475D1C
:103070005F4FBE01635D7F4F0E94D2360FB6F8945A
:10308000DEBF0FBECDBF882321F1C98CDA8CEB8C5B
:10309000FC8C20E034E244E759ECC701B6010E9401
:1030A000C58987FD16C08D889E88AF88B88C20E0C2
:1030B00034E244E759ECC501B4010E94C58987FD9B
:1030C00008C095018401B701A60188E19AE00E9439
:1030D0003006AD960FB6F894DEBF0FBECDBFDF91C0
:1030E000CF911F910F91FF90EF90DF90CF90BF9005
:1030F000AF909F908F9008950F931F93CF93DF937E
:10310000E7E1FCE01382128288EE93E0A0E0B0E0F9
:1031100084839583A683B7838FED96E09183808324
:10312000E7E0FCE088E290E09183808348EC50E0A7
:1031300060E070E0428353836483758380E293E0B0
:10314000A0E0B0E086839783A087B187E7EFFBE03C
:1031500029E230E031832083428353836483758383
:1031600086839783A087B187E7EEFBE02AE230E011
:10317000318320834283538364837583868397835B
:10318000A087B187E7EDFBE02BE230E031832083BD
:10319000428353836483758386839783A087B18733
:1031A00065E386ED9BE00E941D788EE490E00E942E
:1031B0007180EC0102E310E025E142E065E30E944A
:1031C0000332D093D50BC093D40B86EB9BE00E94C7
:1031D000312E89E99BE00E94312E88E39BE00E941A
:1031E0003F2987ED9AE00E943F2986E79AE00E94F6
:1031F0003F29E8E1FAE01092610A1092600A109209
:10320000630A1092620A1092650A1092640A109280
:10321000670A1092660A1092690A1092680A109260
:103220006B0A10926A0A10926D0A10926C0A109240
:103230006F0A10926E0A1092710A1092700A109220
:10324000730A1092720A1092750A1092740A108210
:10325000118212821382148215821682178280E0F4
:1032600090E0A0E4B0EC80879187A287B3871486B2
:10327000158616861786108A118A128A138A158A6D
:10328000148A178A168A118E108E80E4828F148E0B
:10329000138E168E158E10A2178E81A312A213A262
:1032A00014A215A216A217A210A611A612A613A662
:1032B00014A615A617A616A666E078E088E49AE09C
:1032C0000E94DE8D66E078E084E59AE0DF91CF91A0
:1032D0001F910F910C94DE8D8FED96E09093180C5A
:1032E0008093170C0C949E2D6AE675E086E69FE0AD
:1032F0000E94687D86E69FE00C94437B68E575E05C
:1033000086E69FE00E94687D86E69FE00C94437B02
:1033100066E475E086E69FE00E94687D86E69FE0B1
:103320000C94437B8091270C81112DC08091250C3A
:103330009091260C2091230C3091240C8217930736
:1033400039F085E090E090930D0A80930C0A08957F
:1033500020910C0A30910D0A21153105A1F0215060
:10336000310930930D0A20930C0A8230910511F433
:103370000C9474198330910511F40C947E19019703
:1033800011F40C9488190895FC01818592850897A1
:1033900059F58091270C811127C083858B3321F546
:1033A00084858F3909F58585803429F40E94741944
:1033B00082E090E011C0803249F40E947E1983E0DF
:1033C00090E09093240C8093230C089581110CC0FD
:1033D0000E94881981E090E09093240C8093230C44
:1033E0001092130A1092120A0895CF93DF93EC0102
:1033F0008B819C81AD81BE8181159F4EA140B1051D
:1034000009F082C089859A8508970CF47DC08B8568
:103410008B3309F079C08C858F3909F075C08D85A3
:10342000803F09F071C08E85813809F06DC08F85AD
:10343000843809F04FC08B8980FF09C00E947E1933
:1034400083E090E09093240C8093230C5DC081FF77
:1034500005C00E94741982E090E004C00E9488199F
:1034600081E090E09093240C8093230C8B8982FF61
:1034700003C06AEC73E002C068EB73E086E69FE08D
:103480000E94687D8B8983FF03C066EA73E002C0F7
:1034900063E973E086E69FE00E94687D89898295F2
:1034A0008695869583709A8996952AE5829FE00194
:1034B0001124C90FD11D64E873E086E69FE00E94E5
:1034C000377D4AE050E0BE0186E69FE0DF91CF9174
:1034D0000C943E7E8D3AC1F488898330A9F46989C1
:1034E000062E000C770B880B990B0E947A8A2BED25
:1034F0003FE049E450E40E94CA890E943C8ACB0123
:10350000DF91CF910C94320DDF91CF910895CF923E
:10351000DF92EF92FF92CF93DF93EC01CB80DC80C0
:10352000ED80FE808091060A9091070A8A3091050D
:1035300028F401969093070A8093060AC701B60102
:103540000E94B81281110AC1C701B6010E942B1254
:10355000811104C187ED9BE00E94800C80E5C816B4
:103560008FEFD806E104F10449F4CE01DF91CF9149
:10357000FF90EF90DF90CF900C94B01583E6C816C3
:103580008FEFD806E104F10449F4CE01DF91CF9129
:10359000FF90EF90DF90CF900C94C419C1148FEE80
:1035A000D80681E0E806F10449F4CE01DF91CF911D
:1035B000FF90EF90DF90CF900C94F5198DE0C81636
:1035C00081EFD80681E0E806F10469F48F81882351
:1035D00009F4C4C0CE01DF91CF91FF90EF90DF904E
:1035E000CF900C943F1482E1C81681EFD80681E099
:1035F000E806F10469F48F81882309F4AFC0CE0195
:10360000DF91CF91FF90EF90DF90CF900C944D150C
:103610008AE1C81681EFD80681E0E806F10449F492
:10362000CE01DF91CF91FF90EF90DF90CF900C947F
:10363000F8148BE0C81685EFD80681E0E806F1049F
:1036400049F4CE01DF91CF91FF90EF90DF90CF90C2
:103650000C94331681E0C81688EFD80681E0E8069E
:10366000F10449F4CE01DF91CF91FF90EF90DF900C
:10367000CF900C94951782E0C81688EFD80681E0A9
:10368000E806F10449F4CE01DF91CF91FF90EF906D
:10369000DF90CF900C94BC1685E0C81688EFD80652
:1036A00081E0E806F10449F4CE01DF91CF91FF906B
:1036B000EF90DF90CF900C94CA1782E0C8168DEF80
:1036C000D80681E0E806F10449F4CE01DF91CF91FC
:1036D000FF90EF90DF90CF900C942A172091270C49
:1036E000D701C6018E50984FA140B1090297A1059C
:1036F000B10590F082E0C8168BEFD80681E0E806AD
:10370000F10451F0D701C60181519B4FA140B1098D
:103710000297A105B10518F4211120C016C021118E
:103720001DC06FEB73E086E69FE00E945B7D2AE0A0
:1037300030E0B701A60186E69FE00E94D57D69ECE6
:1037400073E086E69FE00E945B7DCE01DF91CF9122
:10375000FF90EF90DF90CF900C941913DF91CF91F1
:10376000FF90EF90DF90CF9008958F929F92AF924D
:10377000BF92CF92DF92EF92FF920F931F93CF935E
:10378000DF934C01FC01C181CF70D0E0239685E02E
:10379000C82ED12C89E29DE00E94617A892B59F0D4
:1037A00089E29DE00E94CA2F63E070E080E090E033
:1037B0000E94F280EFCF540121E0E12CF12C11E0C6
:1037C000EC16FD060CF010E0122331F1F501019129
:1037D0005F0110E0E114F10409F41160B80189E21D
:1037E0009DE00E94EF2F63E070E080E090E00E9497
:1037F000F28089E29DE00E94617A892B41F089E2A2
:103800009DE00E94CA2F21E08017910709F020E077
:10381000FFEFEF1AFF0AD3CF211112C022E330E0ED
:1038200040E050E062E070E080E090E00E943D8087
:103830000E94F28081E0C81AD10809F0ABCF01C024
:1038400011E0812FDF91CF911F910F91FF90EF90A9
:10385000DF90CF90BF90AF909F908F900895809110
:103860000A0A90910B0A0A9720F08EE795E00C94D3
:10387000B51B08958F929F92AF92BF92CF92DF9225
:10388000EF92FF920F931F93CF93DF934C01FC01B4
:10389000C181CF70D0E0239685E0C82ED12C86E47C
:1038A0009EE00E94617A892B59F086E49EE00E9496
:1038B000CA2F63E070E080E090E00E94F280EFCFDA
:1038C000540121E0E12CF12C11E0EC16FD060CF086
:1038D00010E0122331F1F50101915F0110E0E114D4
:1038E000F10409F41160B80186E49EE00E94EF2F14
:1038F00063E070E080E090E00E94F28086E49EE069
:103900000E94617A892B41F086E49EE00E94CA2FD2
:1039100021E08017910709F020E0FFEFEF1AFF0A7E
:10392000D3CF211112C022E330E040E050E062E04A
:1039300070E080E090E00E943D800E94F28081E093
:10394000C81AD10809F0ABCF01C011E0812FDF9177
:10395000CF911F910F91FF90EF90DF90CF90BF908C
:10396000AF909F908F9008958091080A9091090AD6
:103970000A9720F08BE795E00C943A1C08950F937A
:103980001F93CF93DF93CDB7DEB7C757D1090FB6DB
:10399000F894DEBF0FBECDBF87E19CE00E94342BC0
:1039A00018161906ACF587E19CE00E940B2B97FDD9
:1039B0002FC0682F87ED9AE00E944E29019741F5AC
:1039C00087EE9BE00E94800C87ED9AE00E94452ADA
:1039D0008C010E941D0FC8010E944B0D6CEA76E01D
:1039E000C8010E94DD0C882399F0B801CE01019630
:1039F0000E940F288091280C811105C0CE018B599F
:103A00009F4F0E94B51BCE018B599F4F0E943A1CBD
:103A1000C958DF4F0FB6F894DEBF0FBECDBFDF91A0
:103A2000CF911F910F9108950F931F93CF93DF9321
:103A3000CDB7DEB7C757D1090FB6F894DEBF0FBEBA
:103A4000CDBF86E49EE00E94617A892B09F442C0D2
:103A500086E49EE00E94CA2F97FD3CC0BC0189E924
:103A60009BE00E943B2E8823A9F187EF9BE00E94F8
:103A7000800C8091080A9091090A8A30910528F4F7
:103A800001969093090A8093080A89E99BE00E94B5
:103A90009E2E8C0189E99BE00E94942EB8010E9421
:103AA000BE2DFC0110810E94B82D412FBC01CE011A
:103AB00001960E94C4286EEC73E086E69FE00E94A7
:103AC0005B7DCE0101960E94D322BC0186E69FE079
:103AD0000E947A7DC958DF4F0FB6F894DEBF0FBE43
:103AE000CDBFDF91CF911F910F910895CF92DF92BB
:103AF000EF92FF920F931F93CF93DF9389E29DE0A4
:103B00000E94617A892B09F48AC389E29DE00E94B0
:103B1000CA2F97FD84C3BC0186EB9BE00E943B2E1D
:103B2000882309F47CC387E09CE00E94800C80918C
:103B30000A0A90910B0A8A30910528F40196909315
:103B40000B0A80930A0A86EB9BE00E949E2EEC01F2
:103B500086EB9BE00E94942EBE010E94BE2DEC01DC
:103B60000E94BA2D8C0186EB9BE00E949E2E7C0168
:103B700080910B02882351F0CE010E94B82D892B31
:103B800029F08881998103970CF0D6C2011511059F
:103B900031F525E0E216F10409F0C0C26E8170E053
:103BA000762F66278D81680F711D072E000C880BFC
:103BB000990B0E947A8A20E030E040E251E40E94B2
:103BC000CA89AB01BC0188E19AE00E947404882391
:103BD00009F4A4C288E19AE00E94AC049FC20530B7
:103BE000110509F49BC20031110539F534E0E316E3
:103BF000F10409F093C26C8170E0762F6627CB0147
:103C0000770FAA0BBB0B2D81BC01CD01622B0E944B
:103C1000788A20E030E040E05FE30E947D8BAB01DA
:103C2000BC0188E19AE00E94F004882309F476C27E
:103C300088E19AE00E94900571C201311105B1F549
:103C400044E0E416F10409F069C21C816D816F70D3
:103C500070E080E090E00E947A8A20E030E040E26C
:103C600051E40E94CA896B017C01612F6F7770E07B
:103C700080E090E00E947A8A9B01AC01C701B60106
:103C80000E94598917FF0AC022EA32EB43E05FE342
:103C90006B017C01C701B6010E94CA89462F572FCC
:103CA000BC0188E19AE00E94F905BFCF00321105FE
:103CB00009F434C2C80183978230910508F42EC2FA
:103CC00003978230910508F429C28A97029708F475
:103CD00025C20235110551F584E0E816F10409F01A
:103CE0001DC26D8170E0762F66278C81680F711D73
:103CF000072E000C880B990B0E947A8A20E030E096
:103D000040E251E40E94CA89AB01BC0188E19AE01B
:103D10000E94A308882309F401C288E19AE00E9466
:103D2000DB0888E19AE00E945009F8C103351105CB
:103D300009F06DC023E0E216F10409F0EFC11B8128
:103D4000612F607370E0B4E075956795BA95E1F7FF
:103D5000072E000C880B990B0E947A8A20E030E035
:103D600044EB52E40E947D8B6B017C016C816F738C
:103D700070E080E090E00E947A8A9B01AC010E9492
:103D800059899B01AC01C701B6010E9459896B0199
:103D90007C01612F70E014E0759567951A95E1F745
:103DA0006C707727072E000C880B990B0E947A8A7B
:103DB00020E030E040E05EE30E947D8B9B01AC019F
:103DC000C701B6010E9459896B017C019B01AC01BE
:103DD00060913E0A70913F0A8091400A9091410A99
:103DE0000E9458899F7720E030E044E354E40E9429
:103DF000C58987FF93C120E030E044EB53E4C7015D
:103E0000B6019F770E94C58987FD9CC187C1043593
:103E1000110539F534E0E316F10409F07FC15D8145
:103E2000852F90E048970CF079C18C81282F2C7F4A
:103E300030E035952795359527952C3331050CF0D5
:103E40006DC140E1849FC001112499274B814295A7
:103E50004F70842B8F7399278C3391050CF479C1A3
:103E60005DC106351105D9F484E0E816F10409F0C6
:103E700055C19C818FEF890F8F3108F04FC18B8125
:103E800082958F702FEF280F2C3008F047C12D81BD
:103E9000422F50E0433151050CF086C13FC1073538
:103EA000110509F43BC10835110561F428E0E2165B
:103EB000F10419F4CE010E949B0A88E19AE00E9465
:103EC00020072CC10935110509F428C10238110554
:103ED00009F424C10438110509F073C02B81822F25
:103EE000807390E0F4E095958795FA95E1F73AE5CF
:103EF000389FB001399F700D11248C818F73680F2A
:103F0000711D680F711D220F611D711D072E000CA0
:103F1000880B990B0E947A8A60933A0A70933B0A45
:103F200080933C0A90933D0A80916A0A90916B0AB3
:103F3000029690936B0A80936A0A039734F082E0AA
:103F400090E090936B0A80936A0A8091270C81110C
:103F5000E5C08E8181FF05C00E94741982E090E067
:103F600004C00E94881981E090E09093240C809313
:103F7000230C8E8182FF03C062E174E002C060E026
:103F800074E086E69FE00E94687D8E8183FF03C017
:103F90006EEE73E002C06BED73E086E69FE00E9478
:103FA000687D8C8182958695869583702D81269576
:103FB0003AE5839FC0011124820F911D0E94190DC3
:103FC000ADC0C80185589109029708F4A7C0093807
:103FD000110591F545E0E416F10409F09FC08B81CD
:103FE00090E044E0959587954A95E1F79C01237010
:103FF00033274DE2429FB001439F700D11242C8165
:104000002F73620F711D660F771FE3E096958795FA
:10401000EA95E1F7680F791F072E000C880B990BC2
:104020000E947A8AAB01BC0188E19AE00E9458079D
:10403000882309F473C066C00039110509F46EC005
:104040000939110561F483E0E816F10409F066C04E
:104050006C8170E06A3571050CF4D2C05FC00C3918
:10406000110509F05BC024E0E216F10409F056C026
:104070002B81822F807390E034E0959587953A9557
:10408000E1F73AE5389FB001399F700D11248C811A
:104090008F73680F711D680F711D220F611D711DD7
:1040A000072E000C880B990B0E947A8AAB01BC0189
:1040B00088E19AE00E945807882381F16D8170E0C1
:1040C000603871050CF07A9588E19AE00E94170A31
:1040D000882321F16D8170E0603871050CF07A95CC
:1040E000072E000C880B990B0E947A8A60930E0AA7
:1040F00070930F0A8093100A9093110A88E19AE056
:104100000E94300A88E19AE00E948F0788E19AE0D5
:104110000E94DE0788E19AE00E942408209709F4B3
:104120007EC0CE01DF91CF911F910F91FF90EF9054
:10413000DF90CF900C947580CE010E94B82D0E9424
:104140003A1C24CDB701A60188E19AE00E947408C8
:10415000E1CD9F938F933F932F931F925F9387EDB2
:1041600093E09F938F9384E59AE09F938F930E94AF
:104170003C8E8091740A9091750A06969093750A08
:104180008093740A2DB73EB7265F3F4F0FB6F89461
:104190003EBF0FBE2DBF07970CF286E090E09093D4
:1041A000750A8093740ABACF1F922F931F928F9330
:1041B0001F929F9387ED93E09F938F9388E49AE0FB
:1041C0009F938F930E943C8E8091720A9091730A04
:1041D00044969093730A8093720A2DB73EB7265F78
:1041E0003F4F0FB6F8943EBF0FBE2DBF45970CF45E
:1041F00095CF84E190E09093730A8093720A8ECFFA
:10420000072E000C880B990B0E947A8A6093200A73
:104210007093210A8093220A9093230A7BCFDF9127
:10422000CF911F910F91FF90EF90DF90CF90089565
:104230000F931F93CF93DF93CDB7DEB7C757D10945
:104240000FB6F894DEBF0FBECDBF83E090E10E94B1
:10425000617A892B09F441C083E090E10E947B7A66
:1042600097FD3BC0682F86E79AE00E944E29019790
:10427000A1F587EE9BE00E94800C8091040A90914A
:10428000050A8A30910528F401969093050A8093D7
:10429000040A86E79AE00E94452A8C010E941D0FBD
:1042A000C8010E944B0D6CEA76E0C8010E94DD0C4B
:1042B000882399F0B801CE0101960E940F288091C1
:1042C000280C811105C0CE018B599F4F0E94B51B50
:1042D000CE018B599F4F0E943A1CC958DF4F0FB631
:1042E000F894DEBF0FBECDBFDF91CF911F910F912C
:1042F0000895EF92FF920F931F93CF93DF93CDB763
:10430000DEB7C757D1090FB6F894DEBF0FBECDBFD9
:10431000EE24E39486E69FE00E94617A892B09F4FB
:1043200097C086E69FE00E947B7A682F88E39BE037
:104330000E944E298130910509F053C088E39BE02B
:104340000E94452A8C0188E39BE00E94502A07972F
:104350000CF47EC0F801F080F1E2FF120AC08091F7
:10436000270C811175C0B80183E090E10E945B7D4C
:104370006FC0C8010E940A12882329F18091280C7D
:10438000811111C080910A0A90910B0A0A9710F2CC
:10439000B801CE0101960E940F28CE018B599F4F84
:1043A0000E94B51B4AC08091060A9091070A0A979D
:1043B00008F4B0CF88E39BE00E94502ABC01C801FA
:1043C0000E943D113AC084E2F812A4CF64EE73E07B
:1043D000C8010E94F50C882309F49CCFE092270CB9
:1043E00099CF8230910589F488E39BE00E94452AA9
:1043F0000E940A12882361F160E674E086E69FE07D
:104400000E94687D66E574E013C0039709F082CFCF
:1044100088E39BE00E94452A0E940A128823C1F08B
:104420006DE274E086E69FE00E94687D63E274E0DE
:1044300086E69FE00E94687D06C06AEE73E086E62D
:104440009FE00E947A7D86E69FE00E94437B62CFD8
:10445000C958DF4F0FB6F894DEBF0FBECDBFDF9156
:10446000CF911F910F91FF90EF900895A8950E9412
:10447000761D0E94141D0E9479210E9418210E941D
:10448000BF1C8091D30B882331F08091D40B909185
:10449000D50B0E9431688091020A9091030A813AFB
:1044A0002FE09207A4F10E94921988E19AE00E94FD
:1044B000760A1092030A1092020A8091160A9091CD
:1044C000170A8F319105B0F00E942F1C0E94B41C76
:1044D0008091140A9091150A9C012F5F3F4F3093F1
:1044E000150A2093140A0E947A0D1092170A10924E
:1044F000160A089501969093170A8093160A80FF72
:1045000002C061E001C060E08DE00C94228201965F
:104510009093030A8093020A803D974031F40E94F1
:10452000921988E19AE00C94740A08950F931F93EE
:10453000CF93DF938C01EC0109900020E9F72197DC
:10454000C81BD90BBE016150710901960E945F2AF8
:10455000F801EC0FFD1F2AE220839F938F9381EBDC
:1045600096E09F938F93CE010196800F911F9F93AA
:104570008F930E943C8E0F900F900F900F900F9092
:104580000F90CE01039664E078E0800F911FDF91D9
:10459000CF911F910F910C94DE8D24E6FC011192B6
:1045A0002A95E9F7089508958F929F92AF92BF924E
:1045B000CF92DF92EF92FF920F931F93CF93DF93EF
:1045C000D82FC92F6A017B014801590120E030E052
:1045D00040E251E4C501B4010E947D8B0E943C8AF7
:1045E0000AE010E0CB01B8010E94D8889F938F9316
:1045F000C501B4010E943C8A7F936F9320E030E0B4
:1046000040E251E4C701B6010E947D8B0E943C8AC2
:10461000CB01B8010E94D8889F938F93C701B60140
:104620000E943C8A7F936F9384EF93E09F938F93D4
:104630008FEF8F938DEF8F93CF93DF930E94FF8D3A
:104640008DB79EB70E960FB6F8949EBF0FBE8DBF66
:104650008D2F9C2FDF91CF911F910F91FF90EF90A5
:10466000DF90CF90BF90AF909F908F900C94962248
:104670002F923F924F925F926F927F928F929F9272
:10468000AF92BF92CF92DF92EF92FF920F931F9360
:10469000CF93DF9300D01F92CDB7DEB7382E292EEF
:1046A0004A015B01A9019801C501B4010E94588922
:1046B00069837A838B839C8326E53EE04DEE5FE33E
:1046C000C701B6010E947D8B2B013C0120E030E048
:1046D00040E251E40E947D8B0E943C8ACB016AE05B
:1046E00070E00E94D8889F938F93C301B2010E940B
:1046F0003C8A7F936F9320E030E040E251E4C701B1
:10470000B6010E947D8B0E943C8ACB016AE070E07A
:104710000E94D8889F938F93C701B6010E943C8A5C
:104720007F936F9320E030E040E251E4C501B40193
:104730000E947D8B0E943C8ACB016AE070E00E945F
:10474000D8889F938F93C501B4010E943C8A7F93C0
:104750006F9320E030E040E251E469817A818B81FF
:104760009C810E947D8B0E943C8ACB016AE070E0B4
:104770000E94D8889F938F9369817A818B819C81D5
:104780000E943C8A7F936F938EE494E09F938F9373
:104790008FEF8F938DEF8F932F923F920E94FF8D1B
:1047A0000FB6F894DEBF0FBECDBF832D922D0F90B4
:1047B0000F900F900F90DF91CF911F910F91FF906D
:1047C000EF90DF90CF90BF90AF909F908F907F90B1
:1047D0006F905F904F903F902F900C9496222F9265
:1047E0003F924F925F926F927F928F929F92AF9281
:1047F000BF92CF92DF92EF92FF920F931F93CF93CE
:10480000DF9300D01F92CDB7DEB7382E292E6A0174
:104810007B012801390126E53EE04DEE5FE3C3014F
:10482000B2010E947D8B4B015C0120E030E04AE741
:1048300054E40E947D8B20E030E041E655E40E9484
:10484000CA8969837A838B839C8320E030E044E3C8
:1048500053E4C701B6010E94788B181664F4A701CF
:10486000960160E070E084EB93E40E9458896B014C
:104870007C011CE401C012E520E030E040E251E49C
:10488000C501B4010E947D8B0E943C8ACB016AE085
:1048900070E00E94D8889F938F93C501B4010E9455
:1048A0003C8A7F936F9320E030E040E251E46981DD
:1048B0007A818B819C810E947D8B0E943C8ACB01F6
:1048C0006AE070E00E94D8889F938F9369817A8113
:1048D0008B819C810E943C8A7F936F9320E030E023
:1048E00040E251E4C301B2010E947D8B0E943C8AE8
:1048F000CB016AE070E00E94D8889F938F93C30138
:10490000B2010E943C8A7F936F931F921F9320E015
:1049100030E040E251E4C701B6010E947D8B0E9465
:104920003C8ACB016AE070E00E94D8889F938F9305
:10493000C701B6010E943C8A7F936F938DE794E094
:104940009F938F938FEF8F938DEF8F932F923F9243
:104950000E94FF8D0FB6F894DEBF0FBECDBF832D32
:10496000922D0F900F900F900F90DF91CF911F918C
:104970000F91FF90EF90DF90CF90BF90AF909F90FE
:104980008F907F906F905F904F903F902F900C94FE
:104990009622CF93DF93D82FC92F0E94CD22E8E132
:1049A000FAE081A1282F082E000C330B3F938F9340
:1049B00080A18F93878D8F93868D8F93858D8F9315
:1049C000848D8F93838D8F93828D282F082E000CDA
:1049D000330B3F938F93818D8F93808D8F93878936
:1049E0008F9386898F9385898F9384898F938DEA9E
:1049F00094E09F938F938FEF8F938F93CF93DF9359
:104A00000E94FF8D8DB79EB746960FB6F8949EBF55
:104A10000FBE8DBF8D2F9C2FDF91CF910C949622CE
:104A20004F925F926F927F92AF92BF92CF92DF923E
:104A3000EF92FF920F931F93CF93DF938C010E940D
:104A4000CD22C8E1DAE0CAA4DBA4ECA4FDA4288549
:104A500039854A855B856EA17FA188A599A50E94AD
:104A600058892B013C0120E030E040E251E40E94F3
:104A70007D8B0E943C8A8AE0A82EB12CCB01B50127
:104A80000E94D8889F938F93C301B2010E943C8AF1
:104A90007F936F9320E030E040E251E4C701B6011C
:104AA0000E947D8B0E943C8ACB01B5010E94D88870
:104AB0009F938F93C701B6010E943C8A7F936F93A7
:104AC00089A1282F082E000C330B3F938F9388A1C8
:104AD0008F938F8D8F938E8D8F938D8D8F938C8DE4
:104AE0008F938B8D8F938A8D282F082E000C330B7C
:104AF0003F938F93898D8F93888D8F938F898F9319
:104B00008E898F938D898F938C898F9387E195E020
:104B10009F938F938FEF8F938DEF8F931F930F93AF
:104B20000E94FF8D8DB79EB74E960FB6F8949EBF2C
:104B30000FBE8DBFC801DF91CF911F910F91FF90E4
:104B4000EF90DF90CF90BF90AF907F906F905F908D
:104B50004F900C9496222F923F924F925F926F92B9
:104B60007F928F929F92AF92BF92CF92DF92EF92FD
:104B7000FF920F931F93CF93DF931C010E94CD22CE
:104B8000C8E1DAE08AA49BA4ACA4BDA4C884D984FB
:104B9000EA84FB84A70196016EA17FA188A599A54F
:104BA0000E9458892B013C0120E030E040E251E4B2
:104BB000C701B6010E947D8B0E943C8A0AE010E08A
:104BC000CB01B8010E94D8889F938F93C701B6018B
:104BD0000E943C8A7F936F9388E49AE09F938F931F
:104BE00020E030E040E251E4C301B2010E947D8B3D
:104BF0000E943C8ACB01B8010E94D8889F938F9372
:104C0000C301B2010E943C8A7F936F9320E030E0A1
:104C100040E251E4C501B4010E947D8B0E943C8AB0
:104C2000CB01B8010E94D8889F938F93C501B4012E
:104C30000E943C8A7F936F9389A1282F082E000C35
:104C4000330B3F938F9388A18F938F8D8F938E8D8E
:104C50008F938D8D8F938C8D8F938B8D8F938A8D6A
:104C6000282F082E000C330B3F938F93898D8F9341
:104C7000888D8F938F898F938E898F938D898F9352
:104C80008C898F9384E59AE09F938F9389E995E0CF
:104C90009F938F938FEF8F938DEF8F933F922F92F0
:104CA0000E94FF8D8DB79EB786960FB6F8949EBF73
:104CB0000FBE8DBFC101DF91CF911F910F91FF906A
:104CC000EF90DF90CF90BF90AF909F908F907F90AC
:104CD0006F905F904F903F902F900C9496224F9240
:104CE0005F926F927F928F929F92AF92BF92CF927C
:104CF000DF92EF92FF920F931F93CF93DF938C017C
:104D00006A017B012FEB3EE04CE95EE3C701B6018F
:104D10000E947D8B4B015C012EE136E14AEE5FE3A0
:104D20000E94CA892B013C0120E030E040E251E4BE
:104D30000E947D8B0E943C8ACAE0D0E0CB01BE017C
:104D40000E94D8889F938F93C301B2010E943C8A2E
:104D50007F936F9320E030E040E251E4C501B4015D
:104D60000E947D8B0E943C8ACB01BE010E94D888A4
:104D70009F938F93C501B4010E943C8A7F936F93E8
:104D800020E030E040E251E4C701B6010E947D8B93
:104D90000E943C8ACB01BE010E94D8889F938F93CA
:104DA000C701B6010E943C8A7F936F9384EE95E021
:104DB0009F938F938FEF8F938DEF8F931F930F930D
:104DC0000E94FF8D8DB79EB742960FB6F8949EBF96
:104DD0000FBE8DBFC801DF91CF911F910F91FF9042
:104DE000EF90DF90CF90BF90AF909F908F907F908B
:104DF0006F905F904F900C9496228F929F92AF92FB
:104E0000BF92CF92DF92EF92FF920F931F93CF93B7
:104E1000DF93D82FC92F6A017B014801590120E097
:104E200030E040E251E4C501B4010E947D8B0E9454
:104E30003C8A0AE010E0CB01B8010E94D8889F9319
:104E40008F93C501B4010E943C8A7F936F931F9298
:104E50001F921F921F9220E030E040E251E4C70110
:104E6000B6010E947D8B0E943C8ACB01B8010E9452
:104E7000D8889F938F93C701B6010E943C8A7F9385
:104E80006F9388E396E09F938F938FEF8F938DEFCF
:104E90008F93CF93DF930E94FF8D8DB79EB742967D
:104EA0000FB6F8949EBF0FBE8DBF8D2F9C2FDF9144
:104EB000CF911F910F91FF90EF90DF90CF90BF9017
:104EC000AF909F908F900C949622CF92DF92EF92AA
:104ED000FF92CF93DF93D82FC92F6A017B0120E087
:104EE00030E040E251E4C701B6010E947D8B0E9490
:104EF0003C8ACB016AE070E00E94D8889F938F9330
:104F0000C701B6010E943C8A7F936F938BE596E0C0
:104F10009F938F938FEF8F938DEF8F93CF93DF932B
:104F20000E94FF8D8DB79EB70A960FB6F8949EBF6C
:104F30000FBE8DBF8D2F9C2FDF91CF91FF90EF90F3
:104F4000DF90CF900C949622CF92DF92EF92FF9257
:104F5000CF93DF93D82FC92F6A017B01B901330F9B
:104F6000880B990B0E947A8A9B01AC01C701B6019C
:104F70000E9458896B017C0120E030E040E251E45E
:104F80000E947D8B0E943C8ACB016AE070E00E9407
:104F9000D8889F938F93C701B6010E943C8A7F9364
:104FA0006F938CE696E09F938F938FEF8F938DEFA7
:104FB0008F93CF93DF930E94FF8D8DB79EB70A9694
:104FC0000FB6F8949EBF0FBE8DBF8D2F9C2FDF9123
:104FD000CF91FF90EF90DF90CF900C949622CF93DB
:104FE000DF93D82FC92F7F936F938DE796E09F9320
:104FF0008F938FEF8F938DEF8F93CF93DF930E94DB
:10500000FF8D8DB79EB708960FB6F8949EBF0FBE62
:105010008DBF8D2F9C2FDF91CF910C9496229F9264
:10502000AF92BF92CF92DF92EF92FF920F931F93B6
:10503000CF93DF93CDB7DEB7E2970FB6F894DEBF1C
:105040000FBECDBF8C017B010E94CD221AAA19AAE6
:10505000F70101900020E9F73197BF016E197F0930
:105060009E012F5C3F4FAE014F5F5F4FC7010E9413
:105070006F2A29A9FF24FA94F20E680186E7C80E68
:10508000D11CD601FC92B2E0BF1508F053C0ED81EF
:10509000FE81DF010D900020E9F7CD0103978E1707
:1050A0009F0709F047C081810E94F72A2F2D30E029
:1050B0008F7090E0039628173907E1F5FE013196CD
:1050C0007F010C591F4FA12CB12CD6018C9190E07F
:1050D000A816B9068CF5BFEFAB1ABB0AD70112961A
:1050E000ED91FC911397DF010D900020E9F7CD01C0
:1050F00003978E179F07C1F480810E94F72A982E8C
:10510000D7011296ED91FC91139781810E94F72AA5
:10511000B0E19B9E800D1124F8018083F2E0EF0E38
:10512000F11C0F5F1F4FD1CF80810E94F72AD80159
:105130008C93F4CFF60110828E010F5F1F4FE12C8C
:10514000F12C89A99AA9E816F90664F4D8018D9181
:105150009D918D01009711F00E94828CBFEFEB1A98
:10516000FB0AEFCFE2960FB6F894DEBF0FBECDBFBD
:10517000DF91CF911F910F91FF90EF90DF90CF9033
:10518000BF90AF909F9008954F925F926F927F92E1
:105190008F929F92AF92BF92CF92DF92EF92FF9247
:1051A0000F931F93CF93DF93EC017B01142F582EA5
:1051B0004D2E0E94CD22A12EB12CA501B701CE010A
:1051C0008C599F4F0E94BA8DFE01EA58FF4F108301
:1051D00069EA76E0CE010E94DE8D470107EF1FEFFE
:1051E00080EBC82E86E0D82E9DEF692E77247A9426
:1051F000C4018E199F098A159B05FCF4F401819165
:105200004F011F928F93DF92CF92C301801B910BAE
:105210008C0F9D1F9F938F931F930F934F925F92BD
:105220000E94FF8D035011098DB79EB70A960FB6E5
:10523000F8949EBF0FBE8DBFDBCFCE01DF91CF9123
:105240001F910F91FF90EF90DF90CF90BF90AF90A4
:105250009F908F907F906F905F904F900C949622CC
:10526000082E000C990B0E94B28D282F082E000CDE
:10527000990B213414F0C7970895C0970895FC0145
:10528000E55AFF4F118210823297118210823496B4
:105290001182108232961182108208954F925F928D
:1052A0006F927F928F929F92AF92BF92CF92DF9236
:1052B000EF92FF920F931F93CF93DF93EC016C015A
:1052C0004BE5C40ED11CF60120813181875A9F4FD6
:1052D0007C01243631051CF0FC01118210826A30F9
:1052E00011F06D3019F4F70111821082643211F05F
:1052F000613279F485E5FE0111928A95E9F76883B8
:1053000081E090E0F60191838083F70191838083AF
:10531000A8C0F701008111810130110521F0023090
:105320001105C9F09BC0FE01E20FF31F6083C901A4
:105330000196F601918380836A3209F092C082E07F
:1053400090E0F70191838083C95ADF4F21503109E2
:105350003983288386C0FE01E20FF31F60832F5F2D
:105360003F4FF60131832083FE01E95AFF4F6081F0
:105370007181261B370B243031050CF472C0CE012D
:1053800001960E945F2A3C01F601808091805E01B7
:10539000A80CB91CF501329780810E9430292C019C
:1053A00084E0440C551C8A95E1F7F5013197808122
:1053B0000E9430292DE0F501208394012E5F3F4F9C
:1053C0004AE04183FE01EB5AFF4F31832083F3E033
:1053D0008F0E911CF60191828082FE01E20FF31F75
:1053E0001082840D951D6816790601F18091410C9B
:1053F0009091420C01969093420C8093410C66EB85
:1054000076E086E69FE00E945B7DBE0186E69FE037
:105410000E947A7DF70111821082C35ADF4F2881E2
:1054200039812F5F3F4F398328831DC08091430C02
:105430009091440C01969093440C8093430CC15A74
:10544000DF4F8881998101969983888383E090E07A
:10545000F7019183808301E010E005C0F70111821C
:10546000108200E010E0C801DF91CF911F910F91F1
:10547000FF90EF90DF90CF90BF90AF909F908F9074
:105480007F906F905F904F900895FC01E75AFF4F17
:10549000208131812330310511F080E090E00895C2
:1054A000FC01E75AFF4F208131812330310521F47F
:1054B000349780819181089580E090E00895FC0107
:1054C000680F791F80E090E0E617F70739F0219127
:1054D000022E000C330B82279327F6CF08952F92CC
:1054E0003F924F925F926F927F928F929F92AF9274
:1054F000BF92CF92DF92EF92FF920F931F93CF93C1
:10550000DF9300D01F92CDB7DEB74C011B012A01FB
:105510005901F901118210826C0100E010E0612C48
:10552000712C1C830B83021513050CF049C0DA8221
:10553000C982F60180810F5F1F4F8C3211F08A32D1
:10554000B1F58B819C81861997099C838B831816F2
:1055500019068CF401960E94EA8B7C01B401660D59
:10556000771D4B815C810E94BA8DEB81FC81EE0D31
:10557000FF1D108209C082E090E00E94EA8B7C014E
:1055800066E078E00E94DE8DF501808191819C01CA
:105590002F5F3F4F31832083880F991FF201E80F5F
:1055A000F91FF182E0823801283131054CF4FFEF18
:1055B000CF1ADF0AE981FA8180818A3209F0B1CFFE
:1055C0000F900F900F900F90DF91CF911F910F913F
:1055D000FF90EF90DF90CF90BF90AF909F908F9013
:1055E0007F906F905F904F903F902F90089590ED37
:1055F000980F9A3060F09FEB980F963010F4875315
:1056000008959FE9980F963020F487550895892FC3
:10561000089580E0089580911F0D90911E0D8917C7
:1056200069F09F5F903508F090E0E92FF0E0E253D9
:10563000F34F808190931E0D90E008958FEF9FEFC0
:10564000089580911F0DE0911E0D8E1751F0EF5FB0
:10565000E03508F0E0E0F0E0E253F34F808190E0C5
:1056600008958FEF9FEF089550911F0D40911E0DEB
:10567000852F90E0242F30E0541710F4805B9F4F6B
:10568000821B930B0895E091450CF091460C3097E6
:1056900009F0199490911F0D9F5F903508F090E0EC
:1056A00020911E0D291739F0E92FF0E0E253F34F56
:1056B000808390931F0D08959B01AC01213668E112
:1056C00036074105510530F4109273001092200105
:1056D00081E828C0DA01C90173E0B695A7959795CE
:1056E00087957A95D1F7813668E19607A105B105CE
:1056F00050F4109273001092200122E820932101AF
:105700009C01AD0111C0232F342F452F5527213681
:1057100088E1380741055105C0F5109273001092D9
:10572000200184E8809321013093280D2093270DD8
:10573000A5E2B0E00E943589DC01CB0122E0B695FC
:10574000A795979587952A95D1F79093210D8093EA
:10575000200D62E080E30E94E68161E08EE20E941B
:10576000228261E08EE20E94E6811092260D109264
:105770001F0D10921E0D1092CD0C1092CA0C10929B
:10578000C90C80E28ABB8093730008959091CA0C83
:105790009F5F97FD90E02091C90C2917E1F32FB787
:1057A000F8943091CD0C332341F0E92FF0E0E75B22
:1057B000F34F80839093CA0C1DC091E09093CD0C61
:1057C0008093CC0C1092CB0C82E08ABB809173004A
:1057D000826080937300809120018F7B806880932A
:1057E00020018091240190912501409690932901F8
:1057F000809328012FBF0895862F0E94C62B81E039
:1058000090E008951F920F920FB60F9211240BB6DD
:105810000F922F933F934F935F936F937F938F9349
:105820009F93AF93BF93EF93FF938091CD0C6091C3
:10583000CC0C20912801309129014091270D5091E5
:10584000280D9091CB0C8A30F8F4240F351F893045
:1058500019F0762F717001C071E066958F5F79172E
:1058600091F390912001772311F0906C02C09F7BFF
:105870009068909320013093290120932801709320
:10588000CB0C6093CC0C50C09091CA0CE091C90C29
:105890009E1320C08A3051F48BE08093CD0C240FEE
:1058A000351F309329012093280140C01092CD0C60
:1058B000809120018F7380932001809173008D7FF0
:1058C00080937300E091470CF091480C309771F190
:1058D00019952CC0EF5FE7FDE0E0E093C90CF0E024
:1058E000E75BF34F90819093CC0C1092CB0C90918E
:1058F00020019F7B9068909320018A3059F4809119
:10590000270D9091280D280F391F309329012093DE
:10591000280109C08091240190912501409690931F
:1059200029018093280181E08093CD0CFF91EF91B4
:10593000BF91AF919F918F917F916F915F914F91A7
:105940003F912F910F900BBE0F900FBE0F901F90A5
:1059500018958091CD0C8111FCCF08950C94A92C41
:105960001F920F920FB60F9211240BB60F922F9326
:105970003F934F935F936F937F938F939F93AF93D7
:10598000BF93EF93FF93809126019091270140915F
:10599000240D20912101442331F02F7B20932101FC
:1059A0001092240D06C020642093210120E820934A
:1059B000240D3091260D311125C041115DC020917B
:1059C000200D3091210D280F391F30932B0120938A
:1059D0002A0124E02ABB20917300246020937300E5
:1059E0002091270D3091280D820F931F3695279512
:1059F000820F931F9093230D8093220D81E080935B
:105A0000260D3AC04091220D5091230D6091270D33
:105A10007091280DDB01A095B0952091250DE091A6
:105A2000240D841B950BA817B907F0F026952E2B93
:105A3000460F571F3F5F861B970B3930A0F320930B
:105A4000250D809173008B7F809373008091250DCD
:105A50000E94432B809121018F7B80932101109222
:105A6000240D1092260D08C02093250D5093230D70
:105A70004093220D3093260DFF91EF91BF91AF918E
:105A80009F918F917F916F915F914F913F912F9156
:105A90000F900BBE0F900FBE0F901F9018951F9286
:105AA0000F920FB60F9211240BB60F922F933F93C4
:105AB0004F935F936F937F938F939F93AF93BF9316
:105AC000EF93FF93809173008B7F8093730080919D
:105AD00021018F7B809321019091260D2091240D2F
