:100000000C94EB030C94A87F0C94D37F0C94FE7F8C
:100010000C9429800C9454800C947F800C94AA80BA
:100020000C94D5800C941C040C941C040C941C049B
:100030000C941C040C941C040C941C040C941C04C0
:100040000C941C040C941C040C941C040C941C04B0
:100050000C941C040C941C040C941C040C945081EF
:100060000C941C040C94967C0C94CC7C0C941C0476
:100070000C941C040C941C040C941C040C941C0480
:100080000C941C040C941C040C941C040C941C0470
:100090000C94FF2F0C9429300C941C040C941C0419
:1000A0000C941C040C941C040C941C040C941C0450
:1000B0000C941C040C941C040C940F2E0C94642DB2
:1000C0000C94AF2E0C941C040C941C040C947230F1
:1000D0000C949C300C941C040C942D7D0C94637D2A
:1000E0000C941C040C9411850C945E2D0C94211915
:1000F0000C9473850C9472820C94AD820C940D2E2A
:100100000C945E7B0C94D1840C9468820C94EE71F8
:100110000C9486820C94536E0C94007D0C94DB6FCF
:100120000C9438810C94806E0C94EB6B0C94AD3174
:100130000C94A2820C94E6750C947C820C948082C0
:100140000C9494820C94E0410C949C820C94F41ACC
:100150000C94977D0C94796F0C94827F0C94288575
:100160000C94C6300C9409710C9425850C942D7F49
:100170000C944C7F0C94111A0C9420700C948E7477
:100180000C9422850C94B5310C94CC320C946E2CCA
:100190000C94E96B0C94A56E0C9476850C944078C5
:1001A0000C94E26D0C9415850C9467850C94307654
:1001B0000C94F7840C945B850C94F67C0C948485E9
:1001C0000C9464850C94D1340C94547F0C94AB6DD6
:1001D0000C94AA820C9498820C94972C0C94F08422
:1001E0000C948A820C9437850C946D850C94356E32
:1001F0000C947D850C94A6820C94A2760C94588560
:100200000C9456780C9481850C941C850C946D7F0D
:100210000C946A700C94817B0C946A850C945876CB
:100220000C94186E0C945E780C9418850C94727B68
:100230000C945E850C94842C0C94F4840C94F77BC1
:100240000C94447B0C9479850C9470760C943D3519
:100250000C949D720C9470850C94507B0C942C78AB
:100260000C941A320C94FA840C9474780C943085A3
:100270000C941F850C946C780C9437350C9429766B
:100280000C9482780C94D77B0C946E820C94DF6B68
:100290000C94C47D0C94CF390C9448780C9403785A
:1002A0000C948E820C948E7F0C948D7D0C946185C1
:1002B0000C94607F0C9434850C942C850C94867679
:1002C0000C946B2C0C949B7F0C942C730C945330DB
:1002D0000C9476820C94AE824042474250552C4397
:1002E0006F757273652C004042474250552C547212
:1002F00061636B2C46616C73650040424742505508
:100300002C547261636B2C547275650040424742F5
:1003100050552C56616E652C46616C7365004042E9
:10032000474250552C56616E652C547275650040DD
:1003300042474250552C547261636B2C46616C737A
:1003400065004042474250552C547261636B2C54F7
:10035000727565004042474250552C56616E652CBF
:1003600046616C7365004042474250552C56616EA1
:10037000652C5472756500244E474250552A344509
:10038000004E4D45415F5041525345525F4E4F54D0
:10039000434F4D504C4554452C206E6F7420636F75
:1003A0006D706C657465207E7E00244E474250550A
:1003B0002A3445004E4D45415F5041525345525FEE
:1003C000434845434B53554D4552522C20455252BC
:1003D0004F52202121000900095472616E736C6133
:1003E000746553656174616C6B417570696C6F7491
:1003F000436F6D6D616E64546F4E454D41323030C8
:100400003028293A200020556E6B6E6F776E0020E1
:10041000506F7765724F6E002045787465726E611B
:100420006C002042726F776E6F7574002057617494
:100430006368646F67004661696C004F70656E00A9
:100440004042474250552C43414E2C0040424742C7
:1004500050552C424F4F5420566572002066696EED
:10046000652E002C2048656C6C6F2C204920616D36
:1004700020004042474250552C566572004042478A
:100480004250552C53746565722C004042474250CF
:10049000552C436F757273652C004042474250558E
:1004A0002C4175746F2C46616C7365004042474265
:1004B00050552C4175746F2C537465657200404221
:1004C000474250552C4175746F2C547275650090DD
:1004D00000A49000A30020446174613A00204C65A0
:1004E0006E3A0020446573743A0020536F7572634E
:1004F000653A002050474E3A005072693A00203A5F
:100500002000002C00537461727420616464726571
:10051000737320636C61696D20666F722064657609
:1005200069636520002073656E64206661696C658F
:1005300064002F002C206672616D653A0050474EB2
:1005400020002073656E64206661696C65640050EC
:10055000474E200043414E206465766963652066FE
:1005600061696C656420746F206F70656E00434133
:100570004E20646576696365207265616479000068
:10058000004E4D454132303030206C6962726172EC
:10059000792C2068747470733A2F2F6769746875AA
:1005A000622E636F6D2F74746C617070616C616921
:1005B0006E656E2F4E4D4541323030300035089A11
:1005C0000241726475696E6F204E326B2D3E50434E
:1005D000000000000000000000000000000000001B
:1005E0000000312E302E302E3000000000000000C0
:1005F00000000000000000000000000000000000FB
:10060000000000312E302E300000000000000000FD
:1006100000000000000000000000000000000000DA
:100620000000000030303030303030310000000049
:1006300000000000000000000000000000000000BA
:100640000000000000000100E8000000EA000000D7
:10065000EB000000EC000000EE0000D8FE000000FF
:10066000ED01000000000000E8000000EA000000CA
:10067000EB000000EC000000EE000000ED010000C7
:10068000EE010011F0010014F0010016F00100006D
:1006900000000000000B0C030A0D0E0F09080405F2
:1006A0000200000000000000000000000000000048
:1006B0000000000000000000000000000000001327
:1006C0001211000000000000000000000000000007
:1006D000000000000000000000000000000000001A
:1006E00000000000000000000001021020200808A7
:1006F0001020401020408002010201080402010184
:10070000020408102040808040201008040201806C
:1007100004020180402010080402010804020101C3
:1007200002040810204080010204081020408004C8
:1007300040800480081010204004081020408005EC
:10074000050505070508080808020202020A0A084A
:100750000804040404010101010101010103030370
:100760000303030303040707070C0C0C0C0C0C0C0D
:100770000C0202020206060606060606060B0B0B14
:100780000B0B0B0B0B050505080807070404040AEF
:100790000A0A0A0A0A00002200250028002B002E5F
:1007A000003100340002010000050108010B0100C6
:1007B000002100240027002A002D00300033000112
:1007C000010000040107010A010021195330C6305D
:1007D000007D977D111A11241FBECFEFD1E2DEBF3D
:1007E000CDBF00E00CBF17E0A0E0B2E0ECEFF3E219
:1007F00001E00BBF02C007900D92AC37B107D9F7EB
:100800002EE0ACE7B7E001C01D92AA33B207E1F7D2
:1008100013E0CAEED3E000E006C021970109802F63
:10082000FE010E94F989C53ED10780E00807A9F7BB
:100830000E943B810C94EC910C940000CF92DF92CB
:10084000EF92FF92CF93DF93EC016A017B012FE6D9
:1008500032E143E85AEBCB01B6010E94448C1816F2
:100860001CF520E030E84BE355E4C701B6010E94D7
:10087000918A87FF19C0C882D982EA82FB82C85B4D
:10088000DF4F8881998106968730910554F49983CA
:10089000888381E0DF91CF91FF90EF90DF90CF9040
:1008A000089586E090E0F3CF80E0F4CF0F931F939C
:1008B000CF93DF93CDB7DEB7DA950FB6F894DEBFEE
:1008C0000FBECDBF8C01CE0101960E948923085B2B
:1008D0001F4FF8018081918118161906D4F44091B8
:1008E0009E0750919F076091A0077091A107CE01CC
:1008F00001960E94DC27CE0101960E9492230E945D
:10090000130DF80180819181019797FD0DC09183AE
:100910008083D3950FB6F894DEBF0FBECDBFDF91B5
:10092000CF911F910F91089511821082F2CFCF9233
:10093000DF92EF92FF92CF93DF93EC016A017B018C
:1009400020E030E0A901CB01B6010E94448C87FD74
:1009500023C02DEC3CE044EB53E4C701B6010E94F8
:10096000918A87FF19C0C88AD98AEA8AFB8AC25B42
:10097000DF4F8881998104968530910554F49983DD
:10098000888381E0DF91CF91FF90EF90DF90CF904F
:10099000089584E090E0F3CF80E0F4CFAF92BF926F
:1009A000CF92DF92EF92FF920F931F93CF93DF933B
:1009B000CDB7DEB7DA950FB6F894DEBF0FBECDBF68
:1009C0005C01CE0101960E94892365018EE4C80E68
:1009D000D11CF60180819181181619066CF57501FC
:1009E000FCE4EF0EF11CF7018081918118161906C5
:1009F0001CF5F501048515852685378540895189C3
:100A000062897389CE0101960E94AE24CE010196BF
:100A10000E9492230E94130DF6018081918101971B
:100A200097FD1BC091838083F7018081918101979D
:100A300097FD16C091838083D3950FB6F894DEBFDF
:100A40000FBECDBFDF91CF911F910F91FF90EF901F
:100A5000DF90CF90BF90AF90089511821082E4CFC5
:100A600011821082E9CFAF92BF92CF92DF92EF92C4
:100A7000FF920F931F93CF93DF93CDB7DEB7DA9535
:100A80000FB6F894DEBF0FBECDBF5C01CE0101965C
:100A90000E94892365018EE4C80ED11CF601808175
:100AA0009181181619066CF57501FCE4EF0EF11C26
:100AB000F70180819181181619061CF5F50104854E
:100AC0001585268537854089518962897389CE01CC
:100AD00001960E949323CE0101960E9492230E94C8
:100AE000130DF60180819181019797FD1BC09183C1
:100AF0008083F70180819181019797FD16C09183D2
:100B00008083D3950FB6F894DEBF0FBECDBFDF91C3
:100B1000CF911F910F91FF90EF90DF90CF90BF90FA
:100B2000AF90089511821082E4CF11821082E9CF34
:100B3000CF92DF92EF92FF92CF93DF93EC016A01A5
:100B40007B0120E030E0A901CB01B6010E94448C7A
:100B500087FD23C020E030E040EA52E4C701B6013F
:100B60000E94918A87FF19C0CC86DD86EE86FF86BB
:100B7000C45BDF4F8881998104968530910554F4D8
:100B80009983888381E0DF91CF91FF90EF90DF9090
:100B9000CF90089584E090E0F3CF80E0F4CF4F92BF
:100BA0005F926F927F928F929F92AF92BF92CF92FD
:100BB000DF92EF92FF920F931F93CF93DF9300D0BA
:100BC00000D01F921F92CDB7DEB74A015B016801CA
:100BD00079012A013B01E89477F8C301B2010E9430
:100BE000088B69837A838B839C8329813A81B9013D
:100BF000330F880B990B0E94468B9B01AC01C301FC
:100C0000B2010E94248A20E030E040E752E40E94D2
:100C1000498C2B013C010E94088B6D837E838F835E
:100C200098872D813E81B901330F880B990B0E9463
:100C3000468B9B01AC01C301B2010E94248A20E0D3
:100C400030E040E752E40E94498C0E94088B2B015F
:100C500020E030E0A901C501B4010E94918A87FD1E
:100C600085C08EE429813A813093B3072093B2077F
:100C70002D813E813093B5072093B4075092B7077A
:100C80004092B6078093B80726013701E89477F8B9
:100C9000C301B2010E94088B4B01072E000C880B88
:100CA000990B0E94468B9B01AC01C301B2010E94CB
:100CB000248A20E030E040E752E40E94498C2B0176
:100CC0003C010E94088B69837A838B839C832981F2
:100CD0003A81B901330F880B990B0E94468B9B0117
:100CE000AC01C301B2010E94248A20E030E040E759
:100CF00052E40E94498C0E94088B2B0120E030E0D6
:100D0000A901C701B6010E94918A87FD31C085E41F
:100D10009092BA078092B90729813A813093BC0733
:100D20002093BB075092BE074092BD078093BF0738
:100D300086E090E09093EF078093EE0781E028969D
:100D40000FB6F894DEBF0FBECDBFDF91CF911F91DC
:100D50000F91FF90EF90DF90CF90BF90AF909F905A
:100D60008F907F906F905F904F90089583E57ACF3A
:100D700087E5CECF0F931F93CF93DF93CDB7DEB729
:100D8000DA950FB6F894DEBF0FBECDBF8C01005BC5
:100D90001F4FF801808191811816190694F4CE0135
:100DA00001960E948725CE0101960E9492230E94FF
:100DB000130DF80180819181019797FD0DC09183FA
:100DC0008083D3950FB6F894DEBF0FBECDBFDF9101
:100DD000CF911F910F91089511821082F2CFCF927F
:100DE000DF92EF92FF92CF93DF93EC016A017B01D8
:100DF00020E030E0A901CB01B6010E94448C87FDC0
:100E000023C02DEC3CE044EB53E4C701B6010E9443
:100E1000918A87FF19C0CAA2DBA2ECA2FDA2CE5A1A
:100E2000DF4F8881998102968330910554F499832C
:100E3000888381E0DF91CF91FF90EF90DF90CF909A
:100E4000089582E090E0F3CF80E0F4CFCF92DF927C
:100E5000EF92FF920F931F93CF93DF93CDB7DEB73F
:100E6000DA950FB6F894DEBF0FBECDBF6C01CE0190
:100E700001960E948923760182E5E80EF11CF701B4
:100E80008081918118161906DCF4F6010085118520
:100E90002285338542A153A164A175A1CE0101969B
:100EA0000E946A28CE0101960E9492230E94130D8F
:100EB000F70180819181019797FD11C09183808313
:100EC000D3950FB6F894DEBF0FBECDBFDF91CF91A3
:100ED0001F910F91FF90EF90DF90CF9008951182B6
:100EE0001082EECFEF92FF920F931F93CF93DF9379
:100EF000CDB7DEB7DA950FB6F894DEBF0FBECDBF23
:100F00007C01CE0101960E94892387010E5A1F4F52
:100F1000F8018081918118161906BCF4F70142A1ED
:100F200053A164A175A1CE0101960E94D228CE01E1
:100F300001960E9492230E94130DF80180819181F5
:100F4000019797FD0FC091838083D3950FB6F894D6
:100F5000DEBF0FBECDBFDF91CF911F910F91FF90EC
:100F6000EF90089511821082F0CFEF92FF920F93CD
:100F70001F93CF93DF93CDB7DEB7DA950FB6F89412
:100F8000DEBF0FBECDBF7C01CE0101960E9489233A
:100F900087010E5A1F4FF80180819181181619069A
:100FA00004F5F70160857185828593850E94088B21
:100FB000CB01F70142A153A164A175A19C01CE010F
:100FC00001960E941129CE0101960E9492230E944F
:100FD000130DF80180819181019797FD0FC09183D6
:100FE0008083D3950FB6F894DEBF0FBECDBFDF91DF
:100FF000CF911F910F91FF90EF9008951182108271
:10100000F0CFCF92DF92EF92FF92CF93DF93EC017C
:101010006A017B01CB01BA019F772DEC3CE044EBE8
:1010200053E40E94918A87FF19C0CEA2DFA2E8A6EE
:10103000F9A6CA5ADF4F88819981069687309105B3
:1010400054F49983888381E0DF91CF91FF90EF90F2
:10105000DF90CF90089586E090E0F3CF80E0F4CF6A
:10106000CF92DF92EF92FF92CF93DF93EC016A0170
:101070007B012CEA35EC47E257EBCB01B6010E942D
:10108000448C18161CF520E030E048EC52E4C7010F
:10109000B6010E94918A87FF19C0CAA6DBA6ECA6FA
:1010A000FDA6CC5ADF4F888199810696873091053D
:1010B00054F49983888381E0DF91CF91FF90EF9082
:1010C000DF90CF90089586E090E0F3CF80E0F4CFFA
:1010D0006F927F928F929F92AF92BF92CF92DF9248
:1010E000EF92FF920F931F93CF93DF93CDB7DEB7AD
:1010F000DA950FB6F894DEBF0FBECDBF3C01CE012E
:1011000001960E948923430186E5880E911CF40113
:1011100080819181181619068CF55301F4E5AF0E04
:10112000B11CF50180819181181619063CF5F30177
:10113000C2A4D3A4E4A4F5A4008511852285338537
:1011400046A157A160A571A5CE0101960E94F72383
:10115000CE0101960E9492230E94130DF40180811A
:101160009181019797FD1FC091838083F501808154
:101170009181019797FD1AC091838083D3950FB613
:10118000F894DEBF0FBECDBFDF91CF911F910F91BD
:10119000FF90EF90DF90CF90BF90AF909F908F9097
:1011A0007F906F90089511821082E0CF118210829B
:1011B000E5CF8F929F92AF92BF92CF92DF92EF9244
:1011C000FF920F931F93CF93DF93CDB7DEB7DA95DE
:1011D0000FB6F894DEBF0FBECDBF8C010C5A1F4F67
:1011E000F801208131814C01FAE58F0E911CF40148
:1011F00040815181141615060CF070C05C01FCE5AD
:10120000AF0EB11CF50140815181141615060CF08A
:1012100065C0121613060CF048C06C01F6E5CF0E3F
:10122000D11CF60120813181121613060CF059C031
:101230007C01F0E5EF0EF11CF701208131811216DF
:1012400013060CF04EC0CE0101960E941827CE0165
:1012500001960E9492230E94130DF40180819181D6
:10126000019797FD35C091838083F501808191813D
:10127000019797FD30C091838083F801808191812F
:10128000019797FD4DC091838083F6018081918104
:10129000019797FD48C091838083F70180819181F8
:1012A000019797FD43C091838083D3950FB6F8943F
:1012B000DEBF0FBECDBFDF91CF911F910F91FF9089
:1012C000EF90DF90CF90BF90AF909F908F90089558
:1012D00011821082CACF11821082CFCF121613064C
:1012E00024F76C01F6E5CF0ED11CF6012081318187
:1012F00012161306D4F67C01F0E5EF0EF11CF7018F
:10130000808191811816190684F6CE0101960E94FB
:101310007D26CE0101960E9492230E94130DADCF2F
:1013200011821082B2CF11821082B7CF1182108247
:10133000BCCF9B01275A3F4F233B310590F4FC0162
:1013400077A766A7E85AFF4F80819181069687307C
:10135000910524F49183808381E0089586E090E0F4
:10136000F9CF80E00895EF92FF920F931F93CF93F0
:10137000DF93CDB7DEB7DA950FB6F894DEBF0FBEB8
:10138000CDBF7C01CE0101960E9489238701085AB6
:101390001F4FF8018081918118161906ACF4F701EE
:1013A00066A577A5CE0101960E945C29CE01019623
:1013B0000E9492230E94130DF80180819181019770
:1013C00097FD0FC091838083D3950FB6F894DEBF4D
:1013D0000FBECDBFDF91CF911F910F91FF90EF9086
:1013E000089511821082F0CF0C94B309CF93DF934C
:1013F000EC010E945604CE010E943305CE010E94EA
:10140000BA06CE010E942607CE010E947207CE01C5
:101410000E94B507CE010E94D908CE010E94B309EF
:10142000CE010E946808CE01DF91CF910C94CE04CA
:101430002F923F924F925F926F927F928F929F92E4
:10144000AF92BF92CF92DF92EF92FF920F931F93D2
:10145000CF93DF93CDB7DEB72C970FB6F894DEBFEE
:101460000FBECDBF98878F83FC018481282F30E089
:101470003E832D83A5808681BA2CA82EB50190E0ED
:1014800080E00E94448B20E030E04AE754E40E9470
:10149000968A0E94088B6B01C50168EE73E00E947A
:1014A00090891C01EF81F885F381F983F4FD89C1EE
:1014B0002EE42C83B101032C000C880B990B0E94A5
:1014C000468B20E030E04AE754E40E94968A2B01E4
:1014D0003C01B6010D2C000C880B990B0E94468B29
:1014E0009B01AC01C301B2010E94258A20E030E0DB
:1014F00040E752E40E94968A2B013C01ED81FE8177
:10150000BF01FF0F880B990B0E94468B9B01AC011A
:10151000C301B2010E94258A2B013C019F772FE66F
:1015200032E143E85AE30E94918A87FD31C120915C
:10153000EE073091EF073B832A83232B09F44AC03F
:101540006091B6077091B707072E000C880B990BB6
:101550000E94468B20E030E04AE754E40E94968ADD
:101560004B015C016091B4077091B507072E000C28
:10157000880B990B0E94468B9B01AC01C501B401FD
:101580000E94258A20E030E040E752E40E94968ADB
:101590004B015C016091B2077091B307072E000CFC
:1015A000880B990B0E94468B9B01AC01C501B401CD
:1015B0000E94258A9B01AC01C301B2010E94248ACA
:1015C0009F7720E030E040E05FE30E94448C1816F3
:1015D0000CF4DEC0EF81F8858781082F10E090853C
:1015E00081859C013C872B87B90190E080E00E94B7
:1015F000448B20E030E04AE754E40E94968A0E943F
:10160000088B6F83788789879A878B859C8568EE9E
:1016100073E00E9490899C878B87398135FDD4C007
:1016200087E58983EB85FC85BF01FF0F880B990B4C
:101630000E94468B20E030E04AE754E40E94968AFC
:101640004B015C012F813885B901330F880B990B51
:101650000E94468B9B01AC01C501B4010E94258A02
:1016600020E030E040E752E40E94968A4B015C01A2
:10167000B801012E000C880B990B0E94468B9B0130
:10168000AC01C501B4010E94258A4B015C019F7722
:101690002FE632E143E85AE30E94918A87FD78C041
:1016A0008A819B81892B09F449C06091BD077091A3
:1016B000BE07072E000C880B990B0E94468B20E07A
:1016C00030E04AE754E40E94968A2B013C01609185
:1016D000BB077091BC07072E000C880B990B0E946A
:1016E000468B9B01AC01C301B2010E94258A20E018
:1016F00030E040E752E40E94968A2B013C01609161
:10170000B9077091BA07072E000C880B990B0E943D
:10171000468B9B01AC01C301B2010E94258A9B014B
:10172000AC01C501B4010E94248A9F7720E030E01B
:1017300040E05FE30E94448C181654F1ED81FE8175
:10174000F093B307E093B207D092B507C092B40705
:101750003092B7072092B607FC81F093B807109338
:10176000BA070093B9072F8138853093BC072093BF
:10177000BB078B859C859093BE078093BD0799819D
:101780009093BF0786E090E09093EF078093EE0779
:101790002C960FB6F894DEBF0FBECDBFDF91CF9170
:1017A0001F910F91FF90EF90DF90CF90BF90AF907F
:1017B0009F908F907F906F905F904F903F902F9071
:1017C000089533E53C8376CE95E499832BCFCF9370
:1017D000DF93EC0161E088810E94B1821B861A864A
:1017E0001C861D861E861F8660E08881DF91CF9152
:1017F0000C94ED82CF92DF92EF92FF920F931F93A2
:10180000CF93DF93EC010E949A812A853B8521309A
:10181000310529F50C851D852E853F856B017C01E1
:10182000C01AD10AE20AF30A0A811B812C813D8188
:10183000C016D106E206F30688F11B861A866C876D
:101840007D878E879F8760E08881DF91CF911F9190
:101850000F91FF90EF90DF90CF900C94ED82232BAF
:10186000E9F40C851D852E853F856B017C01C01A2E
:10187000D10AE20AF30A0E811F8128853985C01634
:10188000D106E206F30650F021E030E03B872A87DC
:101890006C877D878E879F8761E0D6CFDF91CF9160
:1018A0001F910F91FF90EF90DF90CF9008950F93CD
:1018B0001F93CF93DF93CDB7DEB7C351D1400FB69F
:1018C000F894DEBF0FBECDBF8DE799E00E94FA0B02
:1018D00080918A0790918B078A30910528F40196B0
:1018E00090938B0780938A078FE199E00E94F32FF2
:1018F0008C018FE199E00E94E92FB8010E941E2F10
:10190000FC0110810E94182F412FBC01CE010196CD
:101910000E94312A60E472E08EEE9CE00E94247EF8
:10192000CE0101960E949223BC018EEE9CE00E94A3
:10193000497ECD5EDE4F0FB6F894DEBF0FBECDBF41
:10194000DF91CF911F910F910895FC01DB01808100
:10195000843211F0813279F493818C9198130BC009
:10196000948111968C911197981305C081E025817F
:1019700012969C91291380E00895FC01DB0180817F
:10198000843211F08132D9F491818C91981317C06F
:10199000928111968C911197981311C09381129690
:1019A0008C91129798130BC0948113968C91139776
:1019B000981305C081E0258114969C91291380E03D
:1019C0000895CF93DF932091AD09211110C0EC0150
:1019D0006BE874E08EEE9CE00E94007E4AE050E0EE
:1019E000BE018EEE9CE0DF91CF910C94FB7EDF91E7
:1019F000CF910895CF93DF932091AD09211110C0AD
:101A0000EC016DE774E08EEE9CE00E94007E4AE0FF
:101A100050E0BE018EEE9CE0DF91CF910C94FB7EF6
:101A2000DF91CF910895CF93DF93EC01FC010190FA
:101A30000020E9F73197E81BF90B8881843221F007
:101A4000813211F0803409F53797F8F09091AD09A3
:101A500091111BC09091AF09803449F49923A9F0EA
:101A6000BE018BE89DE0DF91CF910C94497E9923D4
:101A700029F0BE018BE89DE00E94247EBE018EEE1F
:101A80009CE0DF91CF910C94247EDF91CF9108955B
:101A9000CF93DF932091AD09211122C0EC0162E7C1
:101AA00074E08EEE9CE00E94007E61EB79E08EEEA9
:101AB0009CE00E94247E63E674E08EEE9CE00E942F
:101AC000007E4AE050E0BE018EEE9CE00E94217F45
:101AD0006CE574E08EEE9CE0DF91CF910C94377E44
:101AE000DF91CF9108958091AD0981110CC06CE414
:101AF00074E08EEE9CE00E94007E61EB79E08EEE59
:101B00009CE00C94497E08958F92AF92BF92CF9241
:101B1000EF92FF920F931F93CF931F921F928824EF
:101B20008A94AA24AA94BA2CCC24CA9499E4E92EC3
:101B300092E0F92E0FE412E021E632E044E650E0B4
:101B400062E772E080915A0990915B090E945749BF
:101B5000B12CA12C24E0C22E38EFE32E37E0F32E77
:101B60000BE422E849E656EB61E070E080915A0907
:101B700090915B090E94A94746E161E070E0809185
:101B80005A0990915B090E940F4A6BE772E08EEE52
:101B90009CE00E94497E64EF7AE180915A0990911D
:101BA0005B090E94135280915A0990915B090E942F
:101BB000D45DC82F60E474E08EEE9CE00E94007E4D
:101BC0000F900F90CC23D1F06BE374E08EEE9CE08D
:101BD0000E94377E6DE672E081EB99E00E949C8E58
:101BE00081E08093B0098C2FCF911F910F91FF90CE
:101BF000EF90CF90BF90AF908F90089566E374E020
:101C00008EEE9CE00E94377E1092B009ECCFCF930D
:101C1000C62FBC018EEE9CE00E94247E4AE050E07C
:101C20006C2F8EEE9CE00E941A7FC3FF07C06CE20F
:101C300074E08EEE9CE00E94007EC77FC2FF07C06A
:101C400062E274E08EEE9CE00E94007ECB7FC1FFDA
:101C500007C068E174E08EEE9CE00E94007ECD7FBC
:101C6000C0FF07C06FE074E08EEE9CE00E94007E33
:101C7000CE7FCC2331F066E074E08EEE9CE00E94D3
:101C8000007E67EA72E08EEE9CE0CF910C94497E74
:101C9000CF93DF930FB6F894A89580916000886188
:101CA00080936000109260000FBE87EF84BF88E1D0
:101CB0009EE00FB6F894A895809360000FBE9093B5
:101CC000600069E772E081EB99E00E94B08E6FE9F5
:101CD00072E081EB99E00E949C8E6CE472E081EBF3
:101CE00099E00E949C8E61E08DE00E94B18261E0EB
:101CF00087E00E94B18261E08DE00E94ED828DE874
:101D000099E00E94E70B8DE799E00E94E70B8DE6D2
:101D100099E00E94E70B8DE599E00E94E70B26E031
:101D200040E052EC61E070E08EEE9CE00E943E7C70
:101D300040EC52E160E070E081EB9AE00E941131EA
:101D400045E050E060E070E081EB9AE00E94277F80
:101D500040EC52E160E070E08EEC9BE00E941131BB
:101D600045E050E060E070E08EEC9BE00E94277F51
:101D700026E040EC52E160E070E08BE89DE00E94DC
:101D80003E7C61EA71E080E090E00E94C02C64B784
:101D900081EA92E00E94070EA8958CE599E00E94E6
:101DA000A17A0E94840D80935909A895C6E0D0E0DD
:101DB0000E94730D64E670E080E090E00E94CB81A9
:101DC0002197B1F7A895A89581E090E090939809A4
:101DD0008093970961E080918D09DF91CF910C94F8
:101DE000ED82FC01DC010D900020E9F71197A81BA2
:101DF000B90B1D97D0F180818132A9F581818134A1
:101E0000A1F58281893489F58381863571F58481D4
:101E1000843459F585818D7F8D3439F586818C32F6
:101E200021F58781082E000C990BC0970A97E8F4DA
:101E300080858C32D1F48185082E000C990BC097D7
:101E40000A9798F482858C3281F483858C3231F044
:101E5000082E000C990BC0970A9738F4BF018EEE3C
:101E60009CE00C94497E8432C9F308958F929F922E
:101E7000AF92BF92CF92DF92EF92FF920F931F9398
:101E8000CF93DF93EC014A015B016901E881F9819D
:101E90000190F081E02D19958B829C82AD82BE82EB
:101EA000DA86C986DE011B96F801CF01801B910BF3
:101EB0008E159F0564F0FE01EE0DFF1DCF018C1BFA
:101EC0009D0B8C159D0534F413863196F7CF8191C7
:101ED0008D93EBCFDF91CF911F910F91FF90EF90FA
:101EE000DF90CF90BF90AF909F908F900895CF924A
:101EF000DF92EF92FF920F931F93CF93DF93CDB7B3
:101F0000DEB7C95FD1090FB6F894DEBF0FBECDBFF3
:101F10006C01F12CE12C00E010E0980146E06FE04C
:101F2000CE0101960E942B3A8AE0ECE1F2E0DE015C
:101F3000A051BF4F01900D928A95E1F7B601DD0CDB
:101F4000880B990B0E94468B2BED3FE049E450E44F
:101F50000E94498C0E94088BAB01161617060CF0E4
:101F60004AC04F5F5F4F942F342F32953F702FE060
:101F7000231B842F8F70843008F043C0845FCA50C5
:101F8000DF4F9883C65FD04090E1299F90011124D4
:101F9000820F932F911DC750DF4F8883C95FD040B8
:101FA0008AE0E82EF12C8E0100511F4F2AE030E02C
:101FB00040E05FEE61E070E0CE0101960E94360FD6
:101FC00050E040E0BE016F5F7F4F80915A099091D1
:101FD0005B090E94D655C750DF4F0FB6F894DEBF9D
:101FE0000FBECDBFDF91CF911F910F91FF90EF906A
:101FF000DF90CF900895672B09F4B5CF4150510978
:10200000B2CF883010F48C5FBACF8C3010F484508B
:10201000B6CF8C50B4CFBF92CF92DF92EF92FF92A7
:102020000F931F93CF93DF93CDB7DEB7C75FD1096F
:102030000FB6F894DEBF0FBECDBFB82EC62ED42E7D
:10204000F12CE12C00E010E0980146E06FE0CE01B9
:1020500001960E942B3A88E0E6E2F2E0DE01A05110
:10206000BF4F01900D928A95E1F7CB50DF4FB882B8
:10207000C55FD040CA50DF4FC882C65FD040C9504C
:10208000DF4FD882C75FD04088E0E82EF12C8E0168
:1020900000511F4F26E130E040E05FEE61E070E06C
:1020A000CE0101960E94360F50E040E0BE016F5F06
:1020B0007F4F80915A0990915B090E94D655C95073
:1020C000DF4F0FB6F894DEBF0FBECDBFDF91CF91CB
:1020D0001F910F91FF90EF90DF90CF90BF900895E8
:1020E00081E090E09093AC098093AB094DEF62E002
:1020F00081E40C940B1082E090E09093AC09809303
:10210000AB094EEF61E081E40C940B1082E090E0AB
:102110009093AC098093AB094CED63E281E40C949D
:102120000B1082E090E09093AC098093AB094CEFE8
:1021300063E081E40C940B1047EF68E081E40C94B9
:102140000B1049EF66E081E40C940B1048EF67E058
:1021500081E40C940B104AEF65E081E40C940B10C1
:102160004DED62E281E40C940B104EED61E281E4EE
:102170000C940B1083E090E09093AC098093AB0932
:102180004EEE61E181EB0C940B10CF939093950789
:1021900080939407BC01990F880B990B0E94468B82
:1021A000C1E02091900730919107409192075091A2
:1021B00093070E94448C18160CF0C0E0C0930A02EA
:1021C00080E0CF91089590E080E00C94C5108DEDF3
:1021D0009FEF0C94C51083E290E00C94C510FC01B5
:1021E000DC010D900020E9F71197A81BB90B1A9795
:1021F00008F186818C32F1F481858A32D9F48781A5
:10220000082E000C990BC0974AE0489F9001499F07
:10221000300D11248085082E000C990BC097280FD3
:10222000391FC9018897255031092734310510F429
:102230000C94C51080E008950F931F93CF93DF9304
:10224000EC018B0169EA72E00E94B78E892B31F0B4
:10225000DF91CF911F910F910C947B106FEB72E087
:10226000CE010E94B78E892B31F0DF91CF911F9163
:102270000F910C94861065ED72E0CE010E94B78E2E
:10228000892B31F0DF91CF911F910F910C94911018
:102290006BEE72E0CE010E94B78E892B31F0DF9198
:1022A000CF911F910F910C94701061E073E0CE01FB
:1022B0000E94B78E892B31F0DF91CF911F910F9142
:1022C0000C949C1067E173E0CE010E94B78E892BBD
:1022D00031F0DF91CF911F910F910C94A1106DE21D
:1022E00073E0CE010E94B78E892B31F0DF91CF9140
:1022F0001F910F910C94A61063E473E0CE010E942D
:10230000B78E892B31F0DF91CF911F910F910C94F3
:10231000AB1069E573E0CE010E94B78E892B31F0D6
:10232000DF91CF911F910F910C94B0106FE673E085
:10233000CE010E94B78E892B31F0DF91CF911F9192
:102340000F910C94B51065E873E0CE010E94B78E32
:10235000892B31F0DF91CF911F910F910C94BA101E
:102360006BE973E0CE010E94B78E892B31F0DF91CB
:10237000CF911F910F910C94E31061EB73E0CE01AC
:102380000E94B78E892B31F0DF91CF911F910F9171
:102390000C94E71067EC73E0CE010E94B78E892B96
:1023A00031F0DF91CF911F910F910C94EB106DEDF7
:1023B00073E0CE010E94B78E892B39F0CE01DF91F8
:1023C000CF911F910F910C94EF1068ED73E08EEE9A
:1023D0009CE00E94007E4AE050E0B8018EEE9CE056
:1023E0000E94F47E66ED73E08EEE9CE00E94007E1B
:1023F000BE018EEE9CE00E94497E80E0DF91CF918D
:102400001F910F910895CF93DF93EC01FC01019090
:102410000020E9F73197E81BF90B369780F0288107
:10242000243269F468EC75E00E94BD0C811108C08B
:1024300065EE73E0CE01DF91CF910C94BD0C80E08E
:10244000DF91CF910895AB01BC01DC01CA019D7FF2
:102450008115984EA105B10509F4C7C041158EEE4E
:1024600058076105710509F4C0C0463B9EEF590746
:102470006105710509F4B9C0DB01CA01AE7F8A317B
:102480009F4FA105B10509F4B0C04F318FEF580738
:102490006105710509F4A9C043369FEF590761052D
:1024A000710509F4A2C045362FEF52076105710589
:1024B00009F49BC04F3F8FEF58076105710509F480
:1024C00094C044379FEF59076105710509F48DC029
:1024D000DB01CA01977F8131904FA140B10509F41A
:1024E00084C0DB01CA018D7F8431904FA140B105CA
:1024F00009F47BC0433185EF580781E06807710517
:1025000009F473C0443198EF590791E069077105E8
:1025100009F46BC04A302BEF520721E062077105C6
:1025200009F463C04B3089EF580781E068077105F3
:1025300009F45BC043309AEF590791E069077105D0
:1025400009F453C0DB01CA019E7F86309A4FA14037
:10255000B10509F44AC0DB01CA0186509D4FA14074
:10256000B1090397A105B10508F43FC044368FEFC8
:10257000580781E068077105C1F147369FEF590799
:1025800091E06907710589F1DB01CA0186579F4F08
:10259000A140B1090297A105B10538F1DB01CA01DB
:1025A000877F81159F4FA105B105F9F041328FEF6B
:1025B000580761057105C9F0DB01CA018450994FC4
:1025C000A140B1090297A105B10578F081E046303C
:1025D0009FEF590791E06907710549F04D305F4F52
:1025E0006140710521F080E0089581E0089508952B
:1025F0006F342FEF72078105910509F458C06836D2
:102600003FEF73078105910509F451C061152DEE67
:10261000720721E08207910509F449C0603130EF6B
:10262000730731E08307910509F441C0653021EF5C
:10263000720721E082079105D1F1633131EF730711
:1026400031E08307910599F1693121EF720721E0AB
:102650008207910561F1633035EF730731E083073D
:10266000910529F1693028EF720721E08207910571
:10267000F1F0633039EF730731E083079105B9F06A
:1026800061302BEF720721E08207910581F021E094
:1026900064363FEF730731E08307910531F0613114
:1026A0007E4F8140910509F020E0822F089521E0BE
:1026B000FCCFEF92FF920F931F93CF93DF93CDB791
:1026C000DEB7DA950FB6F894DEBF0FBECDBF20910E
:1026D000AD0910E000E0211117C07C010E949A8131
:1026E000AB01BC0100E011E09E012F5F3F4FC7012D
:1026F0000E94436B8C01089738F0BE016F5F7F4FDB
:102700008EEE9CE00E94497EC801D3950FB6F894E6
:10271000DEBF0FBECDBFDF91CF911F910F91FF9014
:10272000EF9008954F925F926F927F928F929F9257
:10273000AF92BF92CF92DF92EF92FF92CF93DF934F
:1027400000D000D01F921F92CDB7DEB72A013B0107
:10275000BC01990F880B990B0E94468B69837A8381
:102760008B839C83A30192010E94248A6B017C01CC
:1027700020E030E0A9010E94448C46015701181660
:1027800024F0B7FAB094B7F8B09420E030E048E114
:1027900051E4C701B6010E94498C6B017C0120E025
:1027A00030E04CE052E40E94448C18160CF442C015
:1027B00020E030E04CE052ECC701B6010E94918A63
:1027C00087FF06C0C12CD12C7CE0E72E72ECF72EDF
:1027D0008091960790919707A0919807B0919907DB
:1027E0008D839E83AF83B88720E030E040E05FE3D5
:1027F000BC01CD010E94258AA50194010E94448C50
:102800001816FCF490E080E028960FB6F894DEBF2E
:102810000FBECDBFDF91CF91FF90EF90DF90CF90B3
:10282000BF90AF909F908F907F906F905F904F90F0
:102830000C94770FC12CD12C6CE0E62E62E4F62EBE
:10284000C7CF2AE939E949E95FE36D817E818F814C
:1028500098850E94258AA50194010E94448C18162F
:102860000CF04AC020E030E040EC50E4C701B60173
:102870000E94448C18160CF120E030E040EC50EC43
:10288000C701B6010E94918AA301920187FD97C0FA
:1028900069817A818B819C810E94448C18169CF4FA
:1028A00020E030E0A901C701B6010E94918A87FFAC
:1028B0000AC0C12CD12C760119C0C12CD12C50ECEE
:1028C000E52E50E4F52EA301920169817A818B8176
:1028D0009C810E94918A87FF09C020E030E0A90115
:1028E000C701B6010E94448C18161CF3C701B6013B
:1028F0000E94088BCB0188CF26E636E646EE5FE3E2
:102900006D817E818F8198850E94258AA501940121
:102910000E94448C181614F520E030E040E951E4A0
:10292000C701B6010E94448C18168CF020E030E0FC
:1029300040E951ECC701B6010E94918A87FFD6CFCA
:10294000C12CD12C40E9E42E41ECF42ECFCFC12C88
:10295000D12C30E9E32E31E4F32EC8CF2AE939E94E
:1029600049E150E46D817E818F8198850E94258A9E
:10297000A50194010E94448C18160CF4B7CF20E0F6
:1029800030E0A901C701B6010E94448C181684F0FA
:1029900020E030E0A901C701B6010E94918A87FFBB
:1029A000A5CFC12CD12C2CE0E22E22ECF22E9ECF12
:1029B000C12CD12C9CE0E92E92E4F92E97CF6981AD
:1029C0007A818B819C810E94448C18160CF471CF03
:1029D000C12CD12C80ECE82EFE2C88CFCF92DF9238
:1029E000EF92FF920F931F93CF93DF9300D000D00D
:1029F00000D01F921F92CDB7DEB78E010F5F1F4F21
:102A00009E01275F3F4FAE01455F5F4FBE016B5F89
:102A10007F4F0E94A635882309F489C0CD80DE80CF
:102A2000EF80F88428E23BE64EE65EECC701B60193
:102A30000E94918A882381F020E030E044E353E44F
:102A4000C701B6010E94498C2BED3FE049E450E4F8
:102A50000E94968A6B017C01C0929007D0929107E8
:102A6000E0929207F0929307C701B6010E94088B8B
:102A70008EE997E00E949909882309F458C0809153
:102A8000A9099091AA09039709F051C08091AB0957
:102A90009091AC09039709F04AC04091900750917A
:102AA0009107609192077091930720910A0280919B
:102AB0009407909195070E9492132091900730916E
:102AC0009107409192075091930760918007709110
:102AD000810780918207909183070E94248A6B016D
:102AE0007C0120E030E040E05FE30E94448C181657
:102AF00054F020E030E040E05FEBC701B6010E94F7
:102B0000918A87FF14C08EE997E00E94B3098091F3
:102B1000900790919107A0919207B09193078093AD
:102B2000800790938107A0938207B09383072B9629
:102B30000FB6F894DEBF0FBECDBFDF91CF911F91CE
:102B40000F91FF90EF90DF90CF900895CF92DF929A
:102B5000EF92FF920F931F93CF93DF9300D000D09B
:102B600000D0CDB7DEB719861E821D8219821A8267
:102B70001B821C828E010F5F1F4F9E012B5F3F4FF8
:102B8000AE01495F5F4FBE01675F7F4F0E9498367D
:102B90008823F9F0C980DA80EB80FC8020E030E007
:102BA000A901C701B6010E94448C87FD12C020E034
:102BB00030E044EB52E4C701B6010E94918A87FFDE
:102BC00008C0C092A607D092A707E092A807F0928B
:102BD000A90729960FB6F894DEBF0FBECDBFDF91CF
:102BE000CF911F910F91FF90EF90DF90CF900895BC
:102BF000CF92DF92EF92FF920F931F93CF93DF93C9
:102C0000CDB7DEB72F970FB6F894DEBF0FBECDBF9E
:102C10001F8619861A861B861C861D821E821F82AD
:102C2000188619821A821B821C829E01235F3F4FE5
:102C300079018E010F5F1F4F28503109AE01475FA8
:102C40005F4FBE01615F7F4F0E941336882321F1E1
:102C5000C984DA84EB84FC8428E23BE64EE65EEC31
:102C6000C701B6010E94918A882381F020E030E0FC
:102C700044E353E4C701B6010E94498C2BED3FE0C9
:102C800049E450E40E94968A6B017C01B701A601D9
:102C90008EE997E00E94EF062F960FB6F894DEBFFC
:102CA0000FBECDBFDF91CF911F910F91FF90EF909D
:102CB000DF90CF900895CF92DF92EF92FF92CF9363
:102CC000DF93EC0189859A85089709F05AC08B85B6
:102CD0008B3309F056C08C858F3909F052C08D8531
:102CE0008F3F09F04EC08E858F3F09F04AC08F8517
:102CF0008F3F09F046C0698970E090E080E00E9453
:102D0000448B20E030E040E853E40E94498C6B01A2
:102D10007C01688970E090E080E00E94448B9B0118
:102D2000AC01C701B6010E94258A20E030E044EBE7
:102D300053E40E94498C29EF3FE049E450E40E94AB
:102D4000968A20E030E44CE956E40E94968A20E01E
:102D500030E040E05FE30E94258A0E94088B6B010F
:102D60008091A9099091AA09029791F4C6010E9445
:102D7000E10C10927F0710927E07D0927D07C092DF
:102D80007C07DF91CF91FF90EF90DF90CF90089577
:102D900080917C0790917D07C816D90639F78091FC
:102DA0007E0790917F078630910504F701969093F6
:102DB0007F0780937E07E1CF8F929F92AF92BF9261
:102DC000CF92DF92EF92FF920F931F93CF93DF93F7
:102DD000CDB7DEB72D970FB6F894DEBF0FBECDBFCF
:102DE0001D8619861A861B861C861D821E821F82DE
:102DF00018868E010F5F1F4F9E012B5F3F4FAE0164
:102E0000475F5F4FBE01635F7F4F0E94013788239A
:102E100009F448C08D809E80AF80B884C984DA846C
:102E2000EB84FC8428E23BE64EE65EECC501B4018F
:102E30000E94918A8823F1F020E030E0A901C501C9
:102E4000B4010E94918A8823A9F028E23BE64EE66D
:102E50005EECC701B6010E94918A882319F1A7018F
:102E60009601C501B4010E94258A2FEB3EE04CE992
:102E70005EE310C028E23BE64EE65EECC701B60119
:102E80000E94918A882371F02FEB3EE04CE95EE3CB
:102E9000C701B6010E94968AAB01BC018EE997E09A
:102EA0000E941E042D960FB6F894DEBF0FBECDBF54
:102EB000DF91CF911F910F91FF90EF90DF90CF9016
:102EC000BF90AF909F908F900895CF92DF92EF9236
:102ED000FF920F931F93CF93DF9300D000D000D0C9
:102EE0001F921F92CDB7DEB71B861D821E821F82E6
:102EF000188619821A821B821C828E010F5F1F4F57
:102F00009E012B5F3F4FAE01475F5F4FBE01655F84
:102F10007F4F0E94CE378823B1F1CD80DE80EF80D5
:102F2000F88428E23BE64EE65EECC701B6010E945B
:102F3000918A882381F020E030E044E353E4C70124
:102F4000B6010E94498C2BED3FE049E450E40E9419
:102F5000968A6B017C01B701A6018EE997E00E9479
:102F60000108882381F021EA32EB43E05FE36981C5
:102F70007A818B819C810E94968AAB01BC018EE98B
:102F800097E00E9430082B960FB6F894DEBF0FBE74
:102F9000CDBFDF91CF911F910F91FF90EF90DF9008
:102FA000CF900895CF92DF92EF92FF920F931F93ED
:102FB000CF93DF9300D000D000D01F921F92CDB7E7
:102FC000DEB71D821E821F82188619821A821B821A
:102FD0001C828E01075F1F4F9E012F5F3F4FAE0186
:102FE0004B5F5F4FBE01655F7F4F0E945E39882354
:102FF000A1F125EE3FEC48EF5FE36D817E818F818B
:1030000098850E94498CAB01BC018EE997E00E9433
:103010009805C980DA80EB80FC8028E23BE64EE62A
:103020005EECC701B6010E94918A882381F020E0FE
:1030300030E044E353E4C701B6010E94498C2BED14
:103040003FE049E450E40E94968A6B017C01B7019D
:10305000A6018EE997E00E9497042B960FB6F8948C
:10306000DEBF0FBECDBFDF91CF911F910F91FF90BB
:10307000EF90DF90CF9008950F931F93CF93DF933E
:1030800000D000D01F921F92CDB7DEB71D821E82E6
:103090001F82188619821A821B821C82AE014F5F22
:1030A0005F4FBE016B5F7F4F0E947637882361F0D0
:1030B00009811A812B813C814D815E816F817885E8
:1030C0008EE997E00E94CF0528960FB6F894DEBFF0
:1030D0000FBECDBFDF91CF911F910F9108958F92B9
:1030E0009F92AF92BF92CF92DF92EF92FF920F9397
:1030F0001F93CF93DF93CDB7DEB7AD970FB6F8949C
:10310000DEBF0FBECDBF1DA61AA619A61D8E1E8E30
:103110001F8E18A2198E1A8E1B8E1C8E1D8A1E8A57
:103120001F8A188E198A1A8A1B8A1C8A1D861E8677
:103130001F86188A19861A861B861C861D821E8287
:103140001F8218861BA61AA219A219821A821B8234
:103150001C829E012F5F3F4F3F932F93205E3F4F76
:103160003F932F932E5F3F4F3F932F93285F3F4F07
:103170003F932F93265231093F932F932C5F3F4F5C
:103180003F932F932C5F3F4F3F932F93215E3F4FF1
:103190003F932F932750310949012E5F3F4F59012B
:1031A0002651310969012C5F3F4F79018E01075E7D
:1031B0001F4F285F3F4FAE01475D5F4FBE01635D0C
:1031C0007F4F0E943B380FB6F894DEBF0FBECDBFD5
:1031D000882321F1C98CDA8CEB8CFC8C20E034E262
:1031E00044E759ECC701B6010E94918A87FD16C0D9
:1031F0008D889E88AF88B88C20E034E244E759EC93
:10320000C501B4010E94918A87FD08C0950184011F
:10321000B701A6018EE997E00E94CF05AD960FB6E3
:10322000F894DEBF0FBECDBFDF91CF911F910F91FC
:10323000FF90EF90DF90CF90BF90AF909F908F90D6
:1032400008950F931F93CF93DF93EDE9F9E0138275
:10325000128288EE93E0A0E0B0E084839583A68399
:10326000B78388ED95E091838083EDE8F9E088E20B
:1032700090E09183808348EC50E060E070E042830E
:1032800053836483758380E293E0A0E0B0E086839B
:103290009783A087B187EDE7F9E029E230E0318339
:1032A0002083428353836483758386839783A087B7
:1032B000B187EDE6F9E02AE230E0318320834283F2
:1032C00053836483758386839783A087B187EDE5F5
:1032D000F9E02BE230E0318320834283538364831F
:1032E000758386839783A087B18765E38CE599E032
:1032F0000E9405798EE490E00E944A81EC0102E38D
:1033000010E025E142E065E30E946033D0935B0961
:10331000C0935A098CE399E00E94852F8FE199E0D0
:103320000E94852F8EEB98E00E94A92A8DE598E0F7
:103330000E94A92A8CEF97E00E94A92AEEE9F7E003
:103340001092E7071092E6071092E9071092E8073B
:103350001092EB071092EA071092ED071092EC071B
:103360001092EF071092EE071092F1071092F007FB
:103370001092F3071092F2071092F5071092F407DB
:103380001092F7071092F6071092F9071092F807BB
:103390001092FB071092FA07108211821282138298
:1033A000148215821682178280E090E0A0E4B0ECCF
:1033B00080879187A287B38714861586168617861D
:1033C000108A118A128A138A158A148A178A168A11
:1033D000118E108E80E4828F148E138E168E158EB1
:1033E00010A2178E81A312A213A214A215A216A2D4
:1033F00017A210A611A612A613A614A615A617A604
:1034000016A664E077E08EEC97E00E94B08E64E050
:1034100077E08AED97E0DF91CF911F910F910C94A7
:10342000B08E88ED95E090939E0980939D090C9451
:10343000FE2E6EEB74E08EEE9CE00E94377E8EEEE8
:103440009CE00C94D77B6CEA74E08EEE9CE00E94CA
:10345000377E8EEE9CE00C94D77B6AE974E08EEEAA
:103460009CE00E94377E8EEE9CE00C94D77B80918E
:10347000AD0981112DC08091AB099091AC092091CB
:10348000A9093091AA098217930739F085E090E0E5
:1034900090938F0780938E07089520918E07309127
:1034A0008F0721153105A1F02150310930938F0785
:1034B00020938E078230910511F40C94191A8330F1
:1034C000910511F40C94231A019711F40C942D1A00
:1034D0000895CF93DF93EC018B819C81AD81BE81F8
:1034E00081159F4EA140B105F9F489859A85089709
:1034F000DCF08B858B33C1F48C858F39A9F48D85F5
:10350000803F91F48E85813879F48F85843809F075
:103510004FC08B8980FF0BC00E94231A83E090E08C
:103520009093AA098093A909DF91CF91089581FF13
:103530003AC00E94191A82E090E09093AA09809301
:10354000A9098B896EE173E082FD02C06CE073E033
:103550008EEE9CE00E94377E8B896AEF72E083FDDD
:1035600002C067EE72E08EEE9CE00E94377E898991
:103570008295869586958370CA89C695D0E09AE52E
:10358000899FC00DD11D112468ED72E08EEE9CE084
:103590000E94007E4AE050E0BE018EEE9CE0DF918A
:1035A000CF910C94FB7E0E942D1A81E090E0C5CF54
:1035B0008D3A09F0B9CF8889833009F0B5CF698990
:1035C000062E000C770B880B990B0E94468B2BED77
:1035D0003FE049E450E40E94968A0E94088BCB01A8
:1035E000DF91CF910C94FA0CCF92DF92EF92FF9281
:1035F000CF93DF93EC01CB80DC80ED80FE80809167
:103600008807909189078A30910528F40196909354
:10361000890780938807C701B6010E94F8128111BB
:10362000EAC0C701B6010E9423128111E4C08DE5F2
:1036300099E00E94FA0B80E5C8168FEFD806E104E6
:10364000F10449F4CE01DF91CF91FF90EF90DF902C
:10365000CF900C945B16C1148FEED80681E0E8067B
:10366000F10449F4CE01DF91CF91FF90EF90DF900C
:10367000CF900C94691A8DE0C81681EFD80681E0CE
:10368000E806F10469F48F81882309F4B4C0CE01FF
:10369000DF91CF91FF90EF90DF90CF900C94EE14DC
:1036A00082E1C81681EFD80681E0E806F10469F4EA
:1036B0008F81882309F49FC0CE01DF91CF91FF90C5
:1036C000EF90DF90CF900C94F8158AE1C81681EF47
:1036D000D80681E0E806F10449F4CE01DF91CF91EC
:1036E000FF90EF90DF90CF900C94A6158BE0C8165A
:1036F00085EFD80681E0E806F10449F4CE01DF91B8
:10370000CF91FF90EF90DF90CF900C94DC1681E08A
:10371000C81688EFD80681E0E806F10449F4CE0126
:10372000DF91CF91FF90EF90DF90CF900C943C18F9
:1037300082E0C81688EFD80681E0E806F10449F473
:10374000CE01DF91CF91FF90EF90DF90CF900C945E
:10375000651785E0C81688EFD80681E0E806F10411
:1037600049F4CE01DF91CF91FF90EF90DF90CF90A1
:103770000C946F1882E0C8168DEFD80681E0E80639
:10378000F10449F4CE01DF91CF91FF90EF90DF90EB
:10379000CF900C94D217D701C6018E50984FA140FC
:1037A000B1090297A105B10548F4CE01DF91CF918F
:1037B000FF90EF90DF90CF900C94591382E0C816E1
:1037C0008BEFD80681E0E806F10479F381E1C81AAD
:1037D0008BEFD80A81E0E80AF10882E0C816D1042C
:1037E000E104F10410F38091AD09811104C08091CE
:1037F000AE098111DACFDF91CF91FF90EF90DF908A
:10380000CF9008956F927F928F929F92AF92BF92C6
:10381000CF92DF92EF92FF920F931F93CF93DF939C
:103820004C01FC01C181CF70D0E0239685E0C82E09
:10383000D12C6624639481EB9AE00E94447B7C0146
:10384000540191E0E114F10459F081EB9AE00E94F7
:103850001F3163E070E080E090E00E94CB81EBCF0D
:1038600081E0EC16FD060CF480E0792E7624782AAF
:1038700041F5F50101915F0110E0E114F10409F453
:103880001160B80181EB9AE00E94453163E070E07D
:1038900080E090E00E94CB8181EB9AE00E94447B23
:1038A000892B51F081EB9AE00E941F3177247394A9
:1038B0008017910709F0712CFFEFEF1AFF0A972D7F
:1038C000CFCF911112C022E330E040E050E062E03F
:1038D00070E080E090E00E941A810E94CB8181E03C
:1038E000C81AD10809F0A7CF712C872DDF91CF918D
:1038F0001F910F91FF90EF90DF90CF90BF90AF900E
:103900009F908F907F906F90089580918C079091F9
:103910008D070A9720F082ED94E00C94021C089524
:103920006F927F928F929F92AF92BF92CF92DF92CF
:10393000EF92FF920F931F93CF93DF934C01FC0103
:10394000C181CF70D0E0239685E0C82ED12C6624AB
:1039500063948EEC9BE00E94447B7C01540191E0D7
:10396000E114F10459F08EEC9BE00E941F3163E0FA
:1039700070E080E090E00E94CB81EBCF81E0EC161C
:10398000FD060CF480E0792E7624782A41F5F501C5
:1039900001915F0110E0E114F10409F41160B80134
:1039A0008EEC9BE00E94453163E070E080E090E0A7
:1039B0000E94CB818EEC9BE00E94447B892B51F0CE
:1039C0008EEC9BE00E941F3177247394801791073F
:1039D00009F0712CFFEFEF1AFF0A972DCFCF91114D
:1039E00012C022E330E040E050E062E070E080E0AE
:1039F00090E00E941A810E94CB8181E0C81AD10810
:103A000009F0A7CF712C872DDF91CF911F910F91D6
:103A1000FF90EF90DF90CF90BF90AF909F908F90EE
:103A20007F906F90089580918A0790918B070A97F5
:103A300020F08FEC94E00C94901C08950F931F934A
:103A4000CF93DF93CDB7DEB7C351D1400FB6F89413
:103A5000DEBF0FBECDBF8DE699E00E94FA0B8DE56B
:103A600098E00E94A22B8C010E94130D6AEC75E075
:103A7000C8010E94A50C882399F0B801CE010196D7
:103A80000E947C298091B009811105C0CE018F5F11
:103A90009E4F0E94021CCE018F5F9E4F0E94901C81
:103AA000CD5EDE4F0FB6F894DEBF0FBECDBFDF9107
:103AB000CF911F910F9108958DE999E00E94972C65
:103AC00018161906CCF48DE999E00E946E2C97FD2A
:103AD00013C0682F8DE598E00E94BA2A81309105C5
:103AE00011F40C941E1D0297029730F48DE598E0B6
:103AF0000E94AD2B0C94F10E08950F931F93CF935A
:103B0000DF93CDB7DEB7C351D1400FB6F894DEBF17
:103B10000FBECDBF8DE699E00E94FA0B809186071B
:103B2000909187078A30910528F401969093870732
:103B3000809386078CEF97E00E94A22B8C010E9455
:103B4000130D6AEC75E0C8010E94A50C882399F05A
:103B5000B801CE0101960E947C298091B0098111A3
:103B600005C0CE018F5F9E4F0E94021CCE018F5F69
:103B70009E4F0E94901CCD5EDE4F0FB6F894DEBFC4
:103B80000FBECDBFDF91CF911F910F9108958EECA5
:103B90009BE00E94447B892B71F08EEC9BE00E949D
:103BA0001F3197FD08C0BC018FE199E00E948F2F63
:103BB00081110C94570C0895CF92DF92EF92FF92EF
:103BC0000F931F93CF93DF9381EB9AE00E94447B86
:103BD000892B09F475C381EB9AE00E941F3197FD90
:103BE0006FC3BC018CE399E00E948F2F882309F4F6
:103BF00067C38DE899E00E94FA0B80918C07909141
:103C00008D078A30910528F4019690938D07809353
:103C10008C078CE399E00E94F32FEC018CE399E090
:103C20000E94E92FBE010E941E2FEC010E941A2F54
:103C30008C018CE399E00E94F32F7C0180910B02B0
:103C4000882371F0CE010E94182F892B49F08881BA
:103C5000998103972CF0CE010E94182F0E94901C8E
:103C60000115110599F525E0E216F10409F56E81BB
:103C7000862F90E0982F88276D81680F792F711D0E
:103C8000072E000C880B990B0E94468B20E030E039
:103C900040E251E40E94968AAB01BC018EE997E0B4
:103CA0000E941E04882321F08EE997E00E945604AA
:103CB000209709F405C3CE01DF91CF911F910F9199
:103CC000FF90EF90DF90CF900C944E81053011055E
:103CD00079F30031110519F534E0E316F10441F7E9
:103CE0006C8170E0762F6627072E000C880B990BED
:103CF0002D81622B0E94448B20E030E040E05FE3A6
:103D00000E94498CAB01BC018EE997E00E949704A8
:103D1000882371F28EE997E00E943305C9CF013103
:103D2000110581F584E0E816F10411F61C816D811E
:103D30006F7070E090E080E00E94468B20E030E001
:103D400040E251E40E94968A6B017C01612F6F77FB
:103D500070E090E080E00E94468B9B01AC01C701BF
:103D6000B6010E94258A17FF06C022EA32EB43E023
:103D70005FE30E94968AAB01BC018EE997E00E9446
:103D80009805C6CF0032110509F492CFC801839778
:103D90008230910508F48CCF03978230910508F4A6
:103DA00087CF8A97029708F483CF0235110561F512
:103DB00024E0E216F10409F07BCF6D81862F90E0BC
:103DC000982F88276C81680F792F711D072E000CA2
:103DD000880B990B0E94468B20E030E040E251E4D2
:103DE0000E94968AAB01BC018EE997E00E943008E0
:103DF000882309F45DCF8EE997E00E9468088EE978
:103E000097E00E94D90854CF0335110509F06EC020
:103E100033E0E316F10409F04BCF0B8110E084E0AE
:103E2000159507958A95E1F76C816F7370E090E0C6
:103E300080E00E94468B9B01AC010E94258A6B01A9
:103E40007C01B80163707727072E000C880B990B53
:103E50000E94468B20E030E044EB52E40E94498C03
:103E60009B01AC01C701B6010E94258A6B017C0150
:103E7000B8016C707727072E000C880B990B0E94F5
:103E8000468B20E030E040E05EE30E94498C9B01DD
:103E9000AC01C701B6010E94258A6B017C01AC010F
:103EA0009B016091C4077091C5078091C6079091EE
:103EB000C7070E94248A9F7720E030E044E354E45F
:103EC0000E94918A87FFF4CE20E030E044EB53E477
:103ED000C701B6019F770E94918A87FFE9CEB7019B
:103EE000A6018EE997E00E94010882CF04351105F2
:103EF00009F04DC084E0E816F10409F0D9CE3D8107
:103F0000832F90E048970CF0D3CE8C81482F4695B4
:103F100046954C3308F0CCCE20E1829FC00111249D
:103F200099272B8122952F70822B8F7399278C33A1
:103F300091050CF0BDCE9F938F931F924F931F92CC
:103F40003F938BEE93E09F938F938AED97E09F933F
:103F50008F930E940E8F8091FA079091FB0706962F
:103F60009093FB078093FA072DB73EB7265F3F4F2C
:103F70000FB6F8943EBF0FBE2DBF07970CF498CE36
:103F800086E090E09093FB078093FA0791CE063588
:103F9000110509F046C034E0E316F10409F088CEBB
:103FA0009C818FEF890F8F3108F082CE8B818295B3
:103FB0008F702FEF280F2C3008F07ACE2D81422FF2
:103FC00050E0433151050CF473CE1F922F931F9292
:103FD0008F931F929F938BEE93E09F938F938EEC22
:103FE00097E09F938F930E940E8F8091F807909196
:103FF000F90744969093F9078093F8072DB73EB7D9
:10400000265F3F4F0FB6F8943EBF0FBE2DBF4597BA
:104010000CF44ECE84E190E09093F9078093F8077A
:1040200047CE0735110509F443CE0835110561F473
:1040300038E0E316F10419F4CE010E94180A8EE963
:1040400097E00E94BA0634CE0935110509F430CE46
:104050000238110509F42CCE0438110509F073C09B
:104060002B81822F90E0B4E095958795BA95E1F782
:10407000837099273AE5389FA001399F500D11248C
:104080006C816F7370E0660F771F640F751F220FCE
:10409000611D711D072E000C880B990B0E94468B29
:1040A0006093C0077093C1078093C2079093C307C2
:1040B0008091F0079091F10702969093F107809319
:1040C000F007039734F082E090E09093F10780933B
:1040D000F0078091AD098111EBCD8E8181FF2EC05B
:1040E0000E94191A82E090E09093AA098093A9098E
:1040F0008E8166E673E082FD02C064E573E08EEEB9
:104100009CE00E94377E8E8162E473E083FD02C0F2
:104110006FE273E08EEE9CE00E94377E2C81229548
:104120002695269523708D81869590E03AE5239F0C
:10413000800D911D11240E94E10CBACD0E942D1A10
:1041400081E090E0D1CFC80185589109029708F429
:10415000AFCD09381105B9F585E0E816F10409F08D
:10416000A7CD2B81822F90E0F4E095958795FA9565
:10417000E1F7837099273DE2389FA001399F500DE8
:1041800011246C816F73640F752F711D660F771F7B
:10419000220F611D711D072E000C880B990B0E94C8
:1041A000468BAB01BC018EE997E00E94EF068823A5
:1041B00009F47ECD8EE997E00E9426078EE997E00C
:1041C0000E94720720C00039110509F471CD093928
:1041D0001105F1F423E0E216F10409F069CD6C81D8
:1041E00070E06A3571050CF063CD072E000C880B6A
:1041F000990B0E94468B6093A6077093A707809344
:10420000A8079093A9078EE997E00E94B50750CDC3
:104210000C39110509F04CCD34E0E316F10409F036
:1042200047CD2B81822F90E034E0959587953A9584
:10423000E1F7837099273AE5389FA001399F500D27
:1042400011246C816F7370E0660F771F640F751F08
:10425000220F611D711D072E000C880B990B0E9407
:10426000468BAB01BC018EE997E00E94EF068823E4
:1042700009F41ECD6D8170E0603871050CF07A95FF
:104280008EE997E00E949909882309F411CD6D8188
:1042900070E0603871050CF07A95072E000C880BE1
:1042A000990B0E94468B60939007709391078093BF
:1042B0009207909393078EE997E00E94B3097ACF13
:1042C000DF91CF911F910F91FF90EF90DF90CF90F2
:1042D00008958BE89DE00E94447B892BC9F08BE810
:1042E0009DE00E945E7B97FD13C0682F8CEF97E0E6
:1042F0000E94BA2A8130910511F40C947D1D029719
:10430000029730F48CEF97E00E94AD2B0C94F10EE5
:1043100008952F923F924F925F926F927F928F9269
:104320009F92AF92BF92CF92DF92EF92FF920F9344
:104330001F93CF93DF93CDB7DEB7CA51D1400FB6ED
:10434000F894DEBF0FBECDBF1E012CEE221A2EEF59
:10435000320AC12CD12C80E4E82EFE2C812C912C29
:1043600090E8A92E90E4B92E412C512C20E8622E21
:104370002FE3722E8EEE9CE00E94447B892B71F11C
:104380008EEE9CE00E945E7B682F8EEB98E00E9490
:10439000BA2A8130910509F0F9C08EEB98E00E94AD
:1043A000A22B8C018EEB98E00E94AE2B0797B4F005
:1043B000D801BC91C65EDE4FB883CA51D140B1323C
:1043C00039F58091AD09811109C08091AF09882329
:1043D00029F0B8018BE89DE00E94247EC65EDE4F86
:1043E0000FB6F894DEBF0FBECDBFDF91CF911F9106
:1043F0000F91FF90EF90DF90CF90BF90AF909F9084
:104400008F907F906F905F904F903F902F90089586
:10441000C8010E940312882381F18091B0098111A3
:104420001CC080918C0790918D070A9708F4A2CF49
:10443000B801CE0101960E947C29CE018F5F9E4F6C
:104440000E94021C68EF73E08EEE9CE00E94497EA1
:104450008EEE9CE00E94D77B8DCF80918807909153
:1044600089070A9708F486CF8EEB98E00E94AE2B5E
:10447000BC01C8010E941C11E5CFC65EDE4FE88179
:10448000CA51D140E43209F075CF62E074E0C8014E
:104490000E94BD0C882321F0F1E0F093AD096ACFB2
:1044A00068E074E0C8010E94BD0C882309F462CF63
:1044B000F80101900020E9F73197E01BF10B3997E3
:1044C00008F458CF6EE074E08EEE9CE00E94247EEB
:1044D000D80117968C91282F082E000C330B3F9390
:1044E0008F93EDE1F4E0FF93EF931F9286E08F93BB
:1044F0003F922F920E94D18EB1018EEE9CE00E94DD
:10450000497E0FB6F894DEBF0FBECDBFF80187819C
:10451000823331F174F48033D1F0813309F02ACF42
:104520004092960750929707609298077092990769
:1045300021CF833311F1843309F01CCF8092960789
:1045400090929707A0929807B092990713CF109274
:1045500096071092970710929807109299070ACF22
:1045600080E090E0A0E0B0E48093960790939707F6
:10457000A0939807B0939907FDCEC0929607D0926A
:104580009707E0929807F0929907F4CE8230910550
:10459000B1F48EEB98E00E94A22B0E9403128823B4
:1045A00009F41CCF64EB73E08EEE9CE00E94377E32
:1045B0006AEA73E08EEE9CE00E94377E49CF039753
:1045C00009F0D8CE8EEB98E00E94A22B0E94031235
:1045D000882309F403CF61E873E08EEE9CE00E942B
:1045E000377E67E773E0E6CFA8950E94DC1D0E9446
:1045F000C71D0E9489210E9469210E945C1D809133
:104600005909882331F080915A0990915B090E94E1
:104610008D6A8091840790918507813A2FE09207F7
:1046200094F10E94371A8EE997E00E94F6091092E1
:1046300085071092840780919C0790919D078F3188
:104640009105B0F00E94851C0E94131D80919A076D
:1046500090919B079C012F5F3F4F30939B072093C6
:104660009A070E94480D10929D0710929C0708958A
:10467000019690939D0780939C0761E080FF60E026
:104680008DE00C94ED8201969093850780938407CA
:10469000803D974031F40E94371A8EE997E00C94E0
:1046A000F40908950F931F93CF93DF938C01EC01CE
:1046B00009900020E9F72197C81BD90BBE01615072
:1046C000710901960E94BF2BF801EC0FFD1F2AE231
:1046D00020839F938F938FEC95E09F938F93CE01D0
:1046E0000196800F911F9F938F930E940E8F0F90C2
:1046F0000F900F900F900F900F90CE01039662E0F5
:1047000077E0800F911FDF91CF911F910F910C9453
:10471000B08E20E031E0FC01A901119241505040DF
:10472000E1F7089508958F929F92AF92BF92CF9232
:10473000DF92EF92FF920F931F93CF93DF93D82FC7
:10474000C92F6A017B014801590120E030E040E2B5
:1047500051E4C501B8010E94498C0E94088B0AE00F
:1047600010E0CB01B8010E94A4899F938F93C501EB
:10477000B4010E94088B7F936F9320E030E040E209
:1047800051E4C701B6010E94498C0E94088BCB01FD
:10479000B8010E94A4899F938F93C701B6010E941C
:1047A000088B7F936F9380E294E09F938F938FEFBA
:1047B0008F938DEF8F93CF93DF930E94D18E8DB720
:1047C0009EB70E960FB6F8949EBF0FBE8DBF8D2F6D
:1047D0009C2FDF91CF911F910F91FF90EF90DF9071
:1047E000CF90BF90AF909F908F900C9452232F92B8
:1047F0003F924F925F926F927F928F929F92AF9271
:10480000BF92CF92DF92EF92FF920F931F93CF93BD
:10481000DF9300D01F92CDB7DEB7382E292E4A0184
:104820005B01A9019801CB01B4010E94248A69832C
:104830007A838B839C8326E53EE04DEE5FE3C701E0
:10484000B6010E94498C2B013C0120E030E040E29F
:1048500051E40E94498C0E94088BCB016AE070E011
:104860000E94A4899F938F93C301B2010E94088B79
:104870007F936F9320E030E040E251E4C701B6013E
:104880000E94498C0E94088BCB016AE070E00E9474
:10489000A4899F938F93C701B6010E94088B7F93D1
:1048A0006F9320E030E040E251E4C501B4010E9482
:1048B000498C0E94088BCB016AE070E00E94A489B9
:1048C0009F938F93C501B4010E94088B7F936F93D0
:1048D00020E030E040E251E469817A818B819C8163
:1048E0000E94498C0E94088BCB016AE070E00E9414
:1048F000A4899F938F9369817A818B819C810E9487
:10490000088B7F936F938DE394E09F938F938FEF4A
:104910008F938DEF8F932F923F920E94D18E0FB67F
:10492000F894DEBF0FBECDBF832D922D0F900F9058
:104930000F900F90DF91CF911F910F91FF90EF900B
:10494000DF90CF90BF90AF909F908F907F906F90AF
:104950005F904F903F902F900C9452232F923F9254
:104960004F925F926F927F928F929F92AF92BF927F
:10497000CF92DF92EF92FF920F931F93CF93DF932B
:1049800000D01F92CDB7DEB7382E292E6A017B01E9
:104990002801390126E53EE04DEE5FE3C301B80191
:1049A0000E94498C4B015C0120E030E04AE754E46E
:1049B0000E94498C20E030E041E655E40E94968A4E
:1049C00069837A838B839C8320E030E044E353E463
:1049D000C701B6010E94448C12E518165CF4A701C9
:1049E000960160E070E084EB93E40E94248A6B01FE
:1049F0007C011CE420E030E040E251E4C501B40158
:104A00000E94498C0E94088BCB016AE070E00E94F2
:104A1000A4899F938F93C501B4010E94088B7F9353
:104A20006F9320E030E040E251E469817A818B812C
:104A30009C810E94498C0E94088BCB016AE070E047
:104A40000E94A4899F938F9369817A818B819C8135
:104A50000E94088B7F936F9320E030E040E251E4A6
:104A6000C301B2010E94498C0E94088BCB016AE00D
:104A700070E00E94A4899F938F93C301B2010E94AA
:104A8000088B7F936F931F921F9320E030E040E2EA
:104A900051E4C701B6010E94498C0E94088BCB01EA
:104AA0006AE070E00E94A4899F938F93C701B601CA
:104AB0000E94088B7F936F938CE694E09F938F9373
:104AC0008FEF8F938DEF8F932F923F920E94D18E15
:104AD0000FB6F894DEBF0FBECDBF832D922D0F9081
:104AE0000F900F900F90DF91CF911F910F91FF903A
:104AF000EF90DF90CF90BF90AF909F908F907F907E
:104B00006F905F904F903F902F900C9452234F9254
:104B10005F926F927F928F929F92AF92BF92CF924D
:104B2000DF92EF92FF920F931F93CF93DF9300D00A
:104B30001F92CDB7DEB7182F092F0E9489236091ED
:104B4000B6077091B707072E000C880B990B0E94CF
:104B5000468B20E030E040E752E40E94968A6B01E9
:104B60007C016091B4077091B507072E000C880B8B
:104B7000990B0E94468B9B01AC01C701B6010E94B4
:104B8000258A2B013C016091BD077091BE07072E5D
:104B9000000C880B990B0E94468B20E030E040E728
:104BA00052E40E94968A6B017C016091BB07709170
:104BB000BC07072E000C880B990B0E94468B9B01AB
:104BC000AC01C701B6010E94258A4B015C01C301FB
:104BD000B2010E94088B69837A838B839C83C50111
:104BE000B4010E94088B6B0129813A81B901330F0E
:104BF000880B990B0E94468B9B01AC01C301B2014B
:104C00000E94248A2B013C01B6010D2C000C880B5C
:104C1000990B0E94468B9B01AC01C501B4010E9417
:104C2000248A2091BF07422F022E000C550B5F9360
:104C30002F9320E030E04AE754E40E94498C20E0C2
:104C400030E040E05FE30E94258A0E94088B7F935A
:104C50006F93DF92CF928091BA078F938091B907BB
:104C60008F938091B807282F082E000C330B3F93A9
:104C70008F9320E030E04AE754E4C301B2010E9480
:104C8000498C20E030E040E05FE30E94258A0E94EA
:104C9000088B7F936F933A813F9389818F938091A3
:104CA000B3078F938091B2078F938CE994E09F9321
:104CB0008F938FEF8F938F930F931F930E94D18EBB
:104CC0000FB6F894DEBF0FBECDBF812F902F0F908F
:104CD0000F900F900F90DF91CF911F910F91FF9048
:104CE000EF90DF90CF90BF90AF909F908F907F908C
:104CF0006F905F904F900C9452234F925F926F92FF
:104D00007F92AF92BF92CF92DF92EF92FF920F937A
:104D10001F93CF93DF938C010E948923CEE9D7E0C4
:104D2000CAA4DBA4ECA4FDA4288539854A855B854B
:104D30006EA17FA188A599A50E94248A2B013C0120
:104D400020E030E040E251E40E94498C0E94088B50
:104D50008AE0A82EB12CCB01B5010E94A4899F93B3
:104D60008F93C301B2010E94088B7F936F9320E061
:104D700030E040E251E4C701B6010E94498C0E9434
:104D8000088BCB01B5010E94A4899F938F93C70123
:104D9000B6010E94088B7F936F9389A1282F082E5C
:104DA000000C330B3F938F9388A18F938F8D8F933C
:104DB0008E8D8F938D8D8F938C8D8F938B8D8F9305
:104DC0008A8D282F082E000C330B3F938F93898DEB
:104DD0008F93888D8F938F898F938E898F938D89F1
:104DE0008F938C898F9386EC94E09F938F938FEFB2
:104DF0008F938DEF8F931F930F930E94D18E8DB75A
:104E00009EB74E960FB6F8949EBF0FBE8DBFC801D9
:104E1000DF91CF911F910F91FF90EF90DF90CF9096
:104E2000BF90AF907F906F905F904F900C94522303
:104E30002F923F924F925F926F927F928F929F92AA
:104E4000AF92BF92CF92DF92EF92FF920F931F9398
:104E5000CF93DF931C010E948923CEE9D7E08AA477
:104E60009BA4ACA4BDA4C884D984EA84FB84A70114
:104E700096016EA17FA188A599A50E94248A2B0185
:104E80003C0120E030E040E251E4C701B6010E945D
:104E9000498C0E94088B0AE010E0CB01B8010E9407
:104EA000A4899F938F93C701B6010E94088B7F93BB
:104EB0006F938EEC97E09F938F9320E030E040E279
:104EC00051E4C301B2010E94498C0E94088BCB01BE
:104ED000B8010E94A4899F938F93C301B2010E94DD
:104EE000088B7F936F9320E030E040E251E4C501EE
:104EF000B4010E94498C0E94088BCB01B8010E942A
:104F0000A4899F938F93C501B4010E94088B7F935E
:104F10006F9389A1282F082E000C330B3F938F939A
:104F200088A18F938F8D8F938E8D8F938D8D8F937F
:104F30008C8D8F938B8D8F938A8D282F082E000C4C
:104F4000330B3F938F93898D8F93888D8F938F89A8
:104F50008F938E898F938D898F938C898F938AED10
:104F600097E09F938F9384E095E09F938F938FEFCB
:104F70008F938DEF8F933F922F920E94D18E8DB79A
:104F80009EB786960FB6F8949EBF0FBE8DBFC10127
:104F9000DF91CF911F910F91FF90EF90DF90CF9015
:104FA000BF90AF909F908F907F906F905F904F9049
:104FB0003F902F900C9452234F925F926F927F926A
:104FC0008F929F92AF92BF92CF92DF92EF92FF9219
:104FD0000F931F93CF93DF938C016A017B012FEB1B
:104FE0003EE04CE95EE3CB01B6010E94498C4B01E7
:104FF0005C012EE136E14AEE5FE30E94968A2B01C6
:105000003C0120E030E040E251E40E94498C0E94E3
:10501000088BCAE0D0E0CB01BE010E94A4899F9317
:105020008F93C301B2010E94088B7F936F9320E09E
:1050300030E040E251E4C501B4010E94498C0E9475
:10504000088BCB01BE010E94A4899F938F93C50159
:10505000B4010E94088B7F936F9320E030E040E220
:1050600051E4C701B6010E94498C0E94088BCB0114
:10507000BE010E94A4899F938F93C701B6010E942D
:10508000088B7F936F938FE495E09F938F938FEFBF
:105090008F938DEF8F931F930F930E94D18E8DB7B7
:1050A0009EB742960FB6F8949EBF0FBE8DBFC80143
:1050B000DF91CF911F910F91FF90EF90DF90CF90F4
:1050C000BF90AF909F908F907F906F905F904F9028
:1050D0000C9452238F929F92AF92BF92CF92DF9205
:1050E000EF92FF920F931F93CF93DF93D82FC92F87
:1050F0006A017B014801590120E030E040E251E4BF
:10510000C501B8010E94498C0E94088B0AE010E09A
:10511000CB01B8010E94A4899F938F93C501B4016C
:105120000E94088B7F936F931F921F921F921F9272
:1051300020E030E040E251E4C701B6010E94498C12
:105140000E94088BCB01B8010E94A4899F938F9382
:10515000C701B6010E94088B7F936F9384E795E0A7
:105160009F938F938FEF8F938DEF8F93CF93DF93D9
:105170000E94D18E8DB79EB742960FB6F8949EBF0F
:105180000FBE8DBF8D2F9C2FDF91CF911F910F915F
:10519000FF90EF90DF90CF90BF90AF909F908F9057
:1051A0000C945223CF92DF92EF92FF92CF93DF9332
:1051B000D82FC92F6A017B0120E030E040E251E4A2
:1051C000CB01B6010E94498C0E94088BCB016AE09A
:1051D00070E00E94A4899F938F93C701B6010E943B
:1051E000088B7F936F9387E995E09F938F938FEF61
:1051F0008F938DEF8F93CF93DF930E94D18E8DB7D6
:105200009EB70A960FB6F8949EBF0FBE8DBF8D2F26
:105210009C2FDF91CF91FF90EF90DF90CF900C9477
:105220005223CF92DF92EF92FF92CF93DF93D82F4A
:10523000C92F6A017B01B901330F880B990B0E94BA
:10524000468B9B01AC01C701B6010E94248A6B0109
:105250007C0120E030E040E251E40E94498C0E9451
:10526000088BCB016AE070E00E94A4899F938F9322
:10527000C701B6010E94088B7F936F9388EA95E07F
:105280009F938F938FEF8F938DEF8F93CF93DF93B8
:105290000E94D18E8DB79EB70A960FB6F8949EBF26
:1052A0000FBE8DBF8D2F9C2FDF91CF91FF90EF9080
:1052B000DF90CF900C945223CF93DF93D82FC92F38
:1052C0007F936F9389EB95E09F938F938FEF8F93ED
:1052D0008DEF8F93CF93DF930E94D18E8DB79EB7C2
:1052E00008960FB6F8949EBF0FBE8DBF8D2F9C2FD2
:1052F000DF91CF910C9452236F927F928F929F9265
:10530000AF92BF92CF92DF92EF92FF920F931F93D3
:10531000CF93DF93CDB7DEB7E2970FB6F894DEBF39
:105320000FBECDBF3C018B010E9489231AAA19AA86
:10533000F80101900020E9F73197BF01601B710B64
:105340009E012F5C3F4FAE014F5F5F4FC8010E942F
:10535000CF2B19A9115053014EEEA41A4EEFB40AE7
:10536000D5011C93133008F44FC0ED81FE81DF019D
:105370000D900020E9F7CD0103978E179F0709F0E4
:1053800043C081810E94572C8F7090E003961817BC
:105390001906D1F5FE0131967F016301D5012C91EB
:1053A000C601861997092817190681F17CF1D701E2
:1053B0001296ED91FC91DF010D900020E9F79D011F
:1053C000235031098081A60153954A012E173F07CA
:1053D000B1F40E94572C182FD7011296ED91FC9131
:1053E00081810E94572C1295107F180FF4011083B1
:1053F000F2E0EF0EF11C4FEFC41AD40ACFCF0E9497
:10540000572CD4018C93F4CFF50110828E010F5FDD
:105410001F4FF12CE12C89A99AA9E816F90664F42A
:10542000D8018D919D918D01009711F00E94528DB0
:10543000BFEFEB1AFB0AEFCFE2960FB6F894DEBF90
:105440000FBECDBFDF91CF911F910F91FF90EF90D5
:10545000DF90CF90BF90AF909F908F907F906F9094
:1054600008954F925F926F927F928F929F92AF9228
:10547000BF92CF92DF92EF92FF920F931F93CF9341
:10548000DF93EC017B01142F582E4D2E0E948923AF
:10549000A12EB12CA501B701CE0193950E948C8E4F
:1054A000FE01EE5EFE4F108367EC75E0CE010E94B8
:1054B000B08E470107EF1FEF8EECC82E85E0D82E87
:1054C0003E0183E0681A7108C4018E199F098A158C
:1054D0009B05ECF4F40181914F011F928F93DF92B1
:1054E000CF92C301801B910B9F938F931F930F93B8
:1054F0004F925F920E94D18E035011098DB79EB7D3
:105500000A960FB6F8949EBF0FBE8DBFDDCFCE01B9
:10551000DF91CF911F910F91FF90EF90DF90CF908F
:10552000BF90AF909F908F907F906F905F904F90C3
:105530000C945223082E000C990B0E94848E282F65
:10554000082E000C990B213414F0C7970895C097CA
:105550000895FC01E55AFF4F1182108232971182A3
:105560001082349611821082815A9F4FFC01118261
:10557000108208954F925F926F927F928F929F92C6
:10558000AF92BF92CF92DF92EF92FF920F931F9351
:10559000CF93DF93EC016C014BE5C40ED11CF601F7
:1055A00020813181875A9F4F7C01243631051CF0C0
:1055B000FC01118210826A3011F06D3019F4F7018C
:1055C00011821082643211F0613289F485E5FE01A6
:1055D00011928A95E9F7688381E090E0F601918362
:1055E0008083F7019183808310E000E081C0F701A0
:1055F000008111810130110531F002301105D1F027
:1056000011821082F1CFFE01E20FF31F6083C90106
:105610000196F601918380836A3231F782E090E04F
:10562000F70191838083C95ADF4F215031093983B3
:105630002883DACFFE01E20FF31F60832F5F3F4F15
:10564000F60131832083FE01E95AFF4F60817181A9
:10565000261B370B243031053CF2CE0101960E9407
:10566000BF2B3C01F601808091805E01A80CB91C23
:10567000F501329780810E949A2A2C0184E0440C23
:10568000551C8A95E1F7F501319780810E949A2A8D
:105690002DE0F501208394012E5F3F4F4AE04183C6
:1056A000FE01EB5AFF4F31832083F3E08F0E911CF4
:1056B000F601918280822C0F3D1FF9011082840D2A
:1056C000951D6816790631F18091C9099091CA0932
:1056D00001969093CA098093C909F701118210823B
:1056E000C35ADF4F288139812F5F3F4F3983288389
:1056F000C801DF91CF911F910F91FF90EF90DF9044
:10570000CF90BF90AF909F908F907F906F905F9061
:105710004F9008958091CB099091CC090196909378
:10572000CC098093CB09C15ADF4F888199810196BA
:105730009983888383E090E0F7019183808301E07F
:1057400010E0D6CFFC01E75AFF4F20813181233092
:10575000310511F080E090E008950895FC01E75ACA
:10576000FF4F208131812330310531F48B5A9F4F17
:10577000FC0180819181089590E080E00895FC0112
:10578000680F791F90E080E0E617F70739F0219164
:10579000022E000C330B82279327F6CF08952F9209
:1057A0003F924F925F926F927F928F929F92AF92B1
:1057B000BF92CF92DF92EF92FF920F931F93CF93FE
:1057C000DF9300D01F92CDB7DEB74C011B012A0139
:1057D0005901F901118210826C0110E000E0712C76
:1057E000612C021513050CF04BC0DA82C982F60158
:1057F00080818C3211F08A3271F5C80186199709BF
:105800009C838B83181619068CF501960E94B68C22
:105810007C01B401660D771D4B815C810E948C8EEA
:10582000EB81FC81EE0DFF1D1082F50180819181DD
:105830009C012F5F3F4F31832083880F991FF20116
:10584000E80FF91FF182E0823801FFEF6F1A7F0A3B
:1058500028313105ACF48FEFC81AD80AE981FA81F2
:1058600080818A3269F00F5F1F4FBBCF82E090E0EA
:105870000E94B68C7C0164E077E00E94B08ED5CFA8
:105880000F900F900F900F90DF91CF911F910F917C
:10589000FF90EF90DF90CF90BF90AF909F908F9050
:1058A0007F906F905F904F903F902F900895982F2A
:1058B00080ED890F8A3070F08FEB890F863018F4F5
:1058C00089EC890F08958FE9890F863010F489EAF1
:1058D000F8CF80E0089590E080E008958091A70AD5
:1058E0009091A60A891769F09F5F903508F090E0C3
:1058F000E92FF0E0EA5AF54F80819093A60A90E0F4
:1059000008958FEF9FEF08958091A70AE091A60A6E
:105910008E1751F0EF5FE03508F0E0E0F0E0EA5A72
:10592000F54F808190E008958FEF9FEF089550919B
:10593000A70A4091A60A852F90E0242F30E0541743
:1059400018F0821B930B0895805B9F4FFACFE09174
:10595000CD09F091CE09309709F019949091A70ADA
:105960009F5F903508F090E02091A60A291739F042
:10597000E92FF0E0EA5AF54F80839093A70A089543
:105980009B01AC01213668E136074105510540F421
:10599000109273001092200181E88093210118C0B9
:1059A000DC01C90173E0B695A795979587957A951F
:1059B000D1F7813668E19607A105B105C8F51092C7
:1059C00073001092200122E8209321019C01AD0177
:1059D0003093B00A2093AF0AA5E2B0E00E94018A9A
:1059E00022E096958795779567952A95D1F77093DC
:1059F000A90A6093A80A62E080E30E94B18261E094
:105A00008EE20E94ED8261E08EE20E94B1821092ED
:105A1000AE0A1092A70A1092A60A1092550A109286
:105A2000520A1092510A80E28ABB80937300089553
:105A3000232F342F452F5527213688E1380741057C
:105A40005105A8F7109273001092200184E8A5CFA9
:105A50009091520A9F5F97FD90E02091510A29177B
:105A6000E1F32FB7F8943091550A332349F0E92F29
:105A7000F0E0EF52F64F80839093520A2FBF0895C3
:105A800091E09093550A8093540A1092530A82E051
:105A90008ABB8091730082608093730080912001A3
:105AA0008F7B806880932001809124019091250153
:105AB00040969093290180932801E0CF862F0E9481
:105AC000282D81E090E008951F920F920FB60F925B
:105AD00011240BB60F922F933F934F935F936F93C5
