:100000000C9441040C94D77E0C94027F0C942D7FA9
:100010000C94587F0C94837F0C94AE7F0C94D97F02
:100020000C9404800C9472040C9472040C9472046A
:100030000C9472040C9472040C9472040C94720468
:100040000C9472040C9472040C9472040C94720458
:100050000C9472040C9472040C9472040C948380BB
:100060000C9472040C94D67B0C940C7C0C9472044B
:100070000C9472040C9472040C9472040C94720428
:100080000C9472040C9472040C9472040C94720418
:100090000C94312F0C945B2F0C9472040C9472040A
:1000A0000C9472040C9472040C9472040C947204F8
:1000B0000C9472040C9472040C94372D0C94892CBB
:1000C0000C94D62D0C9472040C9472040C94A42FEE
:1000D0000C94CE2F0C9472040C946D7C0C94A37C25
:1000E0000C947204E86C096D276D456D956D6A6D11
:1000F000956DCB7400750775217507752175E974C9
:10010000487534774A775C77647772779E777A7729
:10011000887790779E77B17E7B7E837E8F7E9C7E74
:10012000BD7ECA7ECF81D2818D8191819781D5811B
:100130009B819F81A581A981AD81B381B781BB815D
:10014000D581C181C581C981798410847D8413845E
:10015000168419841D8420842384268429842C8475
:100160002F843284358439843C843F8481844F8455
:10017000528477845584778459845C84608477843E
:100180007784638467846A846E84718477847484DA
:100190000C94E06A0C9463840C94F0330C94127BFE
:1001A0000C941D840C94D2810C94F06A0C94BB7551
:1001B0000C9481840C94832C0C94852F0C94BB2B71
:1001C0000C94BD7E0C94C9810C9425320C947D84D2
:1001D0000C94367C0C9443310C9432840C945284ED
:1001E0000C94840A0C9420840C9495400C947E38D2
:1001F0000C94B17E0C94726F0C9471840C94CB743B
:100200000C943F840C9416840C9488770C94C581CC
:100210000C9479840C94597B0C94E7300C94E36E25
:100220000C9410840C94EA330C94627E0C949C7EA3
:100230000C947B7E0C94BB810C9435840C94CF8100
:100240000C9490770C94B36C0C9413700C946084A1
:100250000C9459840C9403710C9439840C94487553
:100260000C9401190C946E840C94CD7C0C94A58193
:100270000C94276D0C948D810C949E770C946B805C
:100280000C94DF300C944A770C9464770C942F8490
:100290000C94917A0C94837E0C94A82B0C94678414
:1002A0000C94EE6A0C949B810C9491810C940075D3
:1002B0000C94B7810C94B3810C9429840C94F82F7E
:1002C0000C946A840C94C1810C9472770C94A8737A
:1002D0000C94B47A0C9497810C94956D0C945C34C6
:1002E0000C9443720C9407750C945C770C942684E0
:1002F0000C943C840C947A770C9419840C94A98106
:100300000C94407C0C94E86C0C94922B0C94D77C4D
:100310000C944F840C94E9740C949F810C94AD81DF
:100320000C94A57A0C94DB1A0C9455840C94352DFE
:100330000C945C840C94B3710C9474840C94778446
:100340000C94286F0C94777A0C9434770C94D581A4
:100350000C94CA7E0C94456D0C9423840C94047DFB
:100360000C9421750C946A6D0C94F1190C942C84E6
:100370000C94837A0C9413840C94806E0C948F7E6E
:100380000C94096D4042474250552C436F7572736F
:10039000652C004042474250552C547261636B2CCF
:1003A00046616C7365004042474250552C5472615F
:1003B000636B2C54727565004042474250552C5671
:1003C000616E652C46616C73650040424742505532
:1003D0002C56616E652C5472756500404247425040
:1003E000552C547261636B2C46616C7365004042FE
:1003F000474250552C547261636B2C5472756500E2
:100400004042474250552C56616E652C46616C73D4
:1004100065004042474250552C56616E652C54721F
:10042000756500244E474250552A3445004E4D45CF
:10043000415F5041525345525F4E4F54434F4D50D0
:100440004C4554452C206E6F7420636F6D706C6545
:100450007465207E7E00244E474250552A34450064
:100460004E4D45415F5041525345525F43484543CD
:100470004B53554D4552522C204552524F5220213C
:1004800021000900095472616E736C6174655365D3
:100490006174616C6B417570696C6F74436F6D6DE5
:1004A000616E64546F4E454D413230303028293AE8
:1004B000200020556E6B6E6F776E0020506F776551
:1004C000724F6E002045787465726E616C00204238
:1004D000726F776E6F757400205761746368646F14
:1004E00067004661696C004F70656E00404247428C
:1004F00050552C43414E2C004042474250552C420F
:100500004F4F5420566572002066696E652E002C90
:100510002048656C6C6F2C204920616D20004042A2
:10052000474250552C566572004042474250552C68
:1005300053746565722C004042474250552C436FFE
:10054000757273652C004042474250552C417574BA
:100550006F2C46616C7365004042474250552C41F8
:1005600075746F2C53746565720040424742505554
:100570002C4175746F2C54727565009000A4900026
:10058000A30020446174613A00204C656E3A00205B
:10059000446573743A0020536F757263653A0020A6
:1005A00050474E3A005072693A00203A2000002C21
:1005B00000537461727420616464726573732063A4
:1005C0006C61696D20666F72206465766963652071
:1005D000002073656E64206661696C6564002F009D
:1005E0002C206672616D653A0050474E20002073E2
:1005F000656E64206661696C65640050474E20003A
:1006000043414E20646576696365206661696C6567
:100610006420746F206F70656E0043414E206465E6
:10062000766963652072656164790000004E4D450E
:100630004132303030206C6962726172792C2068EE
:10064000747470733A2F2F6769746875622E636FC4
:100650006D2F74746C617070616C61696E656E2F62
:100660004E4D4541323030300035089A02417264B7
:1006700075696E6F204E326B2D3E504300000000B6
:100680000000000000000000000000000000312E0B
:10069000302E302E3000000000000000000000006E
:1006A0000000000000000000000000000000003119
:1006B0002E302E300000000000000000000000007E
:1006C000000000000000000000000000000000002A
:1006D0003030303030303031000000000000000099
:1006E000000000000000000000000000000000000A
:1006F00000000100E8000000EA000000EB0000003C
:10070000EC000000EE0000D8FE000000ED0100004B
:1007100000000000E8000000EA000000EB0000001C
:10072000EC000000EE000000ED010000EE01001101
:10073000F0010014F0010016F001000000000000BC
:10074000000B0C030A0D0E0F09080405020000003F
:100750000000000000000000000000000000000099
:100760000000000000000000000000131211000053
:100770000000000000000000000000000000000079
:100780000000000000000000000000000000000069
:100790000000000000010210202008081020401076
:1007A0002040800201020108040201010204081035
:1007B0002040808040201008040201800402018053
:1007C000402010080402010804020101020408107C
:1007D00020408001020408102040800440800480F2
:1007E000081010204004081020408005050505076A
:1007F0000508080808020202020A0A08080404049C
:1008000004010101010101010103030303030303C7
:1008100003040707070C0C0C0C0C0C0C0C02020256
:100820000206060606060606060B0B0B0B0B0B0B49
:100830000B050505080807070404040A0A0A0A0A42
:100840000A00002200250028002B002E0031003471
:100850000002010000050108010B01000021002435
:100860000027002A002D00300033000101000004A1
:100870000107010A01000119852FF82F407CD77C60
:10088000F11911241FBECFEFD1E2DEBFCDBF00E0D2
:100890000CBF1AE0A0E0B2E0EEE5F2E201E00BBF2F
:1008A00002C007900D92A035B107D9F721E1A0E56C
:1008B000BAE001C01D92AC30B207E1F714E0C0E429
:1008C000D4E000E006C021970109802FFE010E94BC
:1008D0001D89CB33D10780E00807A9F70E946E80FD
:1008E0000C941D910C940000CF92DF92EF92FF9236
:1008F000CF93DF93EC016A017B012FE632E143E8FD
:100900005AEBC701B6010E94688B1816ECF420E080
:1009100030E84BE355E4C701B6010E94B58987FF73
:1009200013C0C882D982EA82FB82FE01E85BFF4FD6
:100930008081918106968730910514F086E090E0E1
:100940009183808381E001C080E0DF91CF91FF90AF
:10095000EF90DF90CF9008950F931F93CF93DF9385
:10096000CDB7DEB7DA950FB6F894DEBF0FBECDBFB8
:100970008C01CE0101960E945223085B1F4FF801A3
:100980008081918118161906F4F44091720A5091F1
:10099000730A6091740A7091750ACE0101960E94E3
:1009A000F726CE0101960E945B230E94850DF80177
:1009B00080819181019797FD03C09183808303C05B
:1009C000F80111821082D3950FB6F894DEBF0FBEE6
:1009D000CDBFDF91CF911F910F910895CF92DF92FC
:1009E000EF92FF92CF93DF93EC016A017B0120E04D
:1009F00030E0A901C701B6010E94688B87FD1DC0C8
:100A00002DEC3CE044EB53E4C701B6010E94B589EC
:100A100087FF13C0C88AD98AEA8AFB8AFE01E25B93
:100A2000FF4F8081918104968530910514F084E018
:100A300090E09183808381E001C080E0DF91CF91DD
:100A4000FF90EF90DF90CF900895AF92BF92CF923A
:100A5000DF92EF92FF920F931F93CF93DF93CDB767
:100A6000DEB7DA950FB6F894DEBF0FBECDBF5C01DE
:100A7000CE0101960E94522365018EE4C80ED11C5E
:100A8000F6018081918118161906ACF57501FCE418
:100A9000EF0EF11CF70180819181181619065CF5A3
:100AA000F501048515852685378540895189628938
:100AB0007389CE0101960E947724CE0101960E948F
:100AC0005B230E94850DF60180819181019797FD3E
:100AD00003C09183808303C0F60111821082F70165
:100AE00080819181019797FD03C09183808303C02A
:100AF000F70111821082D3950FB6F894DEBF0FBEB6
:100B0000CDBFDF91CF911F910F91FF90EF90DF90BC
:100B1000CF90BF90AF900895AF92BF92CF92DF92E7
:100B2000EF92FF920F931F93CF93DF93CDB7DEB772
:100B3000DA950FB6F894DEBF0FBECDBF5C01CE01D3
:100B400001960E94522365018EE4C80ED11CF60165
:100B50008081918118161906ACF57501FCE4EF0E41
:100B6000F11CF70180819181181619065CF5F501D9
:100B70000485158526853785408951896289738961
:100B8000CE0101960E945C23CE0101960E945B2358
:100B90000E94850DF60180819181019797FD03C028
:100BA0009183808303C0F60111821082F701808156
:100BB0009181019797FD03C09183808303C0F70162
:100BC00011821082D3950FB6F894DEBF0FBECDBF51
:100BD000DF91CF911F910F91FF90EF90DF90CF9019
:100BE000BF90AF900895CF92DF92EF92FF92CF9394
:100BF000DF93EC016A017B0120E030E0A901C7012D
:100C0000B6010E94688B87FD1DC020E030E040EAFD
:100C100052E4C701B6010E94B58987FF13C0CC8694
:100C2000DD86EE86FF86FE01E45BFF4F80819181C9
:100C300004968530910514F084E090E091838083E0
:100C400081E001C080E0DF91CF91FF90EF90DF90D5
:100C5000CF9008954F925F926F927F928F929F9262
:100C6000AF92BF92CF92DF92EF92FF920F931F93BA
:100C7000CF93DF93CDB7DEB728970FB6F894DEBFDA
:100C80000FBECDBF4A015B01680179012A013B011A
:100C9000E89477F8C301B2010E942C8A69837A83B1
:100CA0008B839C8329813A81B901330F880B990B7F
:100CB0000E946A8A9B01AC01C301B2010E9448896B
:100CC00020E030E040E752E40E946D8B2B013C01B4
:100CD0000E942C8A6D837E838F8398872D813E812D
:100CE000B901330F880B990B0E946A8A9B01AC01F2
:100CF000C301B2010E94488920E030E040E752E49D
:100D00000E946D8B0E942C8A2B013C0120E030E078
:100D1000A901C501B4010E94B58987FD02C08EE416
:100D200001C083E529813A813093870A2093860A9E
:100D30002D813E813093890A2093880A50928B0A34
:100D400040928A0A80938C0A26013701E89477F84A
:100D5000C301B2010E942C8A4B015C01072E000CDA
:100D6000880B990B0E946A8A9B01AC01C301B201F6
:100D70000E94488920E030E040E752E40E946D8BF9
:100D80002B013C010E942C8A69837A838B839C838C
:100D900029813A81B901330F880B990B0E946A8A25
:100DA0009B01AC01C301B2010E94488920E030E000
:100DB00040E752E40E946D8B0E942C8A2B013C017B
:100DC00020E030E0A901C701B6010E94B58987FD86
:100DD00002C085E401C087E590928E0A80928D0A58
:100DE00029813A813093900A20938F0A5092920A77
:100DF0004092910A8093930A86E090E09093C30A10
:100E00008093C20A81E028960FB6F894DEBF0FBE29
:100E1000CDBFDF91CF911F910F91FF90EF90DF90A9
:100E2000CF90BF90AF909F908F907F906F905F908A
:100E30004F9008950F931F93CF93DF93CDB7DEB7F5
:100E4000DA950FB6F894DEBF0FBECDBF8C01005B04
:100E50001F4FF8018081918118161906B4F4CE0154
:100E600001960E945125CE0101960E945B230E94AB
:100E7000850DF80180819181019797FD03C09183D1
:100E8000808303C0F80111821082D3950FB6F894C5
:100E9000DEBF0FBECDBFDF91CF911F910F9108959F
:100EA000CF92DF92EF92FF92CF93DF93EC016A0132
:100EB0007B0120E030E0A901C701B6010E94688BE8
:100EC00087FD1DC02DEC3CE044EB53E4C701B601A7
:100ED0000E94B58987FF13C0CAA2DBA2ECA2FDA2C3
:100EE000FE01EE5AFF4F8081918102968330910579
:100EF00014F082E090E09183808381E001C080E083
:100F0000DF91CF91FF90EF90DF90CF900895CF9237
:100F1000DF92EF92FF920F931F93CF93DF93CDB7A2
:100F2000DEB7DA950FB6F894DEBF0FBECDBF6C0109
:100F3000CE0101960E945223760182E5E80EF11C53
:100F4000F7018081918118161906FCF4F6010085DD
:100F500011852285338542A153A164A175A1CE01DB
:100F600001960E948527CE0101960E945B230E9474
:100F7000850DF70180819181019797FD03C09183D1
:100F8000808303C0F70111821082D3950FB6F894C5
:100F9000DEBF0FBECDBFDF91CF911F910F91FF90AC
:100FA000EF90DF90CF900895EF92FF920F931F93F1
:100FB000CF93DF93CDB7DEB7DA950FB6F894DEBFE7
:100FC0000FBECDBF7C01CE0101960E945223870146
:100FD0000E5A1F4FF8018081918118161906DCF412
:100FE000F70142A153A164A175A1CE0101960E940F
:100FF000ED27CE0101960E945B230E94850DF8012A
:1010000080819181019797FD03C09183808303C004
:10101000F80111821082D3950FB6F894DEBF0FBE8F
:10102000CDBFDF91CF911F910F91FF90EF90089569
:10103000EF92FF920F931F93CF93DF93CDB7DEB75D
:10104000DA950FB6F894DEBF0FBECDBF7C01CE019E
:1010500001960E94522387010E5A1F4FF80180818A
:101060009181181619062CF5F70160857185828526
:1010700093850E942C8ADC01CB01F70142A153A188
:1010800064A175A19C01CE0101960E942C28CE017D
:1010900001960E945B230E94850DF8018081918159
:1010A000019797FD03C09183808303C0F8011182EB
:1010B0001082D3950FB6F894DEBF0FBECDBFDF917F
:1010C000CF911F910F91FF90EF900895CF92DF92F3
:1010D000EF92FF92CF93DF93EC016A017B01CB018A
:1010E000BA019F772DEC3CE044EB53E40E94B589B4
:1010F00087FF13C0CEA2DFA2E8A6F9A6FE01EA5A36
:10110000FF4F8081918106968730910514F086E02B
:1011100090E09183808381E001C080E0DF91CF91F6
:10112000FF90EF90DF90CF900895CF92DF92EF92F3
:10113000FF92CF93DF93EC016A017B012CEA35EC3F
:1011400047E257EBC701B6010E94688B1816ECF412
:1011500020E030E048EC52E4C701B6010E94B589B6
:1011600087FF13C0CAA6DBA6ECA6FDA6FE01EC5ABB
:10117000FF4F8081918106968730910514F086E0BB
:1011800090E09183808381E001C080E0DF91CF9186
:10119000FF90EF90DF90CF9008956F927F928F92A3
:1011A0009F92AF92BF92CF92DF92EF92FF920F93F6
:1011B0001F93CF93DF93CDB7DEB7DA950FB6F894D0
:1011C000DEBF0FBECDBF3C01CE0101960E9452236F
:1011D000430186E5880E911CF401808191811816E7
:1011E0001906CCF55301F4E5AF0EB11CF501808171
:1011F0009181181619067CF5F301C2A4D3A4E4A4C6
:10120000F5A4008511852285338546A157A160A5E7
:1012100071A5CE0101960E94C023CE0101960E94C5
:101220005B230E94850DF40180819181019797FDD8
:1012300003C09183808303C0F40111821082F50101
:1012400080819181019797FD03C09183808303C0C2
:10125000F50111821082D3950FB6F894DEBF0FBE50
:10126000CDBFDF91CF911F910F91FF90EF90DF9055
:10127000CF90BF90AF909F908F907F906F90089588
:101280008F929F92AF92BF92CF92DF92EF92FF9296
:101290000F931F93CF93DF93CDB7DEB7DA950FB6D9
:1012A000F894DEBF0FBECDBF4C012AE5820E911C23
:1012B000F401208131818C010C5A1F4F1216130644
:1012C0000CF047C05C01FCE5AF0EB11CF5012081BC
:1012D000318112161306ECF5F801208131811216C6
:1012E0001306BCF56C01F6E5CF0ED11CF60120818A
:1012F0003181121613066CF57C01F0E5EF0EF11C3E
:10130000F70120813181121613061CF5CE010196DA
:101310000E943326CE0101960E945B230E94850D18
:10132000F40180819181019797FD03C091838083AF
:1013300003C0F40111821082F5018081918101972F
:1013400097FD03C09183808329C0F501118210822B
:1013500025C0F80120813181121613060CF042C01D
:101360006C01F6E5CF0ED11CF601208131811216F9
:101370001306C4F57C01F0E5EF0EF11CF701808146
:1013800091811816190674F5CE0101960E949825D0
:10139000CE0101960E945B230E94850DF801808199
:1013A0009181019797FD03C09183808303C0F80169
:1013B00011821082F60180819181019797FD03C00F
:1013C0009183808303C0F60111821082F70180812E
:1013D0009181019797FD03C09183808303C0F7013A
:1013E00011821082D3950FB6F894DEBF0FBECDBF29
:1013F000DF91CF911F910F91FF90EF90DF90CF90F1
:10140000BF90AF909F908F9008959B01275A3F4FB8
:10141000233B310588F4FC0177A766A7E85AFF4F04
:101420008081918106968730910514F086E090E0E6
:101430009183808381E0089580E00895EF92FF9288
:101440000F931F93CF93DF93CDB7DEB7DA950FB627
:10145000F894DEBF0FBECDBF7C01CE0101960E9485
:1014600052238701085A1F4FF80180819181181675
:101470001906CCF4F70166A577A5CE0101960E9466
:101480007728CE0101960E945B230E94850DF8010A
:1014900080819181019797FD03C09183808303C070
:1014A000F80111821082D3950FB6F894DEBF0FBEFB
:1014B000CDBFDF91CF911F910F91FF90EF900895D5
:1014C0000C941E0ACF93DF93EC010E94AC04CE0172
:1014D0000E948C05CE010E941A07CE010E94870748
:1014E000CE010E94D407CE010E941808CE010E94AE
:1014F0004009CE010E941E0ACE010E94CD08CE01F5
:10150000DF91CF910C94250580E090E008952F9213
:101510003F924F925F926F927F928F929F92AF9283
:10152000BF92CF92DF92EF92FF920F931F93CF93D0
:10153000DF93CDB7DEB72C970FB6F894DEBF0FBEA2
:10154000CDBF98878F83FC018481282F30E03C83B6
:101550002B83A580B12CBA2CAA248681A82AB50198
:1015600080E090E00E94688A20E030E04AE754E49E
:101570000E94BA890E942C8A6B017C01C50168EE29
:1015800073E00E94B4881C01EF81F885F381F98330
:10159000F4FD03C02EE42A8302C033E53A83B1018F
:1015A000032C000C880B990B0E946A8A20E030E023
:1015B0004AE754E40E94BA892B013C01B6010D2C84
:1015C000000C880B990B0E946A8A9B01AC01C30135
:1015D000B2010E94498920E030E040E752E40E94D5
:1015E000BA892B013C01EB81FC81BF01FF0F880B05
:1015F000990B0E946A8A9B01AC01C301B2010E944F
:1016000049892B013C019F772FE632E143E85AE3F9
:101610000E94B58987FD34C12091C20A3091C30A66
:101620003E832D83232B09F44AC060918A0A70916E
:101630008B0A072E000C880B990B0E946A8A20E007
:1016400030E04AE754E40E94BA894B015C016091A2
:10165000880A7091890A072E000C880B990B0E944A
:101660006A8A9B01AC01C501B4010E94498920E04E
:1016700030E040E752E40E94BA894B015C0160917E
:10168000860A7091870A072E000C880B990B0E941E
:101690006A8A9B01AC01C501B4010E9449899B0182
:1016A000AC01C301B2010E9448899F7720E030E07D
:1016B00040E05FE30E94688B18160CF4E1C0EF81F4
:1016C000F8858781082F10E0A084B12CBA2CAA24B9
:1016D0008185A82AB50180E090E00E94688A20E018
:1016E00030E04AE754E40E94BA890E942C8A6F8352
:1016F000788789879A87C50168EE73E00E94B4886D
:101700009C878B87F981F5FD03C027E5298302C0FB
:1017100035E43983EB85FC85BF01FF0F880B990BFE
:101720000E946A8A20E030E04AE754E40E94BA89C5
:101730004B015C012F813885B901330F880B990B60
:101740000E946A8A9B01AC01C501B4010E944989CB
:1017500020E030E040E752E40E94BA894B015C018E
:10176000B801012E000C880B990B0E946A8A9B011C
:10177000AC01C501B4010E9449894B015C019F770E
:101780002FE632E143E85AE30E94B58987FD78C02D
:101790008D819E81892B09F449C06091910A7091D5
:1017A000920A072E000C880B990B0E946A8A20E08F
:1017B00030E04AE754E40E94BA892B013C01609171
:1017C0008F0A7091900A072E000C880B990B0E94CB
:1017D0006A8A9B01AC01C301B2010E94498920E0E1
:1017E00030E040E752E40E94BA892B013C0160914D
:1017F0008D0A70918E0A072E000C880B990B0E949F
:101800006A8A9B01AC01C301B2010E9449899B0114
:10181000AC01C501B4010E9448899F7720E030E007
:1018200040E05FE30E94688B181654F1EB81FC8165
:10183000F093870AE093860AD092890AC092880AB8
:1018400030928B0A20928A0AFA81F0938C0A1093C4
:101850008E0A00938D0A2F8138853093900A209349
:101860008F0A8B859C859093920A8093910A998127
:101870009093930A86E090E09093C30A8093C20A03
:101880002C960FB6F894DEBF0FBECDBFDF91CF917F
:101890001F910F91FF90EF90DF90CF90BF90AF908E
:1018A0009F908F907F906F905F904F903F902F9080
:1018B0000895CF93DF93EC0161E088810E94D68187
:1018C0001B861A861C861D861E861F8660E0888100
:1018D000DF91CF910C941282CF92DF92EF92FF9220
:1018E0000F931F93CF93DF93EC010E94CD802A8545
:1018F0003B8521303105D9F40C851D852E853F852A
:101900006B017C01C01AD10AE20AF30A0A811B8129
:101910002C813D81C016D106E206F30688F11B86B4
:101920001A866C877D878E879F8760E01EC0232B79
:1019300039F50C851D852E853F856B017C01C01A0C
:10194000D10AE20AF30A0E811F8128853985C01663
:10195000D106E206F306A0F021E030E03B872A87BB
:101960006C877D878E879F8761E08881DF91CF912B
:101970001F910F91FF90EF90DF90CF900C94128207
:10198000DF91CF911F910F91FF90EF90DF90CF905B
:1019900008950F931F93CF93DF93CDB7DEB7C35155
:1019A000D1400FB6F894DEBF0FBECDBF81E59CE0FD
:1019B0000E946C0C80915E0A90915F0A8A309105BA
:1019C00028F4019690935F0A80935E0A83EF9BE070
:1019D0000E94252F8C0183EF9BE00E941B2FB801F2
:1019E0000E94452EFC0110810E943F2E412FBC0118
:1019F000CE0101960E944C2960E472E080EC9FE0E9
:101A00000E94677DCE0101960E945B23BC0180ECA1
:101A10009FE00E94867DCD5EDE4F0FB6F894DEBF5C
:101A20000FBECDBFDF91CF911F910F910895FC01A3
:101A3000DB018081843211F0813279F493818C91C1
:101A400098130BC0948111968C911197981305C02F
:101A500081E0258112969C91291380E00895FC0174
:101A6000DB018081843211F08132D9F491818C9133
:101A7000981317C0928111968C911197981311C0E9
:101A8000938112968C91129798130BC094811396A0
:101A90008C911397981305C081E0258114969C9131
:101AA000291380E00895CF93DF932091810C2111B9
:101AB00010C0EC0167E375E080EC9FE00E94437D7D
:101AC0004AE050E0BE0180EC9FE0DF91CF910C94A2
:101AD0004A7EDF91CF910895CF93DF932091810CBF
:101AE000211110C0EC0169E275E080EC9FE00E94DA
:101AF000437D4AE050E0BE0180EC9FE0DF91CF9152
:101B00000C944A7EDF91CF910895CF93DF93BC016F
:101B1000FC0101900020E9F73197E81BF90BDC018B
:101B20008C91843221F0813211F08034D1F43797D6
:101B3000C4F09091810C911114C0803431F48DE582
:101B400090E1DF91CF910C94867DEB018DE590E1E2
:101B50000E94677DBE0180EC9FE0DF91CF910C94E5
:101B6000677DDF91CF910895CF93DF932091810C12
:101B7000211122C0EC016EE175E080EC9FE00E9433
:101B8000437D63E87CE080EC9FE00E94677D6FE02E
:101B900075E080EC9FE00E94437D4AE050E0BE018A
:101BA00080EC9FE00E94F57D68E075E080EC9FE0AE
:101BB000DF91CF910C94747DDF91CF910895809146
:101BC000810C81110CC068EF74E080EC9FE00E94F2
:101BD000437D63E87CE080EC9FE00C94867D089573
:101BE0008F92AF92BF92CF92EF92FF920F931F937B
:101BF000CF931F921F9288248A94AA24AA94BA2C65
:101C0000CC24CA949AE5E92E92E0F92E00E612E07F
:101C100022E732E044E650E063E872E080912E0C67
:101C200090912F0C0E943348A12CB12C24E0C22E9D
:101C300038EFE32E37E0F32E0BE422E849E656EBCB
:101C400061E070E080912E0C90912F0C0E948B46E9
:101C500046E161E070E080912E0C90912F0C0E9483
:101C6000E8486CE872E080EC9FE00E94867D6BEDB6
:101C70007AE180912E0C90912F0C0E94F15080916E
:101C80002E0C90912F0C0E94755FC82F6CEE74E0A3
:101C900080EC9FE00E94437D0F900F90CC2381F059
:101CA00067EE74E080EC9FE00E94747D6EE772E066
:101CB00083E89CE00E94BA8D81E08093820C08C08A
:101CC00062EE74E080EC9FE00E94747D1092820CC2
:101CD0008C2FCF911F910F91FF90EF90CF90BF90DD
:101CE000AF908F900895CF93C62FBC0180EC9FE0FA
:101CF0000E94677D4AE050E06C2F80EC9FE00E94DC
:101D0000EE7DC3FF07C068ED74E080EC9FE00E94A9
:101D1000437DC77FC2FF07C06EEC74E080EC9FE09C
:101D20000E94437DCB7FC1FF07C064EC74E080EC70
:101D30009FE00E94437DCD7FC0FF07C06BEB74E046
:101D400080EC9FE00E94437DCE7FCC2331F062EB9C
:101D500074E080EC9FE00E94437D67E277E080ECD6
:101D60009FE0CF910C94867DCF93DF930FB6F894CC
:101D7000A895809160008861809360001092600057
:101D80000FBE87EF84BF9EE088E10FB6F894A89558
:101D9000809360000FBE909360006AE872E083E871
:101DA0009CE00E94CE8D60EB72E083E89CE00E9494
:101DB000BA8D6DE572E083E89CE00E94BA8D61E027
:101DC0008DE00E94D68161E087E00E94D68161E0CB
:101DD0008DE00E94128281E69CE00E94590C81E510
:101DE0009CE00E94590C81E49CE00E94590C81E324
:101DF0009CE00E94590C26E040E052EC61E070E06B
:101E000080EC9FE00E947B7B40EC52E160E070E060
:101E100083E89DE00E94433045E050E060E070E0E0
:101E200083E89DE00E945C7E40EC52E160E070E05F
:101E300080EA9EE00E94433045E050E060E070E0C0
:101E400080EA9EE00E945C7E26E040EC52E160E089
:101E500070E08DE590E10E947B7B61EA71E080E0BB
:101E600090E00E94E32B64B782EB92E00E94730E35
:101E7000A89580E39CE00E94D0790E94F00D8093A9
:101E80002D0CA895C6E0D0E00E94DF0D64E670E05E
:101E900080E090E00E94FE802197B1F7A895A89578
:101EA00081E090E090936C0C80936B0C61E08091EA
:101EB000610CDF91CF910C941282CF93DF93EC01F0
:101EC0006AEB72E00E94170D882339F08AEF9FEFCA
:101ED0009093BB0A8093BA0A2DC06EEB72E0CE01DC
:101EE0000E94170D882339F08EEF9FEF9093C50A5B
:101EF0008093C40A1FC062EC72E0CE010E94170DED
:101F00008111F2CF66EC72E0CE010E94170D8111B3
:101F1000EBCF6AEC72E0CE010E94170D882351F0DE
:101F20008AEF9FEF9093C90A8093C80A9093C70ADB
:101F30008093C60A6EEC72E0CE010E94170D8823D2
:101F400051F08CEF9FEF9093C10A8093C00A909359
:101F5000BF0A8093BE0ADF91CF9108958F929F921E
:101F6000AF92BF92CF92DF92EF92FF920F931F93A7
:101F7000CF93DF93EC014A015B016901E881F981AC
:101F80000190F081E02D19958B829C82AD82BE82FA
:101F9000DA86C986DE011B96F801CF01801B910B02
:101FA0008E159F051CF481918D93F7CFFE01EE0DE8
:101FB000FF1DCF018C1B9D0B8C159D051CF41386FA
:101FC0003196F7CFDF91CF911F910F91FF90EF9056
:101FD000DF90CF90BF90AF909F908F900895CF9259
:101FE000DF92EF92FF920F931F93CF93DF93CDB7C2
:101FF000DEB7C95FD1090FB6F894DEBF0FBECDBF03
:102000006C01E12CF12C00E010E0980146E06FE05B
:10201000CE0101960E94D9388AE0ECE1F2E0DE01BF
:10202000A051BF4F01900D928A95E1F7B601DD0CEA
:10203000880B990B0E946A8A2BED3FE049E450E43B
:102040000E946D8B0E942C8AAB01161617061CF499
:102050004F5F5F4F06C06115710519F0AB0141502C
:102060005109942F342F32953F702FE0231B842F7A
:102070008F70843010F4845F09C0883010F48C5F56
:1020800005C08C3010F4845001C08C50CA50DF4F12
:102090009883C65FD04090E030E1239F800D911D72
:1020A0001124C750DF4F8883C95FD0408AE0E82EF3
:1020B000F12C8E0100511F4F2AE030E040E05FEE2E
:1020C00061E070E0CE0101960E94AE0F40E050E06A
:1020D000BE016F5F7F4F80912E0C90912F0C0E945C
:1020E000C554C750DF4F0FB6F894DEBF0FBECDBF4B
:1020F000DF91CF911F910F91FF90EF90DF90CF90E4
:102100000895BF92CF92DF92EF92FF920F931F93A9
:10211000CF93DF93CDB7DEB7C75FD1090FB6F89481
:10212000DEBF0FBECDBFB82EC62ED42EE12CF12CB3
:1021300000E010E0980146E06FE0CE0101960E94B9
:10214000D93888E0E6E2F2E0DE01A051BF4F01900D
:102150000D928A95E1F7CB50DF4FB882C55FD04032
:10216000CA50DF4FC882C65FD040C950DF4FD88207
:10217000C75FD04088E0E82EF12C8E0100511F4F40
:1021800026E130E040E05FEE61E070E0CE010196D4
:102190000E94AE0F40E050E0BE016F5F7F4F809124
:1021A0002E0C90912F0C0E94C554C950DF4F0FB6D2
:1021B000F894DEBF0FBECDBFDF91CF911F910F917D
:1021C000FF90EF90DF90CF90BF90089581E090E076
:1021D0009093800C80937F0C4DEF62E081E40C942F
:1021E000811082E090E09093800C80937F0C4EEF02
:1021F00061E081E40C94811082E090E09093800C87
:1022000080937F0C4CED63E281E40C94811082E0BA
:1022100090E09093800C80937F0C4CEF63E081E41E
:102220000C94811047EF68E081E40C94811049EF31
:1022300066E081E40C94811048EF67E081E40C943F
:1022400081104AEF65E081E40C9481104DED62E26B
:1022500081E40C9481104EED61E281E40C948110D4
:1022600083E090E09093800C80937F0C4EEE61E1D0
:1022700081EB0C948110CF939093690A8093680A44
:10228000BC01990F880B990B0E946A8AC1E02091CA
:10229000640A3091650A4091660A5091670A0E946B
:1022A000688B18160CF0C0E0C0930A0280E0CF9152
:1022B000089580E090E00C943B118DED9FEF0C941D
:1022C0003B1183E290E00C943B11FC01DC010D908A
:1022D0000020E9F71197A81BB90B1A9710F1868116
:1022E0008C32F9F481858A32E1F48781082E000C62
:1022F000990BC0972AE0289FA001299F500D112417
:102300002085022E000C330B20533109240F351F7A
:10231000C9018897255031092734310510F40C94F0
:102320003B1180E008950F931F93CF93DF93EC014F
:102330008B0162ED72E00E94D58D892B31F0DF9127
:10234000CF911F910F910C94F11068EE72E0CE01C5
:102350000E94D58D892B31F0DF91CF911F910F9184
:102360000C94FC106EEF72E0CE010E94D58D892B8B
:1023700031F0DF91CF911F910F910C94071164E11F
:1023800073E0CE010E94D58D892B31F0DF91CF9182
:102390001F910F910C94E6106AE273E0CE010E9447
:1023A000D58D892B31F0DF91CF911F910F910C9436
:1023B000121160E473E0CE010E94D58D892B31F0BB
:1023C000DF91CF911F910F910C94171166E573E087
:1023D000CE010E94D58D892B31F0DF91CF911F91D5
:1023E0000F910C941C116CE673E0CE010E94D58D08
:1023F000892B31F0DF91CF911F910F910C94211116
:1024000062E873E0CE010E94D58D892B31F0DF9117
:10241000CF911F910F910C94261168E973E0CE01C2
:102420000E94D58D892B31F0DF91CF911F910F91B3
:102430000C942B116EEA73E0CE010E94D58D892B8E
:1024400031F0DF91CF911F910F910C94301164EC1A
:1024500073E0CE010E94D58D892B31F0DF91CF91B1
:102460001F910F910C9459116AED73E0CE010E94F7
:10247000D58D892B31F0DF91CF911F910F910C9465
:102480005D1160EF73E0CE010E94D58D892B31F094
:10249000DF91CF911F910F910C94611166E074E070
:1024A000CE010E94D58D892B39F0CE01DF91CF91DD
:1024B0001F910F910C94651164E874E080EC9FE02B
:1024C0000E94437D4AE050E0B80180EC9FE00E940A
:1024D000437E62E874E080EC9FE00E94437DBE0191
:1024E00080EC9FE00E94867D80E0DF91CF911F917C
:1024F0000F910895CF93DF93FC0101900020E9F73D
:102500003197E81BF90B369790F0FC0120812432BB
:1025100071F4EC016FEF76E00E942F0D811108C07D
:102520006EE074E0CE01DF91CF910C942F0D80E02E
:10253000DF91CF910895AB01BC01DB01CA019D7F02
:102540008115984EA105B10509F487C041158EEE9D
:1025500058076105710509F480C0463B9EEF590795
:102560006105710509F479C048302FEF5207610504
:10257000710509F472C0DB01CA01AE7F8A319F4F39
:10258000A105B10509F469C04F318FEF5807610506
:10259000710509F462C045369FEF59076105710561
:1025A00009F45BC04F3F2FEF52076105710509F435
:1025B00054C044378FEF58076105710509F44DC0C9
:1025C000DB01CA01977F8131904FA140B10509F429
:1025D00044C0DB01CA018D7F8431904FA140B10519
:1025E000E1F1433185EF580781E068077105A9F1F2
:1025F0004B3099EF590791E06907710571F143304C
:102600002AEF520721E06207710539F1DB01CA01A7
:1026100086509D4FA140B1090397A105B105E8F08F
:1026200044368FEF580781E068077105B1F04736EF
:102630009FEF590791E06907710579F081E046370E
:102640002FEF520721E06207710549F047375F4FCE
:102650006140710521F080E0089581E008950895BA
:102660006F342FEF72078105910509F457C0683662
:102670003FEF73078105910509F450C061152DEEF8
:10268000720721E08207910509F448C0603130EFFC
:10269000730731E08307910509F440C0653021EFED
:1026A000720721E082079105C9F1633131EF7307A9
:1026B00031E08307910591F1693121EF720721E043
:1026C0008207910559F1633035EF730731E08307D5
:1026D000910521F1693028EF720721E08207910509
:1026E000E9F0633039EF730731E083079105B1F00A
:1026F00061302BEF720721E08207910579F021E02C
:1027000064363FEF730731E08307910541F0613193
:102710007E4F8140910519F020E001C021E0822F19
:102720000895EF92FF920F931F93CF93DF93CDB74E
:10273000DEB7DA950FB6F894DEBF0FBECDBF20919D
:10274000810C211119C07C010E94CD80AB01BC011C
:1027500000E011E09E012F5F3F4FC7010E94366AE3
:102760008C01089738F0BE016F5F7F4F80EC9FE0CF
:102770000E94867DC80102C080E090E0D3950FB62C
:10278000F894DEBF0FBECDBFDF91CF911F910F91A7
:10279000FF90EF9008954F925F926F927F928F9289
:1027A0009F92AF92BF92CF92DF92EF92FF92CF9320
:1027B000DF93CDB7DEB728970FB6F894DEBF0FBE14
:1027C000CDBF2A013B01BC01990F880B990B0E94D8
:1027D0006A8A69837A838B839C83A30192010E9416
:1027E00048896B017C0120E030E0A9010E94688BE0
:1027F00046015701181624F0B7FAB094B7F8B09410
:1028000020E030E048E151E4C701B6010E946D8B41
:102810006B017C0120E030E04CE052E40E94688BC8
:1028200018168CF020E030E04CE052ECC701B60105
:102830000E94B58987FF0DC0C12CD12C7CE0E72E0A
:1028400072ECF72E06C0C12CD12C6CE0E62E62E4AF
:10285000F62E80916A0A90916B0AA0916C0AB09151
:102860006D0A8D839E83AF83B88720E030E040E01F
:102870005FE3BC01CD010E9449899B01AC01C50108
:10288000B4010E94B58987FF03C080E090E0BFC01B
:102890002AE939E949E95FE36D817E818F81988575
:1028A0000E9449899B01AC01C501B4010E94B58910
:1028B00087FF43C020E030E040EC50E4C701B601A0
:1028C0000E94688B1816F4F020E030E040EC50ECE9
:1028D000C701B6010E94B589A301920187FDADC071
:1028E00069817A818B819C810E94688B181684F49F
:1028F00020E030E0A901C701B6010E94B58987FF39
:1029000007C0A9C0C12CD12C50ECE52E50E4F52E07
:10291000A301920169817A818B819C810E94B58992
:1029200087FF70C020E030E0A901C701B6010E9416
:10293000688B18160CF48FC065C026E636E646EEA6
:102940005FE36D817E818F8198850E9449899B011B
:10295000AC01C501B4010E94B58987FF22C020E007
:1029600030E040E951E4C701B6010E94688B1816B7
:102970008CF020E030E040E951ECC701B6010E9444
:10298000B58987FF3FC0C12CD12C30E9E32E31EC53
:10299000F32E38C0C12CD12C20E9E22E21E4F22EF6
:1029A00031C02AE939E949E150E46D817E818F81A6
:1029B00098850E9449899B01AC01C501B4010E9420
:1029C000B58987FD1FC020E030E0A901C701B6012D
:1029D0000E94688B181684F020E030E0A901C7013E
:1029E000B6010E94B58987FF0DC0C12CD12C9CE097
:1029F000E92E92ECF92E06C0C12CD12C8CE0E82EE9
:102A000082E4F82EC701B6010E942C8ACB012896D9
:102A10000FB6F894DEBF0FBECDBFDF91CF91FF9010
:102A2000EF90DF90CF90BF90AF909F908F907F906E
:102A30006F905F904F900C94EF0F69817A818B813A
:102A40009C810E94688B181634F0C12CD12C40EC6C
:102A5000E42EFE2CD7CFC12CD12C7601D3CFCF9230
:102A6000DF92EF92FF920F931F93CF93DF93CDB737
:102A7000DEB72B970FB6F894DEBF0FBECDBF8E0129
:102A80000F5F1F4F9E01275F3F4FAE01455F5F4FB6
:102A9000BE016B5F7F4F0E94C534882309F489C053
:102AA000CD80DE80EF80F88428E23BE64EE65EECE7
:102AB000C701B6010E94B589882381F020E030E08B
:102AC00044E353E4C701B6010E946D8B2BED3FE058
:102AD00049E450E40E94BA896B017C01C092640A07
:102AE000D092650AE092660AF092670AC701B601C1
:102AF0000E942C8A82E79AE00E94050A882309F442
:102B000058C080917D0C90917E0C039709F051C0C4
:102B100080917F0C9091800C039709F04AC04091FE
:102B2000640A5091650A6091660A7091670A209163
:102B30000A028091680A9091690A0E94CB13209141
:102B4000640A3091650A4091660A5091670A609163
:102B5000540A7091550A8091560A9091570A0E9422
:102B600048896B017C0120E030E040E05FE30E9497
:102B7000688B181654F020E030E040E05FEBC701AE
:102B8000B6010E94B58987FF14C082E79AE00E94CF
:102B90001E0A8091640A9091650AA091660AB0911C
:102BA000670A8093540A9093550AA093560AB093EB
:102BB000570A2B960FB6F894DEBF0FBECDBFDF913C
:102BC000CF911F910F91FF90EF90DF90CF900895DC
:102BD000CF92DF92EF92FF920F931F93CF93DF93E9
:102BE000CDB7DEB729970FB6F894DEBF0FBECDBFC5
:102BF00019861E821D8219821A821B821C828E01F6
:102C00000F5F1F4F9E012B5F3F4FAE01495F5F4F2C
:102C1000BE01675F7F4F0E94B7358823F9F0C980F6
:102C2000DA80EB80FC8020E030E0A901C701B6012A
:102C30000E94688B87FD12C020E030E044EB52E434
:102C4000C701B6010E94B58987FF08C0C0927A0A01
:102C5000D0927B0AE0927C0AF0927D0A29960FB608
:102C6000F894DEBF0FBECDBFDF91CF911F910F91C2
:102C7000FF90EF90DF90CF900895CF92DF92EF9288
:102C8000FF920F931F93CF93DF93CDB7DEB72F97AC
:102C90000FB6F894DEBF0FBECDBF1F8619861A8609
:102CA0001B861C861D821E821F82188619821A822C
:102CB0001B821C829E01235F3F4F79018E010F5FB3
:102CC0001F4F28503109AE01475F5F4FBE01615F62
:102CD0007F4F0E943235882321F1C984DA84EB8446
:102CE000FC8428E23BE64EE65EECC701B6010E949A
:102CF000B589882381F020E030E044E353E4C70144
:102D0000B6010E946D8B2BED3FE049E450E40E9438
:102D1000BA896B017C01B701A60182E79AE00E94A3
:102D200050072F960FB6F894DEBF0FBECDBFDF91D0
:102D3000CF911F910F91FF90EF90DF90CF9008956A
:102D4000CF92DF92EF92FF92CF93DF93FC018185C8
:102D50009285089709F070C083858B3309F06CC0A9
:102D600084858F3909F068C085858F3F09F064C07C
:102D700086858F3F09F060C087858F3F09F05CC072
:102D8000EF01618970E080E090E00E94688A20E0B5
:102D900030E040E853E40E946D8B6B017C01688950
:102DA00070E080E090E00E94688A9B01AC01C7015E
:102DB000B6010E94498920E030E044EB53E40E94D0
:102DC0006D8B29EF3FE049E450E40E94BA8920E08E
:102DD00030E44CE956E40E94BA8920E030E040E05B
:102DE0005FE30E9449890E942C8A6B017C018091DB
:102DF0007D0C90917E0C029739F08091500A909151
:102E0000510AC816D90641F0C6010E94530D10920E
:102E1000530A1092520A0CC08091520A9091530AA0
:102E2000863091058CF701969093530A8093520A4D
:102E3000D092510AC092500ADF91CF91FF90EF904B
:102E4000DF90CF9008958F929F92AF92BF92CF92D2
:102E5000DF92EF92FF920F931F93CF93DF93CDB743
:102E6000DEB72D970FB6F894DEBF0FBECDBF1D861F
:102E700019861A861B861C861D821E821F82188652
:102E80008E010F5F1F4F9E012B5F3F4FAE01475FCB
:102E90005F4FBE01635F7F4F0E941F36882309F496
:102EA00048C08D809E80AF80B88428E23BE64EE625
:102EB0005EECC501B4010E94B589C984DA84EB8453
:102EC000FC84882349F020E030E0A901C501B40169
:102ED0000E94B589811111C028E23BE64EE65EEC06
:102EE000C701B6010E94B589882319F12FEB3EE096
:102EF0004CE95EE3C701B60114C028E23BE64EE6AA
:102F00005EECC701B6010E94B589882391F0A70144
:102F10009601C501B4010E9449892FEB3EE04CE9BE
:102F20005EE30E94BA89AB01BC0182E79AE00E948D
:102F300074042D960FB6F894DEBF0FBECDBFDF919F
:102F4000CF911F910F91FF90EF90DF90CF90BF90A6
:102F5000AF909F908F900895CF92DF92EF92FF9263
:102F60000F931F93CF93DF93CDB7DEB72B970FB699
:102F7000F894DEBF0FBECDBF1B861D821E821F824E
:102F8000188619821A821B821C828E010F5F1F4FC6
:102F90009E012B5F3F4FAE01475F5F4FBE01655FF4
:102FA0007F4F0E94EC368823B1F1CD80DE80EF8028
:102FB000F88428E23BE64EE65EECC701B6010E94CB
:102FC000B589882381F020E030E044E353E4C70171
:102FD000B6010E946D8B2BED3FE049E450E40E9466
:102FE000BA896B017C01B701A60182E79AE00E94D1
:102FF0006608882381F021EA32EB43E05FE36981D0
:103000007A818B819C810E94BA89AB01BC0182E7E5
:103010009AE00E9495082B960FB6F894DEBF0FBE7B
:10302000CDBFDF91CF911F910F91FF90EF90DF9077
:10303000CF9008950F931F93CF93DF93CDB7DEB753
:1030400028970FB6F894DEBF0FBECDBF1D821E823B
:103050001F82188619821A821B821C82AE014F5F62
:103060005F4FBE016B5F7F4F0E949436882361F0F3
:1030700009811A812B813C814D815E816F81788528
:1030800082E79AE00E942A0628960FB6F894DEBFDF
:103090000FBECDBFDF91CF911F910F9108958F92F9
:1030A0009F92AF92BF92CF92DF92EF92FF920F93D7
:1030B0001F93CF93DF93CDB7DEB7AD970FB6F894DC
:1030C000DEBF0FBECDBF1DA61AA619A61D8E1E8E71
:1030D0001F8E18A2198E1A8E1B8E1C8E1D8A1E8A98
:1030E0001F8A188E198A1A8A1B8A1C8A1D861E86B8
:1030F0001F86188A19861A861B861C861D821E82C8
:103100001F8218861BA61AA219A219821A821B8274
:103110001C829E012F5F3F4F3F932F93205E3F4FB6
:103120003F932F932E5F3F4F3F932F93285F3F4F47
:103130003F932F93265231093F932F932C5F3F4F9C
:103140003F932F932C5F3F4F3F932F93215E3F4F31
:103150003F932F932750310949012E5F3F4F59016B
:103160002651310969012C5F3F4F79018E01075EBD
:103170001F4F285F3F4FAE01475D5F4FBE01635D4C
:103180007F4F0E9459370FB6F894DEBF0FBECDBFF8
:10319000882321F1C98CDA8CEB8CFC8C20E034E2A2
:1031A00044E759ECC701B6010E94B58987FD16C0F6
:1031B0008D889E88AF88B88C20E034E244E759ECD3
:1031C000C501B4010E94B58987FD08C0950184013D
:1031D000B701A60182E79AE00E942A06AD960FB6D3
:1031E000F894DEBF0FBECDBFDF91CF911F910F913D
:1031F000FF90EF90DF90CF90BF90AF909F908F9017
:1032000008950F931F93CF93DF93E1E7FCE01382C0
:10321000128288EE93E0A0E0B0E084839583A683D9
:10322000B78384E397E091838083E1E6FCE088E262
:1032300090E09183808348EC50E060E070E042834E
:1032400053836483758380E293E0A0E0B0E08683DB
:103250009783A087B187E1E5FCE029E230E0318384
:103260002083428353836483758386839783A087F7
:10327000B187E1E4FCE02AE230E03183208342833D
:1032800053836483758386839783A087B187E1E343
:10329000FCE02BE230E0318320834283538364835C
:1032A000758386839783A087B18765E380E39CE07D
:1032B0000E9433788EE490E00E947D80EC0102E36E
:1032C00010E025E142E065E30E948A32D0932F0CA2
:1032D000C0932E0C80E19CE00E94B82E83EF9BE00F
:1032E0000E94B82E82E99BE00E94C62981E39BE000
:1032F0000E94C62980ED9AE00E94C629E2E7FAE022
:103300001092BB0A1092BA0A1092BD0A1092BC0A1F
:103310001092BF0A1092BE0A1092C10A1092C00AFF
:103320001092C30A1092C20A1092C50A1092C40ADF
:103330001092C70A1092C60A1092C90A1092C80ABF
:103340001092CB0A1092CA0A1092CD0A1092CC0A9F
:103350001092CF0A1092CE0A10821182128213822A
:10336000148215821682178280E090E0A0E4B0EC0F
:1033700080879187A287B38714861586168617865D
:10338000108A118A128A138A158A148A178A168A51
:10339000118E108E80E4828F148E138E168E158EF1
:1033A00010A2178E81A312A213A214A215A216A214
:1033B00017A210A611A612A613A614A615A617A644
:1033C00016A66BE578E082EA9AE00E94CE8D6BE566
:1033D00078E08EEA9AE0DF91CF911F910F910C94E3
:1033E000CE8D84E397E09093720C8093710C0C94D3
:1033F000252E6AE675E080EC9FE00E94747D80ECEB
:103400009FE00C94597B68E575E080EC9FE00E949A
:10341000747D80EC9FE00C94597B66E475E080EC51
:103420009FE00E94747D80EC9FE00C94597B80911A
:10343000810C81112DC080917F0C9091800C209186
:103440007D0C30917E0C8217930739F085E090E077
:103450009093630A8093620A08952091620A3091E2
:10346000630A21153105A1F0215031093093630A17
:103470002093620A8230910511F40C94F91983307B
:10348000910511F40C94031A019711F40C940D1A80
:103490000895CF93DF93EC018B819C81AD81BE8138
:1034A00081159F4EA140B10509F082C089859A859A
:1034B00008970CF47DC08B858B3309F079C08C851F
:1034C0008F3909F075C08D85803F09F071C08E85F8
:1034D000813809F06DC08F85843809F04FC08B8921
:1034E00080FF09C00E94031A83E090E090937E0C55
:1034F00080937D0C5DC081FF05C00E94F91982E0B8
:1035000090E004C00E940D1A81E090E090937E0C40
:1035100080937D0C8B8982FF03C06AEC73E002C04C
:1035200068EB73E080EC9FE00E94747D8B8983FFE1
:1035300003C066EA73E002C063E973E080EC9FE0D9
:103540000E94747D898982958695869583709A8973
:1035500096952AE5829FE0011124C90FD11D64E8E8
:1035600073E080EC9FE00E94437D4AE050E0BE01A2
:1035700080EC9FE0DF91CF910C944A7E8D3AC1F4AC
:1035800088898330A9F46989062E000C770B880B93
:10359000990B0E946A8A2BED3FE049E450E40E94B7
:1035A000BA890E942C8ACB01DF91CF910C946C0DCB
:1035B000DF91CF910895CF92DF92EF92FF92CF9358
:1035C000DF93EC01CB80DC80ED80FE8080915C0A93
:1035D00090915D0A8A30910528F4019690935D0AD6
:1035E00080935C0AC701B6010E9430138111D5C0D7
:1035F000C701B6010E949B128111CFC081E39CE0FC
:103600000E946C0C80E5C8168FEFD806E104F10427
:1036100049F4CE01DF91CF91FF90EF90DF90CF90F2
:103620000C94A016C1148FEED80681E0E806F104D0
:1036300049F4CE01DF91CF91FF90EF90DF90CF90D2
:103640000C94491A8DE0C81681EFD80681E0E8068F
:10365000F10469F48F81882309F49FC0CE01DF91C2
:10366000CF91FF90EF90DF90CF900C942F1582E1D7
:10367000C81681EFD80681E0E806F10469F48F816D
:10368000882309F48AC0CE01DF91CF91FF90EF909B
:10369000DF90CF900C943D168AE1C81681EFD806D2
:1036A00081E0E806F10449F4CE01DF91CF91FF906B
:1036B000EF90DF90CF900C94E8158BE0C81685EF63
:1036C000D80681E0E806F10449F4CE01DF91CF91FC
:1036D000FF90EF90DF90CF900C94231781E0C816F5
:1036E00088EFD80681E0E806F10449F4CE01DF91C5
:1036F000CF91FF90EF90DF90CF900C941A1882E05A
:10370000C81688EFD80681E0E806F10449F4CE0136
:10371000DF91CF91FF90EF90DF90CF900C94AC179A
:1037200085E0C81688EFD80681E0E806F10449F480
:10373000CE01DF91CF91FF90EF90DF90CF900C946E
:103740004F18D701C6018E50984FA140B10902977A
:10375000A105B10548F4CE01DF91CF91FF90EF9024
:10376000DF90CF900C94911382E0C8168BEFD806AF
:1037700081E0E806F10479F381E1C81A8BEFD80AF9
:1037800081E0E80AF10882E0C816D104E104F104FE
:1037900010F38091810C8823F1F2DF91CF91FF909B
:1037A000EF90DF90CF9008958F929F92AF92BF924B
:1037B000CF92DF92EF92FF920F931F93CF93DF93FD
:1037C0004C01FC01C181CF70D0E0239685E0C82E6A
:1037D000D12C83E89DE00E94777A892B59F083E809
:1037E0009DE00E94513063E070E080E090E00E9434
:1037F000FE80EFCF540121E0E12CF12C11E0EC161A
:10380000FD060CF010E0122331F1F50101915F018A
:1038100010E0E114F10409F41160B80183E89DE0BF
:103820000E94763063E070E080E090E00E94FE80CD
:1038300083E89DE00E94777A892B41F083E89DE040
:103840000E94513021E08017910709F020E0FFEF3E
:10385000EF1AFF0AD3CF211112C022E330E040E07B
:1038600050E062E070E080E090E00E9449800E94B9
:10387000FE8081E0C81AD10809F0ABCF01C011E089
:10388000812FDF91CF911F910F91FF90EF90DF90EB
:10389000CF90BF90AF909F908F9008958091600AD5
:1038A0009091610A0A9720F08EE795E00C94D41B62
:1038B00008958F929F92AF92BF92CF92DF92EF9234
:1038C000FF920F931F93CF93DF934C01FC01C181B3
:1038D000CF70D0E0239685E0C82ED12C80EA9EE000
:1038E0000E94777A892B59F080EA9EE00E9451303D
:1038F00063E070E080E090E00E94FE80EFCF540132
:1039000021E0E12CF12C11E0EC16FD060CF010E0AA
:10391000122331F1F50101915F0110E0E114F1048E
:1039200009F41160B80180EA9EE00E94763063E0FD
:1039300070E080E090E00E94FE8080EA9EE00E94BD
:10394000777A892B41F080EA9EE00E94513021E095
:103950008017910709F020E0FFEFEF1AFF0AD3CF9D
:10396000211112C022E330E040E050E062E070E05C
:1039700080E090E00E9449800E94FE8081E0C81AA9
:10398000D10809F0ABCF01C011E0812FDF91CF91B9
:103990001F910F91FF90EF90DF90CF90BF90AF906D
:1039A0009F908F90089580915E0A90915F0A0A9788
:1039B00020F08BE795E00C94591C08950F931F930A
:1039C000CF93DF93CDB7DEB7C351D1400FB6F89494
:1039D000DEBF0FBECDBF81E49CE00E946C0C81E392
:1039E0009BE00E94CC2A8C010E945D0FC8010E94BE
:1039F000850D61E077E0C8010E94170D882399F0DA
:103A0000B801CE0101960E9497288091820C811105
:103A100005C0CE018F5F9E4F0E94D41BCE018F5FE9
:103A20009E4F0E94591CCD5EDE4F0FB6F894DEBF4C
:103A30000FBECDBFDF91CF911F910F91089581E708
:103A40009CE00E94BB2B181619067CF481E79CE0D1
:103A50000E94922B97FD09C0682F81E39BE00E9492
:103A6000D529019711F40C94DE1C08950F931F9330
:103A7000CF93DF93CDB7DEB7C351D1400FB6F894E3
:103A8000DEBF0FBECDBF81E49CE00E946C0C809134
:103A90005A0A90915B0A8A30910528F40196909316
:103AA0005B0A80935A0A80ED9AE00E94CC2A8C012E
:103AB0000E945D0FC8010E94850D61E077E0C8019A
:103AC0000E94170D882399F0B801CE0101960E943B
:103AD00097288091820C811105C0CE018F5F9E4F87
:103AE0000E94D41BCE018F5F9E4F0E94591CCD5E59
:103AF000DE4F0FB6F894DEBF0FBECDBFDF91CF9182
:103B00001F910F91089580EA9EE00E94777A892B99
:103B100071F080EA9EE00E94513097FD08C0BC0120
:103B200083EF9BE00E94C22E81110C94C90C089572
:103B3000CF92DF92EF92FF920F931F93CF93DF9379
:103B400083E89DE00E94777A892B09F48AC383E891
:103B50009DE00E94513097FD84C3BC0180E19CE050
:103B60000E94C22E882309F47CC381E69CE00E9457
:103B70006C0C8091600A9091610A8A30910528F45A
:103B800001969093610A8093600A80E19CE00E9414
:103B9000252FEC0180E19CE00E941B2FBE010E94BA
:103BA000452EEC010E94412E8C0180E19CE00E9498
:103BB000252F7C0180910B02882351F0CE010E94B9
:103BC0003F2E892B29F08881998103970CF0D6C26A
:103BD0000115110531F525E0E216F10409F0C0C226
:103BE0006E8170E0762F66278D81680F711D072E1C
:103BF000000C880B990B0E946A8A20E030E040E2BA
:103C000051E40E94BA89AB01BC0182E79AE00E94AC
:103C10007404882309F4A4C282E79AE00E94AC04E9
:103C20009FC20530110509F49BC20031110539F519
:103C300034E0E316F10409F093C26C8170E0762F52
:103C40006627CB01770FAA0BBB0B2D81BC01CD01E1
:103C5000622B0E94688A20E030E040E05FE30E942F
:103C60006D8BAB01BC0182E79AE00E94EE048823D1
:103C700009F476C282E79AE00E948C0571C2013194
:103C80001105B1F544E0E416F10409F069C21C81A4
:103C90006D816F7070E080E090E00E946A8A20E0A1
:103CA00030E040E251E40E94BA896B017C01612F4F
:103CB0006F7770E080E090E00E946A8A9B01AC011F
:103CC000C701B6010E94498917FF0AC022EA32EBF8
:103CD00043E05FE36B017C01C701B6010E94BA8932
:103CE000462F572FBC0182E79AE00E94F305BFCF11
:103CF0000032110509F434C2C8018397823091055E
:103D000008F42EC203978230910508F429C28A97DD
:103D1000029708F425C20235110551F584E0E81632
:103D2000F10409F01DC26D8170E0762F66278C8149
:103D3000680F711D072E000C880B990B0E946A8A70
:103D400020E030E040E251E40E94BA89AB01BC01BE
:103D500082E79AE00E949508882309F401C282E76D
:103D60009AE00E94CD0882E79AE00E944009F8C1DB
:103D70000335110509F06DC023E0E216F10409F0E6
:103D8000EFC11B81612F607370E0B4E0759567959A
:103D9000BA95E1F7072E000C880B990B0E946A8AEE
:103DA00020E030E044EB52E40E946D8B6B017C011B
:103DB0006C816F7370E080E090E00E946A8A9B01E2
:103DC000AC010E9449899B01AC01C701B6010E9468
:103DD00049896B017C01612F70E014E0759567954E
:103DE0001A95E1F76C707727072E000C880B990B5A
:103DF0000E946A8A20E030E040E05EE30E946D8B22
:103E00009B01AC01C701B6010E9449896B017C018D
:103E10009B01AC016091980A7091990A80919A0A6D
:103E200090919B0A0E9448899F7720E030E044E30C
:103E300054E40E94B58987FF93C120E030E044EB51
:103E400053E4C701B6019F770E94B58987FD9CC1E5
:103E500087C10435110539F534E0E316F10409F0A2
:103E60007FC15D81852F90E048970CF079C18C81EE
:103E7000282F2C7F30E035952795359527952C33C5
:103E800031050CF06DC140E1849FC00111249927D8
:103E90004B8142954F70842B8F7399278C339105FA
:103EA0000CF479C15DC106351105D9F484E0E8163A
:103EB000F10409F055C19C818FEF890F8F3108F013
:103EC0004FC18B8182958F702FEF280F2C3008F017
:103ED00047C12D81422F50E0433151050CF086C17E
:103EE0003FC10735110509F43BC10835110561F4DF
:103EF00028E0E216F10419F4CE010E94870A82E755
:103F00009AE00E941A072CC10935110509F428C14D
:103F10000238110509F424C10438110509F073C0F1
:103F20002B81822F807390E0F4E095958795FA9528
:103F3000E1F73AE5389FB001399F700D11248C816B
:103F40008F73680F711D680F711D220F611D711D28
:103F5000072E000C880B990B0E946A8A6093940AC2
:103F60007093950A8093960A9093970A8091C40A59
:103F70009091C50A02969093C50A8093C40A03974C
:103F800034F082E090E09093C50A8093C40A809157
:103F9000810C8111E5C08E8181FF05C00E94F91955
:103FA00082E090E004C00E940D1A81E090E09093BE
:103FB0007E0C80937D0C8E8182FF03C062E174E0F1
:103FC00002C060E074E080EC9FE00E94747D8E810E
:103FD00083FF03C06EEE73E002C06BED73E080EC14
:103FE0009FE00E94747D8C81829586958695837072
:103FF0002D8126953AE5839FC0011124820F911DE2
:104000000E94530DADC0C80185589109029708F46C
:10401000A7C00938110591F545E0E416F10409F04F
:104020009FC08B8190E044E0959587954A95E1F794
:104030009C01237033274DE2429FB001439F700DD6
:1040400011242C812F73620F711D660F771FE3E01F
:1040500096958795EA95E1F7680F791F072E000C72
:10406000880B990B0E946A8AAB01BC0182E79AE037
:104070000E945007882309F473C066C000391105F7
:1040800009F46EC00939110561F483E0E816F10402
:1040900009F066C06C8170E06A3571050CF4D2C01D
:1040A0005FC00C39110509F05BC024E0E216F10491
:1040B00009F056C02B81822F807390E034E09595F3
:1040C00087953A95E1F73AE5389FB001399F700D31
:1040D00011248C818F73680F711D680F711D220F61
:1040E000611D711D072E000C880B990B0E946A8AB6
:1040F000AB01BC0182E79AE00E945007882381F15E
:104100006D8170E0603871050CF07A9582E79AE075
:104110000E94050A882321F16D8170E060387105E5
:104120000CF07A95072E000C880B990B0E946A8A76
:104130006093640A7093650A8093660A9093670A95
:1041400082E79AE00E941E0A82E79AE00E948707AF
:1041500082E79AE00E94D40782E79AE00E9418085A
:10416000209709F47EC0CE01DF91CF911F910F916E
:10417000FF90EF90DF90CF900C948180CE010E9451
:104180003F2E0E94591C24CDB701A60182E79AE078
:104190000E946608E1CD9F938F933F932F931F92C8
:1041A0005F9384E194E09F938F938EEA9AE09F93CC
:1041B0008F930E942C8E8091CE0A9091CF0A069602
:1041C0009093CF0A8093CE0A2DB73EB7265F3F4F1C
:1041D0000FB6F8943EBF0FBE2DBF07970CF286E0D6
:1041E00090E09093CF0A8093CE0ABACF1F922F937C
:1041F0001F928F931F929F9384E194E09F938F93DC
:1042000082EA9AE09F938F930E942C8E8091CC0A31
:104210009091CD0A44969093CD0A8093CC0A2DB705
:104220003EB7265F3F4F0FB6F8943EBF0FBE2DBF7F
:1042300045970CF495CF84E190E09093CD0A80935C
:10424000CC0A8ECF072E000C880B990B0E946A8A2D
:1042500060937A0A70937B0A80937C0A90937D0A1C
:104260007BCFDF91CF911F910F91FF90EF90DF9067
:10427000CF9008958DE590E10E94777A892B79F0AF
:104280008DE590E10E94917A97FD09C0682F80ED3D
:104290009AE00E94D529019711F40C94361D0895D7
:1042A0002F923F924F925F926F927F928F929F9246
:1042B000AF92BF92CF92DF92EF92FF920F931F9334
:1042C000CF93DF93CDB7DEB7CA51D1400FB6F89484
:1042D000DEBF0FBECDBF1E012CEE221A2EEF320A1A
:1042E000C12CD12C80E4E82EFE2C812C912C90E85E
:1042F000A92E90E4B92E412C512C20E8622E2FE3F8
:10430000722E80EC9FE00E94777A892B09F419C104
:1043100080EC9FE00E94917A682F82E99BE00E94E6
:10432000D5298130910509F061C082E99BE00E94A6
:10433000CC2A8C0182E99BE00E94D72A07970CF4D3
:1043400000C1D801BC91C65EDE4FB883CA51D140CE
:10435000B13251F48091810C8111F3C0B8018DE527
:1043600090E10E94677DEDC0C8010E947A12882307
:1043700031F18091820C811112C08091600A90917C
:10438000610A0A9708F4BDCFB801CE0101960E94D8
:104390009728CE018F5F9E4F0E94D41B55C08091FD
:1043A0005C0A90915D0A0A9708F4ABCF82E99BE022
:1043B0000E94D72ABC01C8010E94931145C0C65E65
:1043C000DE4FE881CA51D140E43209F09ACF61E270
:1043D00074E0C8010E942F0D811141C067E274E0B2
:1043E000C8010E942F0D81113EC08BCF82309105F4
:1043F00091F482E99BE00E94CC2A0E947A128823E1
:1044000009F49FC060E674E080EC9FE00E94747D38
:1044100066E574E014C0039709F073CF82E99BE06E
:104420000E94CC2A0E947A12882309F48AC06DE285
:1044300074E080EC9FE00E94747D63E274E080ECA5
:104440009FE00E94747D06C06FE374E080EC9FE003
:104450000E94867D80EC9FE00E94597B52CF91E0C4
:104460009093810C4ECFF80101900020E9F731972D
:10447000E01BF10B399708F444CF6DE274E080EC57
:104480009FE00E94677DD80117968C91282F082EF7
:10449000000C330B3F938F93ECE3F4E0FF93EF9327
:1044A0001F9286E08F933F922F920E94EF8DB10171
:1044B00080EC9FE00E94867D0FB6F894DEBF0FBEB1
:1044C000CDBFF8018781823331F174F48033D1F0AC
:1044D000813309F016CF40926A0A50926B0A6092BB
:1044E0006C0A70926D0A0DCF833311F1843309F099
:1044F00008CF80926A0A90926B0AA0926C0AB092DE
:104500006D0AFFCE10926A0A10926B0A10926C0A22
:1045100010926D0AF6CE80E090E0A0E0B0E48093C7
:104520006A0A90936B0AA0936C0AB0936D0AE9CE65
:10453000C0926A0AD0926B0AE0926C0AF0926D0AFD
:10454000E0CEC65EDE4F0FB6F894DEBF0FBECDBF25
:10455000DF91CF911F910F91FF90EF90DF90CF905F
:10456000BF90AF909F908F907F906F905F904F9093
:104570003F902F900895A8950E94981D0E94831D3A
:104580000E9450210E943A210E941F1D80912D0CF3
:10459000882331F080912E0C90912F0C0E94476857
:1045A0008091580A9091590A813A2FE09207A4F11C
:1045B0000E94171A82E79AE00E94620A1092590A32
:1045C0001092580A8091700A9091710A8F3191056A
:1045D000B0F00E944E1C0E94D31C80916E0A9091F4
:1045E0006F0A9C012F5F3F4F30936F0A20936E0A32
:1045F0000E94B40D1092710A1092700A08950196EB
:104600009093710A8093700A80FF02C061E001C03C
:1046100060E08DE00C94128201969093590A809389
:10462000580A803D974031F40E94171A82E79AE0B9
:104630000C94600A08950F931F93CF93DF938C011E
:10464000EC0109900020E9F72197C81BD90BBE01A6
:104650006150710901960E94E62AF801EC0FFD1FD6
:104660002AE220839F938F9386E097E09F938F9316
:10467000CE010196800F911F9F938F930E942C8EE5
:104680000F900F900F900F900F900F90CE01039608
:1046900069E578E0800F911FDF91CF911F910F9115
:1046A0000C94CE8D20E031E0FC01A9011192415023
:1046B0005040E1F7089508958F929F92AF92BF9274
:1046C000CF92DF92EF92FF920F931F93CF93DF93DE
:1046D000D82FC92F6A017B014801590120E030E041
:1046E00040E251E4C501B4010E946D8B0E942C8A06
:1046F0000AE010E0CB01B8010E94C8889F938F9315
:10470000C501B4010E942C8A7F936F9320E030E0B2
:1047100040E251E4C701B6010E946D8B0E942C8AD1
:10472000CB01B8010E94C8889F938F93C701B6013F
:104730000E942C8A7F936F9389E494E09F938F93D8
:104740008FEF8F938DEF8F93CF93DF930E94EF8D39
:104750008DB79EB70E960FB6F8949EBF0FBE8DBF55
:104760008D2F9C2FDF91CF911F910F91FF90EF9094
:10477000DF90CF90BF90AF909F908F900C941B23B1
:104780002F923F924F925F926F927F928F929F9261
:10479000AF92BF92CF92DF92EF92FF920F931F934F
:1047A000CF93DF9300D01F92CDB7DEB7382E292EDE
:1047B0004A015B01A9019801C501B4010E94488921
:1047C00069837A838B839C8326E53EE04DEE5FE32D
:1047D000C701B6010E946D8B2B013C0120E030E047
:1047E00040E251E40E946D8B0E942C8ACB016AE06A
:1047F00070E00E94C8889F938F93C301B2010E940A
:104800002C8A7F936F9320E030E040E251E4C701AF
:10481000B6010E946D8B0E942C8ACB016AE070E089
:104820000E94C8889F938F93C701B6010E942C8A6B
:104830007F936F9320E030E040E251E4C501B40182
:104840000E946D8B0E942C8ACB016AE070E00E946E
:10485000C8889F938F93C501B4010E942C8A7F93CF
:104860006F9320E030E040E251E469817A818B81EE
:104870009C810E946D8B0E942C8ACB016AE070E0C3
:104880000E94C8889F938F9369817A818B819C81D4
:104890000E942C8A7F936F9383EA94E09F938F9377
:1048A0008FEF8F938DEF8F932F923F920E94EF8D1A
:1048B0000FB6F894DEBF0FBECDBF832D922D0F90A3
:1048C0000F900F900F90DF91CF911F910F91FF905C
:1048D000EF90DF90CF90BF90AF909F908F907F90A0
:1048E0006F905F904F903F902F900C941B232F92CE
:1048F0003F924F925F926F927F928F929F92AF9270
:10490000BF92CF92DF92EF92FF920F931F93CF93BC
:10491000DF9300D01F92CDB7DEB7382E292E6A0163
:104920007B012801390126E53EE04DEE5FE3C3013E
:10493000B2010E946D8B4B015C0120E030E04AE740
:1049400054E40E946D8B20E030E041E655E40E9483
:10495000BA8969837A838B839C8320E030E044E3C7
:1049600053E4C701B6010E94688B181664F4A701CE
:10497000960160E070E084EB93E40E9448896B014B
:104980007C011CE401C012E520E030E040E251E48B
:10499000C501B4010E946D8B0E942C8ACB016AE094
:1049A00070E00E94C8889F938F93C501B4010E9454
:1049B0002C8A7F936F9320E030E040E251E46981DC
:1049C0007A818B819C810E946D8B0E942C8ACB0105
:1049D0006AE070E00E94C8889F938F9369817A8112
:1049E0008B819C810E942C8A7F936F9320E030E022
:1049F00040E251E4C301B2010E946D8B0E942C8AF7
:104A0000CB016AE070E00E94C8889F938F93C30136
:104A1000B2010E942C8A7F936F931F921F9320E014
:104A200030E040E251E4C701B6010E946D8B0E9464
:104A30002C8ACB016AE070E00E94C8889F938F9314
:104A4000C701B6010E942C8A7F936F9382ED94E098
:104A50009F938F938FEF8F938DEF8F932F923F9232
:104A60000E94EF8D0FB6F894DEBF0FBECDBF832D31
:104A7000922D0F900F900F900F90DF91CF911F917B
:104A80000F91FF90EF90DF90CF90BF90AF909F90ED
:104A90008F907F906F905F904F903F902F900C94ED
:104AA0001B23CF93DF93D82FC92F0E945223E2E715
:104AB000FAE081A1282F082E000C330B3F938F932F
:104AC00080A18F93878D8F93868D8F93858D8F9304
:104AD000848D8F93838D8F93828D282F082E000CC9
:104AE000330B3F938F93818D8F93808D8F93878925
:104AF0008F9386898F9385898F9384898F9382E0A2
:104B000095E09F938F938FEF8F938F93CF93DF9346
:104B10000E94EF8D8DB79EB746960FB6F8949EBF54
:104B20000FBE8DBF8D2F9C2FDF91CF910C941B2337
:104B30004F925F926F927F92AF92BF92CF92DF922D
:104B4000EF92FF920F931F93CF93DF938C010E94FC
:104B50005223C2E7DAE0CAA4DBA4ECA4FDA42885B2
:104B600039854A855B856EA17FA188A599A50E949C
:104B700048892B013C0120E030E040E251E40E94F2
:104B80006D8B0E942C8A8AE0A82EB12CCB01B50136
:104B90000E94C8889F938F93C301B2010E942C8A00
:104BA0007F936F9320E030E040E251E4C701B6010B
:104BB0000E946D8B0E942C8ACB01B5010E94C8888F
:104BC0009F938F93C701B6010E942C8A7F936F93A6
:104BD00089A1282F082E000C330B3F938F9388A1B7
:104BE0008F938F8D8F938E8D8F938D8D8F938C8DD3
:104BF0008F938B8D8F938A8D282F082E000C330B6B
:104C00003F938F93898D8F93888D8F938F898F9307
:104C10008E898F938D898F938C898F938CE695E005
:104C20009F938F938FEF8F938DEF8F931F930F939E
:104C30000E94EF8D8DB79EB74E960FB6F8949EBF2B
:104C40000FBE8DBFC801DF91CF911F910F91FF90D3
:104C5000EF90DF90CF90BF90AF907F906F905F907C
:104C60004F900C941B232F923F924F925F926F9222
:104C70007F928F929F92AF92BF92CF92DF92EF92EC
:104C8000FF920F931F93CF93DF931C010E94522337
:104C9000C2E7DAE08AA49BA4ACA4BDA4C884D984EA
:104CA000EA84FB84A70196016EA17FA188A599A53E
:104CB0000E9448892B013C0120E030E040E251E4B1
:104CC000C701B6010E946D8B0E942C8A0AE010E099
:104CD000CB01B8010E94C8889F938F93C701B6018A
:104CE0000E942C8A7F936F9382EA9AE09F938F931E
:104CF00020E030E040E251E4C301B2010E946D8B3C
:104D00000E942C8ACB01B8010E94C8889F938F9380
:104D1000C301B2010E942C8A7F936F9320E030E0A0
:104D200040E251E4C501B4010E946D8B0E942C8ABF
:104D3000CB01B8010E94C8889F938F93C501B4012D
:104D40000E942C8A7F936F9389A1282F082E000C34
:104D5000330B3F938F9388A18F938F8D8F938E8D7D
:104D60008F938D8D8F938C8D8F938B8D8F938A8D59
:104D7000282F082E000C330B3F938F93898D8F9330
:104D8000888D8F938F898F938E898F938D898F9341
:104D90008C898F938EEA9AE09F938F938EEE95E0A5
:104DA0009F938F938FEF8F938DEF8F933F922F92DF
:104DB0000E94EF8D8DB79EB786960FB6F8949EBF72
:104DC0000FBE8DBFC101DF91CF911F910F91FF9059
:104DD000EF90DF90CF90BF90AF909F908F907F909B
:104DE0006F905F904F903F902F900C941B234F92A9
:104DF0005F926F927F928F929F92AF92BF92CF926B
:104E0000DF92EF92FF920F931F93CF93DF938C016A
:104E10006A017B012FEB3EE04CE95EE3C701B6017E
:104E20000E946D8B4B015C012EE136E14AEE5FE39F
:104E30000E94BA892B013C0120E030E040E251E4BD
:104E40000E946D8B0E942C8ACAE0D0E0CB01BE018B
:104E50000E94C8889F938F93C301B2010E942C8A3D
:104E60007F936F9320E030E040E251E4C501B4014C
:104E70000E946D8B0E942C8ACB01BE010E94C888C3
:104E80009F938F93C501B4010E942C8A7F936F93E7
:104E900020E030E040E251E4C701B6010E946D8B92
:104EA0000E942C8ACB01BE010E94C8889F938F93D9
:104EB000C701B6010E942C8A7F936F9389E396E025
:104EC0009F938F938FEF8F938DEF8F931F930F93FC
:104ED0000E94EF8D8DB79EB742960FB6F8949EBF95
:104EE0000FBE8DBFC801DF91CF911F910F91FF9031
:104EF000EF90DF90CF90BF90AF909F908F907F907A
:104F00006F905F904F900C941B238F929F92AF9263
:104F1000BF92CF92DF92EF92FF920F931F93CF93A6
:104F2000DF93D82FC92F6A017B014801590120E086
:104F300030E040E251E4C501B4010E946D8B0E9453
:104F40002C8A0AE010E0CB01B8010E94C8889F9328
:104F50008F93C501B4010E942C8A7F936F931F9297
:104F60001F921F921F9220E030E040E251E4C701FF
:104F7000B6010E946D8B0E942C8ACB01B8010E9461
:104F8000C8889F938F93C701B6010E942C8A7F9394
:104F90006F938DE896E09F938F938FEF8F938DEFB4
:104FA0008F93CF93DF930E94EF8D8DB79EB742967C
:104FB0000FB6F8949EBF0FBE8DBF8D2F9C2FDF9133
:104FC000CF911F910F91FF90EF90DF90CF90BF9006
:104FD000AF909F908F900C941B23CF92DF92EF9213
:104FE000FF92CF93DF93D82FC92F6A017B0120E076
:104FF00030E040E251E4C701B6010E946D8B0E948F
:105000002C8ACB016AE070E00E94C8889F938F933E
:10501000C701B6010E942C8A7F936F9380EB96E0C4
:105020009F938F938FEF8F938DEF8F93CF93DF931A
:105030000E94EF8D8DB79EB70A960FB6F8949EBF6B
:105040000FBE8DBF8D2F9C2FDF91CF91FF90EF90E2
:10505000DF90CF900C941B23CF92DF92EF92FF92C0
:10506000CF93DF93D82FC92F6A017B01B901330F8A
:10507000880B990B0E946A8A9B01AC01C701B6019B
:105080000E9448896B017C0120E030E040E251E45D
:105090000E946D8B0E942C8ACB016AE070E00E9416
:1050A000C8889F938F93C701B6010E942C8A7F9373
:1050B0006F9381EC96E09F938F938FEF8F938DEF9B
:1050C0008F93CF93DF930E94EF8D8DB79EB70A9693
:1050D0000FB6F8949EBF0FBE8DBF8D2F9C2FDF9112
:1050E000CF91FF90EF90DF90CF900C941B23CF9344
:1050F000DF93D82FC92F7F936F9382ED96E09F9314
:105100008F938FEF8F938DEF8F93CF93DF930E94C9
:10511000EF8D8DB79EB708960FB6F8949EBF0FBE61
:105120008DBF8D2F9C2FDF91CF910C941B239F92CD
:10513000AF92BF92CF92DF92EF92FF920F931F93A5
:10514000CF93DF93CDB7DEB7E2970FB6F894DEBF0B
:105150000FBECDBF8C017B010E9452231AAA19AA4F
:10516000F70101900020E9F73197BF016E197F091F
:105170009E012F5C3F4FAE014F5F5F4FC7010E9402
:10518000F62A29A9FF24FA94F20E68018EEEC81AB5
:105190008EEFD80AD601FC92B2E0BF1508F052C0DB
:1051A000ED81FE81DF010D900020E9F7CD0103972D
:1051B0008E179F0709F046C081810E947E2B2F2DFC
:1051C00030E08F7090E0039628173907D9F5FE017B
:1051D00031967F011395A12CB12CD6018C9190E0D2
:1051E000A816B9068CF5BFEFAB1ABB0AD701129609
:1051F000ED91FC911397DF010D900020E9F7CD01AF
:1052000003978E179F07C1F480810E947E2B982EF2
:10521000D7011296ED91FC91139781810E947E2B0C
:10522000B0E19B9E800D1124F8018083F2E0EF0E27
:10523000F11C0F5F1F4FD1CF80810E947E2BD801C0
:105240008C93F4CFF60110828E010F5F1F4FE12C7B
:10525000F12C89A99AA9E816F90664F4D8018D9170
:105260009D918D01009711F00E94728CBFEFEB1A97
:10527000FB0AEFCFE2960FB6F894DEBF0FBECDBFAC
:10528000DF91CF911F910F91FF90EF90DF90CF9022
:10529000BF90AF909F9008954F925F926F927F92D0
:1052A0008F929F92AF92BF92CF92DF92EF92FF9236
:1052B0000F931F93CF93DF93EC017B01142F582E94
:1052C0004D2E0E945223A12EB12CA501B701CE0173
:1052D00093950E94AA8DFE01EE5EFE4F10836EEF45
:1052E00076E0CE010E94CE8D470107EF1FEF85E0EB
:1052F000C82E87E0D82E9DEF692E77247A94C401BA
:105300008E199F098A159B05FCF4F40181914F01C8
:105310001F928F93DF92CF92C301801B910B8C0F52
:105320009D1F9F938F931F930F934F925F920E94A5
:10533000EF8D035011098DB79EB70A960FB6F894FA
:105340009EBF0FBE8DBFDBCFCE01DF91CF911F91EE
:105350000F91FF90EF90DF90CF90BF90AF909F9014
:105360008F907F906F905F904F900C941B23082E2E
:10537000000C990B0E94A28D282F082E000C990B6F
:10538000213414F0C7970895C0970895FC01E55A99
:10539000FF4F11821082329711821082349611824F
:1053A000108232961182108208954F925F926F920E
:1053B0007F928F929F92AF92BF92CF92DF92EF92A5
:1053C000FF920F931F93CF93DF93EC016C014BE59A
:1053D000C40ED11CF60120813181875A9F4F7C0178
:1053E000243631051CF0FC01118210826A3011F064
:1053F0006D3019F4F70111821082643211F06132BC
:1054000079F485E5FE0111928A95E9F7688381E0D8
:1054100090E0F60191838083F70191838083A8C097
:10542000F701008111810130110521F002301105D1
:10543000C9F09BC0FE01E20FF31F6083C901019612
:10544000F601918380836A3209F092C082E090E095
:10545000F70191838083C95ADF4F21503109398385
:10546000288386C0FE01E20FF31F60832F5F3F4F4A
:10547000F60131832083FE01E95AFF4F608171817B
:10548000261B370B243031050CF472C0CE01019677
:105490000E94E62A3C01F601808091805E01A80C02
:1054A000B91CF501329780810E94B7292C0184E054
:1054B000440C551C8A95E1F7F501319780810E94D3
:1054C000B7292DE0F501208394012E5F3F4F4AE07C
:1054D0004183FE01EB5AFF4F31832083F3E08F0EAF
:1054E000911CF60191828082FE01E20FF31F10826F
:1054F000840D951D6816790601F180919B0C9091A1
:105500009C0C019690939C0C80939B0C6BE077E035
:1055100080EC9FE00E94677DBE0180EC9FE00E94CE
:10552000867DF70111821082C35ADF4F28813981AD
:105530002F5F3F4F398328831DC080919D0C909130
:105540009E0C019690939E0C80939D0CC15ADF4F48
:105550008881998101969983888383E090E0F7019F
:105560009183808301E010E005C0F7011182108271
:1055700000E010E0C801DF91CF911F910F91FF90E3
:10558000EF90DF90CF90BF90AF909F908F907F90E3
:105590006F905F904F900895FC01E75AFF4F208174
:1055A00031812330310511F080E090E00895FC0155
:1055B000E75AFF4F208131812330310521F43497A0
:1055C00080819181089580E090E00895FC01680F4A
:1055D000791F80E090E0E617F70739F02191022E5D
:1055E000000C330B82279327F6CF08952F923F921A
:1055F0004F925F926F927F928F929F92AF92BF92E3
:10560000CF92DF92EF92FF920F931F93CF93DF938E
:1056100000D01F92CDB7DEB74C011B012A01590102
:10562000F901118210826C0100E010E0612C712CF4
:105630001C830B83021513050CF049C0DA82C98262
:10564000F60180810F5F1F4F8C3211F08A32B1F565
:105650008B819C81861997099C838B831816190668
:105660008CF401960E94DA8B7C01B401660D771DE3
:105670004B815C810E94AA8DEB81FC81EE0DFF1DA8
:10568000108209C082E090E00E94DA8B7C016BE519
:1056900078E00E94CE8DF501808191819C012F5F81
:1056A0003F4F31832083880F991FF201E80FF91FC4
:1056B000F182E0823801283131054CF4FFEFCF1A36
:1056C000DF0AE981FA8180818A3209F0B1CF0F9037
:1056D0000F900F900F90DF91CF911F910F91FF903E
:1056E000EF90DF90CF90BF90AF909F908F907F9082
:1056F0006F905F904F903F902F90089590ED980F8E
:105700009A3060F09FEB980F963010F4875308950D
:105710009FE9980F963020F487550895892F0895B2
:1057200080E008958091790D9091780D891769F046
:105730009F5F903508F090E0E92FF0E0E85DF24FD0
:1057400080819093780D90E008958FEF9FEF0895FA
:105750008091790DE091780D8E1751F0EF5FE03573
:1057600008F0E0E0F0E0E85DF24F808190E008951D
:105770008FEF9FEF08955091790D4091780D852F0F
:1057800090E0242F30E0541710F4805B9F4F821B71
:10579000930B0895E0919F0CF091A00C309709F0C5
:1057A00019949091790D9F5F903508F090E02091C9
:1057B000780D291739F0E92FF0E0E85DF24F80838A
:1057C0009093790D08959B01AC01213668E136076D
:1057D0004105510530F4109273001092200181E8C8
:1057E00028C0DA01C90173E0B695A795979587950A
:1057F0007A95D1F7813668E19607A105B10550F495
:10580000109273001092200122E8209321019C0144
:10581000AD0111C0232F342F452F5527213688E1A4
:10582000380741055105C0F5109273001092200110
:1058300084E8809321013093820D2093810DA5E2AD
:10584000B0E00E942589DC01CB0122E0B695A79546
:10585000979587952A95D1F790937B0D80937A0D34
:1058600062E080E30E94D68161E08EE20E941282B3
:1058700061E08EE20E94D6811092800D1092790D27
:105880001092780D1092270D1092240D1092230D76
:1058900080E28ABB8093730008959091240D9F5FEE
:1058A00097FD90E02091230D2917E1F32FB7F8948D
:1058B0003091270D332341F0E92FF0E0ED55F34F00
:1058C00080839093240D1DC091E09093270D8093C9
:1058D000260D1092250D82E08ABB809173008260B4
:1058E00080937300809120018F7B806880932001DA
:1058F00080912401909125014096909329018093F5
:1059000028012FBF0895862F0E944D2C81E090E042
:1059100008951F920F920FB60F9211240BB60F929B
:105920002F933F934F935F936F937F938F939F93A7
:10593000AF93BF93EF93FF938091270D6091260D56
:1059400020912801309129014091810D5091820DC3
:105950009091250D8A30F8F4240F351F893019F005
:10596000762F717001C071E066958F5F791791F3A2
:1059700090912001772311F0906C02C09F7B90687A
:105980009093200130932901209328017093250DD5
:105990006093260D50C09091240DE091230D9E132D
:1059A00020C08A3051F48BE08093270D240F351FDF
:1059B000309329012093280140C01092270D809137
:1059C00020018F7380932001809173008D7F8093DD
:1059D0007300E091A10CF091A20C309771F1199530
:1059E0002CC0EF5FE7FDE0E0E093230DF0E0ED5524
:1059F000F34F90819093260D1092250D90912001E8
:105A00009F7B9068909320018A3059F48091810D9A
:105A10009091820D280F391F30932901209328017E
:105A200009C080912401909125014096909329010D
:105A30008093280181E08093270DFF91EF91BF9122
:105A4000AF919F918F917F916F915F914F913F9116
:105A50002F910F900BBE0F900FBE0F901F901895B7
:105A60008091270D8111FCCF08950C94302D1F9249
:105A70000F920FB60F9211240BB60F922F933F93F4
:105A80004F935F936F937F938F939F93AF93BF9346
:105A9000EF93FF93809126019091270140917E0D15
:105AA00020912101442331F02F7B2093210110927A
:105AB0007E0D06C020642093210120E820937E0DF6
:105AC0003091800D311125C041115DC020917A0DBA
:105AD00030917B0D280F391F30932B0120932A0121
