:100000000C9420050C9492CC0C94BDCC0C94E8CCB0
:100010000C9413CD0C943ECD0C9469CD0C9494CDDE
:100020000C94BFCD0C9451050C9451050C945105C2
:100030000C9451050C9451050C9451050C945105E8
:100040000C9451050C9451050C9451050C945105D8
:100050000C9451050C9451050C9451050C943ACE16
:100060000C9451050C9440C80C9476C80C9451051E
:100070000C9451050C9451050C9451050C945105A8
:100080000C9451050C9451050C9451050C94510598
:100090000C942F6C0C94596C0C9451050C945105D4
:1000A0000C9451050C9451050C9451050C94510578
:1000B0000C9451050C9451050C941C6B0C947B6AA8
:1000C0000C94CB6B0C9451050C9451050C94A26CC0
:1000D0000C94CC6C0C9451050C94D7C80C940DC99D
:1000E0000C9451050C9406D20C9482CF0C94BBD185
:1000F0000C9457D20C94F2C00C9454D20C944ACC69
:100100000C9422CE0C9458CF0C9436CC0C94FC6EEC
:100110000C9441C90C94E4D10C94CA370C9457CC7C
:100120000C94F7B70C9400C10C9467D20C945E8ABF
:100130000C9417CC0C941AD20C94C6C00C94E3C641
:100140000C94DCC00C94157F0C9496B60C9466CF7E
:100150000C941A6B0C941BBB0C94E8B80C94D4C090
:100160000C9487B90C9478CF0C944ED20C940FD287
:100170000C946BD20C944BD20C9423B70C940E3A83
:100180000C94DED10C9467710C94BEC00C9402D216
:100190000C94E1D10C9442D20C9452CF0C949EB8A2
:1001A0000C94AAC80C946ED20C9497CF0C9429B6D8
:1001B0000C94D6BE0C94836C0C945DB40C9420BF4C
:1001C0000C945AD20C94BA370C946ACF0C9460D227
:1001D0000C94E56D0C940CD20C94FBD10C94A0C83B
:1001E0000C9474CF0C94EEBE0C94DAD10C9481C0B4
:1001F0000C94073B0C941CC70C9490CF0C9467B4E0
:100200000C94DD6D0C942BC70C94756A0C944A6E9B
:100210000C94E5370C94D1370C9451D20C9412D233
:100220000C94DA370C948CCF0C9494CF0C9421D28C
:100230000C9460B60C9445D20C9464BE0C94D1B668
:100240000C9401710C9459B80C948D690C9463D280
:100250000C941ED20C94A1C70C94EAC00C9416D234
:100260000C94AAC00C94FFD10C94EEC60C941938CF
:100270000C94A7BE0C9486CF0C946CBA0C945CCFF3
:100280000C9470CF0C94C6690C946D710C9485CC51
:100290000C9469B40C9437C90C94A1370C946CCCB1
:1002A0000C9498CF0C94AABB0C94B6690C9460CFB4
:1002B0000C94FAC60C9408C70C9481C70C94A369DB
:1002C0000C9409D20C940CBD0C945DD20C94B3B672
:1002D0000C943ECC0C94FEB60C94F66C0C94AEBE12
:1002E0000C9448D20C946EC90C9478CC0C947ECFAC
:1002F0000C9404BF6364696E6F70737578585B000B
:100300004E414E494E495459494E46CDCCCC3D0AFA
:10031000D7233C17B7D13877CC2B329595E6241FDD
:10032000B14F0A000020410000C84200401C462096
:10033000BCBE4CCA1B0E5AAEC59D744020415042F3
:1003400020454E440040200040203D3D3D204B458F
:1003500059205354524F4B45203D3D3D00404247AC
:100360004250552C436F757273652C0040424742D2
:1003700050552C547261636B2C46616C7365004060
:1003800042474250552C547261636B2C5472756510
:10039000004042474250552C56616E652C46616CB8
:1003A0007365004042474250552C56616E652C548F
:1003B000727565004020313330333233204D65741F
:1003C000656F726F6C6F676963616C2053746174E1
:1003D000696F6E20446174610040200052656A6557
:1003E0006374206D7973656C662050474E3A002027
:1003F000005573657249443A2000402054455854D2
:1004000020203A200040205472616E736365697643
:10041000657253746174757320203A200040205532
:1004200073657249443A20004020526570656174DA
:100430003A200040204D65737361676549443A2056
:10044000004020E28093E28093E28093E28093E296
:100450008093E28093E28093E28093E28093E28053
:1004600093E28093E28093E28093E28093E2809330
:10047000E28093E28093E28093E28093E28093E2D1
:100480008093E28093E2809320414953204D65732D
:100490007361676520313420E28093E28093E280CB
:1004A00093E28093E28093E28093E28093E28093F0
:1004B000E28093E28093E28093E28093E28093E291
:1004C0008093E28093E28093E28093E28093E280E3
:1004D00093E28093E28093E28093E28093E28093C0
:1004E000E28093E28093E28093E28093E28093E261
:1004F0008093E28093E28093E28093002C20005D61
:100500003A200040204149532053616665747920A8
:1005100042726F616463617374205B0040424742C2
:1005200050552C547261636B2C46616C73650040AE
:1005300042474250552C547261636B2C547275655E
:10054000004042474250552C56616E652C46616C06
:100550007365004042474250552C56616E652C54DD
:1005600072756500244E474250552A3445004E4D61
:1005700045415F5041525345525F4E4F54434F4D9A
:10058000504C4554452C206E6F7420636F6D706C19
:10059000657465207E7E00244E474250552A3445BE
:1005A000004E4D45415F5041525345525F434845CF
:1005B000434B53554D4552522C204552524F5220D9
:1005C00021210058544500524D4300524D420047EE
:1005D0004C4C0047474100424F44004257430042C1
:1005E000575200415042000900095472616E736C09
:1005F00061746553656174616C6B417570696C6F92
:1006000074436F6D6D616E64546F4E454D41323071
:10061000303028293A2000534541005345410029F4
:10062000200040204D454D4F525920280020556E46
:100630006B6E6F776E0020506F7765724F6E002083
:1006400045787465726E616C002042726F776E6FD0
:10065000757400205761746368646F670046616950
:100660006C004F70656E004042474250552C43412C
:100670004E2C004E4D4541323030302053657420B1
:10068000457874656E645472616E736D69744D65FE
:10069000737361676573004042474250552C424F67
:1006A0004F5420566572002066696E652E002C201E
:1006B00048656C6C6F2C204920616D2000404247DA
:1006C0004250552C566572004042474250552C4DC1
:1006D0004F422C004042474250552C53746565727E
:1006E0002C004042474250552C436F757273652C65
:1006F000004042474250552C4150422C43414E430A
:10070000454C004042474250552C4175746F2C4671
:10071000616C7365004042474250552C4175746FBF
:100720002C5374656572004042474250552C417508
:10073000746F2C54727565009000A49000A3002083
:10074000446174613A00204C656E3A002044657340
:10075000743A0020536F757263653A002050474E1B
:100760003A005072693A00203A2000002C0053747D
:10077000617274206164647265737320636C616973
:100780006D20666F72206465766963652000207352
:10079000656E64206661696C6564002F002C2066BC
:1007A00072616D653A0050474E20002073656E649B
:1007B000206661696C65640050474E200043414EDD
:1007C00020646576696365206661696C6564207480
:1007D0006F206F70656E0043414E206465766963DB
:1007E000652072656164790000004E4D45413230EC
:1007F0003030206C6962726172792C206874747078
:10080000733A2F2F6769746875622E636F6D2F744A
:10081000746C617070616C61696E656E2F4E4D45D0
:1008200041323030300035089A0241726475696E89
:100830006F204E326B2D3E50430000000000000040
:100840000000000000000000000000312E302E30BB
:100850002E3000000000000000000000000000003A
:10086000000000000000000000000000312E302ECB
:100870003000000000000000000000000000000048
:1008800000000000000000000000000000303030D8
:100890003030303031000000000000000000000067
:1008A0000000000000000000000000000000000147
:1008B00000E8000000EA000000EB000000EC00008F
:1008C00000EE0000D8FE000000ED01000000000076
:1008D00000E8000000EA000000EB000000EC00006F
:1008E00000EE000000ED010000EE010011F001003B
:1008F00014F0010016F001000000000000000B0CD5
:10090000030A0D0E0F090804050200000000000094
:1009100000000000000000000000000000000000D7
:100920000000000000000000131211000000000091
:1009300000000000000000000000000000000000B7
:1009400000000000000000000000000000000000A7
:1009500000000102102020080810204010204080D4
:100960000201020108040201010204081020408073
:100970008040201008040201800402018040201001
:10098000080402010804020101020408102040804A
:1009900001020408102040800440800480081010E8
:1009A00020400408102040800505050507050808BB
:1009B0000808020202020A0A0808040404040101E9
:1009C00001010101010103030303030303030407FE
:1009D00007070C0C0C0C0C0C0C0C02020202060695
:1009E0000606060606060B0B0B0B0B0B0B0B050581
:1009F00005080807070404040A0A0A0A0A0A00008C
:100A00002200250028002B002E00310034000201B6
:100A10000000050108010B0100002100240027004F
:100A20002A002D00300033000101000004010701FD
:100A30000A011938836CF66CE3C6AAC841C90E3A9C
:100A400011241FBECFEFD1E2DEBFCDBF00E00CBF4F
:100A50001AE0A0E0B2E0EEE8FBEC01E00BBF02C060
:100A600007900D92A433B107D9F723E1A4E3BAE0CC
:100A700001C01D92AE39B207E1F715E0CFE1D5E034
:100A800000E006C021970109802FFE010E94E3D6F5
:100A9000C931D10780E00807A9F70E9425CE0C9440
:100AA000B5E50C9400006AE873E10E945A058AE8F3
:100AB00093E10895CF92DF92EF92FF920F931F93ED
:100AC000CF93DF9300D01F92CDB7DEB76C017B01CF
:100AD000E0919C13F0919D130FEF1FEF309721F0E1
:100AE00066E973E119958C01F60180819181A281FB
:100AF000B381409196135091971360919813709120
:100B00009913840F951FA61FB71F10161106CCF05E
:100B100089839A83AB83BC83B701CE0101960E947F
:100B20000906F701138702870F900F900F900F901F
:100B3000DF91CF911F910F91FF90EF90DF90CF90B9
:100B40000895A801012E000C660B770B840F951FEA
:100B5000A61FB71FDDCF0F931F93CF93DF9300D056
:100B60001F92CDB7DEB78C010E94E10669837A83BC
:100B70008B839C83F8018285938597FF0EC0E0915B
:100B80009C13F0919D13309741F066E973E1CE011B
:100B900001961995F80193878287F80182859385DC
:100BA0001816190684F4092E000CAA0BBB0B4981F8
:100BB0005A816B817C81481B590B6A0B7B0B4983E3
:100BC0005A836B837C8389819A81AB81BC814091FC
:100BD0009613509197136091981370919913841BF9
:100BE000950BA60BB70B89839A83AB83BC83B801A3
:100BF000CE0101960E945A0569817A818B819C8180
:100C00000F900F900F900F90DF91CF911F910F9148
:100C10000895CF92DF92EF92FF920F931F93CF939D
:100C2000DF9300D000D01F921F92CDB7DEB78B01AB
:100C3000FC01608171818281938120E831E541E08E
:100C400050E00E94A2D669017A012CE330E040E036
:100C500050E00E94C4D629833A834B835C83898108
:100C60009A81AB81BC81F80160836CE370E00E94E3
:100C70008ED6DC01F801A1836283C601069667E087
:100C800070E00E947AD684832DEA3EE840E050E08E
:100C9000C701B6010E94C4D629833A836D837E833F
:100CA0008F83988789819A8124E6289F6001299FF4
:100CB000D00C11246D817E818F81988525EB35E0E4
:100CC00040E050E00E94C4D629833A836D837E833E
:100CD000E980FA80EE0CFF1CEE0CFF1CEC0CFD1CF6
:100CE0008D819E81F5E6EF16F10408F43FC0019670
:100CF00021E030E0A90144595E4F4817590760F4DC
:100D00006DE671E0821B930B0E948ED6DC01E60E2D
:100D1000F71ECD0130E020E044E6E40EF11CF801BE
:100D2000F782E68291878087255C3F4F8217930781
:100D300038F56FE170E00E948ED6DC01F801658322
:100D4000A383F8011386128683818F5F838328969D
:100D50000FB6F894DEBF0FBECDBFDF91CF911F91CC
:100D60000F91FF90EF90DF90CF90089551E040E019
:100D700024E6E216F10409F450E0252F342FBACF0F
:100D800069E970E0821B930B0E948ED6DC01262F4E
:100D9000220F220FF22EF60E6DE370E0CD010E94BD
:100DA0008ED6DC01E62EEE0C6FE170E0CD010E94E4
:100DB0008ED6DC0122E0260F2F0D2E0DF8012583A3
:100DC000BFCF8F929F92AF92BF92CF92DF92EF925E
:100DD000FF92CF93DF93EC01EE81FF817F0124E648
:100DE000E21AF108D12CC12CB1F0CF01855691093E
:100DF0006C0197FF03C023E0C20ED11CD594C794A9
:100E0000D594C7946CE97FEF0E948ED6C60ED71E8C
:100E10008FEFC81AD80A2DE631E0D7010E94FAD622
:100E20004601DD0CAA08BB08860E971EA81EB91E37
:100E30008B81082E000C990B7C0121E0E21AF1084D
:100E40002D8122300CF049C0222321F07C012EE1BB
:100E5000E20EF11C6701FF0CEE08FF08C80CD91C5C
:100E6000EA1CFB1CAA810A2E000CBB0B20E13EE011
:100E70000E94FAD64B015C01A9810A2E000CBB0B23
:100E80002CE330E00E94FAD6AB01BC01480D591D9D
:100E90006A1D7B1D8881082E000C990BAA0BBB0BC9
:100EA0004C015D01840E951EA61EB71EA70196017A
:100EB00060E871E581E090E00E945ED6680D791DE2
:100EC0008A1D9B1DDF91CF91FF90EF90DF90CF9017
:100ED000BF90AF909F908F900895CF018459984F05
:100EE0000E949D07C82ED12C8BE3C80ED11CCE0CBE
:100EF000DF1C8D81082E000C990B0297853091051F
:100F00001CF029E9C20ED11C65E070E00E948ED66B
:100F10009C0197FF02C02F5F3F4F359527959DE3BA
:100F2000929F7001939FF00C1124EC0CFD1C80FF2C
:100F300091CF8FE1E80EF11C8DCF9C0123703327F8
:100F4000232B59F464E670E00E948ED6892B39F485
:100F50006370772781E0672B19F080E0089581E0C6
:100F600008950F931F93CF93DF93CDB7DEB7C65489
:100F7000D1400FB6F894DEBF0FBECDBF8C01CE01BD
:100F800001960E945B52C75CDE4F19821882C953DA
:100F9000D140C55CDE4F19821882CB53D140C35C6F
:100FA000DE4F19821882CD53D140C15CDE4F1882CA
:100FB00019821A821B82CF53D140CD5BDE4F18823B
:100FC00019821A821B82C354D140CE0101960E941D
:100FD000245ACE0101960E9475520E940F13F80107
:100FE000EB56FE4F80819181019797FD0EC0918352
:100FF0008083CA5BDE4F0FB6F894DEBF0FBECDBF55
:10100000DF91CF911F910F91089511821082F1CF3E
:10101000CF92DF92EF92FF92CF93DF93EC016A01C0
:101020007B012FE632E143E85AEBCB01B6010E9487
:1010300040DA18161CF520E030E84BE355E4C70110
:10104000B6010E94F9D787FF19C0C882D982EA8207
:10105000FB82C557DE4F88819981069687309105BE
:1010600054F49983888381E0DF91CF91FF90EF90D2
:10107000DF90CF90089586E090E0F3CF80E0F4CF4A
:101080000F931F93CF93DF93CDB7DEB7C853D140F3
:101090000FB6F894DEBF0FBECDBF8C01CE01019616
:1010A0000E945B5205571E4FF801808191811816EE
:1010B0001906D4F44091860A5091870A6091880AF3
:1010C0007091890ACE0101960E94A85FCE01019617
:1010D0000E9475520E940F13F8018081918101973F
:1010E00097FD0EC091838083C85CDE4F0FB6F894E5
:1010F000DEBF0FBECDBFDF91CF911F910F9108953D
:1011000011821082F1CFCF92DF92EF92FF92CF93B4
:10111000DF93EC016A017B0120E030E0A901CB0103
:10112000B6010E9440DA87FD23C02DEC3CE044EB81
:1011300053E4C701B6010E94F9D787FF19C0C88AD6
:10114000D98AEA8AFB8ACD56DE4F88819981049636
:101150008530910554F49983888381E0DF91CF91A4
:10116000FF90EF90DF90CF90089584E090E0F3CF70
:1011700080E0F4CFAF92BF92CF92DF92EF92FF92D6
:101180000F931F93CF93DF93CDB7DEB7C853D140F2
:101190000FB6F894DEBF0FBECDBF5C01CE01019645
:1011A0000E945B5265018DE6C81A8EEFD80AF601DF
:1011B000808191811816190674F57501FFE6EF1A02
:1011C000FEEFFF0AF70180819181181619061CF5C0
:1011D000F501048515852685378540895189628901
:1011E0007389CE0101960E943357CE0101960E9469
:1011F00075520E940F13F60180819181019797FD2E
:101200001CC091838083F70180819181019797FDB4
:1012100017C091838083C85CDE4F0FB6F894DEBFA1
:101220000FBECDBFDF91CF911F910F91FF90EF9037
:10123000DF90CF90BF90AF90089511821082E3CFDE
:1012400011821082E8CFAF92BF92CF92DF92EF92DD
:10125000FF920F931F93CF93DF93CDB7DEB7C853A1
:10126000D1400FB6F894DEBF0FBECDBF5C01CE01FA
:1012700001960E945B5265018DE6C81A8EEFD80A6E
:10128000F601808191811816190674F57501FFE643
:10129000EF1AFEEFFF0AF7018081918118161906F7
:1012A0001CF5F5010485158526853785408951890A
:1012B00062897389CE0101960E942056CE01019663
:1012C0000E9475520E940F13F6018081918101974F
:1012D00097FD1CC091838083F701808191810197E4
:1012E00097FD17C091838083C85CDE4F0FB6F894DA
:1012F000DEBF0FBECDBFDF91CF911F910F91FF9049
:10130000EF90DF90CF90BF90AF9008951182108240
:10131000E3CF11821082E8CFCF92DF92EF92FF925B
:10132000CF93DF93EC016A017B0120E030E0A9015B
:10133000CB01B6010E9440DA87FD23C020E030E0F7
:1013400040EA52E4C701B6010E94F9D787FF19C0ED
:10135000CC86DD86EE86FF86CF56DE4F888199816A
:1013600004968530910554F49983888381E0DF9158
:10137000CF91FF90EF90DF90CF90089584E090E0C0
:10138000F3CF80E0F4CF4F925F926F927F928F9273
:101390009F92AF92BF92CF92DF92EF92FF920F9304
:1013A0001F93CF93DF9300D000D01F921F92CDB731
:1013B000DEB74A015B016801790180929A0A909236
:1013C0009B0AA0929C0AB0929D0AC092A70AD09252
:1013D000A80AE092A90AF092AA0A2A013B01E8941D
:1013E00077F8C301B2010E94ACD869837A838B83FA
:1013F0009C8329813A81B901330F880B990B0E9494
:10140000EAD89B01AC01C301B2010E9475D720E06C
:1014100030E040E752E40E9445DA2B013C010E9493
:10142000ACD86D837E838F8398872D813E81B901EF
:10143000330F880B990B0E94EAD89B01AC01C301C2
:10144000B2010E9475D720E030E040E752E40E94EC
:1014500045DA2B013C0120E030E0A901C501B401CF
:101460000E94F9D787FD8CC08EE429813A813093A0
:101470009F0A20939E0A2D813E813093A10A2093DA
:10148000A00A4092A20A5092A30A6092A40A709203
:10149000A50A8093A60A26013701E89477F8C301CC
:1014A000B2010E94ACD84B01072E000C880B990B9F
:1014B0000E94EAD89B01AC01C301B2010E9475D71A
:1014C00020E030E040E752E40E9445DA2B013C0185
:1014D0000E94ACD869837A838B839C8329813A816B
:1014E000B901330F880B990B0E94EAD89B01AC011C
:1014F000C301B2010E9475D720E030E040E752E41A
:101500000E9445DA2B013C0120E030E0A901C7012F
:10151000B6010E94F9D787FD35C085E49092AC0AE8
:101520008092AB0A29813A813093AE0A2093AD0AAA
:101530004092AF0A5092B00A6092B10A7092B20A19
:101540008093B30A86E090E090931C0C80931B0C70
:1015500081E028960FB6F894DEBF0FBECDBFDF91B5
:10156000CF911F910F91FF90EF90DF90CF90BF90A0
:10157000AF909F908F907F906F905F904F90089565
:1015800083E573CF87E5CACFFC01EB56FE4F208180
:1015900031811216130614F40C94B1070895CF92FA
:1015A000DF92EF92FF92CF93DF93EC016A017B0110
:1015B00020E030E0A901CB01B6010E9440DA87FDAE
:1015C00023C02DEC3CE044EB53E4C701B6010E947C
:1015D000F9D787FF19C0CEA6DFA6E8AAF9AAC9568F
:1015E000DE4F8881998102968330910554F4998366
:1015F000888381E0DF91CF91FF90EF90DF90CF90D3
:10160000089582E090E0F3CF80E0F4CFDF92EF9294
:10161000FF920F931F93CF93DF93CDB7DEB7C853DD
:10162000D1400FB6F894DEBF0FBECDBF8C01D62ED1
:10163000CE0101960E945B52780189E6E81A8EEF8E
:10164000F80AF701808191811816190624F5F8012E
:1016500046A557A560A971A9DD2061F1CE010196CB
:101660000E949660CE0101960E9475520E940F134F
:10167000DD2049F0CE0101960E947552BC018BED30
:1016800092E10E94CEC9F70180819181019797FD77
:101690001AC091838083C85CDE4F0FB6F894DEBF1A
:1016A0000FBECDBFDF91CF911F910F91FF90EF90B3
:1016B000DF9008950085118522853385CE0101963E
:1016C0000E943260CFCF11821082E5CF60E00C948F
:1016D000060BCF92DF92FF920F931F93CF93DF936E
:1016E000CDB7DEB7C853D1400FB6F894DEBF0FBEFA
:1016F000CDBF6C01F62ECE0101960E945B52860191
:1017000009561E4FF801808191811816190624F59B
:10171000F60146A557A560A971A9CE010196FF2043
:1017200051F10E940C61CE0101960E9475520E94F7
:101730000F13FF2049F0CE0101960E947552BC01A3
:101740008BED92E10E94CEC9F801808191810197D1
:1017500097FD14C091838083C85CDE4F0FB6F89468
:10176000DEBF0FBECDBFDF91CF911F910F91FF90D4
:10177000DF90CF9008950E94D160D5CF1182108262
:10178000EBCF60E00C94690BDF92EF92FF920F9326
:101790001F93CF93DF93CDB7DEB7C853D1400FB6B9
:1017A000F894DEBF0FBECDBF7C01D62ECE010196D0
:1017B0000E945B52870109561E4FF801808191817A
:1017C000181619066CF5F701608571858285938579
:1017D0000E94ACD8CB01F70146A557A560A971A915
:1017E0009C01CE010196DD2051F10E948E61CE0157
:1017F00001960E9475520E940F13DD2049F0CE0120
:1018000001960E947552BC018BED92E10E94CEC9F7
:10181000F80180819181019797FD14C091838083A5
:10182000C85CDE4F0FB6F894DEBF0FBECDBFDF91B0
:10183000CF911F910F91FF90EF90DF9008950E943C
:101840004761D5CF11821082EBCF60E00C94C40BBE
:10185000CF92DF92EF92FF92CF93DF93EC016A0178
:101860007B01CB01BA019F772DEC3CE044EB53E4C4
:101870000E94F9D787FF19C0CAAADBAAECAAFDAA61
:10188000C556DE4F8881998106968730910554F4BC
:101890009983888381E0DF91CF91FF90EF90DF9073
:1018A000CF90089586E090E0F3CF80E0F4CFCF9220
:1018B000DF92EF92FF92CF93DF93EC016A017B01FD
:1018C0002CEA35EC47E257EBCB01B6010E9440DA37
:1018D00018161CF520E030E048EC52E4C701B601D0
:1018E0000E94F9D787FF19C0CEAADFAAE8AEF9AEE9
:1018F000C756DE4F8881998106968730910554F44A
:101900009983888381E0DF91CF91FF90EF90DF9002
:10191000CF90089586E090E0F3CF80E0F4CF6F920F
:101920007F928F929F92AF92BF92CF92DF92EF926F
:10193000FF920F931F93CF93DF93CDB7DEB7C853BA
:10194000D1400FB6F894DEBF0FBECDBF3C01CE0133
:1019500001960E945B52430185E6881A8EEF980A31
:10196000F401808191811816190694F55301F7E668
:10197000AF1AFEEFBF0AF501808191811816190692
:101980003CF5F301C6A8D7A8E0ACF1AC0085118501
:101990002285338542A953A964A975A9CE01019670
:1019A0000E948056CE0101960E9475520E940F132C
:1019B000F40180819181019797FD20C091838083FC
:1019C000F50180819181019797FD1BC091838083F0
:1019D000C85CDE4F0FB6F894DEBF0FBECDBFDF91FF
:1019E000CF911F910F91FF90EF90DF90CF90BF901C
:1019F000AF909F908F907F906F900895118210828A
:101A0000DFCF11821082E4CF8F929F92AF92BF926C
:101A1000CF92DF92EF92FF920F931F93CF93DF93BA
:101A2000CDB7DEB7CC55D1400FB6F894DEBF0FBEB0
:101A3000CDBF8C0107561E4FF801208131814C012A
:101A4000FFE58F1AFEEF9F0AF401408151811416C1
:101A500015060CF074C05C01FDE5AF1AFEEFBF0A7D
:101A6000F50140815181141615060CF068C012165C
:101A700013060CF04AC06C01F5E6CF1AFEEFDF0A40
:101A8000F60120813181121613060CF05BC07C0137
:101A9000FBE6EF1AFEEFFF0AF701208131811216F3
:101AA00013060CF04FC0CE0101960E942F5ECE01AE
:101AB00001960E9475520E940F13F401808191815A
:101AC000019797FD36C091838083F50180819181D4
:101AD000019797FD31C091838083F80180819181C6
:101AE000019797FDADC091838083F601808191813C
:101AF000019797FDA8C091838083F7018081918130
:101B0000019797FDA3C091838083C45ADE4F0FB61F
:101B1000F894DEBF0FBECDBFDF91CF911F910F9123
:101B2000FF90EF90DF90CF90BF90AF909F908F90FD
:101B3000089511821082C9CF11821082CECF121661
:101B400013061CF76C01F5E6CF1AFEEFDF0AF6016B
:101B50002081318112161306C4F67C01FBE6EF1AD0
:101B6000FEEFFF0AF70180819181181619066CF6C5
:101B7000CE0101960E945B52C75CDE4F198218822B
:101B8000C953D140C55CDE4F19821882CB53D14076
:101B9000C35CDE4F19821882CD53D140C15CDE4F49
:101BA00019821882CF53D140CF5BDE4F1882198241
:101BB0001A821B82C154D140CB5BDE4F188219823E
:101BC0001A821B82C554D140C75BDE4F188219822E
:101BD0001A821B82C954D140C35BDE4F188219821E
:101BE0001A821B82CD54D14084E5CF5ADE4F8883C0
:101BF000C155D140CE5ADE4F19821882C255D1400C
:101C0000CC5ADE4F19821882C455D140CA5ADE4FD1
:101C100019821882C655D140C85ADE4F18821982DF
:101C20001A821B82C855D140C45ADE4F1882CC5547
:101C3000D140CE0101960E9475520E940F134DCFE4
:101C40001182108252CF1182108257CF11821082DE
:101C50005CCF9B01275A3F4F233B310590F4FC0199
:101C600073AF62AFE156FE4F808191810696873057
:101C7000910524F49183808381E0089586E090E0CB
:101C8000F9CF80E00895EF92FF920F931F93CF93C7
:101C9000DF93CDB7DEB7C853D1400FB6F894DEBF9F
:101CA0000FBECDBF7C01CE0101960E945B52870121
:101CB00001561E4FF8018081918118161906ACF467
:101CC000F70162AD73ADCE0101960E94D561CE01E0
:101CD00001960E9475520E940F13F8018081918134
:101CE000019797FD10C091838083C85CDE4F0FB6CB
:101CF000F894DEBF0FBECDBFDF91CF911F910F9142
:101D0000FF90EF90089511821082EFCF0C94430E54
:101D1000CF93DF93EC010E944008CE010E9423097B
:101D2000CE010E94C40ACE010E94660BCE010E9421
:101D3000C10BCE010E94250CCE010E94040DCE01E4
:101D40000E94430ECE010E948F0CCE01DF91CF91F5
:101D50000C94BA082F923F924F925F926F927F92AB
:101D60008F929F92AF92BF92CF92DF92EF92FF92AB
:101D70000F931F93CF93DF93CDB7DEB762970FB664
:101D8000F894DEBF0FBECDBF9D878C87DC01149613
:101D90008C911497E82FF0E0FF83EE8315960C9159
:101DA000159716968C91102F082FB80190E080E0BF
:101DB0000E94E8D820E030E04AE754E40E94FED7D1
:101DC0000E94ACD8688779878A879B87C80168EEAC
:101DD00073E00E947AD68C01AC85BD851396BC91C8
:101DE000B983B4FDA6C1EEE4ED832E813F81B90134
:101DF000330F880B990B0E94EAD86B017C01A885F0
:101E0000B985BD01BB0F880B990B0E94EAD84B0125
:101E10005C01B801110F880B990B0E94EAD82B01C5
:101E20003C0120E030E04AE754E40E94FED7A501DF
:101E300094010E9476D720E030E040E752E40E940F
:101E4000FED7A70196010E9476D79F772FE632E151
:101E500043E85AE30E94F9D787FD52C100911B0C59
:101E600010911C0C0115110509F460C020E030E050
:101E700040E752E4C301B2010E94FED7A5019401DC
:101E80000E9476D720E030E040E752E40E94FED77F
:101E9000A70196010E9476D76B017C0120E030E01B
:101EA00040E752E46091A20A7091A30A8091A40ACB
:101EB0009091A50A0E94FED74B015C016091A00A97
:101EC0007091A10A072E000C880B990B0E94EAD88A
:101ED0009B01AC01C501B4010E9476D720E030E03F
:101EE00040E752E40E94FED74B015C0160919E0ADC
:101EF00070919F0A072E000C880B990B0E94EAD85C
:101F00009B01AC01C501B4010E9476D79B01AC01D5
:101F1000C701B6010E9475D79F7720E030E040E00E
:101F20005FE30E9440DA18160CF4EAC0EC85FD85E8
:101F30008781282E312C908581859C013A8B298BB5
:101F4000B90190E080E00E94E8D820E030E04AE764
:101F500054E40E94FED70E94ACD86C877D878E87A0
:101F60009F8789899A8968EE73E00E947AD63981C1
:101F700035FDE2C0A7E5A88BBC01990F880B990B32
:101F80000E94EAD869837A838B839C83EC85FD85E4
:101F9000BF01FF0F880B990B0E94EAD86B017C01EF
:101FA00020E030E04AE754E469817A818B819C81AA
:101FB0000E94FED79B01AC01C701B6010E9476D7F3
:101FC00020E030E040E752E40E94FED76B017C0144
:101FD000B101032C000C880B990B0E94EAD89B01DD
:101FE000AC01C701B6010E9476D76B017C019F77D7
:101FF0002FE632E143E85AE30E94F9D787FD80C01B
:10200000012B09F447C020E030E040E752E4609142
:10201000AF0A7091B00A8091B10A9091B20A0E9401
:10202000FED74B015C016091AD0A7091AE0A072E9C
:10203000000C880B990B0E94EAD89B01AC01C501EA
:10204000B4010E9476D720E030E040E752E40E94DD
:10205000FED74B015C016091AB0A7091AC0A072E70
:10206000000C880B990B0E94EAD89B01AC01C501BA
:10207000B4010E9476D79B01AC01C701B6010E9452
:1020800075D79F7720E030E040E05FE30E9440DAC0
:102090001816B4F12E813F8130939F0A20939E0A37
:1020A000888599859093A10A8093A00A4092A20AFC
:1020B0005092A30A6092A40A7092A50A9D819093FF
:1020C000A60A3092AC0A2092AB0AAC85BD85B093CB
:1020D000AE0AA093AD0A89819A81AB81BC818093BD
:1020E000AF0A9093B00AA093B10AB093B20A98894C
:1020F0009093B30A86E090E090931C0C80931B0CA5
:1021000062960FB6F894DEBF0FBECDBFDF91CF91C0
:102110001F910F91FF90EF90DF90CF90BF90AF9005
:102120009F908F907F906F905F904F903F902F90F7
:102130000895F3E5FD8359CEB5E4B88B1DCFCF9359
:10214000DF93EC0161E088810E949BCF1B861A8699
:102150001C861D861E861F8660E08881DF91CF91D8
:102160000C94D7CFCF92DF92EF92FF920F931F93F1
:10217000CF93DF93EC010E9484CE2A853B852130EA
:10218000310529F50C851D852E853F856B017C0168
:10219000C01AD10AE20AF30A0A811B812C813D810F
:1021A000C016D106E206F30688F11B861A866C87F4
:1021B0007D878E879F8760E08881DF91CF911F9117
:1021C0000F91FF90EF90DF90CF900C94D7CF232BFF
:1021D000E9F40C851D852E853F856B017C01C01AB5
:1021E000D10AE20AF30A0E811F8128853985C016BB
:1021F000D106E206F30650F021E030E03B872A8763
:102200006C877D878E879F8761E0D6CFDF91CF91E6
:102210001F910F91FF90EF90DF90CF9008950F9353
:102220001F93CF93DF93CDB7DEB7CB54D1400FB61A
:10223000F894DEBF0FBECDBF86EC9DE00E94B210C9
:102240008091700A9091710A8A30910528F4019664
:102250009093710A8093700A88E69DE00E948169DC
:102260008C0188E69DE00E947769B8010E94A5680C
:10227000FC0110810E949F68412FBC01CE01019694
:102280000E943D6562E772E08EE392E10E94CEC952
:10229000CE0101960E947552BC018EE392E10E942C
:1022A000F3C9C55BDE4F0FB6F894DEBF0FBECDBFDE
:1022B000DF91CF911F910F9108951F93CF93DF93DB
:1022C000182FC6E4D0E0612F8EE392E10E94D6C9B8
:1022D0002197C9F7612F8EE392E1DF91CF911F9192
:1022E0000C940ACA8DE30C945D110F931F93CF9346
:1022F000DF9300D01F921F92CDB7DEB78C0145E06F
:1023000050E0CE0101960E94F1DDF8018081843217
:1023100011F0813269F4F80193818981981308C022
:1023200094818A81981304C081E025819B812913BF
:1023300080E00F900F900F900F900F90DF91CF9152
:102340001F910F910895FC01DB018081843211F00F
:102350008132D9F491818C91981317C09281119692
:102360008C911197981311C0938112968C911297AA
:1023700098130BC0948113968C911397981305C0F2
:1023800081E0258114969C91291380E008954F9255
:102390005F926F927F928F929F92AF92BF92CF92F5
:1023A000DF92EF92FF920F931F93CF93DF93CDB7FE
:1023B000DEB7C054D1090FB6F894DEBF0FBECDBF53
:1023C0006B017C0129013A018091770A8F938091FA
:1023D000760A8F931F930F9320E034E244E759E489
:1023E000C301B2010E9445DA0E94ACD820E4822EDB
:1023F00022E4922E2FE0A22EB12CA50194010E947E
:10240000C4D69F938F937F936F93C301B2010E94B1
:10241000ACD87F936F9320E034E244E759E4C701DE
:10242000B6010E9445DA0E94ACD8A50194010E9431
:10243000C4D69F938F937F936F93C701B6010E9479
:10244000ACD87F936F938BE792E09F938F938E012D
:102450000F5F1F4F1F930F930E9422DEB8018EE380
:1024600092E10E94F3C90FB6F894DEBF0FBECDBF54
:10247000C05CDF4F0FB6F894DEBF0FBECDBFDF915B
:10248000CF911F910F91FF90EF90DF90CF90BF9071
:10249000AF909F908F907F906F905F904F90089536
:1024A00061EF76E08EE392E10C94E1C90F931F9304
:1024B000CF93DF93CDB7DEB7C054D1090FB6F894F0
:1024C000DEBF0FBECDBF9F938F938EE992E09F93A7
:1024D0008F938E010F5F1F4F1F930F930E9422DE79
:1024E000B8018EE392E10E94F3C90F900F900F9014
:1024F0000F900F900F90C05CDF4F0FB6F894DEBFC7
:102500000FBECDBFDF91CF911F910F910895CF9353
:10251000DF932091140E211110C0EC0162EE76E0E1
:102520008EE392E10E94AAC94AE050E0BE018EE328
:1025300092E1DF91CF910C94B7CADF91CF910895CA
:10254000CF93DF932091140E211110C0EC0164EDA4
:1025500076E08EE392E10E94AAC94AE050E0BE0113
:102560008EE392E1DF91CF910C94B7CADF91CF91C6
:1025700008958F929F92AF92BF92CF92DF92EF9287
:10258000FF920F931F93CF93DF93E091140EE1110D
:1025900039C079014A015B01EC0168EC76E08EE319
:1025A00092E10E94AAC94AE050E0BE018EE392E1A6
:1025B0000E94B0CA62E078E08EE392E10E94CEC948
:1025C0002AE030E0B501A4018EE392E10E94DBCA6B
:1025D00062E078E08EE392E10E94CEC92AE030E02A
:1025E000B701A8018EE392E1DF91CF911F910F9186
:1025F000FF90EF90DF90CF90BF90AF909F908F9023
:102600000C9407CBDF91CF911F910F91FF90EF902A
:10261000DF90CF90BF90AF909F908F900895CF9311
:10262000DF93EC01FC0101900020E9F73197E81BF2
:10263000F90B8881843221F0813211F0803409F560
:102640003797F8F09091140E91111BC09091FA0DEC
:10265000803449F49923A9F0BE018BED92E1DF911A
:10266000CF910C94F3C9992329F0BE018BED92E12F
:102670000E94CEC9BE018EE392E1DF91CF910C940E
:10268000CEC9DF91CF910895CF93DF932091140E9F
:10269000211122C0EC016DEB76E08EE392E10E9405
:1026A000AAC96CEF7DE08EE392E10E94CEC96EEA8A
:1026B00076E08EE392E10E94AAC94AE050E0BE01B2
:1026C0008EE392E10E9401CB67EA76E08EE392E12D
:1026D000DF91CF910C94E1C9DF91CF910895809162
:1026E000140E81110CC067E976E08EE392E10E943E
:1026F000AAC96CEF7DE08EE392E10C94F3C90895D2
:102700008F92AF92BF92CF92EF92FF920F931F934F
:10271000CF931F921F9288248A94AA24AA94BA2C39
:10272000CC24CA949EEAE92E92E0F92E04EB12E042
:1027300026EC32E044E650E067ED72E08091A30DB4
:102740009091A40D0E94D591B12CA12C24E0C22E11
:1027500038EFE32E37E0F32E0BE422E849E656EBA0
:1027600061E070E08091A30D9091A40D0E942790EC
:1027700046E161E070E08091A30D9091A40D0E946C
:102780008D9263E776E08EE392E10E94E1C967E013
:102790007BE38091A30D9091A40D0E94919A80916A
:1027A000A30D9091A40D0E9452A6C82F67E676E073
:1027B0008EE392E10E94AAC90F900F90CC23D1F032
:1027C00062E676E08EE392E10E94E1C962ED72E09A
:1027D0008CEF9DE00E94CBDD81E08093FB0D8C2F80
:1027E000CF911F910F91FF90EF90CF90BF90AF903E
:1027F0008F9008956DE576E08EE392E10E94E1C945
:102800001092FB0DECCFCF93C62FBC018EE392E16B
:102810000E94CEC94AE050E06C2F8EE392E10E9404
:10282000E8CAC3FF07C063E576E08EE392E10E9449
:10283000AAC9C77FC2FF07C069E476E08EE392E1D0
:102840000E94AAC9CB7FC1FF07C06FE376E08EE389
:1028500092E10E94AAC9CD7FC0FF07C066E376E07F
:102860008EE392E10E94AAC9CE7FCC2331F06DE2C3
:1028700076E08EE392E10E94AAC961EF75E08EE3F3
:1028800092E1CF910C94F3C9CF93DF931F921F92E3
:10289000CDB7DEB72091861330918713211531050E
:1028A00011F42EE933E1CE010196821B930B0F90B8
:1028B0000F90DF91CF910895CF93DF930FB6F894E7
:1028C000A8958091600088618093600010926000FC
:1028D0000FBE87EF84BF88E19EE00FB6F894A895FD
:1028E000809360000FBE909360000E94D7476EED0A
:1028F00072E08CEF9DE00E94EADD60EE72E08CEF0A
:102900009DE00E94CBDD61EB72E08CEF9DE00E94C8
:10291000CBDD61E08DE00E949BCF61E087E00E940B
:102920009BCF61E08DE00E94D7CF86ED9DE00E94B5
:102930009F1086EC9DE00E949F1086EB9DE00E9418
:102940009F1086EA9DE00E949F1026E040E052EC36
:1029500061E070E08EE392E10E94E8C740EC52E152
:1029600060E070E08DEF9FE00E94416D45E050E037
:1029700060E070E08DEF9FE00E9411CC40EC52E1EE
:1029800060E070E08AE191E10E94416D45E050E035
:1029900060E070E08AE191E10E9411CC26E040EC19
:1029A00052E160E070E08BED92E10E94E8C761EADD
:1029B00071E080E090E00E94D66964B782EE92E018
:1029C0000E940314A89585EA9DE00E941FC30E94FF
:1029D00080138093A20DA895C6E0D0E00E946F13EB
:1029E00064E670E080E090E00E94B5CE2197B1F7F8
:1029F000A895A89581E090E09093E10D8093E00D7B
:102A000061E08091D60D0E94D7CF8091820A90918B
:102A1000830A9C012F5F3F4F3093830A2093820AE1
:102A20000E94441384E190E09093850A8093840A85
:102A300062E276E08EE392E10E94AAC90E94441409
:102A40004AE050E0BC018EE392E10E94B0CA6FE11F
:102A500076E08EE392E1DF91CF910C94E1C9FC0125
:102A6000DC010D900020E9F71197A81BB90B1D9709
:102A7000D0F180818132A9F581818134A1F58281F3
:102A8000893489F58381863571F58481843459F5DB
:102A900085818D7F8D3439F586818C3221F5878152
:102AA000082E000C990BC0970A97E8F480858C32A9
:102AB000D1F48185082E000C990BC0970A9798F4E1
:102AC00082858C3281F483858C3231F0082E000CA3
:102AD000990BC0970A9738F4BF018EE392E10C94EA
:102AE000F3C98432C9F308958F929F92AF92BF9237
:102AF000CF92DF92EF92FF920F931F93CF93DF93CA
:102B0000EC014A015B016901E881F9810190F081E2
:102B1000E02D19958B829C82AD82BE82DA86C986B1
:102B2000DE011B96F801CF01801B910B8E159F05CE
:102B300064F0FE01EE0DFF1DCF018C1B9D0B8C156B
:102B40009D0534F413863196F7CF81918D93EBCFA9
:102B5000DF91CF911F910F91FF90EF90DF90CF9079
:102B6000BF90AF909F908F900895CF92DF92EF9299
:102B7000FF920F931F93CF93DF93CDB7DEB7C95F5B
:102B8000D1090FB6F894DEBF0FBECDBF6C01F12C9A
:102B9000E12C00E010E0980146E06FE0CE010196E4
:102BA0000E94717F8AE0E1E2F2E0DE01A051BF4FB6
:102BB00001900D928A95E1F7B601DD0C880B990B17
:102BC0000E94EAD82BED3FE049E450E40E9445DA48
:102BD0000E94ACD8AB01161617060CF04AC04F5F26
:102BE0005F4F942F342F32953F702FE0231B842F9B
:102BF0008F70843008F043C0845FCA50DF4F9883E1
:102C0000C65FD04090E1299F90011124820F932F3D
:102C1000911DC750DF4F8883C95FD0408AE0E82EFE
:102C2000F12C8E0100511F4F2AE030E040E05FEEB2
:102C300061E070E0CE0101960E94741550E040E022
:102C4000BE016F5F7F4F8091A30D9091A40D0E94F4
:102C5000549EC750DF4F0FB6F894DEBF0FBECDBFF6
:102C6000DF91CF911F910F91FF90EF90DF90CF9068
:102C70000895672B09F4B5CF41505109B2CF883080
:102C800010F48C5FBACF8C3010F48450B6CF8C50D7
:102C9000B4CFBF92CF92DF92EF92FF920F931F9328
:102CA000CF93DF93CDB7DEB7C75FD1090FB6F894E6
:102CB000DEBF0FBECDBFB82EC62ED42EF12CE12C18
:102CC00000E010E0980146E06FE0CE0101960E941E
:102CD000717F88E0EBE2F2E0DE01A051BF4F01908E
:102CE0000D928A95E1F7CB50DF4FB882C55FD04097
:102CF000CA50DF4FC882C65FD040C950DF4FD8826C
:102D0000C75FD04088E0E82EF12C8E0100511F4FA4
:102D100026E130E040E05FEE61E070E0CE01019638
:102D20000E94741550E040E0BE016F5F7F4F8091BC
:102D3000A30D9091A40D0E94549EC950DF4F0FB671
:102D4000F894DEBF0FBECDBFDF91CF911F910F91E1
:102D5000FF90EF90DF90CF90BF900895DF92EF92B9
:102D6000FF920F931F93CF93DF93CDB7DEB7C75F6B
:102D7000D1090FB6F894DEBF0FBECDBFD82EF12C0F
:102D8000E12C00E010E0980146E06FE0CE010196F2
:102D90000E94717F88E0E3E3F2E0DE01A051BF4FC3
:102DA00001900D928A95E1F7CD50DF4FD882C35F35
:102DB000D04088E0E82EF12C8E0100511F4F28E012
:102DC00030E048E05FEF60E070E0CE0101960E94E5
:102DD000741550E040E0BE016F5F7F4F8091A30DFE
:102DE0009091A40D0E94549EC950DF4F0FB6F894E5
:102DF000DEBF0FBECDBFDF91CF911F910F91FF902E
:102E0000EF90DF90089581E00C94AE1680E00C9472
:102E1000AE1681E090E09093F50D8093F40D4DEFA8
:102E200062E081E40C94491682E090E09093F50D05
:102E30008093F40D4EEF61E081E40C94491682E03A
:102E400090E09093F50D8093F40D4CED63E281E4F6
:102E50000C94491682E090E09093F50D8093F40D68
:102E60004CEF63E081E40C94491647EF68E081E49D
:102E70000C94491649EF66E081E40C94491648EF3A
:102E800067E081E40C9449164AEF65E081E40C9414
:102E900049164DED62E281E40C9449164EED61E273
:102EA00081E40C94491683E090E09093F50D8093B3
:102EB000F40D4EEE61E181EB0C944916CF939093A3
:102EC0007D0A80937C0ABC01990F880B990B0E94A4
:102ED000EAD8C1E02091780A3091790A40917A0AC3
:102EE00050917B0A0E9440DA18160CF0C0E0C093A3
:102EF0000C0280E0CF91089590E080E00C945E1782
:102F00008DED9FEF0C945E1783E290E00C945E17BA
:102F1000FC01DC010D900020E9F71197A81BB90B0B
:102F20001A9708F186818C32F1F481858A32D9F4BE
:102F30008781082E000C990BC0974AE0489F9001AA
:102F4000499F300D11248085082E000C990BC097E5
:102F5000280F391FC90188972550310927343105B9
:102F600010F40C945E1780E008950F931F93CF9395
:102F7000DF93683071050CF4E6C08B01EC018B81A6
:102F8000833509F083C06AEE72E0CE010E9400DE54
:102F9000892B31F0DF91CF911F910F910C94141771
:102FA00060E073E0CE010E9400DE892B31F0DF91FA
:102FB000CF911F910F910C941F1766E173E0CE0122
:102FC0000E9400DE892B31F0DF91CF911F910F918C
:102FD0000C942A176CE273E0CE010E9400DE892B6C
:102FE00031F0DF91CF911F910F910C94091762E49A
:102FF00073E0CE010E9400DE892B31F0DF91CF918A
:103000001F910F910C94351768E573E0CE010E9473
:1030100000DE892B31F0DF91CF911F910F910C943D
:103020003A176EE673E0CE010E9400DE892B31F084
:10303000DF91CF911F910F910C943F1764E873E0DB
:10304000CE010E9400DE892B31F0DF91CF911F91DC
:103050000F910C9444176AE973E0CE010E9400DEE0
:10306000892B31F0DF91CF911F910F910C9449176B
:1030700060EB73E0CE010E9400DE892B09F463C08F
:10308000DF91CF911F910F910C944E17803509F06D
:1030900042C066EC73E0CE010E9400DE892B31F065
:1030A000DF91CF911F910F910C9453176CED73E04A
:1030B000CE010E9400DE892B31F0DF91CF911F916C
:1030C0000F910C947C1762EF73E0CE010E9400DE3A
:1030D000892B31F0DF91CF911F910F910C948017C4
:1030E00068E074E0CE010E9400DE892B31F0DF91B0
:1030F000CF911F910F910C9484176EE174E0CE0173
:103100000E9400DE892BF9F0CE01DF91CF911F9153
:103110000F910C94881769EE75E08EE392E10E949E
:10312000AAC94AE050E0B8018EE392E10E94B0CA19
:1031300067EE75E08EE392E10E94AAC9BE018EE3BC
:1031400092E10E94F3C980E0DF91CF911F910F912E
:103150000895CF93DF9368307105ECF0EC0166E2DF
:1031600074E00E9400DE892BB1F46CE374E0CE01C0
:103170000E9400DE892B21F0DF91CF910C94031780
:103180006EE574E0CE010E9400DE892B21F0DF9114
:10319000CF910C94061780E0DF91CF910895FC0148
:1031A000DC010D900020E9F71197A81BB90B1897C7
:1031B00098F08081843281F48181833569F4828141
:1031C000843551F48381833549F48481853421F435
:1031D00081E09581913459F080E009C08035E1F7B4
:1031E00084818735C9F781E095819235A9F70895E3
:1031F0000F931F93CF93DF93CDB7DEB7C25AD24060
:103200000FB6F894DEBF0FBECDBF8C01CE0185593D
:103210009E4F0E945B5263EE75E0C8010E947511DB
:10322000882309F4E6C0CE0101960E945B52C75C78
:10323000DE4F1882C953D140C65CDE4F1882CA5394
:10324000D140C55CDE4F188219821A821B82CB5393
:10325000D140C15CDE4F19821882CF53D1408EE439
:10326000CF5BDE4F8883C154D140CE5BDE4F1882E6
:10327000C254D140CD5BDE4F1882C354D140CC5BE9
:10328000DE4F188219821A821B82C454D14084E511
:10329000C85BDE4F8883C854D140FE01E75BFE4F18
:1032A0001192119292E1DF011D929A95E9F7C35AAA
:1032B000DE4F188219821A821B82CD55D140CF5918
:1032C000DE4F8883C156D140CE59DE4F1882198215
:1032D0001A821B82C256D140CA59DE4F8883C65615
:1032E000D140C959DE4F1882C756D140B801CE012E
:1032F00001960E94EF6180910D0C90910E0C892B2C
:1033000009F05CC080919A0A90919B0AA0919C0A56
:10331000B0919D0A8093050C9093060CA093070C26
:10332000B093080C8091A70A9091A80AA091A90ACD
:10333000B091AA0A8093090C90930A0CA0930B0CED
:10334000B0930C0C61E774E08EE392E10E94CEC969
:103350000E94721161E774E08EE392E10E94CEC98F
:1033600064E774E08EE392E10E94F3C96EE774E0D3
:103370008EE392E10E94CEC94091050C5091060C5B
:103380006091070C7091080C22E030E08EE392E12E
:103390000E94FFCB63E974E08EE392E10E94CEC904
:1033A0004091090C50910A0C60910B0C70910C0C1F
:1033B00022E030E08EE392E10E94FFCB80910D0C81
:1033C00090910E0C07968830910584F490930E0C22
:1033D00080930D0CCE55DD4F0FB6F894DEBF0FBEB7
:1033E000CDBFDF91CF911F910F91089587E090E0BD
:1033F000EDCF6FED75E0C8010E947511882309F4C7
:1034000065C0CE0101960E945B52C75CDE4F1982F7
:103410001882C953D140C55CDE4F19821882CB5344
:10342000D140C35CDE4F19821882CD53D140C15CBC
:10343000DE4F188219821A821B82CF53D140CD5B96
:10344000DE4F188219821A821B82C354D140C95B95
:10345000DE4F188219821A821B82C754D14084E53C
:10346000C55BDE4F8883CB54D140C45BDE4F1882EE
:1034700019821A821B82CC54D1408DE4C05BDE4F8E
:103480008883C055D140CF5ADE4F188219821A82E4
:103490001B82C155D1408EE4CB5ADE4F8883C5557F
:1034A000D140FE01EA5AFE4F1192119282E1DF01F2
:1034B0001D928A95E9F7C659DE4F1882CA56D14047
:1034C000B801CE0101960E94145484CF6BED75E0D3
:1034D000C8010E947511811194CF67ED75E0C80194
:1034E0000E9475118823D1F1CE0101960E945B5292
:1034F000C75CDE4F188219821A821B82C953D140E1
:1035000084E5C35CDE4F8883CD53D140C25CDE4F7F
:10351000188219821A821B82CE53D1408DE4CE5B71
:10352000DE4F8883C254D140FE01ED5BFE4F119205
:10353000119282E1DF01982F1D929A95E9F7FE0121
:10354000E95AFE4F11921192DF011D928A95E9F717
:10355000B801CE0101960E943F533CCF63ED75E068
:10356000C8010E947511882309F460C0CE0101963C
:103570000E945B52C75CDE4F19821882C953D1404A
:10358000C55CDE4F19821882CB53D140C35CDE4F3D
:1035900019821882CD53D140C15CDE4F1882198246
:1035A0001A821B82CF53D140CD5BDE4F1882198225
:1035B0001A821B82C354D14081E090E0C95BDE4F88
:1035C00099838883C754D140C75BDE4F1982188224
:1035D000C954D140C55BDE4F188219821A821B8202
:1035E000CB54D140C15BDE4F188219821A821B82F4
:1035F000CF54D140CD5ADE4F188219821A821B82D5
:10360000C355D140C95ADE4F188219821A821B82D3
:10361000C755D140C55ADE4F19821882CB55D140CB
:10362000B801CE0101960E940858D4CE6FEC75E027
:10363000C8010E947511882361F1CE0101960E9494
:103640005B52C75CDE4F19821882C953D140C55CFA
:10365000DE4F19821882CB53D140C35CDE4F1982F2
:103660001882CD53D140C15CDE4F188219821A8274
:103670001B82CF53D140CD5BDE4F188219821A8254
:103680001B82C354D140B801CE0101960E94115B48
:10369000A1CE6BEC75E0C8010E94751181119ACE24
:1036A00067EC75E0C8010E947511882309F467C0B2
:1036B000CE0101960E945B52C75CDE4F19821882D0
:1036C000C953D140C55CDE4F19821882CB53D1401B
:1036D000C35CDE4F19821882CD53D140C15CDE4FEE
:1036E00019821882CF53D140CF5BDE4F18821982E6
:1036F0001A821B82C154D140CB5BDE4F18821982E3
:103700001A821B82C554D140C75BDE4F18821982D2
:103710001A821B82C954D140C35BDE4F18821982C2
:103720001A821B82CD54D14084E5CF5ADE4F888364
:10373000C155D140CE5ADE4F19821882C255D140B0
:10374000CC5ADE4F19821882C455D140CA5ADE4F76
:1037500019821882C655D140C85ADE4F1882198284
:103760001A821B82C855D140C45ADE4F1882CC55EC
:10377000D140B801CE0101960E94EC5B2BCE63ECE8
:1037800075E0C8010E947511882309F423CECE018B
:1037900001960E945B52C75CDE4F1882C953D1402C
:1037A000C65CDE4F1882CA53D140C55CDE4F18821A
:1037B00019821A821B82CB53D140C15CDE4F198221
:1037C0001882CF53D1408EE4CF5BDE4F8883C15443
:1037D000D140CE5BDE4F1882C254D140CD5BDE4F6C
:1037E0001882C354D140B801CE0101960E942C64C6
:1037F000F1CDCF92DF92EF92FF920F931F938B0147
:103800009C011D7F0115184E2105310509F4E2C008
:103810008B019C011E7F01154EEE14072105310519
:1038200009F4D8C0663B4EEF74078105910509F491
:10383000D1C06B017C01E894E0F84AE1C4164FEF77
:10384000D406E104F10409F4C5C06F314FEF7407E9
:103850008105910509F4BEC063364FEF74078105F9
:10386000910509F4B7C065364FEF740781059105DE
:1038700009F4B0C06F3F4FEF74078105910509F45B
:10388000A9C064374FEF74078105910509F4A2C000
:1038900061154EEE740741E08407910509F49AC062
:1038A000613140EF740741E08407910509F492C04B
:1038B0006B017C01E894C1F844E1C41640EFD406E2
:1038C00041E0E406F10409F485C0633145EF740773
:1038D00041E08407910509F47DC0643148EF740725
:1038E00041E08407910509F475C06B3049EF740716
:1038F00041E08407910509F46DC06B017C0143E050
:10390000C41A4AEFD40A41E0E40AF10842E0C416BE
:10391000D104E104F10408F45DC006301A4F2140DF
:10392000310509F457C06B302AEF720721E0820796
:10393000910509F44FC08B019C0106501D4F214099
:103940003109033011052105310508F443C06436FF
:103950004FEF740741E084079105E1F161152FEF06
:10396000720781059105B1F161324FEF740781054E
:10397000910581F1653029EF720721E082079105F9
:1039800049F166304FEF740741E08407910511F16A
:103990006D302FEF720721E082079105D9F0603278
:1039A0004FEF740741E084079105A1F06F7E6656E2
:1039B0007F4F8140910921E06230710581059105B9
:1039C00008F020E0822F1F910F91FF90EF90DF9081
:1039D000CF90089521E0F6CF6F342FEF7207810565
:1039E000910509F458C068363FEF730781059105CA
:1039F00009F451C061152DEE720721E0820791058F
:103A000009F449C0603130EF730731E08307910555
:103A100009F441C0653021EF720721E0820791056A
:103A2000D1F1633131EF730731E08307910599F1EB
:103A3000693121EF720721E08207910561F163305E
:103A400035EF730731E08307910529F1693028EFDD
:103A5000720721E082079105F1F0633039EF7307B7
:103A600031E083079105B9F061302BEF720721E057
:103A70008207910581F021E064363FEF730731E062
:103A80008307910531F061317E4F8140910509F046
:103A900020E0822F089521E0FCCFEF92FF920F9358
:103AA0001F93CF93DF93CDB7DEB7DA950FB6F894B7
:103AB000DEBF0FBECDBF7C010E9484CEAB01BC0136
:103AC00000E011E09E012F5F3F4FC7010E94C1B38C
:103AD0008C01089738F0BE016F5F7F4F8EE392E153
:103AE0000E94F3C9C801D3950FB6F894DEBF0FBE8C
:103AF000CDBFDF91CF911F910F91FF90EF9008956F
:103B0000CF92DF92EF92FF922091400A3091410ACA
:103B1000E2E4FAE050E040E04217530764F4C19059
:103B2000D190E190F190C616D706E806F90649F063
:103B30004F5F5F4FF1CF80E0FF90EF90DF90CF902D
:103B4000089581E0F9CFCF92DF92EF92FF926B015F
:103B50007C010E94801D81111EC02091400A30917D
:103B6000410A2930310594F4F901EE0FFF1FEE0FE1
:103B7000FF1FEE5BF54FC082D182E282F3822F5F9E
:103B80003F4F3093410A2093400A81E0FF90EF902D
:103B9000DF90CF90089580E0F9CF0F931F93CF93DC
:103BA000DF9363E075E08EE392E10E94AAC9609121
:103BB000400A7091410A4AE050E08EE392E10E948F
:103BC000B0CA6FEF74E08EE392E10E94AAC902E4EA
:103BD0001AE0D0E0C0E08091400A9091410AC817F5
:103BE000D907DCF4F80141915191619171918F01F4
:103BF0002AE030E08EE392E10E94DBCA21968091B8
:103C0000400A9091410AC817D90729F36CEF74E074
:103C10008EE392E10E94AAC9DECF6DEB79E08EE3DC
:103C200092E1DF91CF911F910F910C94F3C9CF9343
:103C3000DF93CDB7DEB7C058D1090FB6F894DEBF19
:103C40000FBECDBF2091140E211110C040E850E0EE
:103C5000BE016F5F7F4F0E94F9C5882339F0BE0116
:103C60006F5F7F4F8EE392E10E94F3C9C058DF4F30
:103C70000FB6F894DEBF0FBECDBFDF91CF91089590
:103C80002F923F924F925F926F927F928F929F926C
:103C9000AF92BF92CF92DF92EF92FF920F931F935A
:103CA000CF93DF93CDB7DEB7C35ED4400FB6F894A1
:103CB000DEBF0FBECDBFCE51DB4F99838883C25E7E
:103CC000D440CE0101960E948C4E3E0126E2621A3B
:103CD0002BEF720A7F926F92CE0182549B4F9F937B
:103CE0008F9304969F938F932E013AE3431A3BEFF1
:103CF000530A5F924F921E0186E3281A8BEF380A0F
:103D00003F922F92FE01E252FB4F4F019E01215242
:103D10003B4F5901CE0180529B4F6C0170977F0140
:103D20008E010E521B4F29503109AE0144525B4F98
:103D3000BE016F517B4FCE51DB4F88819981C25EAE
:103D4000D4400E9442780FB6F894DEBF0FBECDBFBC
:103D5000882309F488C1F3017080CA52DB4F68815F
:103D600079818A819B81C65DD4400E94801D882311
:103D700009F4D9C069EA74E08EE392E10E94F3C9C4
:103D800063E375E08EE392E10E94CEC9CA52DB4F35
:103D9000488159816A817B81C65DD4402AE030E048
:103DA0008EE392E10E9407CB6EE375E08EE392E131
:103DB0000E94CEC920E030E543EC57E4C253DB4F0C
:103DC000688179818A819B81CE5CD4400E9445DAEA
:103DD000AB01BC0122E030E08EE392E10E94FDCB1A
:103DE00061EF75E08EE392E10E94CEC920E03CE7EE
:103DF00042E159E4C253DB4F688179818A819B811A
:103E0000CE5CD4400E9445DA20E030E040E05FE341
:103E10000E9476D70E94ACD8AB01BC012AE030E00A
:103E20008EE392E10E94C9CA6CE475E08EE392E1F0
:103E30000E94CEC920E030E543EC57E4CE52DB4F80
:103E4000688179818A819B81C25DD4400E9445DA74
:103E5000AB01BC0122E030E08EE392E10E94FDCB99
:103E600061EF75E08EE392E10E94CEC920E03CE76D
:103E700042E159E4CE52DB4F688179818A819B818E
:103E8000C25DD4400E9445DA20E030E040E05FE3CC
:103E90000E9476D70E94ACD8AB01BC012AE030E08A
:103EA0008EE392E10E94C9CA69E575E08EE392E172
:103EB0000E94CEC920EE3EE245E652E4F101608167
:103EC0007181828193810E9445DAAB01BC0122E0BD
:103ED00030E08EE392E10E94FFCB61E675E08EE375
:103EE00092E10E94CEC925EE3FEC48EF5FE3F2017C
:103EF00060817181828193810E9445DAAB01BC01AE
:103F000022E030E08EE392E10E94FFCB69E675E0AB
:103F10008EE392E10E94CEC94AE050E0672D8EE325
:103F200092E10E94EFCAC253DB4F88809980AA8039
:103F3000BB80CE5CD440CE52DB4FC880D980EA80B3
:103F4000FB80C25DD440CA52DB4F088119812A81AF
:103F50003B81C65DD4407F92CF53DB4F8881C15CEB
:103F6000D4408F93C054DB4F8881C05CD4408F9382
:103F7000C154DB4F8881CF5BD4408F93C254DB4F59
:103F80008881CE5BD4408F93CB53DB4F8881C55C57
:103F9000D4408F93CC53DB4F8881C45CD4408F9343
:103FA000CD53DB4F8881C35CD4408F93CE53DB4F1E
:103FB0008881C25CD4408F93C753DB4F8881C95C32
:103FC000D4408F93C853DB4F8881C85CD4408F9313
:103FD000C953DB4F8881C75CD4408F93CA53DB4FF2
:103FE0008881C65CD4408F93C353DB4F8881CD5CFE
:103FF000D4408F93C453DB4F8881CC5CD4408F93E3
:10400000C553DB4F8881CB5CD4408F93C653DB4FC5
:104010008881CA5CD4408F93C252DB4F8881CE5DC9
:10402000D4408F93C152DB4F8881CF5DD4408F93B2
:10403000C052DB4F8881C05ED4408F93C452DB4FA7
:104040004881CC5DD44061E0CE0101960E94E847F2
:104050000FB6F894DEBF0FBECDBF882321F0CE018E
:1040600001960E94171ECD51DB4F0FB6F894DEBFAC
:104070000FBECDBFDF91CF911F910F91FF90EF90B9
:10408000DF90CF90BF90AF909F908F907F906F9078
:104090005F904F903F902F9008952F923F924F92B4
:1040A0005F926F927F928F929F92AF92BF92CF92C8
:1040B000DF92EF92FF920F931F93CF93DF93CDB7D1
:1040C000DEB7C85ED4400FB6F894DEBF0FBECDBFDA
:1040D000C951DB4F99838883C75ED440CE010196D6
:1040E0000E948C4E3E0124E2621A2BEF720A7F92EC
:1040F0006F921E013AE2231A3BEF330A3F922F924E
:10410000CE0183529B4FCB51DB4F99838883C55E91
:10411000D4409F938F932E0192E2491A9BEF590A44
:104120005F924F92CE0181529B4F9F938F93019646
:104130009F938F9308979F938F934A979F938F9303
:1041400004969F938F9304969F938F93FE01EF5154
:10415000FB4F4F019E012E513B4F59014D966C0173
:1041600077977F018E0102531B4F20513109AE0119
:1041700046525B4FBE016C517B4FC951DB4F88816A
:104180009981C75ED4400E9446790FB6F894DEBF8D
:104190000FBECDBF882309F4B7C0C653DB4F88805C
:1041A0009980AA80BB80CA5CD440C253DB4FC880D0
:1041B000D980EA80FB80CE5CD440CE52DB4F0881B0
:1041C00019812A813B81C25DD440F30180818F93A4
:1041D00081E0F10140815181452B09F480E08F930A
:1041E000C352DB4F8881CD5DD4408F93F201808133
:1041F0008F93C152DB4F8881CF5DD4408F93C052E3
:10420000DB4F8881C05ED4408F93C752DB4F8881DB
:10421000C95DD4408F93C852DB4F8881C85DD440BC
:104220008F93CF53DB4F8881C15CD4408F93C054B0
:10423000DB4F8881C05CD4408F93C154DB4F8881B1
:10424000CF5BD4408F93C254DB4F8881CE5BD44088
:104250008F93CB53DB4F8881C55CD4408F93CC5375
:10426000DB4F8881C45CD4408F93CD53DB4F888172
:10427000C35CD4408F93CE53DB4F8881C25CD44063
:104280008F93C753DB4F8881C95CD4408F93C85349
:10429000DB4F8881C85CD4408F93C953DB4F888142
:1042A000C75CD4408F93CA53DB4F8881C65CD4402F
:1042B0008F93CF51DB4F8881C15ED4408F93CE5115
:1042C000DB4F8881C25ED4408F93CD51DB4F888114
:1042D000C35ED4408F93C652DB4F4881CA5DD44041
:1042E000CC51DB4F6881C45ED440CE0101960E9460
:1042F000054C0FB6F894DEBF0FBECDBF882321F06A
:10430000CE0101960E94171EC851DB4F0FB6F894DC
:10431000DEBF0FBECDBFDF91CF911F910F91FF90F8
:10432000EF90DF90CF90BF90AF909F908F907F9055
:104330006F905F904F903F902F9008952F923F92F3
:104340004F925F926F927F928F929F92AF92BF92A5
:10435000CF92DF92EF92FF920F931F93CF93DF9351
:1043600000D000D0CDB7DEB7ECA9EB83FDA9FC836C
:10437000FC014380548065807680F1E14F16F8EFB0
:104380005F06F1E06F06710409F01AC115012601FC
:104390005701380189017A017E836D836C011A828D
:1043A0001982BE016F5F7F4F0E94B87F982F9F7365
:1043B000ED81FE819083829586958695837090E04D
:1043C000F701918380832FEF3FEFA901BE016F5F5B
:1043D0007F4FC6010E94DF88F8016083718382836A
:1043E000938318E2E12E1BE6F12E0EE61EEC9E01F1
:1043F0002F5F3F4F45E95FEB66ED73E3C6010E9417
:104400003E8AF50160837183828393839E012F5FCF
:104410003F4F45E95FEB66ED73E3C6010E943E8ABC
:10442000F3016083718382839383BE016F5F7F4F4B
:10443000C6010E94B87F982F9170F201908381FB92
:10444000992790F9F101908386958695F4018083F0
:104450009E012F5F3F4F4DEC5CEC6CEC7DE3C601A1
:104460000E94D787EC8DFD8D608371838283938357
:104470009E012F5F3F4F4DEC5CEC6CEC7DE3C60181
:104480000E94D787EE8DFF8D608371838283938333
:104490009E012F5F3F4F4DEC5CEC6CEC7DE3C60161
:1044A0000E94D787E8A1F9A16083718382839383F7
:1044B0009E012F5F3F4F4DEC5CEC6CEC7DE3C60141
:1044C0000E94D787EAA1FBA16083718382839383D3
:1044D000BE016F5F7F4FC6010E94B87F982F9F710A
:1044E000ECA1FDA1908385FB992790F9EEA1FFA196
:1044F000908386FB222720F9E8A5F9A52083881F51
:104500008827881FEAA5FBA58083BE016F5F7F4FC8
:10451000C6010E94B87F90E0959587958F70ECA5B5
:10452000FDA58083BE016F5F7F4FC6010E94B87FEB
:10453000EEA5FFA58083BE016F5F7F4FC6010E947D
:10454000B87F8F71E8A9F9A98083BE016F5F7F4FA3
:10455000C6010E94B87FBE016F5F7F4FC6010E94F7
:10456000B87FF6018185928529813A81821B930B60
:104570004B815C81841795070CF4AC019E012F5F81
:104580003F4F6AA97BA9C6010E94078081E0269659
:104590000FB6F894DEBF0FBECDBFDF91CF911F9154
:1045A0000F91FF90EF90DF90CF90BF90AF909F90D2
:1045B0008F907F906F905F904F903F902F900895D5
:1045C00080E0E5CF2F923F924F925F926F927F9261
:1045D0008F929F92AF92BF92CF92DF92EF92FF9213
:1045E0000F931F93CF93DF93CDB7DEB7CE51D54056
:1045F0000FB6F894DEBF0FBECDBFC35EDA4F99830E
:104600008883CD51D540CE0101960E948C4E1F92D9
:1046100084E28F933E0122E4621A2BEF720A7F92AA
:104620006F92CE019B5FC55FDA4F99838883CB5031
:10463000D5409F938F93FE01EF5FFA4FC35FDA4F30
:10464000F983E883CD50D540FF93EF939E012E5F11
:104650003A4FC15FDA4F39832883CF50D5403F931B
:104660002F930396CF5EDA4F99838883C151D5404B
:104670009F938F933396CD5EDA4FF983E883C351CE
:10468000D540FF93EF932D5F3F4FCB5EDA4F3983D9
:104690002883C551D5403F932F930396C95EDA4FC7
:1046A00099838883C751D5409F938F931E019EE1C4
:1046B000291A9BEF390A3F922F927E97C75EDA4FF5
:1046C000F983E883C951D540FF93EF932B5131090A
:1046D000C55EDA4F39832883CB51D5403F932F9362
:1046E0002E0132E1431A3BEF530A5F924F92CE0103
:1046F000895F9A4F4C01B2965F019E01275F3A4F46
:10470000690145977C018E010A501B4F2F503109DA
:10471000AE0142505B4FBE01665F7A4FC35EDA4F17
:1047200088819981CD51D5400E949E210FB6F89481
:10473000DEBF0FBECDBF882309F4B3C0CE50DB4F20
:1047400088809980AA80BB80C25FD440CA50DB4F6A
:10475000C880D980EA80FB80C65FD440C650DB4F5A
:10476000088119812A813B81CA5FD4407F926F9270
:104770007F926F92C050DB4F8881C050D5408F939D
:10478000CF5FDA4F8881C150D5408F93CE5FDA4F2B
:104790008881C250D5408F93CD5FDA4F8881C35056
:1047A000D5408F93CC5FDA4F8881C450D5408F932A
:1047B000CB5FDA4F8881C550D5408F93CA5FDA4FFF
:1047C0008881C650D5408F93F10183818F93828178
:1047D0008F9381818F9380818F93C751DB4F888125
:1047E000C95ED4408F93C851DB4F8881C85ED440E6
:1047F0008F93C951DB4F8881C75ED4408F93CA51D4
:10480000DB4F8881C65ED4408F93C351DB4F8881D4
:10481000CD5ED4408F93C451DB4F8881CC5ED440B1
:104820008F93C551DB4F8881CB5ED4408F93C651A7
:10483000DB4F8881CA5ED4408F93F20183818F93CE
:1048400082818F9381818F9380818F93C95FDA4FAB
:104850008881C750D5408F93C85FDA4F8881C85090
:10486000D5408F93C75FDA4F8881C950D5408F9369
:10487000C250DB4F4881CE5FD440C65FDA4F6881BB
:10488000CA50D540CE0101960E94B74A0FB6F8949F
:10489000DEBF0FBECDBF882321F0CE0101960E945E
:1048A000171EC25EDA4F0FB6F894DEBF0FBECDBF43
:1048B000DF91CF911F910F91FF90EF90DF90CF90FC
:1048C000BF90AF909F908F907F906F905F904F9030
:1048D0003F902F9008952F923F924F925F926F9248
:1048E0007F928F929F92AF92BF92CF92DF92EF9280
:1048F000FF920F931F93CF93DF93CDB7DEB7CB52C9
:10490000D5400FB6F894DEBF0FBECDBFC65DDA4FFF
:1049100099838883CA52D540CE0101960E948C4E5D
:10492000CE018E5E9A4F9F938F939E01205F3A4FE8
:10493000C25EDA4F39832883CE51D5403F932F93FF
:104940000296C05EDA4F99838883C052D5409F9308
:104950008F9302969F938F93FE01E254FB4FCE5D9F
:10496000DA4FF983E883C252D540FF93EF933E01BB
:10497000F0E16F1AFBEF7F0A7F926F921E012CE02D
:10498000221A2BEF320A3F922F920296CC5DDA4F19
:1049900099838883C452D5409F938F93FE01E8503A
:1049A000FB4FCA5DDA4FF983E883C652D540FF93C7
:1049B000EF939E0124503B4FC85DDA4F3983288323
:1049C000C852D5403F932F932E013BEF531A5F926D
:1049D0004F9244974C01B4965F019E012D523B4F7C
:1049E00069014C977C018E01085F1A4F275C3F4F8D
:1049F000AE01465E5A4FBE01635E7A4FC65DDA4F26
:104A000088819981CA52D5400E943D7C0FB6F894A6
:104A1000DEBF0FBECDBF882309F4E2C0C85FDA4F06
:104A2000C880D980EA80FB80C850D540C45FDA4F87
:104A3000088119812A813B81CC50D540C05FDA4F73
:104A40008881C051D5408F93CB5EDA4F8881C551A4
:104A5000D5408F93CC5EDA4F8881C451D5408F9377
:104A6000CD5DDA4FF881C352D540FF93CE5DDA4F6A
:104A70008881C252D5408F93F30183818F938281C5
:104A80008F9381818F9380818F93F10183818F93A5
:104A900082818F9381818F9380818F93C75EDA4F5C
:104AA0008881C951D5408F93C85EDA4F8881C8513B
:104AB000D5408F93C550DB4F8881CB5FD4408F9317
:104AC000C650DB4F8881CA5FD4408F93C750DB4FFD
:104AD0008881C95FD4408F93C850DB4F8881C85FFD
:104AE000D4408F93C150DB4F8881CF5FD4408F93E8
:104AF000C250DB4F8881CE5FD4408F93C350DB4FD1
:104B00008881CD5FD4408F93C450DB4F8881CC5FC8
:104B1000D4408F93F20183818F9382818F9381811F
:104B20008F9380818F93C95FDA4F8881C750D540BA
:104B30008F93CA5FDA4F8881C650D5408F93CB5F81
:104B4000DA4F8881C550D5408F93CC5FDA4F88818A
:104B5000C450D5408F93C45EDA4F8881CC51D54084
:104B60008F93CE018D529B4F4C0178975F01C65EAB
:104B7000DA4F4881CA51D540C35EDA4F6881CD51C2
:104B8000D540825D94400E941B490FB6F894DEBF69
:104B90000FBECDBF882321F140913E0A50913F0ABC
:104BA000BE016F5F7F4FCB010E9482500E94171E93
:104BB00040913E0A50913F0ABE016F5F7F4FCB018B
:104BC0000E9418510E94171E80913E0A90913F0A40
:104BD00001968A309105F4F490933F0A80933E0A3F
:104BE000C55DDA4F0FB6F894DEBF0FBECDBFDF91C3
:104BF000CF911F910F91FF90EF90DF90CF90BF90DA
:104C0000AF909F908F907F906F905F904F903F906C
:104C10002F90089510923F0A10923E0AE1CFCF9252
:104C2000DF92EF92FF920F931F93CF93DF93CDB755
:104C3000DEB7C45BD1090FB6F894DEBF0FBECDBF9F
:104C40006B017C01BA0144EB50E08E010F5F1F4FF6
:104C5000C8010E94F1DDF80101900020E9F73197C9
:104C6000AF01401B510BD8012EE2CD01801B910BEF
:104C70008417950744F48D918C32B9F7CD010197D3
:104C8000FC012083F2CF67E775E08EE392E10E949A
:104C9000CEC92AE030E0B701A6018EE392E10E947E
:104CA000DBCA62E078E08EE392E10E94CEC9B801EF
:104CB0008EE392E10E94F3C9CC54DF4F0FB6F89413
:104CC000DEBF0FBECDBFDF91CF911F910F91FF903F
:104CD000EF90DF90CF9008954F925F926F927F9206
:104CE0008F929F92AF92BF92CF92DF92EF92FF92FC
:104CF0000F931F93CF93DF931F921F92CDB7DEB711
:104D0000FC0183809480A580B680FAE08F16FBEFCB
:104D10009F06F1E0AF06B10409F062C02801590115
:104D20004A013B018C011A821982BE016F5F7F4FDD
:104D30000E94B87F982F9F73F30190838295869588
:104D40008695837090E0F401918380832FEF3FEF8D
:104D5000A901BE016F5F7F4FC8010E94DF88F50186
:104D60006083718382839383BE016F5F7F4FC8012D
:104D70000E94B87F8F71F2018083BE016F5F7F4F09
:104D8000C8010E94B87FBE016F5F7F4FC8010E94BB
:104D9000B87FF8018185928529813A81821B930B26
:104DA000A6018C159D050CF4AC019E012F5F3F4FB1
:104DB000B701C8010E94078081E00F900F90DF913A
:104DC000CF911F910F91FF90EF90DF90CF90BF9008
:104DD000AF909F908F907F906F905F904F900895CD
:104DE00080E0EBCFCF92DF92EF92FF920F931F9371
:104DF000CF93DF93CDB7DEB7C05BD1090FB6F89480
:104E0000DEBF0FBECDBF28EAC22ED12C9E012F5F80
:104E10003F4F79018E0101551F4F28553F4FAE017D
:104E200043555F4FBE0160557F4F0E946C2688231B
:104E300009F47CC061E474E08EE392E10E94E1C970
:104E4000C755DF4F688179818A819B81C95AD040DB
:104E5000A7010E940F26C755DF4F688179818A819B
:104E60009B81C95AD0400E94801D81116FC063E3AD
:104E700074E08EE392E10E94AAC94AE050E0C05576
:104E8000DF4F6881C05BD0408EE392E10E94EFCAA1
:104E900068E274E08EE392E10E94AAC9C355DF4F35
:104EA00068817981CD5AD0404AE050E08EE392E1AA
:104EB0000E94B7CA6DE174E08EE392E10E94AAC934
:104EC000C755DF4F488159816A817B81C95AD040DB
:104ED0002AE030E08EE392E10E9407CB65E074E0C7
:104EE0008EE392E10E94AAC94AE050E0C155DF4F2B
:104EF0006881CF5AD0408EE392E10E94EFCA6AEFF8
:104F000073E08EE392E10E94AAC9B7018EE392E1B9
:104F10000E94F3C9C755DF4F688179818A819B81DF
:104F2000C95AD0400E94A31D0E94CD1DC055DF4F1D
:104F30000FB6F894DEBF0FBECDBFDF91CF911F91AA
:104F40000F91FF90EF90DF90CF90089561EF73E0A5
:104F50008EE392E10E94AAC9C755DF4F488159816B
:104F60006A817B81C95AD0402AE030E08EE392E129
:104F70000E94DBCA6FEE73E08EE392E10E94E1C90A
:104F8000C9CF0F931F93CF93DF93CDB7DEB76C9745
:104F90000FB6F894DEBF0FBECDBF8E010F5F1F4F5F
:104FA0009E012A5E3F4FAE01465E5F4FBE01645ECA
:104FB0007F4F0E94737D882339F06E897F89888DA9
:104FC000998DA8010E94284D6C960FB6F894DEBF0B
:104FD0000FBECDBFDF91CF911F910F9108952F92FA
:104FE0003F924F925F926F927F928F929F92AF9279
:104FF000BF92CF92DF92EF92FF920F931F93CF93C6
:10500000DF93CDB7DEB7C55ED4400FB6F894DEBFF0
:105010000FBECDBF2E0126E2421A2BEF520A5F923D
:105020004F923E013AE3631A3BEF730A7F926F920D
:105030001E01E6E32E1AEBEF3E0A3F922F929E01ED
:1050400022533B4F4901FE01EE52FB4F5F012051BD
:105050003109690134967F018E010C511B4F205E8E
:105060003F4FAE014E515B4FBE016B517B4F0E94D3
:10507000D07D0F900F900F900F900F900F9088237E
:1050800009F484C0CE0101960E948C4EC252DB4FBF
:10509000088119812A813B81CE5DD440F201838150
:1050A0008F9382818F9381818F9380818F93F3017E
:1050B00083818F9382818F9381818F9380818F935E
:1050C000F10183818F9382818F9381818F9380817E
:1050D0008F93CF52DB4F8881C15DD4408F93C053F3
:1050E000DB4F8881C05DD4408F93C153DB4F8881F3
:1050F000CF5CD4408F93C253DB4F8881CE5CD440C9
:105100008F93CB52DB4F8881C55DD4408F93CC52B7
:10511000DB4F8881C45DD4408F93CD52DB4F8881B3
:10512000C35DD4408F93CE52DB4F8881C25DD440A3
:105130008F93C60156016701CC51DB4FE880C45EF6
:10514000D440CE51DB4F4881C25ED440CB51DB4FBF
:105150006881C55ED4408D5B94400E94B04D0FB60F
:10516000F894DEBF0FBECDBF882381F0BE016F5F14
:105170007F4FCB010E94A8510E94171EBE016F5F96
:105180007F4FCB010E942A520E94171ECB51DB4F4A
:105190000FB6F894DEBF0FBECDBFDF91CF911F9148
:1051A0000F91FF90EF90DF90CF90BF90AF909F90C6
:1051B0008F907F906F905F904F903F902F900895C9
:1051C0004F925F926F927F928F929F92AF92BF9217
:1051D000CF92DF92EF92FF92CF93DF9300D000D077
:1051E0001F921F92CDB7DEB72A013B01BC01990F78
:1051F000880B990B0E94EAD869837A838B839C83FE
:10520000A30192010E9475D76B017C0120E030E080
:10521000A9010E9440DA46015701181624F0B7FA96
:10522000B094B7F8B09420E030E048E151E4C70111
:10523000B6010E9445DA6B017C0120E030E04CE0D1
:1052400052E40E9440DA18160CF442C020E030E02C
:105250004CE052ECC701B6010E94F9D787FF06C0A7
:10526000C12CD12C7CE0E72E72ECF72E80917E0AC7
:1052700090917F0AA091800AB091810A8D839E83CC
:10528000AF83B88720E030E040E05FE3BC01CD01B0
:105290000E9476D7A50194010E9440DA1816FCF40A
:1052A00090E080E028960FB6F894DEBF0FBECDBF29
:1052B000DF91CF91FF90EF90DF90CF90BF90AF90B4
:1052C0009F908F907F906F905F904F900C94B5154A
:1052D000C12CD12C6CE0E62E62E4F62EC7CF2AE971
:1052E00039E949E95FE36D817E818F8198850E946C
:1052F00076D7A50194010E9440DA18160CF04AC036
:1053000020E030E040EC50E4C701B6010E9440DAF2
:1053100018160CF120E030E040EC50ECC701B6016B
:105320000E94F9D7A301920187FD97C069817A8114
:105330008B819C810E9440DA18169CF420E030E0BA
:10534000A901C701B6010E94F9D787FF0AC0C12C85
:10535000D12C760119C0C12CD12C50ECE52E50E493
:10536000F52EA301920169817A818B819C810E9433
:10537000F9D787FF09C020E030E0A901C701B601D5
:105380000E9440DA18161CF3C701B6010E94ACD87F
:10539000CB0188CF26E636E646EE5FE36D817E815F
:1053A0008F8198850E9476D7A50194010E9440DAEA
:1053B000181614F520E030E040E951E4C701B601C9
:1053C0000E9440DA18168CF020E030E040E951EC01
:1053D000C701B6010E94F9D787FFD6CFC12CD12CC7
:1053E00040E9E42E41ECF42ECFCFC12CD12C30E992
:1053F000E32E31E4F32EC8CF2AE939E949E150E43C
:105400006D817E818F8198850E9476D7A501940158
:105410000E9440DA18160CF4B7CF20E030E0A90162
:10542000C701B6010E9440DA181684F020E030E08F
:10543000A901C701B6010E94F9D787FFA5CFC12CEA
:10544000D12C2CE0E22E22ECF22E9ECFC12CD12CBE
:105450009CE0E92E92E4F92E97CF69817A818B81C5
:105460009C810E9440DA18160CF471CFC12CD12C0B
:1054700080ECE82EFE2C88CFCF92DF92EF92FF9245
:105480000F931F93CF93DF9300D000D000D01F92D3
:105490001F92CDB7DEB78E010F5F1F4F9E01275FB2
:1054A0003F4FAE01455F5F4FBE016B5F7F4F0E9474
:1054B0001A72882309F489C0CD80DE80EF80F884D9
:1054C00028E23BE64EE65EECC701B6010E94F9D742
:1054D000882381F020E030E044E353E4C701B601C3
:1054E0000E9445DA2BED3FE049E450E40E94FED7EC
:1054F0006B017C01C092780AD092790AE0927A0A14
:10550000F0927B0AC701B6010E94ACD886E89AE007
:105510000E94290E882309F458C08091F20D9091C1
:10552000F30D039709F051C08091F40D9091F50DA2
:10553000039709F04AC04091780A5091790A609126
:105540007A0A70917B0A20910C0280917C0A9091DA
:105550007D0A0E94E0282091780A3091790A4091D2
:105560007A0A50917B0A60913A0A70913B0A8091C5
:105570003C0A90913D0A0E9475D76B017C0120E0A6
:1055800030E040E05FE30E9440DA181654F020E07B
:1055900030E040E05FEBC701B6010E94F9D787FF1A
:1055A00014C086E89AE00E94430E8091780A909198
:1055B000790AA0917A0AB0917B0A80933A0A909373
:1055C0003B0AA0933C0AB0933D0A2B960FB6F89481
:1055D000DEBF0FBECDBFDF91CF911F910F91FF9026
:1055E000EF90DF90CF900895CF92DF92EF92FF92ED
:1055F0000F931F93CF93DF9300D000D000D0CDB78F
:10560000DEB719861E821D8219821A821B821C82B5
:105610008E010F5F1F4F9E012B5F3F4FAE01495F11
:105620005F4FBE01675F7F4F0E9459738823F1F17E
:10563000C980DA80EB80FC8028E23BE64EE65EEC37
:10564000C701B6010E94F9D7882381F120E030E03C
:1056500044E353E4C701B6010E9445DA2BED3FE075
:1056600049E450E40E94FED76B017C0120E030E069
:1056700044EB52EC0E9440DA87FD18C020E030E095
:1056800044EB52E4C701B6010E94F9D787FF0EC070
:10569000C0928E0AD0928F0AE092900AF092910AFC
:1056A0008FEF9FE79093240C8093230C29960FB6DD
:1056B000F894DEBF0FBECDBFDF91CF911F910F9148
:1056C000FF90EF90DF90CF900895CF92DF92EF920E
:1056D000FF920F931F93CF93DF93CDB7DEB72F9732
:1056E0000FB6F894DEBF0FBECDBF1F8619861A868F
:1056F0001B861C861D821E821F82188619821A82B2
:105700001B821C829E01235F3F4F79018E010F5F38
:105710001F4F28503109AE01475F5F4FBE01615FE7
:105720007F4F0E948772882321F1C984DA84EB8439
:10573000FC8428E23BE64EE65EECC701B6010E941F
:10574000F9D7882381F020E030E044E353E4C70137
:10575000B6010E9445DA2BED3FE049E450E40E9497
:10576000FED76B017C01B701A60186E89AE00E9492
:10577000CF0A2F960FB6F894DEBF0FBECDBFDF91D4
:10578000CF911F910F91FF90EF90DF90CF900895F0
:10579000CF92DF92EF92FF92CF93DF93EC01898556
:1057A0009A85089709F05AC08B858B3309F056C04B
:1057B0008C858F3909F052C08D858F3F09F04EC01E
:1057C0008E858F3F09F04AC08F858F3F09F046C014
:1057D000698970E090E080E00E94E8D820E030E045
:1057E00040E853E40E9445DA6B017C01688970E06F
:1057F00090E080E00E94E8D89B01AC01C701B601AF
:105800000E9476D720E030E044EB53E40E9445DA72
:1058100029EF3FE049E450E40E94FED720E030E465
:105820004CE956E40E94FED720E030E040E05FE320
:105830000E9476D70E94ACD86B018091F20D9091B6
:10584000F30D029791F4C6010E9487121092390A53
:105850001092380AD092370AC092360ADF91CF915F
:10586000FF90EF90DF90CF9008958091360A90914D
:10587000370AC816D90639F78091380A9091390A43
:105880008630910504F701969093390A8093380A7F
:10589000E1CF8F929F92AF92BF92CF92DF92EF9221
:1058A000FF920F931F93CF93DF93CDB7DEB72D9762
:1058B0000FB6F894DEBF0FBECDBF1D8619861A86BF
:1058C0001B861C861D821E821F8218868E010F5F1A
:1058D0001F4F9E012B5F3F4FAE01475F5F4FBE01E1
:1058E000635F7F4F0E94C273882309F448C08D8094
:1058F0009E80AF80B884C984DA84EB84FC8428E27B
:105900003BE64EE65EECC501B4010E94F9D7882360
:10591000F1F020E030E0A901C501B4010E94F9D7FF
:105920008823A9F028E23BE64EE65EECC701B6010B
:105930000E94F9D7882319F1A7019601C501B40186
:105940000E9476D72FEB3EE04CE95EE310C028E2E0
:105950003BE64EE65EECC701B6010E94F9D788230C
:1059600071F02FEB3EE04CE95EE3C701B6010E9407
:10597000FED7AB01BC0186E89AE00E9408082D968C
:105980000FB6F894DEBF0FBECDBFDF91CF911F9150
:105990000F91FF90EF90DF90CF90BF90AF909F90CE
:1059A0008F900895CF92DF92EF92FF920F931F9303
:1059B000CF93DF9300D000D000D01F921F92CDB7BD
:1059C000DEB71B861D821E821F82188619821A82EC
:1059D0001B821C828E010F5F1F4F9E012B5F3F4F6A
:1059E000AE01475F5F4FBE01655F7F4F0E94357517
:1059F0008823B1F1CD80DE80EF80F88428E23BE699
:105A00004EE65EECC701B6010E94F9D7882381F00B
:105A100020E030E044E353E4C701B6010E9445DAD8
:105A20002BED3FE049E450E40E94FED76B017C017E
:105A3000B701A60186E89AE00E94280C882381F02D
:105A400021EA32EB43E05FE369817A818B819C81BB
:105A50000E94FED7AB01BC0186E89AE00E94570C79
:105A60002B960FB6F894DEBF0FBECDBFDF91CF915E
:105A70001F910F91FF90EF90DF90CF900895CF92FC
:105A8000DF92EF92FF920F931F93CF93DF9300D09B
:105A900000D000D01F921F92CDB7DEB71D821E82AC
:105AA0001F82188619821A821B821C828E01075F50
:105AB0001F4F9E012F5F3F4FAE014B5F5F4FBE01F7
:105AC000655F7F4F0E94A47E8823A1F125EE3FEC05
:105AD00048EF5FE36D817E818F8198850E9445DA72
