:100000000C94F1030C94C5810C94F0810C941B8228
:100010000C9446820C9471820C949C820C94C7823E
:100020000C94F2820C9422040C9422040C9422046A
:100030000C9422040C9422040C9422040C942204A8
:100040000C9422040C9422040C9422040C94220498
:100050000C9422040C9422040C9422040C946D83BE
:100060000C9422040C94A17E0C94D77E0C94220450
:100070000C9422040C9422040C9422040C94220468
:100080000C9422040C9422040C9422040C94220458
:100090000C940A320C9434320C9422040C942204F2
:1000A0000C9422040C9422040C9422040C94220438
:1000B0000C9422040C9422040C94F7300C945630C7
:1000C0000C94A6310C9422040C9422040C947D32DE
:1000D0000C94A7320C9422040C94387F0C946E7FFD
:1000E0000C9422040C948A810C94F9730C94EA6D9C
:1000F0000C9439870C9499840C94F5300C947D8180
:100100000C9437750C94B1840C947E2F0C94EE866D
:100110000C94F1770C9445870C94CF7F0C949387C3
:100120000C943B780C943C1B0C9440700C949D8474
:100130000C940E7A0C94CB840C94A27F0C94617A6C
:100140000C9414870C9499760C94D1320C94917879
:100150000C94537A0C948C7D0C9417870C94A8748F
:100160000C9448370C94B66F0C9484710C945B7D9E
:100170000C94F46D0C9455830C9450300C9463786B
:100180000C9475720C94A1870C94377A0C94017FAF
:100190000C94481A0C9435870C94B0700C94878793
:1001A0000C947B870C943C870C943F870C94718152
:1001B0000C9451870C9478870C9485840C949087C8
:1001C0000C94777A0C947E870C944F7D0C94548712
:1001D0000C94AD780C94C0330C948F840C94AB8148
:1001E0000C94F66D0C948B700C9449870C94B88128
:1001F0000C945E320C948A870C9423700C94DA3B36
:100200000C9411870C944B7A0C942B720C94ED6F18
:100210000C94682F0C94AB840C9481870C942E87DB
:100220000C940B7F0C94DC360C949F810C948D877E
:100230000C948B840C9493840C94B9840C94E67184
:100240000C94A3840C94C7840C94912F0C94B83311
:100250000C947F7A0C948D7A0C9414730C941F1C5C
:100260000C94B5840C94987F0C94BF840C940D87E7
:100270000C94A12F0C9475870C947B780C94697A5C
:100280000C9442870C9434780C949E870C94A78429
:100290000C94697D0C94E27D0C9425340C94968723
:1002A0000C945E700C9442370C94EB430C94D7344E
:1002B0000C947D7D0C9469810C9432870C94C384DA
:1002C0000C9484870C944D870C949A870C94027E2E
:1002D0000C944A810C94CA844042474250552C43A6
:1002E0006F757273652C004042474250552C547212
:1002F00061636B2C46616C73650040424742505508
:100300002C547261636B2C547275650040424742F5
:1003100050552C56616E652C46616C7365004042E9
:10032000474250552C56616E652C547275650040DD
:1003300042474250552C547261636B2C46616C737A
:1003400065004042474250552C547261636B2C54F7
:10035000727565004042474250552C56616E652CBF
:1003600046616C7365004042474250552C56616EA1
:10037000652C5472756500244E474250552A344509
:10038000004E4D45415F5041525345525F4E4F54D0
:10039000434F4D504C4554452C206E6F7420636F75
:1003A0006D706C657465207E7E00244E474250550A
:1003B0002A3445004E4D45415F5041525345525FEE
:1003C000434845434B53554D4552522C20455252BC
:1003D0004F52202121000900095472616E736C6133
:1003E000746553656174616C6B417570696C6F7491
:1003F000436F6D6D616E64546F4E454D41323030C8
:100400003028293A200020556E6B6E6F776E0020E1
:10041000506F7765724F6E002045787465726E611B
:100420006C002042726F776E6F7574002057617494
:100430006368646F67004661696C004F70656E00A9
:100440004042474250552C43414E2C0040424742C7
:1004500050552C424F4F5420566572002066696EED
:10046000652E002C2048656C6C6F2C204920616D36
:1004700020004042474250552C566572004042478A
:100480004250552C4D4F422C004042474250552C73
:1004900053746565722C004042474250552C436F9F
:1004A000757273652C004042474250552C4175745B
:1004B0006F2C46616C7365004042474250552C4199
:1004C00075746F2C537465657200404247425055F5
:1004D0002C4175746F2C54727565009000A49000C7
:1004E000A30020446174613A00204C656E3A0020FC
:1004F000446573743A0020536F757263653A002047
:1005000050474E3A005072693A00203A2000002CC1
:100510000053746172742061646472657373206344
:100520006C61696D20666F72206465766963652011
:10053000002073656E64206661696C6564002F003D
:100540002C206672616D653A0050474E2000207382
:10055000656E64206661696C65640050474E2000DA
:1005600043414E20646576696365206661696C6508
:100570006420746F206F70656E0043414E20646587
:10058000766963652072656164790000004E4D45AF
:100590004132303030206C6962726172792C20688F
:1005A000747470733A2F2F6769746875622E636F65
:1005B0006D2F74746C617070616C61696E656E2F03
:1005C0004E4D4541323030300035089A0241726458
:1005D00075696E6F204E326B2D3E50430000000057
:1005E0000000000000000000000000000000312EAC
:1005F000302E302E3000000000000000000000000F
:1006000000000000000000000000000000000031B9
:100610002E302E300000000000000000000000001E
:1006200000000000000000000000000000000000CA
:100630003030303030303031000000000000000039
:1006400000000000000000000000000000000000AA
:1006500000000100E8000000EA000000EB000000DC
:10066000EC000000EE0000D8FE000000ED010000EC
:1006700000000000E8000000EA000000EB000000BD
:10068000EC000000EE000000ED010000EE010011A2
:10069000F0010014F0010016F0010000000000005D
:1006A000000B0C030A0D0E0F0908040502000000E0
:1006B000000000000000000000000000000000003A
:1006C00000000000000000000000001312110000F4
:1006D000000000000000000000000000000000001A
:1006E000000000000000000000000000000000000A
:1006F0000000000000010210202008081020401017
:1007000020408002010201080402010102040810D5
:1007100020408080402010080402018004020180F3
:10072000402010080402010804020101020408101C
:100730002040800102040810204080044080048092
:10074000081010204004081020408005050505070A
:100750000508080808020202020A0A08080404043C
:100760000401010101010101010303030303030368
:1007700003040707070C0C0C0C0C0C0C0C020202F7
:100780000206060606060606060B0B0B0B0B0B0BEA
:100790000B050505080807070404040A0A0A0A0AE3
:1007A0000A00002200250028002B002E0031003412
:1007B0000002010000050108010B010000210024D6
:1007C0000027002A002D0030003300010100000442
:1007D0000107010A0100481A5E32D1320B7FA27F65
:1007E0003C1B11241FBECFEFD1E2DEBFCDBF00E026
:1007F0000CBF18E0A0E0B2E0E6E3F8E201E00BBFD6
:1008000002C007900D92A830B107D9F72EE0A8E0FA
:10081000B8E001C01D92A738B207E1F713E0C0EFBE
:10082000D3E000E006C021970109802FFE010E945D
:10083000168CCB3ED10780E00807A9F70E945883A9
:100840000C9409940C940000CF92DF92EF92FF92E7
:10085000CF93DF93EC016A017B012FE632E143E89D
:100860005AEBCB01B6010E94618E18161CF520E0F0
:1008700030E84BE355E4C701B6010E94AE8C87FF18
:1008800019C0C882D982EA82FB82C85BDF4F8881A7
:10089000998106968730910554F49983888381E085
:1008A000DF91CF91FF90EF90DF90CF90089586E099
:1008B00090E0F3CF80E0F4CF0F931F93CF93DF93BB
:1008C000CDB7DEB7DA950FB6F894DEBF0FBECDBF59
:1008D0008C01CE0101960E949925085B1F4FF801FB
:1008E0008081918118161906D4F440912A085091FC
:1008F0002B0860912C0870912D08CE0101960E9462
:10090000EC29CE0101960E94A2250E946F0DF801EC
:1009100080819181019797FD0DC091838083D3954C
:100920000FB6F894DEBF0FBECDBFDF91CF911F9100
:100930000F91089511821082F2CFCF92DF92EF9241
:10094000FF92CF93DF93EC016A017B0120E030E05E
:10095000A901CB01B6010E94618E87FD23C02DEC59
:100960003CE044EB53E4C701B6010E94AE8C87FF24
:1009700019C0C88AD98AEA8AFB8AC05BDF4F88819E
:10098000998104968530910554F49983888381E098
:10099000DF91CF91FF90EF90DF90CF90089584E0AA
:1009A00090E0F3CF80E0F4CFAF92BF92CF92DF928E
:1009B000EF92FF920F931F93CF93DF93CDB7DEB7E4
:1009C000DA950FB6F894DEBF0FBECDBF5C01CE0145
:1009D00001960E949925650180E5C80ED11CF6019B
:1009E00080819181181619066CF57501FEE4EF0EF1
:1009F000F11CF70180819181181619061CF5F5018B
:100A000004851585268537854089518962897389D2
:100A1000CE0101960E94BE26CE0101960E94A2251B
:100A20000E946F0DF60180819181019797FD1BC097
:100A300091838083F70180819181019797FD16C092
:100A400091838083D3950FB6F894DEBF0FBECDBFE0
:100A5000DF91CF911F910F91FF90EF90DF90CF909A
:100A6000BF90AF90089511821082E4CF118210825E
:100A7000E9CFAF92BF92CF92DF92EF92FF920F93A6
:100A80001F93CF93DF93CDB7DEB7DA950FB6F89407
:100A9000DEBF0FBECDBF5C01CE0101960E9499253D
:100AA000650180E5C80ED11CF60180819181181680
:100AB00019066CF57501FEE4EF0EF11CF70180815B
:100AC0009181181619061CF5F501048515852685F2
:100AD00037854089518962897389CE0101960E94C8
:100AE000A325CE0101960E94A2250E946F0DF6015A
:100AF00080819181019797FD1BC091838083F701CD
:100B000080819181019797FD16C091838083D39551
:100B10000FB6F894DEBF0FBECDBFDF91CF911F910E
:100B20000F91FF90EF90DF90CF90BF90AF9008951E
:100B300011821082E4CF11821082E9CFCF92DF922E
:100B4000EF92FF92CF93DF93EC016A017B0120E0EB
:100B500030E0A901CB01B6010E94618E87FD23C060
:100B600020E030E040EA52E4C701B6010E94AE8CBA
:100B700087FF19C0CC86DD86EE86FF86C25BDF4F1D
:100B80008881998104968530910554F499838883EE
:100B900081E0DF91CF91FF90EF90DF90CF900895AB
:100BA00084E090E0F3CF80E0F4CF4F925F926F92B9
:100BB0007F928F929F92AF92BF92CF92DF92EF92ED
:100BC000FF920F931F93CF93DF9300D000D01F921B
:100BD0001F92CDB7DEB74A015B01680179012A0196
:100BE0003B01E89477F8C301B2010E94258D698327
:100BF0007A838B839C8329813A81B901330F880BD7
:100C0000990B0E94638D9B01AC01C301B2010E944C
:100C1000418C20E030E040E752E40E94668E2B01D8
:100C20003C010E94258D6D837E838F8398872D8163
:100C30003E81B901330F880B990B0E94638D9B0194
:100C4000AC01C301B2010E94418C20E030E040E7DA
:100C500052E40E94668E0E94258D2B0120E030E038
:100C6000A901C501B4010E94AE8C87FD85C08EE448
:100C700029813A8130933F0820933E082D813E819F
:100C80003093410820934008509243084092420814
:100C90008093440826013701E89477F8C301B20134
:100CA0000E94258D4B01072E000C880B990B0E948A
:100CB000638D9B01AC01C301B2010E94418C20E015
:100CC00030E040E752E40E94668E2B013C010E9416
:100CD000258D69837A838B839C8329813A81B9012D
:100CE000330F880B990B0E94638D9B01AC01C301EC
:100CF000B2010E94418C20E030E040E752E40E94C3
:100D0000668E0E94258D2B0120E030E0A901C701ED
:100D1000B6010E94AE8C87FD31C085E490924608F2
:100D20008092450829813A813093480820934708EA
:100D300050924A084092490880934B0886E090E020
:100D400090937D0880937C0881E028960FB6F894F4
:100D5000DEBF0FBECDBFDF91CF911F910F91FF90EE
:100D6000EF90DF90CF90BF90AF909F908F907F904B
:100D70006F905F904F90089583E57ACF87E5CECF4F
:100D80000F931F93CF93DF93CDB7DEB7DA950FB6EE
:100D9000F894DEBF0FBECDBF8C010E5A1F4FF80175
:100DA000808191811816190694F4CE0101960E9453
:100DB0009727CE0101960E94A2250E946F0DF8018F
:100DC00080819181019797FD0DC091838083D39598
:100DD0000FB6F894DEBF0FBECDBFDF91CF911F914C
:100DE0000F91089511821082F2CFCF92DF92EF928D
:100DF000FF92CF93DF93EC016A017B0120E030E0AA
:100E0000A901CB01B6010E94618E87FD23C02DECA4
:100E10003CE044EB53E4C701B6010E94AE8C87FF6F
:100E200019C0CAA2DBA2ECA2FDA2CC5ADF4F888176
:100E3000998102968330910554F49983888381E0E7
:100E4000DF91CF91FF90EF90DF90CF90089582E0F7
:100E500090E0F3CF80E0F4CFCF92DF92EF92FF9259
:100E60000F931F93CF93DF93CDB7DEB7DA950FB60D
:100E7000F894DEBF0FBECDBF6C01CE0101960E947B
:100E80009925760184E5E80EF11CF70180819181B6
:100E900018161906DCF4F6010085118522853385C4
:100EA00042A153A164A175A1CE0101960E947A2AA4
:100EB000CE0101960E94A2250E946F0DF70180814C
:100EC0009181019797FD11C091838083D3950FB6CF
:100ED000F894DEBF0FBECDBFDF91CF911F910F9170
:100EE000FF90EF90DF90CF90089511821082EECFA7
:100EF000EF92FF920F931F93CF93DF93CDB7DEB79F
:100F0000DA950FB6F894DEBF0FBECDBF7C01CE01DF
:100F100001960E94992587010C5A1F4FF801808184
:100F2000918118161906BCF4F70142A153A164A1DE
:100F300075A1CE0101960E94E22ACE0101960E947F
:100F4000A2250E946F0DF80180819181019797FD84
:100F50000FC091838083D3950FB6F894DEBF0FBE88
:100F6000CDBFDF91CF911F910F91FF90EF9008952A
:100F700011821082F0CFEF92FF920F931F93CF93C5
:100F8000DF93CDB7DEB7DA950FB6F894DEBF0FBEAC
:100F9000CDBF7C01CE0101960E94992587010C5A94
:100FA0001F4FF801808191811816190604F5F70189
:100FB00060857185828593850E94258DCB01F7011F
:100FC00042A153A164A175A19C01CE0101960E948A
:100FD000212BCE0101960E94A2250E946F0DF801DF
:100FE00080819181019797FD0FC091838083D39574
:100FF0000FB6F894DEBF0FBECDBFDF91CF911F912A
:101000000F91FF90EF90089511821082F0CFCF9250
:10101000DF92EF92FF92CF93DF93EC016A017B01A5
:10102000CB01BA019F772DEC3CE044EB53E40E94E6
:10103000AE8C87FF19C0CEA2DFA2E8A6F9A6C85AD7
:10104000DF4F8881998106968730910554F4998302
:10105000888381E0DF91CF91FF90EF90DF90CF9078
:10106000089586E090E0F3CF80E0F4CFCF92DF9256
:10107000EF92FF92CF93DF93EC016A017B012CEAA0
:1010800035EC47E257EBCB01B6010E94618E181692
:101090001CF520E030E048EC52E4C701B6010E94A4
:1010A000AE8C87FF19C0CAA6DBA6ECA6FDA6CA5A5D
:1010B000DF4F8881998106968730910554F4998392
:1010C000888381E0DF91CF91FF90EF90DF90CF9008
:1010D000089586E090E0F3CF80E0F4CF6F927F92A6
:1010E0008F929F92AF92BF92CF92DF92EF92FF9238
:1010F0000F931F93CF93DF93CDB7DEB7DA950FB67B
:10110000F894DEBF0FBECDBF3C01CE0101960E9418
:101110009925430188E5880E911CF4018081918115
:10112000181619068CF55301F6E5AF0EB11CF50142
:1011300080819181181619063CF5F301C2A4D3A44D
:10114000E4A4F5A4008511852285338546A157A125
:1011500060A571A5CE0101960E940726CE010196D9
:101160000E94A2250E946F0DF40180819181019758
:1011700097FD1FC091838083F50180819181019744
:1011800097FD1AC091838083D3950FB6F894DEBF84
:101190000FBECDBFDF91CF911F910F91FF90EF90C8
:1011A000DF90CF90BF90AF909F908F907F906F9087
:1011B000089511821082E0CF11821082E5CF8F92C4
:1011C0009F92AF92BF92CF92DF92EF92FF920F93D6
:1011D0001F93CF93DF93CDB7DEB7DA950FB6F894B0
:1011E000DEBF0FBECDBF8C010A5A1F4FF801208110
:1011F00031814C01FCE58F0E911CF401408151813D
:10120000141615060CF070C05C01FEE5AF0EB11CA3
:10121000F50140815181141615060CF065C01216B7
:1012200013060CF048C06C01F8E5CF0ED11CF60196
:1012300020813181121613060CF059C07C01F2E5B1
:10124000EF0EF11CF70120813181121613060CF00C
:101250004EC0CE0101960E942829CE0101960E941F
:10126000A2250E946F0DF40180819181019797FD65
:1012700035C091838083F50180819181019797FD2D
:1012800030C091838083F80180819181019797FD1F
:101290004DC091838083F60180819181019797FDF4
:1012A00048C091838083F70180819181019797FDE8
:1012B00043C091838083D3950FB6F894DEBF0FBEF1
:1012C000CDBFDF91CF911F910F91FF90EF90DF90F5
:1012D000CF90BF90AF909F908F9008951182108211
:1012E000CACF11821082CFCF1216130624F76C01D9
:1012F000F8E5CF0ED11CF6012081318112161306BC
:10130000D4F67C01F2E5EF0EF11CF70180819181AA
:101310001816190684F6CE0101960E948D28CE017A
:1013200001960E94A2250E946F0DADCF11821082FE
:10133000B2CF11821082B7CF11821082BCCF9B0135
:10134000275A3F4F233B310590F4FC0177A766A74E
:10135000E65AFF4F8081918106968730910524F4EB
:101360009183808381E0089586E090E0F9CF80E06A
:101370000895EF92FF920F931F93CF93DF93CDB712
:10138000DEB7DA950FB6F894DEBF0FBECDBF7C0195
:10139000CE0101960E9499258701065A1F4FF80138
:1013A0008081918118161906ACF4F70166A577A51E
:1013B000CE0101960E946C2BCE0101960E94A225BF
:1013C0000E946F0DF80180819181019797FD0FC0F8
:1013D00091838083D3950FB6F894DEBF0FBECDBF47
:1013E000DF91CF911F910F91FF90EF90089511829F
:1013F0001082F0CF0C94B909CF93DF93EC010E94D7
:101400005C04CE010E943905CE010E94C006CE01C7
:101410000E942C07CE010E947807CE010E94BB07D4
:10142000CE010E94DF08CE010E94B909CE010E94C0
:101430006E08CE01DF91CF910C94D4042F923F928D
:101440004F925F926F927F928F929F92AF92BF92D4
:10145000CF92DF92EF92FF920F931F93CF93DF9380
:10146000CDB7DEB72C970FB6F894DEBF0FBECDBF59
:1014700098878F83FC018481282F30E03E832D8361
:10148000A5808681BA2CA82EB50190E080E00E944C
:10149000618D20E030E04AE754E40E94B38C0E9462
:1014A000258D6B01C50168EE73E00E94AD8B1C01B8
:1014B000EF81F885F381F983F4FD89C12EE42C8353
:1014C000B101032C000C880B990B0E94638D20E066
:1014D00030E04AE754E40E94B38C2B013C01B60192
:1014E0000D2C000C880B990B0E94638D9B01AC01A5
:1014F000C301B2010E94428C20E030E040E752E498
:101500000E94B38C2B013C01ED81FE81BF01FF0FD6
:10151000880B990B0E94638D9B01AC01C301B20142
:101520000E94428C2B013C019F772FE632E143E879
:101530005AE30E94AE8C87FD31C120917C08309126
:101540007D083B832A83232B09F44AC0609142081B
:1015500070914308072E000C880B990B0E94638D35
:1015600020E030E04AE754E40E94B38C4B015C0178
:101570006091400870914108072E000C880B990B70
:101580000E94638D9B01AC01C501B4010E94428C95
:1015900020E030E040E752E40E94B38C4B015C0154
:1015A00060913E0870913F08072E000C880B990B44
:1015B0000E94638D9B01AC01C501B4010E94428C65
:1015C0009B01AC01C301B2010E94418C9F7720E0D6
:1015D00030E040E05FE30E94618E18160CF4DEC03C
:1015E000EF81F8858781082F10E0908581859C0127
:1015F0003C872B87B90190E080E00E94618D20E05C
:1016000030E04AE754E40E94B38C0E94258D6F833A
:10161000788789879A878B859C8568EE73E00E941E
:10162000AD8B9C878B87398135FDD4C087E5898355
:10163000EB85FC85BF01FF0F880B990B0E94638D22
:1016400020E030E04AE754E40E94B38C4B015C0197
:101650002F813885B901330F880B990B0E94638D58
:101660009B01AC01C501B4010E94428C20E030E036
:1016700040E752E40E94B38C4B015C01B801012E9B
:10168000000C880B990B0E94638D9B01AC01C50176
:10169000B4010E94428C4B015C019F772FE632E13E
:1016A00043E85AE30E94AE8C87FD78C08A819B8113
:1016B000892B09F449C06091490870914A08072EA6
:1016C000000C880B990B0E94638D20E030E04AE704
:1016D00054E40E94B38C2B013C0160914708709147
:1016E0004808072E000C880B990B0E94638D9B0104
:1016F000AC01C301B2010E94428C20E030E040E71F
:1017000052E40E94B38C2B013C016091450870911A
:101710004608072E000C880B990B0E94638D9B01D5
:10172000AC01C301B2010E94428C9B01AC01C50116
:10173000B4010E94418C9F7720E030E040E05FE3FD
:101740000E94618E181654F1ED81FE81F0933F08DE
:10175000E0933E08D0924108C0924008309243087E
:1017600020924208FC81F0934408109346080093AD
:1017700045082F81388530934808209347088B858A
:101780009C8590934A0880934908998190934B08CF
:1017900086E090E090937D0880937C082C960FB6AD
:1017A000F894DEBF0FBECDBFDF91CF911F910F9197
:1017B000FF90EF90DF90CF90BF90AF909F908F9071
:1017C0007F906F905F904F903F902F90089533E5FA
:1017D0003C8376CE95E499832BCFCF93DF93EC01B6
:1017E00061E088810E94CE841B861A861C861D8635
:1017F0001E861F8660E08881DF91CF910C940A8558
:10180000CF92DF92EF92FF920F931F93CF93DF93CC
:10181000EC010E94B7832A853B852130310529F5EB
:101820000C851D852E853F856B017C01C01AD10A70
:10183000E20AF30A0A811B812C813D81C016D10680
:10184000E206F30688F11B861A866C877D878E87F1
:101850009F8760E08881DF91CF911F910F91FF906A
:10186000EF90DF90CF900C940A85232BE9F40C8540
:101870001D852E853F856B017C01C01AD10AE20AC5
:10188000F30A0E811F8128853985C016D106E2062C
:10189000F30650F021E030E03B872A876C877D8794
:1018A0008E879F8761E0D6CFDF91CF911F910F91F7
:1018B000FF90EF90DF90CF9008950F931F93CF93F9
:1018C000DF93CDB7DEB7C351D1400FB6F894DEBF7A
:1018D0000FBECDBF8BE09AE00E94000C80911608ED
:1018E000909117088A30910528F401969093170873
:1018F000809316088DEA99E00E945C2F8C018DEA96
:1019000099E00E94522FB8010E94872EFC0110819D
:101910000E94812E412FBC01CE0101960E94412CD4
:1019200069E472E08BE39DE00E942F80CE01019676
:101930000E94A225BC018BE39DE00E945480CD5EF5
:10194000DE4F0FB6F894DEBF0FBECDBFDF91CF9153
:101950001F910F910895FC01DB018081843211F009
:10196000813279F493818C9198130BC094811196F4
:101970008C911197981305C081E0258112969C9156
:10198000291380E00895FC01DB018081843211F08D
:101990008132D9F491818C91981317C0928111965C
:1019A0008C911197981311C0938112968C91129774
:1019B00098130BC0948113968C911397981305C0BC
:1019C00081E0258114969C91291380E00895CF939E
:1019D000DF9320913B0A211110C0EC0167E974E00C
:1019E0008BE39DE00E940B804AE050E0BE018BE358
:1019F0009DE0DF91CF910C940681DF91CF91089506
:101A0000CF93DF9320913B0A211110C0EC0169E8CC
:101A100074E08BE39DE00E940B804AE050E0BE0141
:101A20008BE39DE0DF91CF910C940681DF91CF9104
:101A300008958F929F92AF92BF92CF92DF92EF92D2
:101A4000FF920F931F93CF93DF93E0913B0AE11135
:101A500039C079014A015B01EC016DE774E08BE369
:101A60009DE00E940B804AE050E0BE018BE39DE0C8
:101A70000E94FF8061E576E08BE39DE00E942F806D
:101A80002AE030E0B501A4018BE39DE00E941881BB
:101A900061E576E08BE39DE00E942F802AE030E054
:101AA000B701A8018BE39DE0DF91CF911F910F91CA
:101AB000FF90EF90DF90CF90BF90AF909F908F906E
:101AC0000C943281DF91CF911F910F91FF90EF9095
:101AD000DF90CF90BF90AF909F908F900895CF935D
:101AE000DF93EC01FC0101900020E9F73197E81B3E
:101AF000F90B8881843221F0813211F0803409F5AC
:101B00003797F8F090913B0A91111BC090913C0AD5
:101B1000803449F49923A9F0BE0188ED9DE0DF915E
:101B2000CF910C945480992329F0BE0188ED9DE05B
:101B30000E942F80BE018BE39DE0DF91CF910C943A
:101B40002F80DF91CF910895CF93DF9320913B0AAF
:101B5000211122C0EC0162E774E08BE39DE00E945A
:101B60000B806EE37AE08BE39DE00E942F8063E6BA
:101B700074E08BE39DE00E940B804AE050E0BE01E0
:101B80008BE39DE00E942C816CE574E08BE39DE08B
:101B9000DF91CF910C944280DF91CF910895809195
:101BA0003B0A81110CC06CE474E08BE39DE00E9461
:101BB0000B806EE37AE08BE39DE00C9454800895F3
:101BC0008F92AF92BF92CF92EF92FF920F931F939B
:101BD000CF931F921F9288248A94AA24AA94BA2C85
:101BE000CC24CA9492E5E92E92E0F92E08E512E0A1
:101BF0002AE632E044E650E06BE772E08091E809C3
:101C00009091E9090E94624BB12CA12C24E0C22ED4
:101C100038EFE32E37E0F32E0BE422E849E656EBEB
:101C200061E070E08091E8099091E9090E94B4496F
:101C300046E161E070E08091E8099091E9090E9435
:101C40001A4C64E872E08BE39DE00E9454806FE1DF
:101C50007CE18091E8099091E9090E941E548091ED
:101C6000E8099091E9090E94DF5FC82F60E474E001
:101C70008BE39DE00E940B800F900F90CC23D1F05E
:101C80006BE374E08BE39DE00E94428066E772E0C4
:101C90008EE39AE00E94B99081E080933D0A8C2FF8
:101CA000CF911F910F91FF90EF90CF90BF90AF9089
:101CB0008F90089566E374E08BE39DE00E9442807C
:101CC00010923D0AECCFCF93C62FBC018BE39DE071
:101CD0000E942F804AE050E06C2F8BE39DE00E9431
:101CE0002581C3FF07C06CE274E08BE39DE00E9496
:101CF0000B80C77FC2FF07C062E274E08BE39DE008
:101D00000E940B80CB7FC1FF07C068E174E08BE3CA
:101D10009DE00E940B80CD7FC0FF07C06FE074E0A4
:101D20008BE39DE00E940B80CE7FCC2331F066E0F8
:101D300074E08BE39DE00E940B8062E474E08BE32F
:101D40009DE0CF910C945480FC01DC010D900020AB
:101D5000E9F71197A81BB90B1D97D0F1808181324B
:101D6000A9F581818134A1F58281893489F5838146
:101D7000863571F58481843459F585818D7F8D3464
:101D800039F586818C3221F58781082E000C990B5C
:101D9000C0970A97E8F480858C32D1F48185082EAB
:101DA000000C990BC0970A9798F482858C3281F4C5
:101DB00083858C3231F0082E000C990BC0970A975E
:101DC00038F4BF018BE39DE00C9454808432C9F356
:101DD00008958F929F92AF92BF92CF92DF92EF922F
:101DE000FF920F931F93CF93DF93EC014A015B01A6
:101DF0006901E881F9810190F081E02D19958B82CC
:101E00009C82AD82BE82DA86C986DE011B96F8010D
:101E1000CF01801B910B8E159F0564F0FE01EE0D26
:101E2000FF1DCF018C1B9D0B8C159D0534F4138673
:101E30003196F7CF81918D93EBCFDF91CF911F91A9
:101E40000F91FF90EF90DF90CF90BF90AF909F9059
:101E50008F900895CF92DF92EF92FF920F931F938E
:101E6000CF93DF93CDB7DEB7C95FD1090FB6F89432
:101E7000DEBF0FBECDBF6C01F12CE12C00E010E005
:101E8000980146E06FE0CE0101960E94363C8AE060
:101E9000EDE1F2E0DE01A051BF4F01900D928A9575
:101EA000E1F7B601DD0C880B990B0E94638D2BEDD9
:101EB0003FE049E450E40E94668E0E94258DAB010C
:101EC000161617060CF04AC04F5F5F4F942F342F41
:101ED00032953F702FE0231B842F8F70843008F0E1
:101EE00043C0845FCA50DF4F9883C65FD04090E103
:101EF000299F90011124820F932F911DC750DF4F0E
:101F00008883C95FD0408AE0E82EF12C8E01005111
:101F10001F4F2AE030E040E05FEE61E070E0CE016C
:101F200001960E94E90E50E040E0BE016F5F7F4FD6
:101F30008091E8099091E9090E94E157C750DF4F6D
:101F40000FB6F894DEBF0FBECDBFDF91CF911F91CA
:101F50000F91FF90EF90DF90CF900895672B09F4D9
:101F6000B5CF41505109B2CF883010F48C5FBACF51
:101F70008C3010F48450B6CF8C50B4CFBF92CF9237
:101F8000DF92EF92FF920F931F93CF93DF93CDB722
:101F9000DEB7C75FD1090FB6F894DEBF0FBECDBF65
:101FA000B82EC62ED42EF12CE12C00E010E09801C2
:101FB00046E06FE0CE0101960E94363C88E0E7E201
:101FC000F2E0DE01A051BF4F01900D928A95E1F73A
:101FD000CB50DF4FB882C55FD040CA50DF4FC882B8
:101FE000C65FD040C950DF4FD882C75FD04088E07D
:101FF000E82EF12C8E0100511F4F26E130E040E029
:102000005FEE61E070E0CE0101960E94E90E50E0C3
:1020100040E0BE016F5F7F4F8091E8099091E90930
:102020000E94E157C950DF4F0FB6F894DEBF0FBED4
:10203000CDBFDF91CF911F910F91FF90EF90DF9077
:10204000CF90BF900895DF92EF92FF920F931F936E
:10205000CF93DF93CDB7DEB7C75FD1090FB6F89442
:10206000DEBF0FBECDBFD82EF12CE12C00E010E07A
:10207000980146E06FE0CE0101960E94363C88E070
:10208000EFE2F2E0DE01A051BF4F01900D928A9580
:10209000E1F7CD50DF4FD882C35FD04088E0E82E13
:1020A000F12C8E0100511F4F28E030E048E05FEF37
:1020B00060E070E0CE0101960E94E90E50E040E041
:1020C000BE016F5F7F4F8091E8099091E9090E94FE
:1020D000E157C950DF4F0FB6F894DEBF0FBECDBF3A
:1020E000DF91CF911F910F91FF90EF90DF900895B6
:1020F00081E00C94231080E00C94231081E090E0A8
:1021000090933A0A8093390A4DEF62E081E40C948F
:10211000BE0F82E090E090933A0A8093390A4EEF26
:1021200061E081E40C94BE0F82E090E090933A0A63
:102130008093390A4CED63E281E40C94BE0F82E097
:1021400090E090933A0A8093390A4CEF63E081E47F
:102150000C94BE0F47EF68E081E40C94BE0F49EF8A
:1021600066E081E40C94BE0F48EF67E081E40C94D4
:10217000BE0F4AEF65E081E40C94BE0F4DED62E2C4
:1021800081E40C94BE0F4EED61E281E40C94BE0F2D
:1021900083E090E090933A0A8093390A4EEE61E131
:1021A00081EB0C94BE0FCF9390932108809320086D
:1021B000BC01990F880B990B0E94638DC1E020919F
:1021C0001C0830911D0840911E0850911F080E9464
:1021D000618E18160CF0C0E0C0930A0280E0CF9127
:1021E000089590E080E00C94D3108DED9FEF0C9457
:1021F000D31083E290E00C94D310FC01DC010D902D
:102200000020E9F71197A81BB90B1A9708F18681EE
:102210008C32F1F481858A32D9F48781082E000C42
:10222000990BC0974AE0489F9001499F300D1124B7
:102230008085082E000C990BC097280F391FC90103
:102240008897255031092734310510F40C94D310A8
:1022500080E008950F931F93CF93DF93683071054B
:102260000CF4E6C08B01EC018B81833509F083C04F
:1022700068EA72E0CE010E94D490892B31F0DF91A0
:10228000CF911F910F910C9489106EEB72E0CE01EB
:102290000E94D490892B31F0DF91CF911F910F9143
:1022A0000C94941064ED72E0CE010E94D490892BBE
:1022B00031F0DF91CF911F910F910C949F106AEE36
:1022C00072E0CE010E94D490892B31F0DF91CF9142
:1022D0001F910F910C947E1060E073E0CE010E947C
:1022E000D490892B31F0DF91CF911F910F910C94F5
:1022F000AA1066E173E0CE010E94D490892B31F0E0
:10230000DF91CF911F910F910C94AF106CE273E0AD
:10231000CE010E94D490892B31F0DF91CF911F9193
:102320000F910C94B41062E473E0CE010E94D4903B
:10233000892B31F0DF91CF911F910F910C94B9103F
:1023400068E573E0CE010E94D490892B31F0DF91D3
:10235000CF911F910F910C94BE106EE673E0CE01E9
:102360000E94D490892B09F463C0DF91CF911F9113
:102370000F910C94C310803509F042C064E873E0FB
:10238000CE010E94D490892B31F0DF91CF911F9123
:102390000F910C94C8106AE973E0CE010E94D490AA
:1023A000892B31F0DF91CF911F910F910C94F11097
:1023B00060EB73E0CE010E94D490892B31F0DF9165
:1023C000CF911F910F910C94F51066EC73E0CE0144
:1023D0000E94D490892B31F0DF91CF911F910F9102
:1023E0000C94F9106CED73E0CE010E94D490892B0F
:1023F000F9F0CE01DF91CF911F910F910C94FD1058
:1024000068ED73E08BE39DE00E940B804AE050E0B2
:10241000B8018BE39DE00E94FF8066ED73E08BE3E3
:102420009DE00E940B80BE018BE39DE00E945480E2
:1024300080E0DF91CF911F910F910895CF93DF93AB
:1024400068307105ECF0EC0164EE73E00E94D4900A
:10245000892BB1F46AEF73E0CE010E94D490892BEE
:1024600021F0DF91CF910C9478106CE174E0CE01F3
:102470000E94D490892B21F0DF91CF910C947B1096
:1024800080E0DF91CF910895FC01DC010D900020E8
:10249000E9F71197A81BB90B189798F0808184323F
:1024A00081F48181833569F48281843551F483819B
:1024B000833549F48481853421F481E09581913418
:1024C00059F080E009C08035E1F784818735C9F78C
:1024D00081E095819235A9F70895AB01BC01DC013B
:1024E000CA019D7F8115984EA105B10509F4CFC0A1
:1024F000DB01CA01AE7F81152EEE9207A105B10561
:1025000009F4C5C0463B2EEF52076105710509F479
:10251000BEC08A319F4FA105B10509F4B8C04F3143
:102520008FEF58076105710509F4B1C043369FEF7D
:1025300059076105710509F4AAC045362FEF520706
:102540006105710509F4A3C04F3F8FEF580761057E
:10255000710509F49CC044379FEF59076105710567
:1025600009F495C0DB01CA01977F8131904FA140EA
:10257000B10509F48CC0DB01CA018D7F8431904F15
:10258000A140B10509F483C0433185EF580781E0CC
:102590006807710509F47BC0443198EF590791E051
:1025A0006907710509F473C04A302BEF520721E027
:1025B0006207710509F46BC04B3089EF580781E061
:1025C0006807710509F463C0DB01CA0183509A4FA3
:1025D000A140B1090297A105B10508F458C0DB017B
:1025E000CA019E7F86309A4FA140B10509F44FC0C1
:1025F0004B308AEF580781E06807710509F447C03E
:10260000DB01CA0186509D4FA140B1090397A10586
:10261000B105E8F144369FEF590791E0690771056C
:10262000B1F147362FEF520721E06207710579F1CA
:10263000DB01CA0186579F4FA140B1090297A1054E
:10264000B10528F141158FEF580761057105F9F0C3
:1026500041329FEF590761057105C9F0DB01CA01DD
:102660008450994FA140B1090297A105B10578F0B6
:1026700081E046302FEF520721E06207710549F0F3
:102680004D305F4F6140710521F080E0089581E099
:10269000089508956F342FEF72078105910509F4AD
:1026A00058C068363FEF73078105910509F451C0A2
:1026B00061152DEE720721E08207910509F449C0EA
:1026C000603130EF730731E08307910509F441C0B1
:1026D000653021EF720721E082079105D1F1633166
:1026E00031EF730731E08307910599F1693121EFEB
:1026F000720721E08207910561F1633035EF7307BE
:1027000031E08307910529F1693028EF720721E054
:1027100082079105F1F0633039EF730731E08307E9
:102720009105B9F061302BEF720721E08207910526
:1027300081F021E064363FEF730731E083079105B4
:1027400031F061317E4F8140910509F020E0822F08
:10275000089521E0FCCFEF92FF920F931F93CF9348
:10276000DF93CDB7DEB7DA950FB6F894DEBF0FBEB4
:10277000CDBF20913B0A10E000E0211117C07C0181
:102780000E94B783AB01BC0100E011E09E012F5F06
:102790003F4FC7010E944E6D8C01089738F0BE0173
:1027A0006F5F7F4F8BE39DE00E945480C801D395FB
:1027B0000FB6F894DEBF0FBECDBFDF91CF911F9152
:1027C0000F91FF90EF9008954F925F926F927F92DA
:1027D0008F929F92AF92BF92CF92DF92EF92FF9231
:1027E000CF93DF9300D000D01F921F92CDB7DEB7FA
:1027F0002A013B01BC01990F880B990B0E94638D44
:1028000069837A838B839C83A30192010E94418C0C
:102810006B017C0120E030E0A9010E94618E46013D
:102820005701181624F0B7FAB094B7F8B09420E026
:1028300030E048E151E4C701B6010E94668E6B01A9
:102840007C0120E030E04CE052E40E94618E1816DA
:102850000CF442C020E030E04CE052ECC701B6017D
:102860000E94AE8C87FF06C0C12CD12C7CE0E72EE5
:1028700072ECF72E8091220890912308A0912408F1
:10288000B09125088D839E83AF83B88720E030E028
:1028900040E05FE3BC01CD010E94428CA5019401A0
:1028A0000E94618E1816FCF490E080E028960FB626
:1028B000F894DEBF0FBECDBFDF91CF91FF90EF90B8
:1028C000DF90CF90BF90AF909F908F907F906F9050
:1028D0005F904F900C942A0FC12CD12C6CE0E62E07
:1028E00062E4F62EC7CF2AE939E949E95FE36D8151
:1028F0007E818F8198850E94428CA50194010E945F
:10290000618E18160CF04AC020E030E040EC50E434
:10291000C701B6010E94618E18160CF120E030E06C
:1029200040EC50ECC701B6010E94AE8CA3019201AD
:1029300087FD97C069817A818B819C810E94618E1D
:1029400018169CF420E030E0A901C701B6010E94EE
:10295000AE8C87FF0AC0C12CD12C760119C0C12CC6
:10296000D12C50ECE52E50E4F52EA30192016981A3
:102970007A818B819C810E94AE8C87FF09C020E008
:1029800030E0A901C701B6010E94618E18161CF340
:10299000C701B6010E94258DCB0188CF26E636E619
:1029A00046EE5FE36D817E818F8198850E94428C27
:1029B000A50194010E94618E181614F520E030E004
:1029C00040E951E4C701B6010E94618E18168CF0EF
:1029D00020E030E040E951ECC701B6010E94AE8C26
:1029E00087FFD6CFC12CD12C40E9E42E41ECF42E48
:1029F000CFCFC12CD12C30E9E32E31E4F32EC8CF58
:102A00002AE939E949E150E46D817E818F81988519
:102A10000E94428CA50194010E94618E18160CF44C
:102A2000B7CF20E030E0A901C701B6010E94618E56
:102A3000181684F020E030E0A901C701B6010E9419
:102A4000AE8C87FFA5CFC12CD12C2CE0E22E22EC3E
:102A5000F22E9ECFC12CD12C9CE0E92E92E4F92ECF
:102A600097CF69817A818B819C810E94618E181633
:102A70000CF471CFC12CD12C80ECE82EFE2C88CF29
:102A8000CF92DF92EF92FF920F931F93CF93DF933A
:102A900000D000D000D01F921F92CDB7DEB78E01BC
:102AA0000F5F1F4F9E01275F3F4FAE01455F5F4F96
:102AB000BE016B5F7F4F0E94B137882309F489C044
:102AC000CD80DE80EF80F88428E23BE64EE65EECC7
:102AD000C701B6010E94AE8C882381F020E030E06F
:102AE00044E353E4C701B6010E94668E2BED3FE03C
:102AF00049E450E40E94B38C6B017C01C0921C0835
:102B0000D0921D08E0921E08F0921F08C701B6017E
:102B10000E94258D8AE298E00E949F09882309F48B
:102B200058C08091370A9091380A039709F051C034
:102B30008091390A90913A0A039709F04AC040916E
:102B40001C0850911D0860911E0870911F0820916B
:102B50000A0280912008909121080E94E41320919C
:102B60001C0830911D0840911E0850911F0860916B
:102B70000C0870910D0880910E0890910F080E942A
:102B8000418C6B017C0120E030E040E05FE30E947B
:102B9000618E181654F020E030E040E05FEBC70192
:102BA000B6010E94AE8C87FF14C08AE298E00E94B2
:102BB000B90980911C0890911D08A0911E08B09140
:102BC0001F0880930C0890930D08A0930E08B093F3
:102BD0000F082B960FB6F894DEBF0FBECDBFDF9166
:102BE000CF911F910F91FF90EF90DF90CF900895BC
:102BF000CF92DF92EF92FF920F931F93CF93DF93C9
:102C000000D000D000D0CDB7DEB719861E821D825D
:102C100019821A821B821C828E010F5F1F4F9E0138
:102C20002B5F3F4FAE01495F5F4FBE01675F7F4F34
:102C30000E94A3388823C1F1C980DA80EB80FC8030
:102C400028E23BE64EE65EECC701B6010E94AE8C80
:102C5000882351F120E030E044E353E4C701B6019A
:102C60000E94668E2BED3FE049E450E40E94B38C55
:102C70006B017C0120E030E044EB52EC0E94618E5D
:102C800087FD12C020E030E044EB52E4C701B601FA
:102C90000E94AE8C87FF08C0C0923208D0923308E1
:102CA000E0923408F092350829960FB6F894DEBF0A
:102CB0000FBECDBFDF91CF911F910F91FF90EF908D
:102CC000DF90CF900895CF92DF92EF92FF920F9313
:102CD0001F93CF93DF93CDB7DEB72F970FB6F8943E
:102CE000DEBF0FBECDBF1F8619861A861B861C86C7
:102CF0001D821E821F82188619821A821B821C82E4
:102D00009E01235F3F4F79018E010F5F1F4F2850B7
:102D10003109AE01475F5F4FBE01615F7F4F0E9487
:102D20001E38882321F1C984DA84EB84FC8428E2EC
:102D30003BE64EE65EECC701B6010E94AE8C8823EE
:102D400081F020E030E044E353E4C701B6010E9483
:102D5000668E2BED3FE049E450E40E94B38C6B019A
:102D60007C01B701A6018AE298E00E94F5062F9641
:102D70000FB6F894DEBF0FBECDBFDF91CF911F918C
:102D80000F91FF90EF90DF90CF900895CF92DF9258
:102D9000EF92FF92CF93DF93EC0189859A85089794
:102DA00009F05AC08B858B3309F056C08C858F395A
:102DB00009F052C08D858F3F09F04EC08E858F3F40
:102DC00009F04AC08F858F3F09F046C0698970E0DD
:102DD00090E080E00E94618D20E030E040E853E424
:102DE0000E94668E6B017C01688970E090E080E053
:102DF0000E94618D9B01AC01C701B6010E94428C0B
:102E000020E030E044EB53E40E94668E29EF3FE07F
:102E100049E450E40E94B38C20E030E44CE956E4ED
:102E20000E94B38C20E030E040E05FE30E94428CDF
:102E30000E94258D6B018091370A9091380A029784
:102E400091F4C6010E94E70C10920B0810920A0838
:102E5000D0920908C0920808DF91CF91FF90EF90BF
:102E6000DF90CF9008958091080890910908C816C6
:102E7000D90639F780910A0890910B0886309105A0
:102E800004F7019690930B0880930A08E1CF8F9284
:102E90009F92AF92BF92CF92DF92EF92FF920F93E9
:102EA0001F93CF93DF93CDB7DEB72D970FB6F8946E
:102EB000DEBF0FBECDBF1D8619861A861B861C86F7
:102EC0001D821E821F8218868E010F5F1F4F9E017A
:102ED0002B5F3F4FAE01475F5F4FBE01635F7F4F88
:102EE0000E940C39882309F448C08D809E80AF80F1
:102EF000B884C984DA84EB84FC8428E23BE64EE69D
:102F00005EECC501B4010E94AE8C8823F1F020E094
:102F100030E0A901C501B4010E94AE8C8823A9F05C
:102F200028E23BE64EE65EECC701B6010E94AE8C9D
:102F3000882319F1A7019601C501B4010E94428CB2
:102F40002FEB3EE04CE95EE310C028E23BE64EE6A4
:102F50005EECC701B6010E94AE8C882371F02FEBA6
:102F60003EE04CE95EE3C701B6010E94B38CAB01C1
:102F7000BC018AE298E00E9424042D960FB6F894D2
:102F8000DEBF0FBECDBFDF91CF911F910F91FF909C
:102F9000EF90DF90CF90BF90AF909F908F9008956B
:102FA000CF92DF92EF92FF920F931F93CF93DF9315
:102FB00000D000D000D01F921F92CDB7DEB71B8685
:102FC0001D821E821F82188619821A821B821C8211
:102FD0008E010F5F1F4F9E012B5F3F4FAE01475F7A
:102FE0005F4FBE01655F7F4F0E94D9398823B1F1E1
:102FF000CD80DE80EF80F88428E23BE64EE65EEC92
:10300000C701B6010E94AE8C882381F020E030E039
:1030100044E353E4C701B6010E94668E2BED3FE006
:1030200049E450E40E94B38C6B017C01B701A60116
:103030008AE298E00E940708882381F021EA32EBB7
:1030400043E05FE369817A818B819C810E94B38C2C
:10305000AB01BC018AE298E00E9436082B960FB6BD
:10306000F894DEBF0FBECDBFDF91CF911F910F91BE
:10307000FF90EF90DF90CF900895CF92DF92EF9284
:10308000FF920F931F93CF93DF9300D000D000D017
:103090001F921F92CDB7DEB71D821E821F82188637
:1030A00019821A821B821C828E01075F1F4F9E01AC
:1030B0002F5F3F4FAE014B5F5F4FBE01655F7F4F9C
:1030C0000E94693B8823A1F125EE3FEC48EF5FE3C6
:1030D0006D817E818F8198850E94668EAB01BC01D7
:1030E0008AE298E00E949E05C980DA80EB80FC802D
:1030F00028E23BE64EE65EECC701B6010E94AE8CCC
:10310000882381F020E030E044E353E4C701B601B6
:103110000E94668E2BED3FE049E450E40E94B38CA0
:103120006B017C01B701A6018AE298E00E949D0430
:103130002B960FB6F894DEBF0FBECDBFDF91CF91B7
:103140001F910F91FF90EF90DF90CF9008950F9314
:103150001F93CF93DF9300D000D01F921F92CDB763
:10316000DEB71D821E821F82188619821A821B8278
:103170001C82AE014F5F5F4FBE016B5F7F4F0E94AD
:103180008139882361F009811A812B813C814D812D
:103190005E816F8178858AE298E00E94D505289645
:1031A0000FB6F894DEBF0FBECDBFDF91CF911F9158
:1031B0000F9108958F929F92AF92BF92CF92DF921C
:1031C000EF92FF920F931F93CF93DF93CDB7DEB7AC
:1031D000AD970FB6F894DEBF0FBECDBF1DA61AA6E1
:1031E00019A61D8E1E8E1F8E18A2198E1A8E1B8E6A
:1031F0001C8E1D8A1E8A1F8A188E198A1A8A1B8A9B
:103200001C8A1D861E861F86188A19861A861B86AA
:103210001C861D821E821F8218861BA61AA219A256
:1032200019821A821B821C829E012F5F3F4F3F939F
:103230002F93205E3F4F3F932F932E5F3F4F3F933F
:103240002F93285F3F4F3F932F93265231093F938F
:103250002F932C5F3F4F3F932F932C5F3F4F3F9314
:103260002F93215E3F4F3F932F9327503109490100
:103270002E5F3F4F59012651310969012C5F3F4FA5
:1032800079018E01075E1F4F285F3F4FAE01475DFA
:103290005F4FBE01635D7F4F0E94463A0FB6F894C0
:1032A000DEBF0FBECDBF882321F1C98CDA8CEB8C39
:1032B000FC8C20E034E244E759ECC701B6010E94DF
:1032C000AE8C87FD16C08D889E88AF88B88C20E0B4
:1032D00034E244E759ECC501B4010E94AE8C87FD8D
:1032E00008C095018401B701A6018AE298E00E9416
:1032F000D505AD960FB6F894DEBF0FBECDBFDF91FA
:10330000CF911F910F91FF90EF90DF90CF90BF90E2
:10331000AF909F908F900895CF92DF92EF92FF929F
:10332000CF93DF93EC0190E080E00E94618D20E07C
:1033300030E040E853E40E94668E6B017C01BE01E0
:1033400090E080E00E94618D9B01AC01C701B60155
:103350000E94428C20E030E044EB53E40E94668EF1
:1033600029EF3FE049E450E40E94B38C20E030E4D0
:103370004CE956E40E94B38C20E030E040E05FE38B
:103380000E94428C0E94258DCB01DF91CF91FF904E
:10339000EF90DF90CF9008954F925F926F927F925F
:1033A0008F929F92AF92BF92CF92DF92EF92FF9255
:1033B0000F931F93CF93DF931F921F92CDB7DEB76A
:1033C000FC0183819481A581B68180339F4FA14008
:1033D000B10509F04AC08185928541970CF445C03A
:1033E00083858B3309F041C084858F39F1F56F01F6
:1033F0001A821982BE016F5F7F4FCF010E947D3C10
:1034000089819A8105969A83898318E2E12E1BE6C9
:10341000F12E0EE61EEC9E012F5F3F4F4AE057ED66
:1034200063E27CE3C6010E94AF424B015C01F601FE
:10343000028D10E0102F0027818D080F111D608D67
:1034400070E0878990E00E948C196C012801110FAF
:1034500066087708C501B4010E942C8DAB01BC0140
:1034600093018201C6010E94190D0F900F90DF9108
:10347000CF911F910F91FF90EF90DF90CF90BF9071
:10348000AF909F908F907F906F905F904F90089536
:103490000F931F93CF93DF93EBE2FAE01382128234
:1034A00088EE93E0A0E0B0E084839583A683B783A1
:1034B00084E696E091838083EBE1FAE088E290E095
:1034C0009183808348EC50E060E070E04283538356
:1034D0006483758380E293E0A0E0B0E08683978305
:1034E000A087B187EBE0FAE029E230E03183208366
:1034F000428353836483758386839783A087B187D0
:10350000EBEFF9E02AE230E03183208342835383FA
:103510006483758386839783A087B187EBEEF9E098
:103520002BE230E0318320834283538364837583AD
:1035300086839783A087B18765E38AEE99E00E942E
:10354000107B8EE490E00E946783EC0102E310E0C0
:1035500025E142E065E30E946B35D093E909C09311
:10356000E8098AEC99E00E94EE2E8DEA99E00E942B
:10357000EE2E8CE499E00E94B92C8BEE98E00E942C
:10358000B92C8AE898E00E94B92CEAE2F8E010929F
:1035900073081092720810927508109274081092B5
:1035A0007708109276081092790810927808109295
:1035B0007B0810927A0810927D0810927C08109275
:1035C0007F0810927E081092810810928008109255
:1035D0008308109282081092850810928408109235
:1035E0008708109286081092890810928808108225
:1035F000118212821382148215821682178280E051
:1036000090E0A0E4B0EC80879187A287B38714860E
:10361000158616861786108A118A128A138A158AC9
:10362000148A178A168A118E108E80E4828F148E67
:10363000138E168E158E10A2178E81A312A213A2BE
:1036400014A215A216A217A210A611A612A613A6BE
:1036500014A615A617A616A660E977E08AE598E0F5
:103660000E94CD9060E977E086E698E0DF91CF9107
:103670001F910F910C94CD9084E696E090932C0AC4
:1036800080932B0A0C94F6316AEC74E08BE39DE096
:103690000E9442808BE39DE00C94E27D68EB74E035
:1036A0008BE39DE00E9442808BE39DE00C94E27DE1
:1036B00066EA74E08BE39DE00E9442808BE39DE02C
:1036C0000C94E27D80913B0A81112DC08091390AD2
:1036D00090913A0A2091370A3091380A821793075D
:1036E00039F085E090E090931B0880931A080895C4
:1036F00020911A0830911B0821153105A1F02150A5
:10370000310930931B0820931A088230910511F477
:103710000C94441B8330910511F40C944E1B0197BB
:1037200011F40C94581B0895CF93DF93EC018B8117
:103730009C81AD81BE8181159F4EA140B105F9F4F8
:1037400089859A850897DCF08B858B33C1F48C854D
:103750008F39A9F48D85803F91F48E85813879F475
:103760008F85843809F04FC08B8980FF0BC00E9481
:103770004E1B83E090E09093380A8093370ADF91E4
:10378000CF91089581FF3AC00E94441B82E090E0EF
:103790009093380A8093370A8B896EE173E082FD3B
:1037A00002C06CE073E08BE39DE00E9442808B8955
:1037B0006AEF72E083FD02C067EE72E08BE39DE08A
:1037C0000E94428089898295869586958370CA89F0
:1037D000C695D0E09AE5899FC00DD11D112468EDF2
:1037E00072E08BE39DE00E940B804AE050E0BE0156
:1037F0008BE39DE0DF91CF910C9406810E94581BD2
:1038000081E090E0C5CF8D3A09F0B9CF8889833047
:1038100009F0B5CF6989062E000C770B880B990B40
:103820000E94638D2BED3FE049E450E40E94B38C8D
:103830000E94258DCB01DF91CF910C94000DCF928A
:10384000DF92EF92FF92CF93DF93EC01CB80DC808D
:10385000ED80FE8080911408909115088A309105C2
:1038600028F401969093150880931408C701B601B7
:103870000E944A13811114C1C701B6010E946D1242
:1038800081110EC18BEE99E00E94000C88E0C816F1
:103890008FEFD806E104F10409F402C180E5C816EF
:1038A0008FEFD806E104F10449F4CE01DF91CF9106
:1038B000FF90EF90DF90CF900C94C616C1148FEE5E
:1038C000D80681E0E806F10449F4CE01DF91CF91FA
:1038D000FF90EF90DF90CF900C94941B8DE0C81672
:1038E00081EFD80681E0E806F10469F48F8188232E
:1038F00009F4D6C0CE01DF91CF91FF90EF90DF9019
:10390000CF900C94401582E1C81681EFD80681E073
:10391000E806F10469F48F81882309F4C1C0CE015F
:10392000DF91CF91FF90EF90DF90CF900C946316D2
:103930008AE1C81681EFD80681E0E806F10449F46F
:10394000CE01DF91CF91FF90EF90DF90CF900C945C
:10395000F8158BE0C81685EFD80681E0E806F1047B
:1039600049F4CE01DF91CF91FF90EF90DF90CF909F
:103970000C94471781E0C81688EFD80681E0E80666
:10398000F10449F4CE01DF91CF91FF90EF90DF90E9
:10399000CF900C94A71882E0C81688EFD80681E073
:1039A000E806F10449F4CE01DF91CF91FF90EF904A
:1039B000DF90CF900C94D01785E0C81688EFD8061A
:1039C00081E0E806F10449F4CE01DF91CF91FF9048
:1039D000EF90DF90CF900C94DA1882E0C8168DEF4C
:1039E000D80681E0E806F10449F4CE01DF91CF91D9
:1039F000FF90EF90DF90CF900C943D18D701C60157
:103A00008E50984FA140B1090297A105B10548F425
:103A1000CE01DF91CF91FF90EF90DF90CF900C948B
:103A2000AB1382E0C8168BEFD80681E0E806F104FC
:103A300079F3D701C60181519B4FA140B10902978B
:103A4000A105B10528F380E3C8168FEFD80681E001
:103A5000E806F10449F4CE01DF91CF91FF90EF9099
:103A6000DF90CF900C94CC1980913B0A811118C043
:103A70006AE574E08BE39DE00E942F802AE030E04D
:103A8000B701A6018BE39DE00E9418816FE274E00C
:103A90008BE39DE00E942F8080910C028111B8CFB2
:103AA000DF91CF91FF90EF90DF90CF9008956F92CC
:103AB0007F928F929F92AF92BF92CF92DF92EF92BE
:103AC000FF920F931F93CF93DF934C01FC01C181B1
:103AD000CF70D0E0239685E0C82ED12C6624639465
:103AE0008EEF9AE00E944F7D7C01540191E0E11439
:103AF000F10459F08EEF9AE00E942A3363E070E0FF
:103B000080E090E00E94E883EBCF81E0EC16FD06B8
:103B10000CF480E0792E7624782A41F5F5010191A4
:103B20005F0110E0E114F10409F41160B8018EEFB7
:103B30009AE00E94503363E070E080E090E00E94E1
:103B4000E8838EEF9AE00E944F7D892B51F08EEF33
:103B50009AE00E942A33772473948017910709F022
:103B6000712CFFEFEF1AFF0A972DCFCF911112C0E2
:103B700022E330E040E050E062E070E080E090E07E
:103B80000E9437830E94E88381E0C81AD10809F0B7
:103B9000A7CF712C872DDF91CF911F910F91FF90AF
:103BA000EF90DF90CF90BF90AF909F908F907F90DD
:103BB0006F90089580911808909119080A9720F045
:103BC0008EED94E00C94571D0895CF93DF930FB6BC
:103BD000F894A895809160008861809360001092AD
:103BE00060000FBE87EF84BF88E19EE00FB6F894B7
:103BF000A895809360000FBE9093600062E872E029
:103C00008EE39AE00E94CD9064E674E08EE39AE041
:103C10000E94B99066E674E08EE39AE00E94B99043
:103C200061E08DE00E94CE8461E087E00E94CE8456
:103C300061E08DE00E940A858BE19AE00E94ED0B25
:103C40008BE09AE00E94ED0B8BEF99E00E94ED0B68
:103C50008BEE99E00E94ED0B26E040E052EC61E033
:103C600070E08BE39DE00E94497E40EC52E160E011
:103C700070E08EEF9AE00E941C3345E050E060E077
:103C800070E08EEF9AE00E94448140EC52E160E0E7
:103C900070E08BE19CE00E941C3345E050E060E066
:103CA00070E08BE19CE00E94448126E040EC52E110
:103CB00060E070E088ED9DE00E94497E61EA71E07D
:103CC00080E090E00E94B12F64B789E694E00E9402
:103CD000630EA8958AEE99E00E94AC7C0E94E00DEC
:103CE0008093E709A895C6E0D0E00E94CF0D64E676
:103CF00070E080E090E00E94E8832197B1F7A895FA
:103D0000A89581E090E09093260A8093250A61E0CF
:103D100080911B0A0E940A858EED94E0DF91CF917D
:103D20000C94571D6F927F928F929F92AF92BF9289
:103D3000CF92DF92EF92FF920F931F93CF93DF9377
:103D40004C01FC01C181CF70D0E0239685E0C82EE4
:103D5000D12C662463948BE19CE00E944F7D7C0112
:103D6000540191E0E114F10459F08BE19CE00E94D0
:103D70002A3363E070E080E090E00E94E883EBCFBC
:103D800081E0EC16FD060CF480E0792E7624782A8A
:103D900041F5F50101915F0110E0E114F10409F42E
:103DA0001160B8018BE19CE00E94503363E070E049
:103DB00080E090E00E94E8838BE19CE00E944F7DD0
:103DC000892B51F08BE19CE00E942A337724739475
:103DD0008017910709F0712CFFEFEF1AFF0A972D5A
:103DE000CFCF911112C022E330E040E050E062E01A
:103DF00070E080E090E00E9437830E94E88381E0D9
:103E0000C81AD10809F0A7CF712C872DDF91CF9167
:103E10001F910F91FF90EF90DF90CF90BF90AF90E8
:103E20009F908F907F906F90089580911608909149
:103E300017080A9720F08BED94E00C94921E0895D9
:103E40000F931F93CF93DF93CDB7DEB7C351D1400C
:103E50000FB6F894DEBF0FBECDBF8BEF99E00E9486
:103E6000000C8BEE98E00E94BD2D8C010E946F0D1E
:103E700066E576E0C8010E94AB0C882399F0B80192
:103E8000CE0101960E948C2B80913D0A811105C0C4
:103E9000CE018F5F9E4F0E94571DCE018F5F9E4FB8
:103EA0000E94921ECD5EDE4F0FB6F894DEBF0FBEAD
:103EB000CDBFDF91CF911F910F9108958BE29AE0D2
:103EC0000E94912F18161906BCF48BE29AE00E940A
:103ED000682F682F8BEE98E00E94CA2C81309105E4
:103EE00011F40C94201F0297029730F48BEE98E0A7
:103EF0000E94BD2D0C94A40E08950F931F93CF9391
:103F0000DF93CDB7DEB7C351D1400FB6F894DEBF13
:103F10000FBECDBF8BEF99E00E94000C809112087C
:103F2000909113088A30910528F401969093130814
:103F3000809312088AE898E00E94B22D8C010E94BA
:103F40006F0D66E576E0C8010E94AB0C882399F0FE
:103F5000B801CE0101960E948C2B80913D0A8111FF
:103F600005C0CE018F5F9E4F0E94571DCE018F5F0F
:103F70009E4F0E94921ECD5EDE4F0FB6F894DEBFBC
:103F80000FBECDBFDF91CF911F910F9108958BE1AF
:103F90009CE00E944F7D892B71F08BE19CE00E9498
:103FA0002A3397FD08C0BC018DEA99E00E94F82EE3
:103FB00081110C945D0C0895CF92DF92EF92FF92E5
:103FC0000F931F93CF93DF938EEF9AE00E944F7D64
:103FD000892B09F475C38EEF9AE00E942A3397FD6E
:103FE0006FC3BC018AEC99E00E94F82E882309F483
:103FF00067C38BE19AE00E94000C809118089091B1
:1040000019088A30910528F4019690931908809335
:1040100018088AEC99E00E945C2FEC018AEC99E088
:104020000E94522FBE010E94872EEC010E94832E17
:104030008C018AEC99E00E945C2F7C0180910B023C
:10404000882371F0CE010E94812E892B49F088814E
:10405000998103972CF0CE010E94812E0E94921E1E
:104060000115110599F525E0E216F10409F56E81B7
:10407000862F90E0982F88276D81680F792F711D0A
:10408000072E000C880B990B0E94638D20E030E016
:1040900040E251E40E94B38CAB01BC018AE298E09B
:1040A0000E942404882321F08AE298E00E945C04A4
:1040B000209709F405C3CE01DF91CF911F910F9195
:1040C000FF90EF90DF90CF900C946B83053011053B
:1040D00079F30031110519F534E0E316F10441F7E5
:1040E0006C8170E0762F6627072E000C880B990BE9
:1040F0002D81622B0E94618D20E030E040E05FE383
:104100000E94668EAB01BC018AE298E00E949D0489
:10411000882371F28AE298E00E943905C9CF013103
:10412000110581F584E0E816F10411F61C816D811A
:104130006F7070E090E080E00E94638D20E030E0DE
:1041400040E251E40E94B38C6B017C01612F6F77D8
:1041500070E090E080E00E94638D9B01AC01C7019C
:10416000B6010E94428C17FF06C022EA32EB43E000
:104170005FE30E94B38CAB01BC018AE298E00E942D
:104180009E05C6CF0032110509F492CFC80183976E
:104190008230910508F48CCF03978230910508F4A2
:1041A00087CF8A97029708F483CF0235110561F50E
:1041B00024E0E216F10409F07BCF6D81862F90E0B8
:1041C000982F88276C81680F792F711D072E000C9E
:1041D000880B990B0E94638D20E030E040E251E4AF
:1041E0000E94B38CAB01BC018AE298E00E943608C1
:1041F000882309F45DCF8AE298E00E946E088AE283
:1042000098E00E94DF0854CF0335110509F06EC015
:1042100033E0E316F10409F04BCF0B8110E084E0AA
:10422000159507958A95E1F76C816F7370E090E0C2
:1042300080E00E94638D9B01AC010E94428C6B0167
:104240007C01B80163707727072E000C880B990B4F
:104250000E94638D20E030E044EB52E40E94668EC1
:104260009B01AC01C701B6010E94428C6B017C012D
:10427000B8016C707727072E000C880B990B0E94F1
:10428000638D20E030E040E05EE30E94668E9B019B
:10429000AC01C701B6010E94428C6B017C01AC01EC
:1042A0009B01609150087091510880915208909143
:1042B00053080E94418C9F7720E030E044E354E4AF
:1042C0000E94AE8C87FFF4CE20E030E044EB53E454
:1042D000C701B6019F770E94AE8C87FFE9CEB70178
:1042E000A6018AE298E00E94070882CF04351105F2
:1042F00009F04DC084E0E816F10409F0D9CE3D8103
:10430000832F90E048970CF0D3CE8C81482F4695B0
:1043100046954C3308F0CCCE20E1829FC001112499
:1043200099272B8122952F70822B8F7399278C339D
:1043300091050CF0BDCE9F938F931F924F931F92C8
:104340003F9381E794E09F938F9386E698E09F9355
:104350008F930E942B9180918808909189080696EE
:1043600090938908809388082DB73EB7265F3F4F0A
:104370000FB6F8943EBF0FBE2DBF07970CF498CE32
:1043800086E090E0909389088093880891CE063566
:10439000110509F046C034E0E316F10409F088CEB7
:1043A0009C818FEF890F8F3108F082CE8B818295AF
:1043B0008F702FEF280F2C3008F07ACE2D81422FEE
:1043C00050E0433151050CF473CE1F922F931F928E
:1043D0008F931F929F9381E794E09F938F938AE539
:1043E00098E09F938F930E942B91809186089091E3
:1043F0008708449690938708809386082DB73EB728
:10440000265F3F4F0FB6F8943EBF0FBE2DBF4597B6
:104410000CF44ECE84E190E0909387088093860858
:1044200047CE0735110509F443CE0835110561F46F
:1044300038E0E316F10419F4CE010E941E0A8AE264
:1044400098E00E94C00634CE0935110509F430CE3B
:104450000238110509F42CCE0438110509F073C097
:104460002B81822F90E0B4E095958795BA95E1F77E
:10447000837099273AE5389FA001399F500D112488
:104480006C816F7370E0660F771F640F751F220FCA
:10449000611D711D072E000C880B990B0E94638D06
:1044A00060934C0870934D0880934E0890934F088A
:1044B00080917E0890917F08029690937F08809368
:1044C0007E08039734F082E090E090937F08809319
:1044D0007E0880913B0A8111EBCD8E8181FF2EC039
:1044E0000E94441B82E090E09093380A8093370A40
:1044F0008E8166E673E082FD02C064E573E08BE3C3
:104500009DE00E9442808E8162E473E083FD02C0E0
:104510006FE273E08BE39DE00E9442802C81229544
:104520002695269523708D81869590E03AE5239F08
:10453000800D911D11240E94E70CBACD0E94581BDA
:1045400081E090E0D1CFC80185589109029708F425
:10455000AFCD09381105B9F585E0E816F10409F089
:10456000A7CD2B81822F90E0F4E095958795FA9561
:10457000E1F7837099273DE2389FA001399F500DE4
:1045800011246C816F73640F752F711D660F771F77
:10459000220F611D711D072E000C880B990B0E94C4
:1045A000638DAB01BC018AE298E00E94F506882386
:1045B00009F47ECD8AE298E00E942C078AE298E016
:1045C0000E94780720C00039110509F471CD09391E
:1045D0001105F1F423E0E216F10409F069CD6C81D4
:1045E00070E06A3571050CF063CD072E000C880B66
:1045F000990B0E94638D6093320870933308809307
:104600003408909335088AE298E00E94BB0750CDA9
:104610000C39110509F04CCD34E0E316F10409F032
:1046200047CD2B81822F90E034E0959587953A9580
:10463000E1F7837099273AE5389FA001399F500D23
:1046400011246C816F7370E0660F771F640F751F04
:10465000220F611D711D072E000C880B990B0E9403
:10466000638DAB01BC018AE298E00E94F5068823C5
:1046700009F41ECD6D8170E0603871050CF07A95FB
:104680008AE298E00E949F09882309F411CD6D8188
:1046900070E0603871050CF07A95072E000C880BDD
:1046A000990B0E94638D60931C0870931D08809382
:1046B0001E0890931F088AE298E00E94B9097ACFF9
:1046C000DF91CF911F910F91FF90EF90DF90CF90EE
:1046D000089588ED9DE00E944F7D892BC9F088EDFB
:1046E0009DE00E94697D97FD13C0682F8AE898E0DD
:1046F0000E94CA2C8130910511F40C947D1F029701
:10470000029730F48AE898E00E94BD2D0C94A40E24
:1047100008952F923F924F925F926F927F928F9265
:104720009F92AF92BF92CF92DF92EF92FF920F9340
:104730001F93CF93DF93CDB7DEB7CA51D1400FB6E9
:10474000F894DEBF0FBECDBF1E012CEE221A2EEF55
:10475000320AC12CD12C80E4E82EFE2C812C912C25
:1047600090E8A92E90E4B92E412C512C20E8622E1D
:104770002FE3722E8BE39DE00E944F7D892B71F118
:104780008BE39DE00E94697D682F8CE499E00E9494
:10479000CA2C8130910509F009C18CE499E00E948E
:1047A000B22D8C018CE499E00E94BE2D0797B4F0E5
:1047B000D801BC91C65EDE4FB883CA51D140B13238
:1047C00039F580913B0A811109C080913C0A882308
:1047D00029F0B80188ED9DE00E942F80C65EDE4F73
:1047E0000FB6F894DEBF0FBECDBFDF91CF911F9102
:1047F0000F91FF90EF90DF90CF90BF90AF909F9080
:104800008F907F906F905F904F903F902F90089582
:10481000C8010E944412882381F180913D0A8111D0
:104820001CC080911808909119080A9708F4A2CF2B
:10483000B801CE0101960E948C2BCE018F5F9E4F56
:104840000E94571D6EE774E08BE39DE00E94548048
:104850008BE39DE00E94E27D8DCF809114089091C2
:1048600015080A9708F486CF8CE499E00E94BE2DC3
:10487000BC01C8010E942A11E5CFC65EDE4FE88167
:10488000CA51D140E43209F075CF68E874E0C8013C
:104890000E94C30C882349F08CE499E00E94BE2D4D
:1048A000BC01C8010E941E1265CF6EE874E0C80109
:1048B0000E94C30C882321F0F1E0F0933B0A5ACF09
:1048C00064E974E0C8010E94C30C882309F452CF44
:1048D000F80101900020E9F73197E01BF10B3997BF
:1048E00008F448CF6AE974E08BE39DE00E942F80D2
:1048F000D80117968C91282F082E000C330B3F936C
:104900008F93E9EAF4E0FF93EF931F9286E08F9391
:104910003F922F920E94EE90B1018BE39DE00E94A6
:1049200054800FB6F894DEBF0FBECDBFF80187816B
:10493000823331F174F48033D1F0813309F01ACF2E
:104940004092220850922308609224087092250811
:1049500011CF833311F1843309F00CCF80922208F8
:1049600090922308A0922408B092250803CF1092B9
:104970002208109223081092240810922508FACEDB
:1049800080E090E0A0E0B0E48093220890932308B8
:10499000A0932408B0932508EDCEC0922208D092AF
:1049A0002308E0922408F0922508E4CE8230910595
:1049B000B1F48CE499E00E94B22D0E944412882345
:1049C00009F40CCF64EB73E08BE39DE00E9442801E
:1049D0006AEA73E08BE39DE00E94428039CF03973F
:1049E00009F0C8CE8CE499E00E94B22D0E944412D6
:1049F000882309F4F3CE61E873E08BE39DE00E9425
:104A0000428067E773E0E6CFA8950E94DC1F0E9412
:104A1000C71F0E9489230E9469230E945E1F809104
:104A2000E709882331F08091E8099091E9090E9413
:104A3000986C8091100890911108813A2FE09207AC
:104A400094F10E94621B8AE298E00E94FC09109295
:104A500011081092100880912808909129088F3130
:104A60009105B0F00E94DA1D0E94151F8091260862
:104A7000909127089C012F5F3F4F30932708209388
:104A800026080E94A40D1092290810922808089563
:104A90000196909329088093280861E080FF60E0E8
:104AA0008DE00C940A85019690931108809310086C
:104AB000803D974031F40E94621B8AE298E00C949A
:104AC000FA0908950F931F93CF93DF938C01EC01A4
:104AD00009900020E9F72197C81BD90BBE0161504E
:104AE000710901960E94CF2DF801EC0FFD1F2AE2FB
:104AF00020839F938F938BE596E09F938F93CE01B6
:104B00000196800F911F9F938F930E942B910F907E
:104B10000F900F900F900F900F90CE0103966EE8BC
:104B200077E0800F911FDF91CF911F910F910C942F
:104B3000CD9020E031E0FC01A9011192415050409C
:104B4000E1F7089508958F929F92AF92BF92CF920E
:104B5000DF92EF92FF920F931F93CF93DF93D82FA3
:104B6000C92F6A017B014801590120E030E040E291
:104B700051E4C501B8010E94668E0E94258D0AE0AD
:104B800010E0CB01B8010E94C18B9F938F93C501A8
:104B9000B4010E94258D7F936F9320E030E040E2C6
:104BA00051E4C701B6010E94668E0E94258DCB019B
:104BB000B8010E94C18B9F938F93C701B6010E94D9
:104BC000258D7F936F938CEA94E09F938F938FEF63
:104BD0008F938DEF8F93CF93DF930E94EE908DB7DD
:104BE0009EB70E960FB6F8949EBF0FBE8DBF8D2F49
:104BF0009C2FDF91CF911F910F91FF90EF90DF904D
:104C0000CF90BF90AF909F908F900C9462252F9281
:104C10003F924F925F926F927F928F929F92AF924C
:104C2000BF92CF92DF92EF92FF920F931F93CF9399
:104C3000DF9300D01F92CDB7DEB7382E292E4A0160
:104C40005B01A9019801CB01B4010E94418C6983E9
:104C50007A838B839C8326E53EE04DEE5FE3C701BC
:104C6000B6010E94668E2B013C0120E030E040E25C
:104C700051E40E94668E0E94258DCB016AE070E0AF
:104C80000E94C18B9F938F93C301B2010E94258D17
:104C90007F936F9320E030E040E251E4C701B6011A
:104CA0000E94668E0E94258DCB016AE070E00E9412
:104CB000C18B9F938F93C701B6010E94258D7F936F
:104CC0006F9320E030E040E251E4C501B4010E945E
:104CD000668E0E94258DCB016AE070E00E94C18B38
:104CE0009F938F93C501B4010E94258D7F936F938D
:104CF00020E030E040E251E469817A818B819C813F
:104D00000E94668E0E94258DCB016AE070E00E94B1
:104D1000C18B9F938F9369817A818B819C810E9443
:104D2000258D7F936F9389EC94E09F938F938FEF02
:104D30008F938DEF8F932F923F920E94EE900FB63C
:104D4000F894DEBF0FBECDBF832D922D0F900F9034
:104D50000F900F90DF91CF911F910F91FF90EF90E7
:104D6000DF90CF90BF90AF909F908F907F906F908B
:104D70005F904F903F902F900C9462252F923F921E
:104D80004F925F926F927F928F929F92AF92BF925B
:104D9000CF92DF92EF92FF920F931F93CF93DF9307
:104DA00000D01F92CDB7DEB7382E292E6A017B01C5
:104DB0002801390126E53EE04DEE5FE3C301B8016D
:104DC0000E94668E4B015C0120E030E04AE754E42B
:104DD0000E94668E20E030E041E655E40E94B38CEC
:104DE00069837A838B839C8320E030E044E353E43F
:104DF000C701B6010E94618E12E518165CF4A70186
:104E0000960160E070E084EB93E40E94418C6B01BA
:104E10007C011CE420E030E040E251E4C501B40133
:104E20000E94668E0E94258DCB016AE070E00E9490
:104E3000C18B9F938F93C501B4010E94258D7F93F1
:104E40006F9320E030E040E251E469817A818B8108
:104E50009C810E94668E0E94258DCB016AE070E0E5
:104E60000E94C18B9F938F9369817A818B819C81F2
:104E70000E94258D7F936F9320E030E040E251E463
:104E8000C301B2010E94668E0E94258DCB016AE0AB
:104E900070E00E94C18B9F938F93C301B2010E9467
:104EA000258D7F936F931F921F9320E030E040E2A7
:104EB00051E4C701B6010E94668E0E94258DCB0188
:104EC0006AE070E00E94C18B9F938F93C701B60187
:104ED0000E94258D7F936F9388EF94E09F938F932B
:104EE0008FEF8F938DEF8F932F923F920E94EE90D2
:104EF0000FB6F894DEBF0FBECDBF832D922D0F905D
:104F00000F900F900F90DF91CF911F910F91FF9015
:104F1000EF90DF90CF90BF90AF909F908F907F9059
:104F20006F905F904F903F902F900C9462254F921E
:104F30005F926F927F928F929F92AF92BF92CF9229
:104F4000DF92EF92FF920F931F93CF93DF9300D0E6
:104F50001F92CDB7DEB7182F092F0E9499256091B7
:104F6000420870914308072E000C880B990B0E9491
:104F7000638D20E030E040E752E40E94B38C6B0187
:104F80007C016091400870914108072E000C880B4D
:104F9000990B0E94638D9B01AC01C701B6010E9471
:104FA000428C2B013C016091490870914A08072E00
:104FB000000C880B990B0E94638D20E030E040E7E5
:104FC00052E40E94B38C6B017C01609147087091A0
:104FD0004808072E000C880B990B0E94638D9B01DB
:104FE000AC01C701B6010E94428C4B015C01C301B8
:104FF000B2010E94258D69837A838B839C83C501CE
:10500000B4010E94258D6B0129813A81B901330FCA
:10501000880B990B0E94638D9B01AC01C301B20107
:105020000E94418C2B013C01B6010D2C000C880B19
:10503000990B0E94638D9B01AC01C501B4010E94D4
:10504000418C20914B08422F022E000C550B5F9390
:105050002F9320E030E04AE754E40E94668E20E07F
:1050600030E040E05FE30E94428C0E94258D7F93F8
:105070006F93DF92CF92809146088F93809145087D
:105080008F9380914408282F082E000C330B3F93F8
:105090008F9320E030E04AE754E4C301B2010E945C
:1050A000668E20E030E040E05FE30E94428C0E9488
:1050B000258D7F936F933A813F9389818F93809160
:1050C0003F088F9380913E088F9388E295E09F93ED
:1050D0008F938FEF8F938F930F931F930E94EE9078
:1050E0000FB6F894DEBF0FBECDBF812F902F0F906B
:1050F0000F900F900F90DF91CF911F910F91FF9024
:10510000EF90DF90CF90BF90AF909F908F907F9067
:105110006F905F904F900C9462254F925F926F92C8
:105120007F92AF92BF92CF92DF92EF92FF920F9356
:105130001F93CF93DF938C010E949925CAE2D8E098
:10514000CAA4DBA4ECA4FDA4288539854A855B8527
:105150006EA17FA188A599A50E94418C2B013C01DD
:1051600020E030E040E251E40E94668E0E94258DEE
:105170008AE0A82EB12CCB01B5010E94C18B9F9370
:105180008F93C301B2010E94258D7F936F9320E01E
:1051900030E040E251E4C701B6010E94668E0E94F1
:1051A000258DCB01B5010E94C18B9F938F93C701C1
:1051B000B6010E94258D7F936F9389A1282F082E19
:1051C000000C330B3F938F9388A18F938F8D8F9318
:1051D0008E8D8F938D8D8F938C8D8F938B8D8F93E1
:1051E0008A8D282F082E000C330B3F938F93898DC7
:1051F0008F93888D8F938F898F938E898F938D89CD
:105200008F938C898F9382E595E09F938F938FEF97
:105210008F938DEF8F931F930F930E94EE908DB716
:105220009EB74E960FB6F8949EBF0FBE8DBFC801B5
:10523000DF91CF911F910F91FF90EF90DF90CF9072
:10524000BF90AF907F906F905F904F900C946225CD
:105250002F923F924F925F926F927F928F929F9286
:10526000AF92BF92CF92DF92EF92FF920F931F9374
:10527000CF93DF931C010E949925CAE2D8E08AA44B
:105280009BA4ACA4BDA4C884D984EA84FB84A701F0
:1052900096016EA17FA188A599A50E94418C2B0142
:1052A0003C0120E030E040E251E4C701B6010E9439
:1052B000668E0E94258D0AE010E0CB01B8010E94A5
:1052C000C18B9F938F93C701B6010E94258D7F9359
:1052D0006F938AE598E09F938F9320E030E040E25F
:1052E00051E4C301B2010E94668E0E94258DCB015C
:1052F000B8010E94C18B9F938F93C301B2010E949A
:10530000258D7F936F9320E030E040E251E4C501AA
:10531000B4010E94668E0E94258DCB01B8010E94C7
:10532000C18B9F938F93C501B4010E94258D7F93FC
:105330006F9389A1282F082E000C330B3F938F9376
:1053400088A18F938F8D8F938E8D8F938D8D8F935B
:105350008C8D8F938B8D8F938A8D282F082E000C28
:10536000330B3F938F93898D8F93888D8F938F8984
:105370008F938E898F938D898F938C898F9386E6F7
:1053800098E09F938F9380E995E09F938F938FEFA1
:105390008F938DEF8F933F922F920E94EE908DB757
:1053A0009EB786960FB6F8949EBF0FBE8DBFC10103
:1053B000DF91CF911F910F91FF90EF90DF90CF90F1
:1053C000BF90AF909F908F907F906F905F904F9025
:1053D0003F902F900C9462254F925F926F927F9234
:1053E0008F929F92AF92BF92CF92DF92EF92FF92F5
:1053F0000F931F93CF93DF938C016A017B012FEBF7
:105400003EE04CE95EE3CB01B6010E94668E4B01A3
:105410005C012EE136E14AEE5FE30E94B38C2B0182
:105420003C0120E030E040E251E40E94668E0E94A0
:10543000258DCAE0D0E0CB01BE010E94C18B9F93B5
:105440008F93C301B2010E94258D7F936F9320E05B
:1054500030E040E251E4C501B4010E94668E0E9432
:10546000258DCB01BE010E94C18B9F938F93C501F7
:10547000B4010E94258D7F936F9320E030E040E2DD
:1054800051E4C701B6010E94668E0E94258DCB01B2
:10549000BE010E94C18B9F938F93C701B6010E94EA
:1054A000258D7F936F938BED95E09F938F938FEF77
:1054B0008F938DEF8F931F930F930E94EE908DB774
:1054C0009EB742960FB6F8949EBF0FBE8DBFC8011F
:1054D000DF91CF911F910F91FF90EF90DF90CF90D0
:1054E000BF90AF909F908F907F906F905F904F9004
:1054F0000C9462258F929F92AF92BF92CF92DF92CF
:10550000EF92FF920F931F93CF93DF93D82FC92F62
:105510006A017B014801590120E030E040E251E49A
:10552000C501B8010E94668E0E94258D0AE010E038
:10553000CB01B8010E94C18B9F938F93C501B40129
:105540000E94258D7F936F931F921F921F921F922F
:1055500020E030E040E251E4C701B6010E94668ECF
:105560000E94258DCB01B8010E94C18B9F938F9320
:10557000C701B6010E94258D7F936F9380E096E06E
:105580009F938F938FEF8F938DEF8F93CF93DF93B5
:105590000E94EE908DB79EB742960FB6F8949EBFCC
:1055A0000FBE8DBF8D2F9C2FDF91CF911F910F913B
:1055B000FF90EF90DF90CF90BF90AF909F908F9033
:1055C0000C946225CF92DF92EF92FF92CF93DF93FC
:1055D000D82FC92F6A017B0120E030E040E251E47E
:1055E000CB01B6010E94668E0E94258DCB016AE038
:1055F00070E00E94C18B9F938F93C701B6010E94F8
:10560000258D7F936F9383E296E09F938F938FEF27
:105610008F938DEF8F93CF93DF930E94EE908DB792
:105620009EB70A960FB6F8949EBF0FBE8DBF8D2F02
:105630009C2FDF91CF91FF90EF90DF90CF900C9453
:105640006225CF92DF92EF92FF92CF93DF93D82F14
:10565000C92F6A017B01B901330F880B990B0E9496
:10566000638D9B01AC01C701B6010E94418C6B01A7
:105670007C0120E030E040E251E40E94668E0E940E
:10568000258DCB016AE070E00E94C18B9F938F93C0
:10569000C701B6010E94258D7F936F9384E396E046
:1056A0009F938F938FEF8F938DEF8F93CF93DF9394
:1056B0000E94EE908DB79EB70A960FB6F8949EBFE3
:1056C0000FBE8DBF8D2F9C2FDF91CF91FF90EF905C
:1056D000DF90CF900C946225CF93DF93D82FC92F02
:1056E0007F936F9385E496E09F938F938FEF8F93D3
:1056F0008DEF8F93CF93DF930E94EE908DB79EB77F
:1057000008960FB6F8949EBF0FBE8DBF8D2F9C2FAD
:10571000DF91CF910C9462256F927F928F929F922E
:10572000AF92BF92CF92DF92EF92FF920F931F93AF
:10573000CF93DF93CDB7DEB7E2970FB6F894DEBF15
:105740000FBECDBF3C018B010E9499251AAA19AA50
:10575000F80101900020E9F73197BF01601B710B40
:105760009E012F5C3F4FAE014F5F5F4FC8010E940B
:10577000DF2D19A9115053014EEEA41A4EEFB40AB1
:10578000D5011C93133008F44FC0ED81FE81DF0179
:105790000D900020E9F7CD0103978E179F0709F0C0
:1057A00043C081810E94672E8F7090E00396181786
:1057B0001906D1F5FE0131967F016301D5012C91C7
:1057C000C601861997092817190681F17CF1D701BE
:1057D0001296ED91FC91DF010D900020E9F79D01FB
:1057E000235031098081A60153954A012E173F07A6
:1057F000B1F40E94672E182FD7011296ED91FC91FB
:1058000081810E94672E1295107F180FF40110837A
:10581000F2E0EF0EF11C4FEFC41AD40ACFCF0E9472
:10582000672ED4018C93F4CFF50110828E010F5FA7
:105830001F4FF12CE12C89A99AA9E816F90664F406
:10584000D8018D919D918D01009711F00E946F8F6D
:10585000BFEFEB1AFB0AEFCFE2960FB6F894DEBF6C
:105860000FBECDBFDF91CF911F910F91FF90EF90B1
:10587000DF90CF90BF90AF909F908F907F906F9070
:1058800008954F925F926F927F928F929F92AF9204
:10589000BF92CF92DF92EF92FF920F931F93CF931D
:1058A000DF93EC017B01142F582E4D2E0E94992579
:1058B000A12EB12CA501B701CE0193950E94A9900C
:1058C000FE01EE5EFE4F108363E576E0CE010E949E
:1058D000CD90470107EF1FEF8AE5C82E86E0D82E4E
:1058E0003E0183E0681A7108C4018E199F098A1568
:1058F0009B05ECF4F40181914F011F928F93DF928D
:10590000CF92C301801B910B9F938F931F930F9393
:105910004F925F920E94EE90035011098DB79EB78F
:105920000A960FB6F8949EBF0FBE8DBFDDCFCE0195
:10593000DF91CF911F910F91FF90EF90DF90CF906B
:10594000BF90AF909F908F907F906F905F904F909F
:105950000C946225082E000C990B0E94A190282F10
:10596000082E000C990B213414F0C7970895C097A6
:105970000895FC01E55AFF4F11821082329711827F
:105980001082349611821082815A9F4FFC0111823D
:10599000108208954F925F926F927F928F929F92A2
:1059A000AF92BF92CF92DF92EF92FF920F931F932D
:1059B000CF93DF93EC016C014BE5C40ED11CF601D3
:1059C00020813181875A9F4F7C01243631051CF09C
:1059D000FC01118210826A3011F06D3019F4F70168
:1059E00011821082643211F0613289F485E5FE0182
:1059F00011928A95E9F7688381E090E0F60191833E
:105A00008083F7019183808310E000E081C0F7017B
:105A1000008111810130110531F002301105D1F002
:105A200011821082F1CFFE01E20FF31F6083C901E2
:105A30000196F601918380836A3231F782E090E02B
:105A4000F70191838083C95ADF4F2150310939838F
:105A50002883DACFFE01E20FF31F60832F5F3F4FF1
:105A6000F60131832083FE01E95AFF4F6081718185
:105A7000261B370B243031053CF2CE0101960E94E3
:105A8000CF2D3C01F601808091805E01A80CB91CED
:105A9000F501329780810E94AA2C2C0184E0440CED
:105AA000551C8A95E1F7F501319780810E94AA2C57
:105AB0002DE0F501208394012E5F3F4F4AE04183A2
:105AC000FE01EB5AFF4F31832083F3E08F0E911CD0
:105AD000F601918280822C0F3D1FF9011082840D06
