:100000000C9441040C94947F0C94BF7F0C94EA7F71
:100010000C9415800C9440800C946B800C9496800A
:100020000C94C1800C9472040C9472040C947204AD
:100030000C9472040C9472040C9472040C94720468
:100040000C9472040C9472040C9472040C94720458
:100050000C9472040C9472040C9472040C944081FD
:100060000C9472040C94947B0C94CA7B0C947204D0
:100070000C9472040C9472040C9472040C94720428
:100080000C9472040C9472040C9472040C94720418
:100090000C94742E0C949E2E0C9472040C94720486
:1000A0000C9472040C9472040C9472040C947204F8
:1000B0000C9472040C9472040C947A2C0C94CC2B37
:1000C0000C94192D0C9472040C9472040C94E72E69
:1000D0000C94112F0C9472040C942B7C0C94617C66
:1000E0000C9472049C6CBD6CDB6CF96C496D1E6DDC
:1000F000496D7F74B474BB74D574BB74D5749D742E
:10010000FC74E876FE7610771877267752772E778C
:100110003C77447752776E7F387F407F4C7F597FA2
:100120007A7F877F7482778266826A827082AE82EB
:100130007B827F82858289828D82938297829B8255
:10014000AE82A182A582A9825285E9845685EC847B
:10015000EF84F284F684F984FC84FF8402850585AB
:1001600008850B850E851285158518855A85288585
:100170002B8550852E85508532853585398550856E
:1001800050853C854085438547854A8550854D850A
:100190000C944C7F0C94496D0C949D740C94FE7BD4
:1001A0000C94D5740C945C730C94782C0C94358559
:1001B0000C9486300C942A300C9447850C947B82E6
:1001C0000C9468310C9450850C94F6840C9428811E
:1001D0000C941F7F0C94597F0C9418770C941885FD
:1001E0000C9444770C9493820C94946A0C9432850A
:1001F0000C9432380C9408850C94377A0C945685FC
:100200000C942E770C94A9820C9415850C94A26AF8
:100210000C94AE820C940B850C94BB740C94FF84EC
:100220000C943C770C94C76F0C94F47B0C949B82D9
:100230000C94FC840C9467710C9452850C946F752B
:100240000C948D820C943C850C94C67A0C94438556
:100250000C9466820C942B7A0C94B4740C94457AAA
:100260000C94346E0C94597A0C94A46A0C94FE2A63
:100270000C9428850C9433330C94EB2A0C946E7FE9
:100280000C94FE760C94DC6E0C9485820C949F3357
:100290000C949C6C0C94A5820C9474820C942B8509
:1002A0000C94DF1A0C94C82E0C9452770C947A7F1D
:1002B0000C94976E0C9440850C94F96C0C94F98412
:1002C0000C944D850C9410770C9439850C94C818B7
:1002D0000C94676C0C94E8760C948B7C0C945A8587
:1002E0000C94C27C0C94407F0C94957C0C94EF1978
:1002F0000C947F820C94F2840C943B2F0C94EC842D
:100300000C9412850C942D330C94D52A0C942677DA
:100310000C94877F0C944F0B0C947F740C94058580
:100320000C94EF840C9470820C9402850C94978248
:100330000C94C62B0C94BD6C0C94687A0C941E6DB6
:100340000C94E9840C94B7700C940E850C94FC7496
:100350000C94387F0C94DB6C0C94F7710C94A18294
:100360000C9449400C940D7B0C9489820C944A8522
:100370000C9477820C946A820C9422300C94266F31
:100380000C942E854042474250552C436F75727332
:10039000652C004042474250552C547261636B2CCF
:1003A00046616C7365004042474250552C5472615F
:1003B000636B2C54727565004042474250552C5671
:1003C000616E652C46616C73650040424742505532
:1003D0002C56616E652C5472756500404247425040
:1003E000552C547261636B2C46616C7365004042FE
:1003F000474250552C547261636B2C5472756500E2
:100400004042474250552C56616E652C46616C73D4
:1004100065004042474250552C56616E652C54721F
:10042000756500244E474250552A3445004E4D45CF
:10043000415F5041525345525F4E4F54434F4D50D0
:100440004C4554452C206E6F7420636F6D706C6545
:100450007465207E7E00244E474250552A34450064
:100460004E4D45415F5041525345525F43484543CD
:100470004B53554D4552522C204552524F5220213C
:1004800021000900095472616E736C6174655365D3
:100490006174616C6B417570696C6F74436F6D6DE5
:1004A000616E64546F4E454D413230303028293AE8
:1004B000200020556E6B6E6F776E0020506F776551
:1004C000724F6E002045787465726E616C00204238
:1004D000726F776E6F757400205761746368646F14
:1004E00067004661696C004F70656E00404247428C
:1004F00050552C43414E2C004042474250552C420F
:100500004F4F5420566572002066696E652E002C90
:100510002048656C6C6F2C204920616D20004042A2
:10052000474250552C566572004042474250552C68
:1005300053746565722C004042474250552C436FFE
:10054000757273652C004042474250552C417574BA
:100550006F2C46616C7365004042474250552C41F8
:1005600075746F2C53746565720040424742505554
:100570002C4175746F2C54727565009000A4900026
:10058000A30020446174613A00204C656E3A00205B
:10059000446573743A0020536F757263653A0020A6
:1005A00050474E3A005072693A00203A2000002C21
:1005B00000537461727420616464726573732063A4
:1005C0006C61696D20666F72206465766963652071
:1005D000002073656E64206661696C6564002F009D
:1005E0002C206672616D653A0050474E20002073E2
:1005F000656E64206661696C65640050474E20003A
:1006000043414E20646576696365206661696C6567
:100610006420746F206F70656E0043414E206465E6
:10062000766963652072656164790000004E4D450E
:100630004132303030206C6962726172792C2068EE
:10064000747470733A2F2F6769746875622E636FC4
:100650006D2F74746C617070616C61696E656E2F62
:100660004E4D4541323030300035089A02417264B7
:1006700075696E6F204E326B2D3E504300000000B6
:100680000000000000000000000000000000312E0B
:10069000302E302E3000000000000000000000006E
:1006A0000000000000000000000000000000003119
:1006B0002E302E300000000000000000000000007E
:1006C000000000000000000000000000000000002A
:1006D0003030303030303031000000000000000099
:1006E000000000000000000000000000000000000A
:1006F00000000100E8000000EA000000EB0000003C
:10070000EC000000EE0000D8FE000000ED0100004B
:1007100000000000E8000000EA000000EB0000001C
:10072000EC000000EE000000ED010000EE01001101
:10073000F0010014F0010016F001000000000000BC
:10074000000B0C030A0D0E0F09080405020000003F
:100750000000000000000000000000000000000099
:100760000000000000000000000000131211000053
:100770000000000000000000000000000000000079
:100780000000000000000000000000000000000069
:100790000000000000010210202008081020401076
:1007A0002040800201020108040201010204081035
:1007B0002040808040201008040201800402018053
:1007C000402010080402010804020101020408107C
:1007D00020408001020408102040800440800480F2
:1007E000081010204004081020408005050505076A
:1007F0000508080808020202020A0A08080404049C
:1008000004010101010101010103030303030303C7
:1008100003040707070C0C0C0C0C0C0C0C02020256
:100820000206060606060606060B0B0B0B0B0B0B49
:100830000B050505080807070404040A0A0A0A0A42
:100840000A00002200250028002B002E0031003471
:100850000002010000050108010B01000021002435
:100860000027002A002D00300033000101000004A1
:100870000107010A0100EF19C82E3B2FFE7B957C72
:10088000DF1A11241FBECFEFD1E2DEBFCDBF00E0E3
:100890000CBF1AE0A0E0B2E0EAE1F4E201E00BBF35
:1008A00002C007900D92AE35B107D9F721E1AEE550
:1008B000BAE001C01D92AE30B207E1F714E0C0E427
:1008C000D4E000E006C021970109802FFE010E94BC
:1008D000F689CB33D10780E00807A9F70E942B8166
:1008E0000C94FB910C940000CF92DF92EF92FF9258
:1008F000CF93DF93EC016A017B012FE632E143E8FD
:100900005AEBC701B6010E94418C1816ECF420E0A6
:1009100030E84BE355E4C701B6010E948E8A87FF99
:1009200013C0C882D982EA82FB82FE01E85BFF4FD6
:100930008081918106968730910514F086E090E0E1
:100940009183808381E001C080E0DF91CF91FF90AF
:10095000EF90DF90CF9008950F931F93CF93DF9385
:10096000CDB7DEB7C456D1090FB6F894DEBF0FBEBF
:10097000CDBF8C01CE0101960E94F221085B1F4F72
:10098000F8018081918118161906F4F44091720AD9
:100990005091730A6091740A7091750ACE010196A4
:1009A0000E943926CE0101960E94F8210E94550E20
:1009B000F80180819181019797FD03C09183808325
:1009C00003C0F80111821082CC59DF4F0FB6F894A2
:1009D000DEBF0FBECDBFDF91CF911F910F91089564
:1009E000CF92DF92EF92FF92CF93DF93EC016A01F7
:1009F0007B0120E030E0A901C701B6010E94418CD3
:100A000087FD1DC02DEC3CE044EB53E4C701B6016B
:100A10000E948E8A87FF13C0C88AD98AEA8AFB8A15
:100A2000FE01E25BFF4F8081918104968530910544
:100A300014F084E090E09183808381E001C080E045
:100A4000DF91CF91FF90EF90DF90CF900895AF921C
:100A5000BF92CF92DF92EF92FF920F931F93CF93AB
:100A6000DF93CDB7DEB7C456D1090FB6F894DEBF19
:100A70000FBECDBF5C01CE0101960E94F22165013F
:100A80008EE4C80ED11CF6018081918118161906DA
:100A9000ACF57501FCE4EF0EF11CF701808191814A
:100AA000181619065CF5F501048515852685378528
:100AB0004089518962897389CE0101960E9414236D
:100AC000CE0101960E94F8210E94550EF601808108
:100AD0009181019797FD03C09183808303C0F60144
:100AE00011821082F70180819181019797FD03C0E7
:100AF0009183808303C0F70111821082CC59DF4FAC
:100B00000FB6F894DEBF0FBECDBFDF91CF911F911E
:100B10000F91FF90EF90DF90CF90BF90AF9008952E
:100B2000AF92BF92CF92DF92EF92FF920F931F93FB
:100B3000CF93DF93CDB7DEB7C456D1090FB6F89483
:100B4000DEBF0FBECDBF5C01CE0101960E94F22137
:100B500065018EE4C80ED11CF601808191811816C2
:100B60001906ACF57501FCE4EF0EF11CF70180816C
:100B70009181181619065CF5F50104851585268501
:100B800037854089518962897389CE0101960E9417
:100B9000F921CE0101960E94F8210E94550EF6011E
:100BA00080819181019797FD03C09183808303C069
:100BB000F60111821082F70180819181019797FDE2
:100BC00003C09183808303C0F70111821082CC5946
:100BD000DF4F0FB6F894DEBF0FBECDBFDF91CF91D0
:100BE0001F910F91FF90EF90DF90CF90BF90AF904B
:100BF0000895CF92DF92EF92FF92CF93DF93EC01B3
:100C00006A017B0120E030E0A901C701B6010E9422
:100C1000418C87FD1DC020E030E040EA52E4C7016E
:100C2000B6010E948E8A87FF13C0CC86DD86EE86D1
:100C3000FF86FE01E45BFF4F808191810496853041
:100C4000910514F084E090E09183808381E001C0FD
:100C500080E0DF91CF91FF90EF90DF90CF900895EB
:100C60004F925F926F927F928F929F92AF92BF92BC
:100C7000CF92DF92EF92FF920F931F93CF93DF9368
:100C8000CDB7DEB728970FB6F894DEBF0FBECDBF45
:100C90004A015B01680179012A013B01E89477F878
:100CA000C301B2010E94058B69837A838B839C8385
:100CB00029813A81B901330F880B990B0E94438B2C
:100CC0009B01AC01C301B2010E94218A20E030E007
:100CD00040E752E40E94468C2B013C010E94058BA8
:100CE0006D837E838F8398872D813E81B901330F79
:100CF000880B990B0E94438B9B01AC01C301B2018D
:100D00000E94218A20E030E040E752E40E94468CB5
:100D10000E94058B2B013C0120E030E0A901C501B8
:100D2000B4010E948E8A87FD02C08EE401C083E573
:100D300029813A813093870A2093860A2D813E814A
:100D40003093890A2093880A50928B0A40928A0A2B
:100D500080938C0A26013701E89477F8C301B20129
:100D60000E94058B4B015C01072E000C880B990B30
:100D70000E94438B9B01AC01C301B2010E94218AF6
:100D800020E030E040E752E40E94468C2B013C0119
:100D90000E94058B69837A838B839C8329813A81A6
:100DA000B901330F880B990B0E94438B9B01AC0157
:100DB000C301B2010E94218A20E030E040E752E402
:100DC0000E94468C0E94058B2B013C0120E030E004
:100DD000A901C701B6010E948E8A87FD02C085E481
:100DE00001C087E590928E0A80928D0A29813A810E
:100DF0003093900A20938F0A5092920A4092910A5F
:100E00008093930A86E090E09093C30A8093C20A8D
:100E100081E028960FB6F894DEBF0FBECDBFDF91FC
:100E2000CF911F910F91FF90EF90DF90CF90BF90E7
:100E3000AF909F908F907F906F905F904F900895AC
:100E40000F931F93CF93DF93CDB7DEB7C456D1096D
:100E50000FB6F894DEBF0FBECDBF8C01005B1F4FF5
:100E6000F8018081918118161906B4F4CE0101961B
:100E70000E94EE23CE0101960E94F8210E94550E99
:100E8000F80180819181019797FD03C09183808350
:100E900003C0F80111821082CC59DF4F0FB6F894CD
:100EA000DEBF0FBECDBFDF91CF911F910F9108958F
:100EB000CF92DF92EF92FF92CF93DF93EC016A0122
:100EC0007B0120E030E0A901C701B6010E94418CFE
:100ED00087FD1DC02DEC3CE044EB53E4C701B60197
:100EE0000E948E8A87FF13C0CAA2DBA2ECA2FDA2D9
:100EF000FE01EE5AFF4F8081918102968330910569
:100F000014F082E090E09183808381E001C080E072
:100F1000DF91CF91FF90EF90DF90CF900895CF9227
:100F2000DF92EF92FF920F931F93CF93DF93CDB792
:100F3000DEB7C456D1090FB6F894DEBF0FBECDBFE1
:100F40006C01CE0101960E94F221760182E5E80E45
:100F5000F11CF7018081918118161906FCF4F60145
:100F6000008511852285338542A153A164A175A115
:100F7000CE0101960E94C726CE0101960E94F8215B
:100F80000E94550EF70180819181019797FD03C062
:100F90009183808303C0F70111821082CC59DF4F07
:100FA0000FB6F894DEBF0FBECDBFDF91CF911F917A
:100FB0000F91FF90EF90DF90CF900895EF92FF9206
:100FC0000F931F93CF93DF93CDB7DEB7C456D109EC
:100FD0000FB6F894DEBF0FBECDBF7C01CE010196E7
:100FE0000E94F22187010E5A1F4FF80180819181E2
:100FF00018161906DCF4F70142A153A164A175A1EA
:10100000CE0101960E942F27CE0101960E94F82161
:101010000E94550EF80180819181019797FD03C0D0
:101020009183808303C0F80111821082CC59DF4F75
:101030000FB6F894DEBF0FBECDBFDF91CF911F91E9
:101040000F91FF90EF900895CF92DF92EF92FF9271
:101050000F931F93CF93DF93CDB7DEB7C456D1095B
:101060000FB6F894DEBF0FBECDBF6C01CE01019666
:101070000E94F221760182E5E80EF11CF7018081E1
:10108000918118161906D4F58601085A1F4FF801E8
:1010900080819181181619068CF5F601608571859D
:1010A000828593850E94058BDC01CB01F60142A16C
:1010B00053A164A175A19C01CE0101960E946E27E7
:1010C000CE0101960E94F8210E94550EF701808101
:1010D0009181019797FD03C09183808303C0F7013D
:1010E00011821082F80180819181019797FD03C0E0
:1010F0009183808303C0F80111821082CC59DF4FA5
:101100000FB6F894DEBF0FBECDBFDF91CF911F9118
:101110000F91FF90EF90DF90CF900895CF92DF92E4
:10112000EF92FF92CF93DF93EC016A017B01CB0139
:10113000BA019F772DEC3CE044EB53E40E948E8A89
:1011400087FF13C0CEA2DFA2E8A6F9A6FE01EA5AE5
:10115000FF4F8081918106968730910514F086E0DB
:1011600090E09183808381E001C080E0DF91CF91A6
:10117000FF90EF90DF90CF900895CF92DF92EF92A3
:10118000FF92CF93DF93EC016A017B012CEA35ECEF
:1011900047E257EBC701B6010E94418C1816ECF4E8
:1011A00020E030E048EC52E4C701B6010E948E8A8C
:1011B00087FF13C0CAA6DBA6ECA6FDA6FE01EC5A6B
:1011C000FF4F8081918106968730910514F086E06B
:1011D00090E09183808381E001C080E0DF91CF9136
:1011E000FF90EF90DF90CF9008956F927F928F9253
:1011F0009F92AF92BF92CF92DF92EF92FF920F93A6
:101200001F93CF93DF93CDB7DEB7C456D1090FB686
:10121000F894DEBF0FBECDBF3C01CE0101960E9407
:10122000F221430186E5880E911CF40180819181B1
:1012300018161906CCF55301F4E5AF0EB11CF501F3
:1012400080819181181619067CF5F301C2A4D3A4FC
:10125000E4A4F5A4008511852285338546A157A114
:1012600060A571A5CE0101960E945D22CE01019676
:101270000E94F8210E94550EF4018081918101970E
:1012800097FD03C09183808303C0F4011182108213
:10129000F50180819181019797FD03C0918380833F
:1012A00003C0F50111821082CC59DF4F0FB6F894BC
:1012B000DEBF0FBECDBFDF91CF911F910F91FF9089
:1012C000EF90DF90CF90BF90AF909F908F907F90E6
:1012D0006F9008956F927F928F929F92AF92BF927C
:1012E000CF92DF92EF92FF920F931F93CF93DF93F2
:1012F000CDB7DEB7C456D1090FB6F894DEBF0FBE26
:10130000CDBF6C012CE5C20ED11CF60120813181CC
:101310008C010C5A1F4F121613060CF0E0C07C0112
:10132000FEE5EF0EF11CF701208131811216130644
:101330000CF0D5C0F80120813181121613060CF093
:101340006FC04C01F6E58F0E911CF40120813181B4
:10135000121613060CF064C05C01F0E5AF0EB11C70
:10136000F50120813181121613060CF059C03C01A1
:10137000F8E56F0E711CF3012081318112161306FE
:101380000CF04EC0CE0101960E947525CE0101964B
:101390000E94F8210E94550EF601808191810197EB
:1013A00097FD03C09183808303C0F60111821082F0
:1013B000F70180819181019797FD03C0918380831C
:1013C00003C0F70111821082F80180819181019799
:1013D00097FD03C09183808303C0F80111821082BE
:1013E000F40180819181019797FD03C091838083EF
:1013F00003C0F40111821082F5018081918101976F
:1014000097FD03C09183808303C0F5011182108290
:10141000F30180819181019797FFA4C0F301A6C0D9
:10142000F80120813181121613060CF058C04C01CE
:10143000F6E58F0E911CF4012081318112161306FE
:101440000CF04DC05C01F0E5AF0EB11CF501208140
:101450003181121613060CF042C0CE0101960E9493
:10146000D024CE0101960E94F8210E94550EF6016B
:1014700080819181019797FD03C09183808303C090
:10148000F60111821082F70180819181019797FD09
:1014900003C09183808303C0F70111821082F80199
:1014A00080819181019797FD03C09183808303C060
:1014B000F80111821082F40180819181019797FDDA
:1014C00003C09183808303C0F40111821082F5016F
:1014D00080819181019797FF45C0F50147C0F801D0
:1014E00020813181121613060CF042C06C01F6E522
:1014F000CF0ED11CF6012081318112161306C4F5DE
:101500007C01F0E5EF0EF11CF70180819181181646
:10151000190674F5CE0101960E943524CE0101967C
:101520000E94F8210E94550EF80180819181019757
:1015300097FD03C09183808303C0F801118210825C
:10154000F60180819181019797FD03C0918380838B
:1015500003C0F60111821082F70180819181019709
:1015600097FD03C09183808303C0F701118210822D
:10157000CC59DF4F0FB6F894DEBF0FBECDBFDF9161
:10158000CF911F910F91FF90EF90DF90CF90BF9080
:10159000AF909F908F907F906F9008959B01275AF6
:1015A0003F4F233B310588F4FC0177A766A7E65A35
:1015B000FF4F8081918106968730910514F086E077
:1015C00090E09183808381E0089580E00895EF9218
:1015D000FF920F931F93CF93DF93CDB7DEB7C4561F
:1015E000D1090FB6F894DEBF0FBECDBF7C01CE018E
:1015F00001960E94F2218701065A1F4FF80180814F
:10160000918118161906CCF4F70166A577A5CE01CD
:1016100001960E94B927CE0101960E94F8210E94EE
:10162000550EF80180819181019797FD03C0918348
:10163000808303C0F80111821082CC59DF4F0FB6AE
:10164000F894DEBF0FBECDBFDF91CF911F910F91F8
:10165000FF90EF9008950C94E70ACF93DF93EC018D
:101660000E94AC04CE010E949005CE010E9420078A
:10167000CE010E948F07CE010E94DE07CE010E949C
:101680002408CE010E946A09CE010E94E70ACE0119
:101690000E94F508CE01DF91CF910C94270580E0E0
:1016A00090E008952F923F924F925F926F927F92B7
:1016B0008F929F92AF92BF92CF92DF92EF92FF9262
:1016C0000F931F93CF93DF93CDB7DEB72C970FB651
:1016D000F894DEBF0FBECDBF98878F83FC01848155
:1016E000282F30E03C832B83A580B12CBA2CAA2470
:1016F0008681A82AB50180E090E00E94418B20E01D
:1017000030E04AE754E40E94938A0E94058B6B0103
:101710007C01C50168EE73E00E948D891C01EF8198
:10172000F885F381F983F4FD03C02EE42A8302C017
:1017300033E53A83B101032C000C880B990B0E940E
:10174000438B20E030E04AE754E40E94938A2B0167
:101750003C01B6010D2C000C880B990B0E94438BA9
:101760009B01AC01C301B2010E94228A20E030E05B
:1017700040E752E40E94938A2B013C01EB81FC81FB
:10178000BF01FF0F880B990B0E94438B9B01AC019B
:10179000C301B2010E94228A2B013C019F772FE6F0
:1017A00032E143E85AE30E948E8A87FD34C12091DA
:1017B000C20A3091C30A3E832D83232B09F44AC009
:1017C00060918A0A70918B0A072E000C880B990B86
:1017D0000E94438B20E030E04AE754E40E94938A61
:1017E0004B015C016091880A7091890A072E000CF8
:1017F000880B990B0E94438B9B01AC01C501B4017E
:101800000E94228A20E030E040E752E40E94938A5E
:101810004B015C016091860A7091870A072E000CCB
:10182000880B990B0E94438B9B01AC01C501B4014D
:101830000E94228A9B01AC01C301B2010E94218A4D
:101840009F7720E030E040E05FE30E94418C181673
:101850000CF4E1C0EF81F8858781082F10E0A084A7
:10186000B12CBA2CAA248185A82AB50180E090E089
:101870000E94418B20E030E04AE754E40E94938AC2
:101880000E94058B6F83788789879A87C50168EEE8
:1018900073E00E948D899C878B87F981F5FD03C0D9
:1018A00027E5298302C035E43983EB85FC85BF0138
:1018B000FF0F880B990B0E94438B20E030E04AE732
:1018C00054E40E94938A4B015C012F813885B90151
:1018D000330F880B990B0E94438B9B01AC01C50110
:1018E000B4010E94228A20E030E040E752E40E94E6
:1018F000938A4B015C01B801012E000C880B990BF7
:101900000E94438B9B01AC01C501B4010E94228A55
:101910004B015C019F772FE632E143E85AE30E94D6
:101920008E8A87FD78C08D819E81892B09F449C0FC
:101930006091910A7091920A072E000C880B990B06
:101940000E94438B20E030E04AE754E40E94938AEF
:101950002B013C0160918F0A7091900A072E000CB8
:10196000880B990B0E94438B9B01AC01C301B20110
:101970000E94228A20E030E040E752E40E94938AED
:101980002B013C0160918D0A70918E0A072E000C8C
:10199000880B990B0E94438B9B01AC01C301B201E0
:1019A0000E94228A9B01AC01C501B4010E94218AD8
:1019B0009F7720E030E040E05FE30E94418C181602
:1019C00054F1EB81FC81F093870AE093860AD09270
:1019D000890AC092880A30928B0A20928A0AFA8178
:1019E000F0938C0A10938E0A00938D0A2F8138850C
:1019F0003093900A20938F0A8B859C859093920A4E
:101A00008093910A99819093930A86E090E0909355
:101A1000C30A8093C20A2C960FB6F894DEBF0FBE9D
:101A2000CDBFDF91CF911F910F91FF90EF90DF908D
:101A3000CF90BF90AF909F908F907F906F905F906E
:101A40004F903F902F900895CF93DF93EC0161E08A
:101A500088810E94AF821B861A861C861D861E8680
:101A60001F8660E08881DF91CF910C94EB82CF924A
:101A7000DF92EF92FF920F931F93CF93DF93EC01CE
:101A80000E948A812A853B8521303105D9F40C8555
:101A90001D852E853F856B017C01C01AD10AE20AA3
:101AA000F30A0A811B812C813D81C016D106E20612
:101AB000F30688F11B861A866C877D878E879F8741
:101AC00060E01EC0232B39F50C851D852E853F85D2
:101AD0006B017C01C01AD10AE20AF30A0E811F8150
:101AE00028853985C016D106E206F306A0F021E06C
:101AF00030E03B872A876C877D878E879F8761E0F0
:101B00008881DF91CF911F910F91FF90EF90DF902F
:101B1000CF900C94EB82DF91CF911F910F91FF90AA
:101B2000EF90DF90CF900895FC01DB01808184323B
:101B300011F0813279F493818C9198130BC09481C8
:101B400011968C911197981305C081E0258112960A
:101B50009C91291380E00895FC01DB01808184328F
:101B600011F08132D9F491818C91981317C0928130
:101B700011968C911197981311C0938112968C91A4
:101B8000129798130BC0948113968C911397981306
:101B900005C081E0258114969C91291380E0089569
:101BA0008091830C811106C06AE675E082EC9FE0AB
:101BB0000C94327D08958091830C811106C068E5F4
:101BC00075E082EC9FE00C94327D08958091830C47
:101BD000811106C066E475E082EC9FE00C94327DD2
:101BE00008958091830C81112DC08091810C90917A
:101BF000820C20917F0C3091800C8217930739F072
:101C000085E090E090936D0A80936C0A089520918E
:101C10006C0A30916D0A21153105A1F0215031096E
:101C200030936D0A20936C0A8230910511F40C9464
:101C3000D00D8330910511F40C94DB0D019711F454
:101C40000C94E60D0895CF93DF932091830C21111E
:101C500010C0EC0167E375E082EC9FE00E94017D1B
:101C60004AE050E0BE0182EC9FE0DF91CF910C94FE
:101C70001A7EDF91CF910895CF93DF932091830C4B
:101C8000211110C0EC0169E275E082EC9FE00E9436
:101C9000017D4AE050E0BE0182EC9FE0DF91CF91F0
:101CA0000C941A7EDF91CF910895CF93DF93BC01FE
:101CB000FC0101900020E9F73197E81BF90BDC01EA
:101CC0008C91843221F0813211F08034D1F4379735
:101CD000C4F09091830C911114C0803431F48FE5DD
:101CE00090E1DF91CF910C94447DEB018FE590E181
:101CF0000E94257DBE0182EC9FE0DF91CF910C9484
:101D0000257DDF91CF910895CF93DF932091830CB0
:101D1000211122C0EC016EE175E082EC9FE00E948F
:101D2000017D65E87CE082EC9FE00E94257D6FE00C
:101D300075E082EC9FE00E94017D4AE050E0BE0128
:101D400082EC9FE00E94B37D68E075E082EC9FE04A
:101D5000DF91CF910C94327DDF91CF9108958091E6
:101D6000830C81110CC068EF74E082EC9FE00E944C
:101D7000017D65E87CE082EC9FE00C94447D089551
:101D80008F92AF92BF92CF92EF92FF920F931F93D9
:101D9000CF931F921F9288248A94AA24AA94BA2CC3
:101DA000CC24CA9490E5E92E92E0F92E06E512E0E3
:101DB00028E632E044E650E06AE772E08091300CB9
:101DC0009091310C0E94E747A12CB12C24E0C22E47
:101DD00038EFE32E37E0F32E0BE422E849E656EB2A
:101DE00061E070E08091300C9091310C0E943F4690
:101DF00046E161E070E08091300C9091310C0E94DE
:101E00009C4868EC78E18091300C9091310C0E94F4
:101E1000A5508091300C9091310C0E94295FC82F01
:101E20006CEE74E082EC9FE00E94017D0F900F90B9
:101E3000CC2381F067EE74E082EC9FE00E94327D5B
:101E400065E772E085E89CE00E94988E81E08093CF
:101E5000840C08C062EE74E082EC9FE00E94327D48
:101E60001092840C8C2FCF911F910F91FF90EF90C7
:101E7000CF90BF90AF908F900895CF93C62FBC01A5
:101E800082EC9FE00E94257D4AE050E06C2F82ECBE
:101E90009FE00E94AC7DC3FF07C068ED74E082EC58
:101EA0009FE00E94017DC77FC2FF07C06EEC74E017
:101EB00082EC9FE00E94017DCB7FC1FF07C064ECF4
:101EC00074E082EC9FE00E94017DCD7FC0FF07C0DF
:101ED0006BEB74E082EC9FE00E94017DCE7FCC230F
:101EE00031F062EB74E082EC9FE00E94017D66E3DA
:101EF00077E082EC9FE0CF910C94447DCF93DF9309
:101F00000FB6F894A8958091600088618093600076
:101F1000109260000FBE87EF84BF9EE088E10FB68D
:101F2000F894A895809360000FBE9093600069E9D3
:101F300073E085E89CE00E94AC8E63E872E085E87F
:101F40009CE00E94988E65E872E085E89CE00E9423
:101F5000988E61E08DE00E94AF8261E087E00E9490
:101F6000AF8261E08DE00E94EB8283E69CE00E94FC
:101F7000240D83E59CE00E94240D83E49CE00E94F4
:101F8000240D83E39CE00E94240D26E040E052EC07
:101F900061E070E082EC9FE00E942F7B40EC52E118
:101FA00060E070E085E89DE00E94862F45E050E00B
:101FB00060E070E085E89DE00E94197F40EC52E10E
:101FC00060E070E082EA9EE00E94862F45E050E0EB
:101FD00060E070E082EA9EE00E94197F26E040EC1B
:101FE00052E160E070E08FE590E10E942F7B61EAB2
:101FF00071E080E090E00E94262B64B789E892E0CF
:102000000E943D0FA89582E39CE00E9484790E9483
:10201000C00E80932F0CA895C6E0D0E00E94AF0EB2
:1020200064E670E080E090E00E94BB812197B1F708
:10203000A895A895DF91CF910895CF93DF93EC01F8
:1020400061E972E00E94940D882339F08AEF9FEFD6
:102050009093BB0A8093BA0A2DC065E972E0CE0165
:102060000E94940D882339F08EEF9FEF9093C50A5C
:102070008093C40A1FC069E972E0CE010E94940DEA
:102080008111F2CF6DE972E0CE010E94940D8111B1
:10209000EBCF61EA72E0CE010E94940D882351F0EB
:1020A0008AEF9FEF9093C90A8093C80A9093C70A5A
:1020B0008093C60A65EA72E0CE010E94940D8823DF
:1020C00051F08CEF9FEF9093C10A8093C00A9093D8
:1020D000BF0A8093BE0ADF91CF9108958F929F929D
:1020E000AF92BF92CF92DF92EF92FF920F931F9326
:1020F000CF93DF93EC014A015B016901E881F9812B
:102100000190F081E02D19958B829C82AD82BE8278
:10211000DA86C986DE011B96F801CF01801B910B80
:102120008E159F051CF481918D93F7CFFE01EE0D66
:10213000FF1DCF018C1B9D0B8C159D051CF4138678
:102140003196F7CFDF91CF911F910F91FF90EF90D4
:10215000DF90CF90BF90AF909F908F900895CF92D7
:10216000DF92EF92FF920F931F93CF93DF93CDB740
:10217000DEB7C95FD1090FB6F894DEBF0FBECDBF81
:102180006C01E12CF12C00E010E0980146E06FE0DA
:10219000CE0101960E948D388AE0EBE1F2E0DE018B
:1021A000A051BF4F01900D928A95E1F7B601DD0C69
:1021B000880B990B0E94438B2BED3FE049E450E4E0
:1021C0000E94468C0E94058BAB01161617061CF464
:1021D0004F5F5F4F06C06115710519F0AB014150AB
:1021E0005109942F342F32953F702FE0231B842FF9
:1021F0008F70843010F4845F09C0883010F48C5FD5
:1022000005C08C3010F4845001C08C50CA50DF4F90
:102210009883C65FD04090E030E1239F800D911DF0
:102220001124C750DF4F8883C95FD0408AE0E82E71
:10223000F12C8E0100511F4F2AE030E040E05FEEAC
:1022400061E070E0CE0101960E946E1040E050E027
:10225000BE016F5F7F4F8091300C9091310C0E94D6
:102260007954C750DF4F0FB6F894DEBF0FBECDBF15
:10227000DF91CF911F910F91FF90EF90DF90CF9062
:102280000895BF92CF92DF92EF92FF920F931F9328
:10229000CF93DF93CDB7DEB7C75FD1090FB6F89400
:1022A000DEBF0FBECDBFB82EC62ED42EE12CF12C32
:1022B00000E010E0980146E06FE0CE0101960E9438
:1022C0008D3888E0E5E2F2E0DE01A051BF4F0190D9
:1022D0000D928A95E1F7CB50DF4FB882C55FD040B1
:1022E000CA50DF4FC882C65FD040C950DF4FD88286
:1022F000C75FD04088E0E82EF12C8E0100511F4FBF
:1023000026E130E040E05FEE61E070E0CE01019652
:102310000E946E1040E050E0BE016F5F7F4F8091E1
:10232000300C9091310C0E947954C950DF4F0FB698
:10233000F894DEBF0FBECDBFDF91CF911F910F91FB
:10234000FF90EF90DF90CF90BF90089582E090E0F3
:102350009093820C8093810C4EEF61E081E40C94A9
:10236000411181E090E09093820C8093810C4DEFBD
:1023700062E081E40C94411147EF68E081E40C9441
:10238000411149EF66E081E40C94411148EF67E0A8
:1023900081E40C9441114AEF65E081E40C94411111
:1023A0004DED62E281E40C9441114EED61E281E475
:1023B0000C94411183E090E09093820C8093810C07
:1023C0004EEE61E181EB0C94411180E090E00C94C1
:1023D000AF108DED9FEF0C94AF1083E290E00C9462
:1023E000AF100F931F93CF93DF93EC018B0169EA3A
:1023F00072E00E94B38E892B31F0DF91CF911F9153
:102400000F910C94A6116FEB72E0CE010E94B38E77
:10241000892B31F0DF91CF911F910F910C94B11165
:1024200065ED72E0CE010E94B38E892B31F0DF9111
:10243000CF911F910F910C94BC116BEE72E0CE0105
:102440000E94B38E892B31F0DF91CF911F910F91B4
:102450000C94C11161E073E0CE010E94B38E892B10
:1024600031F0DF91CF911F910F910C94C61167E16C
:1024700073E0CE010E94B38E892B31F0DF91CF91B2
:102480001F910F910C94CB116DE273E0CE010E946D
:10249000B38E892B31F0DF91CF911F910F910C9466
:1024A000D01163E473E0CE010E94B38E892B31F02A
:1024B000DF91CF911F910F910C94D51169E573E0D5
:1024C000CE010E94B38E892B31F0DF91CF911F9105
:1024D0000F910C94DA116FE673E0CE010E94B38E77
:1024E000892B31F0DF91CF911F910F910C94E51161
:1024F00065E873E0CE010E94B38E892B31F0DF9145
:10250000CF911F910F910C94E9116BE973E0CE010B
:102510000E94B38E892B31F0DF91CF911F910F91E3
:102520000C94ED1164E874E082EC9FE00E94017D60
:102530004AE050E0B80182EC9FE00E94137E62E81E
:1025400074E082EC9FE00E94017DBE0182EC9FE07E
:102550000E94447D80E0DF91CF911F910F910895FB
:10256000AB01BC01DB01CA019D7F8115984EA1051D
:10257000B10509F47FC041158EEE5807610571055C
:1025800009F478C0463B9EEF59076105710509F4CF
:1025900071C048302FEF52076105710509F46AC018
:1025A000DB01CA01AE7F8A319F4FA105B10509F455
:1025B00061C04F318FEF58076105710509F45AC0AA
:1025C00045369FEF59076105710509F453C04F3F28
:1025D0002FEF52076105710509F44CC0413180EFBE
:1025E000580781E06807710509F444C0DB01CA019E
:1025F0008D7F8431904FA140B105E1F1433185EFEA
:10260000580781E068077105A9F14B3099EF590728
:1026100091E06907710571F143302AEF520721E01B
:102620006207710539F1DB01CA0186509D4FA14057
:10263000B1090397A105B105E8F044368FEF5807BB
:1026400081E068077105B1F047369FEF590791E0C7
:102650006907710579F081E046372FEF520721E0D5
:102660006207710549F047375F4F6140710521F0FE
:1026700080E0089581E0089508956F342FEF720788
:102680008105910509F457C068363FEF730781054E
:10269000910509F450C061152DEE720721E0820703
:1026A000910509F448C0603130EF730731E08307CA
:1026B000910509F440C0653021EF720721E08207DF
:1026C0009105C9F1633131EF730731E0830791055B
:1026D00091F1693121EF720721E08207910559F1EB
:1026E000633035EF730731E08307910521F16930DD
:1026F00028EF720721E082079105E9F0633039EF96
:10270000730731E083079105B1F061302BEF720759
:1027100021E08207910579F021E064363FEF7307ED
:1027200031E08307910541F061317E4F8140910591
:1027300019F020E001C021E0822F0895EF92FF926E
:102740000F931F93CF93DF93CDB7DEB7C456D10954
:102750000FB6F894DEBF0FBECDBF2091830C2111C0
:1027600019C07C010E948A81AB01BC0104E610E023
:102770009E012F5F3F4FC7010E94EA698C010897B5
:1027800038F0BE016F5F7F4F82EC9FE00E94447D76
:10279000C80102C080E090E0CC59DF4F0FB6F8943A
:1027A000DEBF0FBECDBFDF91CF911F910F91FF9084
:1027B000EF900895CF92DF92EF92FF920F931F93C5
:1027C000CF93DF93CDB7DEB72B970FB6F894DEBF6C
:1027D0000FBECDBF8E010F5F1F4F9E01275F3F4F82
:1027E000AE01455F5F4FBE016B5F7F4F0E940834B3
:1027F000882331F1CD80DE80EF80F88428E23BE64B
:102800004EE65EECC701B6010E948E8A882381F0F5
:1028100020E030E044E353E4C701B6010E94468C57
:102820002BED3FE049E450E40E94938A6B017C0168
:10283000C701B6010E94058B82E79AE00E94CE0A8A
:102840002B960FB6F894DEBF0FBECDBFDF91CF91B0
:102850001F910F91FF90EF90DF90CF900895CF924E
:10286000DF92EF92FF920F931F93CF93DF93CDB739
:10287000DEB729970FB6F894DEBF0FBECDBF19861D
:102880001E821D8219821A821B821C828E010F5F9A
:102890001F4F9E012B5F3F4FAE01495F5F4FBE014F
:1028A000675F7F4F0E94FA34882309F47FC0C98094
:1028B000DA80EB80FC8020E030E0A901C701B6019E
:1028C0000E94418C87FD72C020E030E044EB52E46E
:1028D000C701B6010E948E8A87FF68C0C0927A0A3B
:1028E000D0927B0AE0927C0AF0927D0A88EE93E017
:1028F0009093CB0A8093CA0A61EB73E082EC9FE06D
:102900000E94447D68ED73E082EC9FE00E94257D8B
:102910006DEE73E082EC9FE00E94257D6F817885EB
:102920004AE050E082EC9FE00E94137E68EF73E083
:1029300082EC9FE00E94257D6D817E814AE050E01F
:1029400082EC9FE00E94B97D6BE074E082EC9FE036
:102950000E94257DC980DA80EB80FC8028E23BE67E
:102960004EE65EECC701B6010E948E8A882381F094
:1029700020E030E044E353E4C701B6010E94468CF6
:102980002BED3FE049E450E40E94938A6B017C0107
:1029900022E030E0B701A60182EC9FE00E94077FB1
:1029A00061EB73E082EC9FE00E94447D29960FB6B4
:1029B000F894DEBF0FBECDBFDF91CF911F910F9175
:1029C000FF90EF90DF90CF900895CF92DF92EF923B
:1029D000FF920F931F93CF93DF93CDB7DEB72F975F
:1029E0000FB6F894DEBF0FBECDBF1F8619861A86BC
:1029F0001B861C861D821E821F82188619821A82DF
:102A00001B821C829E01235F3F4F79018E010F5F65
:102A10001F4F28503109AE01475F5F4FBE01615F14
:102A20007F4F0E947534882321F1C984DA84EB84B6
:102A3000FC8428E23BE64EE65EECC701B6010E944C
:102A40008E8A882381F020E030E044E353E4C7011C
:102A5000B6010E94468C2BED3FE049E450E40E9411
:102A6000938A6B017C01B701A60182E79AE00E947C
:102A700058072F960FB6F894DEBF0FBECDBFDF917B
:102A8000CF911F910F91FF90EF90DF90CF9008951D
:102A9000CF92DF92EF92FF92CF93DF93FC0181857B
:102AA0009285089709F070C083858B3309F06CC05C
:102AB00084858F3909F068C085858F3F09F064C02F
:102AC00086858F3F09F060C087858F3F09F05CC025
:102AD000EF01618970E080E090E00E94418B20E08E
:102AE00030E040E853E40E94468C6B017C01688929
:102AF00070E080E090E00E94418B9B01AC01C70137
:102B0000B6010E94228A20E030E044EB53E40E94A8
:102B1000468C29EF3FE049E450E40E94938A20E08C
:102B200030E44CE956E40E94938A20E030E040E033
:102B30005FE30E94228A0E94058B6B017C018091D9
:102B40007F0C9091800C029739F080915E0A9091F1
:102B50005F0AC816D90641F0C6010E94230E1092E2
:102B6000610A1092600A0CC08091600A9091610A1B
:102B7000863091058CF701969093610A8093600AE4
:102B8000D0925F0AC0925E0ADF91CF91FF90EF90E2
:102B9000DF90CF900895FC0181859285089719F503
:102BA0008091830C81111FC083858B33E1F4848570
:102BB0008F39C9F48585803429F40E94D00D82E0D4
:102BC00090E00DC0803229F40E94DB0D83E090E09C
:102BD00006C0811108C00E94E60D81E090E090934C
:102BE000800C80937F0C08958F929F92AF92BF923A
:102BF000CF92DF92EF92FF920F931F93CF93DF93C9
:102C0000CDB7DEB72D970FB6F894DEBF0FBECDBFA0
:102C10001D8619861A861B861C861D821E821F82AF
:102C200018868E010F5F1F4F9E012B5F3F4FAE0135
:102C3000475F5F4FBE01635F7F4F0E94623588230D
:102C400009F448C08D809E80AF80B88428E23BE6BE
:102C50004EE65EECC501B4010E948E8AC984DA8416
:102C6000EB84FC84882349F020E030E0A901C50111
:102C7000B4010E948E8A811111C028E23BE64EE623
:102C80005EECC701B6010E948E8A882319F12FEBF2
:102C90003EE04CE95EE3C701B60114C028E23BE622
:102CA0004EE65EECC701B6010E948E8A882391F041
:102CB000A7019601C501B4010E94228A2FEB3EE0D4
:102CC0004CE95EE30E94938AAB01BC0182E79AE083
:102CD0000E9474042D960FB6F894DEBF0FBECDBFD0
:102CE000DF91CF911F910F91FF90EF90DF90CF90E8
:102CF000BF90AF909F908F900895CF92DF92EF9208
:102D0000FF920F931F93CF93DF93CDB7DEB72B972F
:102D10000FB6F894DEBF0FBECDBF1B861D821E828C
:102D20001F82188619821A821B821C828E010F5FF5
:102D30001F4F9E012B5F3F4FAE01475F5F4FBE01AC
:102D4000655F7F4F0E942F368823B1F1CD80DE80F2
:102D5000EF80F88428E23BE64EE65EECC701B60160
:102D60000E948E8A882381F020E030E044E353E41F
:102D7000C701B6010E94468C2BED3FE049E450E4C8
:102D80000E94938A6B017C01B701A60182E79AE059
:102D90000E948E08882381F021EA32EB43E05FE352
:102DA00069817A818B819C810E94938AAB01BC01ED
:102DB00082E79AE00E94BD082B960FB6F894DEBF1A
:102DC0000FBECDBFDF91CF911F910F91FF90EF907C
:102DD000DF90CF900895CF92DF92EF92FF920F9302
:102DE0001F93CF93DF93CDB7DEB72B970FB6F89431
:102DF000DEBF0FBECDBF1D821E821F8218861982C4
:102E00001A821B821C828E01075F1F4F9E012F5F5B
:102E10003F4FAE014B5F5F4FBE01655F7F4F0E942A
:102E2000C1378823A1F125EE3FEC48EF5FE36D81C8
:102E30007E818F8198850E94468CAB01BC0182E720
:102E40009AE00E94F905C980DA80EB80FC8028E2D4
:102E50003BE64EE65EECC701B6010E948E8A8823EF
:102E600081F020E030E044E353E4C701B6010E9462
:102E7000468C2BED3FE049E450E40E94938A6B01BD
:102E80007C01B701A60182E79AE00E94F0042B962C
:102E90000FB6F894DEBF0FBECDBFDF91CF911F916B
:102EA0000F91FF90EF90DF90CF9008950F931F93B5
:102EB000CF93DF93CDB7DEB728970FB6F894DEBF78
:102EC0000FBECDBF1D821E821F82188619821A82F4
:102ED0001B821C82AE014F5F5F4FBE016B5F7F4F55
:102EE0000E94D735882361F009811A812B813C81AA
:102EF0004D815E816F81788582E79AE00E9430067D
:102F000028960FB6F894DEBF0FBECDBFDF91CF91EC
:102F10001F910F9108958F929F92AF92BF92CF927F
:102F2000DF92EF92FF920F931F93CF93DF93CDB772
:102F3000DEB7AD970FB6F894DEBF0FBECDBF1DA6AE
:102F40001AA619A61D8E1E8E1F8E18A2198E1A8EF5
:102F50001B8E1C8E1D8A1E8A1F8A188E198A1A8A39
:102F60001B8A1C8A1D861E861F86188A19861A8649
:102F70001B861C861D821E821F8218861BA61AA213
:102F800019A219821A821B821C829E012F5F3F4F59
:102F90003F932F93205E3F4F3F932F932E5F3F4FE2
:102FA0003F932F93285F3F4F3F932F932652310932
:102FB0003F932F932C5F3F4F3F932F932C5F3F4FB7
:102FC0003F932F93215E3F4F3F932F93275031091B
:102FD00049012E5F3F4F59012651310969012C5F8C
:102FE0003F4F79018E01075E1F4F285F3F4FAE01B3
:102FF000475D5F4FBE01635D7F4F0E949C360FB6F9
:10300000F894DEBF0FBECDBF882321F1C98CDA8CC6
:10301000EB8CFC8C20E034E244E759ECC701B601AC
:103020000E948E8A87FD16C08D889E88AF88B88CD6
:1030300020E034E244E759ECC501B4010E948E8AD5
:1030400087FD08C095018401B701A60182E79AE0D7
:103050000E943006AD960FB6F894DEBF0FBECDBF0E
:10306000DF91CF911F910F91FF90EF90DF90CF9064
:10307000BF90AF909F908F900895CF93DF93EC0116
:103080008B819C81AD81BE8181159F4EA140B10590
:1030900009F07BC08091830C811177C089859A8566
:1030A00008970CF472C08B858B3309F06EC08C8549
:1030B0008F3909F06AC08D85803F09F066C08E8522
:1030C000813809F062C08F85843809F044C08B894B
:1030D00081FF05C00E94D00D82E090E004C00E94F4
:1030E000E60D81E090E09093800C80937F0C8B89BB
:1030F00082FF03C06AEC73E002C068EB73E082EC0D
:103100009FE00E94327D8B8983FF03C066EA73E0F3
:1031100002C063E973E082EC9FE00E94327D8989FE
:1031200082958695869583709A8996952AE5829FE1
:10313000E0011124C90FD11D64E873E082EC9FE027
:103140000E94017D4AE050E0BE0182EC9FE0DF91E9
:10315000CF910C941A7E8D3AC1F488898330A9F4FA
:103160006989062E000C770B880B990B0E94438B04
:103170002BED3FE049E450E40E94938A0E94058BC6
:10318000CB01DF91CF910C943C0EDF91CF9108954C
:10319000CF92DF92EF92FF92CF93DF93EC01CB803F
:1031A000DC80ED80FE808091660A9091670A8A300B
:1031B000910528F401969093670A8093660AC701E7
:1031C000B6010E943D13811103C1C701B6010E94DF
:1031D000B0128111FDC083E39CE00E94370D80E5B1
:1031E000C8168FEFD806E104F10449F4CE01DF914F
:1031F000CF91FF90EF90DF90CF900C94481583E62D
:10320000C8168FEFD806E104F10449F4CE01DF912E
:10321000CF91FF90EF90DF90CF900C94CB15C1141D
:103220008FEED80681E0E806F10449F4CE01DF9183
:10323000CF91FF90EF90DF90CF900C943D188DE0F0
:10324000C81681EFD80681E0E806F10469F48F81A1
:10325000882309F4BDC0CE01DF91CF91FF90EF909C
:10326000DF90CF900C94DA1382E1C81681EFD80674
:1032700081E0E806F10469F48F81882309F4A8C08D
:10328000CE01DF91CF91FF90EF90DF90CF900C9423
:10329000E5148AE1C81681EFD80681E0E806F1045A
:1032A00049F4CE01DF91CF91FF90EF90DF90CF9066
:1032B0000C942F148BE0C81685EFD80681E0E80641
:1032C000F10449F4CE01DF91CF91FF90EF90DF90B0
:1032D000CF900C94F41581E0C81688EFD80681E0F1
:1032E000E806F10449F4CE01DF91CF91FF90EF9011
:1032F000DF90CF900C94561782E0C81688EFD8065E
:1033000081E0E806F10449F4CE01DF91CF91FF900E
:10331000EF90DF90CF900C947D1685E0C81688EF73
:10332000D80681E0E806F10449F4CE01DF91CF919F
:10333000FF90EF90DF90CF900C948B1782E0C8162F
:103340008DEFD80681E0E806F10449F4CE01DF9163
:10335000CF91FF90EF90DF90CF900C94EB16D701B8
:10336000C6018E50984FA140B1090297A105B10541
:1033700030F182E0C8168BEFD80681E0E806F10450
:10338000F1F0D701C60181519B4FA140B1090297CD
:10339000A105B105A0F06FE174E082EC9FE00E940E
:1033A000257D2AE030E0B701A60182EC9FE00E9473
:1033B0009F7D69E274E082EC9FE00E94257DCE0152
:1033C000DF91CF91FF90EF90DF90CF900C949E1300
:1033D000DF91CF91FF90EF90DF90CF9008950F9302
:1033E0001F93CF93DF93E3E7FCE01382128288EE12
:1033F00093E0A0E0B0E084839583A683B78383E461
:1034000097E091838083E3E6FCE088E290E091839B
:10341000808348EC50E060E070E042835383648333
:10342000758380E293E0A0E0B0E086839783A08775
:10343000B187E3E5FCE029E230E031832083428379
:1034400053836483758386839783A087B187E3E47E
:10345000FCE02AE230E0318320834283538364839B
:10346000758386839783A087B187E3E3FCE02BE233
:1034700030E0318320834283538364837583868362
:103480009783A087B18765E382E39CE00E94E7779A
:103490008EE490E00E943A81EC0102E310E025E125
:1034A00042E065E30E94CD31D093310CC093300CE3
:1034B00082E19CE00E94FB2D85EF9BE00E94FB2DAA
:1034C00084E99BE00E94092983E39BE00E9409298B
:1034D00082ED9AE00E940929E2E7FAE01092BB0A25
:1034E0001092BA0A1092BD0A1092BC0A1092BF0A3A
:1034F0001092BE0A1092C10A1092C00A1092C30A1A
:103500001092C20A1092C50A1092C40A1092C70AF9
:103510001092C60A1092C90A1092C80A1092CB0AD9
:103520001092CA0A1092CD0A1092CC0A1092CF0AB9
:103530001092CE0A1092D10A1092D00A10821182F3
:1035400012821382148215821682178210861186C7
:10355000128613861486158616861786108A118A97
:10356000128A138A158A148A178A168A118E108E67
:1035700080E4828F148E138E168E158E10A2178EF5
:1035800081A312A213A214A215A216A217A210A61A
:1035900011A612A613A614A615A617A616A66AE6C5
:1035A00078E082EA9AE00E94AC8E6AE678E08EEAE1
:1035B0009AE0DF91CF911F910F910C94AC8E83E430
:1035C00097E09093740C8093730C0C94682D8F92F9
:1035D0009F92AF92BF92CF92DF92EF92FF920F93A2
:1035E0001F93CF93DF934C01FC01C181CF70D0E0DA
:1035F000239685E0C82ED12C85E89DE00E942B7A89
:10360000892B59F085E89DE00E94942F63E070E0DB
:1036100080E090E00E94BB81EFCF540121E0E12CDB
:10362000F12C11E0EC16FD060CF010E0122331F144
:10363000F50101915F0110E0E114F10409F411605A
:10364000B80185E89DE00E94B92F63E070E080E05A
:1036500090E00E94BB8185E89DE00E942B7A892B37
:1036600041F085E89DE00E94942F21E080179107AA
:1036700009F020E0FFEFEF1AFF0AD3CF211112C0AB
:1036800022E330E040E050E062E070E080E090E073
:103690000E9406810E94BB8181E0C81AD10809F00E
:1036A000ABCF01C011E0812FDF91CF911F910F911E
:1036B000FF90EF90DF90CF90BF90AF909F908F9052
:1036C000089580916A0A90916B0A0A9720F08EE71C
:1036D00095E00C94E71A08958F929F92AF92BF9253
:1036E000CF92DF92EF92FF920F931F93CF93DF93CE
:1036F0004C01FC01C181CF70D0E0239685E0C82E3B
:10370000D12C82EA9EE00E942B7A892B59F082EA22
:103710009EE00E94942F63E070E080E090E00E94C1
:10372000BB81EFCF540121E0E12CF12C11E0EC162C
:10373000FD060CF010E0122331F1F50101915F015B
:1037400010E0E114F10409F41160B80182EA9EE08E
:103750000E94B92F63E070E080E090E00E94BB819E
:1037600082EA9EE00E942B7A892B41F082EA9EE059
:103770000E94942F21E08017910709F020E0FFEFCD
:10378000EF1AFF0AD3CF211112C022E330E040E04C
:1037900050E062E070E080E090E00E9406810E94CC
:1037A000BB8181E0C81AD10809F0ABCF01C011E09C
:1037B000812FDF91CF911F910F91FF90EF90DF90BC
:1037C000CF90BF90AF909F908F9008958091680A9E
:1037D0009091690A0A9720F08BE795E00C946C1B96
:1037E00008950F931F93CF93DF93CDB7DEB7C757DD
:1037F000D1090FB6F894DEBF0FBECDBF83E79CE0C2
:103800000E94FE2A18161906ACF583E79CE00E9478
:10381000D52A97FD2FC0682F83E39BE00E941829CB
:10382000019741F583E49CE00E94370D83E39BE020
:103830000E940F2A8C010E941D10C8010E94550E83
:1038400060E177E0C8010E94940D882399F0B801E7
:10385000CE0101960E94D9278091840C811105C068
:10386000CE018B599F4F0E94E71ACE018B599F4F73
:103870000E946C1BC958DF4F0FB6F894DEBF0FBE15
:10388000CDBFDF91CF911F910F9108950F931F939B
:10389000CF93DF93CDB7DEB7C757D1090FB6F894F2
:1038A000DEBF0FBECDBF82EA9EE00E942B7A892B3D
:1038B00009F442C082EA9EE00E94942F97FD3CC02A
:1038C000BC0185EF9BE00E94052E8823A9F183E5CA
:1038D0009CE00E94370D8091680A9091690A8A30B5
:1038E000910528F401969093690A8093680A85EF00
:1038F0009BE00E94682E8C0185EF9BE00E945E2E6B
:10390000B8010E94882DFC0110810E94822D412F58
:10391000BC01CE0101960E948E286EE274E082EC1A
:103920009FE00E94257DCE0101960E94F821BC01F6
:1039300082EC9FE00E94447DC958DF4F0FB6F89497
:10394000DEBF0FBECDBFDF91CF911F910F910895C4
:10395000CF92DF92EF92FF920F931F93CF93DF935B
:1039600085E89DE00E942B7A892B09F48AC385E8BB
:103970009DE00E94942F97FD84C3BC0182E19CE0EE
:103980000E94052E882309F47CC383E69CE00E94F4
:10399000370D80916A0A90916B0A8A30910528F45C
:1039A000019690936B0A80936A0A82E19CE00E94E0
:1039B000682EEC0182E19CE00E945E2EBE010E9416
:1039C000882DEC010E94842D8C0182E19CE00E94F4
:1039D000682E7C0180910A02882351F0CE010E945A
:1039E000822D892B29F08881998103970CF0C2C21E
:1039F0000115110531F525E0E216F10409F0ACC21C
:103A00006E8170E0762F66278D81680F711D072EFD
:103A1000000C880B990B0E94438B20E030E040E2C1
:103A200051E40E94938AAB01BC0182E79AE00E94B4
:103A30007404882309F490C282E79AE00E94AC04DF
:103A40008BC20530110509F487C20031110539F523
:103A500034E0E316F10409F07FC26C8170E0762F48
:103A60006627CB01770FAA0BBB0B2D81BC01CD01C3
:103A7000622B0E94418B20E030E040E05FE30E9437
:103A8000468CAB01BC0182E79AE00E94F0048823D7
:103A900009F462C282E79AE00E9490055DC201319A
:103AA0001105B1F544E0E416F10409F055C21C819A
:103AB0006D816F7070E080E090E00E94438B20E0A9
:103AC00030E040E251E40E94938A6B017C01612F57
:103AD0006F7770E080E090E00E94438B9B01AC0127
:103AE000C701B6010E94228A17FF0AC022EA32EB00
:103AF00043E05FE36B017C01C701B6010E94938A3A
:103B0000462F572FBC0182E79AE00E94F905BFCFEC
:103B10000032110509F420C2C80183978230910553
:103B200008F41AC203978230910508F415C28A97E7
:103B3000029708F411C20235110551F584E0E81628
:103B4000F10409F009C26D8170E0762F66278C813F
:103B5000680F711D072E000C880B990B0E94438B78
:103B600020E030E040E251E40E94938AAB01BC01C6
:103B700082E79AE00E94BD08882309F4EDC182E73C
:103B80009AE00E94F50882E79AE00E946A09E4C17F
:103B90000335110509F06DC023E0E216F10409F0C8
:103BA000DBC11B81612F607370E0B4E07595679590
:103BB000BA95E1F7072E000C880B990B0E94438BF6
:103BC00020E030E044EB52E40E94468C6B017C0123
:103BD0006C816F7370E080E090E00E94438B9B01EA
:103BE000AC010E94228A9B01AC01C701B6010E9470
:103BF000228A6B017C01612F70E014E07595679556
:103C00001A95E1F76C707727072E000C880B990B3B
:103C10000E94438B20E030E040E05EE30E94468C4F
:103C20009B01AC01C701B6010E94228A6B017C0195
:103C30009B01AC016091980A7091990A80919A0A4F
:103C400090919B0A0E94218A9F7720E030E044E314
:103C500054E40E948E8A87FF7FC120E030E044EB6D
:103C600053E4C701B6019F770E948E8A87FD88C101
:103C700073C10435110539F534E0E316F10409F098
:103C80006BC15D81852F90E048970CF065C18C81F8
:103C9000282F2C7F30E035952795359527952C33A7
:103CA00031050CF059C140E1849FC00111249927CE
:103CB0004B8142954F70842B8F7399278C339105DC
:103CC0000CF465C149C106351105D9F484E0E81644
:103CD000F10409F041C19C818FEF890F8F3108F009
:103CE0003BC18B8182958F702FEF280F2C3008F00D
:103CF00033C12D81422F50E0433151050CF072C188
:103D00002BC10735110509F427C10835110561F4E8
:103D100028E0E216F10419F4CE010E94520B82E76A
:103D20009AE00E94200718C10935110509F414C151
:103D30000238110509F410C10438110509F073C0E7
:103D40002B81822F807390E0F4E095958795FA950A
:103D5000E1F73AE5389FB001399F700D11248C814D
:103D60008F73680F711D680F711D220F611D711D0A
:103D7000072E000C880B990B0E94438B6093940ACA
:103D80007093950A8093960A9093970A8091C40A3B
:103D90009091C50A02969093C50A8093C40A03972E
:103DA00034F082E090E09093C50A8093C40A809139
:103DB000830C8111D1C08E8181FF05C00E94D00D7E
:103DC00082E090E004C00E94E60D81E090E09093D4
:103DD000800C80937F0C8E8182FF03C062E174E0CF
:103DE00002C060E074E082EC9FE00E94327D8E8130
:103DF00083FF03C06EEE73E002C06BED73E082ECF4
:103E00009FE00E94327D8C81829586958695837095
:103E10002D8126953AE5839FC0011124820F911DC3
:103E20000E94230E99C0C80185589109029708F491
:103E300093C00938110591F545E0E416F10409F045
:103E40008BC08B8190E044E0959587954A95E1F78A
:103E50009C01237033274DE2429FB001439F700DB8
:103E600011242C812F73620F711D660F771FE3E001
:103E700096958795EA95E1F7680F791F072E000C54
:103E8000880B990B0E94438BAB01BC0182E79AE03F
:103E90000E945807882309F45FC052C000391105F9
:103EA00009F45AC00939110561F483E0E816F104F8
:103EB00009F052C06C8170E06A3571050CF4BEC027
:103EC0004BC00C39110509F047C024E0E216F1049B
:103ED00009F042C02B81822F807390E034E09595E9
:103EE00087953A95E1F73AE5389FB001399F700D13
:103EF00011248C818F73680F711D680F711D220F43
:103F0000611D711D072E000C880B990B0E94438BBD
:103F1000AB01BC0182E79AE00E9458078823E1F0D8
:103F20006D8170E0603871050CF07A9582E79AE057
:103F30000E94CE0A882381F082E79AE00E94E70A75
:103F400082E79AE00E948F0782E79AE00E94DE07EC
:103F500082E79AE00E942408209709F492C0CE01DB
:103F6000DF91CF911F910F91FF90EF90DF90CF9055
:103F70000C943E81CE010E94822D0E946C1B38CD94
:103F8000B701A60182E79AE00E948E08F5CD9F93C3
:103F90008F933F932F931F925F9387E394E09F93B8
:103FA0008F938EEA9AE09F938F930E940A8F80915D
:103FB000D00A9091D10A06969093D10A8093D00AA4
:103FC0002DB73EB7265F3F4F0FB6F8943EBF0FBEEA
:103FD0002DBF07970CF286E090E09093D10A809372
:103FE000D00ABACF1F922F931F928F931F929F9345
:103FF00087E394E09F938F9382EA9AE09F938F9355
:104000000E940A8F8091CE0A9091CF0A4496909395
:10401000CF0A8093CE0A2DB73EB7265F3F4F0FB62B
:10402000F8943EBF0FBE2DBF45970CF495CF84E1A9
:1040300090E09093CF0A8093CE0A8ECF072E000C8B
:10404000880B990B0E94438B60937A0A70937B0ACA
:1040500080937C0A90937D0A8091CA0A9091CB0A42
:1040600088519C4F9093CB0A8093CA0A893E934013
:104070000CF46ECF88EE93E09093CB0A8093CA0A3B
:1040800067CFDF91CF911F910F91FF90EF90DF905D
:10409000CF9008950F931F93CF93DF93CDB7DEB7E3
:1040A000C757D1090FB6F894DEBF0FBECDBF8FE55D
:1040B00090E10E942B7A892B09F441C08FE590E1B1
:1040C0000E94457A97FD3BC0682F82ED9AE00E94DE
:1040D00018290197A1F583E49CE00E94370D809197
:1040E000640A9091650A8A30910528F401969093AC
:1040F000650A8093640A82ED9AE00E940F2A8C017F
:104100000E941D10C8010E94550E60E177E0C801B1
:104110000E94940D882399F0B801CE0101960E9467
:10412000D9278091840C811105C0CE018B599F4FF6
:104130000E94E71ACE018B599F4F0E946C1BC958F1
:10414000DF4F0FB6F894DEBF0FBECDBFDF91CF912A
:104150001F910F910895FF920F931F93CF93DF93B9
:10416000CDB7DEB7C757D1090FB6F894DEBF0FBE83
:10417000CDBFFF24F39482EC9FE00E942B7A892B21
:1041800009F48CC082EC9FE00E94457A682F84E994
:104190009BE00E9418298130910541F584E99BE05C
:1041A0000E940F2A8C0184E99BE00E941A2A07973B
:1041B0000CF474C0F8018081813249F48091830C41
:1041C00081116CC0B8018FE590E10E94257D60E10E
:1041D00077E0C8010E94940D811124C064E474E06A
:1041E000C8010E94940D81111DC046C08230910506
:1041F00049F460E674E082EC9FE00E94327D66E55F
:1042000074E00BC0039709F0B6CF6DE274E082EC66
:104210009FE00E94327D63E274E082EC9FE00E94A6
:10422000327DA9CF8091830C811138C08091840C9C
:10423000811112C080916A0A90916B0A0A9708F462
:104240009ACFB801CE0101960E94D927CE018B5991
:104250009F4F0E94E71A1BC08091660A9091670ADF
:104260000A9708F488CF84E99BE00E941A2ABC01CF
:10427000C8010E94F1110BC068E474E0C8010E94FB
:10428000AC0D882309F477CFF092830C74CF6EE4E1
:1042900074E082EC9FE00E94447D6DCFC958DF4FEF
:1042A0000FB6F894DEBF0FBECDBFDF91CF911F9147
:1042B0000F91FF900895A8950E94A81C0E94461C8B
:1042C0000E94AB200E944A200E94F11B80912F0C7B
:1042D000882331F08091300C9091310C0E94FB6763
:1042E0008091620A9091630A813A2FE09207A4F1CB
:1042F0000E94F10D82E79AE00E942D0B1092630A52
:104300001092620A8091700A9091710A8F31910522
:10431000B0F00E94611B0E94E61B80916E0A909192
:104320006F0A9C012F5F3F4F30936F0A20936E0AF4
:104330000E94840E1092710A1092700A08950196DC
:104340009093710A8093700A80FF02C061E001C0FF
:1043500060E08DE00C94EB8201969093630A809369
:10436000620A803D974031F40E94F10D82E79AE0A5
:104370000C942B0B08950F931F93CF93DF938C0115
:10438000EC0109900020E9F72197C81BD90BBE0169
:104390006150710901960E94292AF801EC0FFD1F56
:1043A0002AE220839F938F9385E197E09F938F93D9
:1043B000CE010196800F911F9F938F930E940A8FC9
:1043C0000F900F900F900F900F900F90CE010396CB
:1043D00068E678E0800F911FDF91CF911F910F91D8
:1043E0000C94AC8E24E6FC0111922A95E9F708950D
:1043F00008958F929F92AF92BF92CF92DF92EF92E9
:10440000FF920F931F93CF93DF93D82FC92F6A0189
:104410007B014801590120E030E040E251E4C50150
:10442000B4010E94468C0E94058B0AE010E0CB018B
:10443000B8010E94A1899F938F93C501B4010E9486
:10444000058B7F936F9320E030E040E251E4C70199
:10445000B6010E94468C0E94058BCB01B8010E94D8
:10446000A1899F938F93C701B6010E94058B7F930B
:104470006F9388E594E09F938F938FEF8F938DEFE9
:104480008F93CF93DF930E94CD8E8DB79EB70E96FC
:104490000FB6F8949EBF0FBE8DBF8D2F9C2FDF915E
:1044A000CF911F910F91FF90EF90DF90CF90BF9031
:1044B000AF909F908F900C94BB212F923F924F9280
:1044C0005F926F927F928F929F92AF92BF92CF92A4
:1044D000DF92EF92FF920F931F93CF93DF9300D061
:1044E0001F92CDB7DEB7382E292E4A015B01A901F4
:1044F0009801C501B4010E94218A69837A838B8364
:104500009C8326E53EE04DEE5FE3C701B6010E94C5
:10451000468C2B013C0120E030E040E251E40E9457
:10452000468C0E94058BCB016AE070E00E94A18955
:104530009F938F93C301B2010E94058B7F936F936A
:1045400020E030E040E251E4C701B6010E94468C11
:104550000E94058BCB016AE070E00E94A1899F93C5
:104560008F93C701B6010E94058B7F936F9320E064
:1045700030E040E251E4C501B4010E94468C0E9443
:10458000058BCB016AE070E00E94A1899F938F9315
:10459000C501B4010E94058B7F936F9320E030E04A
:1045A00040E251E469817A818B819C810E94468C32
:1045B0000E94058BCB016AE070E00E94A1899F9365
:1045C0008F9369817A818B819C810E94058B7F9377
:1045D0006F9382EB94E09F938F938FEF8F938DEF88
:1045E0008F932F923F920E94CD8E0FB6F894DEBF2C
:1045F0000FBECDBF832D922D0F900F900F900F9077
:10460000DF91CF911F910F91FF90EF90DF90CF90AE
:10461000BF90AF909F908F907F906F905F904F90E2
:104620003F902F900C94BB212F923F924F925F921C
:104630006F927F928F929F92AF92BF92CF92DF92B2
:10464000EF92FF920F931F93CF93DF9300D01F92AF
:10465000CDB7DEB7382E292E6A017B01280139013A
:1046600026E53EE04DEE5FE3C301B2010E94468CB9
:104670004B015C0120E030E04AE754E40E94468CA4
:1046800020E030E041E655E40E94938A69837A8312
:104690008B839C8320E030E044E353E4C701B60100
:1046A0000E94418C181664F4A701960160E070E046
:1046B00084EB93E40E94218A6B017C011CE401C01D
:1046C00012E520E030E040E251E4C501B4010E946F
:1046D000468C0E94058BCB016AE070E00E94A189A4
:1046E0009F938F93C501B4010E94058B7F936F93B5
:1046F00020E030E040E251E469817A818B819C8145
:104700000E94468C0E94058BCB016AE070E00E94FB
:10471000A1899F938F9369817A818B819C810E946B
:10472000058B7F936F9320E030E040E251E4C301BA
:10473000B2010E94468C0E94058BCB016AE070E0BA
:104740000E94A1899F938F93C301B2010E94058BA0
:104750007F936F931F921F9320E030E040E251E47B
:10476000C701B6010E94468C0E94058BCB016AE00E
:1047700070E00E94A1899F938F93C701B6010E94A8
:10478000058B7F936F9381EE94E09F938F938FEFD0
:104790008F938DEF8F932F923F920E94CD8E0FB605
:1047A000F894DEBF0FBECDBF832D922D0F900F90DA
:1047B0000F900F90DF91CF911F910F91FF90EF908D
:1047C000DF90CF90BF90AF909F908F907F906F9031
:1047D0005F904F903F902F900C94BB21CF93DF932D
:1047E000D82FC92F0E94F221E2E7FAE081A1282FF9
:1047F000082E000C330B3F938F9380A18F93878DEE
:104800008F93868D8F93858D8F93848D8F93838DDA
:104810008F93828D282F082E000C330B3F938F939C
:10482000818D8F93808D8F9387898F9386898F93C6
:1048300085898F9384898F9381E195E09F938F93EE
:104840008FEF8F938F93CF93DF930E94CD8E8DB791
:104850009EB746960FB6F8949EBF0FBE8DBF8D2FA4
:104860009C2FDF91CF910C94BB214F925F926F925E
:104870007F92AF92BF92CF92DF92EF92FF920F930F
:104880001F93CF93DF938C010E94F221C2E7DAE0FD
:10489000CAA4DBA4ECA4FDA4288539854A855B85E0
:1048A0006EA17FA188A599A50E94218A2B013C01B8
:1048B00020E030E040E251E40E94468C0E94058BEB
:1048C0008AE0A82EB12CCB01B5010E94A1899F934B
:1048D0008F93C301B2010E94058B7F936F9320E0F9
:1048E00030E040E251E4C701B6010E94468C0E94CC
:1048F000058BCB01B5010E94A1899F938F93C701BE
:10490000B6010E94058B7F936F9389A1282F082EF3
:10491000000C330B3F938F9388A18F938F8D8F93D0
:104920008E8D8F938D8D8F938C8D8F938B8D8F9399
:104930008A8D282F082E000C330B3F938F93898D7F
:104940008F93888D8F938F898F938E898F938D8985
:104950008F938C898F938BE795E09F938F938FEF45
:104960008F938DEF8F931F930F930E94CD8E8DB7F2
:104970009EB74E960FB6F8949EBF0FBE8DBFC8016E
:10498000DF91CF911F910F91FF90EF90DF90CF902B
:10499000BF90AF907F906F905F904F900C94BB2131
:1049A0004F925F926F927F92AF92BF92CF92DF92BF
:1049B000EF92FF920F931F93CF93DF938C010E948E
:1049C000F221C2E7DAE0CAA4DBA4ECA4FDA42885A6
:1049D00039854A855B856EA17FA188A599A50E942E
:1049E000218A2B013C0182EA9AE09F938F9320E079
:1049F00030E040E251E4C301B2010E94468C0E94C3
:104A0000058B8AE0A82EB12CCB01B5010E94A189AB
:104A10009F938F93C301B2010E94058B7F936F9385
:104A200020E030E040E251E4C701B6010E94468C2C
:104A30000E94058BCB01B5010E94A1899F938F93A2
:104A4000C701B6010E94058B7F936F9389A1282F20
:104A5000082E000C330B3F938F9388A18F938F8D7B
:104A60008F938E8D8F938D8D8F938C8D8F938B8D58
:104A70008F938A8D282F082E000C330B3F938F9332
:104A8000898D8F93888D8F938F898F938E898F9344
:104A90008D898F938C898F938EEA9AE09F938F9361
:104AA00089EB95E09F938F938FEF8F938DEF8F938B
:104AB0001F930F930E94CD8E8DB79EB782960FB62F
:104AC000F8949EBF0FBE8DBFC801DF91CF911F919B
:104AD0000F91FF90EF90DF90CF90BF90AF907F90BD
:104AE0006F905F904F900C94BB212F923F924F920A
:104AF0005F926F927F928F929F92AF92BF92CF926E
:104B0000DF92EF92FF920F931F93CF93DF931C01DD
:104B10000E94F221C2E7DAE08AA49BA4ACA4BDA45F
:104B2000C884D984EA84FB84A70196016EA17FA181
:104B300088A599A50E94218A2B013C0120E030E044
:104B400040E251E4C701B6010E94468C0E94058BE9
:104B50000AE010E0CB01B8010E94A1899F938F93D6
:104B6000C701B6010E94058B7F936F9382EA9AE09A
:104B70009F938F9320E030E040E251E4C301B20103
:104B80000E94468C0E94058BCB01B8010E94A1892E
:104B90009F938F93C301B2010E94058B7F936F9304
:104BA00020E030E040E251E4C501B4010E94468CAF
:104BB0000E94058BCB01B8010E94A1899F938F931E
:104BC000C501B4010E94058B7F936F9389A1282FA3
:104BD000082E000C330B3F938F9388A18F938F8DFA
:104BE0008F938E8D8F938D8D8F938C8D8F938B8DD7
:104BF0008F938A8D282F082E000C330B3F938F93B1
:104C0000898D8F93888D8F938F898F938E898F93C2
:104C10008D898F938C898F938EEA9AE09F938F93DF
:104C20008DEF95E09F938F938FEF8F938DEF8F9301
:104C30003F922F920E94CD8E8DB79EB786960FB66B
:104C4000F8949EBF0FBE8DBFC101DF91CF911F9120
:104C50000F91FF90EF90DF90CF90BF90AF909F901B
:104C60008F907F906F905F904F903F902F900C941B
:104C7000BB214F925F926F927F928F929F92AF92E1
:104C8000BF92CF92DF92EF92FF920F931F93CF9339
:104C9000DF938C016A017B012FEB3EE04CE95EE380
:104CA000C701B6010E94468C4B015C012EE136E142
:104CB0004AEE5FE30E94938A2B013C0120E030E042
:104CC00040E251E40E94468C0E94058BCAE0D0E08D
:104CD000CB01BE010E94A1899F938F93C301B201B2
:104CE0000E94058B7F936F9320E030E040E251E417
:104CF000C501B4010E94468C0E94058BCB01BE0108
:104D00000E94A1899F938F93C501B4010E94058BD6
:104D10007F936F9320E030E040E251E4C701B60199
:104D20000E94468C0E94058BCB01BE010E94A18986
:104D30009F938F93C701B6010E94058B7F936F935A
:104D400088E496E09F938F938FEF8F938DEF8F93EF
:104D50001F930F930E94CD8E8DB79EB742960FB6CC
:104D6000F8949EBF0FBE8DBFC801DF91CF911F91F8
:104D70000F91FF90EF90DF90CF90BF90AF909F90FA
:104D80008F907F906F905F904F900C94BB218F928B
:104D90009F92AF92BF92CF92DF92EF92FF920F93CA
:104DA0001F93CF93DF93D82FC92F6A017B0148014E
:104DB000590120E030E040E251E4C501B4010E9415
:104DC000468C0E94058B0AE010E0CB01B8010E94DE
:104DD000A1899F938F93C501B4010E94058B7F9396
:104DE0006F931F921F921F921F9220E030E040E2CB
:104DF00051E4C701B6010E94468C0E94058BCB018D
:104E0000B8010E94A1899F938F93C701B6010E94A8
:104E1000058B7F936F938CE996E09F938F938FEF31
:104E20008F938DEF8F93CF93DF930E94CD8E8DB7AD
:104E30009EB742960FB6F8949EBF0FBE8DBF8D2FC2
:104E40009C2FDF91CF911F910F91FF90EF90DF90FA
:104E5000CF90BF90AF909F908F900C94BB21CF923A
:104E6000DF92EF92FF92CF93DF93D82FC92F6A0181
:104E70007B0120E030E040E251E4C701B6010E942E
:104E8000468C0E94058BCB016AE070E00E94A189EC
:104E90009F938F93C701B6010E94058B7F936F93F9
:104EA0008FEB96E09F938F938FEF8F938DEF8F9380
:104EB000CF93DF930E94CD8E8DB79EB70A960FB623
:104EC000F8949EBF0FBE8DBF8D2F9C2FDF91CF9189
:104ED000FF90EF90DF90CF900C94BB21CF92DF92A8
:104EE000EF92FF92CF93DF93D82FC92F6A017B01F6
:104EF000B901330F880B990B0E94438B9B01AC01C6
:104F0000C701B6010E94218A6B017C0120E030E0DC
:104F100040E251E40E94468C0E94058BCB016AE07E
:104F200070E00E94A1899F938F93C701B6010E94F0
:104F3000058B7F936F9380ED96E09F938F938FEF18
:104F40008F938DEF8F93CF93DF930E94CD8E8DB78C
:104F50009EB70A960FB6F8949EBF0FBE8DBF8D2FD9
:104F60009C2FDF91CF91FF90EF90DF90CF900C942A
:104F7000BB21CF93DF93D82FC92F7F936F9381EEFF
:104F800096E09F938F938FEF8F938DEF8F93CF93B7
:104F9000DF930E94CD8E8DB79EB708960FB6F8941A
:104FA0009EBF0FBE8DBF8D2F9C2FDF91CF910C9494
:104FB000BB219F92AF92BF92CF92DF92EF92FF926E
:104FC0000F931F93CF93DF93CDB7DEB7E2970FB662
:104FD000F894DEBF0FBECDBF8C017B010E94F22191
:104FE0001AAA19AAF70101900020E9F73197BF0129
:104FF0006E197F099E012F5C3F4FAE014F5F5F4FDF
:10500000C7010E94392A29A9FF24FA94F20E6801E7
:1050100086E7C80ED11CD601FC92B2E0BF1508F09D
:1050200053C0ED81FE81DF010D900020E9F7CD0135
:1050300003978E179F0709F047C081810E94C12AFC
:105040002F2D30E08F7090E0039628173907E1F597
:10505000FE0131967F010C591F4FA12CB12CD601B6
:105060008C9190E0A816B9068CF5BFEFAB1ABB0A7D
:10507000D7011296ED91FC911397DF010D9000205E
:10508000E9F7CD0103978E179F07C1F480810E9435
:10509000C12A982ED7011296ED91FC911397818128
:1050A0000E94C12AB0E19B9E800D1124F8018083EB
:1050B000F2E0EF0EF11C0F5F1F4FD1CF80810E94F5
:1050C000C12AD8018C93F4CFF60110828E010F5FB4
:1050D0001F4FE12CF12C89A99AA9E816F90664F46E
:1050E000D8018D919D918D01009711F00E94508DF6
:1050F000BFEFEB1AFB0AEFCFE2960FB6F894DEBFD4
:105100000FBECDBFDF91CF911F910F91FF90EF9018
:10511000DF90CF90BF90AF909F9008954F925F9295
:105120006F927F928F929F92AF92BF92CF92DF92B7
:10513000EF92FF920F931F93CF93DF93EC017B01CC
:10514000142F582E4D2E0E94F221A12EB12CA50114
:10515000B701CE018C599F4F0E94888EFE01EA58FC
:10516000FF4F10836DE077E0CE010E94AC8E4701C7
:1051700007EF1FEF84E1C82E87E0D82E9DEF692E40
:1051800077247A94C4018E199F098A159B05FCF433
:10519000F40181914F011F928F93DF92CF92C3014F
:1051A000801B910B8C0F9D1F9F938F931F930F93C9
:1051B0004F925F920E94CD8E035011098DB79EB71A
:1051C0000A960FB6F8949EBF0FBE8DBFDBCFCE01FF
:1051D000DF91CF911F910F91FF90EF90DF90CF90D3
:1051E000BF90AF909F908F907F906F905F904F9007
:1051F0000C94BB21082E000C990B0E94808E282F46
:10520000082E000C990B213414F0C7970895C0970D
:105210000895FC01E55AFF4F1182108232971182E6
:105220001082349611821082329611821082089573
:105230004F925F926F927F928F929F92AF92BF92A6
:10524000CF92DF92EF92FF920F931F93CF93DF9352
:10525000EC016C014BE5C40ED11CF60120813181BB
:10526000875A9F4F7C01243631051CF0FC011182C6
:1052700010826A3011F06D3019F4F701118210823A
:10528000643211F0613279F485E5FE0111928A955C
:10529000E9F7688381E090E0F60191838083F7016C
:1052A00091838083A8C0F70100811181013011052D
:1052B00021F002301105C9F09BC0FE01E20FF31F7F
:1052C0006083C9010196F601918380836A3209F0F7
:1052D00092C082E090E0F70191838083C95ADF4F4A
:1052E000215031093983288386C0FE01E20FF31F64
:1052F00060832F5F3F4FF60131832083FE01E95A1F
:10530000FF4F60817181261B370B243031050CF46F
:1053100072C0CE0101960E94292A3C01F6018080CC
:1053200091805E01A80CB91CF501329780810E9422
:10533000FA282C0184E0440C551C8A95E1F7F5010C
:10534000319780810E94FA282DE0F5012083940195
:105350002E5F3F4F4AE04183FE01EB5AFF4F3183FE
:105360002083F3E08F0E911CF60191828082FE0172
:10537000E20FF31F1082840D951D6816790601F166
:1053800080919D0C90919E0C019690939E0C809321
:105390009D0C6AE177E082EC9FE00E94257DBE01D2
:1053A00082EC9FE00E94447DF70111821082C35A73
:1053B000DF4F288139812F5F3F4F398328831DC0FC
:1053C00080919F0C9091A00C01969093A00C8093DB
:1053D0009F0CC15ADF4F88819981019699838883F8
:1053E00083E090E0F7019183808301E010E005C045
:1053F000F7011182108200E010E0C801DF91CF9127
:105400001F910F91FF90EF90DF90CF90BF90AF90E2
:105410009F908F907F906F905F904F900895FC01C8
:10542000E75AFF4F208131812330310511F080E0B0
:1054300090E00895FC01E75AFF4F2081318123302D
:10544000310521F4349780819181089580E090E0C6
:105450000895FC01680F791F80E090E0E617F707D8
:1054600039F02191022E000C330B82279327F6CFBF
:1054700008952F923F924F925F926F927F928F92F8
:105480009F92AF92BF92CF92DF92EF92FF920F93D3
:105490001F93CF93DF9300D01F92CDB7DEB74C019F
:1054A0001B012A015901F901118210826C0100E0EF
:1054B00010E0612C712C1C830B83021513050CF07A
:1054C00049C0DA82C982F60180810F5F1F4F8C329A
:1054D00011F08A32B1F58B819C81861997099C83E2
:1054E0008B83181619068CF401960E94B88C7C01E7
:1054F000B401660D771D4B815C810E94888EEB8123
:10550000FC81EE0DFF1D108209C082E090E00E9438
:10551000B88C7C016AE678E00E94AC8EF50180814F
:1055200091819C012F5F3F4F31832083880F991F0A
:10553000F201E80FF91FF182E082380128313105CC
:105540004CF4FFEFCF1ADF0AE981FA8180818A32B9
:1055500009F0B1CF0F900F900F900F90DF91CF9186
:105560001F910F91FF90EF90DF90CF90BF90AF9081
:105570009F908F907F906F905F904F903F902F9073
:10558000089590ED980F9A3060F09FEB980F963049
:1055900010F4875308959FE9980F963020F48755AB
:1055A0000895892F089580E0089580917B0D909152
:1055B0007A0D891769F09F5F903508F090E0E92F28
:1055C000F0E0E65DF24F808190937A0D90E00895CF
:1055D0008FEF9FEF089580917B0DE0917A0D8E17EC
:1055E00051F0EF5FE03508F0E0E0F0E0E65DF24F0B
:1055F000808190E008958FEF9FEF089550917B0D8B
:1056000040917A0D852F90E0242F30E0541710F44C
:10561000805B9F4F821B930B0895E091A10CF0914A
:10562000A20C309709F0199490917B0D9F5F9035F3
:1056300008F090E020917A0D291739F0E92FF0E079
:10564000E65DF24F808390937B0D08959B01AC0142
:10565000213668E136074105510530F41092730098
:105660001092200181E828C0DA01C90173E0B695E3
:10567000A795979587957A95D1F7813668E1960732
:10568000A105B10550F4109273001092200122E898
:10569000209321019C01AD0111C0232F342F452FF0
:1056A0005527213688E1380741055105C0F510928C
:1056B00073001092200184E8809321013093840DBF
:1056C0002093830DA5E2B0E00E94FE89DC01CB01AE
:1056D00022E0B695A795979587952A95D1F790934F
:1056E0007D0D80937C0D62E080E30E94AF8261E0DB
:1056F0008EE20E94EB8261E08EE20E94AF82109205
:10570000820D10927B0D10927A0D1092290D10923D
:10571000260D1092250D80E28ABB809373000895B8
:105720009091260D9F5F97FD90E02091250D291700
:10573000E1F32FB7F8943091290D332341F0E92F8D
:10574000F0E0EB55F34F80839093260D1DC091E060
:105750009093290D8093280D1092270D82E08ABB2B
:1057600080917300826080937300809120018F7B11
:1057700080688093200180912401909125014096BA
:1057800090932901809328012FBF0895862F0E94AE
:10579000902B81E090E008951F920F920FB60F9228
:1057A00011240BB60F922F933F934F935F936F93F8
:1057B0007F938F939F93AF93BF93EF93FF938091CA
:1057C000290D6091280D20912801309129014091E7
:1057D000830D5091840D9091270D8A30F8F4240F99
:1057E000351F893019F0762F717001C071E0669510
:1057F0008F5F791791F390912001772311F0906CCE
:1058000002C09F7B906890932001309329012093E0
:1058100028017093270D6093280D50C09091260D9C
:10582000E091250D9E1320C08A3051F48BE08093C7
:10583000290D240F351F309329012093280140C0E2
:105840001092290D809120018F7380932001809107
:1058500073008D7F80937300E091A30CF091A40CF2
:10586000309771F119952CC0EF5FE7FDE0E0E09310
:10587000250DF0E0EB55F34F90819093280D109299
:10588000270D909120019F7B9068909320018A3092
:1058900059F48091830D9091840D280F391F309316
:1058A00029012093280109C08091240190912501AC
:1058B0004096909329018093280181E08093290DDF
:1058C000FF91EF91BF91AF919F918F917F916F91D8
:1058D0005F914F913F912F910F900BBE0F900FBE94
:1058E0000F901F9018958091290D8111FCCF08957C
:1058F0000C94732C1F920F920FB60F9211240BB6BB
:105900000F922F933F934F935F936F937F938F9358
:105910009F93AF93BF93EF93FF9380912601909154
:1059200027014091800D20912101442331F02F7BEC
:10593000209321011092800D06C020642093210144
:1059400020E82093800D3091820D311125C0411146
:105950005DC020917C0D30917D0D280F391F309353
:105960002B0120932A0124E02ABB2091730024609C
:10597000209373002091830D3091840D820F931F2B
:1059800036952795820F931F90937F0D80937E0D00
:1059900081E08093820D3AC040917E0D50917F0D41
:1059A0006091830D7091840DDB01A095B0952091DD
:1059B000810DE091800D841B950BA817B907F0F0BD
:1059C00026952E2B460F571F3F5F861B970B3930AE
:1059D000A0F32093810D809173008B7F80937300DF
:1059E0008091810D0E940D2B809121018F7B8093EE
:1059F00021011092800D1092820D08C02093810D1C
:105A000050937F0D40937E0D3093820DFF91EF9167
:105A1000BF91AF919F918F917F916F915F914F91C6
:105A20003F912F910F900BBE0F900FBE0F901F90C4
:105A300018951F920F920FB60F9211240BB60F926A
:105A40002F933F934F935F936F937F938F939F9386
:105A5000AF93BF93EF93FF93809173008B7F8093FD
:105A60007300809121018F7B809321019091820DA1
:105A70002091800D20588091810D993020F48695D9
:105A8000822B9F5FFACF8093810D0E940D2B109285
:105A9000820D809121018F7B809321011092800DD6
:105AA000FF91EF91BF91AF919F918F917F916F91F6
:105AB0005F914F913F912F910F900BBE0F900FBEB2
:105AC0000F901F90189580917A0D80937B0D08950B
:105AD000CF93DF93C3E7D0E088818B7F8883888171
