:100000000C9441040C948B800C94B6800C94E18089
:100010000C940C810C9437810C9462810C948D812A
:100020000C94B8810C9472040C9472040C947204B5
:100030000C9472040C9472040C9472040C94720468
:100040000C9472040C9472040C9472040C94720458
:100050000C9472040C9472040C9472040C94378205
:100060000C9472040C948A7D0C94C07D0C947204E0
:100070000C9472040C9472040C9472040C94720428
:100080000C9472040C9472040C9472040C94720418
:100090000C9474300C949E300C9472040C94720482
:1000A0000C9472040C9472040C9472040C947204F8
:1000B0000C9472040C9472040C947A2E0C94CC2D33
:1000C0000C94192F0C9472040C9472040C94E73065
:1000D0000C9411310C9472040C94217E0C94577E74
:1000E0000C9472049C6EBD6EDB6EF96E496F1E6FD0
:1000F000496F7F76B476BB76D576BB76D5769D761E
:10010000FC76E878FE7810791879267952792E797C
:100110003C794479527965802F80378043805080C4
:1001200071807E8083838683418345834B8389836B
:100130004F83538359835D83618367836B836F83AD
:100140008983758379837D832D86C4853186C785B0
:10015000CA85CD85D185D485D785DA85DD85E085CD
:10016000E385E685E985ED85F085F38535860386AB
:1001700006862B8609862B860D86108614862B868E
:100180002B8617861B861E86228625862B8628862A
:100190000C94946C0C9417860C9433350C94C67C98
:1001A0000C94D1850C9486830C94A46C0C946F777A
:1001B0000C9435860C94C62D0C94C8300C94FE2CEF
:1001C0000C9471800C947D830C9468330C9431866C
:1001D0000C94EA7D0C9486320C94E6850C94068689
:1001E0000C94840A0C94D4850C9449420C94323AB1
:1001F0000C9465800C9426710C9425860C947F7663
:100200000C94F3850C94CA850C943C790C947983F6
:100210000C942D860C940D7D0C942A320C949770BE
:100220000C94C4850C942D350C9416800C9450803D
:100230000C942F800C946F830C94E9850C94838329
:100240000C9444790C94676E0C94C7710C941486CA
:100250000C940D860C94B7720C94ED850C94FC767E
:100260000C9483190C9422860C94817E0C945983EF
:100270000C94DB6E0C9441830C9452790C941F8285
:100280000C9422320C94FE780C9418790C94E3852B
:100290000C94457C0C9437800C94EB2C0C941B86AE
:1002A0000C94A26C0C944F830C9445830C94B476FC
:1002B0000C946B830C9467830C94DD850C943B3118
:1002C0000C941E860C9475830C9426790C945C75A2
:1002D0000C94687C0C944B830C94496F0C949F3560
:1002E0000C94F7730C94BB760C9410790C94DA850B
:1002F0000C94F0850C942E790C94CD850C945D8330
:100300000C94F47D0C949C6E0C94D52C0C948B7EE8
:100310000C9403860C949D760C9453830C94618307
:100320000C94597C0C945D1B0C9409860C94782ECB
:100330000C9410860C9467730C9428860C942B866E
:100340000C94DC700C942B7C0C94E8780C948983CE
:100350000C947E800C94F96E0C94D7850C94B87E26
:100360000C94D5760C941E6F0C94731A0C94E08543
:100370000C94377C0C94C7850C9434700C94438097
:100380000C94BD6E4042474250552C436F757273BA
:10039000652C004042474250552C547261636B2CCF
:1003A00046616C7365004042474250552C5472615F
:1003B000636B2C54727565004042474250552C5671
:1003C000616E652C46616C73650040424742505532
:1003D0002C56616E652C5472756500404247425040
:1003E000552C547261636B2C46616C7365004042FE
:1003F000474250552C547261636B2C5472756500E2
:100400004042474250552C56616E652C46616C73D4
:1004100065004042474250552C56616E652C54721F
:10042000756500244E474250552A3445004E4D45CF
:10043000415F5041525345525F4E4F54434F4D50D0
:100440004C4554452C206E6F7420636F6D706C6545
:100450007465207E7E00244E474250552A34450064
:100460004E4D45415F5041525345525F43484543CD
:100470004B53554D4552522C204552524F5220213C
:1004800021000900095472616E736C6174655365D3
:100490006174616C6B417570696C6F74436F6D6DE5
:1004A000616E64546F4E454D413230303028293AE8
:1004B000200020556E6B6E6F776E0020506F776551
:1004C000724F6E002045787465726E616C00204238
:1004D000726F776E6F757400205761746368646F14
:1004E00067004661696C004F70656E00404247428C
:1004F00050552C43414E2C004042474250552C420F
:100500004F4F5420566572002066696E652E002C90
:100510002048656C6C6F2C204920616D20004042A2
:10052000474250552C566572004042474250552C68
:1005300053746565722C004042474250552C436FFE
:10054000757273652C004042474250552C417574BA
:100550006F2C46616C7365004042474250552C41F8
:1005600075746F2C53746565720040424742505554
:100570002C4175746F2C54727565009000A4900026
:10058000A30020446174613A00204C656E3A00205B
:10059000446573743A0020536F757263653A0020A6
:1005A00050474E3A005072693A00203A2000002C21
:1005B00000537461727420616464726573732063A4
:1005C0006C61696D20666F72206465766963652071
:1005D000002073656E64206661696C6564002F009D
:1005E0002C206672616D653A0050474E20002073E2
:1005F000656E64206661696C65640050474E20003A
:1006000043414E20646576696365206661696C6567
:100610006420746F206F70656E0043414E206465E6
:10062000766963652072656164790000004E4D450E
:100630004132303030206C6962726172792C2068EE
:10064000747470733A2F2F6769746875622E636FC4
:100650006D2F74746C617070616C61696E656E2F62
:100660004E4D4541323030300035089A02417264B7
:1006700075696E6F204E326B2D3E504300000000B6
:100680000000000000000000000000000000312E0B
:10069000302E302E3000000000000000000000006E
:1006A0000000000000000000000000000000003119
:1006B0002E302E300000000000000000000000007E
:1006C000000000000000000000000000000000002A
:1006D0003030303030303031000000000000000099
:1006E000000000000000000000000000000000000A
:1006F00000000100E8000000EA000000EB0000003C
:10070000EC000000EE0000D8FE000000ED0100004B
:1007100000000000E8000000EA000000EB0000001C
:10072000EC000000EE000000ED010000EE01001101
:10073000F0010014F0010016F001000000000000BC
:10074000000B0C030A0D0E0F09080405020000003F
:100750000000000000000000000000000000000099
:100760000000000000000000000000131211000053
:100770000000000000000000000000000000000079
:100780000000000000000000000000000000000069
:100790000000000000010210202008081020401076
:1007A0002040800201020108040201010204081035
:1007B0002040808040201008040201800402018053
:1007C000402010080402010804020101020408107C
:1007D00020408001020408102040800440800480F2
:1007E000081010204004081020408005050505076A
:1007F0000508080808020202020A0A08080404049C
:1008000004010101010101010103030303030303C7
:1008100003040707070C0C0C0C0C0C0C0C02020256
:100820000206060606060606060B0B0B0B0B0B0B49
:100830000B050505080807070404040A0A0A0A0A42
:100840000A00002200250028002B002E0031003471
:100850000002010000050108010B01000021002435
:100860000027002A002D00300033000101000004A1
:100870000107010A01008319C8303B31F47D8B7EEA
:10088000731A11241FBECFEFD1E2DEBFCDBF00E04F
:100890000CBF1AE0A0E0B2E0E6ECF5E201E00BBF2D
:1008A00002C007900D92A035B107D9F721E1A0E56C
:1008B000BAE001C01D92AC30B207E1F714E0C0E429
:1008C000D4E000E006C021970109802FFE010E94BC
:1008D000D18ACB33D10780E00807A9F70E94228292
:1008E0000C94D1920C940000CF92DF92EF92FF9281
:1008F000CF93DF93EC016A017B012FE632E143E8FD
:100900005AEBC701B6010E941C8D1816ECF420E0CA
:1009100030E84BE355E4C701B6010E94698B87FFBD
:1009200013C0C882D982EA82FB82FE01E85BFF4FD6
:100930008081918106968730910514F086E090E0E1
:100940009183808381E001C080E0DF91CF91FF90AF
:10095000EF90DF90CF9008950F931F93CF93DF9385
:10096000CDB7DEB7DA950FB6F894DEBF0FBECDBFB8
:100970008C01CE0101960E94E523085B1F4FF80110
:100980008081918118161906F4F44091720A5091F1
:10099000730A6091740A7091750ACE0101960E94E3
:1009A0003A28CE0101960E94EE230E94850DF8019F
:1009B00080819181019797FD03C09183808303C05B
:1009C000F80111821082D3950FB6F894DEBF0FBEE6
:1009D000CDBFDF91CF911F910F910895CF92DF92FC
:1009E000EF92FF92CF93DF93EC016A017B0120E04D
:1009F00030E0A901C701B6010E941C8D87FD1DC012
:100A00002DEC3CE044EB53E4C701B6010E94698B36
:100A100087FF13C0C88AD98AEA8AFB8AFE01E25B93
:100A2000FF4F8081918104968530910514F084E018
:100A300090E09183808381E001C080E0DF91CF91DD
:100A4000FF90EF90DF90CF900895AF92BF92CF923A
:100A5000DF92EF92FF920F931F93CF93DF93CDB767
:100A6000DEB7DA950FB6F894DEBF0FBECDBF5C01DE
:100A7000CE0101960E94E52365018EE4C80ED11CCB
:100A8000F6018081918118161906ACF57501FCE418
:100A9000EF0EF11CF70180819181181619065CF5A3
:100AA000F501048515852685378540895189628938
:100AB0007389CE0101960E940A25CE0101960E94FB
:100AC000EE230E94850DF60180819181019797FDAB
:100AD00003C09183808303C0F60111821082F70165
:100AE00080819181019797FD03C09183808303C02A
:100AF000F70111821082D3950FB6F894DEBF0FBEB6
:100B0000CDBFDF91CF911F910F91FF90EF90DF90BC
:100B1000CF90BF90AF900895AF92BF92CF92DF92E7
:100B2000EF92FF920F931F93CF93DF93CDB7DEB772
:100B3000DA950FB6F894DEBF0FBECDBF5C01CE01D3
:100B400001960E94E52365018EE4C80ED11CF601D2
:100B50008081918118161906ACF57501FCE4EF0E41
:100B6000F11CF70180819181181619065CF5F501D9
:100B70000485158526853785408951896289738961
:100B8000CE0101960E94EF23CE0101960E94EE2332
:100B90000E94850DF60180819181019797FD03C028
:100BA0009183808303C0F60111821082F701808156
:100BB0009181019797FD03C09183808303C0F70162
:100BC00011821082D3950FB6F894DEBF0FBECDBF51
:100BD000DF91CF911F910F91FF90EF90DF90CF9019
:100BE000BF90AF900895CF92DF92EF92FF92CF9394
:100BF000DF93EC016A017B0120E030E0A901C7012D
:100C0000B6010E941C8D87FD1DC020E030E040EA47
:100C100052E4C701B6010E94698B87FF13C0CC86DE
:100C2000DD86EE86FF86FE01E45BFF4F80819181C9
:100C300004968530910514F084E090E091838083E0
:100C400081E001C080E0DF91CF91FF90EF90DF90D5
:100C5000CF9008954F925F926F927F928F929F9262
:100C6000AF92BF92CF92DF92EF92FF920F931F93BA
:100C7000CF93DF93CDB7DEB728970FB6F894DEBFDA
:100C80000FBECDBF4A015B01680179012A013B011A
:100C9000E89477F8C301B2010E94E08B69837A83FC
:100CA0008B839C8329813A81B901330F880B990B7F
:100CB0000E941E8C9B01AC01C301B2010E94FC8A00
:100CC00020E030E040E752E40E94218D2B013C01FE
:100CD0000E94E08B6D837E838F8398872D813E8178
:100CE000B901330F880B990B0E941E8C9B01AC013C
:100CF000C301B2010E94FC8A20E030E040E752E4E8
:100D00000E94218D0E94E08B2B013C0120E030E00D
:100D1000A901C501B4010E94698B87FD02C08EE460
:100D200001C083E529813A813093870A2093860A9E
:100D30002D813E813093890A2093880A50928B0A34
:100D400040928A0A80938C0A26013701E89477F84A
:100D5000C301B2010E94E08B4B015C01072E000C25
:100D6000880B990B0E941E8C9B01AC01C301B20140
:100D70000E94FC8A20E030E040E752E40E94218D8E
:100D80002B013C010E94E08B69837A838B839C83D7
:100D900029813A81B901330F880B990B0E941E8C6F
:100DA0009B01AC01C301B2010E94FC8A20E030E04B
:100DB00040E752E40E94218D0E94E08B2B013C0110
:100DC00020E030E0A901C701B6010E94698B87FDD0
:100DD00002C085E401C087E590928E0A80928D0A58
:100DE00029813A813093900A20938F0A5092920A77
:100DF0004092910A8093930A86E090E09093C30A10
:100E00008093C20A81E028960FB6F894DEBF0FBE29
:100E1000CDBFDF91CF911F910F91FF90EF90DF90A9
:100E2000CF90BF90AF909F908F907F906F905F908A
:100E30004F9008950F931F93CF93DF93CDB7DEB7F5
:100E4000DA950FB6F894DEBF0FBECDBF8C01005B04
:100E50001F4FF8018081918118161906B4F4CE0154
:100E600001960E94E425CE0101960E94EE230E9485
:100E7000850DF80180819181019797FD03C09183D1
:100E8000808303C0F80111821082D3950FB6F894C5
:100E9000DEBF0FBECDBFDF91CF911F910F9108959F
:100EA000CF92DF92EF92FF92CF93DF93EC016A0132
:100EB0007B0120E030E0A901C701B6010E941C8D32
:100EC00087FD1DC02DEC3CE044EB53E4C701B601A7
:100ED0000E94698B87FF13C0CAA2DBA2ECA2FDA20D
:100EE000FE01EE5AFF4F8081918102968330910579
:100EF00014F082E090E09183808381E001C080E083
:100F0000DF91CF91FF90EF90DF90CF900895CF9237
:100F1000DF92EF92FF920F931F93CF93DF93CDB7A2
:100F2000DEB7DA950FB6F894DEBF0FBECDBF6C0109
:100F3000CE0101960E94E523760182E5E80EF11CC0
:100F4000F7018081918118161906FCF4F6010085DD
:100F500011852285338542A153A164A175A1CE01DB
:100F600001960E94C828CE0101960E94EE230E949D
:100F7000850DF70180819181019797FD03C09183D1
:100F8000808303C0F70111821082D3950FB6F894C5
:100F9000DEBF0FBECDBFDF91CF911F910F91FF90AC
:100FA000EF90DF90CF900895EF92FF920F931F93F1
:100FB000CF93DF93CDB7DEB7DA950FB6F894DEBFE7
:100FC0000FBECDBF7C01CE0101960E94E5238701B3
:100FD0000E5A1F4FF8018081918118161906DCF412
:100FE000F70142A153A164A175A1CE0101960E940F
:100FF0003029CE0101960E94EE230E94850DF80152
:1010000080819181019797FD03C09183808303C004
:10101000F80111821082D3950FB6F894DEBF0FBE8F
:10102000CDBFDF91CF911F910F91FF90EF90089569
:10103000EF92FF920F931F93CF93DF93CDB7DEB75D
:10104000DA950FB6F894DEBF0FBECDBF7C01CE019E
:1010500001960E94E52387010E5A1F4FF8018081F7
:101060009181181619062CF5F70160857185828526
:1010700093850E94E08BDC01CB01F70142A153A1D3
:1010800064A175A19C01CE0101960E946F29CE0139
:1010900001960E94EE230E94850DF80180819181C6
:1010A000019797FD03C09183808303C0F8011182EB
:1010B0001082D3950FB6F894DEBF0FBECDBFDF917F
:1010C000CF911F910F91FF90EF900895CF92DF92F3
:1010D000EF92FF92CF93DF93EC016A017B01CB018A
:1010E000BA019F772DEC3CE044EB53E40E94698BFE
:1010F00087FF13C0CEA2DFA2E8A6F9A6FE01EA5A36
:10110000FF4F8081918106968730910514F086E02B
:1011100090E09183808381E001C080E0DF91CF91F6
:10112000FF90EF90DF90CF900895CF92DF92EF92F3
:10113000FF92CF93DF93EC016A017B012CEA35EC3F
:1011400047E257EBC701B6010E941C8D1816ECF45C
:1011500020E030E048EC52E4C701B6010E94698B00
:1011600087FF13C0CAA6DBA6ECA6FDA6FE01EC5ABB
:10117000FF4F8081918106968730910514F086E0BB
:1011800090E09183808381E001C080E0DF91CF9186
:10119000FF90EF90DF90CF9008956F927F928F92A3
:1011A0009F92AF92BF92CF92DF92EF92FF920F93F6
:1011B0001F93CF93DF93CDB7DEB7DA950FB6F894D0
:1011C000DEBF0FBECDBF3C01CE0101960E94E523DC
:1011D000430186E5880E911CF401808191811816E7
:1011E0001906CCF55301F4E5AF0EB11CF501808171
:1011F0009181181619067CF5F301C2A4D3A4E4A4C6
:10120000F5A4008511852285338546A157A160A5E7
:1012100071A5CE0101960E945324CE0101960E9431
:10122000EE230E94850DF40180819181019797FD45
:1012300003C09183808303C0F40111821082F50101
:1012400080819181019797FD03C09183808303C0C2
:10125000F50111821082D3950FB6F894DEBF0FBE50
:10126000CDBFDF91CF911F910F91FF90EF90DF9055
:10127000CF90BF90AF909F908F907F906F90089588
:101280008F929F92AF92BF92CF92DF92EF92FF9296
:101290000F931F93CF93DF93CDB7DEB7DA950FB6D9
:1012A000F894DEBF0FBECDBF4C012AE5820E911C23
:1012B000F401208131818C010C5A1F4F1216130644
:1012C0000CF047C05C01FCE5AF0EB11CF5012081BC
:1012D000318112161306ECF5F801208131811216C6
:1012E0001306BCF56C01F6E5CF0ED11CF60120818A
:1012F0003181121613066CF57C01F0E5EF0EF11C3E
:10130000F70120813181121613061CF5CE010196DA
:101310000E947627CE0101960E94EE230E94850D41
:10132000F40180819181019797FD03C091838083AF
:1013300003C0F40111821082F5018081918101972F
:1013400097FD03C09183808329C0F501118210822B
:1013500025C0F80120813181121613060CF042C01D
:101360006C01F6E5CF0ED11CF601208131811216F9
:101370001306C4F57C01F0E5EF0EF11CF701808146
:1013800091811816190674F5CE0101960E94DB268C
:10139000CE0101960E94EE230E94850DF801808106
:1013A0009181019797FD03C09183808303C0F80169
:1013B00011821082F60180819181019797FD03C00F
:1013C0009183808303C0F60111821082F70180812E
:1013D0009181019797FD03C09183808303C0F7013A
:1013E00011821082D3950FB6F894DEBF0FBECDBF29
:1013F000DF91CF911F910F91FF90EF90DF90CF90F1
:10140000BF90AF909F908F9008959B01275A3F4FB8
:10141000233B310588F4FC0177A766A7E85AFF4F04
:101420008081918106968730910514F086E090E0E6
:101430009183808381E0089580E00895EF92FF9288
:101440000F931F93CF93DF93CDB7DEB7DA950FB627
:10145000F894DEBF0FBECDBF7C01CE0101960E9485
:10146000E5238701085A1F4FF801808191811816E2
:101470001906CCF4F70166A577A5CE0101960E9466
:10148000BA29CE0101960E94EE230E94850DF80133
:1014900080819181019797FD03C09183808303C070
:1014A000F80111821082D3950FB6F894DEBF0FBEFB
:1014B000CDBFDF91CF911F910F91FF90EF900895D5
:1014C0000C941E0ACF93DF93EC010E94AC04CE0172
:1014D0000E948C05CE010E941A07CE010E94870748
:1014E000CE010E94D407CE010E941808CE010E94AE
:1014F0004009CE010E941E0ACE010E94CD08CE01F5
:10150000DF91CF910C94250580E090E008952F9213
:101510003F924F925F926F927F928F929F92AF9283
:10152000BF92CF92DF92EF92FF920F931F93CF93D0
:10153000DF93CDB7DEB72C970FB6F894DEBF0FBEA2
:10154000CDBF98878F83FC018481282F30E03C83B6
:101550002B83A580B12CBA2CAA248681A82AB50198
:1015600080E090E00E941C8C20E030E04AE754E4E8
:101570000E946E8B0E94E08B6B017C01C50168EEBE
:1015800073E00E94688A1C01EF81F885F381F9837A
:10159000F4FD03C02EE42A8302C033E53A83B1018F
:1015A000032C000C880B990B0E941E8C20E030E06D
:1015B0004AE754E40E946E8B2B013C01B6010D2CCE
:1015C000000C880B990B0E941E8C9B01AC01C3017F
:1015D000B2010E94FD8A20E030E040E752E40E9420
:1015E0006E8B2B013C01EB81FC81BF01FF0F880B4F
:1015F000990B0E941E8C9B01AC01C301B2010E9499
:10160000FD8A2B013C019F772FE632E143E85AE344
:101610000E94698B87FD34C12091C20A3091C30AB0
:101620003E832D83232B09F44AC060918A0A70916E
:101630008B0A072E000C880B990B0E941E8C20E051
:1016400030E04AE754E40E946E8B4B015C016091EC
:10165000880A7091890A072E000C880B990B0E944A
:101660001E8C9B01AC01C501B4010E94FD8A20E0E3
:1016700030E040E752E40E946E8B4B015C016091C8
:10168000860A7091870A072E000C880B990B0E941E
:101690001E8C9B01AC01C501B4010E94FD8A9B0117
:1016A000AC01C301B2010E94FC8A9F7720E030E0C8
:1016B00040E05FE30E941C8D18160CF4E1C0EF813E
:1016C000F8858781082F10E0A084B12CBA2CAA24B9
:1016D0008185A82AB50180E090E00E941C8C20E062
:1016E00030E04AE754E40E946E8B0E94E08B6F83E7
:1016F000788789879A87C50168EE73E00E94688AB7
:101700009C878B87F981F5FD03C027E5298302C0FB
:1017100035E43983EB85FC85BF01FF0F880B990BFE
:101720000E941E8C20E030E04AE754E40E946E8B59
:101730004B015C012F813885B901330F880B990B60
:101740000E941E8C9B01AC01C501B4010E94FD8A60
:1017500020E030E040E752E40E946E8B4B015C01D8
:10176000B801012E000C880B990B0E941E8C9B0166
:10177000AC01C501B4010E94FD8A4B015C019F7759
:101780002FE632E143E85AE30E94698B87FD78C077
:101790008D819E81892B09F449C06091910A7091D5
:1017A000920A072E000C880B990B0E941E8C20E0D9
:1017B00030E04AE754E40E946E8B2B013C016091BB
:1017C0008F0A7091900A072E000C880B990B0E94CB
:1017D0001E8C9B01AC01C301B2010E94FD8A20E076
:1017E00030E040E752E40E946E8B2B013C01609197
:1017F0008D0A70918E0A072E000C880B990B0E949F
:101800001E8C9B01AC01C301B2010E94FD8A9B01A9
:10181000AC01C501B4010E94FC8A9F7720E030E052
:1018200040E05FE30E941C8D181654F1EB81FC81AF
:10183000F093870AE093860AD092890AC092880AB8
:1018400030928B0A20928A0AFA81F0938C0A1093C4
:101850008E0A00938D0A2F8138853093900A209349
:101860008F0A8B859C859093920A8093910A998127
:101870009093930A86E090E09093C30A8093C20A03
:101880002C960FB6F894DEBF0FBECDBFDF91CF917F
:101890001F910F91FF90EF90DF90CF90BF90AF908E
:1018A0009F908F907F906F905F904F903F902F9080
:1018B0000895CF93DF93EC0161E088810E948A83D1
:1018C0001B861A861C861D861E861F8660E0888100
:1018D000DF91CF910C94C683CF92DF92EF92FF926B
:1018E0000F931F93CF93DF93EC010E9481822A858F
:1018F0003B8521303105D9F40C851D852E853F852A
:101900006B017C01C01AD10AE20AF30A0A811B8129
:101910002C813D81C016D106E206F30688F11B86B4
:101920001A866C877D878E879F8760E01EC0232B79
:1019300039F50C851D852E853F856B017C01C01A0C
:10194000D10AE20AF30A0E811F8128853985C01663
:10195000D106E206F306A0F021E030E03B872A87BB
:101960006C877D878E879F8761E08881DF91CF912B
:101970001F910F91FF90EF90DF90CF900C94C68352
:10198000DF91CF911F910F91FF90EF90DF90CF905B
:1019900008950F931F93CF93DF93CDB7DEB7C35155
:1019A000D1400FB6F894DEBF0FBECDBF81E59CE0FD
:1019B0000E946C0C80915E0A90915F0A8A309105BA
:1019C00028F4019690935F0A80935E0A83EF9BE070
:1019D0000E9468308C0183EF9BE00E945E30B8016A
:1019E0000E94882FFC0110810E94822F412FBC0190
:1019F000CE0101960E948F2A60E472E080EC9FE0A5
:101A00000E941B7FCE0101960E94EE23BC0180EC58
:101A10009FE00E943A7FCD5EDE4F0FB6F894DEBFA6
:101A20000FBECDBFDF91CF911F910F910895FC01A3
:101A3000DB018081843211F0813279F493818C91C1
:101A400098130BC0948111968C911197981305C02F
:101A500081E0258112969C91291380E00895FC0174
:101A6000DB018081843211F08132D9F491818C9133
:101A7000981317C0928111968C911197981311C0E9
:101A8000938112968C91129798130BC094811396A0
:101A90008C911397981305C081E0258114969C9131
:101AA000291380E00895CF93DF932091810C2111B9
:101AB00010C0EC0167E375E080EC9FE00E94F77EC8
:101AC0004AE050E0BE0180EC9FE0DF91CF910C94A2
:101AD000FE7FDF91CF910895CF93DF932091810C0A
:101AE000211110C0EC0169E275E080EC9FE00E94DA
:101AF000F77E4AE050E0BE0180EC9FE0DF91CF919D
:101B00000C94FE7FDF91CF910895CF93DF93BC01BA
:101B1000FC0101900020E9F73197E81BF90BDC018B
:101B20008C91843221F0813211F08034D1F43797D6
:101B3000C4F09091810C911114C0803431F48DE582
:101B400090E1DF91CF910C943A7FEB018DE590E12C
:101B50000E941B7FBE0180EC9FE0DF91CF910C942F
:101B60001B7FDF91CF910895CF93DF932091810C5C
:101B7000211122C0EC016EE175E080EC9FE00E9433
:101B8000F77E63E87CE080EC9FE00E941B7F6FE0C3
:101B900075E080EC9FE00E94F77E4AE050E0BE01D5
:101BA00080EC9FE00E94A97F68E075E080EC9FE0F8
:101BB000DF91CF910C94287FDF91CF910895809190
:101BC000810C81110CC068EF74E080EC9FE00E94F2
:101BD000F77E63E87CE080EC9FE00C943A7F089508
:101BE0008F92AF92BF92CF92EF92FF920F931F937B
:101BF000CF931F921F9288248A94AA24AA94BA2C65
:101C0000CC24CA949AE5E92E92E0F92E00E612E07F
:101C100022E732E044E650E063E872E080912E0C67
:101C200090912F0C0E94E749A12CB12C24E0C22EE8
:101C300038EFE32E37E0F32E0BE422E849E656EBCB
:101C400061E070E080912E0C90912F0C0E943F4833
:101C500046E161E070E080912E0C90912F0C0E9483
:101C60009C4A6CE872E080EC9FE00E943A7F6DE550
:101C70007BE180912E0C90912F0C0E94A5528091B7
:101C80002E0C90912F0C0E942961C82F6CEE74E0ED
:101C900080EC9FE00E94F77E0F900F90CC2381F0A4
:101CA00067EE74E080EC9FE00E94287F6EE772E0B0
:101CB00083E89CE00E946E8F81E08093820C08C0D4
:101CC00062EE74E080EC9FE00E94287F1092820C0C
:101CD0008C2FCF911F910F91FF90EF90CF90BF90DD
:101CE000AF908F900895CF93C62FBC0180EC9FE0FA
:101CF0000E941B7F4AE050E06C2F80EC9FE00E9426
:101D0000A27FC3FF07C068ED74E080EC9FE00E94F3
:101D1000F77EC77FC2FF07C06EEC74E080EC9FE0E7
:101D20000E94F77ECB7FC1FF07C064EC74E080ECBB
:101D30009FE00E94F77ECD7FC0FF07C06BEB74E091
:101D400080EC9FE00E94F77ECE7FCC2331F062EBE7
:101D500074E080EC9FE00E94F77E67E277E080EC21
:101D60009FE0CF910C943A7FCF93DF930FB6F89416
:101D7000A895809160008861809360001092600057
:101D80000FBE87EF84BF9EE088E10FB6F894A89558
:101D9000809360000FBE909360006AE872E083E871
:101DA0009CE00E94828F60EB72E083E89CE00E94DE
:101DB0006E8F6DE572E083E89CE00E946E8F61E0BB
:101DC0008DE00E948A8361E087E00E948A8361E05F
:101DD0008DE00E94C68381E69CE00E94590C81E55B
:101DE0009CE00E94590C81E49CE00E94590C81E324
:101DF0009CE00E94590C26E040E052EC61E070E06B
:101E000080EC9FE00E942F7D40EC52E160E070E0AA
:101E100083E89DE00E94863145E050E060E070E09C
:101E200083E89DE00E94108040EC52E160E070E0A9
:101E300080EA9EE00E94863145E050E060E070E07C
:101E400080EA9EE00E94108026E040EC52E160E0D3
:101E500070E08DE590E10E942F7D61EA71E080E005
:101E600090E00E94262D64B782EB92E00E94730EF0
:101E7000A89580E39CE00E94847B0E94F00D8093F3
:101E80002D0CA895C6E0D0E00E94DF0D64E670E05E
:101E900080E090E00E94B2822197B1F7A895A895C2
:101EA00081E090E090936C0C80936B0C61E08091EA
:101EB000610CDF91CF910C94C683CF93DF93EC013B
:101EC0006AEB72E00E94170D882339F08AEF9FEFCA
:101ED0009093BB0A8093BA0A2DC06EEB72E0CE01DC
:101EE0000E94170D882339F08EEF9FEF9093C50A5B
:101EF0008093C40A1FC062EC72E0CE010E94170DED
:101F00008111F2CF66EC72E0CE010E94170D8111B3
:101F1000EBCF6AEC72E0CE010E94170D882351F0DE
:101F20008AEF9FEF9093C90A8093C80A9093C70ADB
:101F30008093C60A6EEC72E0CE010E94170D8823D2
:101F400051F08CEF9FEF9093C10A8093C00A909359
:101F5000BF0A8093BE0ADF91CF9108958F929F921E
:101F6000AF92BF92CF92DF92EF92FF920F931F93A7
:101F7000CF93DF93EC014A015B016901E881F981AC
:101F80000190F081E02D19958B829C82AD82BE82FA
:101F9000DA86C986DE011B96F801CF01801B910B02
:101FA0008E159F051CF481918D93F7CFFE01EE0DE8
:101FB000FF1DCF018C1B9D0B8C159D051CF41386FA
:101FC0003196F7CFDF91CF911F910F91FF90EF9056
:101FD000DF90CF90BF90AF909F908F900895CF9259
:101FE000DF92EF92FF920F931F93CF93DF93CDB7C2
:101FF000DEB7C95FD1090FB6F894DEBF0FBECDBF03
:102000006C01E12CF12C00E010E0980146E06FE05B
:10201000CE0101960E948D3A8AE0ECE1F2E0DE0109
:10202000A051BF4F01900D928A95E1F7B601DD0CEA
:10203000880B990B0E941E8C2BED3FE049E450E485
:102040000E94218D0E94E08BAB01161617061CF42E
:102050004F5F5F4F06C06115710519F0AB0141502C
:102060005109942F342F32953F702FE0231B842F7A
:102070008F70843010F4845F09C0883010F48C5F56
:1020800005C08C3010F4845001C08C50CA50DF4F12
:102090009883C65FD04090E030E1239F800D911D72
:1020A0001124C750DF4F8883C95FD0408AE0E82EF3
:1020B000F12C8E0100511F4F2AE030E040E05FEE2E
:1020C00061E070E0CE0101960E94AE0F40E050E06A
:1020D000BE016F5F7F4F80912E0C90912F0C0E945C
:1020E0007956C750DF4F0FB6F894DEBF0FBECDBF95
:1020F000DF91CF911F910F91FF90EF90DF90CF90E4
:102100000895BF92CF92DF92EF92FF920F931F93A9
:10211000CF93DF93CDB7DEB7C75FD1090FB6F89481
:10212000DEBF0FBECDBFB82EC62ED42EE12CF12CB3
:1021300000E010E0980146E06FE0CE0101960E94B9
:102140008D3A88E0E6E2F2E0DE01A051BF4F019057
:102150000D928A95E1F7CB50DF4FB882C55FD04032
:10216000CA50DF4FC882C65FD040C950DF4FD88207
:10217000C75FD04088E0E82EF12C8E0100511F4F40
:1021800026E130E040E05FEE61E070E0CE010196D4
:102190000E94AE0F40E050E0BE016F5F7F4F809124
:1021A0002E0C90912F0C0E947956C950DF4F0FB61C
:1021B000F894DEBF0FBECDBFDF91CF911F910F917D
:1021C000FF90EF90DF90CF90BF90089581E090E076
:1021D0009093800C80937F0C4DEF62E081E40C942F
:1021E000811082E090E09093800C80937F0C4EEF02
:1021F00061E081E40C94811082E090E09093800C87
:1022000080937F0C4CED63E281E40C94811082E0BA
:1022100090E09093800C80937F0C4CEF63E081E41E
:102220000C94811047EF68E081E40C94811049EF31
:1022300066E081E40C94811048EF67E081E40C943F
:1022400081104AEF65E081E40C9481104DED62E26B
:1022500081E40C9481104EED61E281E40C948110D4
:1022600083E090E09093800C80937F0C4EEE61E1D0
:1022700081EB0C948110CF939093690A8093680A44
:10228000BC01990F880B990B0E941E8CC1E0209114
:10229000640A3091650A4091660A5091670A0E946B
:1022A0001C8D18160CF0C0E0C0930A0280E0CF919C
:1022B000089580E090E00C943B118DED9FEF0C941D
:1022C0003B1183E290E00C943B11FC01DC010D908A
:1022D0000020E9F71197A81BB90B1A9710F1868116
:1022E0008C32F9F481858A32E1F48781082E000C62
:1022F000990BC0972AE0289FA001299F500D112417
:102300002085022E000C330B20533109240F351F7A
:10231000C9018897255031092734310510F40C94F0
:102320003B1180E008950F931F93CF93DF93EC014F
:102330008B0162ED72E00E94898F892B31F0DF9171
:10234000CF911F910F910C94F11068EE72E0CE01C5
:102350000E94898F892B31F0DF91CF911F910F91CE
:102360000C94FC106EEF72E0CE010E94898F892BD5
:1023700031F0DF91CF911F910F910C94071164E11F
:1023800073E0CE010E94898F892B31F0DF91CF91CC
:102390001F910F910C94E6106AE273E0CE010E9447
:1023A000898F892B31F0DF91CF911F910F910C9480
:1023B000121160E473E0CE010E94898F892B31F005
:1023C000DF91CF911F910F910C94171166E573E087
:1023D000CE010E94898F892B31F0DF91CF911F911F
:1023E0000F910C941C116CE673E0CE010E94898F52
:1023F000892B31F0DF91CF911F910F910C94211116
:1024000062E873E0CE010E94898F892B31F0DF9161
:10241000CF911F910F910C94261168E973E0CE01C2
:102420000E94898F892B31F0DF91CF911F910F91FD
:102430000C942B116EEA73E0CE010E94898F892BD8
:1024400031F0DF91CF911F910F910C94301164EC1A
:1024500073E0CE010E94898F892B31F0DF91CF91FB
:102460001F910F910C9459116AED73E0CE010E94F7
:10247000898F892B31F0DF91CF911F910F910C94AF
:102480005D1160EF73E0CE010E94898F892B31F0DE
:10249000DF91CF911F910F910C94611166E074E070
:1024A000CE010E94898F892B39F0CE01DF91CF9127
:1024B0001F910F910C94651164E874E080EC9FE02B
:1024C0000E94F77E4AE050E0B80180EC9FE00E9455
:1024D000F77F62E874E080EC9FE00E94F77EBE0127
:1024E00080EC9FE00E943A7F80E0DF91CF911F91C6
:1024F0000F910895CF93DF93FC0101900020E9F73D
:102500003197E81BF90B369790F0FC0120812432BB
:1025100071F4EC016FEF76E00E942F0D811108C07D
:102520006EE074E0CE01DF91CF910C942F0D80E02E
:10253000DF91CF910895AB01BC01DB01CA019D7F02
:102540008115984EA105B10509F49EC041158EEE86
:1025500058076105710509F497C0463B9EEF59077E
:102560006105710509F490C048302FEF52076105ED
:10257000710509F489C0DB01CA01AE7F8A319F4F22
:10258000A105B10509F480C04F318FEF58076105EF
:10259000710509F479C043369FEF5907610571054C
:1025A00009F472C045362FEF52076105710509F431
:1025B0006BC04F3F8FEF58076105710509F464C088
:1025C00044379FEF59076105710509F45DC0DB01D0
:1025D000CA01977F8131904FA140B10509F454C0E1
:1025E000DB01CA018D7F8431904FA140B10509F410
:1025F0004BC0433185EF580781E06807710509F446
:1026000043C0443198EF590791E069077105E1F142
:102610004B3029EF520721E062077105A9F14330E1
:102620008AEF580781E06807710571F146309AEF2B
:10263000590791E06907710539F1DB01CA0186503C
:102640009D4FA140B1090397A105B105E8F04436BB
:102650002FEF520721E062077105B1F047368FEF87
:10266000580781E06807710579F081E046379FEFF0
:10267000590791E06907710549F047375F4F61409D
:10268000710521F080E0089581E0089508956F3488
:102690002FEF72078105910509F457C068363FEFA7
:1026A00073078105910509F450C061152DEE72077D
:1026B00021E08207910509F448C0603130EF7307CB
:1026C00031E08307910509F440C0653021EF7207BE
:1026D00021E082079105C9F1633131EF730731E0E1
:1026E0008307910591F1693121EF720721E082079B
:1026F000910559F1633035EF730731E08307910598
:1027000021F1693028EF720721E082079105E9F095
:10271000633039EF730731E083079105B1F0613021
:102720002BEF720721E08207910579F021E06436F2
:102730003FEF730731E08307910541F061317E4F30
:102740008140910519F020E001C021E0822F089519
:10275000EF92FF920F931F93CF93DF93CDB7DEB726
:10276000DA950FB6F894DEBF0FBECDBF2091810C75
:10277000211119C07C010E948182AB01BC0100E0E3
:1027800011E09E012F5F3F4FC7010E94EA6B8C0151
:10279000089738F0BE016F5F7F4F80EC9FE00E948A
:1027A0003A7FC80102C080E090E0D3950FB6F8945C
:1027B000DEBF0FBECDBFDF91CF911F910F91FF9074
:1027C000EF9008954F925F926F927F928F929F92B7
:1027D000AF92BF92CF92DF92EF92FF92CF93DF93AF
:1027E000CDB7DEB728970FB6F894DEBF0FBECDBFCA
:1027F0002A013B01BC01990F880B990B0E941E8C8A
:1028000069837A838B839C83A30192010E94FC8A53
:102810006B017C0120E030E0A9010E941C8D460183
:102820005701181624F0B7FAB094B7F8B09420E026
:1028300030E048E151E4C701B6010E94218D6B01EF
:102840007C0120E030E04CE052E40E941C8D181620
:102850008CF020E030E04CE052ECC701B6010E9461
:10286000698B87FF0DC0C12CD12C7CE0E72E72EC68
:10287000F72E06C0C12CD12C6CE0E62E62E4F62EB9
:1028800080916A0A90916B0AA0916C0AB0916D0ACE
:102890008D839E83AF83B88720E030E040E05FE324
:1028A000BC01CD010E94FD8A9B01AC01C501B401B0
:1028B0000E94698B87FF03C080E090E0BFC02AE9D7
:1028C00039E949E95FE36D817E818F8198850E94B6
:1028D000FD8A9B01AC01C501B4010E94698B87FF91
:1028E00043C020E030E040EC50E4C701B6010E9454
:1028F0001C8D1816F4F020E030E040EC50ECC701DD
:10290000B6010E94698BA301920187FDADC0698168
:102910007A818B819C810E941C8D181684F420E0A2
:1029200030E0A901C701B6010E94698B87FF07C08B
:10293000A9C0C12CD12C50ECE52E50E4F52EA301FA
:10294000920169817A818B819C810E94698B87FFCA
:1029500070C020E030E0A901C701B6010E941C8DC3
:1029600018160CF48FC065C026E636E646EE5FE327
:102970006D817E818F8198850E94FD8A9B01AC01CB
:10298000C501B4010E94698B87FF22C020E030E0BE
:1029900040E951E4C701B6010E941C8D18168CF065
:1029A00020E030E040E951ECC701B6010E94698B9C
:1029B00087FF3FC0C12CD12C30E9E32E31ECF32E40
:1029C00038C0C12CD12C20E9E22E21E4F22E31C0F6
:1029D0002AE939E949E150E46D817E818F8198854A
:1029E0000E94FD8A9B01AC01C501B4010E94698B64
:1029F00087FD1FC020E030E0A901C701B6010E9499
:102A00001C8D181684F020E030E0A901C701B60142
:102A10000E94698B87FF0DC0C12CD12C9CE0E92E50
:102A200092ECF92E06C0C12CD12C8CE0E82E82E469
:102A3000F82EC701B6010E94E08BCB0128960FB695
:102A4000F894DEBF0FBECDBFDF91CF91FF90EF9026
:102A5000DF90CF90BF90AF909F908F907F906F90BE
:102A60005F904F900C94EF0F69817A818B819C81EC
:102A70000E941C8D181634F0C12CD12C40ECE42E91
:102A8000FE2CD7CFC12CD12C7601D3CFCF92DF92A1
:102A9000EF92FF920F931F93CF93DF93CDB7DEB7E3
:102AA0002B970FB6F894DEBF0FBECDBF8E010F5F20
:102AB0001F4F9E01275F3F4FAE01455F5F4FBE0135
:102AC0006B5F7F4F0E940836882309F489C0CD8050
:102AD000DE80EF80F88428E23BE64EE65EECC7013C
:102AE000B6010E94698B882381F020E030E044E346
:102AF00053E4C701B6010E94218D2BED3FE049E46C
:102B000050E40E946E8B6B017C01C092640AD092EB
:102B1000650AE092660AF092670AC701B6010E9450
:102B2000E08B82E79AE00E94050A882309F458C0E6
:102B300080917D0C90917E0C039709F051C080919B
:102B40007F0C9091800C039709F04AC04091640A71
:102B50005091650A6091660A7091670A20910A0295
:102B60008091680A9091690A0E94E2132091640A98
:102B70003091650A4091660A5091670A6091540A43
:102B80007091550A8091560A9091570A0E94FC8ACA
:102B90006B017C0120E030E040E05FE30E941C8D8F
:102BA000181654F020E030E040E05FEBC701B601BA
:102BB0000E94698B87FF14C082E79AE00E941E0A78
:102BC0008091640A9091650AA091660AB091670AA3
:102BD0008093540A9093550AA093560AB093570ACB
:102BE0002B960FB6F894DEBF0FBECDBFDF91CF910D
:102BF0001F910F91FF90EF90DF90CF900895CF92AB
:102C0000DF92EF92FF920F931F93CF93DF93CDB795
:102C1000DEB729970FB6F894DEBF0FBECDBF198679
:102C20001E821D8219821A821B821C828E010F5FF6
:102C30001F4F9E012B5F3F4FAE01495F5F4FBE01AB
:102C4000675F7F4F0E94FA368823F9F0C980DA80E7
:102C5000EB80FC8020E030E0A901C701B6010E94B2
:102C60001C8D87FD12C020E030E044EB52E4C70128
:102C7000B6010E94698B87FF08C0C0927A0AD09281
:102C80007B0AE0927C0AF0927D0A29960FB6F894AE
:102C9000DEBF0FBECDBFDF91CF911F910F91FF908F
:102CA000EF90DF90CF900895CF92DF92EF92FF9256
:102CB0000F931F93CF93DF93CDB7DEB72F970FB648
:102CC000F894DEBF0FBECDBF1F8619861A861B86FD
:102CD0001C861D821E821F82188619821A821B8200
:102CE0001C829E01235F3F4F79018E010F5F1F4FB2
:102CF00028503109AE01475F5F4FBE01615F7F4FD2
:102D00000E947536882321F1C984DA84EB84FC841F
:102D100028E23BE64EE65EECC701B6010E94698BF5
:102D2000882381F020E030E044E353E4C701B6019A
:102D30000E94218D2BED3FE049E450E40E946E8B10
:102D40006B017C01B701A60182E79AE00E9450075F
:102D50002F960FB6F894DEBF0FBECDBFDF91CF9197
:102D60001F910F91FF90EF90DF90CF900895CF9239
:102D7000DF92EF92FF92CF93DF93FC0181859285E2
:102D8000089709F070C083858B3309F06CC0848587
:102D90008F3909F068C085858F3F09F064C086854A
:102DA0008F3F09F060C087858F3F09F05CC0EF015D
:102DB000618970E080E090E00E941C8C20E030E0AF
:102DC00040E853E40E94218D6B017C01688970E02A
:102DD00080E090E00E941C8C9B01AC01C701B60111
:102DE0000E94FD8A20E030E044EB53E40E94218DF4
:102DF00029EF3FE049E450E40E946E8B20E030E48C
:102E00004CE956E40E946E8B20E030E040E05FE346
:102E10000E94FD8A0E94E08B6B017C0180917D0CF9
:102E200090917E0C029739F08091500A9091510A4E
:102E3000C816D90641F0C6010E94530D1092530ADC
:102E40001092520A0CC08091520A9091530A863017
:102E500091058CF701969093530A8093520AD09271
:102E6000510AC092500ADF91CF91FF90EF90DF900E
:102E7000CF9008958F929F92AF92BF92CF92DF92A0
:102E8000EF92FF920F931F93CF93DF93CDB7DEB7EF
:102E90002D970FB6F894DEBF0FBECDBF1D861986E5
:102EA0001A861B861C861D821E821F8218868E0132
:102EB0000F5F1F4F9E012B5F3F4FAE01475F5F4F7C
:102EC000BE01635F7F4F0E946237882309F448C0C8
:102ED0008D809E80AF80B88428E23BE64EE65EECB3
:102EE000C501B4010E94698BC984DA84EB84FC8437
:102EF000882349F020E030E0A901C501B4010E9417
:102F0000698B811111C028E23BE64EE65EECC701F9
:102F1000B6010E94698B882319F12FEB3EE04CE942
:102F20005EE3C701B60114C028E23BE64EE65EEC64
:102F3000C701B6010E94698B882391F0A701960111
:102F4000C501B4010E94FD8A2FEB3EE04CE95EE32F
:102F50000E946E8BAB01BC0182E79AE00E94740470
:102F60002D960FB6F894DEBF0FBECDBFDF91CF9187
:102F70001F910F91FF90EF90DF90CF90BF90AF9097
:102F80009F908F900895CF92DF92EF92FF920F93D0
:102F90001F93CF93DF93CDB7DEB72B970FB6F8947F
:102FA000DEBF0FBECDBF1B861D821E821F8218860C
:102FB00019821A821B821C828E010F5F1F4F9E0195
:102FC0002B5F3F4FAE01475F5F4FBE01655F7F4F95
:102FD0000E942F388823B1F1CD80DE80EF80F88405
:102FE00028E23BE64EE65EECC701B6010E94698B23
:102FF000882381F020E030E044E353E4C701B601C8
:103000000E94218D2BED3FE049E450E40E946E8B3D
:103010006B017C01B701A60182E79AE00E94660875
:10302000882381F021EA32EB43E05FE369817A8112
:103030008B819C810E946E8BAB01BC0182E79AE080
:103040000E9495082B960FB6F894DEBF0FBECDBF39
:10305000DF91CF911F910F91FF90EF90DF90CF9074
:103060000895CF92DF92EF92FF920F931F93CF9329
:10307000DF93CDB7DEB72B970FB6F894DEBF0FBE48
:10308000CDBF1D821E821F82188619821A821B8262
:103090001C828E01075F1F4F9E012F5F3F4FAE01C5
:1030A0004B5F5F4FBE01655F7F4F0E94C139882330
:1030B000A1F125EE3FEC48EF5FE36D817E818F81CA
:1030C00098850E94218DAB01BC0182E79AE00E94A5
:1030D000F305C980DA80EB80FC8028E23BE64EE60F
:1030E0005EECC701B6010E94698B882381F020E065
:1030F00030E044E353E4C701B6010E94218D2BED7B
:103100003FE049E450E40E946E8B6B017C01B70103
:10311000A60182E79AE00E94EE042B960FB6F8947F
:10312000DEBF0FBECDBFDF91CF911F910F91FF90FA
:10313000EF90DF90CF9008950F931F93CF93DF937D
:10314000CDB7DEB728970FB6F894DEBF0FBECDBF60
:103150001D821E821F82188619821A821B821C827F
:10316000AE014F5F5F4FBE016B5F7F4F0E94D7374D
:10317000882361F009811A812B813C814D815E8118
:103180006F81788582E79AE00E942A0628960FB61A
:10319000F894DEBF0FBECDBFDF91CF911F910F918D
:1031A00008958F929F92AF92BF92CF92DF92EF924B
:1031B000FF920F931F93CF93DF93CDB7DEB7AD97F9
:1031C0000FB6F894DEBF0FBECDBF1DA61AA619A676
:1031D0001D8E1E8E1F8E18A2198E1A8E1B8E1C8E8F
:1031E0001D8A1E8A1F8A188E198A1A8A1B8A1C8AAF
:1031F0001D861E861F86188A19861A861B861C86BF
:103200001D821E821F8218861BA61AA219A219826D
:103210001A821B821C829E012F5F3F4F3F932F9388
:10322000205E3F4F3F932F932E5F3F4F3F932F934F
:10323000285F3F4F3F932F93265231093F932F939F
:103240002C5F3F4F3F932F932C5F3F4F3F932F9324
:10325000215E3F4F3F932F932750310949012E5F45
:103260003F4F59012651310969012C5F3F4F7901C8
:103270008E01075E1F4F285F3F4FAE01475D5F4FD6
:10328000BE01635D7F4F0E949C380FB6F894DEBF8D
:103290000FBECDBF882321F1C98CDA8CEB8CFC8C5E
:1032A00020E034E244E759ECC701B6010E94698B83
:1032B00087FD16C08D889E88AF88B88C20E034E2E8
:1032C00044E759ECC501B4010E94698B87FD08C031
:1032D00095018401B701A60182E79AE00E942A06BF
:1032E000AD960FB6F894DEBF0FBECDBFDF91CF9184
:1032F0001F910F91FF90EF90DF90CF90BF90AF9014
:103300009F908F9008950F931F93CF93DF93E1E7E2
:10331000FCE01382128288EE93E0A0E0B0E08483A8
:103320009583A683B78384E397E091838083E1E666
:10333000FCE088E290E09183808348EC50E060E01C
:1033400070E0428353836483758380E293E0A0E05E
:10335000B0E086839783A087B187E1E5FCE029E2AE
:1033600030E0318320834283538364837583868373
:103370009783A087B187E1E4FCE02AE230E0318363
:103380002083428353836483758386839783A087D6
:10339000B187E1E3FCE02BE230E03183208342831C
:1033A00053836483758386839783A087B18765E39E
:1033B00080E39CE00E94E7798EE490E00E943182F5
:1033C000EC0102E310E025E142E065E30E94CD3329
:1033D000D0932F0CC0932E0C80E19CE00E94FB2F19
:1033E00083EF9BE00E94FB2F82E99BE00E94092B68
:1033F00081E39BE00E94092B80ED9AE00E94092B5B
:10340000E2E7FAE01092BB0A1092BA0A1092BD0AE3
:103410001092BC0A1092BF0A1092BE0A1092C10A02
:103420001092C00A1092C30A1092C20A1092C50AE2
:103430001092C40A1092C70A1092C60A1092C90AC2
:103440001092C80A1092CB0A1092CA0A1092CD0AA2
:103450001092CC0A1092CF0A1092CE0A10821182DA
:1034600012821382148215821682178280E090E005
:10347000A0E4B0EC80879187A287B3871486158675
:1034800016861786108A118A128A138A158A148A58
:10349000178A168A118E108E80E4828F148E138EF6
:1034A000168E158E10A2178E81A312A213A214A23B
:1034B00015A216A217A210A611A612A613A614A64C
:1034C00015A617A616A66BE578E082EA9AE00E9498
:1034D000828F6BE578E08EEA9AE0DF91CF911F91C1
:1034E0000F910C94828F84E397E09093720C8093F9
:1034F000710C0C94682F6AE675E080EC9FE00E94E6
:10350000287F80EC9FE00C940D7D68E575E080ECF1
:103510009FE00E94287F80EC9FE00C940D7D66E484
:1035200075E080EC9FE00E94287F80EC9FE00C9487
:103530000D7D8091810C81112DC080917F0C909127
:10354000800C20917D0C30917E0C8217930739F00E
:1035500085E090E09093630A8093620A0895209139
:10356000620A3091630A21153105A1F02150310919
:103570003093630A2093620A8230910511F40C940F
:103580007B1A8330910511F40C94851A019711F47C
:103590000C948F1A0895CF93DF93EC018B819C815B
:1035A000AD81BE8181159F4EA140B10509F082C059
:1035B00089859A8508970CF47DC08B858B3309F03B
:1035C00079C08C858F3909F075C08D85803F09F0F1
:1035D00071C08E85813809F06DC08F85843809F0FF
:1035E0004FC08B8980FF09C00E94851A83E090E05C
:1035F00090937E0C80937D0C5DC081FF05C00E947E
:103600007B1A82E090E004C00E948F1A81E090E073
:1036100090937E0C80937D0C8B8982FF03C06AECB3
:1036200073E002C068EB73E080EC9FE00E94287FAB
:103630008B8983FF03C066EA73E002C063E973E02D
:1036400080EC9FE00E94287F8989829586958695E7
:1036500083709A8996952AE5829FE0011124C90F0B
:10366000D11D64E873E080EC9FE00E94F77E4AE0A1
:1036700050E0BE0180EC9FE0DF91CF910C94FE7F83
:103680008D3AC1F488898330A9F46989062E000C2B
:10369000770B880B990B0E941E8C2BED3FE049E4C1
:1036A00050E40E946E8B0E94E08BCB01DF91CF91A2
:1036B0000C946C0DDF91CF910895CF92DF92EF9231
:1036C000FF92CF93DF93EC01CB80DC80ED80FE8016
:1036D00080915C0A90915D0A8A30910528F40196E8
:1036E00090935D0A80935C0AC701B6010E9447135C
:1036F0008111E6C0C701B6010E949B128111E0C092
:1037000081E39CE00E946C0C80E5C8168FEFD80620
:10371000E104F10449F4CE01DF91CF91FF90EF90E5
:10372000DF90CF900C94B716C1148FEED80681E0CD
:10373000E806F10449F4CE01DF91CF91FF90EF90BC
:10374000DF90CF900C94CB1A8DE0C81681EFD8068D
:1037500081E0E806F10469F48F81882309F4B0C0A0
:10376000CE01DF91CF91FF90EF90DF90CF900C943E
:10377000461582E1C81681EFD80681E0E806F1041B
:1037800069F48F81882309F49BC0CE01DF91CF912A
:10379000FF90EF90DF90CF900C9454168AE1C816FA
:1037A00081EFD80681E0E806F10449F4CE01DF910B
:1037B000CF91FF90EF90DF90CF900C94FF158BE0AE
:1037C000C81685EFD80681E0E806F10449F4CE0179
:1037D000DF91CF91FF90EF90DF90CF900C943A174C
:1037E00081E0C81688EFD80681E0E806F10449F4C4
:1037F000CE01DF91CF91FF90EF90DF90CF900C94AE
:103800009C1882E0C81688EFD80681E0E806F1042B
:1038100049F4CE01DF91CF91FF90EF90DF90CF90F0
:103820000C94C31785E0C81688EFD80681E0E80637
:10383000F10449F4CE01DF91CF91FF90EF90DF903A
:10384000CF900C94D11882E0C8168DEFD80681E095
:10385000E806F10449F4CE01DF91CF91FF90EF909B
:10386000DF90CF900C943118D701C6018E50984F3D
:10387000A140B1090297A105B10548F4CE01DF913D
:10388000CF91FF90EF90DF90CF900C94A81382E03F
:10389000C8168BEFD80681E0E806F10479F381E1E0
:1038A000C81A8BEFD80A81E0E80AF10882E0C8164E
:1038B000D104E104F10410F38091810C8823F1F22A
:1038C000DF91CF91FF90EF90DF90CF9008958F928E
:1038D0009F92AF92BF92CF92DF92EF92FF920F939F
:1038E0001F93CF93DF934C01FC01C181CF70D0E0D7
:1038F000239685E0C82ED12C83E89DE00E942B7C86
:10390000892B59F083E89DE00E94943163E070E0D8
:1039100080E090E00E94B282EFCF540121E0E12CE0
:10392000F12C11E0EC16FD060CF010E0122331F141
:10393000F50101915F0110E0E114F10409F4116057
:10394000B80183E89DE00E94B93163E070E080E057
:1039500090E00E94B28283E89DE00E942B7C892B3C
:1039600041F083E89DE00E94943121E080179107A7
:1039700009F020E0FFEFEF1AFF0AD3CF211112C0A8
:1039800022E330E040E050E062E070E080E090E070
:103990000E94FD810E94B28281E0C81AD10809F01C
:1039A000ABCF01C011E0812FDF91CF911F910F911B
:1039B000FF90EF90DF90CF90BF90AF909F908F904F
:1039C00008958091600A9091610A0A9720F08EE72D
:1039D00095E00C94671C08958F929F92AF92BF92CE
:1039E000CF92DF92EF92FF920F931F93CF93DF93CB
:1039F0004C01FC01C181CF70D0E0239685E0C82E38
:103A0000D12C80EA9EE00E942B7C892B59F080EA21
:103A10009EE00E94943163E070E080E090E00E94BC
:103A2000B282EFCF540121E0E12CF12C11E0EC1631
:103A3000FD060CF010E0122331F1F50101915F0158
:103A400010E0E114F10409F41160B80180EA9EE08D
:103A50000E94B93163E070E080E090E00E94B282A1
:103A600080EA9EE00E942B7C892B41F080EA9EE058
:103A70000E94943121E08017910709F020E0FFEFC8
:103A8000EF1AFF0AD3CF211112C022E330E040E049
:103A900050E062E070E080E090E00E94FD810E94D2
:103AA000B28281E0C81AD10809F0ABCF01C011E0A1
:103AB000812FDF91CF911F910F91FF90EF90DF90B9
:103AC000CF90BF90AF909F908F90089580915E0AA5
:103AD00090915F0A0A9720F08BE795E00C94EC1C1C
:103AE00008950F931F93CF93DF93CDB7DEB7C351E4
:103AF000D1400FB6F894DEBF0FBECDBF81E49CE08D
:103B00000E946C0C81E39BE00E940F2C8C010E94B0
:103B10005D0FC8010E94850D61E077E0C8010E9439
:103B2000170D882399F0B801CE0101960E94DA2979
:103B30008091820C811105C0CE018F5F9E4F0E9443
:103B4000671CCE018F5F9E4F0E94EC1CCD5EDE4F46
:103B50000FB6F894DEBF0FBECDBFDF91CF911F919E
:103B60000F91089581E79CE00E94FE2C181619061B
:103B70007CF481E79CE00E94D52C97FD09C0682F5A
:103B800081E39BE00E94182B019711F40C94711DA6
:103B900008950F931F93CF93DF93CDB7DEB7C35133
:103BA000D1400FB6F894DEBF0FBECDBF81E49CE0DC
:103BB0000E946C0C80915A0A90915B0A8A309105A0
:103BC00028F4019690935B0A80935A0A80ED9AE05C
:103BD0000E940F2C8C010E945D0FC8010E94850D70
:103BE00061E077E0C8010E94170D882399F0B801C1
:103BF000CE0101960E94DA298091820C811105C0C4
:103C0000CE018F5F9E4F0E94671CCE018F5F9E4F3B
:103C10000E94EC1CCD5EDE4F0FB6F894DEBF0FBEE7
:103C2000CDBFDF91CF911F910F91089580EA9EE063
:103C30000E942B7C892B71F080EA9EE00E949431D7
:103C400097FD08C0BC0183EF9BE00E940530811105
:103C50000C94C90C0895CF92DF92EF92FF920F93CC
:103C60001F93CF93DF9383E89DE00E942B7C892BE9
:103C700009F48AC383E89DE00E94943197FD84C3D0
:103C8000BC0180E19CE00E940530882309F47CC3DC
:103C900081E69CE00E946C0C8091600A9091610A20
:103CA0008A30910528F401969093610A8093600A06
:103CB00080E19CE00E946830EC0180E19CE00E9481
:103CC0005E30BE010E94882FEC010E94842F8C017F
:103CD00080E19CE00E9468307C0180910B02882387
:103CE00051F0CE010E94822F892B29F08881998181
:103CF00003970CF0D6C20115110531F525E0E21647
:103D0000F10409F0C0C26E8170E0762F66278D81C4
:103D1000680F711D072E000C880B990B0E941E8CDA
:103D200020E030E040E251E40E946E8BAB01BC0128
:103D300082E79AE00E947404882309F4A4C282E70F
:103D40009AE00E94AC049FC20530110509F49BC2A1
:103D50000031110539F534E0E316F10409F093C29E
:103D60006C8170E0762F6627CB01770FAA0BBB0B17
:103D70002D81BC01CD01622B0E941C8C20E030E023
:103D800040E05FE30E94218DAB01BC0182E79AE035
:103D90000E94EE04882309F476C282E79AE00E942A
:103DA0008C0571C201311105B1F544E0E416F1044E
:103DB00009F069C21C816D816F7070E080E090E055
:103DC0000E941E8C20E030E040E251E40E946E8BA5
:103DD0006B017C01612F6F7770E080E090E00E94C2
:103DE0001E8C9B01AC01C701B6010E94FD8A17FF22
:103DF0000AC022EA32EB43E05FE36B017C01C701BA
:103E0000B6010E946E8B462F572FBC0182E79AE0C5
:103E10000E94F305BFCF0032110509F434C2C80176
:103E200083978230910508F42EC203978230910562
:103E300008F429C28A97029708F425C202351105B1
:103E400051F584E0E816F10409F01DC26D8170E0BF
:103E5000762F66278C81680F711D072E000C880B4A
:103E6000990B0E941E8C20E030E040E251E40E9459
:103E70006E8BAB01BC0182E79AE00E949508882313
:103E800009F401C282E79AE00E94CD0882E79AE035
:103E90000E944009F8C10335110509F06DC023E007
:103EA000E216F10409F0EFC11B81612F607370E02D
:103EB000B4E075956795BA95E1F7072E000C880B6D
:103EC000990B0E941E8C20E030E044EB52E40E94EB
:103ED000218D6B017C016C816F7370E080E090E05C
:103EE0000E941E8C9B01AC010E94FD8A9B01AC01CB
:103EF000C701B6010E94FD8A6B017C01612F70E051
:103F000014E0759567951A95E1F76C707727072E81
:103F1000000C880B990B0E941E8C20E030E040E0E2
:103F20005EE30E94218D9B01AC01C701B6010E9496
:103F3000FD8A6B017C019B01AC016091980A709134
:103F4000990A80919A0A90919B0A0E94FC8A9F7715
:103F500020E030E044E354E40E94698B87FF93C182
:103F600020E030E044EB53E4C701B6019F770E94A4
:103F7000698B87FD9CC187C10435110539F534E093
:103F8000E316F10409F07FC15D81852F90E0489729
:103F90000CF079C18C81282F2C7F30E03595279546
:103FA000359527952C3331050CF06DC140E1849F88
:103FB000C001112499274B8142954F70842B8F7338
:103FC00099278C3391050CF479C15DC10635110533
:103FD000D9F484E0E816F10409F055C19C818FEF13
:103FE000890F8F3108F04FC18B8182958F702FEF31
:103FF000280F2C3008F047C12D81422F50E043316B
:1040000051050CF086C13FC10735110509F43BC1CC
:104010000835110561F428E0E216F10419F4CE0127
:104020000E94870A82E79AE00E941A072CC109358C
:10403000110509F428C10238110509F424C1043816
:10404000110509F073C02B81822F807390E0F4E09A
:1040500095958795FA95E1F73AE5389FB001399F34
:10406000700D11248C818F73680F711D680F711D85
:10407000220F611D711D072E000C880B990B0E94E9
:104080001E8C6093940A7093950A8093960A90937D
:10409000970A8091C40A9091C50A02969093C50A26
:1040A0008093C40A039734F082E090E09093C50AAD
:1040B0008093C40A8091810C8111E5C08E8181FFBB
:1040C00005C00E947B1A82E090E004C00E948F1A13
:1040D00081E090E090937E0C80937D0C8E8182FF36
:1040E00003C062E174E002C060E074E080EC9FE035
:1040F0000E94287F8E8183FF03C06EEE73E002C0B2
:104100006BED73E080EC9FE00E94287F8C818295AC
:104110008695869583702D8126953AE5839FC0010B
:104120001124820F911D0E94530DADC0C801855806
:104130009109029708F4A7C00938110591F545E0E7
:10414000E416F10409F09FC08B8190E044E095955E
:1041500087954A95E1F79C01237033274DE2429FF2
:10416000B001439F700D11242C812F73620F711DBC
:10417000660F771FE3E096958795EA95E1F7680F5C
:10418000791F072E000C880B990B0E941E8CAB0127
:10419000BC0182E79AE00E945007882309F473C0AB
:1041A00066C00039110509F46EC00939110561F4C2
:1041B00083E0E816F10409F066C06C8170E06A35AE
:1041C00071050CF4D2C05FC00C39110509F05BC059
:1041D00024E0E216F10409F056C02B81822F80738F
:1041E00090E034E0959587953A95E1F73AE5389F68
:1041F000B001399F700D11248C818F73680F711D70
:10420000680F711D220F611D711D072E000C880B98
:10421000990B0E941E8CAB01BC0182E79AE00E94C0
:104220005007882381F16D8170E0603871050CF0D2
:104230007A9582E79AE00E94050A882321F16D8130
:1042400070E0603871050CF07A95072E000C880B31
:10425000990B0E941E8C6093640A7093650A809388
:10426000660A9093670A82E79AE00E941E0A82E734
:104270009AE00E94870782E79AE00E94D40782E7CB
:104280009AE00E941808209709F47EC0CE01DF91C1
:10429000CF911F910F91FF90EF90DF90CF900C94F2
:1042A0003582CE010E94822F0E94EC1C24CDB701E2
:1042B000A60182E79AE00E946608E1CD9F938F9362
:1042C0003F932F931F925F9384E194E09F938F938A
:1042D0008EEA9AE09F938F930E94E08F8091CE0A9E
:1042E0009091CF0A06969093CF0A8093CE0A2DB76D
:1042F0003EB7265F3F4F0FB6F8943EBF0FBE2DBFAF
:1043000007970CF286E090E09093CF0A8093CE0A54
:10431000BACF1F922F931F928F931F929F9384E186
:1043200094E09F938F9382EA9AE09F938F930E94E9
:10433000E08F8091CC0A9091CD0A44969093CD0A5B
:104340008093CC0A2DB73EB7265F3F4F0FB6F89447
:104350003EBF0FBE2DBF45970CF495CF84E190E092
:104360009093CD0A8093CC0A8ECF072E000C880B39
:10437000990B0E941E8C60937A0A70937B0A80933B
:104380007C0A90937D0A7BCFDF91CF911F910F9193
:10439000FF90EF90DF90CF9008958DE590E10E941F
:1043A0002B7C892B79F08DE590E10E94457C97FD6F
:1043B00009C0682F80ED9AE00E94182B019711F434
:1043C0000C94C91D08952F923F924F925F926F9265
:1043D0007F928F929F92AF92BF92CF92DF92EF9295
:1043E000FF920F931F93CF93DF93CDB7DEB7CA51E0
:1043F000D1400FB6F894DEBF0FBECDBF1E012CEE2C
:10440000221A2EEF320AC12CD12C80E4E82EFE2C89
:10441000812C912C90E8A92E90E4B92E412C512C9E
:1044200020E8622E2FE3722E80EC9FE00E942B7C0E
:10443000892B09F419C180EC9FE00E94457C682F0C
:1044400082E99BE00E94182B8130910509F061C040
:1044500082E99BE00E940F2C8C0182E99BE00E9484
:104460001A2C07970CF400C1D801BC91C65EDE4F30
:10447000B883CA51D140B13251F48091810C81117D
:10448000F3C0B8018DE590E10E941B7FEDC0C8012B
:104490000E947A12882331F18091820C811112C01E
:1044A0008091600A9091610A0A9708F4BDCFB80123
:1044B000CE0101960E94DA29CE018F5F9E4F0E94A5
:1044C000671C55C080915C0A90915D0A0A9708F4B8
:1044D000ABCF82E99BE00E941A2CBC01C8010E946C
:1044E000931145C0C65EDE4FE881CA51D140E43227
:1044F00009F09ACF61E274E0C8010E942F0D81118A
:1045000041C067E274E0C8010E942F0D81113EC0D6
:104510008BCF8230910591F482E99BE00E940F2CB1
:104520000E947A12882309F49FC060E674E080EC50
:104530009FE00E94287F66E574E014C0039709F0AD
:1045400073CF82E99BE00E940F2C0E947A1288238D
:1045500009F48AC06DE274E080EC9FE00E94287F3D
:1045600063E274E080EC9FE00E94287F06C06FE366
:1045700074E080EC9FE00E943A7F80EC9FE00E9414
:104580000D7D52CF91E09093810C4ECFF8010190B8
:104590000020E9F73197E01BF10B399708F444CF7D
:1045A0006DE274E080EC9FE00E941B7FD8011796BB
:1045B0008C91282F082E000C330B3F938F93ECE344
:1045C000F4E0FF93EF931F9286E08F933F922F9238
:1045D0000E94A38FB10180EC9FE00E943A7F0FB64A
:1045E000F894DEBF0FBECDBFF8018781823331F171
:1045F00074F48033D1F0813309F016CF40926A0A07
:1046000050926B0A60926C0A70926D0A0DCF8333E0
:1046100011F1843309F008CF80926A0A90926B0AF4
:10462000A0926C0AB0926D0AFFCE10926A0A1092A4
:104630006B0A10926C0A10926D0AF6CE80E090E040
:10464000A0E0B0E480936A0A90936B0AA0936C0A8E
:10465000B0936D0AE9CEC0926A0AD0926B0AE092DA
:104660006C0AF0926D0AE0CEC65EDE4F0FB6F8948B
:10467000DEBF0FBECDBFDF91CF911F910F91FF9095
:10468000EF90DF90CF90BF90AF909F908F907F90F2
:104690006F905F904F903F902F900895A8950E9443
:1046A0002B1E0E94161E0E94E3210E94CD210E9413
:1046B000B21D80912D0C882331F080912E0C9091A9
:1046C0002F0C0E94FB698091580A9091590A813AF7
:1046D0002FE09207A4F10E94991A82E79AE00E94C3
:1046E000620A1092590A1092580A8091700A9091A9
:1046F000710A8F319105B0F00E94E11C0E94661D85
:1047000080916E0A90916F0A9C012F5F3F4F30930A
:104710006F0A20936E0A0E94B40D1092710A1092D3
:10472000700A089501969093710A8093700A80FF31
:1047300002C061E001C060E08DE00C94C683019688
:104740009093590A8093580A803D974031F40E9413
:10475000991A82E79AE00C94600A08950F931F93C8
:10476000CF93DF938C01EC0109900020E9F72197AA
:10477000C81BD90BBE016150710901960E94292CFA
:10478000F801EC0FFD1F2AE220839F938F9386E0B0
:1047900097E09F938F93CE010196800F911F9F9377
:1047A0008F930E94E08F0F900F900F900F900F90BB
:1047B0000F90CE01039669E578E0800F911FDF919D
:1047C000CF911F910F910C94828F20E031E0FC017A
:1047D000A901119241505040E1F7089508958F9238
:1047E0009F92AF92BF92CF92DF92EF92FF920F9380
:1047F0001F93CF93DF93D82FC92F6A017B01480104
:10480000590120E030E040E251E4C501B4010E94CA
:10481000218D0E94E08B0AE010E0CB01B8010E94DC
:104820007C8A9F938F93C501B4010E94E08B7F9394
:104830006F9320E030E040E251E4C701B6010E94EE
:10484000218D0E94E08BCB01B8010E947C8A9F934E
:104850008F93C701B6010E94E08B7F936F9389E429
:1048600094E09F938F938FEF8F938DEF8F93CF93E0
:10487000DF930E94A38F8DB79EB70E960FB6F89464
:104880009EBF0FBE8DBF8D2F9C2FDF91CF911F91AB
:104890000F91FF90EF90DF90CF90BF90AF909F90DF
:1048A0008F900C94AE232F923F924F925F926F9213
:1048B0007F928F929F92AF92BF92CF92DF92EF92B0
:1048C000FF920F931F93CF93DF9300D01F92CDB72A
:1048D000DEB7382E292E4A015B01A9019801C501D6
:1048E000B4010E94FC8A69837A838B839C8326E5CA
:1048F0003EE04DEE5FE3C701B6010E94218D2B0122
:104900003C0120E030E040E251E40E94218D0E9411
:10491000E08BCB016AE070E00E947C8A9F938F93CA
:10492000C301B2010E94E08B7F936F9320E030E0DF
:1049300040E251E4C701B6010E94218D0E94E08B44
:10494000CB016AE070E00E947C8A9F938F93C7013D
:10495000B6010E94E08B7F936F9320E030E040E24D
:1049600051E4C501B4010E94218D0E94E08BCB016E
:104970006AE070E00E947C8A9F938F93C501B40126
:104980000E94E08B7F936F9320E030E040E251E49F
:1049900069817A818B819C810E94218D0E94E08BAC
:1049A000CB016AE070E00E947C8A9F938F936981BB
:1049B0007A818B819C810E94E08B7F936F9383EA45
:1049C00094E09F938F938FEF8F938DEF8F932F9220
:1049D0003F920E94A38F0FB6F894DEBF0FBECDBFEB
:1049E000832D922D0F900F900F900F90DF91CF910C
:1049F0001F910F91FF90EF90DF90CF90BF90AF90FD
:104A00009F908F907F906F905F904F903F902F90EE
:104A10000C94AE232F923F924F925F926F927F92AF
:104A20008F929F92AF92BF92CF92DF92EF92FF92BE
:104A30000F931F93CF93DF9300D01F92CDB7DEB7B4
:104A4000382E292E6A017B012801390126E53EE036
:104A50004DEE5FE3C301B2010E94218D4B015C0169
:104A600020E030E04AE754E40E94218D20E030E06D
:104A700041E655E40E946E8B69837A838B839C8325
:104A800020E030E044E353E4C701B6010E941C8DEE
:104A9000181664F4A701960160E070E084EB93E4DB
:104AA0000E94FC8A6B017C011CE401C012E520E03D
:104AB00030E040E251E4C501B4010E94218D0E9422
:104AC000E08BCB016AE070E00E947C8A9F938F9319
:104AD000C501B4010E94E08B7F936F9320E030E02A
:104AE00040E251E469817A818B819C810E94218D11
:104AF0000E94E08BCB016AE070E00E947C8A9F9369
:104B00008F9369817A818B819C810E94E08B7F9356
:104B10006F9320E030E040E251E4C301B2010E9413
:104B2000218D0E94E08BCB016AE070E00E947C8ABC
:104B30009F938F93C301B2010E94E08B7F936F9389
:104B40001F921F9320E030E040E251E4C701B6011C
:104B50000E94218D0E94E08BCB016AE070E00E94F0
:104B60007C8A9F938F93C701B6010E94E08B7F934D
:104B70006F9382ED94E09F938F938FEF8F938DEFE0
:104B80008F932F923F920E94A38F0FB6F894DEBFAF
:104B90000FBECDBF832D922D0F900F900F900F90D1
:104BA000DF91CF911F910F91FF90EF90DF90CF9009
:104BB000BF90AF909F908F907F906F905F904F903D
:104BC0003F902F900C94AE234F925F926F927F9202
:104BD0008F929F92AF92BF92CF92DF92EF92FF920D
:104BE0000F931F93CF93DF9300D01F92CDB7DEB703
:104BF000182F092F0E94E52360918A0A70918B0A71
:104C0000072E000C880B990B0E941E8C20E030E0D0
:104C100040E752E40E946E8B6B017C016091880A30
:104C20007091890A072E000C880B990B0E941E8C2C
:104C30009B01AC01C701B6010E94FD8A2B013C011A
:104C40006091910A7091920A072E000C880B990BC3
:104C50000E941E8C20E030E040E752E40E946E8B00
:104C60006B017C0160918F0A7091900A072E000CF5
:104C7000880B990B0E941E8C9B01AC01C701B601E9
:104C80000E94FD8A4B015C01C301B2010E94E08BCE
:104C900069837A838B839C83C501B4010E94E08B76
:104CA0006B017C0129813A81B901330F880B990B83
:104CB0000E941E8C9B01AC01C301B2010E94FC8AC0
:104CC0002B013C01B6010D2C000C880B990B0E94A6
:104CD0001E8C9B01AC01C501B4010E94FC8A20918D
:104CE000930A422F022E000C550B5F932F9320E066
:104CF00030E04AE754E40E94218D20E030E040E0BB
:104D00005FE30E94FD8A0E94E08B7F936F93DF92A6
:104D1000CF9280918E0A8F9380918D0A8F9380918C
:104D20008C0A282F082E000C330B3F938F9320E022
:104D300030E04AE754E4C301B2010E94218D20E033
:104D400030E040E05FE30E94FD8A0E94E08B7F93A9
:104D50006F933A813F9389818F938091870A8F93D4
:104D60008091860A8F9382E095E09F938F938FEFD7
:104D70008F938F930F931F930E94A38F0FB6F89476
:104D8000DEBF0FBECDBF812F902F0F900F900F90E1
:104D90000F90DF91CF911F910F91FF90EF90DF90D7
:104DA000CF90BF90AF909F908F907F906F905F90CB
:104DB0004F900C94AE234F925F926F927F92AF927E
:104DC000BF92CF92DF92EF92FF920F931F93CF93F8
:104DD000DF938C010E94E523C2E7DAE0CAA4DBA4DA
:104DE000ECA4FDA4288539854A855B856EA17FA149
:104DF00088A599A50E94FC8A2B013C0120E030E0A7
:104E000040E251E40E94218D0E94E08B8AE0A82EAE
:104E1000B12CCB01B5010E947C8A9F938F93C30173
:104E2000B2010E94E08B7F936F9320E030E040E27C
:104E300051E4C701B6010E94218D0E94E08BCB0195
:104E4000B5010E947C8A9F938F93C701B6010E948F
:104E5000E08B7F936F9389A1282F082E000C330BD2
:104E60003F938F9388A18F938F8D8F938E8D8F9388
:104E70008D8D8F938C8D8F938B8D8F938A8D282F13
:104E8000082E000C330B3F938F93898D8F93888D61
:104E90008F938F898F938E898F938D898F938C8930
:104EA0008F938CE695E09F938F938FEF8F938DEF89
:104EB0008F931F930F930E94A38F8DB79EB74E962B
:104EC0000FB6F8949EBF0FBE8DBFC801DF91CF9182
:104ED0001F910F91FF90EF90DF90CF90BF90AF9018
:104EE0007F906F905F904F900C94AE232F923F92E3
:104EF0004F925F926F927F928F929F92AF92BF92EA
:104F0000CF92DF92EF92FF920F931F93CF93DF9395
:104F10001C010E94E523C2E7DAE08AA49BA4ACA4AA
:104F2000BDA4C884D984EA84FB84A70196016EA13C
:104F30007FA188A599A50E94FC8A2B013C0120E055
:104F400030E040E251E4C701B6010E94218D0E9489
:104F5000E08B0AE010E0CB01B8010E947C8A9F93AD
:104F60008F93C701B6010E94E08B7F936F9382EA13
:104F70009AE09F938F9320E030E040E251E4C30138
:104F8000B2010E94218D0E94E08BCB01B8010E94EA
:104F90007C8A9F938F93C301B2010E94E08B7F9321
:104FA0006F9320E030E040E251E4C501B4010E947B
:104FB000218D0E94E08BCB01B8010E947C8A9F93D7
:104FC0008F93C501B4010E94E08B7F936F9389A1F9
:104FD000282F082E000C330B3F938F9388A18F93BB
:104FE0008F8D8F938E8D8F938D8D8F938C8D8F93CF
:104FF0008B8D8F938A8D282F082E000C330B3F93B7
:105000008F93898D8F93888D8F938F898F938E89BE
:105010008F938D898F938C898F938EEA9AE09F93DB
:105020008F938EEE95E09F938F938FEF8F938DEFFD
:105030008F933F922F920E94A38F8DB79EB7869633
:105040000FB6F8949EBF0FBE8DBFC101DF91CF9107
:105050001F910F91FF90EF90DF90CF90BF90AF9096
:105060009F908F907F906F905F904F903F902F9088
:105070000C94AE234F925F926F927F928F929F9289
:10508000AF92BF92CF92DF92EF92FF920F931F9356
:10509000CF93DF938C016A017B012FEB3EE04CE95B
:1050A0005EE3C701B6010E94218D4B015C012EE138
:1050B00036E14AEE5FE30E946E8B2B013C0120E05B
:1050C00030E040E251E40E94218D0E94E08BCAE072
:1050D000D0E0CB01BE010E947C8A9F938F93C301D5
:1050E000B2010E94E08B7F936F9320E030E040E2BA
:1050F00051E4C501B4010E94218D0E94E08BCB01D7
:10510000BE010E947C8A9F938F93C501B4010E94C7
:10511000E08B7F936F9320E030E040E251E4C701E1
:10512000B6010E94218D0E94E08BCB01BE010E943E
:105130007C8A9F938F93C701B6010E94E08B7F9377
:105140006F9389E396E09F938F938FEF8F938DEF0B
:105150008F931F930F930E94A38F8DB79EB7429694
:105160000FB6F8949EBF0FBE8DBFC801DF91CF91DF
:105170001F910F91FF90EF90DF90CF90BF90AF9075
:105180009F908F907F906F905F904F900C94AE2384
:105190008F929F92AF92BF92CF92DF92EF92FF9247
:1051A0000F931F93CF93DF93D82FC92F6A017B01F1
:1051B0004801590120E030E040E251E4C501B4016A
:1051C0000E94218D0E94E08B0AE010E0CB01B80123
:1051D0000E947C8A9F938F93C501B4010E94E08B4B
:1051E0007F936F931F921F921F921F9220E030E0D7
:1051F00040E251E4C701B6010E94218D0E94E08B7C
:10520000CB01B8010E947C8A9F938F93C701B6019E
:105210000E94E08B7F936F938DE896E09F938F932E
:105220008FEF8F938DEF8F93CF93DF930E94A38F98
:105230008DB79EB742960FB6F8949EBF0FBE8DBF36
:105240008D2F9C2FDF91CF911F910F91FF90EF90A9
:10525000DF90CF90BF90AF909F908F900C94AE2333
:10526000CF92DF92EF92FF92CF93DF93D82FC92F87
:105270006A017B0120E030E040E251E4C701B60161
:105280000E94218D0E94E08BCB016AE070E00E94B9
:105290007C8A9F938F93C701B6010E94E08B7F9316
:1052A0006F9380EB96E09F938F938FEF8F938DEFAB
:1052B0008F93CF93DF930E94A38F8DB79EB70A96EB
:1052C0000FB6F8949EBF0FBE8DBF8D2F9C2FDF9120
:1052D000CF91FF90EF90DF90CF900C94AE23CF92C0
:1052E000DF92EF92FF92CF93DF93D82FC92F6A01FD
:1052F0007B01B901330F880B990B0E941E8C9B0117
:10530000AC01C701B6010E94FC8A6B017C0120E060
:1053100030E040E251E40E94218D0E94E08BCB01FD
:105320006AE070E00E947C8A9F938F93C701B60168
:105330000E94E08B7F936F9381EC96E09F938F9315
:105340008FEF8F938DEF8F93CF93DF930E94A38F77
:105350008DB79EB70A960FB6F8949EBF0FBE8DBF4D
:105360008D2F9C2FDF91CF91FF90EF90DF90CF900A
:105370000C94AE23CF93DF93D82FC92F7F936F93D5
:1053800082ED96E09F938F938FEF8F938DEF8F93A6
:10539000CF93DF930E94A38F8DB79EB708960FB669
:1053A000F8949EBF0FBE8DBF8D2F9C2FDF91CF91A4
:1053B0000C94AE239F92AF92BF92CF92DF92EF9266
:1053C000FF920F931F93CF93DF93CDB7DEB7E29792
:1053D0000FB6F894DEBF0FBECDBF8C017B010E94DB
:1053E000E5231AAA19AAF70101900020E9F73197DD
:1053F000BF016E197F099E012F5C3F4FAE014F5FC9
:105400005F4FC7010E94392C29A9FF24FA94F20E9C
:1054100068018EEEC81A8EEFD80AD601FC92B2E06F
:10542000BF1508F052C0ED81FE81DF010D90002014
:10543000E9F7CD0103978E179F0709F046C08181D8
:105440000E94C12C2F2D30E08F7090E0039628171A
:105450003907D9F5FE0131967F011395A12CB12CA6
:10546000D6018C9190E0A816B9068CF5BFEFAB1A67
:10547000BB0AD7011296ED91FC911397DF010D90B5
:105480000020E9F7CD0103978E179F07C1F48081B3
:105490000E94C12C982ED7011296ED91FC91139782
:1054A00081810E94C12CB0E19B9E800D1124F801E6
:1054B0008083F2E0EF0EF11C0F5F1F4FD1CF808190
:1054C0000E94C12CD8018C93F4CFF60110828E017A
:1054D0000F5F1F4FE12CF12C89A99AA9E816F90654
:1054E00064F4D8018D919D918D01009711F00E9477
:1054F000268EBFEFEB1AFB0AEFCFE2960FB6F894B9
:10550000DEBF0FBECDBFDF91CF911F910F91FF90F6
:10551000EF90DF90CF90BF90AF909F9008954F9203
:105520005F926F927F928F929F92AF92BF92CF9233
:10553000DF92EF92FF920F931F93CF93DF93EC01D3
:105540007B01142F582E4D2E0E94E523A12EB12C45
:10555000A501B701CE0193950E945E8FFE01EE5E1C
:10556000FE4F10836EEF76E0CE010E94828F4701DE
:1055700007EF1FEF85E0C82E87E0D82E9DEF692E3C
:1055800077247A94C4018E199F098A159B05FCF42F
:10559000F40181914F011F928F93DF92CF92C3014B
:1055A000801B910B8C0F9D1F9F938F931F930F93C5
:1055B0004F925F920E94A38F035011098DB79EB73F
:1055C0000A960FB6F8949EBF0FBE8DBFDBCFCE01FB
:1055D000DF91CF911F910F91FF90EF90DF90CF90CF
:1055E000BF90AF909F908F907F906F905F904F9003
:1055F0000C94AE23082E000C990B0E94568F282F76
:10560000082E000C990B213414F0C7970895C09709
:105610000895FC01E55AFF4F1182108232971182E2
:10562000108234961182108232961182108208956F
:105630004F925F926F927F928F929F92AF92BF92A2
:10564000CF92DF92EF92FF920F931F93CF93DF934E
:10565000EC016C014BE5C40ED11CF60120813181B7
:10566000875A9F4F7C01243631051CF0FC011182C2
:1056700010826A3011F06D3019F4F7011182108236
:10568000643211F0613279F485E5FE0111928A9558
:10569000E9F7688381E090E0F60191838083F70168
:1056A00091838083A8C0F701008111810130110529
:1056B00021F002301105C9F09BC0FE01E20FF31F7B
:1056C0006083C9010196F601918380836A3209F0F3
:1056D00092C082E090E0F70191838083C95ADF4F46
:1056E000215031093983288386C0FE01E20FF31F60
:1056F00060832F5F3F4FF60131832083FE01E95A1B
:10570000FF4F60817181261B370B243031050CF46B
:1057100072C0CE0101960E94292C3C01F6018080C6
:1057200091805E01A80CB91CF501329780810E941E
:10573000FA2A2C0184E0440C551C8A95E1F7F50106
:10574000319780810E94FA2A2DE0F501208394018F
:105750002E5F3F4F4AE04183FE01EB5AFF4F3183FA
:105760002083F3E08F0E911CF60191828082FE016E
:10577000E20FF31F1082840D951D6816790601F162
:1057800080919B0C90919C0C019690939C0C809323
:105790009B0C6BE077E080EC9FE00E941B7FBE01DA
:1057A00080EC9FE00E943A7FF70111821082C35A79
:1057B000DF4F288139812F5F3F4F398328831DC0F8
:1057C00080919D0C90919E0C019690939E0C8093DD
:1057D0009D0CC15ADF4F88819981019699838883F6
:1057E00083E090E0F7019183808301E010E005C041
:1057F000F7011182108200E010E0C801DF91CF9123
:105800001F910F91FF90EF90DF90CF90BF90AF90DE
:105810009F908F907F906F905F904F900895FC01C4
:10582000E75AFF4F208131812330310511F080E0AC
:1058300090E00895FC01E75AFF4F20813181233029
:10584000310521F4349780819181089580E090E0C2
:105850000895FC01680F791F80E090E0E617F707D4
:1058600039F02191022E000C330B82279327F6CFBB
:1058700008952F923F924F925F926F927F928F92F4
:105880009F92AF92BF92CF92DF92EF92FF920F93CF
:105890001F93CF93DF9300D01F92CDB7DEB74C019B
:1058A0001B012A015901F901118210826C0100E0EB
:1058B00010E0612C712C1C830B83021513050CF076
:1058C00049C0DA82C982F60180810F5F1F4F8C3296
:1058D00011F08A32B1F58B819C81861997099C83DE
:1058E0008B83181619068CF401960E948E8D7C010C
:1058F000B401660D771D4B815C810E945E8FEB8148
:10590000FC81EE0DFF1D108209C082E090E00E9434
:105910008E8D7C016BE578E00E94828FF50180819D
:1059200091819C012F5F3F4F31832083880F991F06
:10593000F201E80FF91FF182E082380128313105C8
:105940004CF4FFEFCF1ADF0AE981FA8180818A32B5
:1059500009F0B1CF0F900F900F900F90DF91CF9182
:105960001F910F91FF90EF90DF90CF90BF90AF907D
:105970009F908F907F906F905F904F903F902F906F
:10598000089590ED980F9A3060F09FEB980F963045
:1059900010F4875308959FE9980F963020F48755A7
:1059A0000895892F089580E008958091790D909150
:1059B000780D891769F09F5F903508F090E0E92F26
:1059C000F0E0E85DF24F80819093780D90E00895CB
:1059D0008FEF9FEF08958091790DE091780D8E17EC
:1059E00051F0EF5FE03508F0E0E0F0E0E85DF24F05
:1059F000808190E008958FEF9FEF08955091790D89
:105A00004091780D852F90E0242F30E0541710F44A
:105A1000805B9F4F821B930B0895E0919F0CF09148
:105A2000A00C309709F019949091790D9F5F9035F3
:105A300008F090E02091780D291739F0E92FF0E077
:105A4000E85DF24F80839093790D08959B01AC013E
:105A5000213668E136074105510530F41092730094
:105A60001092200181E828C0DA01C90173E0B695DF
:105A7000A795979587957A95D1F7813668E196072E
:105A8000A105B10550F4109273001092200122E894
:105A9000209321019C01AD0111C0232F342F452FEC
:105AA0005527213688E1380741055105C0F5109288
:105AB00073001092200184E8809321013093820DBD
:105AC0002093810DA5E2B0E00E94D98ADC01CB01D0
:105AD00022E0B695A795979587952A95D1F790934B
