:100000000C9427040C94679D0C94929D0C94BD9DB8
:100010000C94E89D0C94139E0C943E9E0C94699E47
:100020000C94949E0C9458040C9458040C9458040A
:100030000C9458040C9458040C9458040C945804D0
:100040000C9458040C9458040C9458040C945804C0
:100050000C9458040C9458040C9458040C940F9F5E
:100060000C9458040C94439A0C94799A0C94580468
:100070000C9458040C9458040C9458040C94580490
:100080000C9458040C9458040C9458040C94580480
:100090000C948B480C94B5480C9458040C94580458
:1000A0000C9458040C9458040C9458040C94580460
:1000B0000C9458040C9458040C9478470C94D7462C
:1000C0000C9427480C9458040C9458040C94FE4843
:1000D0000C9428490C9458040C94DA9A0C94109BB4
:1000E0000C9458040C94F0940C9443A30C94578DE6
:1000F0000C94408B0C94D0A20C940B9D0C942FA3C9
:100100000C9422460C943FA00C945D4D0C94DBA201
:100110000C9431A00C9426A30C9445A00C94E945B2
:100120000C94F1980C9452490C94D6880C94A49990
:100130000C94EFA20C94B6A20C9461950C9429A394
:100140000C94719B0C948A8F0C94EC9C0C94928B65
:100150000C9459950C94449B0C94D3920C942C9D24
:100160000C94E7A20C94F6A20C94D7A20C946F9571
:100170000C9440A30C94C34D0C9400290C944D9DF9
:100180000C9435950C94AFA20C9412460C94988A5A
:100190000C9484990C941F9D0C94419D0C945BA02D
:1001A0000C94F68D0C94414A0C94394A0C94058BAE
:1001B0000C94B9A20C9449A00C947B910C94FD98DA
:1001C0000C9476470C94228B0C9465A00C941AA383
:1001D0000C94EBA20C94584B0C94E1A20C94AD9AA5
:1001E0000C942D950C94A39A0C94139D0C947393DA
:1001F0000C945D930C943CA30C9461A00C9432A3DA
:100200000C94DB8E0C94C94D0C9463260C941F99AE
:100210000C9435A30C9453A00C946CA00C94CD5E5C
:100220000C94CC880C94DEA20C9417A30C944DA0D3
:100230000C9435A00C94A64A0C94D4A20C94D888A3
:100240000C9423A30C948F930C942DA00C943BA09E
:100250000C9407280C94E4A20C944B950C946D8B91
:100260000C942E990C9438A30C94C88C0C94459340
:100270000C941D930C9443950C94B3A20C9490A2EF
:100280000C94CF8A0C94FF450C945A9D0C942CA38B
:100290000C94DF480C9420A30C9419950C9457A04F
:1002A0000C9469A00C9416930C943A9B0C94F3A2B2
:1002B0000C9419900C949D540C9427A00C941DA39D
:1002C0000C94D1460C946DA00C94F79E0C940D8D5B
:1002D0000C94668C0C940B996364696E6F707375E3
:1002E00078585B004E414E494E495459494E46CDCF
:1002F000CCCC3D0AD7233C17B7D13877CC2B3295DD
:1003000095E6241FB14F0A000020410000C84200BA
:10031000401C4620BCBE4CCA1B0E5AAEC59D743D47
:100320003D3D204B4559205354524F4B45203D3DB8
:100330003D004042474250552C436F757273652C07
:10034000004042474250552C547261636B2C466109
:100350006C7365004042474250552C547261636B88
:100360002C54727565004042474250552C56616EC0
:10037000652C46616C7365004042474250552C56CF
:10038000616E652C547275650052656A65637420F0
:100390006D7973656C662050474E3A004042474283
:1003A00050552C547261636B2C46616C7365004030
:1003B00042474250552C547261636B2C54727565E0
:1003C000004042474250552C56616E652C46616C88
:1003D0007365004042474250552C56616E652C545F
:1003E00072756500244E474250552A3445004E4DE3
:1003F00045415F5041525345525F4E4F54434F4D1C
:10040000504C4554452C206E6F7420636F6D706C9A
:10041000657465207E7E00244E474250552A34453F
:10042000004E4D45415F5041525345525F43484550
:10043000434B53554D4552522C204552524F52205A
:100440002121000900095472616E736C6174655357
:10045000656174616C6B417570696C6F74436F6D2D
:100460006D616E64546F4E454D41323030302829F5
:100470003A200020556E6B6E6F776E0020506F77BC
:1004800065724F6E002045787465726E616C002055
:1004900042726F776E6F7574002057617463686481
:1004A0006F67004661696C004F70656E004042479F
:1004B0004250552C43414E2C004042474250552C4F
:1004C000424F4F5420566572002066696E652E00BB
:1004D0002C2048656C6C6F2C204920616D200040F9
:1004E00042474250552C5665720040424742505593
:1004F0002C4D4F422C004042474250552C537465BE
:1005000065722C004042474250552C436F75727300
:10051000652C004042474250552C4175746F2C4663
:10052000616C7365004042474250552C4175746FB1
:100530002C5374656572004042474250552C4175FA
:10054000746F2C54727565009000A49000A3002075
:10055000446174613A00204C656E3A002044657332
:10056000743A0020536F757263653A002050474E0D
:100570003A005072693A00203A2000002C0053746F
:10058000617274206164647265737320636C616965
:100590006D20666F72206465766963652000207344
:1005A000656E64206661696C6564002F002C2066AE
:1005B00072616D653A0050474E20002073656E648D
:1005C000206661696C65640050474E200043414ECF
:1005D00020646576696365206661696C6564207472
:1005E0006F206F70656E0043414E206465766963CD
:1005F000652072656164790000004E4D45413230DE
:100600003030206C6962726172792C206874747069
:10061000733A2F2F6769746875622E636F6D2F743C
:10062000746C617070616C61696E656E2F4E4D45C2
:1006300041323030300035089A0241726475696E7B
:100640006F204E326B2D3E50430000000000000032
:100650000000000000000000000000312E302E30AD
:100660002E3000000000000000000000000000002C
:10067000000000000000000000000000312E302EBD
:10068000300000000000000000000000000000003A
:1006900000000000000000000000000000303030CA
:1006A0003030303031000000000000000000000059
:1006B0000000000000000000000000000000000139
:1006C00000E8000000EA000000EB000000EC000081
:1006D00000EE0000D8FE000000ED01000000000068
:1006E00000E8000000EA000000EB000000EC000061
:1006F00000EE000000ED010000EE010011F001002D
:1007000014F0010016F001000000000000000B0CC6
:10071000030A0D0E0F090804050200000000000086
:1007200000000000000000000000000000000000C9
:100730000000000000000000131211000000000083
:1007400000000000000000000000000000000000A9
:100750000000000000000000000000000000000099
:1007600000000102102020080810204010204080C6
:100770000201020108040201010204081020408065
:1007800080402010080402018004020180402010F3
:10079000080402010804020101020408102040803C
:1007A00001020408102040800440800480081010DA
:1007B00020400408102040800505050507050808AD
:1007C0000808020202020A0A0808040404040101DB
:1007D00001010101010103030303030303030407F0
:1007E00007070C0C0C0C0C0C0C0C02020202060687
:1007F0000606060606060B0B0B0B0B0B0B0B050573
:1008000005080807070404040A0A0A0A0A0A00007D
:100810002200250028002B002E00310034000201A8
:100820000000050108010B01000021002400270041
:100830002A002D00300033000101000004010701EF
:100840000A016326DF485249AD9A449B07281124C8
:100850001FBECFEFD1E2DEBFCDBF00E00CBF19E07D
:10086000A0E0B2E0E4E1F9E601E00BBF02C00790CE
:100870000D92A030B107D9F720E1A0E0B9E001C0A6
:100880001D92A03CB207E1F714E0C6E2D4E000E01C
:1008900006C021970109802FFE010E94B8A7C1322E
:1008A000D10780E00807A9F70E94FA9E0C9478B45B
:1008B0000C9400000F931F93CF93DF93CDB7DEB757
:1008C000C853D1400FB6F894DEBF0FBECDBF8C0128
:1008D000CE0101960E941D38CE0101960E94A632DB
:1008E0000E94240FF801E159FE4F80819181019708
:1008F00097FD0EC091838083C85CDE4F0FB6F894DD
:10090000DEBF0FBECDBFDF91CF911F910F91089534
:1009100011821082F1CFCF92DF92EF92FF92CF93AC
:10092000DF93EC016A017B012FE632E143E85AEBE9
:10093000CB01B6010E940BAA18161CF520E030E886
:100940004BE355E4C701B6010E9458A887FF19C0C0
:10095000C882D982EA82FB82CB59DE4F8881998195
:1009600006968730910554F49983888381E0DF915E
:10097000CF91FF90EF90DF90CF90089586E090E0C8
:10098000F3CF80E0F4CF0F931F93CF93DF93CDB7D6
:10099000DEB7C853D1400FB6F894DEBF0FBECDBF4F
:1009A0008C01CE0101960E948C320B591E4FF8012A
:1009B0008081918118161906D4F44091260950912E
:1009C00027096091280970912909CE0101960E949A
:1009D000DB3BCE0101960E94A6320E94240FF80153
:1009E00080819181019797FD0EC091838083C85CBF
:1009F000DE4F0FB6F894DEBF0FBECDBFDF91CF91B3
:100A00001F910F91089511821082F1CFCF92DF9242
:100A1000EF92FF92CF93DF93EC016A017B0120E01C
:100A200030E0A901CB01B6010E940BAA87FD23C0CB
:100A30002DEC3CE044EB53E4C701B6010E9458A8FA
:100A400087FF19C0C88AD98AEA8AFB8AC359DE4F50
:100A50008881998104968530910554F4998388831F
:100A600081E0DF91CF91FF90EF90DF90CF900895DC
:100A700084E090E0F3CF80E0F4CFAF92BF92CF92CA
:100A8000DF92EF92FF920F931F93CF93DF93CDB737
:100A9000DEB7C853D1400FB6F894DEBF0FBECDBF4E
:100AA0005C01CE0101960E948C32650183E9C81A6F
:100AB0008EEFD80AF601808191811816190674F517
:100AC0007501F5E9EF1AFEEFFF0AF70180819181C8
:100AD000181619061CF5F501048515852685378538
:100AE0004089518962897389CE0101960E944837F5
:100AF000CE0101960E94A6320E94240FF601808149
:100B00009181019797FD1CC091838083F7018081BB
:100B10009181019797FD17C091838083C85CDE4F58
:100B20000FB6F894DEBF0FBECDBFDF91CF911F91FE
:100B30000F91FF90EF90DF90CF90BF90AF9008950E
:100B400011821082E3CF11821082E8CFAF92BF9260
:100B5000CF92DF92EF92FF920F931F93CF93DF9389
:100B6000CDB7DEB7C853D1400FB6F894DEBF0FBE85
:100B7000CDBF5C01CE0101960E948C32650183E9F4
:100B8000C81A8EEFD80AF6018081918118161906CD
:100B900074F57501F5E9EF1AFEEFFF0AF7018081A0
:100BA0009181181619061CF5F50104851585268511
:100BB00037854089518962897389CE0101960E94E7
:100BC0003536CE0101960E94A6320E94240FF6010E
:100BD00080819181019797FD1CC091838083F701EB
:100BE00080819181019797FD17C091838083C85CB4
:100BF000DE4F0FB6F894DEBF0FBECDBFDF91CF91B1
:100C00001F910F91FF90EF90DF90CF90BF90AF902A
:100C1000089511821082E3CF11821082E8CFCF9223
:100C2000DF92EF92FF92CF93DF93EC016A017B0199
:100C300020E030E0A901CB01B6010E940BAA87FD9C
:100C400023C020E030E040EA52E4C701B6010E9430
:100C500058A887FF19C0CC86DD86EE86FF86C55969
:100C6000DE4F8881998104968530910554F49983EB
:100C7000888381E0DF91CF91FF90EF90DF90CF905C
:100C8000089584E090E0F3CF80E0F4CF4F925F923C
:100C90006F927F928F929F92AF92BF92CF92DF928C
:100CA000EF92FF920F931F93CF93DF9300D000D06A
:100CB0001F921F92CDB7DEB74A015B01680179012F
:100CC0002A013B01E89477F8C301B2010E94CFA842
:100CD00069837A838B839C8329813A81B901330F9D
:100CE000880B990B0E940DA99B01AC01C301B201B5
:100CF0000E94EBA720E030E040E752E40E9410AAF7
:100D00002B013C010E94CFA86D837E838F8398873F
:100D10002D813E81B901330F880B990B0E940DA9DB
:100D20009B01AC01C301B2010E94EBA720E030E0BF
:100D300040E752E40E9410AA0E94CFA82B0120E0B5
:100D400030E0A901C501B4010E9458A887FD85C003
:100D50008EE429813A8130933F0920933E092D8109
:100D60003E813093410920934009509243094092BB
:100D700042098093440926013701E89477F8C301BA
:100D8000B2010E94CFA84B01072E000C880B990BD3
:100D90000E940DA99B01AC01C301B2010E94EBA707
:100DA00020E030E040E752E40E9410AA2B013C0111
:100DB0000E94CFA869837A838B839C8329813A819F
:100DC000B901330F880B990B0E940DA99B01AC014F
:100DD000C301B2010E94EBA720E030E040E752E4FB
:100DE0000E9410AA0E94CFA82B0120E030E0A901A8
:100DF000C701B6010E9458A887FD31C085E49092D2
:100E00004A098092490929813A8130934C092093FB
:100E10004B0950924E0940924D0980934F0986E04C
:100E200090E09093960A8093950A81E028960FB6F9
:100E3000F894DEBF0FBECDBFDF91CF911F910F9110
:100E4000FF90EF90DF90CF90BF90AF909F908F90EA
:100E50007F906F905F904F90089583E57ACF87E5FC
:100E6000CECFFC01E159FE4F2081318112161306CD
:100E700014F40C945A040895CF92DF92EF92FF92EB
:100E8000CF93DF93EC016A017B0120E030E0A90100
:100E9000CB01B6010E940BAA87FD23C02DEC3CE0DC
:100EA00044EB53E4C701B6010E9458A887FF19C05C
:100EB000CAA6DBA6ECA6FDA6CF58DE4F8881998195
:100EC00002968330910554F49983888381E0DF9101
:100ED000CF91FF90EF90DF90CF90089582E090E067
:100EE000F3CF80E0F4CFBF92CF92DF92EF92FF92E8
:100EF0000F931F93CF93DF93CDB7DEB7C853D14085
:100F00000FB6F894DEBF0FBECDBF6C01B62ECE017A
:100F100001960E948C3276018FE8E81A8EEFF80A6B
:100F2000F701808191811816190644F5F6010085B4
:100F300011852285338542A553A564A575A5CE01EB
:100F40000196BB2061F10E94C93CCE0101960E942E
:100F5000A6320E94240FBB2049F0CE0101960E94C8
:100F6000A632BC018FE090E10E94D19BF701808105
:100F70009181019797FD16C091838083C85CDE4FF5
:100F80000FB6F894DEBF0FBECDBFDF91CF911F919A
:100F90000F91FF90EF90DF90CF90BF9008950E9447
:100FA000653CD3CF11821082E9CF60E00C947307C7
:100FB000CF92DF92FF920F931F93CF93DF93CDB722
:100FC000DEB7C853D1400FB6F894DEBF0FBECDBF19
:100FD0006C01F62ECE0101960E948C3286010F58CC
:100FE0001E4FF801808191811816190624F5F6012B
:100FF00042A553A564A575A5CE010196FF2051F128
:101000000E94683DCE0101960E94A6320E94240FE4
:10101000FF2049F0CE0101960E94A632BC018FE06C
:1010200090E10E94D19BF80180819181019797FD09
:1010300014C091838083C85CDE4F0FB6F894DEBF86
:101040000FBECDBFDF91CF911F910F91FF90DF9029
:10105000CF9008950E942D3DD5CF11821082EBCF05
:1010600060E00C94D807DF92EF92FF920F931F93EA
:10107000CF93DF93CDB7DEB7C853D1400FB6F89406
:10108000DEBF0FBECDBF7C01D62ECE0101960E94E1
:101090008C3287010F581E4FF801808191811816FC
:1010A00019066CF5F70160857185828593850E942C
:1010B000CFA8CB01F70142A553A564A575A59C0156
:1010C000CE010196DD2051F10E94EA3DCE0101964C
:1010D0000E94A6320E94240FDD2049F0CE01019625
:1010E0000E94A632BC018FE090E10E94D19BF801E2
:1010F00080819181019797FD14C091838083C85CA2
:10110000DE4F0FB6F894DEBF0FBECDBFDF91CF919B
:101110001F910F91FF90EF90DF9008950E94A33DE3
:10112000D5CF11821082EBCF60E00C943308CF92C0
:10113000DF92EF92FF92CF93DF93EC016A017B0184
:10114000CB01BA019F772DEC3CE044EB53E40E94C5
:1011500058A887FF19C0CEA6DFA6E8AAF9AACB58DF
:10116000DE4F8881998106968730910554F49983E2
:10117000888381E0DF91CF91FF90EF90DF90CF9057
:10118000089586E090E0F3CF80E0F4CFCF92DF9235
:10119000EF92FF92CF93DF93EC016A017B012CEA7F
:1011A00035EC47E257EBCB01B6010E940BAA1816AB
:1011B0001CF520E030E048EC52E4C701B6010E9483
:1011C00058A887FF19C0CAAADBAAECAAFDAACD5865
:1011D000DE4F8881998106968730910554F4998372
:1011E000888381E0DF91CF91FF90EF90DF90CF90E7
:1011F000089586E090E0F3CF80E0F4CF6F927F9285
:101200008F929F92AF92BF92CF92DF92EF92FF9216
:101210000F931F93CF93DF93CDB7DEB7C853D14061
:101220000FB6F894DEBF0FBECDBF3C01CE010196D4
:101230000E948C3243018BE8881A8EEF980AF401E1
:10124000808191811816190694F55301FDE8AF1AB3
:10125000FEEFBF0AF50180819181181619063CF551
:10126000F301C2A8D3A8E4A8F5A8008511852285BA
:10127000338546A557A560A971A9CE0101960E94A4
:101280009536CE0101960E94A6320E94240FF401E9
:1012900080819181019797FD20C091838083F50122
:1012A00080819181019797FD1BC091838083C85CE9
:1012B000DE4F0FB6F894DEBF0FBECDBFDF91CF91EA
:1012C0001F910F91FF90EF90DF90CF90BF90AF9064
:1012D0009F908F907F906F90089511821082DFCF42
:1012E00011821082E4CF8F929F92AF92BF92CF92E1
:1012F000DF92EF92FF920F931F93CF93DF93CDB7BF
:10130000DEB7CC55D1400FB6F894DEBF0FBECDBFCF
:101310008C010D581E4FF801208131814C01F5E8F8
:101320008F1AFEEF9F0AF4014081518114161506B1
:101330000CF074C05C01F3E8AF1AFEEFBF0AF501D0
:1013400040815181141615060CF068C01216130660
:101350000CF04AC06C01FBE8CF1AFEEFDF0AF60181
:1013600020813181121613060CF05BC07C01F1E97B
:10137000EF1AFEEFFF0AF7012081318112161306E2
:101380000CF04FC0CE0101960E941B3BCE0101968E
:101390000E94A6320E94240FF4018081918101975E
:1013A00097FD36C091838083F501808191810197FB
:1013B00097FD31C091838083F801808191810197ED
:1013C00097FDADC091838083F60180819181019763
:1013D00097FDA8C091838083F70180819181019757
:1013E00097FDA3C091838083C45ADE4F0FB6F89453
:1013F000DEBF0FBECDBFDF91CF911F910F91FF9048
:10140000EF90DF90CF90BF90AF909F908F90089516
:1014100011821082C9CF11821082CECF121613060C
:101420001CF76C01FBE8CF1AFEEFDF0AF601208102
:10143000318112161306C4F67C01F1E9EF1AFEEFB2
:10144000FF0AF70180819181181619066CF6CE010A
:1014500001960E948C32C75CDE4F19821882C953F4
:10146000D140C55CDE4F19821882CB53D140C35C9A
:10147000DE4F19821882CD53D140C15CDE4F1982F4
:101480001882CF53D140CF5BDE4F188219821A8267
:101490001B82C154D140CB5BDE4F188219821A8265
:1014A0001B82C554D140C75BDE4F188219821A8255
:1014B0001B82C954D140C35BDE4F188219821A8245
:1014C0001B82CD54D14084E5CF5ADE4F8883C1556D
:1014D000D140CE5ADE4F19821882C255D140CC5A23
:1014E000DE4F19821882C455D140CA5ADE4F198284
:1014F0001882C655D140C85ADE4F188219821A8206
:101500001B82C855D140C45ADE4F1882CC55D140F9
:10151000CE0101960E94A6320E94240F4DCF118267
:10152000108252CF1182108257CF118210825CCF6D
:101530009B01275A3F4F233B310590F4FC0177ABC9
:1015400066ABE758FE4F8081918106968730910502
:1015500024F49183808381E0089586E090E0F9CFC0
:1015600080E00895EF92FF920F931F93CF93DF9344
:10157000CDB7DEB7C853D1400FB6F894DEBF0FBE6B
:10158000CDBF7C01CE0101960E948C3287010758A5
:101590001E4FF8018081918118161906ACF4F701ED
:1015A00066A977A9CE0101960E94313ECE0101962F
:1015B0000E94A6320E94240FF80180819181019738
:1015C00097FD10C091838083C85CDE4F0FB6F894FE
:1015D000DEBF0FBECDBFDF91CF911F910F91FF9066
:1015E000EF90089511821082EFCF0C94B20ACF933E
:1015F000DF93EC010E94C304CE010E94A605CE0138
:101600000E943107CE010E94D507CE010E9430080A
:10161000CE010E949408CE010E947309CE010E945F
:10162000B20ACE010E94FE08CE01DF91CF910C9448
:101630003D052F923F924F925F926F927F928F92D1
:101640009F92AF92BF92CF92DF92EF92FF920F9351
:101650001F93CF93DF93CDB7DEB72C970FB6F894D7
:10166000DEBF0FBECDBF98878F83FC018481282FFA
:1016700030E03E832D83A5808681BA2CA82EB5014B
:1016800090E080E00E940BA920E030E04AE754E4BB
:101690000E945DA80E94CFA86B01C50168EE73E0AF
:1016A0000E944FA71C01EF81F885F381F983F4FDB7
:1016B00089C12EE42C83B101032C000C880B990BFB
:1016C0000E940DA920E030E04AE754E40E945DA8A2
:1016D0002B013C01B6010D2C000C880B990B0E94CC
:1016E0000DA99B01AC01C301B2010E94ECA720E04F
:1016F00030E040E752E40E945DA82B013C01ED81FF
:10170000FE81BF01FF0F880B990B0E940DA99B0161
:10171000AC01C301B2010E94ECA72B013C019F77F1
:101720002FE632E143E85AE30E9458A887FD31C111
:101730002091950A3091960A3B832A83232B09F442
:101740004AC06091420970914309072E000C880B32
:10175000990B0E940DA920E030E04AE754E40E9472
:101760005DA84B015C016091400970914109072E11
:10177000000C880B990B0E940DA99B01AC01C501BF
:10178000B4010E94ECA720E030E040E752E40E9460
:101790005DA84B015C0160913E0970913F09072EE5
:1017A000000C880B990B0E940DA99B01AC01C5018F
:1017B000B4010E94ECA79B01AC01C301B2010E94DD
:1017C000EBA79F7720E030E040E05FE30E940BAAA8
:1017D00018160CF4DEC0EF81F8858781082F10E021
:1017E000908581859C013C872B87B90190E080E042
:1017F0000E940BA920E030E04AE754E40E945DA873
:101800000E94CFA86F83788789879A878B859C856C
:1018100068EE73E00E944FA79C878B87398135FD66
:10182000D4C087E58983EB85FC85BF01FF0F880B5A
:10183000990B0E940DA920E030E04AE754E40E9491
:101840005DA84B015C012F813885B901330F880BEE
:10185000990B0E940DA99B01AC01C501B4010E9426
:10186000ECA720E030E040E752E40E945DA84B0185
:101870005C01B801012E000C880B990B0E940DA988
:101880009B01AC01C501B4010E94ECA74B015C01B6
:101890009F772FE632E143E85AE30E9458A887FD7C
:1018A00078C08A819B81892B09F449C060914D09D8
:1018B00070914E09072E000C880B990B0E940DA900
:1018C00020E030E04AE754E40E945DA82B013C018F
:1018D00060914B0970914C09072E000C880B990BF5
:1018E0000E940DA99B01AC01C301B2010E94ECA7AB
:1018F00020E030E040E752E40E945DA82B013C016B
:101900006091490970914A09072E000C880B990BC8
:101910000E940DA99B01AC01C301B2010E94ECA77A
:101920009B01AC01C501B4010E94EBA79F7720E0A9
:1019300030E040E05FE30E940BAA181654F1ED81FD
:10194000FE81F0933F09E0933E09D0924109C09295
:1019500040093092430920924209FC81F0934409E6
:1019600010934A09009349092F81388530934C0917
:1019700020934B098B859C8590934E0980934D094C
:10198000998190934F0986E090E09093960A809316
:10199000950A2C960FB6F894DEBF0FBECDBFDF912F
:1019A000CF911F910F91FF90EF90DF90CF90BF905C
:1019B000AF909F908F907F906F905F904F903F90EF
:1019C0002F90089533E53C8376CE95E499832BCF11
:1019D000CF93DF93EC0161E088810E9470A01B86A9
:1019E0001A861C861D861E861F8660E08881DF9110
:1019F000CF910C94ACA0CF92DF92EF92FF920F9315
:101A00001F93CF93DF93EC010E94599F2A853B855A
:101A10002130310529F50C851D852E853F856B010B
:101A20007C01C01AD10AE20AF30A0A811B812C81C7
:101A30003D81C016D106E206F30688F11B861A86A0
:101A40006C877D878E879F8760E08881DF91CF914B
:101A50001F910F91FF90EF90DF90CF900C94ACA06E
:101A6000232BE9F40C851D852E853F856B017C01B8
:101A7000C01AD10AE20AF30A0E811F81288539852E
:101A8000C016D106E206F30650F021E030E03B87B5
:101A90002A876C877D878E879F8761E0D6CFDF910D
:101AA000CF911F910F91FF90EF90DF90CF9008950D
:101AB0000F931F93CF93DF93CDB7DEB7CB54D140B5
:101AC0000FB6F894DEBF0FBECDBF8EE39CE00E9440
:101AD000FB0C80911009909111098A30910528F42E
:101AE0000196909311098093100980EE9BE00E946B
:101AF000DD458C0180EE9BE00E94D345B8010E9439
:101B00000145FC0110810E94FB44412FBC01CE0124
:101B100001960E94994160E772E082E79FE00E948F
:101B2000D19BCE0101960E94A632BC0182E79FE0C4
:101B30000E94F69BC55BDE4F0FB6F894DEBF0FBE6A
:101B4000CDBFDF91CF911F910F910895FC01DB0173
:101B50008081843211F0813279F493818C919813D1
:101B60000BC0948111968C911197981305C081E058
:101B7000258112969C91291380E00895FC01DB01D8
:101B80008081843211F08132D9F491818C91981343
:101B900017C0928111968C911197981311C093815F
:101BA00012968C91129798130BC0948113968C9176
:101BB0001397981305C081E0258114969C912913F1
:101BC00080E008954F925F926F927F928F929F92E2
:101BD000AF92BF92CF92DF92EF92FF920F931F933B
:101BE000CF93DF93CDB7DEB7C054D1090FB6F894C9
:101BF000DEBF0FBECDBF6B017C0129013A01809190
:101C000017098F93809116098F931F930F9320E0EC
:101C100034E244E759E4C301B2010E9410AA0E94D1
:101C2000CFA820E4822E22E4922E2FE0A22EB12C07
:101C3000A50194010E9499A79F938F937F936F931F
:101C4000C301B2010E94CFA87F936F9320E034E2DA
:101C500044E759E4C701B6010E9410AA0E94CFA828
:101C6000A50194010E9499A79F938F937F936F93EF
:101C7000C701B6010E94CFA87F936F9389E792E0D6
:101C80009F938F938E010F5F1F4F1F930F930E949F
:101C9000E5ACB80182E79FE00E94F69B0FB6F8948E
:101CA000DEBF0FBECDBFC05CDF4F0FB6F894DEBF06
:101CB0000FBECDBFDF91CF911F910F91FF90EF909D
:101CC000DF90CF90BF90AF909F908F907F906F905C
:101CD0005F904F9008950F931F93CF93DF93CDB7ED
:101CE000DEB7C054D1090FB6F894DEBF0FBECDBF2A
:101CF0009F938F938CE992E09F938F938E010F5F58
:101D00001F4F1F930F930E94E5ACB80182E79FE03D
:101D10000E94F69B0F900F900F900F900F900F90D6
:101D2000C05CDF4F0FB6F894DEBF0FBECDBFDF91B2
:101D3000CF911F910F910895CF93DF9320918C0C39
:101D4000211110C0EC0164E075E082E79FE00E9481
:101D5000AD9B4AE050E0BE0182E79FE0DF91CF916A
:101D60000C94A89CDF91CF910895CF93DF9320919D
:101D70008C0C211110C0EC0166EF74E082E79FE04B
:101D80000E94AD9B4AE050E0BE0182E79FE0DF91F8
:101D9000CF910C94A89CDF91CF9108958F929F9240
:101DA000AF92BF92CF92DF92EF92FF920F931F9369
:101DB000CF93DF93E0918C0CE11139C079014A0196
:101DC0005B01EC016AEE74E082E79FE00E94AD9B4C
:101DD0004AE050E0BE0182E79FE00E94A19C66E3DA
:101DE00077E082E79FE00E94D19B2AE030E0B501D6
:101DF000A40182E79FE00E94BA9C66E377E082E755
:101E00009FE00E94D19B2AE030E0B701A80182E761
:101E10009FE0DF91CF911F910F91FF90EF90DF90A6
:101E2000CF90BF90AF909F908F900C94D49CDF91F7
:101E3000CF911F910F91FF90EF90DF90CF90BF90C7
:101E4000AF909F908F900895CF93DF93EC01FC01AA
:101E500001900020E9F73197E81BF90B8881843263
:101E600021F0813211F0803409F53797F8F0909124
:101E70008C0C91111BC09091720C803449F4992301
:101E8000A9F0BE018FE090E1DF91CF910C94F69B19
:101E9000992329F0BE018FE090E10E94D19BBE0101
:101EA00082E79FE0DF91CF910C94D19BDF91CF919E
:101EB0000895CF93DF9320918C0C211122C0EC0167
:101EC0006FED74E082E79FE00E94AD9B64E77CE0E9
:101ED00082E79FE00E94D19B60ED74E082E79FE083
:101EE0000E94AD9B4AE050E0BE0182E79FE00E9465
:101EF000CE9C69EC74E082E79FE0DF91CF910C9477
:101F0000E49BDF91CF91089580918C0C81110CC0DE
:101F100069EB74E082E79FE00E94AD9B64E77CE0A0
:101F200082E79FE00C94F69B08958F92AF92BF9248
:101F3000CF92EF92FF920F931F93CF931F921F9216
:101F400088248A94AA24AA94BA2CCC24CA949CEA01
:101F5000E92E92E0F92E02EB12E024EC32E044E6A6
:101F600050E065ED72E080911B0C90911C0C0E947A
:101F70004466B12CA12C24E0C22E38EFE32E37E0CA
:101F8000F32E0BE422E849E656EB61E070E0809125
:101F90001B0C90911C0C0E94966446E161E070E07D
:101FA00080911B0C90911C0C0E94FC666EED72E0FF
:101FB00082E79FE00E94F69B60E079E280911B0C33
:101FC00090911C0C0E94006F80911B0C90911C0C36
:101FD0000E94C17AC82F6DEA74E082E79FE00E94F8
:101FE000AD9B0F900F90CC23D1F068EA74E082E7AC
:101FF0009FE00E94E49B60ED72E084E79CE00E9419
:102000008EAC81E08093730C8C2FCF911F910F9138
:10201000FF90EF90CF90BF90AF908F90089563EABC
:1020200074E082E79FE00E94E49B1092730CECCF77
:10203000CF93C62FBC0182E79FE00E94D19B4AE06C
:1020400050E06C2F82E79FE00E94C79CC3FF07C04F
:1020500069E974E082E79FE00E94AD9BC77FC2FF01
:1020600007C06FE874E082E79FE00E94AD9BCB7FE2
:10207000C1FF07C065E874E082E79FE00E94AD9B66
:10208000CD7FC0FF07C06CE774E082E79FE00E944D
:10209000AD9BCE7FCC2331F063E774E082E79FE015
:1020A0000E94AD9B64E175E082E79FE0CF910C94C4
:1020B000F69BCF93DF930FB6F894A89580916000BC
:1020C000886180936000109260000FBE87EF84BF2C
:1020D00088E19EE00FB6F894A895809360000FBE4B
:1020E000909360006CED72E084E79CE00E94ADACE0
:1020F00062E073E084E79CE00E948EAC6FEA72E0DD
:1021000084E79CE00E948EAC61E08DE00E9470A0AC
:1021100061E087E00E9470A061E08DE00E94ACA0C9
:102120008EE49CE00E94E80C8EE39CE00E94E80CA8
:102130008EE29CE00E94E80C8EE19CE00E94E80C9C
:1021400026E040E052EC61E070E082E79FE00E9410
:10215000EB9940EC52E160E070E085E39DE00E9485
:102160009D4945E050E060E070E085E39DE00E941D
:10217000E69C40EC52E160E070E082E59EE00E9467
:102180009D4945E050E060E070E082E59EE00E94FD
:10219000E69C26E040EC52E160E070E08FE090E1E8
:1021A0000E94EB9961EA71E080E090E00E94324683
:1021B00064B784E093E00E941810A8958DE19CE03C
:1021C0000E948E970E94950F80931A0CA895C6E0E6
:1021D000D0E00E94840F64E670E080E090E00E940E
:1021E0008A9F2197B1F7A895A89581E090E09093F8
:1021F000590C8093580C61E080914E0C0E94ACA069
:1022000080912209909123099C012F5F3F4F3093C9
:102210002309209322090E94590F84E190E09093B2
:10222000250980932409DF91CF910895FC01DC01F9
:102230000D900020E9F71197A81BB90B1D97D0F15D
:1022400080818132A9F581818134A1F5828189342F
:1022500089F58381863571F58481843459F58581CA
:102260008D7F8D3439F586818C3221F58781082E5A
:10227000000C990BC0970A97E8F480858C32D1F452
:102280008185082E000C990BC0970A9798F48285D7
:102290008C3281F483858C3231F0082E000C990B3E
:1022A000C0970A9738F4BF0182E79FE00C94F69B31
:1022B0008432C9F308958F929F92AF92BF92CF92CA
:1022C000DF92EF92FF920F931F93CF93DF93EC0176
:1022D0004A015B016901E881F9810190F081E02DFB
:1022E00019958B829C82AD82BE82DA86C986DE0118
:1022F0001B96F801CF01801B910B8E159F0564F092
:10230000FE01EE0DFF1DCF018C1B9D0B8C159D0555
:1023100034F413863196F7CF81918D93EBCFDF9113
:10232000CF911F910F91FF90EF90DF90CF90BF90D2
:10233000AF909F908F900895CF92DF92EF92FF928F
:102340000F931F93CF93DF93CDB7DEB7C95FD1094A
:102350000FB6F894DEBF0FBECDBF6C01F12CE12C9F
:1023600000E010E0980146E06FE0CE0101960E9487
:10237000F9548AE0EFE1F2E0DE01A051BF4F019095
:102380000D928A95E1F7B601DD0C880B990B0E943E
:102390000DA92BED3FE049E450E40E9410AA0E94F1
:1023A000CFA8AB01161617060CF04AC04F5F5F4F5F
:1023B000942F342F32953F702FE0231B842F8F7082
:1023C000843008F043C0845FCA50DF4F9883C65FF3
:1023D000D04090E1299F90011124820F932F911DED
:1023E000C750DF4F8883C95FD0408AE0E82EF12CC8
:1023F0008E0100511F4F2AE030E040E05FEE61E0C7
:1024000070E0CE0101960E945B1150E040E0BE01F9
:102410006F5F7F4F80911B0C90911C0C0E94C372C8
:10242000C750DF4F0FB6F894DEBF0FBECDBFDF91B0
:10243000CF911F910F91FF90EF90DF90CF90089573
:10244000672B09F4B5CF41505109B2CF883010F451
:102450008C5FBACF8C3010F48450B6CF8C50B4CF90
:10246000BF92CF92DF92EF92FF920F931F93CF9381
:10247000DF93CDB7DEB7C75FD1090FB6F894DEBFE3
:102480000FBECDBFB82EC62ED42EF12CE12C00E00D
:1024900010E0980146E06FE0CE0101960E94F954E9
:1024A00088E0E9E2F2E0DE01A051BF4F01900D9219
:1024B0008A95E1F7CB50DF4FB882C55FD040CA5054
:1024C000DF4FC882C65FD040C950DF4FD882C75F98
:1024D000D04088E0E82EF12C8E0100511F4F26E1FC
:1024E00030E040E05FEE61E070E0CE0101960E94D6
:1024F0005B1150E040E0BE016F5F7F4F80911B0C8D
:1025000090911C0C0E94C372C950DF4F0FB6F89413
:10251000DEBF0FBECDBFDF91CF911F910F91FF9016
:10252000EF90DF90CF90BF900895DF92EF92FF92EF
:102530000F931F93CF93DF93CDB7DEB7C75FD1095A
:102540000FB6F894DEBF0FBECDBFD82EF12CE12C14
:1025500000E010E0980146E06FE0CE0101960E9495
:10256000F95488E0E1E3F2E0DE01A051BF4F0190B1
:102570000D928A95E1F7CD50DF4FD882C35FD040EE
:1025800088E0E82EF12C8E0100511F4F28E030E04A
:1025900048E05FEF60E070E0CE0101960E945B11C1
:1025A00050E040E0BE016F5F7F4F80911B0C909127
:1025B0001C0C0E94C372C950DF4F0FB6F894DEBFE7
:1025C0000FBECDBFDF91CF911F910F91FF90EF9084
:1025D000DF90089581E00C94951280E00C949512A0
:1025E00081E090E090936D0C80936C0C4DEF62E075
:1025F00081E40C94301282E090E090936D0C809313
:102600006C0C4EEF61E081E40C94301282E090E0BB
:1026100090936D0C80936C0C4CED63E281E40C9410
:10262000301282E090E090936D0C80936C0C4CEF34
:1026300063E081E40C94301247EF68E081E40C948D
:10264000301249EF66E081E40C94301248EF67E005
:1026500081E40C9430124AEF65E081E40C9430126E
:102660004DED62E281E40C9430124EED61E281E4C2
:102670000C94301283E090E090936D0C80936C0C7E
:102680004EEE61E181EB0C943012CF9390931D09D3
:1026900080931C09BC01990F880B990B0E940DA90E
:1026A000C1E0209118093091190940911A095091FF
:1026B0001B090E940BAA18160CF0C0E0C0930C0274
:1026C00080E0CF91089590E080E00C9445138DED6B
:1026D0009FEF0C94451383E290E00C944513FC01AA
:1026E000DC010D900020E9F71197A81BB90B1A9790
:1026F00008F186818C32F1F481858A32D9F48781A0
:10270000082E000C990BC0974AE0489F9001499F02
:10271000300D11248085082E000C990BC097280FCE
:10272000391FC9018897255031092734310510F424
:102730000C94451380E008950F931F93CF93DF937C
:10274000683071050CF4E6C08B01EC018B81833598
:1027500009F083C06CE073E0CE010E94C3AC892B0A
:1027600031F0DF91CF911F910F910C94FB1262E237
:1027700073E0CE010E94C3AC892B31F0DF91CF9181
:102780001F910F910C94061368E373E0CE010E9431
:10279000C3AC892B31F0DF91CF911F910F910C9435
:1027A00011136EE473E0CE010E94C3AC892B31F0AB
:1027B000DF91CF911F910F910C94F01264E673E0BA
:1027C000CE010E94C3AC892B31F0DF91CF911F91D4
:1027D0000F910C941C136AE773E0CE010E94C3AC06
:1027E000892B31F0DF91CF911F910F910C94211320
:1027F00060E973E0CE010E94C3AC892B31F0DF9118
:10280000CF911F910F910C94261366EA73E0CE01CD
:102810000E94C3AC892B31F0DF91CF911F910F91B2
:102820000C942B136CEB73E0CE010E94C3AC892B8C
:1028300031F0DF91CF911F910F910C94301362ED25
:1028400073E0CE010E94C3AC892B09F463C0DF9111
:10285000CF911F910F910C943513803509F042C030
:1028600068EE73E0CE010E94C3AC892B31F0DF919A
:10287000CF911F910F910C943A136EEF73E0CE013C
:102880000E94C3AC892B31F0DF91CF911F910F9142
:102890000C94631364E174E0CE010E94C3AC892BF5
:1028A00031F0DF91CF911F910F910C9467136AE281
:1028B00074E0CE010E94C3AC892B31F0DF91CF913F
:1028C0001F910F910C946B1360E474E0CE010E9491
:1028D000C3AC892BF9F0CE01DF91CF911F910F91FD
:1028E0000C946F1365E474E082E79FE00E94AD9B57
:1028F0004AE050E0B80182E79FE00E94A19C63E4B7
:1029000074E082E79FE00E94AD9BBE0182E79FE0FA
:102910000E94F69B80E0DF91CF911F910F91089567
:10292000CF93DF9368307105ECF0EC0168E474E05C
:102930000E94C3AC892BB1F46EE574E0CE010E9415
:10294000C3AC892B21F0DF91CF910C94EA1260E89F
:1029500074E0CE010E94C3AC892B21F0DF91CF91AE
:102960000C94ED1280E0DF91CF910895FC01DC0121
:102970000D900020E9F71197A81BB90B189798F054
:102980008081843281F48181833569F48281843548
:1029900051F48381833549F48481853421F481E0C5
:1029A0009581913459F080E009C08035E1F7848148
:1029B0008735C9F781E095819235A9F708950F937E
:1029C0001F93CF93DF93CDB7DEB7C25AD2400FB675
:1029D000F894DEBF0FBECDBF8C01CE0185599E4F4E
:1029E0000E948C3263E974E0C8010E94A60D88231E
:1029F00009F474C0CE0101960E948C32C75CDE4F90
:102A00001882C953D140C65CDE4F1882CA53D140E8
:102A1000C55CDE4F188219821A821B82CB53D140CB
:102A2000C15CDE4F19821882CF53D1408EE4CF5B58
:102A3000DE4F8883C154D140CE5BDE4F1882C25432
:102A4000D140CD5BDE4F1882C354D140CC5BDE4F0A
:102A5000188219821A821B82C454D14084E5C85B53
:102A6000DE4F8883C854D140FE01E75BFE4F1192D0
:102A7000119292E1DF011D929A95E9F7C35ADE4F58
:102A8000188219821A821B82CD55D140CF59DE4F50
:102A90008883C156D140CE59DE4F188219821A82DE
:102AA0001B82C256D140CA59DE4F8883C656D140D8
:102AB000C959DE4F1882C756D140B801CE010196E0
:102AC0000E944B3ECE55DD4F0FB6F894DEBF0FBED1
:102AD000CDBFDF91CF911F910F91089567E974E009
:102AE000C8010E94A60D811108C06BE974E0C801FD
:102AF0000E94A60D882309F465C0CE0101960E94AC
:102B00008C32C75CDE4F19821882C953D140C55C34
:102B1000DE4F19821882CB53D140C35CDE4F19823D
:102B20001882CD53D140C15CDE4F188219821A82BF
:102B30001B82CF53D140CD5BDE4F188219821A829F
:102B40001B82C354D140C95BDE4F188219821A829E
:102B50001B82C754D14084E5C55BDE4F8883CB54CC
:102B6000D140C45BDE4F188219821A821B82CC547A
:102B7000D1408DE4C05BDE4F8883C055D140CF5A31
:102B8000DE4F188219821A821B82C155D1408EE411
:102B9000CB5ADE4F8883C555D140FE01EA5AFE4F1D
:102BA0001192119282E1DF011D928A95E9F7C659CF
:102BB000DE4F1882CA56D140B801CE0101960E945C
:102BC000453480CF6FE974E0C8010E94A60D8823C8
:102BD000D1F1CE0101960E948C32C75CDE4F188283
:102BE00019821A821B82C953D14084E5C35CDE4F2F
:102BF0008883CD53D140C25CDE4F188219821A827D
:102C00001B82CE53D1408DE4CE5BDE4F8883C2540D
:102C1000D140FE01ED5BFE4F1192119282E1DF0186
:102C2000982F1D929A95E9F7FE01E95AFE4F1192ED
:102C30001192DF011D928A95E9F7B801CE01019644
:102C40000E9470333FCF63EA74E0C8010E94A60D72
:102C5000811138CF67EA74E0C8010E94A60D88236D
:102C600009F467C0CE0101960E948C32C75CDE4F2A
:102C700019821882C953D140C55CDE4F198218826F
:102C8000CB53D140C35CDE4F19821882CD53D14063
:102C9000C15CDE4F19821882CF53D140CF5BDE4F2B
:102CA000188219821A821B82C154D140CB5BDE4F3D
:102CB000188219821A821B82C554D140C75BDE4F2D
:102CC000188219821A821B82C954D140C35BDE4F1D
:102CD000188219821A821B82CD54D14084E5CF5AC2
:102CE000DE4F8883C155D140CE5ADE4F19821882FB
:102CF000C255D140CC5ADE4F19821882C455D140FA
:102D0000CA5ADE4F19821882C655D140C85ADE4FC2
:102D1000188219821A821B82C855D140C45ADE4FCC
:102D20001882CC55D140B801CE0101960E941039CD
:102D3000C9CE6BEA74E0C8010E94A60D882309F48D
:102D4000C1CECE0101960E948C32C75CDE4F188244
:102D5000C953D140C65CDE4F1882CA53D140C55C0E
:102D6000DE4F188219821A821B82CB53D140C15C7C
:102D7000DE4F19821882CF53D1408EE4CF5BDE4FF5
:102D80008883C154D140CE5BDE4F1882C254D140FB
:102D9000CD5BDE4F1882C354D140B801CE010196FD
:102DA0000E9488408FCECF92DF92EF92FF920F93D6
:102DB0001F938B019C011D7F0115184E21053105C4
:102DC00009F4E2C08B019C011E7F01154EEE140731
:102DD0002105310509F4D8C0663B4EEF7407810523
:102DE000910509F4D1C06B017C01E894E0F84AE157
:102DF000C4164FEFD406E104F10409F4C5C06F31E5
:102E00004FEF74078105910509F4BEC063364FEF9B
:102E100074078105910509F4B7C065364FEF740753
:102E20008105910509F4B0C06F3F4FEF740781052C
:102E3000910509F4A9C064374FEF74078105910526
:102E400009F4A2C061154EEE740741E084079105B4
:102E500009F49AC0613140EF740741E0840791059D
:102E600009F492C06B017C01E894C1F844E1C416F6
:102E700040EFD40641E0E406F10409F485C0633173
:102E800045EF740741E08407910509F47DC0643182
:102E900048EF740741E08407910509F475C06B3071
:102EA00049EF740741E08407910509F46DC06B0197
:102EB0007C0143E0C41A4AEFD40A41E0E40AF10875
:102EC00042E0C416D104E104F10408F45DC0063008
:102ED0001A4F2140310509F457C06B302AEF7207B1
:102EE00021E08207910509F44FC08B019C01065037
:102EF0001D4F21403109033011052105310508F42A
:102F000043C064364FEF740741E084079105E1F157
:102F100061152FEF720781059105B1F161324FEF15
:102F200074078105910581F1653029EF720721E071
:102F30008207910549F166304FEF740741E084073D
:102F4000910511F16D302FEF720721E08207910595
:102F5000D9F060324FEF740741E084079105A1F08A
:102F60006F7E66567F4F8140910921E06230710586
:102F70008105910508F020E0822F1F910F91FF90AD
:102F8000EF90DF90CF90089521E0F6CF6F342FEFD0
:102F900072078105910509F458C068363FEF730741
:102FA0008105910509F451C061152DEE720721E0EC
:102FB0008207910509F449C0603130EF730731E0B1
:102FC0008307910509F441C0653021EF720721E0C4
:102FD00082079105D1F1633131EF730731E0830747
:102FE000910599F1693121EF720721E0820791057E
:102FF00061F1633035EF730731E08307910529F103
:10300000693028EF720721E082079105F1F0633003
:1030100039EF730731E083079105B9F061302BEF89
:10302000720721E08207910581F021E064363FEFCD
:10303000730731E08307910531F061317E4F8140A4
:10304000910509F020E0822F089521E0FCCFEF9256
:10305000FF920F931F93CF93DF93CDB7DEB7DA952F
:103060000FB6F894DEBF0FBECDBF7C010E94599F02
:10307000AB01BC0100E011E09E012F5F3F4FC70193
:103080000E9430888C01089738F0BE016F5F7F4F37
:1030900082E79FE00E94F69BC801D3950FB6F89493
:1030A000DEBF0FBECDBFDF91CF911F910F91FF907B
:1030B000EF9008954F925F926F927F928F929F92BE
:1030C000AF92BF92CF92DF92EF92FF92CF93DF93B6
:1030D00000D000D01F921F92CDB7DEB72A013B016E
:1030E000BC01990F880B990B0E940DA969837A8303
:1030F0008B839C83A30192010E94EBA76B017C014F
:1031000020E030E0A9010E940BAA460157011816E1
:1031100024F0B7FAB094B7F8B09420E030E048E17A
:1031200051E4C701B6010E9410AA6B017C0120E0A6
:1031300030E04CE052E40E940BAA18160CF442C096
:1031400020E030E04CE052ECC701B6010E9458A8E4
:1031500087FF06C0C12CD12C7CE0E72E72ECF72E45
:1031600080911E0990911F09A0912009B091210919
:103170008D839E83AF83B88720E030E040E05FE33B
:10318000BC01CD010E94ECA7A50194010E940BAAED
:103190001816FCF490E080E028960FB6F894DEBF95
:1031A0000FBECDBFDF91CF91FF90EF90DF90CF901A
:1031B000BF90AF909F908F907F906F905F904F9057
:1031C0000C949C11C12CD12C6CE0E62E62E4F62EFE
:1031D000C7CF2AE939E949E95FE36D817E818F81B3
:1031E00098850E94ECA7A50194010E940BAA1816CD
:1031F0000CF04AC020E030E040EC50E4C701B601DA
:103200000E940BAA18160CF120E030E040EC50ECC4
:10321000C701B6010E9458A8A301920187FD97C07B
:1032200069817A818B819C810E940BAA18169CF47B
:1032300020E030E0A901C701B6010E9458A887FF2D
:103240000AC0C12CD12C760119C0C12CD12C50EC54
:10325000E52E50E4F52EA301920169817A818B81DC
:103260009C810E9458A887FF09C020E030E0A90196
:10327000C701B6010E940BAA18161CF3C701B601BC
:103280000E94CFA8CB0188CF26E636E646EE5FE364
:103290006D817E818F8198850E94ECA7A5019401A4
:1032A0000E940BAA181614F520E030E040E951E422
:1032B000C701B6010E940BAA18168CF020E030E07E
:1032C00040E951ECC701B6010E9458A887FFD6CF4C
:1032D000C12CD12C40E9E42E41ECF42ECFCFC12CEF
:1032E000D12C30E9E32E31E4F32EC8CF2AE939E9B5
:1032F00049E150E46D817E818F8198850E94ECA721
:10330000A50194010E940BAA18160CF4B7CF20E077
:1033100030E0A901C701B6010E940BAA181684F07B
:1033200020E030E0A901C701B6010E9458A887FF3C
:10333000A5CFC12CD12C2CE0E22E22ECF22E9ECF78
:10334000C12CD12C9CE0E92E92E4F92E97CF698113
:103350007A818B819C810E940BAA18160CF471CF84
:10336000C12CD12C80ECE82EFE2C88CFCF92DF929E
:10337000EF92FF920F931F93CF93DF9300D000D073
:1033800000D01F921F92CDB7DEB78E010F5F1F4F87
:103390009E01275F3F4FAE01455F5F4FBE016B5FF0
:1033A0007F4F0E94764E882309F489C0CD80DE804D
:1033B000EF80F88428E23BE64EE65EECC701B601FA
:1033C0000E9458A8882381F020E030E044E353E4D1
:1033D000C701B6010E9410AA2BED3FE049E450E47A
:1033E0000E945DA86B017C01C0921809D092190956
:1033F000E0921A09F0921B09C701B6010E94CFA8FA
:1034000086E299E00E94980A882309F458C08091C6
:103410006A0C90916B0C039709F051C080916C0C71
:1034200090916D0C039709F04AC040911809509192
:10343000190960911A0970911B0920910C02809161
:103440001C0990911D090E945A1820911809309169
:10345000190940911A0950911B0960910609709150
:10346000070980910809909109090E94EBA76B0157
:103470007C0120E030E040E05FE30E940BAA1816D8
:1034800054F020E030E040E05FEBC701B6010E945D
:1034900058A887FF14C086E299E00E94B20A809182
:1034A000180990911909A0911A09B0911B098093EC
:1034B000060990930709A0930809B09309092B9670
:1034C0000FB6F894DEBF0FBECDBFDF91CF911F9135
:1034D0000F91FF90EF90DF90CF900895CF92DF9201
:1034E000EF92FF920F931F93CF93DF9300D000D002
:1034F00000D0CDB7DEB719861E821D8219821A82CE
:103500001B821C828E010F5F1F4F9E012B5F3F4F5E
:10351000AE01495F5F4FBE01675F7F4F0E94B54FAD
:103520008823F1F1C980DA80EB80FC8028E23BE659
:103530004EE65EECC701B6010E9458A8882381F1CF
:1035400020E030E044E353E4C701B6010E9410AA32
:103550002BED3FE049E450E40E945DA86B017C0143
:1035600020E030E044EB52EC0E940BAA87FD18C02B
:1035700020E030E044EB52E4C701B6010E9458A8B5
:1035800087FF0EC0C0922E09D0922F09E092300919
:10359000F09231098FEF9FE790939E0A80939D0AE6
:1035A00029960FB6F894DEBF0FBECDBFDF91CF9145
:1035B0001F910F91FF90EF90DF90CF900895CF92E1
:1035C000DF92EF92FF920F931F93CF93DF93CDB7CC
:1035D000DEB72F970FB6F894DEBF0FBECDBF1F86A4
:1035E00019861A861B861C861D821E821F821886DB
:1035F00019821A821B821C829E01235F3F4F790130
:103600008E010F5F1F4F28503109AE01475F5F4F9A
:10361000BE01615F7F4F0E94E34E882321F1C98480
:10362000DA84EB84FC8428E23BE64EE65EECC701DC
:10363000B6010E9458A8882381F020E030E044E3DE
:1036400053E4C701B6010E9410AA2BED3FE049E404
:1036500050E40E945DA86B017C01B701A60186E2DF
:1036600099E00E943C072F960FB6F894DEBF0FBE7C
:10367000CDBFDF91CF911F910F91FF90EF90DF9021
:10368000CF900895CF92DF92EF92FF92CF93DF9386
:10369000EC0189859A85089709F05AC08B858B3390
:1036A00009F056C08C858F3909F052C08D858F3F47
:1036B00009F04EC08E858F3F09F04AC08F858F3F3D
:1036C00009F046C0698970E090E080E00E940BA993
:1036D00020E030E040E853E40E9410AA6B017C0136
:1036E000688970E090E080E00E940BA99B01AC012A
:1036F000C701B6010E94ECA720E030E044EB53E4A0
:103700000E9410AA29EF3FE049E450E40E945DA81E
:1037100020E030E44CE956E40E945DA820E030E06F
:1037200040E05FE30E94ECA70E94CFA86B0180916C
:103730006A0C90916B0C029791F4C6010E949C0E4A
:103740001092050910920409D0920309C09202094F
:10375000DF91CF91FF90EF90DF90CF90089580910F
:10376000020990910309C816D90639F78091040916
:10377000909105098630910504F70196909305090B
:1037800080930409E1CF8F929F92AF92BF92CF9224
:10379000DF92EF92FF920F931F93CF93DF93CDB7FA
:1037A000DEB72D970FB6F894DEBF0FBECDBF1D86D6
:1037B00019861A861B861C861D821E821F82188609
:1037C0008E010F5F1F4F9E012B5F3F4FAE01475F82
:1037D0005F4FBE01635F7F4F0E941E50882309F434
:1037E00048C08D809E80AF80B884C984DA84EB8421
:1037F000FC8428E23BE64EE65EECC501B4010E9483
:1038000058A88823F1F020E030E0A901C501B401F7
:103810000E9458A88823A9F028E23BE64EE65EEC19
:10382000C701B6010E9458A8882319F1A701960183
:10383000C501B4010E94ECA72FEB3EE04CE95EE32A
:1038400010C028E23BE64EE65EECC701B6010E94DE
:1038500058A8882371F02FEB3EE04CE95EE3C701E6
:10386000B6010E945DA8AB01BC0186E299E00E940E
:103870008B042D960FB6F894DEBF0FBECDBFDF913F
:10388000CF911F910F91FF90EF90DF90CF90BF905D
:10389000AF909F908F900895CF92DF92EF92FF921A
:1038A0000F931F93CF93DF9300D000D000D01F92CF
:1038B0001F92CDB7DEB71B861D821E821F8218861F
:1038C00019821A821B821C828E010F5F1F4F9E017C
:1038D0002B5F3F4FAE01475F5F4FBE01655F7F4F7C
:1038E0000E9491518823B1F1CD80DE80EF80F88471
:1038F00028E23BE64EE65EECC701B6010E9458A8FE
:10390000882381F020E030E044E353E4C701B601AE
:103910000E9410AA2BED3FE049E450E40E945DA80C
:103920006B017C01B701A60186E299E00E9497082D
:10393000882381F021EA32EB43E05FE369817A81F9
:103940008B819C810E945DA8AB01BC0186E299E05D
:103950000E94C6082B960FB6F894DEBF0FBECDBFEF
:10396000DF91CF911F910F91FF90EF90DF90CF905B
:103970000895CF92DF92EF92FF920F931F93CF9310
:10398000DF9300D000D000D01F921F92CDB7DEB7DA
:103990001D821E821F82188619821A821B821C8237
:1039A0008E01075F1F4F9E012F5F3F4FAE014B5FA0
:1039B0005F4FBE01655F7F4F0E942C548823A1F1A9
:1039C00025EE3FEC48EF5FE36D817E818F81988526
:1039D0000E9410AAAB01BC0186E299E00E940F068A
:1039E000C980DA80EB80FC8028E23BE64EE65EECA4
:1039F000C701B6010E9458A8882381F020E030E07A
:103A000044E353E4C701B6010E9410AA2BED3FE046
:103A100049E450E40E945DA86B017C01B701A60156
:103A200086E299E00E9406052B960FB6F894DEBF59
:103A30000FBECDBFDF91CF911F910F91FF90EF90FF
:103A4000DF90CF9008950F931F93CF93DF9300D013
:103A500000D01F921F92CDB7DEB71D821E821F823B
:103A6000188619821A821B821C82AE014F5F5F4F3B
:103A7000BE016B5F7F4F0E94DB50882361F009819C
:103A80001A812B813C814D815E816F81788586E230
:103A900099E00E94460628960FB6F894DEBF0FBE46
:103AA000CDBFDF91CF911F910F9108958F929F927B
:103AB000AF92BF92CF92DF92EF92FF920F931F933C
:103AC000CF93DF93CDB7DEB7AD970FB6F894DEBFD7
:103AD0000FBECDBF1DA61AA619A61D8E1E8E1F8E47
:103AE00018A2198E1A8E1B8E1C8E1D8A1E8A1F8A82
:103AF000188E198A1A8A1B8A1C8A1D861E861F86A2
:103B0000188A19861A861B861C861D821E821F82B1
:103B100018861BA61AA219A219821A821B821C825D
:103B20009E012F5F3F4F3F932F93205E3F4F3F9368
:103B30002F932E5F3F4F3F932F93285F3F4F3F932D
:103B40002F93265231093F932F932C5F3F4F3F9382
:103B50002F932C5F3F4F3F932F93215E3F4F3F9317
:103B60002F932750310949012E5F3F4F59012651AC
:103B7000310969012C5F3F4F79018E01075E1F4FAC
:103B8000285F3F4FAE01475D5F4FBE01635D7F4FD2
:103B90000E94FE510FB6F894DEBF0FBECDBF882342
:103BA00021F1C98CDA8CEB8CFC8C20E034E244E708
:103BB00059ECC701B6010E9458A887FD16C08D8830
:103BC0009E88AF88B88C20E034E244E759ECC50108
:103BD000B4010E9458A887FD08C095018401B7016F
:103BE000A60186E299E00E944606AD960FB6F894CB
:103BF000DEBF0FBECDBFDF91CF911F910F91FF9020
:103C0000EF90DF90CF90BF90AF909F908F900895EE
:103C10002F923F924F925F926F927F928F929F92DC
:103C2000AF92BF92CF92DF92EF92FF920F931F93CA
:103C3000CF93DF9300D000D0CDB7DEB7FC01438037
:103C4000548065807680F4E04F16F9EF5F06F1E06E
:103C50006F06710409F0FBC0160127011E830D8356
:103C60003C832B833A018B016C011A821982BE01BD
:103C70006F5F7F4F0E944055F801808318E2E12E6C
:103C80001BE6F12E0EE61EEC9E012F5F3F4F4AE031
:103C900057ED63E27CE3C6010E94915DF30160830E
:103CA000718382839383BE016F5F7F4FC6010E9441
:103CB0004055282F30E0482F437050E0EB81FC81C5
:103CC00051834083A9015595479555954795437074
:103CD000552791E0452B09F490E0ED81FE8190831A
:103CE00094E0359527959A95E1F72370332791E075
:103CF000232B09F490E0F2019083829586958695B6
:103D0000837090E0F1019183808318E2E12E1BE63D
:103D1000F12E0EE61EEC9E012F5F3F4F47E157EB61
:103D200061ED78E3C6010E94915DF50160837183C6
:103D3000828393834FEF5FEFBE016F5F7F4FC601BA
:103D40000E94B15CF401918380839E012F5F3F4FFD
:103D500047E157EB61ED78E3C6010E94C55CEC8D4D
:103D6000FD8D60837183828393839E012F5F3F4F1C
:103D700047E157EB61ED78E3C6010E94C55CEE8D2B
:103D8000FF8D60837183828393832FEF3FEFA901BF
:103D9000BE016F5F7F4FC6010E944E5DE8A1F9A191
:103DA00060832FEF3FEFA901BE016F5F7F4FC60118
:103DB0000E944E5DEAA1FBA160839E012F5F3F4FF1
:103DC00045E95FEB66ED73E3C6010E94AD5EECA1D1
:103DD000FDA160837183828393839E012F5F3F4F98
:103DE00045E95FEB66ED73E3C6010E94AD5EEEA1AF
:103DF000FFA160837183828393839E012F5F3F4F76
:103E00004AE057ED63E27CE3C6010E94465CE8A508
:103E1000F9A5608371838283938381E026960FB630
:103E2000F894DEBF0FBECDBFDF91CF911F910F91F0
:103E3000FF90EF90DF90CF90BF90AF909F908F90CA
:103E40007F906F905F904F903F902F90089580E00B
:103E5000E5CF8F929F92AF92BF92CF92DF92EF9277
:103E6000FF920F931F93CF93DF93CDB7DEB7A79742
:103E70000FB6F894DEBF0FBECDBF1FA2198E1A8EEB
:103E80001B8E1C8E1EA21DA21D8A1E8A1F8A188EC2
:103E90001E8E1D8E198A1A8A1B8A1C8A1D861E86F2
:103EA0001F86188A1CA21BA219861A861B861C86CE
:103EB0001D821E821F82188619821A821B821C8212
:103EC0009E012F5F3F4F3F932F932C5F3F4F3F93B8
:103ED0002F932C5F3F4F3F932F93265E3F4F3F938F
:103EE0002F932F5F3F4F3F932F93275131093F93DC
:103EF0002F932C5F3F4F3F932F93245F3F4F4901F8
:103F0000285031095901265F3F4F69012A5F3F4F11
:103F100079018E010A5D1F4F24503109AE01475EC1
:103F20005F4FBE01695D7F4F0E94081E0FB6F89477
:103F3000DEBF0FBECDBF882361F02D813E814F8152
:103F4000588569857A858B859C8503E515E00E94F7
:103F5000E20DA7960FB6F894DEBF0FBECDBFDF917E
:103F6000CF911F910F91FF90EF90DF90CF90BF9076
:103F7000AF909F908F900895CF93DF93EC018B814A
:103F80009C81AD81BE8188309F4FA105B105F1F4C0
:103F900089859A850697D4F08B858B33B9F48C8507
:103FA0008F39A1F48D858F3F89F48F858A3321F471
:103FB0008FEF9FEF0E946B0E8E85811113C08F854E
:103FC0008D3139F41092170910921609DF91CF91B3
:103FD00008958035D9F781E090E090931709809398
:103FE0001609F4CF813091F78F858D3179F782E012
:103FF00090E0F3CFCF92DF92EF92FF92CF93DF93D7
:10400000EC0190E080E00E940BA920E030E040E865
:1040100053E40E9410AA6B017C01BE0190E080E095
:104020000E940BA99B01AC01C701B6010E94ECA73D
:1040300020E030E044EB53E40E9410AA29EF3FE077
:1040400049E450E40E945DA820E030E44CE956E4E5
:104050000E945DA820E030E040E05FE30E94ECA712
:104060000E94CFA8CB01DF91CF91FF90EF90DF901E
:10407000CF9008954F925F926F927F928F929F920E
:10408000AF92BF92CF92DF92EF92FF920F931F9366
:10409000CF93DF931F921F92CDB7DEB7FC018381D0
:1040A0009481A581B68180339F4FA140B10509F06D
:1040B0004AC08185928541970CF445C083858B3336
:1040C00009F041C084858F39F1F56F011A82198298
:1040D000BE016F5F7F4FCF010E94405589819A8159
:1040E00005969A83898318E2E12E1BE6F12E0EE6EF
:1040F0001EEC9E012F5F3F4F4AE057ED63E27CE3E9
:10410000C6010E94915D4B015C01F601028D10E039
:10411000102F0027818D080F111D608D70E0878999
:1041200090E00E94FA1F6C012801110F66087708C1
:10413000C501B4010E94D6A8AB01BC019301820164
:10414000C6010E94CE0E0F900F90DF91CF911F916C
:104150000F91FF90EF90DF90CF90BF90AF909F9026
:104160008F907F906F905F904F9008958F929F9265
:10417000AF92BF92CF92DF92EF92FF920F931F9375
:10418000CF93DF93CDB7DEB7CF5ED1090FB6F894EA
:10419000DEBF0FBECDBFF12CE12C00E010E0980196
:1041A00046E06FE0CE0101960E94F9548091950A95
:1041B0009091960A18161906ACF080E0C151DF4FB5
:1041C0000FB6F894DEBF0FBECDBFDF91CF911F9128
:1041D0000F91FF90EF90DF90CF90BF90AF909F90A6
:1041E0008F9008951092960A1092950AC0903A09FD
:1041F000D0903B09E0903C09F0903D09C701B60121
:104200009F772AE037ED43E25CE30E940BAA181681
:10421000A4F68090450990904609A0904709B09077
:104220004809C501B4019F772AE037ED43E25CE31A
:104230000E940BAA18160CF0C0CF95018401B7019B
:10424000A601CE0101960E94935050E040E0BE01CD
:104250006F5F7F4F80911B0C90911C0C0E94C3726A
:10426000ADCF8F929F92AF92BF92CF92DF92EF929B
:10427000FF920F931F93CF93DF93CDB7DEB7CF5E3F
:10428000D1090FB6F894DEBF0FBECDBFF12CE12CE3
:1042900000E010E0980146E06FE0CE0101960E9438
:1042A000F9542091990A30919A0A121613060CF0CB
:1042B00065C080919B0A90919C0A181619060CF013
:1042C0005DC02150310930939A0A2093990A0197D1
:1042D00090939C0A80939B0AC0905809D0905909EA
:1042E000E0905A09F0905B0980905409909055092C
:1042F000A0905609B090570928E23BE64EE65EECE6
:10430000C501B4010E9458A8882381F020E030E064
:1043100044E353E4C501B4010E945DA82BED3FE0E6
:1043200049E450E40E9410AA4B015C01950184010C
:1043300050E040E061E0CE0101960E94335150E030
:1043400040E0BE016F5F7F4F80911B0C90911C0C71
:104350000E94C372C151DF4F0FB6F894DEBF0FBE8B
:10436000CDBFDF91CF911F910F91FF90EF90DF9024
:10437000CF90BF90AF909F908F90089580E0EACF4C
:10438000AF92BF92CF92DF92EF92FF920F931F9363
:10439000CF93DF93CDB7DEB7CF5ED1090FB6F894D8
:1043A000DEBF0FBECDBF5C01F12CE12C00E010E0C0
:1043B000980146E06FE0CE0101960E94F954809189
:1043C0009D0A90919E0A181619060CF04DC0109285
:1043D0009E0A10929D0AC0902E09D0902F09E0905D
:1043E0003009F090310928E23BE64EE65EECC70169
:1043F000B6010E9458A8882381F020E030E044E311
:1044000053E4C701B6010E945DA82BED3FE049E4EB
:1044100050E40E9410AA6B017C018701760195018E
:1044200041E050E061E0CE0101960E94684F50E00B
:1044300040E0BE016F5F7F4F80911B0C90911C0C80
:104440000E94C372C151DF4F0FB6F894DEBF0FBE9A
:10445000CDBFDF91CF911F910F91FF90EF90DF9033
:10446000CF90BF90AF90089580E0ECCF8F929F9255
:10447000AF92BF92EF92FF920F931F93CF93DF9370
:10448000CDB7DEB7CF5ED1090FB6F894DEBF0FBE51
:10449000CDBFF12CE12C00E010E0980146E06FE088
:1044A000CE0101960E94F9548091A50A9091A60A26
:1044B000181619069CF080E0C151DF4F0FB6F89432
:1044C000DEBF0FBECDBFDF91CF911F910F91FF9047
:1044D000EF90BF90AF909F908F9008950197909329
:1044E000A60A8093A50A8EE599E00E94319820E8FB
:1044F00031E541E050E00E9477A749010E940BA9F5
:104500008B019C01F12CE12CA40161E0CE0101960C
:104510000E94324E50E040E0BE016F5F7F4F8091BD
:104520001B0C90911C0C0E94C372882321F2C401C1
:104530000E94C021C1CFEF92FF920F931F93CF93A0
:10454000DF93CDB7DEB7CF5ED1090FB6F894DEBFEB
:104550000FBECDBFF12CE12C00E010E0980146E049
:104560006FE0CE0101960E94F9548091A70A9091C4
:10457000A80A18161906E4F501979093A80A8093E3
:10458000A70A26E53EE04DEE5FE360917D0970915C
:104590007E0980917F09909180090E9410AA20E0F5
:1045A00030E04AE754E40E9410AA7B018C0120E02D
:1045B00050E040E061E0CE0101960E94215350E0BE
:1045C00040E0BE016F5F7F4F80911B0C90911C0CEF
:1045D0000E94C372C151DF4F0FB6F894DEBF0FBE09
:1045E000CDBFDF91CF911F910F91FF90EF90089574
:1045F00080E0F0CF2F923F924F925F926F927F9226
:104600008F929F92AF92BF92CF92DF92EF92FF92E2
:104610000F931F93CF93DF93CDB7DEB7CF5FD10951
:104620000FB6F894DEBF0FBECDBFF12CE12C00E039
:1046300010E0980146E06FE0CE0101960E94F95427
:104640006091A70A7091A80A161617060CF0EBC223
:104650004091A90A5091AA0A141615060CF0E3C25B
:104660002091AB0A3091AC0A8091AD0A9091AE0ACC
:104670001216130624F0181619060CF0D4C2615055
:1046800071097093A80A6093A70A41505109509389
:10469000AA0A4093A90A2150310937FD40C130933D
:1046A000AC0A2093AB0A019797FD3EC19093AE0AE6
:1046B0008093AD0A8091810990918209A09183092C
:1046C000B0918409CE50DF4F88839983AA83BB833E
:1046D000C25FD04090918609C250DF4F9883CE5F71
:1046E000D040A0918509C150DF4FA883CF5FD04053
:1046F0008EE599E00E94319820E831E541E050E0F4
:104700000E9477A719010E940BA93B018C01CA5096
:10471000DF4F6883C65FD040C950DF4F7882C75FE4
:10472000D040C850DF4F8883C85FD040C750DF4FAC
:104730001883C95FD040C051DF4F39822882C05FE3
:10474000D0408090580990905909A0905A09B09093
:104750005B092DEC3CEC4CEC5DE3C501B4010E941F
:104760000BAA18160CF05CC020E030E0A901CE5076
:10477000DF4F688179818A819B81C25FD0400E942E
:104780000BAA18160CF04CC0A5019401CE50DF4FB7
:10479000688179818A819B81C25FD0400E945DA837
:1047A0006B017C0120E030E040EC51E40E940BAA58
:1047B000181694F4C1010196C051DF4F9983888384
:1047C000C05FD04020E030E040EC51E4C701B601CA
:1047D0000E94EBA76B017C0120E030E041E655E44C
:1047E000C701B6010E9410AA9B01AC01662D772D6E
:1047F000802F912F0E94ECA7CA50DF4F6883C65FBD
:10480000D040C950DF4F7883C75FD040C850DF4FDA
:104810008883C85FD040C750DF4F9883C95FD040BE
:10482000C090280AD090290AE0902A0AF0902B0A1A
:1048300020E030E044EB53ECC701B6010E940BAA24
:1048400018160CF076C020912E0930912F09409156
:10485000300950913109C701B6010E94ECA7762EAC
:10486000672E582E492E20E030E044EB53EC0E9496
:104870000BAA18160CF473C0C0904D0AD0904E0AC3
:10488000E0904F0AF090500A20E030E044EB53EC07
:10489000C701B6010E940BAA18160CF08FC0209118
:1048A0002E0930912F094091300950913109C701EB
:1048B000B6010E94ECA7162F072FE82EC92E20E084
:1048C00030E044EB53ECD8016B2F7A2F0E940BAAF7
:1048D00018160CF0B8C028E23BE64EE65EECD801B4
:1048E0006B2F702F8E2D9C2D0E9458A8882309F4C1
:1048F000AAC020E030E044E353E4D8016B2F702FCE
:104900008E2D9C2D0E945DA82BED3FE049E450E4E4
:104910000E9410AA162F072FE82EC92E94C01092BD
:10492000AC0A1092AB0ABFCE1092AE0A1092AD0A3A
:10493000C1CE7090240A6090250A5090260A4090BB
:10494000270A20E030E044EB53ECD301F2016B2F57
:104950007A2F8F2F9E2F0E940BAA181634F528E26B
:104960003BE64EE65EECD301F2016B2F762D8F2FE6
:10497000942D0E9458A8882309F47ECF20E030E0CF
:1049800044E353E4D301F2016B2F762D8F2F942D46
:104990000E945DA82BED3FE049E450E40E9410AA7C
:1049A000762E672E582E492E67CF28E2722E3BE6D0
:1049B000632E4EE6542E5EEC452E5ECF1091490AD2
:1049C00000914A0AE0904B0AC0904C0A20E030E087
:1049D00044EB53ECD8016B2F7A2F8E2D9C2D0E9427
:1049E0000BAA18160CF477CFC090030AD090040AD3
:1049F000E090050AF090060A20E030E044EB53EC2A
:104A0000C701B6010E940BAA18160CF448CF1091EA
:104A1000FF090091000AE090010AC090020A20E01C
:104A200030E044EB53ECD8016B2F7A2F8E2D9C2D68
:104A30000E940BAA18160CF44ECF18E20BE68EE675
:104A4000E82E9EECC92E9091F709C650DF4F98834F
:104A5000CA5FD040A091F809C550DF4FA883CB5F53
:104A6000D0403090F9092090FA09D090FB09B0911C
:104A7000FC09C450DF4FB883CC5FD0408091FD0962
:104A8000C350DF4F8883CD5FD040F090FE0926E50C
:104A90003EE04DEE5FE3C501B4010E9410AA20E0A4
:104AA00030E04AE754E40E9410AA20E030E041E6FA
:104AB00055E40E945DA89F938F937F936F93FF921D
:104AC000C350DF4F9881CD5FD0409F93C450DF4FDC
:104AD000A881CC5FD040AF93DF922F923F92C55018
:104AE000DF4FB881CB5FD040BF93C650DF4F888186
:104AF000CA5FD0408F9381E08F938FEF8F93CF92D7
:104B0000EF920F931F934F925F926F927F92CF50CD
:104B1000DF4F9881C15FD0409F93C051DF4FA88184
:104B2000C05FD040AF93C750DF4FB881C95FD0405E
:104B3000BF93C850DF4F8881C85FD0408F93C95062
:104B4000DF4F9881C75FD0409F93CA50DF4FA88145
:104B5000C65FD040AF93B12CA12CC150DF4FC880AD
:104B6000CF5FD040C250DF4FE880CE5FD04010E032
:104B700000E0CE50DF4F288139814A815B81C25FDE
:104B8000D04061E0CE0101960E946D5350E040E0BC
:104B9000BE016F5F7F4F80911B0C90911C0C0E9497
:104BA000C372E82E01E51AE0C450DF4F6881CC5F84
:104BB000D040C350DF4F9881CD5FD0402D2D362F90
:104BC000492F5F2DC650DF4FB881CA5FD040C55016
:104BD000DF4FA881CB5FD040F1016B2F7A2F8F2F51
:104BE0009E2F0E94E20D0FB6F894DEBF0FBECDBF20
:104BF0008E2DC150DF4F0FB6F894DEBF0FBECDBF74
:104C0000DF91CF911F910F91FF90EF90DF90CF90A8
:104C1000BF90AF909F908F907F906F905F904F90DC
:104C20003F902F900895E12CE3CF8091000990915F
:104C3000010982309105E1F18CF4009709F10197A7
:104C400059F18091000990910109019686309105F2
:104C5000ACF5909301098093000908958430910583
:104C600051F174F0059769F70E94FA228091700C57
:104C7000882339F361E086E299E00E943308E1CFAE
:104C80000E9431218091700C8823D9F261E086E284
:104C900099E00E94D807D5CF0E9436228091700CEF
:104CA000882379F261E086E299E00E947307C9CF18
:104CB0000E94B620C6CF0E949B22C3CF109201094A
:104CC0001092000908950F931F93CF93DF93EEE5A1
:104CD000FCE01382128288EE93E0A0E0B0E08483CF
:104CE0009583A683B78380E597E091838083EEE484
:104CF000FCE013861286148615861686178688E2CF
:104D000090E09183808348EC50E060E070E0428363
:104D100053836483758380E293E0A0E0B0E08683F0
:104D20009783A087B187EEE3FCE013861286148692
:104D300015861686178629E230E031832083428368
:104D400053836483758386839783A087B187EEE25C
:104D5000FCE01386128614861586168617862AE2CC
:104D600030E0318320834283538364837583868359
:104D70009783A087B187EEE1FCE013861286148644
:104D80001586168617862BE230E031832083428316
:104D900053836483758386839783A087B18765E394
:104DA0008DE19CE00E94F2958EE490E00E94099FC4
:104DB000EC0102E310E025E142E065E30E94EC4BE8
:104DC000D0931C0CC0931B0C8DEF9BE00E94684598
:104DD00080EE9BE00E9468458FE79BE00E940642C0
:104DE0008EE19BE00E9406428DEB9AE00E94064213
:104DF000C6E2D9E0109281091092820910928309CB
:104E000010928409109285091092860985E2E9E3DF
:104E1000F2E0A7E8B9E001900D928A95E1F71092CF
:104E2000AC0985E2E7E8F9E0ADEAB9E001900D925E
:104E30008A95E1F785E2E7E8F9E0A6E6BAE00190B5
:104E40000D928A95E1F710928C0A10928B0A1092BB
:104E50008E0A10928D0A1092900A10928F0A109268
:104E6000920A1092910A1092940A1092930A109248
:104E7000960A1092950A1092980A1092970A109228
:104E80009A0A1092990A10929C0A10929B0A109208
:104E90009E0A10929D0A1092A00A10929F0A1092E8
:104EA000A20A1092A10A1092A40A1092A30A1092C8
:104EB000A60A1092A50A1092A80A1092A70A1092A8
:104EC000AA0A1092A90A1092AC0A1092AB0A109288
:104ED000AE0A1092AD0A1092B00A1092AF0A109268
:104EE000B20A1092B10A1092B40A1092B30A109248
:104EF000B60A1092B50A1092B80A1092B70A109228
:104F0000BA0A1092B90A1092BC0A1092BB0A18820F
:104F100019821A821B821C821D821E821F8280E0DF
:104F200090E0A0E4B0EC88879987AA87BB871C86AD
:104F30001D861E861F86188A198A1A8A1B8A1C8A51
:104F40001D8A1E8A1F8A198E188E1B8E1A8E1D8E20
:104F50001C8E80E48E8F1F8E18A219A21AA21CA28A
:104F60001BA21EA21DA218A61FA289A71AA61BA6D5
:104F70001CA61DA61EA61FA618AA19AA1AAA1BAA15
:104F80001CAA1DAA1FAA1EAA68E878E085E699E077
:104F90000E94ADAC68E878E081E799E00E94ADAC92
:104FA0001EAE1DAE1CAE1AAE19AE18AE10927D0923
:104FB00010927E0910927F091092800985E2E7E83D
:104FC000F9E0A2EDB9E001900D928A95E1F785E252
:104FD000E7E8F9E0A7EFB9E001900D928A95E1F7D3
:104FE00085E2E7E8F9E0ACE1BAE001900D928A953C
:104FF000E1F785E2E7E8F9E0A1E4BAE001900D927B
:105000008A95E1F7DF91CF911F910F91089580E587
:1050100097E090935F0C80935E0C0C94774867E365
:1050200075E082E79FE00E94E49B82E79FE00C949A
:10503000849965E275E082E79FE00E94E49B82E745
:105040009FE00C94849963E175E082E79FE00E9401
:10505000E49B82E79FE00C94849980918C0C8111F1
:105060002DC080916C0C90916D0C20916A0C309148
:105070006B0C8217930739F085E090E09093150947
:105080008093140908952091140930911509211570
:105090003105A1F0215031093093150920931409ED
:1050A0008230910511F40C940F288330910511F48E
:1050B0000C941928019711F40C9423280895CF9388
:1050C000DF93EC018B819C81AD81BE8181159F4E68
:1050D000A140B10519F589859A850897FCF08B8563
:1050E0008B33E1F48C858F39C9F48D85803FB1F421
:1050F0008E85813899F48F85843809F05BC09B894F
:1051000080918C0C90FF0DC0811102C00E94192863
:1051100083E090E090936B0C80936A0CDF91CF91C9
:10512000089591FF40C0811102C00E940F2882E0C3
:1051300090E090936B0C80936A0C80918C0C8111A1
:10514000EDCF8B8968E773E082FD02C066E673E00D
:1051500082E79FE00E94E49B8B8964E573E083FD16
:1051600002C061E473E082E79FE00E94E49B8989CA
:105170008295869586958370CA89C695D0E09AE512
:10518000899FC00DD11D112462E373E082E79FE087
:105190000E94AD9B4AE050E0BE0182E79FE0DF91B4
:1051A000CF910C94A89C811102C00E94232881E019
:1051B00090E0BFCF863841F46FE173E082E79FE073
:1051C000DF91CF910C94E49B8D3A09F0A7CF8889A9
:1051D000833009F0A3CF6989062E000C770B880B6A
:1051E000990B0E940DA92BED3FE049E450E40E9489
:1051F0005DA80E94CFA8CB01DF91CF910C94B50E92
:10520000CF92DF92EF92FF92CF93DF93EC01CB80AE
:10521000DC80ED80FE808F818631A1F469E873E047
:1052200082E79FE00E94AD9B2AE030E0B701A60133
:1052300082E79FE0DF91CF91FF90EF90DF90CF90DA
:105240000C94D49C80910E0990910F098A3091059D
:1052500028F4019690930F0980930E09C701B601B7
:105260000E94C617811141C1C701B6010E94D31621
:1052700081113BC18EE19CE00E94FB0C28E0C2162C
:105280002FEFD206E104F10449F4CE01DF91CF9172
:10529000FF90EF90DF90CF900C94BC1F80E5C81674
:1052A0008FEFD806E104F10449F4CE01DF91CF91EC
:1052B000FF90EF90DF90CF900C94421BC1142FEE23
:1052C000D20621E0E206F10449F4CE01DF91CF914C
:1052D000FF90EF90DF90CF900C945F288DE0C81680
:1052E00081EFD80681E0E806F10469F48F81882314
:1052F00009F4FBC0CE01DF91CF91FF90EF90DF90DA
:10530000CF900C94B61922E1C21621EFD20621E00B
:10531000E206F10469F48F81882309F4E6C0CE0126
:10532000DF91CF91FF90EF90DF90CF900C94DF1A38
:105330008AE1C81681EFD80681E0E806F10469F435
:105340008091710C8111D1C0CE01DF91CF91FF907E
:10535000EF90DF90CF900C946E1A2BE0C21625EFE1
:10536000D20621E0E206F10469F48091710C81110A
:10537000BCC0CE01DF91CF91FF90EF90DF90CF9036
:105380000C94C31B81E0C81688EFD80681E0E806BC
:10539000F10469F48091710C8111A7C0CE01DF91F5
:1053A000CF91FF90EF90DF90CF900C94231D22E0DF
:1053B000C21628EFD20621E0E206F10469F48091DA
:1053C000710C811192C0CE01DF91CF91FF90EF90CF
:1053D000DF90CF900C944C1C85E0C81688EFD8065F
:1053E00081E0E806F10469F48091710C81117DC0BF
:1053F000CE01DF91CF91FF90EF90DF90CF900C9492
:10540000561D24E0C21629EFD20621E0E206F1047F
:1054100049F4CE01DF91CF91FF90EF90DF90CF90D4
:105420000C94291F85E0C81689EFD80681E0E806AC
:10543000F10469F480918C0C811157C0CE01DF9189
:10544000CF91FF90EF90DF90CF900C942718D70169
:10545000C6018E50984FA140B1090297A105B10530
:1054600048F321E1C21628EFD20621E0E206F1045A
:1054700009F3D701C601877F82309B4FA140B10558
:10548000C9F2D701C60181519B4FA140B1090297D2
:10549000A105B10578F282E0C8168DEFD80681E04B
:1054A000E806F10449F4CE01DF91CF91FF90EF902F
:1054B000DF90CF900C94B91C20E3C2162FEFD206D8
:1054C00021E0E206F10449F4CE01DF91CF91FF9093
:1054D000EF90DF90CF900C943A2080918C0C81114A
:1054E00004C080910E028111A9CFDF91CF91FF906E
:1054F000EF90DF90CF9008956F927F928F929F925E
:10550000AF92BF92CF92DF92EF92FF920F931F93D1
:10551000CF93DF934C01FC01C181CF70D0E0239683
:1055200085E0C82ED12C6624639485E39DE00E941B
:10553000F1987C01540191E0E114F10459F085E304
:105540009DE00E94AB4963E070E080E090E00E9443
:105550008A9FEBCF81E0EC16FD060CF480E0792EFB
:105560007624782A41F5F50101915F0110E0E114FC
:10557000F10409F41160B80185E39DE00E94D1496E
:1055800063E070E080E090E00E948A9F85E39DE008
:105590000E94F198892B51F085E39DE00E94AB4970
:1055A000772473948017910709F0712CFFEFEF1A9D
:1055B000FF0A972DCFCF911112C022E330E040E0D7
:1055C00050E062E070E080E090E00E94D99E0E948E
:1055D0008A9F81E0C81AD10809F0A7CF712C872DC6
:1055E000DF91CF911F910F91FF90EF90DF90CF90BF
:1055F000BF90AF909F908F907F906F900895809113
:105600001209909113090A9720F08BE495E00C940D
:105610007C2A08956F927F928F929F92AF92BF9251
:10562000CF92DF92EF92FF920F931F93CF93DF936E
:105630004C01FC01C181CF70D0E0239685E0C82EDB
:10564000D12C6624639482E59EE00E94F1987C014F
:10565000540191E0E114F10459F082E59EE00E94CA
:10566000AB4963E070E080E090E00E948A9FEBCF5E
:1056700081E0EC16FD060CF480E0792E7624782A81
:1056800041F5F50101915F0110E0E114F10409F425
:105690001160B80182E59EE00E94D14963E070E0AC
:1056A00080E090E00E948A9F82E59EE00E94F1984F
:1056B000892B51F082E59EE00E94AB4977247394D8
:1056C0008017910709F0712CFFEFEF1AFF0A972D51
:1056D000CFCF911112C022E330E040E050E062E011
:1056E00070E080E090E00E94D99E0E948A9F81E055
:1056F000C81AD10809F0A7CF712C872DDF91CF915F
:105700001F910F91FF90EF90DF90CF90BF90AF90DF
:105710009F908F907F906F90089580911009909145
:1057200011090A9720F088E495E00C940A2B08955B
:105730000F931F93CF93DF93CDB7DEB7CB54D140F8
:105740000FB6F894DEBF0FBECDBF8EE29CE00E9484
:10575000FB0C8EE19BE00E9418438C010E94240FF9
:105760006BE377E0C8010E94A60D882399F0B80189
:10577000CE0101960E9412418091730C811105C0E7
:10578000CE01875C9E4F0E947C2ACE01875C9E4F93
:105790000E940A2BC55BDE4F0FB6F894DEBF0FBE2A
:1057A000CDBFDF91CF911F910F9108958EE59CE0C1
:1057B0000E94124618161906BCF48EE59CE00E9461
:1057C000E945682F8EE19BE00E94254281309105DA
:1057D00011F40C94982B0297029730F48EE19BE021
:1057E0000E9418430C94161108950F931F93CF93A2
:1057F000DF93CDB7DEB7CB54D1400FB6F894DEBF00
:105800000FBECDBF8EE29CE00E94FB0C80910C0984
:1058100090910D098A30910528F4019690930D0915
:1058200080930C098DEB9AE00E940D438C010E943D
:10583000240F6BE377E0C8010E94A60D8823F9F0DE
:10584000B801CE0101960E9412418091730C811122
:1058500005C0CE01875C9E4F0E947C2ACE01875CEA
:105860009E4F0E940A2BC55BDE4F0FB6F894DEBF39
:105870000FBECDBFDF91CF911F910F910895809101
:10588000710C882381F3C8010E94DF14ECCF82E5FC
:105890009EE00E94F198892B71F082E59EE00E94C3
:1058A000AB4997FD08C0BC0180EE9BE00E947945A2
:1058B00081110C94580D0895CF92DF92EF92FF92D0
:1058C0000F931F93CF93DF9385E39DE00E94F198A0
:1058D000892B09F475C385E39DE00E94AB4997FDD0
:1058E0006FC3BC018DEF9BE00E947945882309F4CA
:1058F00067C38EE49CE00E94FB0C8091120990919A
:1059000013098A30910528F4019690931309809326
:1059100012098DEF9BE00E94DD45EC018DEF9BE0CD
:105920000E94D345BE010E940145EC010E94FD4446
:105930008C018DEF9BE00E94DD457C0180910D0282
:10594000882371F0CE010E94FB44892B49F08881A5
:10595000998103972CF0CE010E94FB440E940A2BF0
:105960000115110599F525E0E216F10409F56E819E
:10597000862F90E0982F88276D81680F792F711DF1
:10598000072E000C880B990B0E940DA920E030E037
:1059900040E251E40E945DA8AB01BC0186E299E0BF
:1059A0000E948B04882321F086E299E00E94C304C0
:1059B000209709F405C3CE01DF91CF911F910F917C
:1059C000FF90EF90DF90CF900C940D9F0530110564
:1059D00079F30031110519F534E0E316F10441F7CC
:1059E0006C8170E0762F6627072E000C880B990BD0
:1059F0002D81622B0E940BA920E030E040E05FE3A4
:105A00000E9410AAAB01BC0186E299E00E94060543
:105A1000882371F286E299E00E94A605C9CF013180
:105A2000110581F584E0E816F10411F61C816D8101
:105A30006F7070E090E080E00E940DA920E030E0FF
:105A400040E251E40E945DA86B017C01612F6F77F9
:105A500070E090E080E00E940DA99B01AC01C701BD
:105A6000B6010E94ECA717FF06C022EA32EB43E022
:105A70005FE30E945DA8AB01BC0186E299E00E9451
:105A80000F06C6CF0032110509F492CFC8018397E3
:105A90008230910508F48CCF03978230910508F489
:105AA00087CF8A97029708F483CF0235110561F5F5
:105AB00024E0E216F10409F07BCF6D81862F90E09F
:105AC000982F88276C81680F792F711D072E000C85
:105AD000880B990B0E940DA920E030E040E251E4D0
