:100000000C9427040C94A19B0C94CC9B0C94F79B10
:100010000C94229C0C944D9C0C94789C0C94A39C66
:100020000C94CE9C0C9458040C9458040C945804D2
:100030000C9458040C9458040C9458040C945804D0
:100040000C9458040C9458040C9458040C945804C0
:100050000C9458040C9458040C9458040C94499D26
:100060000C9458040C947D980C94B3980C945804F8
:100070000C9458040C9458040C9458040C94580490
:100080000C9458040C9458040C9458040C94580480
:100090000C94C5460C94EF460C9458040C945804E8
:1000A0000C9458040C9458040C9458040C94580460
:1000B0000C9458040C9458040C94B2450C941145BB
:1000C0000C9461460C9458040C9458040C943847D2
:1000D0000C9462470C9458040C9414990C944A990B
:1000E0000C9458040C94918B0C94AB990C9472A1C1
:1000F0000C940AA10C94679E0C94669B0C9409893D
:100100000C94B58F0C9421A10C941EA10C94478BD8
:100110000C947B480C940B450C945DA10C947DA130
:100120000C94EDA00C9430A10C94E4280C94DE9770
:100130000C94A39E0C94CC890C9492490C94A79E89
:100140000C94AD910C949B9E0C94B0450C94EB27B1
:100150000C94C48D0C94919E0C94D2880C941287AC
:100160000C949F9E0C94E7980C9445970C94599787
:100170000C942B970C9457A10C9454A10C941087B9
:100180000C94879E0C947D930C945C440C94DD98A5
:100190000C94949B0C942A930C940D910C94034C06
:1001A0000C946F9E0C94FD4B0C9476A10C946B9E5A
:1001B0000C946CA10C9460A10C946FA10C949B9373
:1001C0000C94075D0C944D9B0C94839E0C94F3A0AF
:1001D0000C94974B0C94BE970C9406870C9439445E
:1001E0000C945C890C947F910C94A69E0C9473489B
:1001F0000C9463A10C9418A10C944C440C94759E1F
:100200000C9466A10C9411A10C947E990C9451A1AC
:100210000C947B9B0C948D9E0C94A08A0C94799EDC
:100220000C94C9910C948C470C94158D0C942DA1B1
:100230000C946F930C94E0480C9485930C94028B6F
:100240000C9453930C9450910C9419470C94538E26
:100250000C94269B0C94319D0C9497910C9415A1B1
:100260000C9469A10C94459B0C9423440C947F9EA0
:100270000C9437970C94CAA00C943F890C94959ECB
:100280000C940EA10C94A9930C9457910C9425A155
:100290000C9468970C94F0A00C9429A10C94A78955
:1002A0000C945AA10C9454260C947A890C9467935C
:1002B0000C9474990C94879B0C94599B0C94619E9C
:1002C0000C947AA10C941BA10C94308C0C94D752F2
:1002D0000C9493930C94E9A06364696E6F707375CA
:1002E00078585B004E414E494E495459494E46CDCF
:1002F000CCCC3D0AD7233C17B7D13877CC2B3295DD
:1003000095E6241FB14F0A000020410000C84200BA
:10031000401C4620BCBE4CCA1B0E5AAEC59D743D47
:100320003D3D204B4559205354524F4B45203D3DB8
:100330003D004042474250552C436F757273652C07
:10034000004042474250552C547261636B2C466109
:100350006C7365004042474250552C547261636B88
:100360002C54727565004042474250552C56616EC0
:10037000652C46616C7365004042474250552C56CF
:10038000616E652C547275650052656A65637420F0
:100390006D7973656C662050474E3A004042474283
:1003A00050552C547261636B2C46616C7365004030
:1003B00042474250552C547261636B2C54727565E0
:1003C000004042474250552C56616E652C46616C88
:1003D0007365004042474250552C56616E652C545F
:1003E00072756500244E474250552A3445004E4DE3
:1003F00045415F5041525345525F4E4F54434F4D1C
:10040000504C4554452C206E6F7420636F6D706C9A
:10041000657465207E7E00244E474250552A34453F
:10042000004E4D45415F5041525345525F43484550
:10043000434B53554D4552522C204552524F52205A
:100440002121000900095472616E736C6174655357
:10045000656174616C6B417570696C6F74436F6D2D
:100460006D616E64546F4E454D41323030302829F5
:100470003A200020556E6B6E6F776E0020506F77BC
:1004800065724F6E002045787465726E616C002055
:1004900042726F776E6F7574002057617463686481
:1004A0006F67004661696C004F70656E004042479F
:1004B0004250552C43414E2C004042474250552C4F
:1004C000424F4F5420566572002066696E652E00BB
:1004D0002C2048656C6C6F2C204920616D200040F9
:1004E00042474250552C5665720040424742505593
:1004F0002C4D4F422C004042474250552C537465BE
:1005000065722C004042474250552C436F75727300
:10051000652C004042474250552C4175746F2C4663
:10052000616C7365004042474250552C4175746FB1
:100530002C5374656572004042474250552C4175FA
:10054000746F2C54727565009000A49000A3002075
:10055000446174613A00204C656E3A002044657332
:10056000743A0020536F757263653A002050474E0D
:100570003A005072693A00203A2000002C0053746F
:10058000617274206164647265737320636C616965
:100590006D20666F72206465766963652000207344
:1005A000656E64206661696C6564002F002C2066AE
:1005B00072616D653A0050474E20002073656E648D
:1005C000206661696C65640050474E200043414ECF
:1005D00020646576696365206661696C6564207472
:1005E0006F206F70656E0043414E206465766963CD
:1005F000652072656164790000004E4D45413230DE
:100600003030206C6962726172792C206874747069
:10061000733A2F2F6769746875622E636F6D2F743C
:10062000746C617070616C61696E656E2F4E4D45C2
:1006300041323030300035089A0241726475696E7B
:100640006F204E326B2D3E50430000000000000032
:100650000000000000000000000000312E302E30AD
:100660002E3000000000000000000000000000002C
:10067000000000000000000000000000312E302EBD
:10068000300000000000000000000000000000003A
:1006900000000000000000000000000000303030CA
:1006A0003030303031000000000000000000000059
:1006B0000000000000000000000000000000000139
:1006C00000E8000000EA000000EB000000EC000081
:1006D00000EE0000D8FE000000ED01000000000068
:1006E00000E8000000EA000000EB000000EC000061
:1006F00000EE000000ED010000EE010011F001002D
:1007000014F0010016F001000000000000000B0CC6
:10071000030A0D0E0F090804050200000000000086
:1007200000000000000000000000000000000000C9
:100730000000000000000000131211000000000083
:1007400000000000000000000000000000000000A9
:100750000000000000000000000000000000000099
:1007600000000102102020080810204010204080C6
:100770000201020108040201010204081020408065
:1007800080402010080402018004020180402010F3
:10079000080402010804020101020408102040803C
:1007A00001020408102040800440800480081010DA
:1007B00020400408102040800505050507050808AD
:1007C0000808020202020A0A0808040404040101DB
:1007D00001010101010103030303030303030407F0
:1007E00007070C0C0C0C0C0C0C0C02020202060687
:1007F0000606060606060B0B0B0B0B0B0B0B050573
:1008000005080807070404040A0A0A0A0A0A00007D
:100810002200250028002B002E00310034000201A8
:100820000000050108010B01000021002400270041
:100830002A002D00300033000101000004010701EF
:100840000A01542619478C47E7987E99EB27112413
:100850001FBECFEFD1E2DEBFCDBF00E00CBF18E07E
:10086000A0E0B2E0ECE3F5E601E00BBF02C00790C8
:100870000D92A237B107D9F72FE0A2E7B8E001C087
:100880001D92A83EB207E1F714E0C6E2D4E000E012
:1008900006C021970109802FFE010E94F2A5C132F6
:1008A000D10780E00807A9F70E94349D0C948CB210
:1008B0000C9400000F931F93CF93DF93CDB7DEB757
:1008C000C853D1400FB6F894DEBF0FBECDBF8C0128
:1008D000CE0101960E945237CE0101960E94253228
:1008E0000E94150FF801E75DFE4F8081918101970D
:1008F00097FD0EC091838083C85CDE4F0FB6F894DD
:10090000DEBF0FBECDBFDF91CF911F910F91089534
:1009100011821082F1CFCF92DF92EF92FF92CF93AC
:10092000DF93EC016A017B012FE632E143E85AEBE9
:10093000CB01B6010E9445A818161CF520E030E84E
:100940004BE355E4C701B6010E9492A687FF19C088
:10095000C882D982EA82FB82C15EDE4F888199819A
:1009600006968730910554F49983888381E0DF915E
:10097000CF91FF90EF90DF90CF90089586E090E0C8
:10098000F3CF80E0F4CF0F931F93CF93DF93CDB7D6
:10099000DEB7C853D1400FB6F894DEBF0FBECDBF4F
:1009A0008C01CE0101960E940B32015E1E4FF801B0
:1009B0008081918118161906D4F4409198085091BD
:1009C000990860919A0870919B08CE0101960E9447
:1009D0000F3BCE0101960E9425320E94150FF801AF
:1009E00080819181019797FD0EC091838083C85CBF
:1009F000DE4F0FB6F894DEBF0FBECDBFDF91CF91B3
:100A00001F910F91089511821082F1CFCF92DF9242
:100A1000EF92FF92CF93DF93EC016A017B0120E01C
:100A200030E0A901CB01B6010E9445A887FD23C093
:100A30002DEC3CE044EB53E4C701B6010E9492A6C2
:100A400087FF19C0C88AD98AEA8AFB8AC95DDE4F46
:100A50008881998104968530910554F4998388831F
:100A600081E0DF91CF91FF90EF90DF90CF900895DC
:100A700084E090E0F3CF80E0F4CFAF92BF92CF92CA
:100A8000DF92EF92FF920F931F93CF93DF93CDB737
:100A9000DEB7C853D1400FB6F894DEBF0FBECDBF4E
:100AA0005C01CE0101960E940B32650189EDC81AE6
:100AB0008EEFD80AF601808191811816190674F517
:100AC0007501FBEDEF1AFEEFFF0AF70180819181BE
:100AD000181619061CF5F501048515852685378538
:100AE0004089518962897389CE0101960E947D36C1
:100AF000CE0101960E9425320E94150FF6018081D9
:100B00009181019797FD1CC091838083F7018081BB
:100B10009181019797FD17C091838083C85CDE4F58
:100B20000FB6F894DEBF0FBECDBFDF91CF911F91FE
:100B30000F91FF90EF90DF90CF90BF90AF9008950E
:100B400011821082E3CF11821082E8CFAF92BF9260
:100B5000CF92DF92EF92FF920F931F93CF93DF9389
:100B6000CDB7DEB7C853D1400FB6F894DEBF0FBE85
:100B7000CDBF5C01CE0101960E940B32650189ED6B
:100B8000C81A8EEFD80AF6018081918118161906CD
:100B900074F57501FBEDEF1AFEEFFF0AF701808196
:100BA0009181181619061CF5F50104851585268511
:100BB00037854089518962897389CE0101960E94E7
:100BC0006A35CE0101960E9425320E94150FF6016A
:100BD00080819181019797FD1CC091838083F701EB
:100BE00080819181019797FD17C091838083C85CB4
:100BF000DE4F0FB6F894DEBF0FBECDBFDF91CF91B1
:100C00001F910F91FF90EF90DF90CF90BF90AF902A
:100C1000089511821082E3CF11821082E8CFCF9223
:100C2000DF92EF92FF92CF93DF93EC016A017B0199
:100C300020E030E0A901CB01B6010E9445A887FD64
:100C400023C020E030E040EA52E4C701B6010E9430
:100C500092A687FF19C0CC86DD86EE86FF86CB5D27
:100C6000DE4F8881998104968530910554F49983EB
:100C7000888381E0DF91CF91FF90EF90DF90CF905C
:100C8000089584E090E0F3CF80E0F4CF4F925F923C
:100C90006F927F928F929F92AF92BF92CF92DF928C
:100CA000EF92FF920F931F93CF93DF9300D000D06A
:100CB0001F921F92CDB7DEB74A015B01680179012F
:100CC0002A013B01E89477F8C301B2010E9409A709
:100CD00069837A838B839C8329813A81B901330F9D
:100CE000880B990B0E9447A79B01AC01C301B2017D
:100CF0000E9425A620E030E040E752E40E944AA886
:100D00002B013C010E9409A76D837E838F83988706
:100D10002D813E81B901330F880B990B0E9447A7A3
:100D20009B01AC01C301B2010E9425A620E030E086
:100D300040E752E40E944AA80E9409A72B0120E044
:100D400030E0A901C501B4010E9492A687FD85C0CB
:100D50008EE429813A813093B1082093B0082D8127
:100D60003E813093B3082093B2085092B508409268
:100D7000B4088093B60826013701E89477F8C301D8
:100D8000B2010E9409A74B01072E000C880B990B9A
:100D90000E9447A79B01AC01C301B2010E9425A696
:100DA00020E030E040E752E40E944AA82B013C01D9
:100DB0000E9409A769837A838B839C8329813A8166
:100DC000B901330F880B990B0E9447A79B01AC0117
:100DD000C301B2010E9425A620E030E040E752E4C2
:100DE0000E944AA80E9409A72B0120E030E0A90137
:100DF000C701B6010E9492A687FD31C085E490929A
:100E0000BC088092BB0829813A813093BE082093A8
:100E1000BD085092C0084092BF088093C10886E088
:100E200090E09093C2098093C10981E028960FB6A3
:100E3000F894DEBF0FBECDBFDF91CF911F910F9110
:100E4000FF90EF90DF90CF90BF90AF909F908F90EA
:100E50007F906F905F904F90089583E57ACF87E5FC
:100E6000CECFFC01E75DFE4F2081318112161306C3
:100E700014F40C945A040895CF92DF92EF92FF92EB
:100E8000CF93DF93EC016A017B0120E030E0A90100
:100E9000CB01B6010E9445A887FD23C02DEC3CE0A4
:100EA00044EB53E4C701B6010E9492A687FF19C024
:100EB000CAA6DBA6ECA6FDA6C55DDE4F888199819A
:100EC00002968330910554F49983888381E0DF9101
:100ED000CF91FF90EF90DF90CF90089582E090E067
:100EE000F3CF80E0F4CFBF92CF92DF92EF92FF92E8
:100EF0000F931F93CF93DF93CDB7DEB7C853D14085
:100F00000FB6F894DEBF0FBECDBF6C01B62ECE017A
:100F100001960E940B32760185EDE81A8EEFF80AF1
:100F2000F701808191811816190634F5F6010085C4
:100F300011852285338542A553A564A575A5CE01EB
:100F400001960E94993BCE0101960E9425320E9493
:100F5000150FBB2049F0CE0101960E942532BC013D
:100F600087E39FE00E940B9AF701808191810197AE
:100F700097FD13C091838083C85CDE4F0FB6F89451
:100F8000DEBF0FBECDBFDF91CF911F910F91FF90BC
:100F9000EF90DF90CF90BF90089511821082ECCF38
:100FA00060E00C947307DF92EF92FF920F931F9310
:100FB000CF93DF93CDB7DEB7C853D1400FB6F894C7
:100FC000DEBF0FBECDBF7C01D62ECE0101960E94A2
:100FD0000B328701055D1E4FF80180819181181643
:100FE000190614F5F70142A553A564A575A5CE0110
:100FF00001960E94FD3BCE0101960E9425320E947F
:10100000150FDD2049F0CE0101960E942532BC016A
:1010100087E39FE00E940B9AF801808191810197FC
:1010200097FD11C091838083C85CDE4F0FB6F894A2
:10103000DEBF0FBECDBFDF91CF911F910F91FF900B
:10104000EF90DF90089511821082EECF60E00C9453
:10105000D307DF92EF92FF920F931F93CF93DF930B
:10106000CDB7DEB7C853D1400FB6F894DEBF0FBE80
:10107000CDBF7C01D62ECE0101960E940B32870196
:10108000055D1E4FF80180819181181619065CF5E7
:10109000F70160857185828593850E9409A7CB0140
:1010A000F70142A553A564A575A59C01CE01019643
:1010B0000E94383CCE0101960E9425320E94150FF5
:1010C000DD2049F0CE0101960E942532BC0187E364
:1010D0009FE00E940B9AF80180819181019797FD12
:1010E00011C091838083C85CDE4F0FB6F894DEBFD9
:1010F0000FBECDBFDF91CF911F910F91FF90EF9069
:10110000DF90089511821082EECF60E00C942908E0
:10111000CF92DF92EF92FF92CF93DF93EC016A01BF
:101120007B01CB01BA019F772DEC3CE044EB53E40B
:101130000E9492A687FF19C0CEA6DFA6E8AAF9AA48
:10114000C15DDE4F8881998106968730910554F400
:101150009983888381E0DF91CF91FF90EF90DF90BA
:10116000CF90089586E090E0F3CF80E0F4CFCF9267
:10117000DF92EF92FF92CF93DF93EC016A017B0144
:101180002CEA35EC47E257EBCB01B6010E9445A8AB
:1011900018161CF520E030E048EC52E4C701B60117
:1011A0000E9492A687FF19C0CAAADBAAECAAFDAAD0
:1011B000C35DDE4F8881998106968730910554F48E
:1011C0009983888381E0DF91CF91FF90EF90DF904A
:1011D000CF90089586E090E0F3CF80E0F4CF6F9257
:1011E0007F928F929F92AF92BF92CF92DF92EF92B7
:1011F000FF920F931F93CF93DF93CDB7DEB7C85302
:10120000D1400FB6F894DEBF0FBECDBF3C01CE017A
:1012100001960E940B32430181ED881A8EEF980AE5
:10122000F401808191811816190694F55301F3EDAC
:10123000AF1AFEEFBF0AF5018081918118161906D9
:101240003CF5F301C2A8D3A8E4A8F5A80085118550
:101250002285338546A557A560A971A9CE010196BF
:101260000E94CA35CE0101960E9425320E94150FB8
:10127000F40180819181019797FD20C09183808343
:10128000F50180819181019797FD1BC09183808337
:10129000C85CDE4F0FB6F894DEBF0FBECDBFDF9146
:1012A000CF911F910F91FF90EF90DF90CF90BF9063
:1012B000AF909F908F907F906F90089511821082D1
:1012C000DFCF11821082E4CF8F929F92AF92BF92B4
:1012D000CF92DF92EF92FF920F931F93CF93DF9302
:1012E000CDB7DEB7CC55D1400FB6F894DEBF0FBEF8
:1012F000CDBF8C01035D1E4FF801208131814C016F
:10130000FBEC8F1AFEEF9F0AF40140815181141605
:1013100015060CF074C05C01F9ECAF1AFEEFBF0AC1
:10132000F50140815181141615060CF068C01216A3
:1013300013060CF04AC06C01F1EDCF1AFEEFDF0A84
:10134000F60120813181121613060CF05BC07C017E
:10135000F7EDEF1AFEEFFF0AF70120813181121637
:1013600013060CF04FC0CE0101960E944F3ACE01F9
:1013700001960E9425320E94150FF401808191810F
:10138000019797FD36C091838083F501808191811B
:10139000019797FD31C091838083F801808191810D
:1013A000019797FDADC091838083F6018081918183
:1013B000019797FDA8C091838083F7018081918177
:1013C000019797FDA3C091838083C45ADE4F0FB667
:1013D000F894DEBF0FBECDBFDF91CF911F910F916B
:1013E000FF90EF90DF90CF90BF90AF909F908F9045
:1013F000089511821082C9CF11821082CECF1216A9
:1014000013061CF76C01F1EDCF1AFEEFDF0AF601AF
:101410002081318112161306C4F67C01F7EDEF1A14
:10142000FEEFFF0AF70180819181181619066CF60C
:10143000CE0101960E940B32C75CDE4F19821882E2
:10144000C953D140C55CDE4F19821882CB53D140BD
:10145000C35CDE4F19821882CD53D140C15CDE4F90
:1014600019821882CF53D140CF5BDE4F1882198288
:101470001A821B82C154D140CB5BDE4F1882198285
:101480001A821B82C554D140C75BDE4F1882198275
:101490001A821B82C954D140C35BDE4F1882198265
:1014A0001A821B82CD54D14084E5CF5ADE4F888307
:1014B000C155D140CE5ADE4F19821882C255D14053
:1014C000CC5ADE4F19821882C455D140CA5ADE4F19
:1014D00019821882C655D140C85ADE4F1882198227
:1014E0001A821B82C855D140C45ADE4F1882CC558F
:1014F000D140CE0101960E9425320E94150F4DCF9A
:101500001182108252CF1182108257CF1182108225
:101510005CCF9B01275A3F4F233B310590F4FC01E0
:1015200077AB66ABED5CFE4F80819181069687308C
:10153000910524F49183808381E0089586E090E012
:10154000F9CF80E00895EF92FF920F931F93CF930E
:10155000DF93CDB7DEB7C853D1400FB6F894DEBFE6
:101560000FBECDBF7C01CE0101960E940B328701D8
:101570000D5C1E4FF8018081918118161906ACF49C
:10158000F70166A977A9CE0101960E947F3CCE01A2
:1015900001960E9425320E94150FF80180819181E9
:1015A000019797FD10C091838083C85CDE4F0FB612
:1015B000F894DEBF0FBECDBFDF91CF911F910F9189
:1015C000FF90EF90089511821082EFCF0C94A30A40
:1015D000CF93DF93EC010E94C304CE010E94A605C5
:1015E000CE010E943107CE010E94D007CE010E9499
:1015F0002608CE010E948508CE010E946409CE0112
:101600000E94A30ACE010E94EF08CE01DF91CF9184
:101610000C943D052F923F924F925F926F927F9272
:101620008F929F92AF92BF92CF92DF92EF92FF92F2
:101630000F931F93CF93DF93CDB7DEB72C970FB6E1
:10164000F894DEBF0FBECDBF98878F83FC018481E5
:10165000282F30E03E832D83A5808681BA2CA82ECA
:10166000B50190E080E00E9445A720E030E04AE725
:1016700054E40E9497A60E9409A76B01C50168EE79
:1016800073E00E9489A51C01EF81F885F381F9833D
:10169000F4FD89C12EE42C83B101032C000C880BCE
:1016A000990B0E9447A720E030E04AE754E40E94EB
:1016B00097A62B013C01B6010D2C000C880B990B51
:1016C0000E9447A79B01AC01C301B2010E9426A65C
:1016D00020E030E040E752E40E9497A62B013C0155
:1016E000ED81FE81BF01FF0F880B990B0E9447A778
:1016F0009B01AC01C301B2010E9426A62B013C0153
:101700009F772FE632E143E85AE30E9492A687FDD5
:1017100031C12091C1093091C2093B832A83232B17
:1017200009F44AC06091B4087091B508072E000C06
:10173000880B990B0E9447A720E030E04AE754E469
:101740000E9497A64B015C016091B2087091B308AA
:10175000072E000C880B990B0E9447A79B01AC0138
:10176000C501B4010E9426A620E030E040E752E423
:101770000E9497A64B015C016091B0087091B1087E
:10178000072E000C880B990B0E9447A79B01AC0108
:10179000C501B4010E9426A69B01AC01C301B201A0
:1017A0000E9425A69F7720E030E040E05FE30E94A2
:1017B00045A818160CF4DEC0EF81F8858781082F44
:1017C00010E0908581859C013C872B87B90190E0D2
:1017D00080E00E9445A720E030E04AE754E40E9400
:1017E00097A60E9409A76F83788789879A878B8538
:1017F0009C8568EE73E00E9489A59C878B87398160
:1018000035FDD4C087E58983EB85FC85BF01FF0FDB
:10181000880B990B0E9447A720E030E04AE754E488
:101820000E9497A64B015C012F813885B901330FC7
:10183000880B990B0E9447A79B01AC01C501B4011D
:101840000E9426A620E030E040E752E40E9497A6DE
:101850004B015C01B801012E000C880B990B0E9412
:1018600047A79B01AC01C501B4010E9426A64B010C
:101870005C019F772FE632E143E85AE30E9492A68B
:1018800087FD78C08A819B81892B09F449C06091CA
:10189000BF087091C008072E000C880B990B0E949E
:1018A00047A720E030E04AE754E40E9497A62B01C6
:1018B0003C016091BD087091BE08072E000C880B9A
:1018C000990B0E9447A79B01AC01C301B2010E9482
:1018D00026A620E030E040E752E40E9497A62B01C4
:1018E0003C016091BB087091BC08072E000C880B6E
:1018F000990B0E9447A79B01AC01C301B2010E9452
:1019000026A69B01AC01C501B4010E9425A69F77C4
:1019100020E030E040E05FE30E9445A8181654F153
:10192000ED81FE81F093B108E093B008D092B30846
:10193000C092B2083092B5082092B408FC81F093AE
:10194000B6081093BC080093BB082F8138853093EC
:10195000BE082093BD088B859C859093C00880931A
:10196000BF0899819093C10886E090E09093C209E6
:101970008093C1092C960FB6F894DEBF0FBECDBF81
:10198000DF91CF911F910F91FF90EF90DF90CF905B
:10199000BF90AF909F908F907F906F905F904F908F
:1019A0003F902F90089533E53C8376CE95E499835C
:1019B0002BCFCF93DF93EC0161E088810E94AA9E38
:1019C0001B861A861C861D861E861F8660E08881FF
:1019D000DF91CF910C94E69ECF92DF92EF92FF922F
:1019E0000F931F93CF93DF93EC010E94939D2A8561
:1019F0003B852130310529F50C851D852E853F85D8
:101A00006B017C01C01AD10AE20AF30A0A811B8128
:101A10002C813D81C016D106E206F30688F11B86B3
:101A20001A866C877D878E879F8760E08881DF912B
:101A3000CF911F910F91FF90EF90DF90CF900C947A
:101A4000E69E232BE9F40C851D852E853F856B01D1
:101A50007C01C01AD10AE20AF30A0E811F8128858F
:101A60003985C016D106E206F30650F021E030E0D9
:101A70003B872A876C877D878E879F8761E0D6CFDB
:101A8000DF91CF911F910F91FF90EF90DF90CF905A
:101A900008950F931F93CF93DF93CDB7DEB7CB5449
:101AA000D1400FB6F894DEBF0FBECDBF88E69BE0F5
:101AB0000E94EC0C80918208909183088A309105F5
:101AC00028F4019690938308809382088AE09BE033
:101AD0000E9417448C018AE09BE00E940D44B801EB
:101AE0000E943B43FC0110810E943543412FBC0101
:101AF000CE0101960E94DB3F60E772E08AE99EE03A
:101B00000E940B9ACE0101960E942532BC018AE9FF
:101B10009EE00E94309AC55BDE4F0FB6F894DEBFA0
:101B20000FBECDBFDF91CF911F910F910895FC01A2
:101B3000DB018081843211F0813279F493818C91C0
:101B400098130BC0948111968C911197981305C02E
:101B500081E0258112969C91291380E00895FC0173
:101B6000DB018081843211F08132D9F491818C9132
:101B7000981317C0928111968C911197981311C0E8
:101B8000938112968C91129798130BC0948113969F
:101B90008C911397981305C081E0258114969C9130
:101BA000291380E008954F925F926F927F928F92F7
:101BB0009F92AF92BF92CF92DF92EF92FF920F93DC
:101BC0001F93CF93DF93CDB7DEB7C054D1090FB6C3
:101BD000F894DEBF0FBECDBF6B017C0129013A0135
:101BE000809189088F93809188088F931F930F931A
:101BF00020E034E244E759E4C301B2010E944AA85C
:101C00000E9409A720E4822E22E4922E2FE0A22E29
:101C1000B12CA50194010E94D3A59F938F937F932C
:101C20006F93C301B2010E9409A77F936F9320E0D5
:101C300034E244E759E4C701B6010E944AA80E9471
:101C400009A7A50194010E94D3A59F938F937F9329
:101C50006F93C701B6010E9409A77F936F9389E72D
:101C600092E09F938F938E010F5F1F4F1F930F93EF
:101C70000E94F9AAB8018AE99EE00E94309A0FB644
:101C8000F894DEBF0FBECDBFC05CDF4F0FB6F89437
:101C9000DEBF0FBECDBFDF91CF911F910F91FF909F
:101CA000EF90DF90CF90BF90AF909F908F907F90FC
:101CB0006F905F904F9008950F931F93CF93DF9392
:101CC000CDB7DEB7C054D1090FB6F894DEBF0FBE52
:101CD000CDBF9F938F938CE992E09F938F938E015A
:101CE0000F5F1F4F1F930F930E94F9AAB8018AE953
:101CF0009EE00E94309A0F900F900F900F900F90DF
:101D00000F90C05CDF4F0FB6F894DEBF0FBECDBFA3
:101D1000DF91CF911F910F910895CF93DF93209181
:101D20009A0B211110C0EC0164E075E08AE99EE095
:101D30000E94E7994AE050E0BE018AE99EE0DF9107
:101D4000CF910C94E29ADF91CF910895CF93DF93D6
:101D500020919A0B211110C0EC0166EF74E08AE922
:101D60009EE00E94E7994AE050E0BE018AE99EE0C9
:101D7000DF91CF910C94E29ADF91CF9108958F92E9
:101D80009F92AF92BF92CF92DF92EF92FF920F930A
:101D90001F93CF93DF93E0919A0BE11139C0790142
:101DA0004A015B01EC016AEE74E08AE99EE00E9460
:101DB000E7994AE050E0BE018AE99EE00E94DB9A82
:101DC00068EA76E08AE99EE00E940B9A2AE030E019
:101DD000B501A4018AE99EE00E94F49A68EA76E0DF
:101DE0008AE99EE00E940B9A2AE030E0B701A80140
:101DF0008AE99EE0DF91CF911F910F91FF90EF90C4
:101E0000DF90CF90BF90AF909F908F900C940E9BDF
:101E1000DF91CF911F910F91FF90EF90DF90CF90C6
:101E2000BF90AF909F908F900895CF93DF93EC0178
:101E3000FC0101900020E9F73197E81BF90B88813C
:101E4000843221F0813211F0803409F53797F8F0AF
:101E500090919A0B91111BC090919B0B803449F487
:101E60009923A9F0BE0187E39FE0DF91CF910C9405
:101E7000309A992329F0BE0187E39FE00E940B9AD4
:101E8000BE018AE99EE0DF91CF910C940B9ADF911D
:101E9000CF910895CF93DF9320919A0B211122C007
:101EA000EC016FED74E08AE99EE00E94E7996DE92C
:101EB0007BE08AE99EE00E940B9A60ED74E08AE97B
:101EC0009EE00E94E7994AE050E0BE018AE99EE068
:101ED0000E94089B69EC74E08AE99EE0DF91CF9153
:101EE0000C941E9ADF91CF91089580919A0B8111E5
:101EF0000CC069EB74E08AE99EE00E94E7996DE905
:101F00007BE08AE99EE00C94309A08958F92AF921C
:101F1000BF92CF92EF92FF920F931F93CF931F9296
:101F20001F9288248A94AA24AA94BA2CCC24CA94F6
:101F30009CEAE92E92E0F92E02EB12E024EC32E06A
:101F400044E650E065ED72E08091450B9091460BC0
:101F50000E947E64B12CA12C24E0C22E38EFE32E27
:101F600037E0F32E0BE422E849E656EB61E070E03F
:101F70008091450B9091460B0E94D06246E161E052
:101F800070E08091450B9091460B0E9436656EED96
:101F900072E08AE99EE00E94309A64EE78E28091D5
:101FA000450B9091460B0E943A6D8091450B9091A4
:101FB000460B0E94FB78C82F6DEA74E08AE99EE028
:101FC0000E94E7990F900F90CC23D1F068EA74E05B
:101FD0008AE99EE00E941E9A60ED72E08DE99BE026
:101FE0000E94AAAA81E080939C0B8C2FCF911F9115
:101FF0000F91FF90EF90CF90BF90AF908F9008958A
:1020000063EA74E08AE99EE00E941E9A10929C0B9B
:10201000ECCFCF93C62FBC018AE99EE00E940B9AB9
:102020004AE050E06C2F8AE99EE00E94019BC3FFCA
:1020300007C069E974E08AE99EE00E94E799C77FDA
:10204000C2FF07C06FE874E08AE99EE00E94E7994A
:10205000CB7FC1FF07C065E874E08AE99EE00E947B
:10206000E799CD7FC0FF07C06CE774E08AE99EE086
:102070000E94E799CE7FCC2331F063E774E08AE9D0
:102080009EE00E94E7996AE073E08AE99EE0CF91C2
:102090000C94309ACF93DF930FB6F894A895809163
:1020A0006000886180936000109260000FBE87EF2F
:1020B00084BF88E19EE00FB6F894A89580936000F5
:1020C0000FBE909360006CED72E08DE99BE00E9482
:1020D000C9AA62E073E08DE99BE00E94AAAA6FEAB8
:1020E00072E08DE99BE00E94AAAA61E08DE00E9467
:1020F000AA9E61E087E00E94AA9E61E08DE00E94B6
:10210000E69E88E79BE00E94D90C88E69BE00E944F
:10211000D90C88E59BE00E94D90C88E49BE00E94E2
:10212000D90C26E040E052EC61E070E08AE99EE0E4
:102130000E94259840EC52E160E070E08DE59CE063
:102140000E94D74745E050E060E070E08DE59CE0FC
:102150000E94209B40EC52E160E070E08AE79DE045
:102160000E94D74745E050E060E070E08AE79DE0DC
:102170000E94209B26E040EC52E160E070E087E3A3
:102180009FE00E94259861EA71E080E090E00E9463
:102190006C4464B784E093E00E940910A89587E43A
:1021A0009BE00E94C8950E94860F8093440BA895DF
:1021B000C6E0D0E00E94750F64E670E080E090E039
:1021C0000E94C49D2197B1F7A895A89581E090E061
:1021D0009093830B8093820B61E08091780B0E9437
:1021E000E69E80919408909195089C012F5F3F4F47
:1021F00030939508209394080E944A0F84E190E060
:102200009093970880939608DF91CF910895FC01F1
:10221000DC010D900020E9F71197A81BB90B1D9761
:10222000D0F180818132A9F581818134A1F582814B
:10223000893489F58381863571F58481843459F533
:1022400085818D7F8D3439F586818C3221F58781AA
:10225000082E000C990BC0970A97E8F480858C3201
:10226000D1F48185082E000C990BC0970A9798F439
:1022700082858C3281F483858C3231F0082E000CFB
:10228000990BC0970A9738F4BF018AE99EE00C9435
:10229000309A8432C9F308958F929F92AF92BF9281
:1022A000CF92DF92EF92FF920F931F93CF93DF9322
:1022B000EC014A015B016901E881F9810190F0813B
:1022C000E02D19958B829C82AD82BE82DA86C9860A
:1022D000DE011B96F801CF01801B910B8E159F0527
:1022E00064F0FE01EE0DFF1DCF018C1B9D0B8C15C4
:1022F0009D0534F413863196F7CF81918D93EBCF02
:10230000DF91CF911F910F91FF90EF90DF90CF90D1
:10231000BF90AF909F908F900895CF92DF92EF92F1
:10232000FF920F931F93CF93DF93CDB7DEB7C95FB3
:10233000D1090FB6F894DEBF0FBECDBF6C01F12CF2
:10234000E12C00E010E0980146E06FE0CE0101963C
:102350000E9433538AE0EFE1F2E0DE01A051BF4F6B
:1023600001900D928A95E1F7B601DD0C880B990B6F
:102370000E9447A72BED3FE049E450E40E944AA8A1
:102380000E9409A7AB01161617060CF04AC04F5F52
:102390005F4F942F342F32953F702FE0231B842FF3
:1023A0008F70843008F043C0845FCA50DF4F988339
:1023B000C65FD04090E1299F90011124820F932F96
:1023C000911DC750DF4F8883C95FD0408AE0E82E57
:1023D000F12C8E0100511F4F2AE030E040E05FEE0B
:1023E00061E070E0CE0101960E944C1150E040E0A7
:1023F000BE016F5F7F4F8091450B9091460B0E940D
:10240000FD70C750DF4F0FB6F894DEBF0FBECDBFD3
:10241000DF91CF911F910F91FF90EF90DF90CF90C0
:102420000895672B09F4B5CF41505109B2CF8830D8
:1024300010F48C5FBACF8C3010F48450B6CF8C502F
:10244000B4CFBF92CF92DF92EF92FF920F931F9380
:10245000CF93DF93CDB7DEB7C75FD1090FB6F8943E
:10246000DEBF0FBECDBFB82EC62ED42EF12CE12C70
:1024700000E010E0980146E06FE0CE0101960E9476
:10248000335388E0E9E2F2E0DE01A051BF4F019052
:102490000D928A95E1F7CB50DF4FB882C55FD040EF
:1024A000CA50DF4FC882C65FD040C950DF4FD882C4
:1024B000C75FD04088E0E82EF12C8E0100511F4FFD
:1024C00026E130E040E05FEE61E070E0CE01019691
:1024D0000E944C1150E040E0BE016F5F7F4F809141
:1024E000450B9091460B0E94FD70C950DF4F0FB60F
:1024F000F894DEBF0FBECDBFDF91CF911F910F913A
:10250000FF90EF90DF90CF90BF900895DF92EF9211
:10251000FF920F931F93CF93DF93CDB7DEB7C75FC3
:10252000D1090FB6F894DEBF0FBECDBFD82EF12C67
:10253000E12C00E010E0980146E06FE0CE0101964A
:102540000E94335388E0E1E3F2E0DE01A051BF4F87
:1025500001900D928A95E1F7CD50DF4FD882C35F8D
:10256000D04088E0E82EF12C8E0100511F4F28E06A
:1025700030E048E05FEF60E070E0CE0101960E943D
:102580004C1150E040E0BE016F5F7F4F8091450BE2
:102590009091460B0E94FD70C950DF4F0FB6F89422
:1025A000DEBF0FBECDBFDF91CF911F910F91FF9086
:1025B000EF90DF90089581E00C94861280E00C94F7
:1025C000861281E090E09093970B8093960B4DEFED
:1025D00062E081E40C94211282E090E09093970BEA
:1025E0008093960B4EEF61E081E40C94211282E01F
:1025F00090E09093970B8093960B4CED63E281E40F
:102600000C94211282E090E09093970B8093960BAC
:102610004CEF63E081E40C94211247EF68E081E421
:102620000C94211249EF66E081E40C94211248EFEA
:1026300067E081E40C9421124AEF65E081E40C9498
:1026400021124DED62E281E40C9421124EED61E223
:1026500081E40C94211283E090E09093970B809397
:10266000960B4EEE61E181EB0C942112CF93909387
:102670008F0880938E08BC01990F880B990B0E94DC
:1026800047A7C1E020918A0830918B0840918C08BF
:1026900050918D080E9445A818160CF0C0E0C09318
:1026A0000C0280E0CF91089590E080E00C94361306
:1026B0008DED9FEF0C94361383E290E00C9436136B
:1026C000FC01DC010D900020E9F71197A81BB90B64
:1026D0001A9708F186818C32F1F481858A32D9F417
:1026E0008781082E000C990BC0974AE0489F900103
:1026F000499F300D11248085082E000C990BC0973E
:10270000280F391FC9018897255031092734310511
:1027100010F40C94361380E008950F931F93CF9319
:10272000DF93683071050CF4E6C08B01EC018B81FE
:10273000833509F083C06CE073E0CE010E94DFAA0C
:10274000892B31F0DF91CF911F910F910C94EC12F6
:1027500062E273E0CE010E94DFAA892B31F0DF91A3
:10276000CF911F910F910C94F71268E373E0CE01A3
:102770000E94DFAA892B31F0DF91CF911F910F9139
:102780000C9402136EE473E0CE010E94DFAA892B41
:1027900031F0DF91CF911F910F910C94E11264E61B
:1027A00073E0CE010E94DFAA892B31F0DF91CF9137
:1027B0001F910F910C940D136AE773E0CE010E94F4
:1027C000DFAA892B31F0DF91CF911F910F910C94EB
:1027D000121360E973E0CE010E94DFAA892B31F069
:1027E000DF91CF911F910F910C94171366EA73E05C
:1027F000CE010E94DFAA892B31F0DF91CF911F918A
:102800000F910C941C136CEB73E0CE010E94DFAAB5
:10281000892B31F0DF91CF911F910F910C942113EF
:1028200062ED73E0CE010E94DFAA892B09F463C038
:10283000DF91CF911F910F910C942613803509F0F1
:1028400042C068EE73E0CE010E94DFAA892B31F00E
:10285000DF91CF911F910F910C942B136EEF73E0CA
:10286000CE010E94DFAA892B31F0DF91CF911F9119
:102870000F910C94541364E174E0CE010E94DFAA1E
:10288000892B31F0DF91CF911F910F910C94581348
:102890006AE274E0CE010E94DFAA892B31F0DF9159
:1028A000CF911F910F910C945C1360E474E0CE0102
:1028B0000E94DFAA892BF9F0CE01DF91CF911F9101
:1028C0000F910C94601365E474E08AE99EE00E9425
:1028D000E7994AE050E0B8018AE99EE00E94DB9A5D
:1028E00063E474E08AE99EE00E94E799BE018AE908
:1028F0009EE00E94309A80E0DF91CF911F910F916E
:102900000895CF93DF9368307105ECF0EC0168E433
:1029100074E00E94DFAA892BB1F46EE574E0CE0169
:102920000E94DFAA892B21F0DF91CF910C94DB125A
:1029300060E874E0CE010E94DFAA892B21F0DF91CC
:10294000CF910C94DE1280E0DF91CF910895FC01CD
:10295000DC010D900020E9F71197A81BB90B18971F
:1029600098F08081843281F48181833569F4828199
:10297000843551F48381833549F48481853421F48D
:1029800081E09581913459F080E009C08035E1F70C
:1029900084818735C9F781E095819235A9F708953B
:1029A0000F931F93CF93DF93CDB7DEB7C25AD240B8
:1029B0000FB6F894DEBF0FBECDBF8C01CE01855996
:1029C0009E4F0E940B3263E974E0C8010E94970D8C
:1029D000882309F474C0CE0101960E940B32C75CB3
:1029E000DE4F1882C953D140C65CDE4F1882CA53ED
:1029F000D140C55CDE4F188219821A821B82CB53EC
:102A0000D140C15CDE4F19821882CF53D1408EE491
:102A1000CF5BDE4F8883C154D140CE5BDE4F18823E
:102A2000C254D140CD5BDE4F1882C354D140CC5B41
:102A3000DE4F188219821A821B82C454D14084E569
:102A4000C85BDE4F8883C854D140FE01E75BFE4F70
:102A50001192119292E1DF011D929A95E9F7C35A02
:102A6000DE4F188219821A821B82CD55D140CF5970
:102A7000DE4F8883C156D140CE59DE4F188219826D
:102A80001A821B82C256D140CA59DE4F8883C6566D
:102A9000D140C959DE4F1882C756D140B801CE0186
:102AA00001960E94993CCE55DD4F0FB6F894DEBFDB
:102AB0000FBECDBFDF91CF911F910F91089567E9B0
:102AC00074E0C8010E94970D811108C06BE974E0A1
:102AD000C8010E94970D882309F465C0CE010196B4
:102AE0000E940B32C75CDE4F19821882C953D14055
:102AF000C55CDE4F19821882CB53D140C35CDE4FD8
:102B000019821882CD53D140C15CDE4F18821982E0
:102B10001A821B82CF53D140CD5BDE4F18821982BF
:102B20001A821B82C354D140C95BDE4F18821982BE
:102B30001A821B82C754D14084E5C55BDE4F88836F
:102B4000CB54D140C45BDE4F188219821A821B829B
:102B5000CC54D1408DE4C05BDE4F8883C055D1405A
:102B6000CF5ADE4F188219821A821B82C155D1407A
:102B70008EE4CB5ADE4F8883C555D140FE01EA5A18
:102B8000FE4F1192119282E1DF011D928A95E9F7C1
:102B9000C659DE4F1882CA56D140B801CE010196FF
:102BA0000E94763380CF6FE974E0C8010E94970DD0
:102BB0008823D1F1CE0101960E940B32C75CDE4F13
:102BC000188219821A821B82C953D14084E5C35CE2
:102BD000DE4F8883CD53D140C25CDE4F188219820C
:102BE0001A821B82CE53D1408DE4CE5BDE4F8883A8
:102BF000C254D140FE01ED5BFE4F1192119282E171
:102C0000DF01982F1D929A95E9F7FE01E95AFE4FD0
:102C100011921192DF011D928A95E9F7B801CE0158
:102C200001960E9498323FCF63EA74E0C8010E9487
:102C3000970D811138CF67EA74E0C8010E94970DA3
:102C4000882309F467C0CE0101960E940B32C75C4D
:102C5000DE4F19821882C953D140C55CDE4F1982FC
:102C60001882CB53D140C35CDE4F19821882CD53FA
:102C7000D140C15CDE4F19821882CF53D140CF5B67
:102C8000DE4F188219821A821B82C154D140CB5B5D
:102C9000DE4F188219821A821B82C554D140C75B4D
:102CA000DE4F188219821A821B82C954D140C35B3D
:102CB000DE4F188219821A821B82CD54D14084E5DE
:102CC000CF5ADE4F8883C155D140CE5ADE4F19828C
:102CD0001882C255D140CC5ADE4F19821882C45591
:102CE000D140CA5ADE4F19821882C655D140C85AFF
:102CF000DE4F188219821A821B82C855D140C45AED
:102D0000DE4F1882CC55D140B801CE0101960E9409
:102D10004538C9CE6BEA74E0C8010E94970D88233C
:102D200009F4C1CECE0101960E940B32C75CDE4F82
:102D30001882C953D140C65CDE4F1882CA53D140B5
:102D4000C55CDE4F188219821A821B82CB53D14098
:102D5000C15CDE4F19821882CF53D1408EE4CF5B25
:102D6000DE4F8883C154D140CE5BDE4F1882C254FF
:102D7000D140CD5BDE4F1882C354D140B801CE01A3
:102D800001960E94CA3E8FCECF92DF92EF92FF92C1
:102D90000F931F938B019C011D7F0115184E210578
:102DA000310509F4E2C08B019C011E7F01154EEE36
:102DB00014072105310509F4D8C0663B4EEF7407AE
:102DC0008105910509F4D1C06B017C01E894E0F81C
:102DD0004AE1C4164FEFD406E104F10409F4C5C07A
:102DE0006F314FEF74078105910509F4BEC063365A
:102DF0004FEF74078105910509F4B7C065364FEFB1
:102E000074078105910509F4B0C06F3F4FEF740757
:102E10008105910509F4A9C064374FEF7407810556
:102E2000910509F4A2C061154EEE740741E08407D4
:102E3000910509F49AC0613140EF740741E08407BD
:102E4000910509F492C06B017C01E894C1F844E15A
:102E5000C41640EFD40641E0E406F10409F485C04D
:102E6000633145EF740741E08407910509F47DC0A3
:102E7000643148EF740741E08407910509F475C097
:102E80006B3049EF740741E08407910509F46DC088
:102E90006B017C0143E0C41A4AEFD40A41E0E40A22
:102EA000F10842E0C416D104E104F10408F45DC065
:102EB00006301A4F2140310509F457C06B302AEF14
:102EC000720721E08207910509F44FC08B019C0134
:102ED00006501D4F214031090330110521053105F0
:102EE00008F443C064364FEF740741E0840791054E
:102EF000E1F161152FEF720781059105B1F16132A2
:102F00004FEF74078105910581F1653029EF720754
:102F100021E08207910549F166304FEF740741E0E7
:102F20008407910511F16D302FEF720721E08207C0
:102F30009105D9F060324FEF740741E084079105A5
:102F4000A1F06F7E66567F4F8140910921E062308B
:102F500071058105910508F020E0822F1F910F91E6
:102F6000FF90EF90DF90CF90089521E0F6CF6F347F
:102F70002FEF72078105910509F458C068363FEFBD
:102F800073078105910509F451C061152DEE720793
:102F900021E08207910509F449C0603130EF7307E1
:102FA00031E08307910509F441C0653021EF7207D4
:102FB00021E082079105D1F1633131EF730731E0F0
:102FC0008307910599F1693121EF720721E08207AA
:102FD000910561F1633035EF730731E083079105A7
:102FE00029F1693028EF720721E082079105F1F09D
:102FF000633039EF730731E083079105B9F0613031
:103000002BEF720721E08207910581F021E0643601
:103010003FEF730731E08307910531F061317E4F57
:103020008140910509F020E0822F089521E0FCCF36
:10303000EF92FF920F931F93CF93DF93CDB7DEB73D
:10304000DA950FB6F894DEBF0FBECDBF7C010E94AB
:10305000939DAB01BC0100E011E09E012F5F3F4F4B
:10306000C7010E946A868C01089738F0BE016F5F25
:103070007F4F8AE99EE00E94309AC801D3950FB62F
:10308000F894DEBF0FBECDBFDF91CF911F910F919E
:10309000FF90EF9008954F925F926F927F928F9280
:1030A0009F92AF92BF92CF92DF92EF92FF92CF9317
:1030B000DF9300D000D01F921F92CDB7DEB72A0158
:1030C0003B01BC01990F880B990B0E9447A76983AC
:1030D0007A838B839C83A30192010E9425A66B01B6
:1030E0007C0120E030E0A9010E9445A8460157017B
:1030F000181624F0B7FAB094B7F8B09420E030E096
:1031000048E151E4C701B6010E944AA86B017C0165
:1031100020E030E04CE052E40E9445A818160CF480
:1031200042C020E030E04CE052ECC701B6010E9402
:1031300092A687FF06C0C12CD12C7CE0E72E72EC52
:10314000F72E8091900890919108A0919208B091EB
:1031500093088D839E83AF83B88720E030E040E002
:103160005FE3BC01CD010E9426A6A50194010E9447
:1031700045A81816FCF490E080E028960FB6F89465
:10318000DEBF0FBECDBFDF91CF91FF90EF90DF90FC
:10319000CF90BF90AF909F908F907F906F905F90F7
:1031A0004F900C948D11C12CD12C6CE0E62E62E472
:1031B000F62EC7CF2AE939E949E95FE36D817E81BF
:1031C0008F8198850E9426A6A50194010E9445A89A
:1031D00018160CF04AC020E030E040EC50E4C70183
:1031E000B6010E9445A818160CF120E030E040EC32
:1031F00050ECC701B6010E9492A6A301920187FD7F
:1032000097C069817A818B819C810E9445A818169C
:103210009CF420E030E0A901C701B6010E9492A60B
:1032200087FF0AC0C12CD12C760119C0C12CD12C2A
:1032300050ECE52E50E4F52EA301920169817A81CC
:103240008B819C810E9492A687FF09C020E030E01C
:10325000A901C701B6010E9445A818161CF3C701B1
:10326000B6010E9409A7CB0188CF26E636E646EED6
:103270005FE36D817E818F8198850E9426A6A501DE
:1032800094010E9445A8181614F520E030E040E9AA
:1032900051E4C701B6010E9445A818168CF020E041
:1032A00030E040E951ECC701B6010E9492A687FFC9
:1032B000D6CFC12CD12C40E9E42E41ECF42ECFCF57
:1032C000C12CD12C30E9E32E31E4F32EC8CF2AE90A
:1032D00039E949E150E46D817E818F8198850E94B2
:1032E00026A6A50194010E9445A818160CF4B7CF94
:1032F00020E030E0A901C701B6010E9445A81816D8
:1033000084F020E030E0A901C701B6010E9492A636
:1033100087FFA5CFC12CD12C2CE0E22E22ECF22E7F
:103320009ECFC12CD12C9CE0E92E92E4F92E97CFB0
:1033300069817A818B819C810E9445A818160CF4C2
:1033400071CFC12CD12C80ECE82EFE2C88CFCF92EF
:10335000DF92EF92FF920F931F93CF93DF9300D0F2
:1033600000D000D01F921F92CDB7DEB78E010F5F45
:103370001F4F9E01275F3F4FAE01455F5F4FBE016C
:103380006B5F7F4F0E94B04C882309F489C0CD80C9
:10339000DE80EF80F88428E23BE64EE65EECC70173
:1033A000B6010E9492A6882381F020E030E044E339
:1033B00053E4C701B6010E944AA82BED3FE049E45F
:1033C00050E40E9497A66B017C01C0928A08D092BB
:1033D0008B08E0928C08F0928D08C701B6010E941C
:1033E00009A788E998E00E94890A882309F458C04F
:1033F0008091940B9091950B039709F051C08091A7
:10340000960B9091970B039709F04AC040918A0858
:1034100050918B0860918C0870918D0820910C025E
:1034200080918E0890918F080E944B1820918A08F5
:1034300030918B0840918C0850918D0860917808EC
:103440007091790880917A0890917B080E9425A656
:103450006B017C0120E030E040E05FE30E9445A882
:10346000181654F020E030E040E05FEBC701B601F1
:103470000E9492A687FF14C088E998E00E94A30AE0
:1034800080918A0890918B08A0918C08B0918D084A
:103490008093780890937908A0937A08B0937B087A
:1034A0002B960FB6F894DEBF0FBECDBFDF91CF9144
:1034B0001F910F91FF90EF90DF90CF900895CF92E2
:1034C000DF92EF92FF920F931F93CF93DF9300D081
:1034D00000D000D0CDB7DEB719861E821D821982BA
:1034E0001A821B821C828E010F5F1F4F9E012B5F71
:1034F0003F4FAE01495F5F4FBE01675F7F4F0E9444
:10350000EF4D8823F1F1C980DA80EB80FC8028E25E
:103510003BE64EE65EECC701B6010E9492A6882308
:1035200081F120E030E044E353E4C701B6010E949A
:103530004AA82BED3FE049E450E40E9497A66B01B6
:103540007C0120E030E044EB52EC0E9445A887FD6E
:1035500018C020E030E044EB52E4C701B6010E94FD
:1035600092A687FF0EC0C092A008D092A108E09258
:10357000A208F092A3088FEF9FE79093CA09809367
:10358000C90929960FB6F894DEBF0FBECDBFDF91F3
:10359000CF911F910F91FF90EF90DF90CF90089502
:1035A000CF92DF92EF92FF920F931F93CF93DF930F
:1035B000CDB7DEB72F970FB6F894DEBF0FBECDBFE5
:1035C0001F8619861A861B861C861D821E821F82F4
:1035D000188619821A821B821C829E01235F3F4F2C
:1035E00079018E010F5F1F4F28503109AE01475FEF
:1035F0005F4FBE01615F7F4F0E941D4D882321F107
:10360000C984DA84EB84FC8428E23BE64EE65EEC77
:10361000C701B6010E9492A6882381F020E030E025
:1036200044E353E4C701B6010E944AA82BED3FE0F2
:1036300049E450E40E9497A66B017C01B701A60102
:1036400088E998E00E943C072F960FB6F894DEBFF9
:103650000FBECDBFDF91CF911F910F91FF90EF90E3
:10366000DF90CF900895CF92DF92EF92FF92CF93A9
:10367000DF93EC0189859A85089709F05AC08B85FC
:103680008B3309F056C08C858F3909F052C08D8577
:103690008F3F09F04EC08E858F3F09F04AC08F855D
:1036A0008F3F09F046C0698970E090E080E00E9499
:1036B00045A720E030E040E853E40E944AA86B01AF
:1036C0007C01688970E090E080E00E9445A79B0142
:1036D000AC01C701B6010E9426A620E030E044EB11
:1036E00053E40E944AA829EF3FE049E450E40E94D5
:1036F00097A620E030E44CE956E40E9497A620E02B
:1037000030E040E05FE30E9426A60E9409A76B011B
:103710008091940B9091950B029791F4C6010E94B1
:103720008D0E1092770810927608D0927508C0928C
:103730007408DF91CF91FF90EF90DF90CF900895C4
:103740008091740890917508C816D90639F7809150
:103750007608909177088630910504F7019690934A
:10376000770880937608E1CF8F929F92AF92BF92B5
:10377000CF92DF92EF92FF920F931F93CF93DF933D
:10378000CDB7DEB72D970FB6F894DEBF0FBECDBF15
:103790001D8619861A861B861C861D821E821F8224
:1037A00018868E010F5F1F4F9E012B5F3F4FAE01AA
:1037B000475F5F4FBE01635F7F4F0E94584E882373
:1037C00009F448C08D809E80AF80B884C984DA84B3
:1037D000EB84FC8428E23BE64EE65EECC501B401D6
:1037E0000E9492A68823F1F020E030E0A901C501F3
:1037F000B4010E9492A68823A9F028E23BE64EE697
:103800005EECC701B6010E9492A6882319F1A701B8
:103810009601C501B4010E9426A62FEB3EE04CE9BB
:103820005EE310C028E23BE64EE65EECC701B6015F
:103830000E9492A6882371F02FEB3EE04CE95EE3F4
:10384000C701B6010E9497A6AB01BC0188E998E0C8
:103850000E948B042D960FB6F894DEBF0FBECDBF2D
:10386000DF91CF911F910F91FF90EF90DF90CF905C
:10387000BF90AF909F908F900895CF92DF92EF927C
:10388000FF920F931F93CF93DF9300D000D000D00F
:103890001F921F92CDB7DEB71B861D821E821F822C
:1038A000188619821A821B821C828E010F5F1F4F9D
:1038B0009E012B5F3F4FAE01475F5F4FBE01655FCB
:1038C0007F4F0E94CB4F8823B1F1CD80DE80EF8007
:1038D000F88428E23BE64EE65EECC701B6010E94A2
:1038E00092A6882381F020E030E044E353E4C7014E
:1038F000B6010E944AA82BED3FE049E450E40E9443
:1039000097A66B017C01B701A60188E998E00E94A7
:103910008808882381F021EA32EB43E05FE3698184
:103920007A818B819C810E9497A6AB01BC0188E9BA
:1039300098E00E94B7082B960FB6F894DEBF0FBE32
:10394000CDBFDF91CF911F910F91FF90EF90DF904E
:10395000CF900895CF92DF92EF92FF920F931F9333
:10396000CF93DF9300D000D000D01F921F92CDB72D
:10397000DEB71D821E821F82188619821A821B8260
:103980001C828E01075F1F4F9E012F5F3F4FAE01CC
:103990004B5F5F4FBE01655F7F4F0E946652882379
:1039A000A1F125EE3FEC48EF5FE36D817E818F81D1
:1039B00098850E944AA8AB01BC0188E998E00E9462
:1039C0000F06C980DA80EB80FC8028E23BE64EE6F9
:1039D0005EECC701B6010E9492A6882381F020E028
:1039E00030E044E353E4C701B6010E944AA82BED3E
:1039F0003FE049E450E40E9497A66B017C01B701C7
:103A0000A60188E998E00E9406052B960FB6F89467
:103A1000DEBF0FBECDBFDF91CF911F910F91FF9001
:103A2000EF90DF90CF9008950F931F93CF93DF9384
:103A300000D000D01F921F92CDB7DEB71D821E822C
:103A40001F82188619821A821B821C82AE014F5F68
:103A50005F4FBE016B5F7F4F0E94154F882361F05F
:103A600009811A812B813C814D815E816F8178852E
:103A700088E998E00E94460628960FB6F894DEBFC3
:103A80000FBECDBFDF91CF911F910F9108958F92FF
:103A90009F92AF92BF92CF92DF92EF92FF920F93DD
:103AA0001F93CF93DF93CDB7DEB7AD970FB6F894E2
:103AB000DEBF0FBECDBF1DA61AA619A61D8E1E8E77
:103AC0001F8E18A2198E1A8E1B8E1C8E1D8A1E8A9E
:103AD0001F8A188E198A1A8A1B8A1C8A1D861E86BE
:103AE0001F86188A19861A861B861C861D821E82CE
:103AF0001F8218861BA61AA219A219821A821B827B
:103B00001C829E012F5F3F4F3F932F93205E3F4FBC
:103B10003F932F932E5F3F4F3F932F93285F3F4F4D
:103B20003F932F93265231093F932F932C5F3F4FA2
:103B30003F932F932C5F3F4F3F932F93215E3F4F37
:103B40003F932F932750310949012E5F3F4F590171
:103B50002651310969012C5F3F4F79018E01075EC3
:103B60001F4F285F3F4FAE01475D5F4FBE01635D52
:103B70007F4F0E9438500FB6F894DEBF0FBECDBF06
:103B8000882321F1C98CDA8CEB8CFC8C20E034E2A8
:103B900044E759ECC701B6010E9492A687FD16C002
:103BA0008D889E88AF88B88C20E034E244E759ECD9
:103BB000C501B4010E9492A687FD08C09501840149
:103BC000B701A60188E998E00E944606AD960FB6B7
:103BD000F894DEBF0FBECDBFDF91CF911F910F9143
:103BE000FF90EF90DF90CF90BF90AF909F908F901D
:103BF00008952F923F924F925F926F927F928F9291
:103C00009F92AF92BF92CF92DF92EF92FF920F936B
:103C10001F93CF93DF9300D000D0CDB7DEB7FC0168
:103C20004380548065807680F4E04F16F9EF5F069C
:103C3000F1E06F06710409F0FBC0160127011E8335
:103C40000D833C832B833A018B016C011A8219820C
:103C5000BE016F5F7F4F0E947A53F801808318E2A4
:103C6000E12E1BE6F12E0EE61EEC9E012F5F3F4F6C
:103C70004AE057ED63E27CE3C6010E94CB5BF301AF
:103C80006083718382839383BE016F5F7F4FC60120
:103C90000E947A53282F30E0482F437050E0EB8188
:103CA000FC8151834083A9015595479555954795CA
:103CB0004370552791E0452B09F490E0ED81FE819A
:103CC000908394E0359527959A95E1F723703327F3
:103CD00091E0232B09F490E0F20190838295869580
:103CE0008695837090E0F1019183808318E2E12E44
:103CF0001BE6F12E0EE61EEC9E012F5F3F4F47E1C3
:103D000057EB61ED78E3C6010E94CB5BF501608360
:103D10007183828393834FEF5FEFBE016F5F7F4FAD
:103D2000C6010E94EB5AF401918380839E012F5FAC
:103D30003F4F47E157EB61ED78E3C6010E94FF5A20
:103D4000EC8DFD8D60837183828393839E012F5F51
:103D50003F4F47E157EB61ED78E3C6010E94FF5A00
:103D6000EE8DFF8D60837183828393832FEF3FEF0E
:103D7000A901BE016F5F7F4FC6010E94885BE8A169
:103D8000F9A160832FEF3FEFA901BE016F5F7F4F65
:103D9000C6010E94885BEAA1FBA160839E012F5FA0
:103DA0003F4F45E95FEB66ED73E3C6010E94E75CB8
:103DB000ECA1FDA160837183828393839E012F5FB9
:103DC0003F4F45E95FEB66ED73E3C6010E94E75C98
:103DD000EEA1FFA160837183828393839E012F5F95
:103DE0003F4F4AE057ED63E27CE3C6010E94805AF0
:103DF000E8A5F9A5608371838283938381E0269689
:103E00000FB6F894DEBF0FBECDBFDF91CF911F91EB
:103E10000F91FF90EF90DF90CF90BF90AF909F9069
:103E20008F907F906F905F904F903F902F9008956C
:103E300080E0E5CF8F929F92AF92BF92CF92DF92B8
:103E4000EF92FF920F931F93CF93DF93CDB7DEB71F
:103E5000A7970FB6F894DEBF0FBECDBF1FA2198E75
:103E60001A8E1B8E1C8E1EA21DA21D8A1E8A1F8AE0
:103E7000188E1E8E1D8E198A1A8A1B8A1C8A1D8610
:103E80001E861F86188A1CA21BA219861A861B86EC
:103E90001C861D821E821F82188619821A821B822E
:103EA0001C829E012F5F3F4F3F932F932C5F3F4F0C
:103EB0003F932F932C5F3F4F3F932F93265E3F4FAF
:103EC0003F932F932F5F3F4F3F932F9327513109FC
:103ED0003F932F932C5F3F4F3F932F93245F3F4F90
:103EE0004901285031095901265F3F4F69012A5F76
:103EF0003F4F79018E010A5D1F4F24503109AE01F9
:103F0000475E5F4FBE01695D7F4F0E94F91D0FB68E
:103F1000F894DEBF0FBECDBF882361F02D813E81B6
:103F20004F81588569857A858B859C850FEA14E0D9
:103F30000E94D30DA7960FB6F894DEBF0FBECDBF7B
:103F4000DF91CF911F910F91FF90EF90DF90CF9075
:103F5000BF90AF909F908F900895CF93DF93EC0127
:103F60008B819C81AD81BE8188309F4FA105B105B9
:103F7000F1F489859A850697D4F08B858B33B9F453
:103F80008C858F39A1F48D858F3F89F48F858A3395
:103F900021F48FEF9FEF0E945C0E8E85811113C07C
:103FA0008F858D3139F41092890810928808DF913D
:103FB000CF9108958035D9F781E090E090938908FA
:103FC00080938808F4CF813091F78F858D3179F710
:103FD00082E090E0F3CFCF92DF92EF92FF92CF9307
:103FE000DF93EC0190E080E00E9445A720E030E004
:103FF00040E853E40E944AA86B017C01BE0190E0B6
:1040000080E00E9445A79B01AC01C701B6010E9458
:1040100026A620E030E044EB53E40E944AA829EFB2
:104020003FE049E450E40E9497A620E030E44CE9E8
:1040300056E40E9497A620E030E040E05FE30E9453
:1040400026A60E9409A7CB01DF91CF91FF90EF90A8
:10405000DF90CF9008954F925F926F927F928F92F0
:104060009F92AF92BF92CF92DF92EF92FF920F9307
:104070001F93CF93DF931F921F92CDB7DEB7FC0142
:1040800083819481A581B68180339F4FA140B10582
:1040900009F04AC08185928541970CF445C083851B
:1040A0008B3309F041C084858F39F1F56F011A8295
:1040B0001982BE016F5F7F4FCF010E947A538981C1
:1040C0009A8105969A83898318E2E12E1BE6F12EE8
:1040D0000EE61EEC9E012F5F3F4F4AE057ED63E274
:1040E0007CE3C6010E94CB5B4B015C01F601028DB3
:1040F00010E0102F0027818D080F111D608D70E0DA
:10410000878990E00E94EB1F6C012801110F66085F
:104110007708C501B4010E9410A7AB01BC0193014F
:104120008201C6010E94BF0E0F900F90DF91CF91C8
:104130001F910F91FF90EF90DF90CF90BF90AF90C5
:104140009F908F907F906F905F904F9008958F9287
:104150009F92AF92BF92CF92DF92EF92FF920F9316
:104160001F93CF93DF93CDB7DEB7CF5ED1090FB6E4
:10417000F894DEBF0FBECDBFF12CE12C00E010E0C3
:10418000980146E06FE0CE0101960E943353809182
:10419000C1099091C20918161906ACF080E0C1510E
:1041A000DF4F0FB6F894DEBF0FBECDBFDF91CF91CA
:1041B0001F910F91FF90EF90DF90CF90BF90AF9045
:1041C0009F908F9008951092C2091092C109C090DB
:1041D000AC08D090AD08E090AE08F090AF08C701F1
:1041E000B6019F772AE037ED43E25CE30E9445A8E1
:1041F0001816A4F68090B7089090B808A090B90857
:10420000B090BA08C501B4019F772AE037ED43E2C8
:104210005CE30E9445A818160CF0C0CF95018401FC
:10422000B701A601CE0101960E94CD4E50E040E0BC
:10423000BE016F5F7F4F8091450B9091460B0E94AE
:10424000FD70ADCF8F929F92AF92BF92CF92DF92CF
:10425000EF92FF920F931F93CF93DF93CDB7DEB70B
:10426000CF5ED1090FB6F894DEBF0FBECDBFF12CE3
:10427000E12C00E010E0980146E06FE0CE010196ED
:104280000E9433532091C5093091C60912161306B6
:104290000CF065C08091C7099091C80918161906DD
:1042A0000CF05DC0215031093093C6092093C50937
:1042B00001979093C8098093C709C090CA08D0900D
:1042C000CB08E090CC08F090CD088090C608909084
:1042D000C708A090C808B090C90828E23BE64EE69F
:1042E0005EECC501B4010E9492A6882381F020E013
:1042F00030E044E353E4C501B4010E9497A62BEDDE
:104300003FE049E450E40E944AA84B015C0195015A
:10431000840150E040E061E0CE0101960E946D4FC3
:1043200050E040E0BE016F5F7F4F8091450B909160
:10433000460B0E94FD70C151DF4F0FB6F894DEBFEF
:104340000FBECDBFDF91CF911F910F91FF90EF90E6
:10435000DF90CF90BF90AF909F908F90089580E0B6
:10436000EACFAF92BF92CF92DF92EF92FF920F937C
:104370001F93CF93DF93CDB7DEB7CF5ED1090FB6D2
:10438000F894DEBF0FBECDBF5C01F12CE12C00E044
:1043900010E0980146E06FE0CE0101960E94335391
:1043A0008091C9099091CA09181619060CF04DC0E0
:1043B0001092CA091092C909C090A008D090A10813
:1043C000E090A208F090A30828E23BE64EE65EECFF
:1043D000C701B6010E9492A6882381F020E030E058
:1043E00044E353E4C701B6010E9497A62BED3FE0DA
:1043F00049E450E40E944AA86B017C0187017601E0
:10440000950141E050E061E0CE0101960E94A24D8D
:1044100050E040E0BE016F5F7F4F8091450B90916F
:10442000460B0E94FD70C151DF4F0FB6F894DEBFFE
:104430000FBECDBFDF91CF911F910F91FF90EF90F5
:10444000DF90CF90BF90AF90089580E0ECCF8F9237
:104450009F92AF92BF92EF92FF920F931F93CF93D1
:10446000DF93CDB7DEB7CF5ED1090FB6F894DEBFCC
:104470000FBECDBFF12CE12C00E010E0980146E02A
:104480006FE0CE0101960E9433538091D109909143
:10449000D209181619069CF080E0C151DF4F0FB603
:1044A000F894DEBF0FBECDBFDF91CF911F910F916A
:1044B000FF90EF90BF90AF909F908F9008950197DD
:1044C0009093D2098093D10980ED98E00E946B9679
:1044D00020E831E541E050E00E94B1A549010E9489
:1044E00045A78B019C01F12CE12CA40161E0CE01D8
:1044F00001960E946C4C50E040E0BE016F5F7F4F20
:104500008091450B9091460B0E94FD70882321F20B
:10451000C4010E94B121C1CFEF92FF920F931F936C
:10452000CF93DF93CDB7DEB7CF5ED1090FB6F89446
:10453000DEBF0FBECDBFF12CE12C00E010E09801F2
:1045400046E06FE0CE0101960E9433538091D3097B
:104550009091D40918161906E4F501979093D4099F
:104560008093D30926E53EE04DEE5FE36091EF08CE
:104570007091F0088091F1089091F2080E944AA889
:1045800020E030E04AE754E40E944AA87B018C0115
:1045900020E050E040E061E0CE0101960E945B51D6
:1045A00050E040E0BE016F5F7F4F8091450B9091DE
:1045B000460B0E94FD70C151DF4F0FB6F894DEBF6D
:1045C0000FBECDBFDF91CF911F910F91FF90EF9064
:1045D000089580E0F0CF2F923F924F925F926F92BA
:1045E0007F928F929F92AF92BF92CF92DF92EF9283
:1045F000FF920F931F93CF93DF93CDB7DEB7CF5FBB
:10460000D1090FB6F894DEBF0FBECDBFF12CE12C5F
:1046100000E010E0980146E06FE0CE0101960E94B4
:1046200033536091D3097091D409161617060CF014
:10463000EBC24091D5095091D609141615060CF01D
:10464000E3C22091D7093091D8098091D90990917E
:10465000DA091216130624F0181619060CF0D4C243
:10466000615071097093D4096093D3094150510985
:104670005093D6094093D5092150310937FD40C1E7
:104680003093D8092093D709019797FD3EC19093A5
:10469000DA098093D9098091F3089091F408A091E8
:1046A000F508B091F608CE50DF4F88839983AA832E
:1046B000BB83C25FD0409091F808C250DF4F98830F
:1046C000CE5FD040A091F708C150DF4FA883CF5FE5
:1046D000D04080ED98E00E946B9620E831E541E003
:1046E00050E00E94B1A519010E9445A73B018C0131
:1046F000CA50DF4F6883C65FD040C950DF4F788211
:10470000C75FD040C850DF4F8883C85FD040C750D4
:10471000DF4F1883C95FD040C051DF4F39822882F4
:10472000C05FD0408090CA089090CB08A090CC0881
:10473000B090CD082DEC3CEC4CEC5DE3C501B40130
:104740000E9445A818160CF05CC020E030E0A901DA
:10475000CE50DF4F688179818A819B81C25FD040D2
:104760000E9445A818160CF04CC0A5019401CE502B
:10477000DF4F688179818A819B81C25FD0400E942E
:1047800097A66B017C0120E030E040EC51E40E94F0
:1047900045A8181694F4C1010196C051DF4F9983C2
:1047A0008883C05FD04020E030E040EC51E4C70196
:1047B000B6010E9425A66B017C0120E030E041E6B5
:1047C00055E4C701B6010E944AA89B01AC01662DC1
:1047D000772D802F912F0E9426A6CA50DF4F688325
:1047E000C65FD040C950DF4F7883C75FD040C85004
:1047F000DF4F8883C85FD040C750DF4F9883C95FC1
:10480000D040C0907909D0907A09E0907B09F0906F
:104810007C0920E030E044EB53ECC701B6010E9474
:1048200045A818160CF076C02091A0083091A10878
:104830004091A2085091A308C701B6010E9426A684
:10484000762E672E582E492E20E030E044EB53ECB4
:104850000E9445A818160CF473C0C0909E09D09011
:104860009F09E090A009F090A10920E030E044EB1E
:1048700053ECC701B6010E9445A818160CF08FC072
:104880002091A0083091A1084091A2085091A3085E
:10489000C701B6010E9426A6162F072FE82EC92EA3
:1048A00020E030E044EB53ECD8016B2F7A2F0E94CC
:1048B00045A818160CF0B8C028E23BE64EE65EECC0
:1048C000D8016B2F702F8E2D9C2D0E9492A68823CD
:1048D00009F4AAC020E030E044E353E4D8016B2F90
:1048E000702F8E2D9C2D0E9497A62BED3FE049E462
:1048F00050E40E944AA8162F072FE82EC92E94C014
:104900001092D8091092D709BFCE1092DA091092EE
:10491000D909C1CE709075096090760950907709D9
:104920004090780920E030E044EB53ECD301F201F1
:104930006B2F7A2F8F2F9E2F0E9445A8181634F5C3
:1049400028E23BE64EE65EECD301F2016B2F762DBA
:104950008F2F942D0E9492A6882309F47ECF20E009
:1049600030E044E353E4D301F2016B2F762D8F2F17
:10497000942D0E9497A62BED3FE049E450E40E945D
:104980004AA8762E672E582E492E67CF28E2722E1F
:104990003BE6632E4EE6542E5EEC452E5ECF109124
:1049A0009A0900919B09E0909C09C0909D0920E024
:1049B00030E044EB53ECD8016B2F7A2F8E2D9C2DD9
:1049C0000E9445A818160CF477CFC0905409D090D7
:1049D0005509E0905609F090570920E030E044EB8B
:1049E00053ECC701B6010E9445A818160CF448CF35
:1049F0001091500900915109E0905209C09053095B
:104A000020E030E044EB53ECD8016B2F7A2F8E2D51
:104A10009C2D0E9445A818160CF44ECF18E20BE608
:104A20008EE6E82E9EECC92E90914809C650DF4FC5
:104A30009883CA5FD040A0914909C550DF4FA88331
:104A4000CB5FD04030904A0920904B09D0904C0960
:104A5000B0914D09C450DF4FB883CC5FD0408091F6
:104A60004E09C350DF4F8883CD5FD040F0904F098F
:104A700026E53EE04DEE5FE3C501B4010E944AA881
:104A800020E030E04AE754E40E944AA820E030E009
:104A900041E655E40E9497A69F938F937F936F936F
:104AA000FF92C350DF4F9881CD5FD0409F93C45099
:104AB000DF4FA881CC5FD040AF93DF922F923F921F
:104AC000C550DF4FB881CB5FD040BF93C650DF4F9A
:104AD0008881CA5FD0408F9381E08F938FEF8F934F
:104AE000CF92EF920F931F934F925F926F927F92AC
:104AF000CF50DF4F9881C15FD0409F93C051DF4FAF
:104B0000A881C05FD040AF93C750DF4FB881C95F65
:104B1000D040BF93C850DF4F8881C85FD0408F938B
:104B2000C950DF4F9881C75FD0409F93CA50DF4F75
:104B3000A881C65FD040AF93B12CA12CC150DF4FEC
:104B4000C880CF5FD040C250DF4FE880CE5FD040FA
:104B500010E000E0CE50DF4F288139814A815B812F
:104B6000C25FD04061E0CE0101960E94A75150E0A3
:104B700040E0BE016F5F7F4F8091450B9091460BE7
:104B80000E94FD70E82E02EA19E0C450DF4F6881F0
:104B9000CC5FD040C350DF4F9881CD5FD0402D2DEA
:104BA000362F492F5F2DC650DF4FB881CA5FD040E6
:104BB000C550DF4FA881CB5FD040F1016B2F7A2F1A
:104BC0008F2F9E2F0E94D30D0FB6F894DEBF0FBE1D
:104BD000CDBF8E2DC150DF4F0FB6F894DEBF0FBE94
:104BE000CDBFDF91CF911F910F91FF90EF90DF909C
:104BF000CF90BF90AF909F908F907F906F905F907D
:104C00004F903F902F900895E12CE3CF8091720850
:104C10009091730882309105E1F18CF4009709F1CD
:104C2000019759F18091720890917308019686302E
:104C30009105ACF5909373088093720808958430C1
:104C4000910551F174F0059769F70E94EB2280916C
:104C5000980B882339F361E088E998E00E942908DD
:104C6000E1CF0E9422218091980B8823D9F261E044
:104C700088E998E00E94D307D5CF0E94272280912F
:104C8000980B882379F261E088E998E00E94730725
:104C9000C9CF0E94A720C6CF0E948C22C3CF1092FA
:104CA00073081092720808950F931F93CF93DF93A8
:104CB000E8E8FBE01382128288EE93E0A0E0B0E027
:104CC00084839583A683B78382EC96E09183808367
:104CD000E8E7FBE01386128614861586168617868B
:104CE00088E290E09183808348EC50E060E070E0DF
:104CF000428353836483758380E293E0A0E0B0E055
:104D000086839783A087B187E8E6FBE01386128647
:104D1000148615861686178629E230E031832083B3
:104D2000428353836483758386839783A087B18787
:104D3000E8E5FBE01386128614861586168617862C
:104D40002AE230E031832083428353836483758376
:104D500086839783A087B187E8E4FBE013861286F9
:104D600014861586168617862BE230E03183208361
:104D7000428353836483758386839783A087B18737
:104D800065E387E49BE00E942C948EE490E00E940F
:104D9000439DEC0102E310E025E142E065E30E945F
:104DA000264AD093460BC093450B87E29BE00E94B6
:104DB000A2438AE09BE00E94A24389EA9AE00E9413
:104DC000484088E49AE00E94484087EE99E00E94BB
:104DD0004840C8E9D8E01092F3081092F408109205
:104DE000F5081092F6081092F7081092F808109241
:104DF000F9081092FA081092FB081092FC0880E360
:104E00008093FD0885E2E9E3F2E0AEEFB8E00190BF
:104E10000D928A95E1F71092B8091092B709109295
:104E2000BA091092B9091092BC091092BB091092EC
:104E3000BE091092BD091092C0091092BF091092CC
:104E4000C2091092C1091092C4091092C3091092AC
:104E5000C6091092C5091092C8091092C70910928C
:104E6000CA091092C9091092CC091092CB0910926C
:104E7000CE091092CD091092D0091092CF0910924C
:104E8000D2091092D1091092D4091092D30910922C
:104E9000D6091092D5091092D8091092D70910920C
:104EA000DA091092D9091092DC091092DB091092EC
:104EB000DE091092DD091092E0091092DF091092CC
:104EC000E2091092E1091092E4091092E3091092AC
:104ED000E6091092E509188219821A821B821C8247
:104EE0001D821E821F8280E090E0A0E4B0EC8887E3
:104EF0009987AA87BB871C861D861E861F86188AEF
:104F0000198A1A8A1B8A1C8A1D8A1E8A1F8A198E70
:104F1000188E1B8E1A8E1D8E1C8E80E48E8F1F8E17
:104F200018A219A21AA21CA21BA21EA21DA218A698
:104F30001FA289A71AA61BA61CA61DA61EA61FA6F1
:104F400018AA19AA1AAA1BAA1CAA1DAA1FAA1EAA35
:104F50006AEF77E087ED98E00E94C9AA6AEF77E0F0
:104F600083EE98E00E94C9AA1EAE1DAE1CAE1AAE1A
:104F700019AE18AE1092EF081092F0081092F108D6
:104F80001092F20885E2EEEFF8E0A3E2B9E00190BA
:104F90000D928A95E1F785E2EEEFF8E0A8E4B9E03A
:104FA00001900D928A95E1F785E2EEEFF8E0ADE62B
:104FB000B9E001900D928A95E1F785E2EEEFF8E015
:104FC000A2E9B9E001900D928A95E1F7DF91CF91C6
:104FD0001F910F91089582EC96E09093890B809336
:104FE000880B0C94B14667E375E08AE99EE00E9465
:104FF0001E9A8AE99EE00C94BE9765E275E08AE904
:105000009EE00E941E9A8AE99EE00C94BE9763E19E
:1050100075E08AE99EE00E941E9A8AE99EE00C945F
:10502000BE9780919A0B81112DC08091960B909123
:10503000970B2091940B3091950B8217930739F0C1
:1050400085E090E0909387088093860808952091EA
:1050500086083091870821153105A1F021503109CA
:1050600030938708209386088230910511F40C94C0
:10507000F3278330910511F40C94FD27019711F467
:105080000C9407280895CF93DF93EC018B819C81CA
:10509000AD81BE8181159F4EA140B10519F589856D
:1050A0009A850897FCF08B858B33E1F48C858F39DA
:1050B000C9F48D85803FB1F48E85813899F48F8550
:1050C000843809F05BC09B8980919A0B90FF0DC0DA
:1050D000811102C00E94FD2783E090E09093950B20
:1050E0008093940BDF91CF91089591FF40C081117F
:1050F00002C00E94F32782E090E09093950B80938A
:10510000940B80919A0B8111EDCF8B8968E773E046
:1051100082FD02C066E673E08AE99EE00E941E9A64
:105120008B8964E573E083FD02C061E473E08AE982
:105130009EE00E941E9A8989829586958695837045
:10514000CA89C695D0E09AE5899FC00DD11D11246A
:1051500062E373E08AE99EE00E94E7994AE050E04A
:10516000BE018AE99EE0DF91CF910C94E29A811111
:1051700002C00E94072881E090E0BFCF863841F44A
:105180006FE173E08AE99EE0DF91CF910C941E9A63
:105190008D3A09F0A7CF8889833009F0A3CF6989B8
:1051A000062E000C770B880B990B0E9447A72BED5E
:1051B0003FE049E450E40E9497A60E9409A7CB0172
:1051C000DF91CF910C94A60ECF92DF92EF92FF92D7
:1051D000CF93DF93EC01CB80DC80ED80FE808F816C
:1051E0008631A1F469E873E08AE99EE00E94E799BC
:1051F0002AE030E0B701A6018AE99EE0DF91CF9175
:10520000FF90EF90DF90CF900C940E9B80918008E0
:10521000909181088A30910528F401969093810835
:1052200080938008C701B6010E94B717811141C160
:10523000C701B6010E94C41681113BC188E49BE0FE
:105240000E94EC0C28E0C2162FEFD206E104F10414
:1052500049F4CE01DF91CF91FF90EF90DF90CF9096
:105260000C94AD1F80E5C8168FEFD806E104F10459
:1052700049F4CE01DF91CF91FF90EF90DF90CF9076
:105280000C94331BC1142FEED20621E0E206F10488
:1052900049F4CE01DF91CF91FF90EF90DF90CF9056
:1052A0000C9443288DE0C81681EFD80681E0E8060B
:1052B000F10469F48F81882309F4FBC0CE01DF91EA
:1052C000CF91FF90EF90DF90CF900C94A71922E13F
:1052D000C21621EFD20621E0E206F10469F48F81C3
:1052E000882309F4E6C0CE01DF91CF91FF90EF90C3
:1052F000DF90CF900C94D01A8AE1C81681EFD806BF
:1053000081E0E806F10469F48091990B8111D1C024
:10531000CE01DF91CF91FF90EF90DF90CF900C9472
:105320005F1A2BE0C21625EFD20621E0E206F10457
:1053300069F48091990B8111BCC0CE01DF91CF91AE
:10534000FF90EF90DF90CF900C94B41B81E0C816D3
:1053500088EFD80681E0E806F10469F48091990BA2
:105360008111A7C0CE01DF91CF91FF90EF90DF9028
:10537000CF900C94141D22E0C21628EFD20621E033
:10538000E206F10469F48091990B811192C0CE017B
:10539000DF91CF91FF90EF90DF90CF900C943D1C68
:1053A00085E0C81688EFD80681E0E806F10469F4C4
:1053B0008091990B81117DC0CE01DF91CF91FF903B
:1053C000EF90DF90CF900C94471D24E0C21629EF98
:1053D000D20621E0E206F10449F4CE01DF91CF913B
:1053E000FF90EF90DF90CF900C941A1F85E0C816C5
:1053F00089EFD80681E0E806F10469F480919A0B00
:10540000811157C0CE01DF91CF91FF90EF90DF90D7
:10541000CF900C941818D701C6018E50984FA14018
:10542000B1090297A105B10548F321E1C21628EFA1
:10543000D20621E0E206F10409F3D701C601877F15
:1054400082309B4FA140B105C9F2D701C6018151FD
:105450009B4FA140B1090297A105B10578F282E006
:10546000C8168DEFD80681E0E806F10449F4CE01B4
:10547000DF91CF91FF90EF90DF90CF900C94AA1C1A
:1054800020E3C2162FEFD20621E0E206F10449F430
:10549000CE01DF91CF91FF90EF90DF90CF900C94F1
:1054A0002B2080919A0B811104C080910E028111F2
:1054B000A9CFDF91CF91FF90EF90DF90CF9008952B
:1054C0006F927F928F929F92AF92BF92CF92DF9214
:1054D000EF92FF920F931F93CF93DF934C01FC0148
:1054E000C181CF70D0E0239685E0C82ED12C6624F0
:1054F00063948DE59CE00E942B977C01540191E020
:10550000E114F10459F08DE59CE00E94E54763E069
:1055100070E080E090E00E94C49DEBCF81E0EC164B
:10552000FD060CF480E0792E7624782A41F5F50109
:1055300001915F0110E0E114F10409F41160B80178
:105540008DE59CE00E940B4863E070E080E090E015
:105550000E94C49D8DE59CE00E942B97892B51F001
:105560008DE59CE00E94E5477724739480179107AE
:1055700009F0712CFFEFEF1AFF0A972DCFCF911191
:1055800012C022E330E040E050E062E070E080E0F2
:1055900090E00E94139D0E94C49D81E0C81AD1082A
:1055A00009F0A7CF712C872DDF91CF911F910F911B
:1055B000FF90EF90DF90CF90BF90AF909F908F9033
:1055C0007F906F90089580918408909185080A9744
:1055D00020F08BE495E00C94602A08956F927F92FE
:1055E0008F929F92AF92BF92CF92DF92EF92FF92F3
:1055F0000F931F93CF93DF934C01FC01C181CF70B8
:10560000D0E0239685E0C82ED12C662463948AE7E7
:105610009DE00E942B977C01540191E0E114F1047C
:1056200059F08AE79DE00E94E54763E070E080E082
:1056300090E00E94C49DEBCF81E0EC16FD060CF4D7
:1056400080E0792E7624782A41F5F50101915F01F9
:1056500010E0E114F10409F41160B8018AE79DE05B
:105660000E940B4863E070E080E090E00E94C49DDF
:105670008AE79DE00E942B97892B51F08AE79DE0F5
:105680000E94E547772473948017910709F0712CE5
:10569000FFEFEF1AFF0A972DCFCF911112C022E32F
:1056A00030E040E050E062E070E080E090E00E9496
:1056B000139D0E94C49D81E0C81AD10809F0A7CFAC
:1056C000712C872DDF91CF911F910F91FF90EF905B
:1056D000DF90CF90BF90AF909F908F907F906F9012
:1056E000089580918208909183080A9720F088E4B9
:1056F00095E00C94EE2A08950F931F93CF93DF93B8
:10570000CDB7DEB7CB54D1400FB6F894DEBF0FBE95
:10571000CDBF88E59BE00E94EC0C88E49AE00E94F3
:105720005A418C010E94150F6DEA76E0C8010E9473
:10573000970D882399F0B801CE0101960E94543F3D
:1057400080919C0B811105C0CE01875C9E4F0E9409
:10575000602ACE01875C9E4F0E94EE2AC55BDE4F19
:105760000FB6F894DEBF0FBECDBFDF91CF911F9172
:105770000F91089588E89BE00E944C441816190682
:10578000BCF488E89BE00E942344682F88E49AE0F8
:105790000E9467408130910511F40C947C2B029794
:1057A000029730F488E49AE00E945A410C94071161
:1057B00008950F931F93CF93DF93CDB7DEB7CB54EC
:1057C000D1400FB6F894DEBF0FBECDBF88E59BE099
:1057D0000E94EC0C80917E0890917F088A309105A0
:1057E00028F4019690937F0880937E0887EE99E0D5
:1057F0000E944F418C010E94150F6DEA76E0C801AE
:105800000E94970D8823F9F0B801CE0101960E94FD
:10581000543F80919C0B811105C0CE01875C9E4F47
:105820000E94602ACE01875C9E4F0E94EE2AC55BD3
:10583000DE4F0FB6F894DEBF0FBECDBFDF91CF9124
:105840001F910F9108958091990B882381F3C801CE
:105850000E94D014ECCF8AE79DE00E942B97892B01
:1058600071F08AE79DE00E94E54797FD08C0BC0102
:105870008AE09BE00E94B34381110C94490D089586
:10588000CF92DF92EF92FF920F931F93CF93DF930C
:105890008DE59CE00E942B97892B09F475C38DE55B
:1058A0009CE00E94E54797FD6FC3BC0187E29BE047
:1058B0000E94B343882309F467C388E79BE00E94F2
:1058C000EC0C80918408909185088A30910528F429
:1058D0000196909385088093840887E29BE00E945C
:1058E0001744EC0187E29BE00E940D44BE010E9438
:1058F0003B43EC010E9437438C0187E29BE00E940E
:1059000017447C0180910D02882371F0CE010E9422
:105910003543892B49F08881998103972CF0CE017A
:105920000E9435430E94EE2A0115110599F525E0E4
:10593000E216F10409F56E81862F90E0982F8827F2
:105940006D81680F792F711D072E000C880B990B44
:105950000E9447A720E030E040E251E40E9497A671
:10596000AB01BC0188E998E00E948B04882321F0F8
:1059700088E998E00E94C304209709F405C3CE018A
:10598000DF91CF911F910F91FF90EF90DF90CF901B
:105990000C94479D0530110579F30031110519F577
:1059A00034E0E316F10441F76C8170E0762F66274E
:1059B000072E000C880B990B2D81622B0E9445A7A6
:1059C00020E030E040E05FE30E944AA8AB01BC0168
:1059D00088E998E00E940605882371F288E998E03A
:1059E0000E94A605C9CF0131110581F584E0E816B2
:1059F000F10411F61C816D816F7070E090E080E021
:105A00000E9447A720E030E040E251E40E9497A6C0
:105A10006B017C01612F6F7770E090E080E00E9465
:105A200047A79B01AC01C701B6010E9426A617FF3C
:105A300006C022EA32EB43E05FE30E9497A6AB0187
:105A4000BC0188E998E00E940F06C6CF003211051C
:105A500009F492CFC80183978230910508F48CCF66
:105A600003978230910508F487CF8A97029708F44C
:105A700083CF0235110561F524E0E216F10409F047
:105A80007BCF6D81862F90E0982F88276C81680FDF
:105A9000792F711D072E000C880B990B0E9447A7C8
:105AA00020E030E040E251E40E9497A6AB01BC0147
:105AB00088E998E00E94B708882309F45DCF88E957
:105AC00098E00E94EF0888E998E00E94640954CFAA
:105AD0000335110509F06EC033E0E316F10409F057
