:100000000C9433040C94FAA50C9425A60C9450A6D9
:100010000C947BA60C94A6A60C94D1A60C94FCA6DA
:100020000C9427A70C9464040C9464040C9464044A
:100030000C9464040C9464040C9464040C946404A0
:100040000C9464040C9464040C9464040C94640490
:100050000C9464040C9464040C9464040C94A2A79F
:100060000C9464040C94D6A20C940CA30C94640419
:100070000C9464040C9464040C9464040C94640460
:100080000C9464040C9464040C9464040C94640450
:100090000C94DF4E0C94094F0C9464040C9464048B
:1000A0000C9464040C9464040C9464040C94640430
:1000B0000C9464040C9464040C94CC4D0C942B4D5F
:1000C0000C947B4E0C9464040C9464040C94524F76
:1000D0000C947C4F0C9464040C946DA30C94A3A317
:1000E0000C9464040C94A99B0C9460670C94764C5B
:1000F0000C94A0950C94D89B0C94BAA80C94D8A8F6
:100100000C9477280C94254D0C94CFAB0C94EEA84E
:100110000C94F09B0C94C09D0C94D7A30C9423AB2F
:100120000C947EAB0C94DCA80C9474AB0C949D28BE
:100130000C949EA50C94C0A80C94EDA50C94B0ABA7
:100140000C94862A0C94069C0C94C1A10C94BFAB11
:100150000C94ADAB0C94D3930C94CBAB0C94B153E7
:100160000C94334F0C9495500C9484A10C94A6A538
:100170000C9417A20C947AAB0C94AC980C94E0A855
:100180000C94D69D0C946E5C0C944CAB0C949EA17C
:100190000C9489960C94AC9D0C94B2A10C9467AB12
:1001A0000C9400A90C94C2AB0C94D2A80C9446AB4E
:1001B0000C9437A20C94D4A50C94B09B0C941D54B1
:1001C0000C94CA4D0C94C8AB0C946EAB0C941D9857
:1001D0000C9462930C943D4C0C94B5930C9489ABA5
:1001E0000C94B3AB0C94FFA80C9417540C9477ABFD
:1001F0000C94AAAB0C94664C0C94FA500C94BFA5CA
:100200000C9490A10C945F910C94FCA80C94E6A81B
:100210000C9449AB0C948AA70C94F4A80C94EC9D14
:100220000C9463AB0C9498930C9492280C9486AB2A
:100230000C946B910C94229C0C94AC510C947FA563
:100240000C946E970C94CEA80C94EAA80C946AAB0C
:100250000C9482AB0C9436A30C9400940C94C8A814
:100260000C94F9940C94839D0C940E9A0C94EA953A
:100270000C94C5AB0C945B950C94E0A50C9440A336
:100280000C94534C0C949A280C94B9AB0C94B2A5D2
:100290000C94A64F0C94A5280C9425940C94029EC3
:1002A0000C942B930C9469910C94669B0C94CDA3A5
:1002B0000C948D500C9495280C94D6AB0C94C4A837
:1002C0000C94F8A80C947F2B0C94D3AB0C94B6AB85
:1002D0000C94DE9D0C9471AB0C9442AB0C9404A472
:1002E0000C94BCAB0C94F49D0C948F280C94C89D7A
:1002F0006364696E6F70737578585B004E414E4948
:100300004E495459494E46CDCCCC3D0AD7233C17D3
:10031000B7D13877CC2B329595E6241FB14F0A0020
:100320000020410000C84200401C4620BCBE4CCA10
:100330001B0E5AAEC59D743D3D3D204B4559205383
:1003400054524F4B45203D3D3D00404247425055A1
:100350002C436F757273652C004042474250552CF8
:10036000547261636B2C46616C7365004042474276
:1003700050552C547261636B2C5472756500404269
:10038000474250552C56616E652C46616C73650072
:100390004042474250552C56616E652C547275652B
:1003A0000052656A656374206D7973656C662050D0
:1003B000474E3A004042474250552C547261636B9D
:1003C0002C46616C7365004042474250552C547274
:1003D00061636B2C54727565004042474250552C46
:1003E00056616E652C46616C736500404247425011
:1003F000552C56616E652C5472756500244E47422B
:1004000050552A3445004E4D45415F5041525345A9
:10041000525F4E4F54434F4D504C4554452C206E27
:100420006F7420636F6D706C657465207E7E002430
:100430004E474250552A3445004E4D45415F50418C
:10044000525345525F434845434B53554D455252D5
:100450002C204552524F522021210009000954728C
:10046000616E736C61746553656174616C6B417529
:1004700070696C6F74436F6D6D616E64546F4E453F
:100480004D413230303028293A200020556E6B6EB5
:100490006F776E0020506F7765724F6E0020457841
:1004A0007465726E616C002042726F776E6F757446
:1004B00000205761746368646F67004661696C006F
:1004C0004F70656E004042474250552C43414E2CC0
:1004D000004042474250552C424F4F5420566572BF
:1004E000002066696E652E002C2048656C6C6F2CB0
:1004F000204920616D20004042474250552C5665EE
:1005000072004042474250552C4D4F422C00404211
:10051000474250552C53746565722C004042474247
:1005200050552C436F757273652C00404247425002
:10053000552C4175746F2C46616C736500404247C1
:100540004250552C4175746F2C5374656572004090
:1005500042474250552C4175746F2C54727565009A
:100560009000A49000A30020446174613A00204CE4
:10057000656E3A0020446573743A0020536F7572BB
:1005800063653A002050474E3A005072693A0020A5
:100590003A2000002C00537461727420616464720C
:1005A00065737320636C61696D20666F722064658A
:1005B0007669636520002073656E64206661696CEE
:1005C0006564002F002C206672616D653A0050470B
:1005D0004E20002073656E64206661696C6564005E
:1005E00050474E200043414E206465766963652084
:1005F0006661696C656420746F206F70656E00437E
:10060000414E206465766963652072656164790096
:1006100000004E4D454132303030206C69627261CD
:1006200072792C2068747470733A2F2F676974681C
:1006300075622E636F6D2F74746C617070616C6184
:10064000696E656E2F4E4D454132303030003508B1
:100650009A0241726475696E6F204E326B2D3E5066
:100660004300000000000000000000000000000047
:10067000000000312E302E302E300000000000002F
:10068000000000000000000000000000000000006A
:1006900000000000312E302E30000000000000006D
:1006A000000000000000000000000000000000004A
:1006B00000000000003030303030303031000000B9
:1006C000000000000000000000000000000000002A
:1006D000000000000000000100E8000000EA000047
:1006E00000EB000000EC000000EE0000D8FE00006F
:1006F00000ED01000000000000E8000000EA00003A
:1007000000EB000000EC000000EE000000ED010036
:1007100000EE010011F0010014F0010016F00100DC
:100720000000000000000B0C030A0D0E0F09080466
:1007300005020000000000000000000000000000B2
:1007400000000000000000000000000000000000A9
:100750001312110000000000000000000000000063
:100760000000000000000000000000000000000089
:10077000000000000000000000000102102020081E
:1007800008102040102040800201020108040201EC
:10079000010204081020408080402010080402015B
:1007A00080040201804020100804020108040201B4
:1007B000010204081020408001020408102040803B
:1007C000044080048008101020400408102040805D
:1007D00005050505070508080808020202020A0ABD
:1007E00008080404040401010101010101010303DB
:1007F000030303030303040707070C0C0C0C0C0C86
:100800000C0C0202020206060606060606060B0B82
:100810000B0B0B0B0B0B050505080807070404045D
:100820000A0A0A0A0A0A00002200250028002B00F2
:100830002E003100340002010000050108010B0107
:1008400000002100240027002A002D003000330082
:1008500001010000040107010A01A528334FA64F3A
:1008600040A3D7A3862A11241FBECFEFD1E2DEBF5B
:10087000CDBF00E00CBF18E0A0E0B2E0E2E6FBE78D
:1008800001E00BBF02C007900D92A83FB107D9F756
:1008900020E1A8EFB8E001C01D92A63DB207E1F744
:1008A00014E0C2E3D4E000E006C021970109802FE4
:1008B000FE010E944BB0CD32D10780E00807A9F7B6
:1008C0000E948DA70C949FBD0C9400000F931F9362
:1008D000CF93DF93CDB7DEB7C654D1400FB6F894AF
:1008E000DEBF0FBECDBF8C01CE0101960E940B353D
:1008F000C75CDE4F19821882C953D140C55CDE4FF8
:1009000019821882CB53D140C35CDE4F1982188202
:10091000CD53D140C15CDE4F188219821A821B82EE
:10092000CF53D140CD5BDE4F188219821A821B82D1
:10093000C354D140CE0101960E94D43CCE01019611
:100940000E9425350E94900FF801E557FE4F8081E7
:100950009181019797FD0EC091838083CA5BDE4F22
:100960000FB6F894DEBF0FBECDBFDF91CF911F91C0
:100970000F91089511821082F1CFCF92DF92EF9202
:10098000FF92CF93DF93EC016A017B012FE632E106
:1009900043E85AEBCB01B6010E9432B318161CF59E
:1009A00020E030E84BE355E4C701B6010E9443B1B3
:1009B00087FF19C0C882D982EA82FB82CF57DE4FF7
:1009C0008881998106968730910554F499838883AC
:1009D00081E0DF91CF91FF90EF90DF90CF9008956D
:1009E00086E090E0F3CF80E0F4CF0F931F93CF9396
:1009F000DF93CDB7DEB7C853D1400FB6F894DEBF52
:100A00000FBECDBF8C01CE0101960E940B350F5752
:100A10001E4FF8018081918118161906D4F4409177
:100A20001E0950911F096091200970912109CE0182
:100A300001960E945842CE0101960E9425350E94DF
:100A4000900FF80180819181019797FD0EC09183ED
:100A50008083C85CDE4F0FB6F894DEBF0FBECDBFFB
:100A6000DF91CF911F910F91089511821082F1CFE4
:100A7000CF92DF92EF92FF92CF93DF93EC016A0166
:100A80007B0120E030E0A901CB01B6010E9432B326
:100A900087FD23C02DEC3CE044EB53E4C701B601D5
:100AA0000E9443B187FF19C0C88AD98AEA8AFB8AA3
:100AB000C757DE4F8881998104968530910554F49B
:100AC0009983888381E0DF91CF91FF90EF90DF9051
:100AD000CF90089584E090E0F3CF80E0F4CFAF9220
:100AE000BF92CF92DF92EF92FF920F931F93CF931B
:100AF000DF93CDB7DEB7C853D1400FB6F894DEBF51
:100B00000FBECDBF5C01CE0101960E940B35650181
:100B100087E7C81A8EEFD80AF601808191811816EE
:100B2000190674F57501F9E7EF1AFEEFFF0AF701F0
:100B300080819181181619061CF5F501048515852B
:100B4000268537854089518962897389CE0101964E
:100B50000E94E339CE0101960E9425350E94900F34
:100B6000F60180819181019797FD1CC0918380835C
:100B7000F70180819181019797FD17C09183808350
:100B8000C85CDE4F0FB6F894DEBF0FBECDBFDF915D
:100B9000CF911F910F91FF90EF90DF90CF90BF907A
:100BA000AF90089511821082E3CF11821082E8CFB6
:100BB000AF92BF92CF92DF92EF92FF920F931F936B
:100BC000CF93DF93CDB7DEB7C853D1400FB6F894BB
:100BD000DEBF0FBECDBF5C01CE0101960E940B357A
:100BE000650187E7C81A8EEFD80AF60180819181E6
:100BF0001816190674F57501F9E7EF1AFEEFFF0AEA
:100C0000F70180819181181619061CF5F5010485FC
:100C10001585268537854089518962897389CE017A
:100C200001960E94D038CE0101960E9425350E947F
:100C3000900FF60180819181019797FD1CC09183EF
:100C40008083F70180819181019797FD17C091837F
:100C50008083C85CDE4F0FB6F894DEBF0FBECDBFF9
:100C6000DF91CF911F910F91FF90EF90DF90CF9088
:100C7000BF90AF90089511821082E3CF118210824D
:100C8000E8CFCF92DF92EF92FF92CF93DF93EC0108
:100C90006A017B0120E030E0A901CB01B6010E948E
:100CA00032B387FD23C020E030E040EA52E4C701C0
:100CB000B6010E9443B187FF19C0CC86DD86EE865F
:100CC000FF86C957DE4F888199810496853091054A
:100CD00054F49983888381E0DF91CF91FF90EF9066
:100CE000DF90CF90089584E090E0F3CF80E0F4CFE0
:100CF0004F925F926F927F928F929F92AF92BF922C
:100D0000CF92DF92EF92FF920F931F93CF93DF93D7
:100D100000D000D01F921F92CDB7DEB74A015B0111
:100D2000680179018092320990923309A0923409C6
:100D3000B0923509C0923F09D0924009E092410932
:100D4000F09242092A013B01E89477F8C301B2010D
:100D50000E94F6B169837A838B839C8329813A81CF
:100D6000B901330F880B990B0E9434B29B01AC017F
:100D7000C301B2010E94D6B020E030E040E752E467
:100D80000E9437B32B013C010E94F6B16D837E8334
:100D90008F8398872D813E81B901330F880B990B82
:100DA0000E9434B29B01AC01C301B2010E94D6B0D3
:100DB00020E030E040E752E40E9437B32B013C01D1
:100DC00020E030E0A901C501B4010E9443B187FDD4
:100DD0008CC08EE429813A813093370920933609FB
:100DE0002D813E81309339092093380940923A0988
:100DF00050923B0960923C0970923D0980933E09F4
:100E000026013701E89477F8C301B2010E94F6B1D8
:100E10004B01072E000C880B990B0E9434B29B01EA
:100E2000AC01C301B2010E94D6B020E030E040E73F
:100E300052E40E9437B32B013C010E94F6B1698352
:100E40007A838B839C8329813A81B901330F880B84
:100E5000990B0E9434B29B01AC01C301B2010E9404
:100E6000D6B020E030E040E752E40E9437B32B01D7
:100E70003C0120E030E0A901C701B6010E9443B166
:100E800087FD35C085E49092440980924309298109
:100E90003A81309346092093450940924709509280
:100EA00048096092490970924A0980934B0986E08B
:100EB00090E09093AA0A8093A90A81E028960FB641
:100EC000F894DEBF0FBECDBFDF91CF911F910F9180
:100ED000FF90EF90DF90CF90BF90AF909F908F905A
:100EE0007F906F905F904F90089583E573CF87E573
:100EF000CACFFC01E557FE4F20813181121613063F
:100F000014F40C9466040895CF92DF92EF92FF924E
:100F1000CF93DF93EC016A017B0120E030E0A9016F
:100F2000CB01B6010E9432B387FD23C02DEC3CE01B
:100F300044EB53E4C701B6010E9443B187FF19C0D7
:100F4000CEA6DFA6E8AAF9AAC357DE4F8881998109
:100F500002968330910554F49983888381E0DF9170
:100F6000CF91FF90EF90DF90CF90089582E090E0D6
:100F7000F3CF80E0F4CFDF92EF92FF920F931F93B5
:100F8000CF93DF93CDB7DEB7C853D1400FB6F894F7
:100F9000DEBF0FBECDBF8C01D62ECE0101960E94C2
:100FA0000B35780183E7E81A8EEFF80AF7018081A4
:100FB00091811816190624F5F80146A557A560A9D0
:100FC00071A9DD2061F1CE0101960E944643CE0158
:100FD00001960E9425350E94900FDD2049F0CE0138
:100FE00001960E942535BC0185E290E10E9464A42F
:100FF000F70180819181019797FD1AC091838083C9
:10100000C85CDE4F0FB6F894DEBF0FBECDBFDF91D8
:10101000CF911F910F91FF90EF90DF900895008581
:10102000118522853385CE0101960E94E242CFCF01
:1010300011821082E5CF60E00C94BB07CF92DF9263
:10104000FF920F931F93CF93DF93CDB7DEB7C853B3
:10105000D1400FB6F894DEBF0FBECDBF6C01F62EA7
:10106000CE0101960E940B35860103571E4FF801F1
:10107000808191811816190624F5F60146A557A519
:1010800060A971A9CE010196FF2051F10E94BC43D5
:10109000CE0101960E9425350E94900FFF2049F055
:1010A000CE0101960E942535BC0185E290E10E94A7
:1010B00064A4F80180819181019797FD14C0918308
:1010C0008083C85CDE4F0FB6F894DEBF0FBECDBF85
:1010D000DF91CF911F910F91FF90DF90CF900895F6
:1010E0000E948143D5CF11821082EBCF60E00C9437
:1010F0001E08DF92EF92FF920F931F93CF93DF931F
:10110000CDB7DEB7C853D1400FB6F894DEBF0FBEDF
:10111000CDBF7C01D62ECE0101960E940B358701F2
:1011200003571E4FF80180819181181619066CF53E
:10113000F70160857185828593850E94F6B1CB01A8
:10114000F70146A557A560A971A99C01CE0101969A
:10115000DD2051F10E943E44CE0101960E942535CA
:101160000E94900FDD2049F0CE0101960E942535A6
:10117000BC0185E290E10E9464A4F8018081918124
:10118000019797FD14C091838083C85CDE4F0FB632
:10119000F894DEBF0FBECDBFDF91CF911F910F91AD
:1011A000FF90EF90DF9008950E94F743D5CF118212
:1011B0001082EBCF60E00C947908CF92DF92EF922F
:1011C000FF92CF93DF93EC016A017B01CB01BA015F
:1011D0009F772DEC3CE044EB53E40E9443B187FF42
:1011E00019C0CAAADBAAECAAFDAACF56DE4F888195
:1011F000998106968730910554F49983888381E01C
:10120000DF91CF91FF90EF90DF90CF90089586E02F
:1012100090E0F3CF80E0F4CFCF92DF92EF92FF9295
:10122000CF93DF93EC016A017B012CEA35EC47E2B6
:1012300057EBCB01B6010E9432B318161CF520E023
:1012400030E048EC52E4C701B6010E9443B187FF89
:1012500019C0CEAADFAAE8AEF9AEC157DE4F888129
:10126000998106968730910554F49983888381E0AB
:10127000DF91CF91FF90EF90DF90CF90089586E0BF
:1012800090E0F3CF80E0F4CF6F927F928F929F92A5
:10129000AF92BF92CF92DF92EF92FF920F931F9384
:1012A000CF93DF93CDB7DEB7C853D1400FB6F894D4
:1012B000DEBF0FBECDBF3C01CE0101960E940B35B3
:1012C00043018FE6881A8EEF980AF401808191819C
:1012D0001816190694F55301F1E7AF1AFEEFBF0A8D
:1012E000F50180819181181619063CF5F301C6A815
:1012F000D7A8E0ACF1AC008511852285338542A9E1
:1013000053A964A975A9CE0101960E943039CE0176
:1013100001960E9425350E94900FF40180819181F1
:10132000019797FD20C091838083F5018081918191
:10133000019797FD1BC091838083C85CDE4F0FB679
:10134000F894DEBF0FBECDBFDF91CF911F910F91FB
:10135000FF90EF90DF90CF90BF90AF909F908F90D5
:101360007F906F90089511821082DFCF11821082DA
:10137000E4CF8F929F92AF92BF92CF92DF92EF9283
:10138000FF920F931F93CF93DF93CDB7DEB7CC556A
:10139000D1400FB6F894DEBF0FBECDBF8C01015710
:1013A0001E4FF801208131814C01F9E68F1AFEEFC2
:1013B0009F0AF40140815181141615060CF074C087
:1013C0005C01F7E6AF1AFEEFBF0AF50140815181DB
:1013D000141615060CF068C0121613060CF04AC05D
:1013E0006C01FFE6CF1AFEEFDF0AF60120813181A2
:1013F000121613060CF05BC07C01F5E7EF1AFEEF46
:10140000FF0AF70120813181121613060CF04FC03C
:10141000CE0101960E94DF40CE0101960E94253543
:101420000E94900FF40180819181019797FD36C051
:1014300091838083F50180819181019797FD31C06F
:1014400091838083F80180819181019797FDADC0E0
:1014500091838083F60180819181019797FDA8C0D7
:1014600091838083F70180819181019797FDA3C0CB
:1014700091838083C45ADE4F0FB6F894DEBF0FBE4F
:10148000CDBFDF91CF911F910F91FF90EF90DF9033
:10149000CF90BF90AF909F908F900895118210824F
:1014A000C9CF11821082CECF121613061CF76C0121
:1014B000FFE6CF1AFEEFDF0AF60120813181121616
:1014C0001306C4F67C01F5E7EF1AFEEFFF0AF701F9
:1014D00080819181181619066CF6CE0101960E9442
:1014E0000B35C75CDE4F19821882C953D140C55CE9
:1014F000DE4F19821882CB53D140C35CDE4F198274
:101500001882CD53D140C15CDE4F19821882CF536F
:10151000D140CF5BDE4F188219821A821B82C154E0
:10152000D140CB5BDE4F188219821A821B82C554D0
:10153000D140C75BDE4F188219821A821B82C954C0
:10154000D140C35BDE4F188219821A821B82CD54B0
:10155000D14084E5CF5ADE4F8883C155D140CE5A61
:10156000DE4F19821882C255D140CC5ADE4F198203
:101570001882C455D140CA5ADE4F19821882C65506
:10158000D140C85ADE4F188219821A821B82C85570
:10159000D140C45ADE4F1882CC55D140CE010196BD
:1015A0000E9425350E94900F4DCF1182108252CF9C
:1015B0001182108257CF118210825CCF9B01275A73
:1015C0003F4F233B310590F4FC0173AF62AFEB5604
:1015D000FE4F8081918106968730910524F4918396
:1015E000808381E0089586E090E0F9CF80E008955F
:1015F000EF92FF920F931F93CF93DF93CDB7DEB798
:10160000C853D1400FB6F894DEBF0FBECDBF7C01EA
:10161000CE0101960E940B3587010B561E4FF80133
:101620008081918118161906ACF4F70162AD73AD93
:10163000CE0101960E948544CE0101960E94253577
:101640000E94900FF80180819181019797FD10C051
:1016500091838083C85CDE4F0FB6F894DEBF0FBE67
:10166000CDBFDF91CF911F910F91FF90EF90089523
:1016700011821082EFCF0C94F80ACF93DF93EC0124
:101680000E94F504CE010E94D805CE010E94790780
:10169000CE010E941B08CE010E947608CE010E9456
:1016A000DA08CE010E94B909CE010E94F80ACE01E3
:1016B0000E944409CE01DF91CF910C946F052F92C7
:1016C0003F924F925F926F927F928F929F92AF92D2
:1016D000BF92CF92DF92EF92FF920F931F93CF931F
:1016E000DF93CDB7DEB762970FB6F894DEBF0FBEBB
:1016F000CDBF9D878C87DC0114968C911497E82FC1
:10170000F0E0FF83EE8315960C91159716968C9159
:10171000102F082FB80190E080E00E9432B220E044
:1017200030E04AE754E40E9448B10E94F6B168876D
:1017300079878A879B87C80168EE73E00E94E2AFD1
:101740008C01AC85BD851396BC91B983B4FDA6C14F
:10175000EEE4ED832E813F81B901330F880B990BA5
:101760000E9434B26B017C01A885B985BD01BB0F15
:10177000880B990B0E9434B24B015C01B801110F28
:10178000880B990B0E9434B22B013C0120E030E021
:101790004AE754E40E9448B1A50194010E94D7B0E1
:1017A00020E030E040E752E40E9448B1A7019601F2
:1017B0000E94D7B09F772FE632E143E85AE30E94B8
:1017C00043B187FD52C10091A90A1091AA0A0115DF
:1017D000110509F460C020E030E040E752E4C301A5
:1017E000B2010E9448B1A50194010E94D7B020E047
:1017F00030E040E752E40E9448B1A70196010E9400
:10180000D7B06B017C0120E030E040E752E460910A
:101810003A0970913B0980913C0990913D090E94E1
:1018200048B14B015C016091380970913909072E6C
:10183000000C880B990B0E9434B29B01AC01C501CE
:10184000B4010E94D7B020E030E040E752E40E94AB
:1018500048B14B015C016091360970913709072E40
:10186000000C880B990B0E9434B29B01AC01C5019E
:10187000B4010E94D7B09B01AC01C701B6010E9420
:10188000D6B09F7720E030E040E05FE30E9432B3C3
:1018900018160CF4EAC0EC85FD858781282E312CC2
:1018A000908581859C013A8B298BB90190E080E07D
:1018B0000E9432B220E030E04AE754E40E9448B18E
:1018C0000E94F6B16C877D878E879F8789899A8968
:1018D00068EE73E00E94E2AF398135FDE2C0A7E512
:1018E000A88BBC01990F880B990B0E9434B26983B5
:1018F0007A838B839C83EC85FD85BF01FF0F880B6A
:10190000990B0E9434B26B017C0120E030E04AE781
:1019100054E469817A818B819C810E9448B19B014A
:10192000AC01C701B6010E94D7B020E030E040E72B
:1019300052E40E9448B16B017C01B101032C000C00
:10194000880B990B0E9434B29B01AC01C701B60110
:101950000E94D7B06B017C019F772FE632E143E80C
:101960005AE30E9443B187FD80C0012B09F447C0B0
:1019700020E030E040E752E4609147097091480967
:101980008091490990914A090E9448B14B015C013C
:101990006091450970914609072E000C880B990B40
:1019A0000E9434B29B01AC01C501B4010E94D7B0C2
:1019B00020E030E040E752E40E9448B14B015C0176
:1019C0006091430970914409072E000C880B990B14
:1019D0000E9434B29B01AC01C501B4010E94D7B092
:1019E0009B01AC01C701B6010E94D6B09F7720E0F1
:1019F00030E040E05FE30E9432B31816B4F12E816C
:101A00003F813093370920933609888599859093D3
:101A100039098093380940923A0950923B09609203
:101A20003C0970923D099D8190933E093092440992
:101A300020924309AC85BD85B0934609A093450922
:101A400089819A81AB81BC81809347099093480931
:101A5000A0934909B0934A09988990934B0986E06D
:101A600090E09093AA0A8093A90A62960FB6F89420
:101A7000DEBF0FBECDBFDF91CF911F910F91FF90C1
:101A8000EF90DF90CF90BF90AF909F908F907F901E
:101A90006F905F904F903F902F900895F3E5FD83F6
:101AA00059CEB5E4B88B1DCFCF93DF93EC0161E045
:101AB00088810E9403A91B861A861C861D861E86A5
:101AC0001F8660E08881DF91CF910C943FA9CF926F
:101AD000DF92EF92FF920F931F93CF93DF93EC016E
:101AE0000E94ECA72A853B852130310529F50C851C
:101AF0001D852E853F856B017C01C01AD10AE20A43
:101B0000F30A0A811B812C813D81C016D106E206B1
:101B1000F30688F11B861A866C877D878E879F87E0
:101B200060E08881DF91CF911F910F91FF90EF903E
:101B3000DF90CF900C943FA9232BE9F40C851D85F1
:101B40002E853F856B017C01C01AD10AE20AF30A97
:101B50000E811F8128853985C016D106E206F3065D
:101B600050F021E030E03B872A876C877D878E87A5
:101B70009F8761E0D6CFDF91CF911F910F91FF90AA
:101B8000EF90DF90CF9008950F931F93CF93DF9343
:101B9000CDB7DEB7CB54D1400FB6F894DEBF0FBE41
:101BA000CDBF84E59CE00E94670D8091080990916B
:101BB00009098A30910528F40196909309098093C8
:101BC000080986EF9BE00E94314C8C0186EF9BE078
:101BD0000E94274CB8010E94554BFC0110810E94C5
:101BE0004F4B412FBC01CE0101960E94ED4760E7AB
:101BF00072E088E89FE00E9464A4CE0101960E94F2
:101C00002535BC0188E89FE00E9489A4C55BDE4FB2
:101C10000FB6F894DEBF0FBECDBFDF91CF911F91FD
:101C20000F910895FC01DB018081843211F0813233
:101C300079F493818C9198130BC0948111968C91B7
:101C40001197981305C081E0258112969C91291364
:101C500080E00895FC01DB018081843211F0813243
:101C6000D9F491818C91981317C0928111968C911F
:101C70001197981311C0938112968C911297981313
:101C80000BC0948113968C911397981305C081E033
:101C9000258114969C91291380E008954F925F92BC
:101CA0006F927F928F929F92AF92BF92CF92DF926C
:101CB000EF92FF920F931F93CF93DF93CDB7DEB7D1
:101CC000C054D1090FB6F894DEBF0FBECDBF6B0173
:101CD0007C0129013A0180910F098F9380910E09AF
:101CE0008F931F930F9320E034E244E759E4C3013C
:101CF000B2010E9437B30E94F6B120E4822E22E4A2
:101D0000922E2FE0A22EB12CA50194010E942CB09E
:101D10009F938F937F936F93C301B2010E94F6B19B
:101D20007F936F9320E034E244E759E4C701B601A2
:101D30000E9437B30E94F6B1A50194010E942CB015
:101D40009F938F937F936F93C701B6010E94F6B163
:101D50007F936F9389E792E09F938F938E010F5F3C
:101D60001F4F1F930F930E940CB6B80188E89FE0A5
:101D70000E9489A40FB6F894DEBF0FBECDBFC05C31
:101D8000DF4F0FB6F894DEBF0FBECDBFDF91CF910E
:101D90001F910F91FF90EF90DF90CF90BF90AF9089
:101DA0009F908F907F906F905F904F9008950F93CA
:101DB0001F93CF93DF93CDB7DEB7C054D1090FB6D1
:101DC000F894DEBF0FBECDBF9F938F938CE992E056
:101DD0009F938F938E010F5F1F4F1F930F930E944E
:101DE0000CB6B80188E89FE00E9489A40F900F907C
:101DF0000F900F900F900F90C05CDF4F0FB6F894CC
:101E0000DEBF0FBECDBFDF91CF911F910F9108951F
:101E1000CF93DF932091A20C211110C0EC016CE153
:101E200075E088E89FE00E9440A44AE050E0BE01CF
:101E300088E89FE0DF91CF910C943BA5DF91CF9193
:101E40000895CF93DF932091A20C211110C0EC01D3
:101E50006EE075E088E89FE00E9440A44AE050E010
:101E6000BE0188E89FE0DF91CF910C943BA5DF9104
:101E7000CF9108958F929F92AF92BF92CF92DF92AF
:101E8000EF92FF920F931F93CF93DF93E091A20CF9
:101E9000E11139C079014A015B01EC0162E075E0B2
:101EA00088E89FE00E9440A44AE050E0BE0188E834
:101EB0009FE00E9434A56CED76E088E89FE00E94E8
:101EC00064A42AE030E0B501A40188E89FE00E9404
:101ED0004DA56CED76E088E89FE00E9464A42AE0BE
:101EE00030E0B701A80188E89FE0DF91CF911F9112
:101EF0000F91FF90EF90DF90CF90BF90AF909F90A9
:101F00008F900C9467A5DF91CF911F910F91FF9057
:101F1000EF90DF90CF90BF90AF909F908F900895FB
:101F2000CF93DF93EC01FC0101900020E9F731979A
:101F3000E81BF90B8881843221F0813211F0803462
:101F400009F53797F8F09091A20C91111BC0909170
:101F5000880C803449F49923A9F0BE0185E290E110
:101F6000DF91CF910C9489A4992329F0BE0185E2D9
:101F700090E10E9464A4BE0188E89FE0DF91CF91C8
:101F80000C9464A4DF91CF910895CF93DF932091B7
:101F9000A20C211122C0EC0167EF74E088E89FE0F9
:101FA0000E9440A46AE87CE088E89FE00E9464A464
:101FB00068EE74E088E89FE00E9440A44AE050E0A8
:101FC000BE0188E89FE00E9461A561EE74E088E8A8
:101FD0009FE0DF91CF910C9477A4DF91CF9108958A
:101FE0008091A20C81110CC061ED74E088E89FE043
:101FF0000E9440A46AE87CE088E89FE00C9489A4F1
:1020000008958F92AF92BF92CF92EF92FF920F936B
:102010001F93CF931F921F9288248A94AA24AA9474
:10202000BA2CCC24CA949CEAE92E92E0F92E02EB59
:1020300012E024EC32E044E650E065ED72E080917D
:10204000310C9091320C0E94D76EB12CA12C24E05F
:10205000C22E38EFE32E37E0F32E0BE422E849E6F8
:1020600056EB61E070E08091310C9091320C0E944F
:10207000296D46E161E070E08091310C9091320C65
:102080000E948F6F6EED72E088E89FE00E9489A445
:102090006FE77BE28091310C9091320C0E94937734
:1020A0008091310C9091320C0E945483C82F65ECC2
:1020B00074E088E89FE00E9440A40F900F90CC232A
:1020C000D1F060EC74E088E89FE00E9477A460EDB6
:1020D00072E08AE89CE00E94B5B581E08093890CAB
:1020E0008C2FCF911F910F91FF90EF90CF90BF90C9
:1020F000AF908F9008956BEB74E088E89FE00E94AA
:1021000077A41092890CECCFCF93C62FBC0188E83E
:102110009FE00E9464A44AE050E06C2F88E89FE0B2
:102120000E945AA5C3FF07C061EB74E088E89FE0F6
:102130000E9440A4C77FC2FF07C067EA74E088E836
:102140009FE00E9440A4CB7FC1FF07C06DE974E00F
:1021500088E89FE00E9440A4CD7FC0FF07C064E9EB
:1021600074E088E89FE00E9440A4CE7FCC2331F049
:102170006BE874E088E89FE00E9440A46CE175E0A1
:1021800088E89FE0CF910C9489A4CF93DF930FB69A
:10219000F894A89580916000886180936000109207
:1021A00060000FBE87EF84BF88E19EE00FB6F89411
:1021B000A895809360000FBE909360006CED72E074
:1021C0008AE89CE00E94D4B562E073E08AE89CE073
:1021D0000E94B5B56FEA72E08AE89CE00E94B5B54E
:1021E00061E08DE00E9403A961E087E00E9403A9FD
:1021F00061E08DE00E943FA984E69CE00E94540DBE
:1022000084E59CE00E94540D84E49CE00E94540DFF
:1022100084E39CE00E94540D26E040E052EC61E033
:1022200070E088E89FE00E947EA240EC52E160E00E
:1022300070E08BE49DE00E94F14F45E050E060E0EB
:1022400070E08BE49DE00E9479A540EC52E160E0F3
:1022500070E088E69EE00E94F14F45E050E060E0CB
:1022600070E088E69EE00E9479A526E040EC52E10D
:1022700060E070E085E290E10E947EA261EA71E098
:1022800080E090E00E94864C64B784E093E00E9476
:102290008410A89583E39CE00E9421A00E94011075
:1022A0008093300CA895C6E0D0E00E94F00F64E661
:1022B00070E080E090E00E941DA82197B1F7A895FA
:1022C000A89581E090E090936F0C80936E0C61E094
:1022D0008091640C0E943FA980911A0990911B097A
:1022E0009C012F5F3F4F30931B0920931A090E94D6
:1022F000C50F84E190E090931D0980931C09DF9144
:10230000CF910895FC01DC010D900020E9F71197B1
:10231000A81BB90B1D97D0F180818132A9F581816D
:102320008134A1F58281893489F58381863571F5FF
:102330008481843459F585818D7F8D3439F586818A
:102340008C3221F58781082E000C990BC0970A97D3
:10235000E8F480858C32D1F48185082E000C990B2D
:10236000C0970A9798F482858C3281F483858C32E9
:1023700031F0082E000C990BC0970A9738F4BF0172
:1023800088E89FE00C9489A48432C9F308958F9261
:102390009F92AF92BF92CF92DF92EF92FF920F93F4
:1023A0001F93CF93DF93EC014A015B016901E88140
:1023B000F9810190F081E02D19958B829C82AD828C
:1023C000BE82DA86C986DE011B96F801CF01801B2A
:1023D000910B8E159F0564F0FE01EE0DFF1DCF01E0
:1023E0008C1B9D0B8C159D0534F413863196F7CF0D
:1023F00081918D93EBCFDF91CF911F910F91FF9042
:10240000EF90DF90CF90BF90AF909F908F90089506
:10241000CF92DF92EF92FF920F931F93CF93DF93B0
:10242000CDB7DEB7C95FD1090FB6F894DEBF0FBED6
:10243000CDBF6C01F12CE12C00E010E0980146E0EA
:102440006FE0CE0101960E94CA5C8AE0EFE1F2E003
:10245000DE01A051BF4F01900D928A95E1F7B601C0
:10246000DD0C880B990B0E9434B22BED3FE049E460
:1024700050E40E9437B30E94F6B1AB01161617065E
:102480000CF04AC04F5F5F4F942F342F32953F704E
:102490002FE0231B842F8F70843008F043C0845FAB
:1024A000CA50DF4F9883C65FD04090E1299F9001CA
:1024B0001124820F932F911DC750DF4F8883C95F6E
:1024C000D0408AE0E82EF12C8E0100511F4F2AE007
:1024D00030E040E05FEE61E070E0CE0101960E94E6
:1024E000C71150E040E0BE016F5F7F4F8091310C1B
:1024F0009091320C0E94567BC750DF4F0FB6F89474
:10250000DEBF0FBECDBFDF91CF911F910F91FF9026
:10251000EF90DF90CF900895672B09F4B5CF41502D
:102520005109B2CF883010F48C5FBACF8C3010F4E0
:102530008450B6CF8C50B4CFBF92CF92DF92EF923F
:10254000FF920F931F93CF93DF93CDB7DEB7C75F93
:10255000D1090FB6F894DEBF0FBECDBFB82EC62E80
:10256000D42EF12CE12C00E010E0980146E06FE061
:10257000CE0101960E94CA5C88E0E9E2F2E0DE0149
:10258000A051BF4F01900D928A95E1F7CB50DF4FDC
:10259000B882C55FD040CA50DF4FC882C65FD04006
:1025A000C950DF4FD882C75FD04088E0E82EF12CB9
:1025B0008E0100511F4F26E130E040E05FEE61E008
:1025C00070E0CE0101960E94C71150E040E0BE01CC
:1025D0006F5F7F4F8091310C9091320C0E94567B3F
:1025E000C950DF4F0FB6F894DEBF0FBECDBFDF91ED
:1025F000CF911F910F91FF90EF90DF90CF90BF9000
:102600000895DF92EF92FF920F931F93CF93DF9382
:10261000CDB7DEB7C75FD1090FB6F894DEBF0FBEE6
:10262000CDBFD82EF12CE12C00E010E0980146E05F
:102630006FE0CE0101960E94CA5C88E0E1E3F2E01F
:10264000DE01A051BF4F01900D928A95E1F7CD5068
:10265000DF4FD882C35FD04088E0E82EF12C8E0196
:1026600000511F4F28E030E048E05FEF60E070E08D
:10267000CE0101960E94C71150E040E0BE016F5F9D
:102680007F4F8091310C9091320C0E94567BC95043
:10269000DF4F0FB6F894DEBF0FBECDBFDF91CF91F5
:1026A0001F910F91FF90EF90DF90089581E00C94BF
:1026B000011380E00C94011381E090E09093830C6F
:1026C0008093820C4DEF62E081E40C949C1282E0D6
:1026D00090E09093830C8093820C4EEF61E081E454
:1026E0000C949C1282E090E09093830C8093820C77
:1026F0004CED63E281E40C949C1282E090E09093B4
:10270000830C8093820C4CEF63E081E40C949C1268
:1027100047EF68E081E40C949C1249EF66E081E4A5
:102720000C949C1248EF67E081E40C949C124AEFF1
:1027300065E081E40C949C124DED62E281E40C941E
:102740009C124EED61E281E40C949C1283E090E0D7
:102750009093830C8093820C4EEE61E181EB0C949C
:102760009C12CF939093150980931409BC01990F83
:10277000880B990B0E9434B2C1E02091100930916E
:10278000110940911209509113090E9432B3181691
:102790000CF0C0E0C0930C0280E0CF91089590E06F
:1027A00080E00C94B1138DED9FEF0C94B11383E294
:1027B00090E00C94B113FC01DC010D900020E9F7CE
:1027C0001197A81BB90B1A9708F186818C32F1F486
:1027D00081858A32D9F48781082E000C990BC09725
:1027E0004AE0489F9001499F300D11248085082EB2
:1027F000000C990BC097280F391FC90188972550E5
:1028000031092734310510F40C94B11380E0089598
:102810000F931F93CF93DF93683071050CF4E6C0DC
:102820008B01EC018B81833509F083C06CE073E090
:10283000CE010E94EAB5892B31F0DF91CF911F9133
:102840000F910C94671362E273E0CE010E94EAB527
:10285000892B31F0DF91CF911F910F910C9472135E
:1028600068E373E0CE010E94EAB5892B31F0DF9175
:10287000CF911F910F910C947D136EE473E0CE0104
:102880000E94EAB5892B31F0DF91CF911F910F9112
:102890000C945C1364E673E0CE010E94EAB5892BC8
:1028A00031F0DF91CF911F910F910C9488136AE75B
:1028B00073E0CE010E94EAB5892B31F0DF91CF9110
:1028C0001F910F910C948D1360E973E0CE010E946B
:1028D000EAB5892B31F0DF91CF911F910F910C94C4
:1028E000921366EA73E0CE010E94EAB5892B31F0BB
:1028F000DF91CF911F910F910C9497136CEB73E0C4
:10290000CE010E94EAB5892B31F0DF91CF911F9162
:102910000F910C949C1362ED73E0CE010E94EAB516
:10292000892B09F463C0DF91CF911F910F910C9413
:10293000A113803509F042C068EE73E0CE010E9419
:10294000EAB5892B31F0DF91CF911F910F910C9453
:10295000A6136EEF73E0CE010E94EAB5892B31F029
:10296000DF91CF911F910F910C94CF1364E174E02C
:10297000CE010E94EAB5892B31F0DF91CF911F91F2
:102980000F910C94D3136AE274E0CE010E94EAB571
:10299000892B31F0DF91CF911F910F910C94D713B8
:1029A00060E474E0CE010E94EAB5892BF9F0CE0113
:1029B000DF91CF911F910F910C94DB136DE574E0C3
:1029C00088E89FE00E9440A44AE050E0B80188E80F
:1029D0009FE00E9434A56BE574E088E89FE00E94C8
:1029E00040A4BE0188E89FE00E9489A480E0DF91B6
:1029F000CF911F910F910895CF93DF9368307105A8
:102A0000ECF0EC0168E474E00E94EAB5892BB1F4C3
:102A10006EE574E0CE010E94EAB5892B21F0DF91CA
:102A2000CF910C94561360E874E0CE010E94EAB591
:102A3000892B21F0DF91CF910C94591380E0DF9125
:102A4000CF910895FC01DC010D900020E9F711976A
:102A5000A81BB90B189798F08081843281F481818A
:102A6000833569F48281843551F48381833549F457
:102A70008481853421F481E09581913459F080E09E
:102A800009C08035E1F784818735C9F781E09581F8
:102A90009235A9F708950F931F93CF93DF93CDB786
:102AA000DEB7C25AD2400FB6F894DEBF0FBECDBF1C
:102AB0008C01CE0185599E4F0E940B3563E974E06D
:102AC000C8010E94120E882309F474C0CE01019639
:102AD0000E940B35C75CDE4F1882C953D140C65CDB
:102AE000DE4F1882CA53D140C55CDE4F188219826E
:102AF0001A821B82CB53D140C15CDE4F19821882EF
:102B0000CF53D1408EE4CF5BDE4F8883C154D14098
:102B1000CE5BDE4F1882C254D140CD5BDE4F1882AF
:102B2000C354D140CC5BDE4F188219821A821B82BB
:102B3000C454D14084E5C85BDE4F8883C854D1407B
:102B4000FE01E75BFE4F1192119292E1DF011D92AF
:102B50009A95E9F7C35ADE4F188219821A821B82AE
:102B6000CD55D140CF59DE4F8883C156D140CE5983
:102B7000DE4F188219821A821B82C256D140CA596E
:102B8000DE4F8883C656D140C959DE4F1882C756DA
:102B9000D140B801CE0101960E949F44CE55DD4F31
:102BA0000FB6F894DEBF0FBECDBFDF91CF911F915E
:102BB0000F91089567E974E0C8010E94120E811117
:102BC00008C06BE974E0C8010E94120E882309F462
:102BD00065C0CE0101960E940B35C75CDE4F19829D
:102BE0001882C953D140C55CDE4F19821882CB537D
:102BF000D140C35CDE4F19821882CD53D140C15CF5
:102C0000DE4F188219821A821B82CF53D140CD5BCE
:102C1000DE4F188219821A821B82C354D140C95BCD
:102C2000DE4F188219821A821B82C754D14084E574
:102C3000C55BDE4F8883CB54D140C45BDE4F188226
:102C400019821A821B82CC54D1408DE4C05BDE4FC6
:102C50008883C055D140CF5ADE4F188219821A821C
:102C60001B82C155D1408EE4CB5ADE4F8883C555B7
:102C7000D140FE01EA5AFE4F1192119282E1DF012A
:102C80001D928A95E9F7C659DE4F1882CA56D1407F
:102C9000B801CE0101960E94C43680CF6FE974E07E
:102CA000C8010E94120E8823D1F1CE0101960E9424
:102CB0000B35C75CDE4F188219821A821B82C953FA
:102CC000D14084E5C35CDE4F8883CD53D140C25CE4
:102CD000DE4F188219821A821B82CE53D1408DE4B6
:102CE000CE5BDE4F8883C254D140FE01ED5BFE4FC8
:102CF0001192119282E1DF01982F1D929A95E9F7C6
:102D0000FE01E95AFE4F11921192DF011D928A9540
:102D1000E9F7B801CE0101960E94EF353FCF63EA93
:102D200074E0C8010E94120E882309F460C0CE012D
:102D300001960E940B35C75CDE4F19821882C95379
:102D4000D140C55CDE4F19821882CB53D140C35CA1
:102D5000DE4F19821882CD53D140C15CDE4F1882FC
:102D600019821A821B82CF53D140CD5BDE4F18826D
:102D700019821A821B82C354D14081E090E0C95B62
:102D8000DE4F99838883C754D140C75BDE4F1982D9
:102D90001882C954D140C55BDE4F188219821A824D
:102DA0001B82CB54D140C15BDE4F188219821A823C
:102DB0001B82CF54D140CD5ADE4F188219821A821D
:102DC0001B82C355D140C95ADE4F188219821A821C
:102DD0001B82C755D140C55ADE4F19821882CB5588
:102DE000D140B801CE0101960E94B83AD7CE67EA29
:102DF00074E0C8010E94120E882361F1CE01019691
:102E00000E940B35C75CDE4F19821882C953D1402E
:102E1000C55CDE4F19821882CB53D140C35CDE4FB4
:102E200019821882CD53D140C15CDE4F18821982BD
:102E30001A821B82CF53D140CD5BDE4F188219829C
:102E40001A821B82C354D140B801CE0101960E9460
:102E5000C13DA4CE6BEA74E0C8010E94120E81113C
:102E60009DCE6FEA74E0C8010E94120E882309F417
:102E700067C0CE0101960E940B35C75CDE4F1982F8
:102E80001882C953D140C55CDE4F19821882CB53DA
:102E9000D140C35CDE4F19821882CD53D140C15C52
:102EA000DE4F19821882CF53D140CF5BDE4F18829C
:102EB00019821A821B82C154D140CB5BDE4F18822B
:102EC00019821A821B82C554D140C75BDE4F18821B
:102ED00019821A821B82C954D140C35BDE4F18820B
:102EE00019821A821B82CD54D14084E5CF5ADE4F1D
:102EF0008883C155D140CE5ADE4F19821882C255FF
:102F0000D140CC5ADE4F19821882C455D140CA5ADA
:102F1000DE4F19821882C655D140C85ADE4F18823A
:102F200019821A821B82C855D140C45ADE4F1882BA
:102F3000CC55D140B801CE0101960E949C3E2ECEC8
:102F400063EB74E0C8010E94120E882309F426CEB8
:102F5000CE0101960E940B35C75CDE4F1882C95323
:102F6000D140C65CDE4F1882CA53D140C55CDE4FEB
:102F7000188219821A821B82CB53D140C15CDE4F6A
:102F800019821882CF53D1408EE4CF5BDE4F888305
:102F9000C154D140CE5BDE4F1882C254D140CD5BCC
:102FA000DE4F1882C354D140B801CE0101960E9471
:102FB000DC46F4CDCF92DF92EF92FF920F931F93F6
:102FC0008B019C011D7F0115184E2105310509F467
:102FD000E2C08B019C011E7F01154EEE14072105F6
:102FE000310509F4D8C0663B4EEF740781059105A1
:102FF00009F4D1C06B017C01E894E0F84AE1C41601
:103000004FEFD406E104F10409F4C5C06F314FEF6E
:1030100074078105910509F4BEC063364FEF74074C
:103020008105910509F4B7C065364FEF7407810536
:10303000910509F4B0C06F3F4FEF7407810591050A
:1030400009F4A9C064374FEF74078105910509F4AD
:10305000A2C061154EEE740741E08407910509F4A2
:103060009AC0613140EF740741E08407910509F48B
:1030700092C06B017C01E894C1F844E1C41640EFB2
:10308000D40641E0E406F10409F485C0633145EF5C
:10309000740741E08407910509F47DC0643148EF6D
:1030A000740741E08407910509F475C06B3049EF5E
:1030B000740741E08407910509F46DC06B017C0140
:1030C00043E0C41A4AEFD40A41E0E40AF10842E0BE
:1030D000C416D104E104F10408F45DC006301A4FAF
:1030E0002140310509F457C06B302AEF720721E007
:1030F0008207910509F44FC08B019C0106501D4FBA
:1031000021403109033011052105310508F443C080
:1031100064364FEF740741E084079105E1F16115D2
:103120002FEF720781059105B1F161324FEF7407FE
:103130008105910581F1653029EF720721E0820751
:10314000910549F166304FEF740741E0840791051E
:1031500011F16D302FEF720721E082079105D9F050
:1031600060324FEF740741E084079105A1F06F7E54
:1031700066567F4F8140910921E0623071058105DB
:10318000910508F020E0822F1F910F91FF90EF90A2
:10319000DF90CF90089521E0F6CF6F342FEF7207C4
:1031A0008105910509F458C068363FEF7307810522
:1031B000910509F451C061152DEE720721E08207D7
:1031C000910509F449C0603130EF730731E083079E
:1031D000910509F441C0653021EF720721E08207B3
:1031E0009105D1F1633131EF730731E08307910528
:1031F00099F1693121EF720721E08207910561F1B0
:10320000633035EF730731E08307910529F16930A9
:1032100028EF720721E082079105F1F0633039EF62
:10322000730731E083079105B9F061302BEF720726
:1032300021E08207910581F021E064363FEF7307BA
:1032400031E08307910531F061317E4F8140910576
:1032500009F020E0822F089521E0FCCFEF92FF9249
:103260000F931F93CF93DF93CDB7DEB7DA950FB6E9
:10327000F894DEBF0FBECDBF7C010E94ECA7AB016E
:10328000BC0100E011E09E012F5F3F4FC7010E948B
:10329000C3908C01089738F0BE016F5F7F4F88E8BC
:1032A0009FE00E9489A4C801D3950FB6F894DEBFB1
:1032B0000FBECDBFDF91CF911F910F91FF90EF9087
:1032C00008954F925F926F927F928F929F92AF92EA
:1032D000BF92CF92DF92EF92FF92CF93DF9300D015
:1032E00000D01F921F92CDB7DEB72A013B01BC016F
:1032F000990F880B990B0E9434B269837A838B8370
:103300009C83A30192010E94D6B06B017C0120E056
:1033100030E0A9010E9432B346015701181624F08B
:10332000B7FAB094B7F8B09420E030E048E151E447
:10333000C701B6010E9437B36B017C0120E030E089
:103340004CE052E40E9432B318160CF442C020E064
:1033500030E04CE052ECC701B6010E9443B187FF58
:1033600006C0C12CD12C7CE0E72E72ECF72E8091A8
:10337000160990911709A0911809B09119098D8328
:103380009E83AF83B88720E030E040E05FE3BC017C
:10339000CD010E94D7B0A50194010E9432B3181646
:1033A000FCF490E080E028960FB6F894DEBF0FBEE4
:1033B000CDBFDF91CF91FF90EF90DF90CF90BF9086
:1033C000AF909F908F907F906F905F904F900C94F4
:1033D0000812C12CD12C6CE0E62E62E4F62EC7CF89
:1033E0002AE939E949E95FE36D817E818F8198851A
:1033F0000E94D7B0A50194010E9432B318160CF0B8
:103400004AC020E030E040EC50E4C701B6010E9421
:1034100032B318160CF120E030E040EC50ECC7015C
:10342000B6010E9443B1A301920187FD97C0698153
:103430007A818B819C810E9432B318169CF420E023
:1034400030E0A901C701B6010E9443B187FF0AC05D
:10345000C12CD12C760119C0C12CD12C50ECE52EF9
:1034600050E4F52EA301920169817A818B819C81C0
:103470000E9443B187FF09C020E030E0A901C701E5
:10348000B6010E9432B318161CF3C701B6010E94A0
:10349000F6B1CB0188CF26E636E646EE5FE36D81D6
:1034A0007E818F8198850E94D7B0A50194010E94EA
:1034B00032B3181614F520E030E040E951E4C701BA
:1034C000B6010E9432B318168CF020E030E040E9DB
:1034D00051ECC701B6010E9443B187FFD6CFC12C82
:1034E000D12C40E9E42E41ECF42ECFCFC12CD12CCD
:1034F00030E9E32E31E4F32EC8CF2AE939E949E176
:1035000050E46D817E818F8198850E94D7B0A5019E
:1035100094010E9432B318160CF4B7CF20E030E0CB
:10352000A901C701B6010E9432B3181684F020E049
:1035300030E0A901C701B6010E9443B187FFA5CFC2
:10354000C12CD12C2CE0E22E22ECF22E9ECFC12CED
:10355000D12C9CE0E92E92E4F92E97CF69817A81F3
:103560008B819C810E9432B318160CF471CFC12C50
:10357000D12C80ECE82EFE2C88CFCF92DF92EF92F8
:10358000FF920F931F93CF93DF9300D000D000D012
:103590001F921F92CDB7DEB78E010F5F1F4F9E01A6
:1035A000275F3F4FAE01455F5F4FBE016B5F7F4FAF
:1035B0000E94CA54882309F489C0CD80DE80EF8040
:1035C000F88428E23BE64EE65EECC701B6010E94B5
:1035D00043B1882381F020E030E044E353E4C701A5
:1035E000B6010E9437B32BED3FE049E450E40E945E
:1035F00048B16B017C01C0921009D0921109E09290
:103600001209F0921309C701B6010E94F6B18EE1CA
:1036100099E00E94DE0A882309F458C08091800C4A
:103620009091810C039709F051C08091820C909188
:10363000830C039709F04AC0409110095091110979
:10364000609112097091130920910C028091140964
:10365000909115090E94611920911009309111096A
:1036600040911209509113096091FE087091FF0872
:1036700080910009909101090E94D6B06B017C01F4
:1036800020E030E040E05FE30E9432B3181654F0CF
:1036900020E030E040E05FEBC701B6010E9443B19B
:1036A00087FF14C08EE199E00E94F80A809110090A
:1036B00090911109A0911209B09113098093FE080D
:1036C0009093FF08A0930009B09301092B960FB6C1
:1036D000F894DEBF0FBECDBFDF91CF911F910F9148
:1036E000FF90EF90DF90CF900895CF92DF92EF920E
:1036F000FF920F931F93CF93DF9300D000D000D0A1
:10370000CDB7DEB719861E821D8219821A821B82EE
:103710001C828E010F5F1F4F9E012B5F3F4FAE013A
:10372000495F5F4FBE01675F7F4F0E940956882344
:10373000F1F1C980DA80EB80FC8028E23BE64EE6BE
:103740005EECC701B6010E9443B1882381F120E0FD
:1037500030E044E353E4C701B6010E9437B32BEDD8
:103760003FE049E450E40E9448B16B017C0120E055
:1037700030E044EB52EC0E9432B387FD18C020E0E9
:1037800030E044EB52E4C701B6010E9443B187FF29
:103790000EC0C0922609D0922709E0922809F09223
:1037A00029098FEF9FE79093B20A8093B10A299677
:1037B0000FB6F894DEBF0FBECDBFDF91CF911F9142
:1037C0000F91FF90EF90DF90CF900895CF92DF920E
:1037D000EF92FF920F931F93CF93DF93CDB7DEB796
:1037E0002F970FB6F894DEBF0FBECDBF1F86198688
:1037F0001A861B861C861D821E821F8218861982CD
:103800001A821B821C829E01235F3F4F79018E0129
:103810000F5F1F4F28503109AE01475F5F4FBE0158
:10382000615F7F4F0E943755882321F1C984DA8474
:10383000EB84FC8428E23BE64EE65EECC701B60171
:103840000E9443B1882381F020E030E044E353E458
:10385000C701B6010E9437B32BED3FE049E450E4C5
:103860000E9448B16B017C01B701A6018EE199E08D
:103870000E9484072F960FB6F894DEBF0FBECDBF0F
:10388000DF91CF911F910F91FF90EF90DF90CF903C
:103890000895CF92DF92EF92FF92CF93DF93EC01E6
:1038A00089859A85089709F05AC08B858B3309F072
:1038B00056C08C858F3909F052C08D858F3F09F035
:1038C0004EC08E858F3F09F04AC08F858F3F09F02B
:1038D00046C0698970E090E080E00E9432B220E04A
:1038E00030E040E853E40E9437B36B017C01688903
:1038F00070E090E080E00E9432B29B01AC01C70111
:10390000B6010E94D7B020E030E044EB53E40E94BF
:1039100037B329EF3FE049E450E40E9448B120E08A
:1039200030E44CE956E40E9448B120E030E040E049
:103930005FE30E94D7B00E94F6B16B018091800CCA
:103940009091810C029791F4C6010E94080F109289
:10395000FD081092FC08D092FB08C092FA08DF9193
:10396000CF91FF90EF90DF90CF9008958091FA086B
:103970009091FB08C816D90639F78091FC08909100
:10398000FD088630910504F701969093FD08809319
:10399000FC08E1CF8F929F92AF92BF92CF92DF92BD
:1039A000EF92FF920F931F93CF93DF93CDB7DEB7C4
:1039B0002D970FB6F894DEBF0FBECDBF1D861986BA
:1039C0001A861B861C861D821E821F8218868E0107
:1039D0000F5F1F4F9E012B5F3F4FAE01475F5F4F51
:1039E000BE01635F7F4F0E947256882309F448C06E
:1039F0008D809E80AF80B884C984DA84EB84FC8497
:103A000028E23BE64EE65EECC501B4010E9443B1FC
:103A10008823F1F020E030E0A901C501B4010E9443
:103A200043B18823A9F028E23BE64EE65EECC701ED
:103A3000B6010E9443B1882319F1A7019601C5017F
:103A4000B4010E94D7B02FEB3EE04CE95EE310C01A
:103A500028E23BE64EE65EECC701B6010E9443B1A8
:103A6000882371F02FEB3EE04CE95EE3C701B6011D
:103A70000E9448B1AB01BC018EE199E00E94BD04F7
:103A80002D960FB6F894DEBF0FBECDBFDF91CF915C
:103A90001F910F91FF90EF90DF90CF90BF90AF906C
:103AA0009F908F900895CF92DF92EF92FF920F93A5
:103AB0001F93CF93DF9300D000D000D01F921F92AE
:103AC000CDB7DEB71B861D821E821F821886198223
:103AD0001A821B821C828E010F5F1F4F9E012B5F7B
:103AE0003F4FAE01475F5F4FBE01655F7F4F0E9452
:103AF000E5578823B1F1CD80DE80EF80F88428E29D
:103B00003BE64EE65EECC701B6010E9443B1882356
:103B100081F020E030E044E353E4C701B6010E94A5
:103B200037B32BED3FE049E450E40E9448B16B010C
:103B30007C01B701A6018EE199E00E94DD0888238F
:103B400081F021EA32EB43E05FE369817A818B8186
:103B50009C810E9448B1AB01BC018EE199E00E94BA
:103B60000C092B960FB6F894DEBF0FBECDBFDF91C8
:103B7000CF911F910F91FF90EF90DF90CF9008951C
:103B8000CF92DF92EF92FF920F931F93CF93DF9329
:103B900000D000D000D01F921F92CDB7DEB71D829B
:103BA0001E821F82188619821A821B821C828E0135
:103BB000075F1F4F9E012F5F3F4FAE014B5F5F4F6F
:103BC000BE01655F7F4F0E94FD5B8823A1F125EE5A
:103BD0003FEC48EF5FE36D817E818F8198850E9485
:103BE00037B3AB01BC018EE199E00E944106C98068
:103BF000DA80EB80FC8028E23BE64EE65EECC70113
:103C0000B6010E9443B1882381F020E030E044E314
:103C100053E4C701B6010E9437B32BED3FE049E4FE
:103C200050E40E9448B16B017C01B701A6018EE10E
:103C300099E00E9438052B960FB6F894DEBF0FBEB0
:103C4000CDBFDF91CF911F910F91FF90EF90DF904B
:103C5000CF9008950F931F93CF93DF9300D000D0A0
:103C60001F921F92CDB7DEB71D821E821F8218865B
:103C700019821A821B821C82AE014F5F5F4FBE0108
:103C80006B5F7F4F0E942F57882361F009811A8153
:103C90002B813C814D815E816F8178858EE199E039
:103CA0000E94780628960FB6F894DEBF0FBECDBFEF
:103CB000DF91CF911F910F9108958F929F92AF92B4
:103CC000BF92CF92DF92EF92FF920F931F93CF9309
:103CD000DF93CDB7DEB7AD970FB6F894DEBF0FBE5A
:103CE000CDBF1DA61AA619A61D8E1E8E1F8E18A248
:103CF000198E1A8E1B8E1C8E1D8A1E8A1F8A188E84
:103D0000198A1A8A1B8A1C8A1D861E861F86188A93
:103D100019861A861B861C861D821E821F821886A3
:103D20001BA61AA219A219821A821B821C829E014A
:103D30002F5F3F4F3F932F93205E3F4F3F932F9333
:103D40002E5F3F4F3F932F93285F3F4F3F932F931B
:103D5000265231093F932F932C5F3F4F3F932F9370
:103D60002C5F3F4F3F932F93215E3F4F3F932F9305
:103D70002750310949012E5F3F4F59012651310922
:103D800069012C5F3F4F79018E01075E1F4F285F4D
:103D90003F4FAE01475D5F4FBE01635D7F4F0E94A5
:103DA0008D590FB6F894DEBF0FBECDBF882321F129
:103DB000C98CDA8CEB8CFC8C20E034E244E759ECC3
:103DC000C701B6010E9443B187FD16C08D889E8849
:103DD000AF88B88C20E034E244E759ECC501B40167
:103DE0000E9443B187FD08C095018401B701A60177
:103DF0008EE199E00E947806AD960FB6F894DEBF8A
:103E00000FBECDBFDF91CF911F910F91FF90EF902B
:103E1000DF90CF90BF90AF909F908F9008952F929A
:103E20003F924F925F926F927F928F929F92AF924A
:103E3000BF92CF92DF92EF92FF920F931F93CF9397
:103E4000DF9300D000D0CDB7DEB7FC0143805480B3
:103E500065807680F4E04F16F9EF5F06F1E06F06BB
:103E6000710409F0FBC0160127011E830D833C83FA
:103E70002B833A018B016C011A821982BE016F5F9C
:103E80007F4F0E94115DF801808318E2E12E1BE64E
:103E9000F12E0EE61EEC9E012F5F3F4F4AE057EDDC
:103EA00063E27CE3C6010E942466F30160837183B0
:103EB00082839383BE016F5F7F4FC6010E94115DB5
:103EC000282F30E0482F437050E0EB81FC81518374
:103ED0004083A901559547955595479543705527BA
:103EE00091E0452B09F490E0ED81FE81908394E010
:103EF000359527959A95E1F72370332791E0232B89
:103F000009F490E0F20190838295869586958370FE
:103F100090E0F1019183808318E2E12E1BE6F12EFF
:103F20000EE61EEC9E012F5F3F4F47E157EB61ED20
:103F300078E3C6010E942466F50160837183828361
:103F400093834FEF5FEFBE016F5F7F4FC6010E940B
:103F50004465F401918380839E012F5F3F4F47E1C9
:103F600057EB61ED78E3C6010E945865EC8DFD8D3D
:103F700060837183828393839E012F5F3F4F47E16C
:103F800057EB61ED78E3C6010E945865EE8DFF8D19
:103F900060837183828393832FEF3FEFA901BE017A
:103FA0006F5F7F4FC6010E94E165E8A1F9A16083C0
:103FB0002FEF3FEFA901BE016F5F7F4FC6010E9447
:103FC000E165EAA1FBA160839E012F5F3F4F45E9B8
:103FD0005FEB66ED73E3C6010E944067ECA1FDA1B3
:103FE00060837183828393839E012F5F3F4F45E9F6
:103FF0005FEB66ED73E3C6010E944067EEA1FFA18F
:1040000060837183828393839E012F5F3F4F4AE0D9
:1040100057ED63E27CE3C6010E94D964E8A5F9A5E7
:10402000608371838283938381E026960FB6F89430
:10403000DEBF0FBECDBFDF91CF911F910F91FF90DB
:10404000EF90DF90CF90BF90AF909F908F907F9038
:104050006F905F904F903F902F90089580E0E5CF54
:104060008F929F92AF92BF92CF92DF92EF92FF9288
:104070000F931F93CF93DF93CDB7DEB7A7970FB6FC
:10408000F894DEBF0FBECDBF1FA2198E1A8E1B8EF5
:104090001C8E1EA21DA21D8A1E8A1F8A188E1E8EAD
:1040A0001D8E198A1A8A1B8A1C8A1D861E861F86E7
:1040B000188A1CA21BA219861A861B861C861D82C2
:1040C0001E821F82188619821A821B821C829E0100
:1040D0002F5F3F4F3F932F932C5F3F4F3F932F9383
:1040E0002C5F3F4F3F932F93265E3F4F3F932F937D
:1040F0002F5F3F4F3F932F93275131093F932F93CA
:104100002C5F3F4F3F932F93245F3F4F490128502F
:1041100031095901265F3F4F69012A5F3F4F7901FD
:104120008E010A5D1F4F24503109AE01475E5F4F7B
:10413000BE01695D7F4F0E940F1F0FB6F894DEBF6E
:104140000FBECDBF882361F02D813E814F81588500
:1041500069857A858B859C850BE515E00E944E0E5E
:10416000A7960FB6F894DEBF0FBECDBFDF91CF91FB
:104170001F910F91FF90EF90DF90CF90BF90AF9085
:104180009F908F900895CF93DF93EC018B819C815A
:10419000AD81BE8188309F4FA105B105F1F48985BD
:1041A0009A850697D4F08B858B33B9F48C858F393B
:1041B000A1F48D858F3F89F48F858A3321F48FEFA9
:1041C0009FEF0E94D70E8E85811113C08F858D3190
:1041D00039F410920F0910920E09DF91CF910895D2
:1041E0008035D9F781E090E090930F0980930E0914
:1041F000F4CF813091F78F858D3179F782E090E0AF
:10420000F3CFCF92DF92EF92FF92CF93DF93EC0147
:1042100090E080E00E9432B220E030E040E853E4D9
:104220000E9437B36B017C01BE0190E080E00E94E8
:1042300032B29B01AC01C701B6010E94D7B020E0A9
:1042400030E044EB53E40E9437B329EF3FE049E408
:1042500050E40E9448B120E030E44CE956E40E946A
:1042600048B120E030E040E05FE30E94D7B00E9418
:10427000F6B1CB01DF91CF91FF90EF90DF90CF901F
:1042800008954F925F926F927F928F929F92AF921A
:10429000BF92CF92DF92EF92FF920F931F93CF9333
:1042A000DF931F921F92CDB7DEB7FC01838194810B
:1042B000A581B68180339F4FA140B10509F04AC066
:1042C0008185928541970CF445C083858B3309F035
:1042D00041C084858F39F1F56F011A821982BE01C0
:1042E0006F5F7F4FCF010E94115D89819A81059692
:1042F0009A83898318E2E12E1BE6F12E0EE61EEC6E
:104300009E012F5F3F4F4AE057ED63E27CE3C60119
:104310000E9424664B015C01F601028D10E0102F13
:104320000027818D080F111D608D70E0878990E056
:104330000E9401216C012801110F66087708C50150
:10434000B4010E94FDB1AB01BC0193018201C60121
:104350000E943A0F0F900F90DF91CF911F910F9114
:10436000FF90EF90DF90CF90BF90AF909F908F9095
:104370007F906F905F904F900895CF92DF92EF9271
:10438000FF920F931F93CF93DF93CDB7DEB7CF5E2E
:10439000D1090FB6F894DEBF0FBECDBFF12CE12CD2
:1043A00000E010E0980146E06FE0CE0101960E9427
:1043B000CA5C8091B90A9091BA0A181619060CF0D5
:1043C00046C001979093BA0A8093B90A8091BB0ABC
:1043D0009091BC0A019797FD35C09093BC0A8093D9
:1043E000BB0A8AE599E00E94C4A020E831E541E0DB
:1043F00050E00E940AB069010E9432B29B01AC01F8
:1044000010E000E0B601CE0101960E94B05A50E0E3
:1044100040E0BE016F5F7F4F8091310C9091320C74
:104420000E94567BC151DF4F0FB6F894DEBF0FBE1E
:10443000CDBFDF91CF911F910F91FF90EF90DF9053
:10444000CF9008951092BC0A1092BB0ACACF80E0A8
:10445000E9CF8F929F92AF92BF92CF92DF92EF926D
:10446000FF920F931F93CF93DF93CDB7DEB7CF5E4D
:10447000D1090FB6F894DEBF0FBECDBFF12CE12CF1
:1044800000E010E0980146E06FE0CE0101960E9446
:10449000CA5C8091A90A9091AA0A18161906ACF074
:1044A00080E0C151DF4F0FB6F894DEBF0FBECDBF25
:1044B000DF91CF911F910F91FF90EF90DF90CF9000
:1044C000BF90AF909F908F90089501979093AA0A04
:1044D0008093A90AC0903209D0903309E090340942
:1044E000F0903509C701B6019F772AE037ED43E226
:1044F0005CE30E9432B318169CF680903F099090BE
:104500004009A0904109B0904209C501B4019F77CC
:104510002AE037ED43E25CE30E9432B318160CF058
:10452000BFCF95018401B701A601CE0101960E947B
:10453000E75650E040E0BE016F5F7F4F8091310C45
:104540009091320C0E94567BACCF8F929F92AF928B
:10455000BF92CF92DF92EF92FF920F931F93CF9370
:10456000DF93CDB7DEB7CF5ED1090FB6F894DEBFCB
:104570000FBECDBFF12CE12C00E010E0980146E029
:104580006FE0CE0101960E94CA5C2091AD0A309185
:10459000AE0A121613060CF065C08091AF0A909116
:1045A000B00A181619060CF05DC02150310930937D
:1045B000AE0A2093AD0A01979093B00A8093AF0A98
:1045C000C0905409D0905509E0905609F0905709D1
:1045D0008090500990905109A0905209B0905309D1
:1045E00028E23BE64EE65EECC501B4010E9443B111
:1045F000882381F020E030E044E353E4C501B401B6
:104600000E9448B12BED3FE049E450E40E9437B3EB
:104610004B015C019501840150E040E061E0CE0176
:1046200001960E94875750E040E0BE016F5F7F4FC8
:104630008091310C9091320C0E94567BC151DF4F1A
:104640000FB6F894DEBF0FBECDBFDF91CF911F91A3
:104650000F91FF90EF90DF90CF90BF90AF909F9021
:104660008F90089580E0EACF4F925F926F927F9291
:104670008F929F92AF92BF92CF92DF92EF92FF9272
:104680000F931F93CF93DF93CDB7DEB7CF5ED109E2
:104690000FB6F894DEBF0FBECDBFF12CE12C00E0C9
:1046A00010E0980146E06FE0CE0101960E94CA5CDE
:1046B00080919D0A90919E0A181619060CF09BC0D5
:1046C000019790939E0A80939D0A8AE599E00E9443
:1046D000C4A080903F0990904009A0904109B090FB
:1046E0004209C0903209D0903309E0903409F0902B
:1046F000350920E831E541E050E00E940AB0290187
:104700000E9432B28B019C0180919A0A8F93809112
:10471000990A8F938091980A8F938091970A8F932B
:1047200080919C0A8F9380919B0A8F931F921F9276
:1047300081E08F938091960A8F938091950A8F9351
:104740008091940A8F938091930A8F931F921F9266
:104750001F921F9280918E0A8F9380918D0A8F9362
:1047600080918C0A8F9380918B0A8F938091890A14
:104770008F938091880A8F938091870A8F931F92DD
:104780001F928091920A8F938091910A8F938091CA
:10479000900A8F9380918F0A8F93A20161E0CE01DE
:1047A00001960E94525850E040E0BE016F5F7F4F7B
:1047B0008091310C9091320C0E94567B0FB6F89488
:1047C000DEBF0FBECDBFC151DF4F0FB6F894DEBFC5
:1047D0000FBECDBFDF91CF911F910F91FF90EF9052
:1047E000DF90CF90BF90AF909F908F907F906F9011
:1047F0005F904F90089580E0E6CFAF92BF92CF9246
:10480000DF92EF92FF920F931F93CF93DF93CDB779
:10481000DEB7CF5ED1090FB6F894DEBF0FBECDBFB5
:104820005C01F12CE12C00E010E0980146E06FE023
:10483000CE0101960E94CA5C8091B10A9091B20AA1
:10484000181619060CF04DC01092B20A1092B10A57
:10485000C0902609D0902709E0902809F0902909F6
:1048600028E23BE64EE65EECC701B6010E9443B18A
:10487000882381F020E030E044E353E4C701B6012F
:104880000E9448B12BED3FE049E450E40E9437B369
:104890006B017C0187017601950141E050E061E008
:1048A000CE0101960E94BC5550E040E0BE016F5F12
:1048B0007F4F8091310C9091320C0E94567BC151F8
:1048C000DF4F0FB6F894DEBF0FBECDBFDF91CF91A3
:1048D0001F910F91FF90EF90DF90CF90BF90AF901E
:1048E000089580E0ECCF8F929F92AF92BF92EF92AB
:1048F000FF920F931F93CF93DF93CDB7DEB7CF5EB9
:10490000D1090FB6F894DEBF0FBECDBFF12CE12C5C
:1049100000E010E0980146E06FE0CE0101960E94B1
:10492000CA5C8091B90A9091BA0A181619069CF0CF
:1049300080E0C151DF4F0FB6F894DEBF0FBECDBF90
:10494000DF91CF911F910F91FF90EF90BF90AF90AB
:104950009F908F90089501979093BA0A8093B90A17
:104960008091BB0A9091BC0A019797FD2DC090934E
:10497000BC0A8093BB0A8AE599E00E94C4A020E8A3
:1049800031E541E050E00E940AB049010E9432B294
:104990008B019C01F12CE12CA40161E0CE01019678
:1049A0000E94865450E040E0BE016F5F7F4F8091CF
:1049B000310C9091320C0E94567B882309F4B8CFB9
:1049C000C4010E94FD23B5CF1092BC0A1092BB0A0D
:1049D000D2CFEF92FF920F931F93CF93DF93CDB778
:1049E000DEB7CF5ED1090FB6F894DEBF0FBECDBFE4
:1049F000F12CE12C00E010E0980146E06FE0CE01E0
:104A000001960E94CA5C8091BD0A9091BE0A181658
:104A10001906E4F501979093BE0A8093BD0A26E536
:104A20003EE04DEE5FE36091790970917A098091E3
:104A30007B0990917C090E9437B320E030E04AE77F
:104A400054E40E9437B37B018C0120E050E040E049
:104A500061E0CE0101960E94F25A50E040E0BE01B2
:104A60006F5F7F4F8091310C9091320C0E94567B8A
:104A7000C151DF4F0FB6F894DEBF0FBECDBFDF913F
:104A8000CF911F910F91FF90EF90089580E0F0CFAC
:104A90002F923F924F925F926F927F928F929F924E
:104AA000AF92BF92CF92DF92EF92FF920F931F933C
:104AB000CF93DF93CDB7DEB7CF5FD1090FB6F894B0
:104AC000DEBF0FBECDBFF12CE12C00E010E098015D
:104AD00046E06FE0CE0101960E94CA5C6091BD0A7B
:104AE0007091BE0A161617060CF0EBC24091BF0A71
:104AF0005091C00A141615060CF0E3C22091C10AA9
:104B00003091C20A8091C30A9091C40A121613060A
:104B100024F0181619060CF0D4C261507109709374
:104B2000BE0A6093BD0A415051095093C00A409398
:104B3000BF0A2150310937FD40C13093C20A20938A
:104B4000C10A019797FD3EC19093C40A8093C30A9E
:104B500080917D0990917E09A0917F09B091800993
:104B6000CE50DF4F88839983AA83BB83C25FD04036
:104B700090918209C250DF4F9883CE5FD040A091C0
:104B80008109C150DF4FA883CF5FD0408AE599E00B
:104B90000E94C4A020E831E541E050E00E940AB044
:104BA00019010E9432B23B018C01CA50DF4F688369
:104BB000C65FD040C950DF4F7882C75FD040C85031
:104BC000DF4F8883C85FD040C750DF4F1883C95F6D
:104BD000D040C051DF4F39822882C05FD0408090E2
:104BE000540990905509A0905609B09057092DECA2
:104BF0003CEC4CEC5DE3C501B4010E9432B31816E5
:104C00000CF05CC020E030E0A901CE50DF4F68819D
:104C100079818A819B81C25FD0400E9432B318168D
:104C20000CF04CC0A5019401CE50DF4F6881798112
:104C30008A819B81C25FD0400E9448B16B017C0198
:104C400020E030E040EC51E40E9432B3181694F4B6
:104C5000C1010196C051DF4F99838883C05FD04066
:104C600020E030E040EC51E4C701B6010E94D6B02C
:104C70006B017C0120E030E041E655E4C701B6015C
:104C80000E9437B39B01AC01662D772D802F912FA9
:104C90000E94D7B0CA50DF4F6883C65FD040C9506A
:104CA000DF4F7883C75FD040C850DF4F8883C85F2D
:104CB000D040C750DF4F9883C95FD040C090240ACE
:104CC000D090250AE090260AF090270A20E030E0F4
:104CD00044EB53ECC701B6010E9432B318160CF036
:104CE00076C02091260930912709409128095091DA
:104CF0002909C701B6010E94D7B0762E672E582E1B
:104D0000492E20E030E044EB53EC0E9432B31816F9
:104D10000CF473C0C090490AD0904A0AE0904B0A44
:104D2000F0904C0A20E030E044EB53ECC701B601B0
:104D30000E9432B318160CF08FC0209126093091D2
:104D400027094091280950912909C701B6010E94FD
:104D5000D7B0162F072FE82EC92E20E030E044EB05
:104D600053ECD8016B2F7A2F0E9432B318160CF037
:104D7000B8C028E23BE64EE65EECD8016B2F702F00
:104D80008E2D9C2D0E9443B1882309F4AAC020E0F7
:104D900030E044E353E4D8016B2F702F8E2D9C2D0F
:104DA0000E9448B12BED3FE049E450E40E9437B344
:104DB000162F072FE82EC92E94C01092C20A109207
:104DC000C10ABFCE1092C40A1092C30AC1CE70901D
:104DD000200A6090210A5090220A4090230A20E085
:104DE00030E044EB53ECD301F2016B2F7A2F8F2F7D
:104DF0009E2F0E9432B3181634F528E23BE64EE6A9
:104E00005EECD301F2016B2F762D8F2F942D0E9433
:104E100043B1882309F47ECF20E030E044E353E43B
:104E2000D301F2016B2F762D8F2F942D0E9448B164
:104E30002BED3FE049E450E40E9437B3762E672E15
:104E4000582E492E67CF28E2722E3BE6632E4EE69F
:104E5000542E5EEC452E5ECF1091450A0091460A15
:104E6000E090470AC090480A20E030E044EB53EC61
:104E7000D8016B2F7A2F8E2D9C2D0E9432B31816DD
:104E80000CF477CFC090FF09D090000AE090010A9F
:104E9000F090020A20E030E044EB53ECC701B60189
:104EA0000E9432B318160CF448CF1091FB09009100
:104EB000FC09E090FD09C090FE0920E030E044EBE1
:104EC00053ECD8016B2F7A2F8E2D9C2D0E9432B37C
:104ED00018160CF44ECF18E20BE68EE6E82E9EEC88
:104EE000C92E9091F309C650DF4F9883CA5FD04016
:104EF000A091F409C550DF4FA883CB5FD04030901C
:104F0000F5092090F609D090F709B091F809C4503E
:104F1000DF4FB883CC5FD0408091F909C350DF4F99
:104F20008883CD5FD040F090FA0926E53EE04DEE53
:104F30005FE3C501B4010E9437B320E030E04AE7E7
:104F400054E40E9437B320E030E041E655E40E948B
:104F500048B19F938F937F936F93FF92C350DF4F1E
:104F60009881CD5FD0409F93C450DF4FA881CC5F24
:104F7000D040AF93DF922F923F92C550DF4FB88160
:104F8000CB5FD040BF93C650DF4F8881CA5FD0400F
:104F90008F9381E08F938FEF8F93CF92EF920F9348
:104FA0001F934F925F926F927F92CF50DF4F988105
:104FB000C15FD0409F93C051DF4FA881C05FD040F8
:104FC000AF93C750DF4FB881C95FD040BF93C8507F
:104FD000DF4F8881C85FD0408F93C950DF4F9881E1
:104FE000C75FD0409F93CA50DF4FA881C65FD040B3
:104FF000AF93B12CA12CC150DF4FC880CF5FD04000
:10500000C250DF4FE880CE5FD04010E000E0CE50CD
:10501000DF4F288139814A815B81C25FD04061E0E6
:10502000CE0101960E943E5B50E040E0BE016F5F02
:105030007F4F8091310C9091320C0E94567BE82E6C
:105040000DE41AE0C450DF4F6881CC5FD040C350FC
:10505000DF4F9881CD5FD0402D2D362F492F5F2D0A
:10506000C650DF4FB881CA5FD040C550DF4FA8811E
:10507000CB5FD040F1016B2F7A2F8F2F9E2F0E9494
:105080004E0E0FB6F894DEBF0FBECDBF8E2DC150B1
:10509000DF4F0FB6F894DEBF0FBECDBFDF91CF91CB
:1050A0001F910F91FF90EF90DF90CF90BF90AF9046
:1050B0009F908F907F906F905F904F903F902F9038
:1050C0000895E12CE3CFE091F808F091F908E7307A
:1050D000F105C0F48827E059F74D8F4F0C944BB081
:1050E00077288F289228772895289A289D280E942B
:1050F000A5228091860C882329F061E08EE199E059
:105100000E94BB078091F8089091F90801968730BA
:105110009105B4F49093F9088093F80808950E94DB
:105120007324F0CF0E942922EDCF0E94BD210E945E
:105130003423E8CF0E94E924E5CF0E944825E2CF3E
:105140001092F9081092F80808950F931F93CF93C7
:10515000DF93E4E7FCE01382128288EE93E0A0E0A4
:10516000B0E084839583A683B78388E497E0918336
:105170008083E4E6FCE01386128614861586168684
:10518000178688E290E09183808348EC50E060E0ED
:1051900070E0428353836483758380E293E0A0E0F0
:1051A000B0E086839783A087B187E4E5FCE01386AF
:1051B0001286148615861686178629E230E031831A
:1051C0002083428353836483758386839783A08778
:1051D000B187E4E4FCE013861286148615861686F1
:1051E00017862AE230E0318320834283538364832D
:1051F000758386839783A087B187E4E3FCE01386F9
:10520000128614861586168617862BE230E03183C7
:105210002083428353836483758386839783A08727
:10522000B18765E383E39CE00E94859E8EE490E075
:105230000E949CA7EC0102E310E025E142E065E357
:105240000E944052D093320CC093310C83E19CE019
:105250000E94BC4B86EF9BE00E94BC4B85E99BE023
:105260000E945A4884E39BE00E945A4883ED9AE0EA
:105270000E945A48CEE1D9E010927D0910927E0931
:1052800010927F0910928009109281091092820970
:1052900085E2E9E3F2E0A3E8B9E001900D928A9596
:1052A000E1F71092A80985E2E3E8F9E0A9EAB9E09C
:1052B00001900D928A95E1F785E2E3E8F9E0A2E634
:1052C000BAE001900D928A95E1F710929E0A109231
:1052D0009D0A1092A00A10929F0A1092A20A1092A0
:1052E000A10A1092A40A1092A30A1092A60A109280
:1052F000A50A1092A80A1092A70A1092AA0A109260
:10530000A90A1092AC0A1092AB0A1092AE0A10923F
:10531000AD0A1092B00A1092AF0A1092B20A10921F
:10532000B10A1092B40A1092B30A1092B60A1092FF
:10533000B50A1092B80A1092B70A1092BA0A1092DF
:10534000B90A1092BC0A1092BB0A1092BE0A1092BF
:10535000BD0A1092C00A1092BF0A1092C20A10929F
:10536000C10A1092C40A1092C30A1092C60A10927F
:10537000C50A1092C80A1092C70A1092CA0A10925F
:10538000C90A1092CC0A1092CB0A1092CE0A10923F
:10539000CD0A1092D00A1092CF0A1092D20A10921F
:1053A000D10A188219821A821B821C821D821E82D7
:1053B0001F8280E090E0A0E4B0EC88879987AA87FC
:1053C000BB871C861D861E861F86188A198A1A8A24
:1053D0001B8A1C8A1D8A1E8A1F8A198E188E1B8E94
:1053E0001A8E1C8E1D8E1E8E1F8E80E488A319A21D
:1053F0001AA21BA21CA21EA21DA218A61FA219A6B9
:105400001AA61BA61CA68DA71EA61FA618AA19AA17
:105410001AAA1BAA1CAA1DAA1EAA1FAA18AE19AE58
:105420001BAE1AAE60E878E081E699E00E94D4B540
:1054300060E878E08DE699E00E94D4B510926009AA
:1054400010925F0910925E091EAE1DAE1CAE109246
:10545000790910927A0910927B0910927C0985E2F1
:10546000E3E8F9E0AEECB9E001900D928A95E1F73E
:1054700085E2E3E8F9E0A3EFB9E001900D928A95A7
:10548000E1F785E2E3E8F9E0A8E1BAE001900D92E6
:105490008A95E1F785E2E3E8F9E0ADE3BAE001904F
:1054A0000D928A95E1F781E090E09093880A8093CD
:1054B000870A10928A0A1092890A10928B0A109217
:1054C0008C0A10928D0A10928E0A10928F0A1092F6
:1054D000900A1092910A1092920A1092930A1092D6
:1054E000940A1092950A1092960A1092970A1092B6
:1054F000980A1092990A10929A0A10929C0A109295
:105500009B0ADF91CF911F910F91089588E497E056
:105510009093750C8093740C0C94CB4E6FE475E0F3
:1055200088E89FE00E9477A488E89FE00C9417A287
:105530006DE375E088E89FE00E9477A488E89FE02B
:105540000C9417A26BE275E088E89FE00E9477A4B4
:1055500088E89FE00C9417A28091A20C81112DC0C5
:105560008091820C9091830C2091800C3091810C61
:105570008217930739F085E090E090930D098093AE
:105580000C09089520910C0930910D092115310560
:10559000A1F02150310930930D0920930C0982307C
:1055A000910511F40C948E2A8330910511F40C941A
:1055B000982A019711F40C94A22A0895CF93DF93AF
:1055C000EC018B819C81AD81BE8181159F4EA140F4
:1055D000B10519F589859A850897FCF08B858B3381
:1055E000E1F48C858F39C9F48D85803FB1F48E85C7
:1055F000813899F48F85843809F05BC09B8980914C
:10560000A20C90FF0DC0811102C00E94982A83E075
:1056100090E09093810C8093800CDF91CF9108955E
:1056200091FF40C0811102C00E948E2A82E090E06A
:105630009093810C8093800C8091A20C8111EDCF0E
:105640008B8960E973E082FD02C06EE773E088E851
:105650009FE00E9477A48B896CE673E083FD02C013
:1056600069E573E088E89FE00E9477A489898295C4
:10567000869586958370CA89C695D0E09AE5899FFC
:10568000C00DD11D11246AE473E088E89FE00E94F8
:1056900040A44AE050E0BE0188E89FE0DF91CF914E
:1056A0000C943BA5811102C00E94A22A81E090E0E7
:1056B000BFCF863841F467E373E088E89FE0DF916D
:1056C000CF910C9477A48D3A09F0A7CF88898330C5
:1056D00009F0A3CF6989062E000C770B880B990B74
:1056E0000E9434B22BED3FE049E450E40E9448B1FF
:1056F0000E94F6B1CB01DF91CF910C94210FCF9294
:10570000DF92EF92FF92CF93DF93EC01CB80DC80AE
:10571000ED80FE808F818631A1F461EA73E088E834
:105720009FE00E9440A42AE030E0B701A60188E88B
:105730009FE0DF91CF91FF90EF90DF90CF900C949E
:1057400067A580910609909107098A30910528F490
:1057500001969093070980930609C701B6010E943C
:10576000CD18811141C1C701B6010E94DA1781111C
:105770003BC184E39CE00E94670D28E0C2162FEF36
:10578000D206E104F10449F4CE01DF91CF91FF90FC
:10579000EF90DF90CF900C94C32080E5C8168FEF78
:1057A000D806E104F10449F4CE01DF91CF91FF90D6
:1057B000EF90DF90CF900C94491CC1142FEED206CD
:1057C00021E0E206F10449F4CE01DF91CF91FF9090
:1057D000EF90DF90CF900C94DE2A8DE0C81681EF19
:1057E000D80681E0E806F10469F48F81882309F482
:1057F000FBC0CE01DF91CF91FF90EF90DF90CF9073
:105800000C94BD1A22E1C21621EFD20621E0E20675
:10581000F10469F48F81882309F4E6C0CE01DF9199
:10582000CF91FF90EF90DF90CF900C94E61B8AE130
:10583000C81681EFD80681E0E806F10469F480918A
:10584000870C8111D1C0CE01DF91CF91FF90EF90F5
:10585000DF90CF900C94751B2BE0C21625EFD2067B
:1058600021E0E206F10469F48091870C8111BCC04B
:10587000CE01DF91CF91FF90EF90DF90CF900C940D
:10588000CA1C81E0C81688EFD80681E0E806F1045A
:1058900069F48091870C8111A7C0CE01DF91CF916F
:1058A000FF90EF90DF90CF900C942A1E22E0C2165A
:1058B00028EFD20621E0E206F10469F48091870C1A
:1058C000811192C0CE01DF91CF91FF90EF90DF90D8
:1058D000CF900C94531D85E0C81688EFD80681E060
:1058E000E806F10469F48091870C81117DC0CE0136
:1058F000DF91CF91FF90EF90DF90CF900C945D1EE1
:1059000024E0C21629EFD20621E0E206F10449F4B0
:10591000CE01DF91CF91FF90EF90DF90CF900C946C
:10592000302085E0C81689EFD80681E0E806F1044A
:1059300069F48091A20C811157C0CE01DF91CF9103
:10594000FF90EF90DF90CF900C942E19D701C601F5
:105950008E50984FA140B1090297A105B10548F3B7
:1059600021E1C21628EFD20621E0E206F10409F394
:10597000D701C601877F82309B4FA140B105C9F294
:10598000D701C60181519B4FA140B1090297A105E2
:10599000B10578F282E0C8168DEFD80681E0E806FE
:1059A000F10449F4CE01DF91CF91FF90EF90DF90A9
:1059B000CF900C94C01D20E3C2162FEFD20621E039
:1059C000E206F10449F4CE01DF91CF91FF90EF9010
:1059D000DF90CF900C9441218091A20C811104C0E2
:1059E00080910E028111A9CFDF91CF91FF90EF90AE
:1059F000DF90CF9008956F927F928F929F92AF9297
:105A0000BF92CF92DF92EF92FF920F931F93CF93AB
:105A1000DF934C01FC01C181CF70D0E0239685E07B
:105A2000C82ED12C662463948BE49DE00E9484A14F
:105A30007C01540191E0E114F10459F08BE49DE004
:105A40000E94FF4F63E070E080E090E00E941DA89C
:105A5000EBCF81E0EC16FD060CF480E0792E762485
:105A6000782A41F5F50101915F0110E0E114F1049C
:105A700009F41160B8018BE49DE00E94255063E0B9
:105A800070E080E090E00E941DA88BE49DE00E9401
:105A900084A1892B51F08BE49DE00E94FF4F772475
:105AA00073948017910709F0712CFFEFEF1AFF0A2A
:105AB000972DCFCF911112C022E330E040E050E0AB
:105AC00062E070E080E090E00E946CA70E941DA858
:105AD00081E0C81AD10809F0A7CF712C872DDF917A
