:100000000C949F020C94D0020C94D0020C94D00259
:100010000C94D0020C94D0020C94D0020C94D00218
:100020000C94D0020C940B570C9442570C947957B3
:100030000C94D0020C94D0020C94D0020C94D002F8
:100040000C94D0020C94D0020C94D0020C94D002E8
:100050000C94D0020C94D0020C94D0020C94C06981
:100060000C94D0020C941B650C9450650C94D00237
:100070000C94D0020C94D0020C94D0020C94D002B8
:100080000C94D0020C94D0020C94D0020C94D002A8
:100090000C94AF580C94E4580C94D0020C94D002F9
:1000A0000C94D0020C94D0020C94D0020C94D00288
:1000B0000C94D0020C94D0020C94185F0C94065E41
:1000C0000C9429600C94D0020C94D0020C946259C8
:1000D0000C9497590C94D0020C94DE650C94136622
:1000E0000C94D002DC20AC21AC21AC21AC21AC21A1
:1000F000AC21AC21AC21AC21AC21AC21AC21AC2198
:10010000AC21AC21E920F620AC21AC21AC21AC2102
:10011000AC21AC21AC21AC21AC21AC21AC21AC2177
:10012000AC21AC210321AC21AC211021AC21AC21AC
:100130001D212A21AC21AC21AC21AC21AC21AC2168
:10014000AC21AC21AC21AC21AC21AC21AC21AC2147
:10015000AC21AC21AC21AC21AC21AC21AC21AC2137
:10016000AC21AC21AC21AC21AC21AC21AC21AC2127
:10017000AC21AC21AC21AC21AC21AC21AC21AC2117
:10018000AC21AC21AC21AC21372144215121AC213F
:100190005E216B217821AC21AC21AC21AC21AC21BA
:1001A000AC21AC21AC21AC21AC21AC21AC21AC21E7
:1001B000AC21AC21AC21AC21AC21AC21AC21AC21D7
:1001C000AC21AC21AC21AC21AC21AC21AC21AC21C7
:1001D000AC21AC21AC21AC21AC21AC21AC21AC21B7
:1001E000AC21AC21AC21AC21AC21AC21AC21AC21A7
:1001F000AC21AC21AC218521AC21AC21AC21AC21BE
:10020000AC21AC21AC21AC21AC21AC21AC21AC2186
:10021000AC21AC21AC219221AC21AC219F217750A3
:100220008D508D508D508D508D508D508D508D50E6
:100230008D508D508D508D508D508D508D508D50D6
:100240008D508D508D508D508D508D508D508D50C6
:100250008D508D508D508D508D508D508D508A4EBB
:10026000554E8A4E8D508D508D508D508D508D50E5
:100270008D508D508D508D508D508D508D508D5096
:100280008D508D50544B8D508D508D508D508D50C4
:100290008D508D508D508D50544BD64E544B8A4EB0
:1002A000554E8A4E8D50544B8D508D508D508D50E3
:1002B0008D50544BE74F8D508D50404F8D50544BC7
:1002C0008D508D50544BE06CEA6CC26CCC6CD66C8B
:1002D000626DF46CFE6C086D126D1C6D266D306DD8
:1002E0003A6D626D446D4E6D586D0C94EA6C0C94D1
:1002F000E74F0C94FE6C0C94586D0C9416510C94B2
:1003000080630C9403210C94126D0C94DF600C94A8
:1003100015230C94E9200C9438550C94266D0C94FC
:10032000D64E0C9406230C947D610C9446630C9479
:10033000F46C0C9444210C942F3C0C945E210C948E
:100340003A6D0C94D66C0C9492210C94A8600C9489
:100350009F210C9448660C9477500C9485210C9442
:100360009B5C0C946C550C94AE5C0C941D210C940D
:10037000CC6C0C9455590C9407510C943C3C0C9447
:10038000E06C0C94404F0C9437210C9410210C9489
:10039000AC210C9451210C9419630C94D4660C94E8
:1003A000B0570C94554E0C94306D0C94544B0C94E7
:1003B00040610C948D500C94F7620C9496660C94EA
:1003C00085650C94B5630C94086D0C942A210C94EB
:1003D000626D0C941A640C94C26C0C94DC200C9426
:1003E0008A4E0C9478210C94493C0C94085A0C9435
:1003F000D1650C94743C0C944E6D0C940F610C946C
:10040000F6200C941C6D0C946B210C947C690C945C
:10041000446D00002100240027002A002D00300038
:10042000330001010000040107010A01000022005D
:10043000250028002B002E003100340002010000AE
:10044000050108010B0100002000230026002900FF
:100450002C002F00320000010000030106010901F9
:1004600005050505070508080808020202020A0A30
:10047000080804040404010101010101010103034E
:10048000030303030303040707070C0C0C0C0C0CF9
:100490000C0C0202020206060606060606060B0BF6
:1004A0000B0B0B0B0B0B0102102020080810204037
:1004B0001020408002010201080402010102040828
:1004C00010204080804020100804020180040201B6
:1004D00080402010080402010804020101020408FF
:1004E00010204080010204081020408000000B0C06
:1004F000030A0D0E0F0908040502000000000000A9
:1005000000000000000000000000000000000000EB
:1005100000000000000000001312110000000000A5
:1005200000000000000000000000000000000000CB
:1005300000002F3C5559085AD16596663C3C112461
:100540001FBECFEFD1E2DEBFCDBF00E00CBF17E092
:10055000A0E0B2E0E0E2F7EE00E00BBF02C00790DF
:100560000D92A030B107D9F72DE0A0E0B7E001C0AF
:100570001D92A53FB207E1F712E0CEE9D2E000E01C
:1005800006C021970109802FFE010E944D6EC939D6
:10059000D10780E00807A9F70E948A690C947E734E
:1005A0000C940000CF92DF92EF92FF920F931F9373
:1005B000CF93DF93CDB7DEB7C656D1090FB6F89407
:1005C000DEBF0FBECDBF9E012B593F4FF901918376
:1005D0008083CE018B599F4FFC0180819181865A87
:1005E0009F4FFC0180819181181619060CF04CC0B8
:1005F000CE018B599F4FFC0180819181FC0180814C
:100600009181A281B381AC01BD01CE0101960E940E
:10061000F214CE0101960E94570F0E94FD2DCE01CB
:100620008B599F4FFC0180819181865A9F4FFC011D
:10063000808191819C0121503109CE018B599F4FBE
:10064000FC0180819181865A9F4FFC013183208378
:10065000CE018B599F4FFC0180819181865A9F4F1B
:10066000FC0180819181892F881F8827881F88231A
:1006700059F0CE018B599F4FFC0180819181865AA0
:100680009F4FFC0111821082CE018B599F4FFC01BC
:10069000808191818A589F4FFC0180819181181639
:1006A00019060CF050C0CE018B599F4FFC01808180
:1006B00091818E5A9F4FFC0180819181A281B381EB
:1006C000AC01BD01CE0101960E94B60FCE0101968C
:1006D0000E94570F0E94FD2DCE018B599F4FFC01A8
:1006E000808191818A589F4FFC01808191819C017A
:1006F00021503109CE018B599F4FFC01808191819E
:100700008A589F4FFC0131832083CE018B599F4F24
:10071000FC01808191818A589F4FFC0180819181E9
:10072000892F881F8827881F882309F469C0CE0174
:100730008B599F4FFC01808191818A589F4FFC010A
:10074000118210825DC0CE018B599F4FFC018081C8
:1007500091818C589F4FFC01808191811816190658
:100760000CF04EC0CE018B599F4FFC0180819181CE
:10077000825B9F4FFC0180819181A281B381AC019A
:10078000BD01CE0101960E94B60FCE0101960E94D6
:10079000570F0E94FD2DCE018B599F4FFC01808188
:1007A00091818C589F4FFC01808191819C01215047
:1007B0003109CE018B599F4FFC01808191818C586A
:1007C0009F4FFC0131832083CE018B599F4FFC0149
:1007D000808191818C589F4FFC0180819181892F6C
:1007E000881F8827881F882359F0CE018B599F4F77
:1007F000FC01808191818C589F4FFC0111821082F5
:10080000CE018B599F4FFC01808191818E599F4F62
:10081000FC0180819181181619060CF09DC0CE0153
:100820008B599F4FFC0180819181805A9F4FFC0121
:1008300080819181181619060CF08EC0CE018B595B
:100840009F4FFC0180819181FC0122893389448979
:100850005589CE018B599F4FFC0180819181FC010C
:1008600086899789A08DB18D89019A01AC01BD015E
:10087000CE0101960E94660FCE0101960E94570F8D
:100880000E94FD2DCE018B599F4FFC0180819181EB
:100890008E599F4FFC01808191819C01215031092B
:1008A000CE018B599F4FFC01808191818E599F4FC2
:1008B000FC0131832083CE018B599F4FFC01808145
:1008C00091818E599F4FFC0180819181892F881FD2
:1008D0008827881F882359F0CE018B599F4FFC0130
:1008E000808191818E599F4FFC0111821082CE012F
:1008F0008B599F4FFC0180819181805A9F4FFC0151
:10090000808191819C0121503109CE018B599F4FEB
:10091000FC0180819181805A9F4FFC0131832083AB
:10092000CE018B599F4FFC0180819181805A9F4F4E
:10093000FC0180819181892F881F8827881F882347
:1009400059F0CE018B599F4FFC0180819181805AD3
:100950009F4FFC0111821082CE018B599F4FFC01E9
:10096000808191818C599F4FFC0180819181181663
:1009700019060CF03FC0CE0101960E943411CE0141
:1009800001960E94570F0E94FD2DCE018B599F4F5B
:10099000FC01808191818C599F4FFC018081918164
:1009A0009C0121503109CE018B599F4FFC01808160
:1009B00091818C599F4FFC0131832083CE018B594B
:1009C0009F4FFC01808191818C599F4FFC01808158
:1009D0009181892F881F8827881F882359F0CE018D
:1009E0008B599F4FFC01808191818C599F4FFC0155
:1009F00011821082CE018B599F4FFC018081918121
:100A000088589F4FFC0180819181181619060CF0BF
:100A10004BC0CE018B599F4FFC0180819181885A38
:100A20009F4FFC0180819181BC01CE0101960E9403
:100A3000AB11CE0101960E94570F0E94FD2DCE01F1
:100A40008B599F4FFC018081918188589F4FFC01F9
:100A5000808191819C0121503109CE018B599F4F9A
:100A6000FC018081918188589F4FFC013183208354
:100A7000CE018B599F4FFC018081918188589F4FF7
:100A8000FC0180819181892F881F8827881F8823F6
:100A900059F0CE018B599F4FFC018081918188587C
:100AA0009F4FFC0111821082CE018B599F4FFC0198
:100AB000808191818A599F4FFC0180819181181614
:100AC00019060CF059C0CE018B599F4FFC01808153
:100AD0009181FC012685378540895189CE018B594A
:100AE0009F4FFC0180819181FC0180A591A5A2A569
:100AF000B3A589019A01AC01BD01CE0101960E9406
:100B00000A16CE0101960E94570F0E94FD2DCE01BC
:100B10008B599F4FFC01808191818A599F4FFC0125
:100B2000808191819C0121503109CE018B599F4FC9
:100B3000FC01808191818A599F4FFC013183208380
:100B4000CE018B599F4FFC01808191818A599F4F23
:100B5000FC0180819181892F881F8827881F882325
:100B600059F0CE018B599F4FFC01808191818A59A8
:100B70009F4FFC0111821082CE018B599F4FFC01C7
:100B8000808191818A599F4FFC0180819181181643
:100B900019060CF04CC0CE018B599F4FFC0180818F
:100BA0009181FC0180A591A5A2A5B3A5AC01BD01D1
:100BB000CE0101960E945E16CE0101960E94570F4B
:100BC0000E94FD2DCE018B599F4FFC0180819181A8
:100BD0008A599F4FFC01808191819C0121503109EC
:100BE000CE018B599F4FFC01808191818A599F4F83
:100BF000FC0131832083CE018B599F4FFC01808102
:100C000091818A599F4FFC0180819181892F881F92
:100C10008827881F882359F0CE018B599F4FFC01EC
:100C2000808191818A599F4FFC0111821082CE01EF
:100C30008B599F4FFC01808191818A599F4FFC0104
:100C400080819181181619060CF0A2C0CE018B5933
:100C50009F4FFC018081918184599F4FFC018081CD
:100C60009181181619060CF093C0CE018B599F4F35
:100C7000FC0180819181FC0186859785A089B189DD
:100C8000BC01CD010E941970DC01CB019C01CE0199
:100C90008B599F4FFC0180819181FC0180A591A51A
:100CA000A2A5B3A5AC01BD01CE0101960E949A1682
:100CB000CE0101960E94570F0E94FD2DCE018B5947
:100CC0009F4FFC01808191818A599F4FFC01808157
:100CD00091819C0121503109CE018B599F4FFC011C
:100CE000808191818A599F4FFC0131832083CE01FD
:100CF0008B599F4FFC01808191818A599F4FFC0144
:100D000080819181892F881F8827881F882359F027
:100D1000CE018B599F4FFC01808191818A599F4F51
:100D2000FC0111821082CE018B599F4FFC01808102
:100D3000918184599F4FFC01808191819C012150B8
:100D40003109CE018B599F4FFC01808191818459DB
:100D50009F4FFC0131832083CE018B599F4FFC01B3
:100D60008081918184599F4FFC0180819181892FDD
:100D7000881F8827881F882359F0CE018B599F4FE1
:100D8000FC018081918184599F4FFC011182108266
:100D9000CE018B599F4FFC018081918180599F4FDB
:100DA000FC0180819181181619060CF095C1CE01C5
:100DB0008B599F4FFC01808191818E589F4FFC0180
:100DC00080819181181619060CF086C1CE018B59CD
:100DD0009F4FFC018081918188599F4FFC01808148
:100DE0009181181619060CF077C1CE018B599F4FCF
:100DF000FC018081918186599F4FFC018081918106
:100E0000181619060CF068C1CE018B599F4FFC01D2
:100E1000808191818C599F4FFC01808191811816AE
:100E200019060CF059C1CE018B599F4FFC018081EE
:100E3000918184599F4FFC01808191811816190678
:100E40000CF04AC1CE0101960E94C613CE01019654
:100E50000E94570F0E94FD2DCE018B599F4FFC0120
:100E60008081918180599F4FFC01808191819C01FB
:100E700021503109CE018B599F4FFC018081918116
:100E800080599F4FFC0131832083CE018B599F4FA6
:100E9000FC018081918180599F4FFC01808191816B
:100EA000892F881F8827881F882359F0CE018B59E6
:100EB0009F4FFC018081918180599F4FFC011182DD
:100EC0001082CE018B599F4FFC01808191818E58F9
:100ED0009F4FFC01808191819C0121503109CE01FD
:100EE0008B599F4FFC01808191818E589F4FFC014F
:100EF00031832083CE018B599F4FFC0180819181EA
:100F00008E589F4FFC0180819181892F881F8827EF
:100F1000881F882359F0CE018B599F4FFC01808197
:100F200091818E589F4FFC0111821082CE018B5906
:100F30009F4FFC018081918188599F4FFC018081E6
:100F400091819C0121503109CE018B599F4FFC01A9
:100F50008081918188599F4FFC0131832083CE018C
:100F60008B599F4FFC018081918188599F4FFC01D3
:100F700080819181892F881F8827881F882359F0B5
:100F8000CE018B599F4FFC018081918188599F4FE1
:100F9000FC0111821082CE018B599F4FFC01808190
:100FA000918186599F4FFC01808191819C01215044
:100FB0003109CE018B599F4FFC0180819181865967
:100FC0009F4FFC0131832083CE018B599F4FFC0141
:100FD0008081918186599F4FFC0180819181892F69
:100FE000881F8827881F882359F0CE018B599F4F6F
:100FF000FC018081918186599F4FFC0111821082F2
:10100000CE018B599F4FFC01808191818C599F4F5C
:10101000FC01808191819C0121503109CE018B59C5
:101020009F4FFC01808191818C599F4FFC0131833E
:101030002083CE018B599F4FFC01808191818C5977
:101040009F4FFC0180819181892F881F8827881FED
:10105000882359F0CE018B599F4FFC0180819181EB
:101060008C599F4FFC0111821082CE018B599F4FEA
:10107000FC018081918184599F4FFC018081918185
:101080009C0121503109CE018B599F4FFC01808179
:10109000918184599F4FFC0131832083CE018B596C
:1010A0009F4FFC018081918184599F4FFC01808179
:1010B0009181892F881F8827881F882309F4D7C228
:1010C000CE018B599F4FFC018081918184599F4FA4
:1010D000FC0111821082CBC2CE018B599F4FFC01C3
:1010E0008081918180599F4FFC01808191811816E8
:1010F00019060CF051C1CE018B599F4FFC01808124
:1011000091818E589F4FFC0180819181181619069C
:101110000CF042C1CE018B599F4FFC01808191811F
:1011200088599F4FFC0180819181181619060CF097
:1011300033C1CE018B599F4FFC018081918186592B
:101140009F4FFC0180819181181619060CF024C173
:10115000CE018B599F4FFC01808191818C599F4F0B
:10116000FC0180819181181619060CF015C1CE0181
:1011700001960E94F312CE0101960E94570F0E9421
:10118000FD2DCE018B599F4FFC01808191818059AB
:101190009F4FFC01808191819C0121503109CE013A
:1011A0008B599F4FFC018081918180599F4FFC0199
:1011B00031832083CE018B599F4FFC018081918127
:1011C00080599F4FFC0180819181892F881F88273A
:1011D000881F882359F0CE018B599F4FFC018081D5
:1011E000918180599F4FFC0111821082CE018B5951
:1011F0009F4FFC01808191818E589F4FFC0180811F
:1012000091819C0121503109CE018B599F4FFC01E6
:10121000808191818E589F4FFC0131832083CE01C4
:101220008B599F4FFC01808191818E589F4FFC010B
:1012300080819181892F881F8827881F882359F0F2
:10124000CE018B599F4FFC01808191818E589F4F19
:10125000FC0111821082CE018B599F4FFC018081CD
:10126000918188599F4FFC01808191819C0121507F
:101270003109CE018B599F4FFC01808191818859A2
:101280009F4FFC0131832083CE018B599F4FFC017E
:101290008081918188599F4FFC0180819181892FA4
:1012A000881F8827881F882359F0CE018B599F4FAC
:1012B000FC018081918188599F4FFC01118210822D
:1012C000CE018B599F4FFC018081918186599F4FA0
:1012D000FC01808191819C0121503109CE018B5903
:1012E0009F4FFC018081918186599F4FFC01318382
:1012F0002083CE018B599F4FFC01808191818659BB
:101300009F4FFC0180819181892F881F8827881F2A
:10131000882359F0CE018B599F4FFC018081918128
:1013200086599F4FFC0111821082CE018B599F4F2D
:10133000FC01808191818C599F4FFC0180819181BA
:101340009C0121503109CE018B599F4FFC018081B6
:1013500091818C599F4FFC0131832083CE018B59A1
:101360009F4FFC01808191818C599F4FFC018081AE
:101370009181892F881F8827881F882309F479C1C4
:10138000CE018B599F4FFC01808191818C599F4FD9
:10139000FC01118210826DC1CE018B599F4FFC015F
:1013A0008081918188599F4FFC018081918118161D
:1013B00019060CF0C9C0CE018B599F4FFC018081EA
:1013C000918186599F4FFC018081918118161906E1
:1013D0000CF0BAC0CE018B599F4FFC0180819181E6
:1013E0008C599F4FFC0180819181181619060CF0D1
:1013F000ABC0CE0101960E943812CE0101960E9428
:10140000570F0E94FD2DCE018B599F4FFC0180810B
:10141000918188599F4FFC01808191819C012150CD
:101420003109CE018B599F4FFC01808191818859F0
:101430009F4FFC0131832083CE018B599F4FFC01CC
:101440008081918188599F4FFC0180819181892FF2
:10145000881F8827881F882359F0CE018B599F4FFA
:10146000FC018081918188599F4FFC01118210827B
:10147000CE018B599F4FFC018081918186599F4FEE
:10148000FC01808191819C0121503109CE018B5951
:101490009F4FFC018081918186599F4FFC013183D0
:1014A0002083CE018B599F4FFC0180819181865909
:1014B0009F4FFC0180819181892F881F8827881F79
:1014C000882359F0CE018B599F4FFC018081918177
:1014D00086599F4FFC0111821082CE018B599F4F7C
:1014E000FC01808191818C599F4FFC018081918109
:1014F0009C0121503109CE018B599F4FFC01808105
:1015000091818C599F4FFC0131832083CE018B59EF
:101510009F4FFC01808191818C599F4FFC018081FC
:101520009181892F881F8827881F882309F4A3C0E9
:10153000CE018B599F4FFC01808191818C599F4F27
:10154000FC011182108297C0CE018B599F4FFC0184
:101550008081918188599F4FFC018081918118166B
:1015600019060CF089C0CE018B599F4FFC01808178
:10157000918186599F4FFC0180819181181619062F
:101580000CF07AC0CE0101960E94DD11CE010196C9
:101590000E94570F0E94FD2DCE018B599F4FFC01D9
:1015A0008081918188599F4FFC01808191819C01AC
:1015B00021503109CE018B599F4FFC0180819181CF
:1015C00088599F4FFC0131832083CE018B599F4F57
:1015D000FC018081918188599F4FFC01808191811C
:1015E000892F881F8827881F882359F0CE018B599F
:1015F0009F4FFC018081918188599F4FFC0111828E
:101600001082CE018B599F4FFC01808191818659B8
:101610009F4FFC01808191819C0121503109CE01B5
:101620008B599F4FFC018081918186599F4FFC010E
:1016300031832083CE018B599F4FFC0180819181A2
:1016400086599F4FFC0180819181892F881F8827AF
:10165000881F882389F0CE018B599F4FFC01808120
:10166000918186599F4FFC011182108205C00000B4
:1016700003C0000001C00000CE018B599F4FFC0148
:1016800080819181845A9F4FFC018081918118163D
:1016900019060CF05BC0CE018B599F4FFC01808175
:1016A0009181FC0120853185CE018B599F4FFC0132
:1016B00080819181FC0146815781CE018B599F4FDA
:1016C000FC0180819181FC0184819581BC01CE0166
:1016D00001960E94AC14CE0101960E94570F0E9401
:1016E000FD2DCE018B599F4FFC0180819181845A41
:1016F0009F4FFC01808191819C0121503109CE01D5
:101700008B599F4FFC0180819181845A9F4FFC012E
:1017100031832083CE018B599F4FFC0180819181C1
:10172000845A9F4FFC0180819181892F881F8827CF
:10173000881F882359F0CE018B599F4FFC0180816F
:101740009181845A9F4FFC0111821082CE018B59E6
:101750009F4FFC018081918182599F4FFC018081C4
:101760009181181619060CF04FC0CE018B599F4F6E
:10177000FC0180819181FC0184A995A9BC01CE0165
:1017800001960E94F216CE0101960E94570F0E9408
:10179000FD2DCE018B599F4FFC0180819181825993
:1017A0009F4FFC01808191819C0121503109CE0124
:1017B0008B599F4FFC018081918182599F4FFC0181
:1017C00031832083CE018B599F4FFC018081918111
:1017D00082599F4FFC0180819181892F881F882722
:1017E000881F882359F0CE018B599F4FFC018081BF
:1017F000918182599F4FFC0111821082CE01019686
:101800000E94570F0E94982DCE018B599F4FFC01CB
:10181000808191818A599F4FFC01808191811816A6
:1018200019060CF0AAC0CE018B599F4FFC01808194
:101830009181825A9F4FFC0180819181181619066F
:101840000CF09BC0CE018B599F4FFC018081918190
:10185000FC01E684F78400891189CE018B599F4FE2
:10186000FC0180819181FC0124A535A546A557A5E1
:10187000CE018B599F4FFC0180819181FC018285B3
:101880009385A485B5856701780189019A01AC012A
:10189000BD01CE0101960E946215CE0101960E9403
:1018A000570F0E94FD2DCE018B599F4FFC01808167
:1018B00091818A599F4FFC01808191819C01215027
:1018C0003109CE018B599F4FFC01808191818A594A
:1018D0009F4FFC0131832083CE018B599F4FFC0128
:1018E000808191818A599F4FFC0180819181892F4C
:1018F000881F8827881F882359F0CE018B599F4F56
:10190000FC01808191818A599F4FFC0111821082D4
:10191000CE018B599F4FFC0180819181825A9F4F4C
:10192000FC01808191819C0121503109CE018B59AC
:101930009F4FFC0180819181825A9F4FFC0131832E
:101940002083CE018B599F4FFC0180819181825A67
:101950009F4FFC0180819181892F881F8827881FD4
:10196000882359F0CE018B599F4FFC0180819181D2
:10197000825A9F4FFC0111821082CE018B599F4FDA
:10198000FC018081918186599F4FFC01808191816A
:10199000181619060CF0AAC0CE018B599F4FFC01F6
:1019A0008081918188599F4FFC0180819181181617
:1019B00019060CF09BC0CE018B599F4FFC01808112
:1019C0009181FC01E0A8F1A802A913A9CE018B59CD
:1019D0009F4FFC0180819181FC01268537854089DC
:1019E0005189CE018B599F4FFC0180819181FC016F
:1019F00084A595A5A6A5B7A56701780189019A01D7
:101A0000AC01BD01CE0101960E94F20FCE010196FC
:101A10000E94570F0E94FD2DCE018B599F4FFC0154
:101A2000808191818E599F4FFC01808191819C0121
:101A300021503109CE018B599F4FFC01808191814A
:101A40008E599F4FFC0131832083CE018B599F4FCC
:101A5000FC01808191818E599F4FFC018081918191
:101A6000892F881F8827881F882359F0CE018B591A
:101A70009F4FFC01808191818E599F4FFC01118203
:101A80001082CE018B599F4FFC0180819181805A39
:101A90009F4FFC01808191819C0121503109CE0131
:101AA0008B599F4FFC0180819181805A9F4FFC018F
:101AB00031832083CE018B599F4FFC01808191811E
:101AC000805A9F4FFC0180819181892F881F882730
:101AD000881F882359F0CE018B599F4FFC018081CC
:101AE0009181805A9F4FFC0111821082CE018B5947
:101AF0009F4FFC01808191818E599F4FFC01808115
:101B00009181181619060CF09DC0CE018B599F4F7C
:101B1000FC0180819181805A9F4FFC0180819181DD
:101B2000181619060CF08EC0CE018B599F4FFC0180
:101B300080819181FC012289338944895589CE01B4
:101B40008B599F4FFC0180819181FC018689978987
:101B5000A08DB18D89019A01AC01BD01CE01019624
:101B60000E947E10CE0101960E94570F0E94FD2D0B
:101B7000CE018B599F4FFC01808191818E599F4FDF
:101B8000FC01808191819C0121503109CE018B594A
:101B90009F4FFC01808191818E599F4FFC013183C1
:101BA0002083CE018B599F4FFC01808191818E59FA
:101BB0009F4FFC0180819181892F881F8827881F72
:101BC000882359F0CE018B599F4FFC018081918170
:101BD0008E599F4FFC0111821082CE018B599F4F6D
:101BE000FC0180819181805A9F4FFC01808191810D
:101BF0009C0121503109CE018B599F4FFC018081FE
:101C00009181805A9F4FFC0131832083CE018B59F3
:101C10009F4FFC0180819181805A9F4FFC01808100
:101C20009181892F881F8827881F882359F0CE012A
:101C30008B599F4FFC0180819181805A9F4FFC01FD
:101C400011821082CE018B599F4FFC0180819181BE
:101C500080599F4FFC0180819181181619060CF064
:101C600095C0CE018B599F4FFC01808191818E5888
:101C70009F4FFC0180819181181619060CF086C0D7
:101C8000CE018B599F4FFC01808191819C012E5B7D
:101C90003F4FCE018B599F4FFC0180819181C696A9
:101CA000A901BC01CE0101960E942417CE01019624
:101CB0000E94570F0E94FD2DCE018B599F4FFC01B2
:101CC0008081918180599F4FFC01808191819C018D
:101CD00021503109CE018B599F4FFC0180819181A8
:101CE00080599F4FFC0131832083CE018B599F4F38
:101CF000FC018081918180599F4FFC0180819181FD
:101D0000892F881F8827881F882359F0CE018B5977
:101D10009F4FFC018081918180599F4FFC0111826E
:101D20001082CE018B599F4FFC01808191818E588A
:101D30009F4FFC01808191819C0121503109CE018E
:101D40008B599F4FFC01808191818E589F4FFC01E0
:101D500031832083CE018B599F4FFC01808191817B
:101D60008E589F4FFC0180819181892F881F882781
:101D7000881F882359F0CE018B599F4FFC01808129
:101D800091818E589F4FFC01118210820000CA5928
:101D9000DF4F0FB6F894DEBF0FBECDBFDF91CF91FE
:101DA0001F910F91FF90EF90DF90CF900895CF9308
:101DB000DF9300D000D0CDB7DEB79E838D838D81B9
:101DC0009E810E9453739A83898389819A819C01A1
:101DD000215031098D819E810196B9010E948C1C90
:101DE0009C838B8389819A819C012F5F3F4F3A832B
:101DF00029832D813E81820F931F2AE2FC012083DB
:101E00002D813E8189819A81820F931F2C812F938E
:101E10002B812F9320E132E0232F2F9320E132E01A
:101E20002F93292F2F938F930E94E0500F900F90A4
:101E30000F900F900F900F9089819A8102969A834C
:101E400089832D813E8189819A81820F931F25E1AB
:101E500032E0232F2F9325E132E02F93292F2F9368
:101E60008F930E94E0500F900F900F900F90000002
:101E700026960FB6F894DEBF0FBECDBFDF91CF918F
:101E80000895CF93DF931F921F92CDB7DEB79A8349
:101E9000898389819A8144E650E060E070E00E9485
:101EA0004C7300000F900F90DF91CF910895CF9366
:101EB000DF931F921F92CDB7DEB79A838983898102
:101EC0009A810F900F90DF91CF9108950F931F93F8
:101ED000CF93DF93CDB7DEB72A970FB6F894DEBF66
:101EE0000FBECDBF9A8389834B835C836D837E83D2
:101EF0000F83188729873A8789819A810E94410F29
:101F000089819A812A852F9329852F9328852F935C
:101F10002F812F932E812F932D812F932C812F93FF
:101F20002B812F9328E132E0232F2F9328E132E0F9
:101F30002F93292F2F938F930E94E0508DB79EB738
:101F40000C960FB6F894DEBF0FBECDBF89819A8183
:101F50000E94D70E00002A960FB6F894DEBF0FBE7F
:101F6000CDBFDF91CF911F910F910895CF93DF9354
:101F700000D000D0CDB7DEB79A8389834B835C83D2
:101F80006D837E8389819A810E94410F89819A8124
:101F90002E812F932D812F932C812F932B812F9383
:101FA00025E532E0232F2F9325E532E02F93292FCB
:101FB0002F938F930E94E0508DB79EB708960FB66F
:101FC000F894DEBF0FBECDBF89819A810E94D70EE3
:101FD000000026960FB6F894DEBF0FBECDBFDF918E
:101FE000CF910895CF92DF92EF92FF920F931F93BC
:101FF000CF93DF93CDB7DEB766970FB6F894DEBF09
:102000000FBECDBF9A8789874B875C876D877E8798
:102010000F87188B298B3A8BCB8ADC8AED8AFE8A54
:1020200089859A850E94410F2F85388949895A8967
:102030006B857C858D859E850E94356FDC01CB018B
:1020400089839A83AB83BC8326E53EE04DEE5FE354
:102050006B897C898D899E890E940671DC01CB0188
:102060008D839E83AF83B88789859A8528852F9332
:102070002F812F932E812F932D812F932E892F9394
:102080002D892F932C892F932B892F932E852F9376
:102090002D852F932C852F932B852F932C812F9378
:1020A0002B812F932A812F9329812F9323E632E0CE
:1020B000232F2F9323E632E02F93292F2F938F93F3
:1020C0000E94E0508DB79EB744960FB6F894DEBFDD
:1020D0000FBECDBF89859A850E94D70E00006696F7
:1020E0000FB6F894DEBF0FBECDBFDF91CF911F9129
:1020F0000F91FF90EF90DF90CF9008950F931F9373
:10210000CF93DF93CDB7DEB763970FB6F894DEBFFA
:102110000FBECDBF9B878A874C875D876E877F8781
:10212000088B198B2A8B3B8B8A859B850E94410FDC
:1021300082E589838C859D85AE85BF858A839B8357
:10214000AC83BD8326E53EE04DEE5FE36889798987
:102150008A899B890E940671DC01CB018E839F8353
:10216000A887B98720E030E044E353E46C857D859F
:102170008E859F850E940171181694F42C853D85EB
:102180004E855F8560E070E084EB93E40E94356FDC
:10219000DC01CB018A839B83AC83BD838CE4898380
:1021A00020E030E04AE754E46E817F81888599859C
:1021B0000E940671DC01CB0120E030E041E655E4ED
:1021C000BC01CD010E94A76FDC01CB012981422F08
:1021D000220F550B2A853B8569856F9368856F9320
:1021E0006F816F936E816F936B2F6F936A2F6F93D5
:1021F000692F6F938F938B898F938A898F938989A6
:102200008F9388898F93852F8F93842F8F938D81C0
:102210008F938C818F938B818F938A818F9386E8A4
:1022200092E0892F8F9386E892E08F93832F8F938C
:10223000822F8F930E94E0508DB79EB746960FB6BF
:10224000F894DEBF0FBECDBF8A859B850E94D70E56
:10225000000063960FB6F894DEBF0FBECDBFDF91CE
:10226000CF911F910F910895BF92CF92DF92EF927D
:10227000FF920F931F93CF93DF931F921F92CDB7BF
:10228000DEB79A83898389819A810E94410F809168
:102290002609C82E880FDD08E0902409F090250952
:1022A0000091220910912309A0912009B0912109E0
:1022B00080911F09E82F880FFF0B60911D09709115
:1022C0001E0940911B0950911C0920911909309158
:1022D0001A0989819A81BD2CBF92DC2CDF92DF2CF8
:1022E000DF92FE2CFF92F12EFF92102F1F931B2FD7
:1022F0001F93AF93AF2FAF93EF93E72FEF936F93AE
:10230000652F6F934F93432F4F932F932AEA32E019
:10231000232F2F932AEA32E02F93292F2F938F9385
:102320000E94E0508DB79EB744960FB6F894DEBF7A
:102330000FBECDBF89819A810E94D70E00000F90F9
:102340000F90DF91CF911F910F91FF90EF90DF9051
:10235000CF90BF900895CF93DF9300D01F92CDB759
:10236000DEB79A8389837C836B8389819A810E94FB
:10237000410F89819A812C812F932B812F9324EDFA
:1023800032E0232F2F9324ED32E02F93292F2F9328
:102390008F930E94E0500F900F900F900F900F902E
:1023A0000F9089819A810E94D70E00000F900F90A4
:1023B0000F900F90DF91CF910895CF93DF931F92ED
:1023C0001F92CDB7DEB79A83898389819A810E9453
:1023D000410F80912B0990912C09A0912D09B0916A
:1023E0002E0920910D0930910E0940910F0950914D
:1023F0001009BC01CD010E94356FDC01CB019C01AD
:10240000AD0180912F0990913009A0913109B091CF
:10241000320969817A81E52FEF93E42FEF93E32F5F
:10242000EF932F932B2F2F932A2F2F93292F2F9317
:102430008F938DEE92E0892F8F938DEE92E08F93A4
:10244000872F8F93862F8F930E94E0508DB79EB772
:102450000C960FB6F894DEBF0FBECDBF89819A816E
:102460000E94D70E00000F900F90DF91CF9108953A
:102470003F924F925F926F927F928F929F92AF9214
:10248000BF92CF92DF92EF92FF920F931F93CF9361
:10249000DF931F921F92CDB7DEB79A83898389811C
:1024A0009A810E94410F80912B0990912C09A09153
:1024B0002D09B0912E0920910D0930910E094091FE
:1024C0000F0950911009BC01CD010E94356FDC014C
:1024D000CB019C01AD0180912F0990913009A09111
:1024E0003109B091320960912609462E660F5508D0
:1024F000609024097090250980902209909023090A
:10250000A0902009B090210960911F09C62E660F86
:10251000DD08E0901D09F0901E0900911B09109143
:102520001C09E0911909F0911A0969817A81352E07
:102530003F92342E3F92332E3F922F932B2F2F9387
:102540002A2F2F93292F2F938F93852D8F93842DAF
:102550008F93872D8F93862D8F93892D8F93882D21
:102560008F938B2D8F938A2D8F938D2D8F938C2D01
:102570008F938F2D8F938E2D8F93812F8F93802FFD
:102580008F938F2F8F938E2F8F938EE093E0892FD1
:102590008F938EE093E08F93872F8F93862F8F9367
:1025A0000E94E0508DB79EB74C960FB6F894DEBFF0
:1025B0000FBECDBF89819A810E94D70E00000F9077
:1025C0000F90DF91CF911F910F91FF90EF90DF90CF
:1025D000CF90BF90AF909F908F907F906F905F90C3
:1025E0004F903F9008952F923F924F925F926F923B
:1025F0007F928F929F92AF92BF92CF92DF92EF9293
:10260000FF920F931F93CF93DF931F921F92CDB72B
:10261000DEB79A83898389819A810E94410F8091D4
:102620002B0990912C09A0912D09B0912E09209190
:102630000D0930910E0940910F0950911009BC010C
:10264000CD010E94356FDC01CB019C01AD01809171
:102650002F0990913009A0913109B0913209609110
:102660002609462E660F55086090240970902509AA
:102670008090220990902309A0902009B090210910
:1026800060911F09C62E660FDD08E0901D09F090CD
:102690001E0900911B0910911C09E0911909F09184
:1026A0001A0969817A810F2EF5E32F2EF9E03F2E6A
:1026B000F02D3F920F2EF5E32F2EF9E03F2EF02D57
:1026C000322C3F92352E3F92342E3F92332E3F9242
:1026D0002F932B2F2F932A2F2F93292F2F938F93C5
:1026E000852D8F93842D8F93872D8F93862D8F9398
:1026F000892D8F93882D8F938B2D8F938A2D8F9378
:102700008D2D8F938C2D8F938F2D8F938E2D8F9357
:10271000812F8F93802F8F938F2F8F938E2F8F9357
:1027200081E499E0892F8F9381E499E08F9386E487
:1027300093E0892F8F9386E493E08F93872F8F9375
:10274000862F8F930E94E0508DB79EB780960FB66C
:10275000F894DEBF0FBECDBF89819A810E94D70E4B
:1027600000000F900F90DF91CF911F910F91FF907C
:10277000EF90DF90CF90BF90AF909F908F907F9021
:102780006F905F904F903F902F9008952F923F92BF
:102790004F925F926F927F928F929F92AF92BF9271
:1027A000CF92DF92EF92FF920F931F93CF93DF931D
:1027B00000D000D0CDB7DEB79A83898389819A8112
:1027C0000E94410FC0900D09D0900E09E0900F09B2
:1027D000F090100980912B0990912C09A0912D095E
:1027E000B0912E0920910D0930910E0940910F09E9
:1027F00050911009BC01CD010E94356FDC01CB0165
:102800004C015D0120912F0930913009409131092F
:102810005091320980912609682F880F770B7C83AD
:102820006B8380912409909125099E838D8320904C
:10283000220930902309409020095090210980916D
:102840001F09682E880F770800911D0910911E0935
:10285000A0911B09B0911C09E0911909F0911A0986
:1028600069817A818F2D8F938E2D8F938D2D8F93EC
:102870008C2D8F9385E399E0892F8F9385E399E0E1
:102880008F938B2D8F938A2D8F93892D8F93882DE6
:102890008F93852F8F93842F8F93832F8F93822FE6
:1028A0008F938C818F938B818F938E818F938D816A
:1028B0008F93832D8F93822D8F93852D8F93842DCE
:1028C0008F93872D8F93862D8F93812F8F93802FBA
:1028D0008F938B2F8F938A2F8F938F2F8F938E2F82
:1028E0008F9381E499E0892F8F9381E499E08F930E
:1028F00084E893E0892F8F9384E893E08F93872F68
:102900008F93862F8F930E94E0506DB77EB76C5DDA
:102910007F4F0FB6F894DEBF0FBECDBF89819A817D
:102920000E94D70E000026960FB6F894DEBF0FBEA9
:10293000CDBFDF91CF911F910F91FF90EF90DF906E
:10294000CF90BF90AF909F908F907F906F905F904F
:102950004F903F902F900895CF93DF93CDB7DEB780
:1029600028970FB6F894DEBF0FBECDBF9A83898338
:102970007C836B835E834D8338872F8389819A8123
:102980000E94410F89819A8128852F932F812F934F
:102990002E812F932D812F932C812F932B812F9379
:1029A00026EC33E0232F2F9326EC33E02F93292FAF
:1029B0002F938F930E94E0508DB79EB70A960FB663
:1029C000F894DEBF0FBECDBF89819A810E94D70ED9
:1029D000000028960FB6F894DEBF0FBECDBFDF9182
:1029E000CF910895CF93DF93CDB7DEB72E970FB673
:1029F000F894DEBF0FBECDBF9A8789874B875C876F
:102A00006D877E8789859A850E94410F2FEB3EE076
:102A10004CE95EE36B857C858D859E850E94067101
:102A2000DC01CB0189839A83AB83BC832EE136E141
:102A30004AEE5FE369817A818B819C810E94A76F56
:102A4000DC01CB018D839E83AF83B88789859A850E
:102A500028852F932F812F932E812F932D812F93B4
:102A60002C812F932B812F932A812F9329812F93B0
:102A70002E852F932D852F932C852F932B852F9388
:102A80002EED33E0232F2F932EED33E02F93292FBC
:102A90002F938F930E94E0508DB79EB740960FB64C
:102AA000F894DEBF0FBECDBF89859A850E94D70EF0
:102AB00000002E960FB6F894DEBF0FBECDBFDF919B
:102AC000CF910895CF92DF92EF92FF920F931F93D1
:102AD000CF93DF93CDB7DEB762970FB6F894DEBF22
:102AE0000FBECDBF9E838D834F83588769877A87BA
:102AF0000B871C872D873E87CF86D88AE98AFA8A7A
:102B00008D819E810E94410F2F85388949895A897C
:102B10006B857C858D859E850E94356FDC01CB01A0
:102B200089839A83AB83BC8320E030E0A90169816B
:102B30007A818B819C810E94017188232CF089818C
:102B40009A81AB81BC810CC020E030E044EB53E4BF
:102B500069817A818B819C810E94366FDC01CB0177
:102B600089839A83AB83BC8326E53EE04DEE5FE329
:102B70006F81788589859A850E940671DC01CB0179
:102B80002D813E814B2F4F934A2F4F93492F4F93C7
:102B90008F938A858F9389858F9388858F938F8173
:102BA0008F938E858F938D858F938C858F938B8557
:102BB0008F938C818F938B818F938A818F9389815F
:102BC0008F938AEF93E0892F8F938AEF93E08F930F
:102BD000832F8F93822F8F930E94E0508DB79EB7E3
:102BE00044960FB6F894DEBF0FBECDBF8D819E8197
:102BF0000E94D70E000062960FB6F894DEBF0FBE9B
:102C0000CDBFDF91CF911F910F91FF90EF90DF909B
:102C1000CF9008950F931F93CF93DF93CDB7DEB777
:102C20002A970FB6F894DEBF0FBECDBF9A83898373
:102C30004B835C836D837E830F83188729873A8754
:102C400089819A810E94410F89819A812A852F93D7
:102C500029852F9328852F932F812F931F921F92C1
:102C60001F921F922E812F932D812F932C812F93B2
:102C70002B812F932DE134E0232F2F932DE134E08E
:102C80002F93292F2F938F930E94E0508DB79EB7DB
:102C900040960FB6F894DEBF0FBECDBF89819A81F2
:102CA0000E94D70E00002A960FB6F894DEBF0FBE22
:102CB000CDBFDF91CF911F910F910895CF93DF93F7
:102CC00000D000D0CDB7DEB79A8389834B835C8375
:102CD0006D837E8389819A810E94410F89819A81C7
:102CE0002E812F932D812F932C812F932B812F9326
:102CF00027E334E0232F2F9327E334E02F93292F6A
:102D00002F938F930E94E0508DB79EB708960FB611
:102D1000F894DEBF0FBECDBF89819A810E94D70E85
:102D2000000026960FB6F894DEBF0FBECDBFDF9130
:102D3000CF910895CF93DF93CDB7DEB728970FB625
:102D4000F894DEBF0FBECDBF9A8389834B835C832B
:102D50006D837E8338872F8389819A810E94410FFA
:102D60008F819885092E000CAA0BBB0BBC01CD01ED
:102D70000E945170DC01CB019C01AD016B817C8113
:102D80008D819E810E94356FDC01CB0129813A81C2
:102D90004B2F4F934A2F4F93492F4F938F9385E497
:102DA00094E0892F8F9385E494E08F93832F8F9302
:102DB000822F8F930E94E0508DB79EB708960FB672
:102DC000F894DEBF0FBECDBF89819A810E94D70ED5
:102DD000000028960FB6F894DEBF0FBECDBFDF917E
:102DE000CF910895CF93DF9300D01F92CDB7DEB778
:102DF0009A8389837C836B8389819A810E94410FA6
:102E000089819A812C812F932B812F9323E534E0A4
:102E1000232F2F9323E534E02F93292F2F938F9384
:102E20000E94E0500F900F900F900F900F900F9016
:102E300089819A810E94D70E00000F900F900F9009
:102E40000F90DF91CF910895FF920F931F93CF932F
:102E5000DF93CDB7DEB728970FB6F894DEBF0FBE6D
:102E6000CDBF9A8389837C836B835E834D83898105
:102E70009A810E94410F8B819C810E945373069717
:102E800009F464C08B819C810596FC018081082F28
:102E9000880F110B8B819C810496FC018081A82FE7
:102EA000880FBB0B8B819C810396FC018081282FAE
:102EB000880F330B38872F838B819C810296FC010E
:102EC0008081682F880F770B8B819C810196FC0194
:102ED0008081482F880F550B8B819C81FC0180815C
:102EE000282F880F330B89819A81F12EFF92102FA2
:102EF0001F931B2F1F93AF93A885AF93EF81EF9381
:102F0000E72FEF936F93652F6F934F93432F4F935B
:102F10002F932E812F932D812F9321E634E0232FA1
:102F20002F9321E634E02F93292F2F938F930E9424
:102F3000E0502DB73EB72E5E3F4F0FB6F894DEBF80
:102F40000FBECDBF89819A810E94D70E00002896BE
:102F50000FB6F894DEBF0FBECDBFDF91CF911F91AA
:102F60000F91FF9008950F931F93CF93DF93CDB7E9
:102F7000DEB7EA970FB6F894DEBF0FBECDBF98AFAD
:102F80008FAB7AAF69AF8FA998AD0E94410F1E82B7
:102F90001D8289AD9AAD0E945373BC019E012B5FC7
:102FA0003F4FAE01495F5F4F89AD9AAD0E94C71C8C
:102FB0008D819E812FEF280F8FA998AD8A589F4F42
:102FC000FC0120838FA998AD8A589F4FFC01808116
:102FD000833008F4A4C08B859C850E9453730297AC
:102FE00009F09DC08FA998AD8A589F4FFC01808140
:102FF000082F10E08B859C850196FC0180810E9442
:10300000751D882F90E08F709927039621E008178F
:10301000190709F020E0222309F47AC01A821982E4
:103020008FA998AD8A589F4FFC018081282F30E0EE
:1030300089819A81821793070CF078C089819A81DF
:103040000196880F991F9E012F5F3F4F820F931F9C
:103050000696FC01808191810E9453730297A9F525
:1030600089819A810196880F991F9E012F5F3F4F9A
:10307000820F931F0696FC0180819181FC01808163
:103080000E94751D182F1295107F89819A810196D3
:10309000880F991F9E012F5F3F4F820F931F069647
:1030A000FC01808191810196FC0180810E94751D47
:1030B000412F480F2FA938AD89819A81820F931F24
:1030C0008C599F4FFC0140831DC089819A810196D4
:1030D000880F991F9E012F5F3F4F820F931F069607
:1030E000FC0180819181FC0180810E94751D482F27
:1030F0002FA938AD89819A81820F931F8C599F4FD8
:10310000FC01408389819A8101969A83898388CFC3
:103110008FA998AD8A589F4FFC01108207C08FA9D4
:1031200098AD8A589F4FFC01108201C000001C829C
:103130001B828D819E812B813C812817390724F5C4
:103140008B819C81880F991F9E012F5F3F4F820FBB
:10315000931F0696FC0180819181892B79F08B81E8
:103160009C81880F991F9E012F5F3F4F820F931FF5
:103170000696FC01808191810E940B728B819C815B
:1031800001969C838B83D5CF0000EA960FB6F89406
:10319000DEBF0FBECDBFDF91CF911F910F9108957C
:1031A000CF93DF93CDB7DEB728970FB6F894DEBF85
:1031B0000FBECDBF9D838C837F836E8348878C81B8
:1031C0009D810E94410F8885482F50E08C819D8110
:1031D0008C599F4F2E813F81B9010E9443738C818E
:1031E0009D818A589F4F2885FC0120838C819D8179
:1031F0002FE734E0232F2F932FE734E02F93292F4D
:103200002F938F930E94E0500F900F900F900F908C
:1032100086E08B831A8219828885282F30E0898185
:103220009A8182179307B4F589819A812E813F8113
:10323000820F931FFC018081682F70E08B81482FE3
:1032400050E029813A81C901880F991F820F931F8D
:10325000840F951F2C813D81820F931F272F2F9361
:10326000262F2F9326E834E0232F2F9326E834E0EF
:103270002F93292F2F938F930E94E0500F900F9040
:103280000F900F900F900F9089819A8101969A83E9
:103290008983C2CF8C819D810E94D70E0000289621
:1032A0000FB6F894DEBF0FBECDBFDF91CF9108956A
:1032B000CF93DF9300D0CDB7DEB78B838B81082E01
:1032C000000C990B0E943B738B838B81813434F00B
:1032D0008B81082E000C990BC79705C08B81082E97
:1032E000000C990BC0979A83898389819A810F90EA
:1032F0000F900F90DF91CF910895CF93DF931F929E
:103300001F92CDB7DEB79A83898389819A818A57C4
:103310009F4FFC011182108289819A818C579F4FA7
:10332000FC011182108289819A8188579F4FFC018C
:103330001182108289819A8186579F4FFC011182E8
:10334000108200000F900F90DF91CF910895CF93DE
:10335000DF93CDB7DEB7C750D1400FB6F894DEBFCC
:103360000FBECDBF9E012B5F3E4FF901918380833D
:10337000CE01895F9E4FFC016083CE018B5F9E4F23
:10338000FC01808191818A579F4FFC01808191814E
:10339000843691055CF0CE018B5F9E4FFC018081ED
:1033A00091818C579F4FFC0111821082CE01895F61
:1033B0009E4FFC0180818A3039F0CE01895F9E4F9B
:1033C000FC0180818D3059F4CE018B5F9E4FFC0152
:1033D000808191818C579F4FFC0111821082CE0118
:1033E000895F9E4FFC018081843239F0CE01895F74
:1033F0009E4FFC0180818132A9F5CE018B5F9E4FEB
:10340000FC018081918140E850E060E070E00E9422
:103410004C73CE018B5F9E4FFC01808191819E0198
:10342000295F3E4FF9012081FC012083CE018B5F93
:103430009E4FFC01808191818A579F4F21E030E0AF
:10344000FC0131832083CE018B5F9E4FFC01808184
:1034500091818C579F4F21E030E0FC013183208324
:1034600080E035C2CE018B5F9E4FFC01808191814F
:103470008C579F4FFC01808191818130910521F013
:10348000029709F463C013C2CE018B5F9E4FFC010B
:10349000808191818A579F4FFC01808191819E019B
:1034A0002B5F3E4FF90120813181820F931F9E01D6
:1034B000295F3E4FF9012081FC012083CE018B5F03
:1034C0009E4FFC01808191818A579F4FFC01808132
:1034D00091819C012F5F3F4FCE018B5F9E4FFC017E
:1034E000808191818A579F4FFC0131832083CE01D7
:1034F000895F9E4FFC0180818A3209F0E4C1CE01D0
:103500008B5F9E4FFC01808191818C579F4F22E001
:1035100030E0FC0131832083CE018B5F9E4FFC01A4
:10352000808191818A579F4FFC01808191819C010C
:1035300022503109CE018B5F9E4FFC018081918129
:103540008E579F4FFC0131832083BDC1CE018B5F1D
:103550009E4FFC01808191818A579F4FFC018081A1
:1035600091819E012B5F3E4FF90120813181820FB5
:10357000931F9E01295F3E4FF9012081FC012083AA
:10358000CE018B5F9E4FFC01808191818A579F4FB6
:10359000FC01808191819C012F5F3F4FCE018B5FA9
:1035A0009E4FFC01808191818A579F4FFC0131839E
:1035B0002083CE018B5F9E4FFC01808191818A57D1
:1035C0009F4FFC0120813181CE018B5F9E4FFC011A
:1035D000808191818E579F4FFC0180819181A9014B
:1035E000481B590BCA0104970CF46FC1CE018B5FC5
:1035F0009E4FFC01808191818E579F4FFC018081FD
:1036000091819C01CE018B5F9E4FFC018081918155
:103610000196B9010E948C1C9A838983CE018B5F2D
:103620009E4FFC01808191818A579F4FFC018081D0
:10363000918102979E012B5F3E4FF90120813181DC
:10364000820F931FFC0180810E94581982959295E8
:10365000907F9827807F98279C838B83CE018B5FF8
:103660009E4FFC01808191818A579F4FFC01808190
:10367000918101979E012B5F3E4FF901208131819D
:10368000820F931FFC0180810E9458199C018B813D
:103690009C81820F931F9C838B83CE018B5F9E4FF7
:1036A000FC01808191818A579F4FFC01808191812B
:1036B000AC014F5F5F4F9E012B5F3E4FF9012081B0
:1036C00031812A573F4FF901518340839E012B5F7F
:1036D0003E4FF90120813181820F931F2DE0FC01C3
:1036E0002083CE018B5F9E4FFC01808191818A57A0
:1036F0009F4FFC0180819181AC014F5F5F4F9E0124
:103700002B5F3E4FF901208131812A573F4FF9014C
:10371000518340839E012B5F3E4FF901208131810F
:10372000820F931F2AE0FC012083CE018B5F9E4F06
:10373000FC01808191818A579F4FFC01208131815A
:10374000CE018B5F9E4FFC018081918180589F4FFD
:10375000FC0131832083CE018B5F9E4FFC01808171
:1037600091818A579F4FFC0180819181AC014F5F0D
:103770005F4F9E012B5F3E4FF901208131812A5717
:103780003F4FF901518340839E012B5F3E4FF9016A
:1037900020813181820F931FFC0110822B813C819B
:1037A00089819A812817390709F459C08CE894E077
:1037B0000E94982D8C818F938B818F938A818F9318
:1037C00089818F938AEA94E0892F8F938AEA94E023
:1037D0008F93CE010596292F2F938F930E94E0504F
:1037E0004DB75EB7485F5F4F0FB6F894DEBF0FBEB0
:1037F000CDBFCE0105960E94982D8AEC94E00E94E0
:10380000982DCE018B5F9E4FFC01808191810E949B
:10381000A62DCE018B5F9E4FFC01808191818C573C
:103820009F4FFC0111821082CE018B5F9E4FFC01E5
:103830008081918188579F4FFC01808191819C01FB
:103840002F5F3F4FCE018B5F9E4FFC0180819181A6
:1038500088579F4FFC013183208380E038C0CE0120
:103860008B5F9E4FFC018081918186579F4FFC01A9
:10387000808191819C012F5F3F4FCE018B5F9E4FD6
:10388000FC018081918186579F4FFC013183208309
:10389000CE018B5F9E4FFC01808191818C579F4FA1
:1038A00023E030E0FC013183208381E010C0CE01B1
:1038B0008B5F9E4FFC01808191818C579F4FFC0153
:1038C0001182108203C0000001C0000080E0C95FC7
:1038D000DE4F0FB6F894DEBF0FBECDBFDF91CF91A4
:1038E0000895CF93DF931F921F92CDB7DEB79A83CF
:1038F000898389819A818C579F4FFC0180819181B6
:10390000039719F489819A8102C080E090E00F90BA
:103910000F90DF91CF910895CF93DF93CDB7DEB7AE
:1039200028970FB6F894DEBF0FBECDBF9E838D8360
:1039300078876F831A8219821C821B822B813C81BB
:103940008F81988528173907B8F42D813E818B81A6
:103950009C81820F931FFC018081082E000C990B23
:1039600029813A81822793279A8389838B819C813D
:1039700001969C838B83E2CF89819A8128960FB62A
:10398000F894DEBF0FBECDBFDF91CF910895CF93E6
:10399000DF93CDB7DEB760970FB6F894DEBF0FBEEA
:1039A000CDBF9A8789877C876B875E874D87388BE9
:1039B0002F878F859889FC01118210821A821982C3
:1039C0001C821B828B859C852B813C8128173907A3
:1039D0000CF082C08B819C8129853A85820F931FD0
:1039E000FC0180818C3259F08B819C8129853A853C
:1039F000820F931FFC0180818A3209F05AC02B810B
:103A00003C8189819A81A901481B590BCA01988779
:103A10008F838F81988518161906ECF48F8198850D
:103A200001960E9473719E838D834F815885898191
:103A30009A8129853A85280F391F8D819E81B90188
:103A40000E9443738F8198852D813E81820F931F41
:103A5000FC0110820AC082E090E00E9473719E8394
:103A60008D838D819E81FC0110828F859889FC0158
:103A700080819181AC014F5F5F4F2F853889F901BB
:103A800051834083880F991F2D853E85820F931F98
:103A90002D813E81FC01318320838B819C810196A5
:103AA0009A8389838F859889FC01808191814897C9
:103AB00084F48B819C8129853A85820F931FFC01B8
:103AC00080818A3241F08B819C8101969C838B831B
:103AD00079CF000001C0000060960FB6F894DEBFF9
:103AE0000FBECDBFDF91CF910895CF93DF931F928B
:103AF000CDB7DEB789838981803334F089818A33F9
:103B00001CF48981805313C08981813434F0898108
:103B100087341CF4898187530AC08981813634F047
:103B2000898187361CF48981875501C080E00F9018
:103B3000DF91CF910895CF93DF9300D01F92CDB73F
:103B4000DEB79A8389837C836B8389819A810E9403
:103B5000B91DAC0189819A812B813C81B9010E94F8
:103B60006B2000000F900F900F900F90DF91CF917E
:103B70000895CF93DF931F921F92CDB7DEB79A833C
:103B8000898385E090E00F900F90DF91CF910895A9
:103B9000CF93DF9300D01F92CDB7DEB79A8389838E
:103BA0007C836B8389819A810E94E61DAC018981A7
:103BB0009A812B813C81B9010E946B2000000F90FB
:103BC0000F900F900F90DF91CF910895CF93DF93D7
:103BD0001F921F92CDB7DEB79A83898384E090E06D
:103BE0000F900F90DF91CF910895CF93DF9300D086
:103BF0001F92CDB7DEB79A8389837C836B838981DB
:103C00009A810E94131EAC0189819A812B813C818B
:103C1000B9010E946B2000000F900F900F900F9041
:103C2000DF91CF910895CF93DF931F921F92CDB76D
:103C3000DEB79A83898384E090E00F900F90DF9144
:103C4000CF910895CF93DF9300D01F92CDB7DEB709
:103C50009A8389837C836B8389819A810E94401E29
:103C6000AC0189819A812B813C81B9010E946B2032
:103C700000000F900F900F900F90DF91CF9108955B
:103C8000CF93DF931F921F92CDB7DEB79A838983BC
:103C900084E090E00F900F90DF91CF910895CF9343
:103CA000DF9300D01F92CDB7DEB79A8389837C83E0
:103CB0006B8389819A810E946D1EAC0189819A81F2
:103CC0002B813C81B9010E946B2000000F900F9066
:103CD0000F900F90DF91CF910895CF93DF931F92B4
:103CE0001F92CDB7DEB79A83898384E090E00F906E
:103CF0000F90DF91CF910895CF93DF9300D01F9263
:103D0000CDB7DEB79A8389837C836B8389819A815F
:103D10000E949A1EAC0189819A812B813C81B90154
:103D20000E946B2000000F900F900F900F90DF917A
:103D3000CF910895CF93DF931F921F92CDB7DEB737
:103D40009A83898384E090E00F900F90DF91CF9168
:103D50000895CF93DF9300D01F92CDB7DEB79A833B
:103D600089837C836B8389819A810E94C71EAC0101
:103D700089819A812B813C81B9010E946B200000CE
:103D80000F900F900F900F90DF91CF910895CF93E8
:103D9000DF931F921F92CDB7DEB79A83898387E0A6
:103DA00090E00F900F90DF91CF910895CF93DF9324
:103DB00000D01F92CDB7DEB79A8389837C836B8353
:103DC00089819A810E94F41EAC0189819A812B819C
:103DD0003C81B9010E946B2000000F900F900F9062
:103DE0000F90DF91CF910895CF93DF931F921F9291
:103DF000CDB7DEB79A83898384E090E00F900F906F
:103E0000DF91CF910895CF93DF9300D01F92CDB76C
:103E1000DEB79A8389837C836B8389819A810E9430
:103E2000211FAC0189819A812B813C81B9010E94BB
:103E30006B2000000F900F900F900F90DF91CF91AB
:103E40000895CF93DF931F921F92CDB7DEB79A8369
:103E5000898383E090E00F900F90DF91CF910895D8
:103E6000CF93DF9300D01F92CDB7DEB79A838983BB
:103E70007C836B8389819A810E944E1FAC0189816A
:103E80009A812B813C81B9010E946B2000000F9028
:103E90000F900F900F90DF91CF910895CF93DF9304
:103EA0001F921F92CDB7DEB79A83898384E090E09A
:103EB0000F900F90DF91CF910895CF93DF9300D0B3
:103EC0001F92CDB7DEB79A8389837C836B83898108
:103ED0009A810E947B1FAC0189819A812B813C8150
:103EE000B9010E946B2000000F900F900F900F906F
:103EF000DF91CF910895CF93DF931F921F92CDB79B
:103F0000DEB79A83898384E090E00F900F90DF9171
:103F1000CF910895CF93DF9300D01F92CDB7DEB736
:103F20009A8389837C836B8389819A810E94A81FED
:103F3000AC0189819A812B813C81B9010E946B205F
:103F400000000F900F900F900F90DF91CF91089588
:103F5000CF93DF931F921F92CDB7DEB79A838983E9
:103F600083E090E00F900F90DF91CF910895CF9371
:103F7000DF9300D01F92CDB7DEB79A8389837C830D
:103F80006B8389819A810E94D51FAC0189819A81B6
:103F90002B813C81B9010E946B2000000F900F9093
:103FA0000F900F90DF91CF910895CF93DF931F92E1
:103FB0001F92CDB7DEB79A83898385E090E00F909A
:103FC0000F90DF91CF910895CF93DF9300D01F9290
:103FD000CDB7DEB79A8389837C836B8389819A818D
:103FE0000E940220AC0189819A812B813C81B90118
:103FF0000E946B2000000F900F900F900F90DF91A8
:10400000CF910895CF93DF931F921F92CDB7DEB764
:104010009A83898388E090E00F900F90DF91CF9191
:104020000895CF93DF9300D01F92CDB7DEB79A8368
:1040300089837C836B8389819A810E942F20AC01C4
:1040400089819A812B813C81B9010E946B200000FB
:104050000F900F900F900F90DF91CF910895CF9315
:10406000DF931F921F92CDB7DEB79A83898383E0D7
:1040700090E00F900F90DF91CF910895CF93DF9351
:1040800000D01F92CDB7DEB79A8389837C836B8380
:1040900089819A810E945C20AC0189819A812B815F
:1040A0003C81B9010E946B2000000F900F900F908F
:1040B0000F90DF91CF910895CF93DF931F921F92BE
:1040C000CDB7DEB79A83898384E090E00F900F909C
:1040D000DF91CF910895CF93DF9300D000D0CDB77B
:1040E000DEB79A8389837C836B835E834D8389816A
:1040F0009A812D813E81FC01318320834D815E8137
:1041000089819A8102962B813C81B9010E94437377
:10411000000026960FB6F894DEBF0FBECDBFDF912C
:10412000CF910895CF93DF931F921F92CDB7DEB743
:104130009A83898389819A8102960F900F90DF91EB
:10414000CF910895CF93DF931F921F92CDB7DEB723
:104150009A83898389819A81FC018281882F90E0EA
:104160000F900F90DF91CF9108950F931F93CF93EE
:10417000DF9300D01F92CDB7DEB79A8389837C830B
:104180006B8389819A81FC018081882F90E0092EC0
:10419000000CAA0BBB0B40E050E02CE930E0841B84
:1041A000950B2817390708F4D7C0FC018827EE586B
:1041B000FF4F8F4F0C944D6E84E190E00E949D69FB
:1041C0008C0189819A81BC01C8010E949B1DC80194
:1041D000D2C084E190E00E949D698C0189819A811E
:1041E000BC01C8010E94221EC801C5C084E190E044
:1041F0000E949D698C0189819A81BC01C8010E943D
:104200004F1EC801B8C084E190E00E949D698C01F6
:1042100089819A81BC01C8010E947C1EC801ABC083
:1042200084E190E00E949D698C0189819A81BC01A2
:10423000C8010E94C81DC8019EC084E190E00E9490
:104240009D698C0189819A81BC01C8010E94A91EC7
:10425000C80191C084E190E00E949D698C01898130
:104260009A81BC01C8010E94F51DC80184C084E187
:1042700090E00E949D698C0189819A81BC01C801EE
:104280000E94D61EC80177C084E190E00E949D691B
:104290008C0189819A81BC01C8010E94031FC80159
:1042A0006AC084E190E00E949D698C0189819A81B5
:1042B000BC01C8010E94301FC8015DC084E190E0CC
:1042C0000E949D698C0189819A81BC01C8010E946C
:1042D0005D1FC80150C084E190E00E949D698C017F
:1042E00089819A81BC01C8010E948A1FC80143C00C
:1042F00084E190E00E949D698C0189819A81BC01D2
:10430000C8010E94E41FC80136C084E190E00E9409
:104310009D698C0189819A81BC01C8010E94B71FE7
:10432000C80129C084E190E00E949D698C018981C7
:104330009A81BC01C8010E941120C8011CC084E1FF
:1043400090E00E949D698C0189819A81BC01C8011D
:104350000E943E20C8010FC084E190E00E949D6948
:104360008C012B813C8189819A81A901BC01C80102
:104370000E946B20C8010F900F900F900F90DF915B
:10438000CF911F910F910895CF93DF931F921F92AA
:10439000CDB7DEB79A83898389819A81FC01108E1B
:1043A000178A89819A81FC01168A158A89819A81E6
:1043B000FC01128E118E89819A81FC01148E138E5C
:1043C00000000F900F90DF91CF910895CF93DF936E
:1043D00000D01F92CDB7DEB79A8389837C836B832D
:1043E00089819A81FC018789908D43972CF089817E
:1043F0009A81FC01168A158A8B819C81882791708D
:10440000892B11F189819A8143E150E060E070E0ED
:104410000E944C732B8189819A81FC0120838981C0
:104420009A81FC01148A138A89819A8121E030E003
:10443000FC01308F278B89819A8121E030E0FC01DB
:10444000368B258B80E08CC089819A81FC0185891F
:1044500096898230910509F44DC08330910509F4A5
:1044600079C0019709F070C089819A81FC01878920
:10447000908D019759F48B819C818F7099270396B9
:104480009C0189819A81FC01348B238B89819A81DB
:10449000FC018789908DAC014F5F5F4F29813A8184
:1044A000F901508F478B4B8129813A81820F931FED
:1044B000FC01408389819A81FC018789908D039753
:1044C0000CF44AC089819A81FC01838994890497FC
:1044D00044F089819A8122E030E0FC01368B258B03
:1044E0003BC089819A8123E030E0FC01368B258B2B
:1044F00081E036C089819A81FC018789908DAC0169
:104500004F5F5F4F29813A81F901508F478B4B8173
:1045100029813A81820F931FFC01408389819A810E
:10452000FC012789308D89819A81FC0183899489D6
:10453000281739079CF089819A8123E030E0FC013B
:10454000368B258B81E00CC089819A81FC01168A0B
:10455000158A05C0000003C0000001C0000080E013
:104560000F900F900F900F90DF91CF910895CF9300
:10457000DF931F921F92CDB7DEB79A83898389811B
:104580009A81FC0185899689039719F489819A811A
:1045900002C080E090E00F900F90DF91CF910895DE
:1045A000CF93DF931F921F92CDB7DEB79A83898393
:1045B00089819A81FC0185899689039731F48981E3
:1045C0009A81FC018389948902C080E090E00F9079
:1045D0000F90DF91CF910895CF93DF931F921F9299
:1045E000CDB7DEB79A8389832BEF36E089819A8134
:1045F000FC013183208389819A81FC01138212821C
:1046000000000F900F90DF91CF910895CF93DF932B
:104610001F921F92CDB7DEB79A83898380E090E026
:104620000F900F90DF91CF910895CF93DF931F925A
:104630001F92CDB7DEB79A83898300000F900F9049
:10464000DF91CF910895CF93DF931F921F92CDB743
:10465000DEB79A83898389819A810E94EC222BE7B5
:1046600036E089819A81FC013183208329813A8156
:1046700088EE93E0A0E0B0E0F90184839583A683FF
:10468000B78300000F900F90DF91CF910895CF93E3
:10469000DF9300D000D0CDB7DEB79A8389834B83F8
:1046A0005C836D837E838B819C81AD81BE81E9813A
:1046B000FA8126E0AC01BD01CF010E943662000004
:1046C00026960FB6F894DEBF0FBECDBFDF91CF9117
:1046D0000895CF93DF931F921F92CDB7DEB79A83D1
:1046E000898389819A818C599F4F0F900F90DF9118
:1046F000CF910895CF93DF931F921F92CDB7DEB76E
:104700009A83898389819A818A589F4FFC0180818D
:104710000F900F90DF91CF910895CF93DF931F9269
:104720001F92CDB7DEB79A83898389819A81865A91
:104730009F4FFC011182108289819A81845A9F4F78
:10474000FC011182108289819A81825A9F4FFC015B
:104750001182108289819A81805A9F4FFC011182B7
:10476000108289819A818E599F4FFC01118210829B
:1047700089819A818C599F4FFC0111821082898115
:104780009A818A599F4FFC011182108289819A81F6
:1047900088599F4FFC011182108289819A81865924
:1047A0009F4FFC011182108289819A8184599F4F09
:1047B000FC011182108289819A8182599F4FFC01EC
:1047C0001182108289819A8180599F4FFC01118248
:1047D000108289819A818E589F4FFC01118210822C
:1047E00089819A818C589F4FFC01118210828981A6
:1047F0009A818A589F4FFC011182108289819A8187
:1048000088589F4FFC011182108289819A81FC0196
:10481000108211821282138289819A81FC01158291
:10482000148289819A81FC011782168289819A817A
:10483000FC011186108689819A81FC0112861386FB
:104840001486158689819A81FC0116861786108A3E
:10485000118A89819A81FC01128A138A148A158A25
:1048600089819A81FC01168A178A108E118E89819E
:104870009A81FC01138E128E89819A81FC01158E1A
:10488000148E89819A81FC01178E168E89819A81F6
:1048900020E4FC0120A389819A81FC0112A211A2CB
:1048A00089819A81FC0114A213A289819A81FC0159
:1048B00016A215A289819A8120E4FC0127A389818F
:1048C0009A81FC0110A611A612A613A689819A81CD
:1048D000FC0114A615A616A617A689819A81FC01CB
:1048E00010AA11AA12AA13AA89819A81FC0115AAF9
:1048F00014AA89819A81C696FC01108289819A81C5
:104900008E5B9F4FFC01108289819A81825B9F4F51
:10491000FC01108211821282138289819A818E5A3F
:104920009F4FFC01108211821282138289819A8129
:104930008A5A9F4FFC011182108289819A81885A7C
:104940009F4FFC011182108200000F900F90DF91A9
:10495000CF910895CF93DF931F921F92CDB7DEB70B
:104960009A83898389819A81FC01808191810F904A
:104970000F90DF91CF910895CF93DF931F921F92F5
:10498000CDB7DEB79A83898389819A81FC018581BD
:10499000282F30E089819A81FC018681882F90E060
:1049A000982F8827820F931F092E000CAA0BBB0B90
:1049B000BC01CD010E945170DC01CB0120E030E050
:1049C00040E251E4BC01CD010E94A76FDC01CB01A4
:1049D000BC01CD010F900F90DF91CF910895CF933F
:1049E000DF931F921F92CDB7DEB79A83898386E04B
:1049F00090E00F900F90DF91CF910895CF93DF93C8
:104A00001F921F92CDB7DEB79A83898389819A81DD
:104A1000FC018481882F90E08F7099270F900F9070
:104A2000DF91CF910895CF93DF931F921F92CDB75F
:104A3000DEB79A83898389819A81FC018581882FD9
:104A400090E0382F222789819A81FC018681882F66
:104A500090E0820F931F0F900F90DF91CF910895F8
:104A6000CF93DF9300D01F92CDB7DEB79C838B83AB
:104A70008B819C81FC018781882F90E09A838983B8
:104A800089819A81803891052CF089819A819A9543
:104A90009A83898389819A810F900F900F900F904C
:104AA000DF91CF910895CF93DF931F921F92CDB7DF
:104AB000DEB79A83898389819A81FC018381882F5B
:104AC00090E08074992721E0892B09F420E0822F5F
:104AD0000F900F90DF91CF910895CF93DF931F92A6
:104AE0001F92CDB7DEB79A83898389819A81FC01B1
:104AF0008481882F90E00F900F90DF91CF910895DF
:104B0000CF93DF931F921F92CDB7DEB79A8389832D
:104B100089819A81FC018581882F90E0382F222796
:104B200089819A81FC018481882F90E0820F931FF4
:104B300084569109092E000CAA0BBB0BBC01CD01B8
:104B40000E945170DC01CB0120E030E040E251E4F2
:104B5000BC01CD010E94A76FDC01CB01BC01CD01DE
:104B60000F900F90DF91CF910895CF93DF93CDB742
:104B7000DEB72A970FB6F894DEBF0FBECDBF9A8777
:104B8000898789859A85FC018481882F90E0982FF8
:104B90008827092E000CAA0BBB0B89839A83AB8351
:104BA000BC8389859A85FC018581882F90E0A0E0EF
:104BB000B0E029813A814B815C81822B932BA42B1D
:104BC000B52B89839A83AB83BC8369817A818B817E
:104BD0009C810E944F70DC01CB0120E030E040E07E
:104BE00050E4BC01CD010E94A76FDC01CB018D8395
:104BF0009E83AF83B8878D819E81AF81B885BC01CC
:104C0000CD012A960FB6F894DEBF0FBECDBFDF915F
:104C1000CF910895CF92DF92EF92FF92CF93DF93DF
:104C200000D000D0CDB7DEB79E838D838D819E816D
:104C3000FC018481882F90E08F779927092E000C42
:104C4000AA0BBB0BBC01CD010E9451706B017C0112
:104C50008D819E81FC018581882F90E08F7099273E
:104C6000092E000CAA0BBB0BBC01CD010E94517098
:104C7000DC01CB0120E030E040E251E4BC01CD0199
:104C80000E94A76FDC01CB019C01AD01C701B601F9
:104C90000E94366FDC01CB0189839A83AB83BC838E
:104CA0008D819E81FC01848188236CF422EA32EBA1
:104CB00043E05FE369817A818B819C810E94A76FC9
:104CC000DC01CB0104C089819A81AB81BC81BC012C
:104CD000CD0126960FB6F894DEBF0FBECDBFDF9193
:104CE000CF91FF90EF90DF90CF900895CF93DF9317
:104CF0001F921F92CDB7DEB79A83898389819A81EB
:104D0000FC018481882F90E0382F222789819A81A5
:104D1000FC018581882F90E0820F931F092E000CE3
:104D2000AA0BBB0BBC01CD010E945170DC01CB0171
:104D300020E030E040E251E4BC01CD010E94A76FC9
:104D4000DC01CB01BC01CD010F900F90DF91CF9121
:104D50000895CF93DF931F921F92CDB7DEB79A834A
:104D6000898389819A81FC018481882F90E0382F82
:104D7000222789819A81FC018581882F90E0820F0A
:104D8000931F092E000CAA0BBB0BBC01CD010E9486
:104D90005170DC01CB01BC01CD010F900F90DF9170
:104DA000CF910895CF93DF931F921F92CDB7DEB7B7
:104DB0009A83898389819A81FC018581882F90E07B
:104DC000382F222789819A81FC018481882F90E0E5
:104DD000820F931F092E000CAA0BBB0BBC01CD0147
:104DE0000E945170DC01CB0120E030E040E251E450
:104DF000BC01CD010E94A76FDC01CB01BC01CD013C
:104E00000F900F90DF91CF910895CF92DF92EF92A4
:104E1000FF92CF93DF931F921F92CDB7DEB79A8395
:104E2000898389819A81FC018381882F90E0807336
:104E300099279595879595958795959587959595B6
:104E40008795092E000CAA0BBB0BBC01CD010E945B
:104E50005170DC01CB0120E030E044EB52E4BC01B6
:104E6000CD010E940671DC01CB016C017D018981BD
:104E70009A81FC018481882F90E08F739927092EF5
:104E8000000CAA0BBB0BBC01CD010E945170DC01D0
:104E9000CB019C01AD01BC01CD010E94366FDC014C
:104EA000CB019C01AD01C701B6010E94366FDC0148
:104EB000CB016C017D0189819A81FC018381882F5E
:104EC00090E0959587959595879595958795959576
:104ED00087958C709927092E000CAA0BBB0BBC017F
:104EE000CD010E945170DC01CB0120E030E040E0B8
:104EF00051E4BC01CD010E94A76FDC01CB019C01F4
:104F0000AD01C701B6010E94366FDC01CB01BC01C7
:104F1000CD010F900F90DF91CF91FF90EF90DF9038
:104F2000CF900895CF93DF931F921F92CDB7DEB736
:104F30009A83898389819A81FC018581882F90E0F9
:104F40000F900F90DF91CF910895CF93DF931F9231
:104F50001F92CDB7DEB79A83898389819A81FC013C
:104F60008481882F90E08C7F992799230CF40396F5
:104F700095958795959587950F900F90DF91CF9197
:104F80000895CF93DF931F921F92CDB7DEB79A8318
:104F9000898389819A81FC018481882F90E08295A0
:104FA0009295907F9827807F98279C01332789814D
:104FB0009A81FC01838182958F70882F90E0822BEB
:104FC000932B8F7399270F900F90DF91CF910895B6
:104FD000CF93DF931F921F92CDB7DEB79A83898359
:104FE00089819A81FC018581882F90E00F900F9034
:104FF000DF91CF910895CF93DF931F921F92CDB78A
:10500000DEB79A83898389819A81FC0183818295A5
:105010008F70882F90E00F900F90DF91CF910895BF
:10502000CF93DF931F921F92CDB7DEB79A83898308
:1050300089819A81FC018481882F90E00F900F90E4
:10504000DF91CF910895CF93DF931F921F92CDB739
:10505000DEB79A83898389819A81FC018381882FB5
:1050600090E09595879595958795959587959595D4
:1050700087950F900F90DF91CF910895CF93DF9395
:105080001F921F92CDB7DEB79A83898389819A8157
:10509000FC018481882F90E00F900F90DF91CF91D9
:1050A0000895CF93DF9300D01F92CDB7DEB79C83D6
:1050B0008B838B819C81FC018381882F90E080739E
:1050C00099279C01359527953595279535952795F1
:1050D000359527954AE5429FC001439F900D1124C5
:1050E0009A8389838B819C81FC018481882F90E045
:1050F0008F739927880F991F29813A81820F931FF7
:105100009A8389838B819C81FC018381881F8827F6
:10511000881F882F90E029813A81820F931F9A83FC
:10512000898389819A810F900F900F900F90DF9162
:10513000CF910895CF93DF931F921F92CDB7DEB723
:105140009A83898389819A81FC01848182958695DD
:1051500086958370882F90E04AE5489F9001499F8B
:10516000300D112489819A81FC0185818695882FD3
:1051700090E0820F931F0F900F90DF91CF910895D1
:10518000CF93DF931F921F92CDB7DEB79A838983A7
:1051900089819A81FC018681882F90E0827099270D
:1051A00021E0892B09F420E0822F0F900F90DF91EE
:1051B000CF910895CF93DF931F921F92CDB7DEB7A3
:1051C0009A83898389819A81FC018681882F90E066
:1051D0008470992721E0892B09F420E0822F0F9019
:1051E0000F90DF91CF910895CF93DF931F921F927D
:1051F000CDB7DEB79A83898389819A81FC01868144
:10520000882F90E08870992721E0892B09F420E00D
:10521000822F0F900F90DF91CF910895CF93DF935E
:105220001F921F92CDB7DEB79A83898389819A81B5
:10523000FC018381882F90E09595879595958795BA
:105240009595879595958795837099274DE2489F09
:105250009001499F300D112489819A81FC0184813C
:10526000882F90E08F739927820F931F9C01220F44
:10527000331F89819A81FC018381882F90E0959565
:1052800087959595879595958795959587958C7034
:10529000992799230CF40796959587959595879569
:1052A00095958795820F931F0F900F90DF91CF9167
:1052B00008958F929F92AF92BF92CF92DF92EF921A
:1052C000FF92CF93DF93CDB7DEB7E0970FB6F89498
:1052D000DEBF0FBECDBF98AB8FA78FA598A9FC01ED
:1052E0008481882F90E09C838B838FA598A9FC01F3
:1052F0008581882F90E0982F88279E838D838FA5A6
:1053000098A9FC018681882F90E02D813E81822B17
:10531000932B9E838D838D819E81CC01A0E0B0E094
:10532000BC01CD010E944F70DC01CB0120E030E0D8
:105330004AE754E4BC01CD010E94A76FDC01CB0118
:105340008F839887A987BA876F81788589859A85A1
:105350000E941970DC01CB019C878B874D815E8197
:10536000CA019695879596958795969587959C0100
:10537000A5ECB0E20E94556E929582958F708927B8
:105380009F70892768EE73E0869F9001879F300D9C
:10539000969F300D1124CA01821B930B9E878D8727
:1053A00080E489838FA598A9FC018381882F90E0F0
:1053B00080719927892B19F083E5898302C08EE4D7
:1053C00089838B819C81092E000CAA0BBB0BBC012D
:1053D000CD010E9451706B017C018B859C85092E4B
:1053E000000CAA0BBB0BBC01CD010E9451704B01FC
:1053F0005C018D859E85092E000CAA0BBB0BBC01A0
:10540000CD010E945170DC01CB0120E030E04AE781
:1054100054E4BC01CD010E94A76FDC01CB019C01CB
:10542000AD01C501B4010E94366FDC01CB0120E063
:1054300030E040E752E4BC01CD010E94A76FDC01DF
:10544000CB019C01AD01C701B6010E94366FDC01A2
:10545000CB018F87988BA98BBA8B8F859889A98967
:10546000BA89BF772FE632E143E85AE3BC01CD01A8
:105470000E94A26F88230CF42EC280916309909140
:105480006409892B09F4B6C08B819C81092E000C1C
:10549000AA0BBB0BBC01CD010E9451706B017C01BA
:1054A0008B859C85092E000CAA0BBB0BBC01CD0182
:1054B0000E9451704B015C018D859E85092E000C68
:1054C000AA0BBB0BBC01CD010E945170DC01CB01CA
:1054D00020E030E04AE754E4BC01CD010E94A76F10
:1054E000DC01CB019C01AD01C501B4010E94366F06
:1054F000DC01CB0120E030E040E752E4BC01CD010B
:105500000E94A76FDC01CB019C01AD01C701B60170
:105510000E94366FDC01CB018B8B9C8BAD8BBE8BDD
:105520008091190990911A09092E000CAA0BBB0B46
:10553000BC01CD010E9451706B017C0180911B095F
:1055400090911C09092E000CAA0BBB0BBC01CD01CC
:105550000E9451704B015C0180911D0990911E09C0
:10556000092E000CAA0BBB0BBC01CD010E9451708F
:10557000DC01CB0120E030E04AE754E4BC01CD017E
:105580000E94A76FDC01CB019C01AD01C501B401F4
:105590000E94366FDC01CB0120E030E040E752E4AE
:1055A000BC01CD010E94A76FDC01CB019C01AD01C4
:1055B000C701B6010E94366FDC01CB018F8B988F3B
:1055C000A98FBA8F2F89388D498D5A8D6B897C8927
:1055D0008D899E890E94356FDC01CB01BF7720E069
:1055E00030E040E05FE3BC01CD010E94017118167C
:1055F0000CF473C18FA598A9FC018781882F90E0D6
:105600009C8F8B8F8FA598A9FC018085882F90E0B7
:10561000982F88279E8F8D8F8FA598A9FC01818553
:10562000882F90E02D8D3E8D822B932B9E8F8D8F1A
:105630008D8D9E8DCC01A0E0B0E0BC01CD010E941B
:105640004F70DC01CB0120E030E04AE754E4BC01BC
:10565000CD010E94A76FDC01CB018F8F98A3A9A376
:10566000BAA36F8D78A189A19AA10E941970DC015B
:10567000CB019CA38BA34D8D5E8DCA01969587951A
:1056800096958795969587959C01A5ECB0E20E942A
:10569000556E929582958F7089279F70892768EE45
:1056A00073E0869F9001879F300D969F300D1124E7
:1056B000CA01821B930B9EA38DA380E48A838FA5CE
:1056C00098A9FC018381882F90E080729927892B0B
:1056D00019F085E48A8302C087E58A838B8D9C8DCF
:1056E000092E000CAA0BBB0BBC01CD010E9451700E
:1056F0006B017C018BA19CA1092E000CAA0BBB0B9A
:10570000BC01CD010E9451704B015C018DA19EA195
:10571000092E000CAA0BBB0BBC01CD010E945170DD
:10572000DC01CB0120E030E04AE754E4BC01CD01CC
:105730000E94A76FDC01CB019C01AD01C501B40142
:105740000E94366FDC01CB0120E030E040E752E4FC
:10575000BC01CD010E94A76FDC01CB019C01AD0112
:10576000C701B6010E94366FDC01CB018FA398A759
:10577000A9A7BAA78FA198A5A9A5BAA5BF772FE613
:1057800032E143E85AE3BC01CD010E94A26F8823B5
:105790000CF4A5C08091630990916409892B09F4E8
:1057A00069C08091200990912109092E000CAA0B53
:1057B000BB0BBC01CD010E9451706B017C0180913B
:1057C000220990912309092E000CAA0BBB0BBC01E6
:1057D000CD010E9451704B015C0180912409909190
:1057E0002509092E000CAA0BBB0BBC01CD010E94A0
:1057F0005170DC01CB0120E030E04AE754E4BC0109
:10580000CD010E94A76FDC01CB019C01AD01C50158
:10581000B4010E94366FDC01CB0120E030E040E7AC
:1058200052E4BC01CD010E94A76FDC01CB019C01B9
:10583000AD01C701B6010E94366FDC01CB018BA719
:105840009CA7ADA7BEA72BA53CA54DA55EA56FA1A6
:1058500078A589A59AA50E94356FDC01CB01BF7799
:1058600020E030E040E05FE3BC01CD010E94017127
:105870001816BCF18B819C8190931A0980931909A9
:105880008B859C8590931C0980931B098D859E8533
:1058900090931E0980931D09898180931F098B8D28
:1058A0009C8D90932109809320098BA19CA19093BA
:1058B0002309809322098DA19EA1909325098093AD
:1058C00024098A818093260986E090E090936409F8
:1058D0008093630907C0000005C0000003C00000FA
:1058E00001C00000E0960FB6F894DEBF0FBECDBF3A
:1058F000DF91CF91FF90EF90DF90CF90BF90AF906E
:105900009F908F900895CF93DF931F921F92CDB7F2
:10591000DEB79A83898383E090E00F900F90DF9148
:10592000CF910895CF93DF931F921F92CDB7DEB72B
:105930009A83898389819A81FC018481882F90E0F0
:105940000F900F90DF91CF910895CF93DF9300D008
:105950001F92CDB7DEB79C838B838B819C81FC012A
:105960008381882F90E0807399279C013595279536
:105970003595279535952795359527954AE5429F85
:10598000C001439F900D11249A8389838B819C8150
:10599000FC018481882F90E08F739927880F991FCD
:1059A00029813A81820F931F9A8389838B819C81FD
:1059B000FC018381881F8827881F882F90E0298118
:1059C0003A81820F931F9A83898389819A810F90EC
:1059D0000F900F900F90DF91CF910895CF93DF93A9
:1059E00000D01F92CDB7DEB79C838B838B819C81C7
:1059F000FC018581882F90E09A83898389819A812F
:105A0000803891052CF089819A819A959A838983AF
:105A100089819A810F900F900F900F90DF91CF9115
:105A20000895CF93DF931F921F92CDB7DEB79A836D
:105A3000898389819A810E94232329ED36E0898117
:105A40009A81FC013183208300000F900F90DF9139
:105A5000CF910895CF93DF931F921F92CDB7DEB7FA
:105A60009A83898329ED36E089819A81FC0131830B
:105A700020830E94755D00000F900F90DF91CF9101
:105A80000895CF93DF9300D01F92CDB7DEB769831F
:105A90007A838B839C8389819A81AB81BC81B69503
:105AA000A795979587959C5DAB40BF4F29813A811B
:105AB0004B815C81BC01CD010E940C6EDA01C901F1
:105AC000BC01CD010E94BE5C00000F900F900F90B2
:105AD0000F90DF91CF910895CF93DF9300D01F9265
